{
	"contracts/eVoting_app.sol": {
		"EVoteApp": {
			"abi": [
				{
					"inputs": [
						{
							"internalType": "string",
							"name": "name",
							"type": "string"
						}
					],
					"name": "addOption",
					"outputs": [],
					"stateMutability": "nonpayable",
					"type": "function"
				},
				{
					"inputs": [
						{
							"internalType": "string",
							"name": "_poolName",
							"type": "string"
						},
						{
							"internalType": "string",
							"name": "_description",
							"type": "string"
						}
					],
					"name": "startPool",
					"outputs": [],
					"stateMutability": "nonpayable",
					"type": "function"
				}
			],
			"devdoc": {
				"kind": "dev",
				"methods": {},
				"version": 1
			},
			"evm": {
				"assembly": "    /* \"contracts/eVoting_app.sol\":71:1061  contract EVoteApp{... */\n  mstore(0x40, 0x80)\n    /* \"contracts/eVoting_app.sol\":589:590  0 */\n  0x00\n    /* \"contracts/eVoting_app.sol\":568:590  uint256 numOfPools = 0 */\n  0x01\n  sstore\n    /* \"contracts/eVoting_app.sol\":71:1061  contract EVoteApp{... */\n  callvalue\n  dup1\n  iszero\n  tag_1\n  jumpi\n  0x00\n  dup1\n  revert\ntag_1:\n  pop\n  dataSize(sub_0)\n  dup1\n  dataOffset(sub_0)\n  0x00\n  codecopy\n  0x00\n  return\nstop\n\nsub_0: assembly {\n        /* \"contracts/eVoting_app.sol\":71:1061  contract EVoteApp{... */\n      mstore(0x40, 0x80)\n      callvalue\n      dup1\n      iszero\n      tag_1\n      jumpi\n      0x00\n      dup1\n      revert\n    tag_1:\n      pop\n      jumpi(tag_2, lt(calldatasize, 0x04))\n      shr(0xe0, calldataload(0x00))\n      dup1\n      0xedc550dc\n      eq\n      tag_3\n      jumpi\n      dup1\n      0xf71b5cde\n      eq\n      tag_4\n      jumpi\n    tag_2:\n      0x00\n      dup1\n      revert\n        /* \"contracts/eVoting_app.sol\":999:1059  function addOption(string memory name)public{... */\n    tag_3:\n      tag_5\n      0x04\n      dup1\n      calldatasize\n      sub\n      dup2\n      add\n      swap1\n      tag_6\n      swap2\n      swap1\n      tag_7\n      jump\t// in\n    tag_6:\n      tag_8\n      jump\t// in\n    tag_5:\n      stop\n        /* \"contracts/eVoting_app.sol\":597:993  function startPool(string memory _poolName, string memory _description) public{... */\n    tag_4:\n      tag_9\n      0x04\n      dup1\n      calldatasize\n      sub\n      dup2\n      add\n      swap1\n      tag_10\n      swap2\n      swap1\n      tag_11\n      jump\t// in\n    tag_10:\n      tag_12\n      jump\t// in\n    tag_9:\n      stop\n        /* \"contracts/eVoting_app.sol\":999:1059  function addOption(string memory name)public{... */\n    tag_8:\n      pop\n      jump\t// out\n        /* \"contracts/eVoting_app.sol\":597:993  function startPool(string memory _poolName, string memory _description) public{... */\n    tag_12:\n        /* \"contracts/eVoting_app.sol\":742:760  Pool storage _pool */\n      0x00\n        /* \"contracts/eVoting_app.sol\":763:768  pools */\n      dup1\n        /* \"contracts/eVoting_app.sol\":763:782  pools[numOfPools++] */\n      0x00\n        /* \"contracts/eVoting_app.sol\":769:779  numOfPools */\n      0x01\n      0x00\n        /* \"contracts/eVoting_app.sol\":769:781  numOfPools++ */\n      dup2\n      sload\n      dup1\n      swap3\n      swap2\n      swap1\n      tag_15\n      swap1\n      tag_16\n      jump\t// in\n    tag_15:\n      swap2\n      swap1\n      pop\n      sstore\n        /* \"contracts/eVoting_app.sol\":763:782  pools[numOfPools++] */\n      dup2\n      mstore\n      0x20\n      add\n      swap1\n      dup2\n      mstore\n      0x20\n      add\n      0x00\n      keccak256\n        /* \"contracts/eVoting_app.sol\":742:782  Pool storage _pool = pools[numOfPools++] */\n      swap1\n      pop\n        /* \"contracts/eVoting_app.sol\":806:815  _poolName */\n      dup3\n        /* \"contracts/eVoting_app.sol\":793:798  _pool */\n      dup2\n        /* \"contracts/eVoting_app.sol\":793:803  _pool.name */\n      0x00\n      add\n        /* \"contracts/eVoting_app.sol\":793:815  _pool.name = _poolName */\n      swap1\n      dup1\n      mload\n      swap1\n      0x20\n      add\n      swap1\n      tag_17\n      swap3\n      swap2\n      swap1\n      tag_18\n      jump\t// in\n    tag_17:\n      pop\n        /* \"contracts/eVoting_app.sol\":845:857  _description */\n      dup2\n        /* \"contracts/eVoting_app.sol\":825:830  _pool */\n      dup2\n        /* \"contracts/eVoting_app.sol\":825:842  _pool.description */\n      0x01\n      add\n        /* \"contracts/eVoting_app.sol\":825:857  _pool.description = _description */\n      swap1\n      dup1\n      mload\n      swap1\n      0x20\n      add\n      swap1\n      tag_19\n      swap3\n      swap2\n      swap1\n      tag_18\n      jump\t// in\n    tag_19:\n      pop\n        /* \"contracts/eVoting_app.sol\":886:887  0 */\n      0x00\n        /* \"contracts/eVoting_app.sol\":867:872  _pool */\n      dup2\n        /* \"contracts/eVoting_app.sol\":867:883  _pool.totalVotes */\n      0x02\n      add\n        /* \"contracts/eVoting_app.sol\":867:887  _pool.totalVotes = 0 */\n      dup2\n      swap1\n      sstore\n      pop\n        /* \"contracts/eVoting_app.sol\":911:921  msg.sender */\n      caller\n        /* \"contracts/eVoting_app.sol\":897:902  _pool */\n      dup2\n        /* \"contracts/eVoting_app.sol\":897:908  _pool.owner */\n      0x03\n      add\n      0x00\n        /* \"contracts/eVoting_app.sol\":897:921  _pool.owner = msg.sender */\n      0x0100\n      exp\n      dup2\n      sload\n      dup2\n      0xffffffffffffffffffffffffffffffffffffffff\n      mul\n      not\n      and\n      swap1\n      dup4\n      0xffffffffffffffffffffffffffffffffffffffff\n      and\n      mul\n      or\n      swap1\n      sstore\n      pop\n        /* \"contracts/eVoting_app.sol\":952:953  0 */\n      0x00\n        /* \"contracts/eVoting_app.sol\":931:936  _pool */\n      dup2\n        /* \"contracts/eVoting_app.sol\":931:949  _pool.numOfOptions */\n      0x05\n      add\n        /* \"contracts/eVoting_app.sol\":931:953  _pool.numOfOptions = 0 */\n      dup2\n      swap1\n      sstore\n      pop\n        /* \"contracts/eVoting_app.sol\":980:985  false */\n      0x00\n        /* \"contracts/eVoting_app.sol\":963:968  _pool */\n      dup2\n        /* \"contracts/eVoting_app.sol\":963:977  _pool.isActive */\n      0x06\n      add\n      0x00\n        /* \"contracts/eVoting_app.sol\":963:985  _pool.isActive = false */\n      0x0100\n      exp\n      dup2\n      sload\n      dup2\n      0xff\n      mul\n      not\n      and\n      swap1\n      dup4\n      iszero\n      iszero\n      mul\n      or\n      swap1\n      sstore\n      pop\n        /* \"contracts/eVoting_app.sol\":675:993  {... */\n      pop\n        /* \"contracts/eVoting_app.sol\":597:993  function startPool(string memory _poolName, string memory _description) public{... */\n      pop\n      pop\n      jump\t// out\n    tag_18:\n      dup3\n      dup1\n      sload\n      tag_20\n      swap1\n      tag_21\n      jump\t// in\n    tag_20:\n      swap1\n      0x00\n      mstore\n      keccak256(0x00, 0x20)\n      swap1\n      0x1f\n      add\n      0x20\n      swap1\n      div\n      dup2\n      add\n      swap3\n      dup3\n      tag_23\n      jumpi\n      0x00\n      dup6\n      sstore\n      jump(tag_22)\n    tag_23:\n      dup3\n      0x1f\n      lt\n      tag_24\n      jumpi\n      dup1\n      mload\n      not(0xff)\n      and\n      dup4\n      dup1\n      add\n      or\n      dup6\n      sstore\n      jump(tag_22)\n    tag_24:\n      dup3\n      dup1\n      add\n      0x01\n      add\n      dup6\n      sstore\n      dup3\n      iszero\n      tag_22\n      jumpi\n      swap2\n      dup3\n      add\n    tag_25:\n      dup3\n      dup2\n      gt\n      iszero\n      tag_26\n      jumpi\n      dup3\n      mload\n      dup3\n      sstore\n      swap2\n      0x20\n      add\n      swap2\n      swap1\n      0x01\n      add\n      swap1\n      jump(tag_25)\n    tag_26:\n    tag_22:\n      pop\n      swap1\n      pop\n      tag_27\n      swap2\n      swap1\n      tag_28\n      jump\t// in\n    tag_27:\n      pop\n      swap1\n      jump\t// out\n    tag_28:\n    tag_29:\n      dup1\n      dup3\n      gt\n      iszero\n      tag_30\n      jumpi\n      0x00\n      dup2\n      0x00\n      swap1\n      sstore\n      pop\n      0x01\n      add\n      jump(tag_29)\n    tag_30:\n      pop\n      swap1\n      jump\t// out\n        /* \"#utility.yul\":7:419   */\n    tag_32:\n        /* \"#utility.yul\":85:90   */\n      0x00\n        /* \"#utility.yul\":110:176   */\n      tag_34\n        /* \"#utility.yul\":126:175   */\n      tag_35\n        /* \"#utility.yul\":168:174   */\n      dup5\n        /* \"#utility.yul\":126:175   */\n      tag_36\n      jump\t// in\n    tag_35:\n        /* \"#utility.yul\":110:176   */\n      tag_37\n      jump\t// in\n    tag_34:\n        /* \"#utility.yul\":101:176   */\n      swap1\n      pop\n        /* \"#utility.yul\":199:205   */\n      dup3\n        /* \"#utility.yul\":192:197   */\n      dup2\n        /* \"#utility.yul\":185:206   */\n      mstore\n        /* \"#utility.yul\":237:241   */\n      0x20\n        /* \"#utility.yul\":230:235   */\n      dup2\n        /* \"#utility.yul\":226:242   */\n      add\n        /* \"#utility.yul\":275:278   */\n      dup5\n        /* \"#utility.yul\":266:272   */\n      dup5\n        /* \"#utility.yul\":261:264   */\n      dup5\n        /* \"#utility.yul\":257:273   */\n      add\n        /* \"#utility.yul\":254:279   */\n      gt\n        /* \"#utility.yul\":251:363   */\n      iszero\n      tag_38\n      jumpi\n        /* \"#utility.yul\":282:361   */\n      tag_39\n      tag_40\n      jump\t// in\n    tag_39:\n        /* \"#utility.yul\":251:363   */\n    tag_38:\n        /* \"#utility.yul\":372:413   */\n      tag_41\n        /* \"#utility.yul\":406:412   */\n      dup5\n        /* \"#utility.yul\":401:404   */\n      dup3\n        /* \"#utility.yul\":396:399   */\n      dup6\n        /* \"#utility.yul\":372:413   */\n      tag_42\n      jump\t// in\n    tag_41:\n        /* \"#utility.yul\":91:419   */\n      pop\n        /* \"#utility.yul\":7:419   */\n      swap4\n      swap3\n      pop\n      pop\n      pop\n      jump\t// out\n        /* \"#utility.yul\":439:779   */\n    tag_43:\n        /* \"#utility.yul\":495:500   */\n      0x00\n        /* \"#utility.yul\":544:547   */\n      dup3\n        /* \"#utility.yul\":537:541   */\n      0x1f\n        /* \"#utility.yul\":529:535   */\n      dup4\n        /* \"#utility.yul\":525:542   */\n      add\n        /* \"#utility.yul\":521:548   */\n      slt\n        /* \"#utility.yul\":511:633   */\n      tag_45\n      jumpi\n        /* \"#utility.yul\":552:631   */\n      tag_46\n      tag_47\n      jump\t// in\n    tag_46:\n        /* \"#utility.yul\":511:633   */\n    tag_45:\n        /* \"#utility.yul\":669:675   */\n      dup2\n        /* \"#utility.yul\":656:676   */\n      calldataload\n        /* \"#utility.yul\":694:773   */\n      tag_48\n        /* \"#utility.yul\":769:772   */\n      dup5\n        /* \"#utility.yul\":761:767   */\n      dup3\n        /* \"#utility.yul\":754:758   */\n      0x20\n        /* \"#utility.yul\":746:752   */\n      dup7\n        /* \"#utility.yul\":742:759   */\n      add\n        /* \"#utility.yul\":694:773   */\n      tag_32\n      jump\t// in\n    tag_48:\n        /* \"#utility.yul\":685:773   */\n      swap2\n      pop\n        /* \"#utility.yul\":501:779   */\n      pop\n        /* \"#utility.yul\":439:779   */\n      swap3\n      swap2\n      pop\n      pop\n      jump\t// out\n        /* \"#utility.yul\":785:1294   */\n    tag_7:\n        /* \"#utility.yul\":854:860   */\n      0x00\n        /* \"#utility.yul\":903:905   */\n      0x20\n        /* \"#utility.yul\":891:900   */\n      dup3\n        /* \"#utility.yul\":882:889   */\n      dup5\n        /* \"#utility.yul\":878:901   */\n      sub\n        /* \"#utility.yul\":874:906   */\n      slt\n        /* \"#utility.yul\":871:990   */\n      iszero\n      tag_50\n      jumpi\n        /* \"#utility.yul\":909:988   */\n      tag_51\n      tag_52\n      jump\t// in\n    tag_51:\n        /* \"#utility.yul\":871:990   */\n    tag_50:\n        /* \"#utility.yul\":1057:1058   */\n      0x00\n        /* \"#utility.yul\":1046:1055   */\n      dup3\n        /* \"#utility.yul\":1042:1059   */\n      add\n        /* \"#utility.yul\":1029:1060   */\n      calldataload\n        /* \"#utility.yul\":1087:1105   */\n      0xffffffffffffffff\n        /* \"#utility.yul\":1079:1085   */\n      dup2\n        /* \"#utility.yul\":1076:1106   */\n      gt\n        /* \"#utility.yul\":1073:1190   */\n      iszero\n      tag_53\n      jumpi\n        /* \"#utility.yul\":1109:1188   */\n      tag_54\n      tag_55\n      jump\t// in\n    tag_54:\n        /* \"#utility.yul\":1073:1190   */\n    tag_53:\n        /* \"#utility.yul\":1214:1277   */\n      tag_56\n        /* \"#utility.yul\":1269:1276   */\n      dup5\n        /* \"#utility.yul\":1260:1266   */\n      dup3\n        /* \"#utility.yul\":1249:1258   */\n      dup6\n        /* \"#utility.yul\":1245:1267   */\n      add\n        /* \"#utility.yul\":1214:1277   */\n      tag_43\n      jump\t// in\n    tag_56:\n        /* \"#utility.yul\":1204:1277   */\n      swap2\n      pop\n        /* \"#utility.yul\":1000:1287   */\n      pop\n        /* \"#utility.yul\":785:1294   */\n      swap3\n      swap2\n      pop\n      pop\n      jump\t// out\n        /* \"#utility.yul\":1300:2134   */\n    tag_11:\n        /* \"#utility.yul\":1388:1394   */\n      0x00\n        /* \"#utility.yul\":1396:1402   */\n      dup1\n        /* \"#utility.yul\":1445:1447   */\n      0x40\n        /* \"#utility.yul\":1433:1442   */\n      dup4\n        /* \"#utility.yul\":1424:1431   */\n      dup6\n        /* \"#utility.yul\":1420:1443   */\n      sub\n        /* \"#utility.yul\":1416:1448   */\n      slt\n        /* \"#utility.yul\":1413:1532   */\n      iszero\n      tag_58\n      jumpi\n        /* \"#utility.yul\":1451:1530   */\n      tag_59\n      tag_52\n      jump\t// in\n    tag_59:\n        /* \"#utility.yul\":1413:1532   */\n    tag_58:\n        /* \"#utility.yul\":1599:1600   */\n      0x00\n        /* \"#utility.yul\":1588:1597   */\n      dup4\n        /* \"#utility.yul\":1584:1601   */\n      add\n        /* \"#utility.yul\":1571:1602   */\n      calldataload\n        /* \"#utility.yul\":1629:1647   */\n      0xffffffffffffffff\n        /* \"#utility.yul\":1621:1627   */\n      dup2\n        /* \"#utility.yul\":1618:1648   */\n      gt\n        /* \"#utility.yul\":1615:1732   */\n      iszero\n      tag_60\n      jumpi\n        /* \"#utility.yul\":1651:1730   */\n      tag_61\n      tag_55\n      jump\t// in\n    tag_61:\n        /* \"#utility.yul\":1615:1732   */\n    tag_60:\n        /* \"#utility.yul\":1756:1819   */\n      tag_62\n        /* \"#utility.yul\":1811:1818   */\n      dup6\n        /* \"#utility.yul\":1802:1808   */\n      dup3\n        /* \"#utility.yul\":1791:1800   */\n      dup7\n        /* \"#utility.yul\":1787:1809   */\n      add\n        /* \"#utility.yul\":1756:1819   */\n      tag_43\n      jump\t// in\n    tag_62:\n        /* \"#utility.yul\":1746:1819   */\n      swap3\n      pop\n        /* \"#utility.yul\":1542:1829   */\n      pop\n        /* \"#utility.yul\":1896:1898   */\n      0x20\n        /* \"#utility.yul\":1885:1894   */\n      dup4\n        /* \"#utility.yul\":1881:1899   */\n      add\n        /* \"#utility.yul\":1868:1900   */\n      calldataload\n        /* \"#utility.yul\":1927:1945   */\n      0xffffffffffffffff\n        /* \"#utility.yul\":1919:1925   */\n      dup2\n        /* \"#utility.yul\":1916:1946   */\n      gt\n        /* \"#utility.yul\":1913:2030   */\n      iszero\n      tag_63\n      jumpi\n        /* \"#utility.yul\":1949:2028   */\n      tag_64\n      tag_55\n      jump\t// in\n    tag_64:\n        /* \"#utility.yul\":1913:2030   */\n    tag_63:\n        /* \"#utility.yul\":2054:2117   */\n      tag_65\n        /* \"#utility.yul\":2109:2116   */\n      dup6\n        /* \"#utility.yul\":2100:2106   */\n      dup3\n        /* \"#utility.yul\":2089:2098   */\n      dup7\n        /* \"#utility.yul\":2085:2107   */\n      add\n        /* \"#utility.yul\":2054:2117   */\n      tag_43\n      jump\t// in\n    tag_65:\n        /* \"#utility.yul\":2044:2117   */\n      swap2\n      pop\n        /* \"#utility.yul\":1839:2127   */\n      pop\n        /* \"#utility.yul\":1300:2134   */\n      swap3\n      pop\n      swap3\n      swap1\n      pop\n      jump\t// out\n        /* \"#utility.yul\":2140:2269   */\n    tag_37:\n        /* \"#utility.yul\":2174:2180   */\n      0x00\n        /* \"#utility.yul\":2201:2221   */\n      tag_67\n      tag_68\n      jump\t// in\n    tag_67:\n        /* \"#utility.yul\":2191:2221   */\n      swap1\n      pop\n        /* \"#utility.yul\":2230:2263   */\n      tag_69\n        /* \"#utility.yul\":2258:2262   */\n      dup3\n        /* \"#utility.yul\":2250:2256   */\n      dup3\n        /* \"#utility.yul\":2230:2263   */\n      tag_70\n      jump\t// in\n    tag_69:\n        /* \"#utility.yul\":2140:2269   */\n      swap2\n      swap1\n      pop\n      jump\t// out\n        /* \"#utility.yul\":2275:2350   */\n    tag_68:\n        /* \"#utility.yul\":2308:2314   */\n      0x00\n        /* \"#utility.yul\":2341:2343   */\n      0x40\n        /* \"#utility.yul\":2335:2344   */\n      mload\n        /* \"#utility.yul\":2325:2344   */\n      swap1\n      pop\n        /* \"#utility.yul\":2275:2350   */\n      swap1\n      jump\t// out\n        /* \"#utility.yul\":2356:2664   */\n    tag_36:\n        /* \"#utility.yul\":2418:2422   */\n      0x00\n        /* \"#utility.yul\":2508:2526   */\n      0xffffffffffffffff\n        /* \"#utility.yul\":2500:2506   */\n      dup3\n        /* \"#utility.yul\":2497:2527   */\n      gt\n        /* \"#utility.yul\":2494:2550   */\n      iszero\n      tag_73\n      jumpi\n        /* \"#utility.yul\":2530:2548   */\n      tag_74\n      tag_75\n      jump\t// in\n    tag_74:\n        /* \"#utility.yul\":2494:2550   */\n    tag_73:\n        /* \"#utility.yul\":2568:2597   */\n      tag_76\n        /* \"#utility.yul\":2590:2596   */\n      dup3\n        /* \"#utility.yul\":2568:2597   */\n      tag_77\n      jump\t// in\n    tag_76:\n        /* \"#utility.yul\":2560:2597   */\n      swap1\n      pop\n        /* \"#utility.yul\":2652:2656   */\n      0x20\n        /* \"#utility.yul\":2646:2650   */\n      dup2\n        /* \"#utility.yul\":2642:2657   */\n      add\n        /* \"#utility.yul\":2634:2657   */\n      swap1\n      pop\n        /* \"#utility.yul\":2356:2664   */\n      swap2\n      swap1\n      pop\n      jump\t// out\n        /* \"#utility.yul\":2670:2747   */\n    tag_78:\n        /* \"#utility.yul\":2707:2714   */\n      0x00\n        /* \"#utility.yul\":2736:2741   */\n      dup2\n        /* \"#utility.yul\":2725:2741   */\n      swap1\n      pop\n        /* \"#utility.yul\":2670:2747   */\n      swap2\n      swap1\n      pop\n      jump\t// out\n        /* \"#utility.yul\":2753:2907   */\n    tag_42:\n        /* \"#utility.yul\":2837:2843   */\n      dup3\n        /* \"#utility.yul\":2832:2835   */\n      dup2\n        /* \"#utility.yul\":2827:2830   */\n      dup4\n        /* \"#utility.yul\":2814:2844   */\n      calldatacopy\n        /* \"#utility.yul\":2899:2900   */\n      0x00\n        /* \"#utility.yul\":2890:2896   */\n      dup4\n        /* \"#utility.yul\":2885:2888   */\n      dup4\n        /* \"#utility.yul\":2881:2897   */\n      add\n        /* \"#utility.yul\":2874:2901   */\n      mstore\n        /* \"#utility.yul\":2753:2907   */\n      pop\n      pop\n      pop\n      jump\t// out\n        /* \"#utility.yul\":2913:3233   */\n    tag_21:\n        /* \"#utility.yul\":2957:2963   */\n      0x00\n        /* \"#utility.yul\":2994:2995   */\n      0x02\n        /* \"#utility.yul\":2988:2992   */\n      dup3\n        /* \"#utility.yul\":2984:2996   */\n      div\n        /* \"#utility.yul\":2974:2996   */\n      swap1\n      pop\n        /* \"#utility.yul\":3041:3042   */\n      0x01\n        /* \"#utility.yul\":3035:3039   */\n      dup3\n        /* \"#utility.yul\":3031:3043   */\n      and\n        /* \"#utility.yul\":3062:3080   */\n      dup1\n        /* \"#utility.yul\":3052:3133   */\n      tag_82\n      jumpi\n        /* \"#utility.yul\":3118:3122   */\n      0x7f\n        /* \"#utility.yul\":3110:3116   */\n      dup3\n        /* \"#utility.yul\":3106:3123   */\n      and\n        /* \"#utility.yul\":3096:3123   */\n      swap2\n      pop\n        /* \"#utility.yul\":3052:3133   */\n    tag_82:\n        /* \"#utility.yul\":3180:3182   */\n      0x20\n        /* \"#utility.yul\":3172:3178   */\n      dup3\n        /* \"#utility.yul\":3169:3183   */\n      lt\n        /* \"#utility.yul\":3149:3167   */\n      dup2\n        /* \"#utility.yul\":3146:3184   */\n      eq\n        /* \"#utility.yul\":3143:3227   */\n      iszero\n      tag_83\n      jumpi\n        /* \"#utility.yul\":3199:3217   */\n      tag_84\n      tag_85\n      jump\t// in\n    tag_84:\n        /* \"#utility.yul\":3143:3227   */\n    tag_83:\n        /* \"#utility.yul\":2964:3233   */\n      pop\n        /* \"#utility.yul\":2913:3233   */\n      swap2\n      swap1\n      pop\n      jump\t// out\n        /* \"#utility.yul\":3239:3520   */\n    tag_70:\n        /* \"#utility.yul\":3322:3349   */\n      tag_87\n        /* \"#utility.yul\":3344:3348   */\n      dup3\n        /* \"#utility.yul\":3322:3349   */\n      tag_77\n      jump\t// in\n    tag_87:\n        /* \"#utility.yul\":3314:3320   */\n      dup2\n        /* \"#utility.yul\":3310:3350   */\n      add\n        /* \"#utility.yul\":3452:3458   */\n      dup2\n        /* \"#utility.yul\":3440:3450   */\n      dup2\n        /* \"#utility.yul\":3437:3459   */\n      lt\n        /* \"#utility.yul\":3416:3434   */\n      0xffffffffffffffff\n        /* \"#utility.yul\":3404:3414   */\n      dup3\n        /* \"#utility.yul\":3401:3435   */\n      gt\n        /* \"#utility.yul\":3398:3460   */\n      or\n        /* \"#utility.yul\":3395:3483   */\n      iszero\n      tag_88\n      jumpi\n        /* \"#utility.yul\":3463:3481   */\n      tag_89\n      tag_75\n      jump\t// in\n    tag_89:\n        /* \"#utility.yul\":3395:3483   */\n    tag_88:\n        /* \"#utility.yul\":3503:3513   */\n      dup1\n        /* \"#utility.yul\":3499:3501   */\n      0x40\n        /* \"#utility.yul\":3492:3514   */\n      mstore\n        /* \"#utility.yul\":3282:3520   */\n      pop\n        /* \"#utility.yul\":3239:3520   */\n      pop\n      pop\n      jump\t// out\n        /* \"#utility.yul\":3526:3759   */\n    tag_16:\n        /* \"#utility.yul\":3565:3568   */\n      0x00\n        /* \"#utility.yul\":3588:3612   */\n      tag_91\n        /* \"#utility.yul\":3606:3611   */\n      dup3\n        /* \"#utility.yul\":3588:3612   */\n      tag_78\n      jump\t// in\n    tag_91:\n        /* \"#utility.yul\":3579:3612   */\n      swap2\n      pop\n        /* \"#utility.yul\":3634:3700   */\n      0xffffffffffffffffffffffffffffffffffffffffffffffffffffffffffffffff\n        /* \"#utility.yul\":3627:3632   */\n      dup3\n        /* \"#utility.yul\":3624:3701   */\n      eq\n        /* \"#utility.yul\":3621:3724   */\n      iszero\n      tag_92\n      jumpi\n        /* \"#utility.yul\":3704:3722   */\n      tag_93\n      tag_94\n      jump\t// in\n    tag_93:\n        /* \"#utility.yul\":3621:3724   */\n    tag_92:\n        /* \"#utility.yul\":3751:3752   */\n      0x01\n        /* \"#utility.yul\":3744:3749   */\n      dup3\n        /* \"#utility.yul\":3740:3753   */\n      add\n        /* \"#utility.yul\":3733:3753   */\n      swap1\n      pop\n        /* \"#utility.yul\":3526:3759   */\n      swap2\n      swap1\n      pop\n      jump\t// out\n        /* \"#utility.yul\":3765:3945   */\n    tag_94:\n        /* \"#utility.yul\":3813:3890   */\n      0x4e487b7100000000000000000000000000000000000000000000000000000000\n        /* \"#utility.yul\":3810:3811   */\n      0x00\n        /* \"#utility.yul\":3803:3891   */\n      mstore\n        /* \"#utility.yul\":3910:3914   */\n      0x11\n        /* \"#utility.yul\":3907:3908   */\n      0x04\n        /* \"#utility.yul\":3900:3915   */\n      mstore\n        /* \"#utility.yul\":3934:3938   */\n      0x24\n        /* \"#utility.yul\":3931:3932   */\n      0x00\n        /* \"#utility.yul\":3924:3939   */\n      revert\n        /* \"#utility.yul\":3951:4131   */\n    tag_85:\n        /* \"#utility.yul\":3999:4076   */\n      0x4e487b7100000000000000000000000000000000000000000000000000000000\n        /* \"#utility.yul\":3996:3997   */\n      0x00\n        /* \"#utility.yul\":3989:4077   */\n      mstore\n        /* \"#utility.yul\":4096:4100   */\n      0x22\n        /* \"#utility.yul\":4093:4094   */\n      0x04\n        /* \"#utility.yul\":4086:4101   */\n      mstore\n        /* \"#utility.yul\":4120:4124   */\n      0x24\n        /* \"#utility.yul\":4117:4118   */\n      0x00\n        /* \"#utility.yul\":4110:4125   */\n      revert\n        /* \"#utility.yul\":4137:4317   */\n    tag_75:\n        /* \"#utility.yul\":4185:4262   */\n      0x4e487b7100000000000000000000000000000000000000000000000000000000\n        /* \"#utility.yul\":4182:4183   */\n      0x00\n        /* \"#utility.yul\":4175:4263   */\n      mstore\n        /* \"#utility.yul\":4282:4286   */\n      0x41\n        /* \"#utility.yul\":4279:4280   */\n      0x04\n        /* \"#utility.yul\":4272:4287   */\n      mstore\n        /* \"#utility.yul\":4306:4310   */\n      0x24\n        /* \"#utility.yul\":4303:4304   */\n      0x00\n        /* \"#utility.yul\":4296:4311   */\n      revert\n        /* \"#utility.yul\":4323:4440   */\n    tag_47:\n        /* \"#utility.yul\":4432:4433   */\n      0x00\n        /* \"#utility.yul\":4429:4430   */\n      dup1\n        /* \"#utility.yul\":4422:4434   */\n      revert\n        /* \"#utility.yul\":4446:4563   */\n    tag_40:\n        /* \"#utility.yul\":4555:4556   */\n      0x00\n        /* \"#utility.yul\":4552:4553   */\n      dup1\n        /* \"#utility.yul\":4545:4557   */\n      revert\n        /* \"#utility.yul\":4569:4686   */\n    tag_55:\n        /* \"#utility.yul\":4678:4679   */\n      0x00\n        /* \"#utility.yul\":4675:4676   */\n      dup1\n        /* \"#utility.yul\":4668:4680   */\n      revert\n        /* \"#utility.yul\":4692:4809   */\n    tag_52:\n        /* \"#utility.yul\":4801:4802   */\n      0x00\n        /* \"#utility.yul\":4798:4799   */\n      dup1\n        /* \"#utility.yul\":4791:4803   */\n      revert\n        /* \"#utility.yul\":4815:4917   */\n    tag_77:\n        /* \"#utility.yul\":4856:4862   */\n      0x00\n        /* \"#utility.yul\":4907:4909   */\n      0x1f\n        /* \"#utility.yul\":4903:4910   */\n      not\n        /* \"#utility.yul\":4898:4900   */\n      0x1f\n        /* \"#utility.yul\":4891:4896   */\n      dup4\n        /* \"#utility.yul\":4887:4901   */\n      add\n        /* \"#utility.yul\":4883:4911   */\n      and\n        /* \"#utility.yul\":4873:4911   */\n      swap1\n      pop\n        /* \"#utility.yul\":4815:4917   */\n      swap2\n      swap1\n      pop\n      jump\t// out\n\n    auxdata: 0xa2646970667358221220785bd9058fe77551063be7a19b649dc16442213cf94669e5756bfdc7fb73da2864736f6c63430008070033\n}\n",
				"bytecode": {
					"linkReferences": {},
					"object": "6080604052600060015534801561001557600080fd5b50610524806100256000396000f3fe608060405234801561001057600080fd5b50600436106100365760003560e01c8063edc550dc1461003b578063f71b5cde14610057575b600080fd5b61005560048036038101906100509190610260565b610073565b005b610071600480360381019061006c91906102a9565b610076565b005b50565b60008060006001600081548092919061008e906103f3565b9190505581526020019081526020016000209050828160000190805190602001906100ba92919061014d565b50818160010190805190602001906100d392919061014d565b5060008160020181905550338160030160006101000a81548173ffffffffffffffffffffffffffffffffffffffff021916908373ffffffffffffffffffffffffffffffffffffffff1602179055506000816005018190555060008160060160006101000a81548160ff021916908315150217905550505050565b82805461015990610390565b90600052602060002090601f01602090048101928261017b57600085556101c2565b82601f1061019457805160ff19168380011785556101c2565b828001600101855582156101c2579182015b828111156101c15782518255916020019190600101906101a6565b5b5090506101cf91906101d3565b5090565b5b808211156101ec5760008160009055506001016101d4565b5090565b60006102036101fe84610346565b610321565b90508281526020810184848401111561021f5761021e6104ce565b5b61022a848285610381565b509392505050565b600082601f830112610247576102466104c9565b5b81356102578482602086016101f0565b91505092915050565b600060208284031215610276576102756104d8565b5b600082013567ffffffffffffffff811115610294576102936104d3565b5b6102a084828501610232565b91505092915050565b600080604083850312156102c0576102bf6104d8565b5b600083013567ffffffffffffffff8111156102de576102dd6104d3565b5b6102ea85828601610232565b925050602083013567ffffffffffffffff81111561030b5761030a6104d3565b5b61031785828601610232565b9150509250929050565b600061032b61033c565b905061033782826103c2565b919050565b6000604051905090565b600067ffffffffffffffff8211156103615761036061049a565b5b61036a826104dd565b9050602081019050919050565b6000819050919050565b82818337600083830152505050565b600060028204905060018216806103a857607f821691505b602082108114156103bc576103bb61046b565b5b50919050565b6103cb826104dd565b810181811067ffffffffffffffff821117156103ea576103e961049a565b5b80604052505050565b60006103fe82610377565b91507fffffffffffffffffffffffffffffffffffffffffffffffffffffffffffffffff8214156104315761043061043c565b5b600182019050919050565b7f4e487b7100000000000000000000000000000000000000000000000000000000600052601160045260246000fd5b7f4e487b7100000000000000000000000000000000000000000000000000000000600052602260045260246000fd5b7f4e487b7100000000000000000000000000000000000000000000000000000000600052604160045260246000fd5b600080fd5b600080fd5b600080fd5b600080fd5b6000601f19601f830116905091905056fea2646970667358221220785bd9058fe77551063be7a19b649dc16442213cf94669e5756bfdc7fb73da2864736f6c63430008070033",
					"opcodes": "PUSH1 0x80 PUSH1 0x40 MSTORE PUSH1 0x0 PUSH1 0x1 SSTORE CALLVALUE DUP1 ISZERO PUSH2 0x15 JUMPI PUSH1 0x0 DUP1 REVERT JUMPDEST POP PUSH2 0x524 DUP1 PUSH2 0x25 PUSH1 0x0 CODECOPY PUSH1 0x0 RETURN INVALID PUSH1 0x80 PUSH1 0x40 MSTORE CALLVALUE DUP1 ISZERO PUSH2 0x10 JUMPI PUSH1 0x0 DUP1 REVERT JUMPDEST POP PUSH1 0x4 CALLDATASIZE LT PUSH2 0x36 JUMPI PUSH1 0x0 CALLDATALOAD PUSH1 0xE0 SHR DUP1 PUSH4 0xEDC550DC EQ PUSH2 0x3B JUMPI DUP1 PUSH4 0xF71B5CDE EQ PUSH2 0x57 JUMPI JUMPDEST PUSH1 0x0 DUP1 REVERT JUMPDEST PUSH2 0x55 PUSH1 0x4 DUP1 CALLDATASIZE SUB DUP2 ADD SWAP1 PUSH2 0x50 SWAP2 SWAP1 PUSH2 0x260 JUMP JUMPDEST PUSH2 0x73 JUMP JUMPDEST STOP JUMPDEST PUSH2 0x71 PUSH1 0x4 DUP1 CALLDATASIZE SUB DUP2 ADD SWAP1 PUSH2 0x6C SWAP2 SWAP1 PUSH2 0x2A9 JUMP JUMPDEST PUSH2 0x76 JUMP JUMPDEST STOP JUMPDEST POP JUMP JUMPDEST PUSH1 0x0 DUP1 PUSH1 0x0 PUSH1 0x1 PUSH1 0x0 DUP2 SLOAD DUP1 SWAP3 SWAP2 SWAP1 PUSH2 0x8E SWAP1 PUSH2 0x3F3 JUMP JUMPDEST SWAP2 SWAP1 POP SSTORE DUP2 MSTORE PUSH1 0x20 ADD SWAP1 DUP2 MSTORE PUSH1 0x20 ADD PUSH1 0x0 KECCAK256 SWAP1 POP DUP3 DUP2 PUSH1 0x0 ADD SWAP1 DUP1 MLOAD SWAP1 PUSH1 0x20 ADD SWAP1 PUSH2 0xBA SWAP3 SWAP2 SWAP1 PUSH2 0x14D JUMP JUMPDEST POP DUP2 DUP2 PUSH1 0x1 ADD SWAP1 DUP1 MLOAD SWAP1 PUSH1 0x20 ADD SWAP1 PUSH2 0xD3 SWAP3 SWAP2 SWAP1 PUSH2 0x14D JUMP JUMPDEST POP PUSH1 0x0 DUP2 PUSH1 0x2 ADD DUP2 SWAP1 SSTORE POP CALLER DUP2 PUSH1 0x3 ADD PUSH1 0x0 PUSH2 0x100 EXP DUP2 SLOAD DUP2 PUSH20 0xFFFFFFFFFFFFFFFFFFFFFFFFFFFFFFFFFFFFFFFF MUL NOT AND SWAP1 DUP4 PUSH20 0xFFFFFFFFFFFFFFFFFFFFFFFFFFFFFFFFFFFFFFFF AND MUL OR SWAP1 SSTORE POP PUSH1 0x0 DUP2 PUSH1 0x5 ADD DUP2 SWAP1 SSTORE POP PUSH1 0x0 DUP2 PUSH1 0x6 ADD PUSH1 0x0 PUSH2 0x100 EXP DUP2 SLOAD DUP2 PUSH1 0xFF MUL NOT AND SWAP1 DUP4 ISZERO ISZERO MUL OR SWAP1 SSTORE POP POP POP POP JUMP JUMPDEST DUP3 DUP1 SLOAD PUSH2 0x159 SWAP1 PUSH2 0x390 JUMP JUMPDEST SWAP1 PUSH1 0x0 MSTORE PUSH1 0x20 PUSH1 0x0 KECCAK256 SWAP1 PUSH1 0x1F ADD PUSH1 0x20 SWAP1 DIV DUP2 ADD SWAP3 DUP3 PUSH2 0x17B JUMPI PUSH1 0x0 DUP6 SSTORE PUSH2 0x1C2 JUMP JUMPDEST DUP3 PUSH1 0x1F LT PUSH2 0x194 JUMPI DUP1 MLOAD PUSH1 0xFF NOT AND DUP4 DUP1 ADD OR DUP6 SSTORE PUSH2 0x1C2 JUMP JUMPDEST DUP3 DUP1 ADD PUSH1 0x1 ADD DUP6 SSTORE DUP3 ISZERO PUSH2 0x1C2 JUMPI SWAP2 DUP3 ADD JUMPDEST DUP3 DUP2 GT ISZERO PUSH2 0x1C1 JUMPI DUP3 MLOAD DUP3 SSTORE SWAP2 PUSH1 0x20 ADD SWAP2 SWAP1 PUSH1 0x1 ADD SWAP1 PUSH2 0x1A6 JUMP JUMPDEST JUMPDEST POP SWAP1 POP PUSH2 0x1CF SWAP2 SWAP1 PUSH2 0x1D3 JUMP JUMPDEST POP SWAP1 JUMP JUMPDEST JUMPDEST DUP1 DUP3 GT ISZERO PUSH2 0x1EC JUMPI PUSH1 0x0 DUP2 PUSH1 0x0 SWAP1 SSTORE POP PUSH1 0x1 ADD PUSH2 0x1D4 JUMP JUMPDEST POP SWAP1 JUMP JUMPDEST PUSH1 0x0 PUSH2 0x203 PUSH2 0x1FE DUP5 PUSH2 0x346 JUMP JUMPDEST PUSH2 0x321 JUMP JUMPDEST SWAP1 POP DUP3 DUP2 MSTORE PUSH1 0x20 DUP2 ADD DUP5 DUP5 DUP5 ADD GT ISZERO PUSH2 0x21F JUMPI PUSH2 0x21E PUSH2 0x4CE JUMP JUMPDEST JUMPDEST PUSH2 0x22A DUP5 DUP3 DUP6 PUSH2 0x381 JUMP JUMPDEST POP SWAP4 SWAP3 POP POP POP JUMP JUMPDEST PUSH1 0x0 DUP3 PUSH1 0x1F DUP4 ADD SLT PUSH2 0x247 JUMPI PUSH2 0x246 PUSH2 0x4C9 JUMP JUMPDEST JUMPDEST DUP2 CALLDATALOAD PUSH2 0x257 DUP5 DUP3 PUSH1 0x20 DUP7 ADD PUSH2 0x1F0 JUMP JUMPDEST SWAP2 POP POP SWAP3 SWAP2 POP POP JUMP JUMPDEST PUSH1 0x0 PUSH1 0x20 DUP3 DUP5 SUB SLT ISZERO PUSH2 0x276 JUMPI PUSH2 0x275 PUSH2 0x4D8 JUMP JUMPDEST JUMPDEST PUSH1 0x0 DUP3 ADD CALLDATALOAD PUSH8 0xFFFFFFFFFFFFFFFF DUP2 GT ISZERO PUSH2 0x294 JUMPI PUSH2 0x293 PUSH2 0x4D3 JUMP JUMPDEST JUMPDEST PUSH2 0x2A0 DUP5 DUP3 DUP6 ADD PUSH2 0x232 JUMP JUMPDEST SWAP2 POP POP SWAP3 SWAP2 POP POP JUMP JUMPDEST PUSH1 0x0 DUP1 PUSH1 0x40 DUP4 DUP6 SUB SLT ISZERO PUSH2 0x2C0 JUMPI PUSH2 0x2BF PUSH2 0x4D8 JUMP JUMPDEST JUMPDEST PUSH1 0x0 DUP4 ADD CALLDATALOAD PUSH8 0xFFFFFFFFFFFFFFFF DUP2 GT ISZERO PUSH2 0x2DE JUMPI PUSH2 0x2DD PUSH2 0x4D3 JUMP JUMPDEST JUMPDEST PUSH2 0x2EA DUP6 DUP3 DUP7 ADD PUSH2 0x232 JUMP JUMPDEST SWAP3 POP POP PUSH1 0x20 DUP4 ADD CALLDATALOAD PUSH8 0xFFFFFFFFFFFFFFFF DUP2 GT ISZERO PUSH2 0x30B JUMPI PUSH2 0x30A PUSH2 0x4D3 JUMP JUMPDEST JUMPDEST PUSH2 0x317 DUP6 DUP3 DUP7 ADD PUSH2 0x232 JUMP JUMPDEST SWAP2 POP POP SWAP3 POP SWAP3 SWAP1 POP JUMP JUMPDEST PUSH1 0x0 PUSH2 0x32B PUSH2 0x33C JUMP JUMPDEST SWAP1 POP PUSH2 0x337 DUP3 DUP3 PUSH2 0x3C2 JUMP JUMPDEST SWAP2 SWAP1 POP JUMP JUMPDEST PUSH1 0x0 PUSH1 0x40 MLOAD SWAP1 POP SWAP1 JUMP JUMPDEST PUSH1 0x0 PUSH8 0xFFFFFFFFFFFFFFFF DUP3 GT ISZERO PUSH2 0x361 JUMPI PUSH2 0x360 PUSH2 0x49A JUMP JUMPDEST JUMPDEST PUSH2 0x36A DUP3 PUSH2 0x4DD JUMP JUMPDEST SWAP1 POP PUSH1 0x20 DUP2 ADD SWAP1 POP SWAP2 SWAP1 POP JUMP JUMPDEST PUSH1 0x0 DUP2 SWAP1 POP SWAP2 SWAP1 POP JUMP JUMPDEST DUP3 DUP2 DUP4 CALLDATACOPY PUSH1 0x0 DUP4 DUP4 ADD MSTORE POP POP POP JUMP JUMPDEST PUSH1 0x0 PUSH1 0x2 DUP3 DIV SWAP1 POP PUSH1 0x1 DUP3 AND DUP1 PUSH2 0x3A8 JUMPI PUSH1 0x7F DUP3 AND SWAP2 POP JUMPDEST PUSH1 0x20 DUP3 LT DUP2 EQ ISZERO PUSH2 0x3BC JUMPI PUSH2 0x3BB PUSH2 0x46B JUMP JUMPDEST JUMPDEST POP SWAP2 SWAP1 POP JUMP JUMPDEST PUSH2 0x3CB DUP3 PUSH2 0x4DD JUMP JUMPDEST DUP2 ADD DUP2 DUP2 LT PUSH8 0xFFFFFFFFFFFFFFFF DUP3 GT OR ISZERO PUSH2 0x3EA JUMPI PUSH2 0x3E9 PUSH2 0x49A JUMP JUMPDEST JUMPDEST DUP1 PUSH1 0x40 MSTORE POP POP POP JUMP JUMPDEST PUSH1 0x0 PUSH2 0x3FE DUP3 PUSH2 0x377 JUMP JUMPDEST SWAP2 POP PUSH32 0xFFFFFFFFFFFFFFFFFFFFFFFFFFFFFFFFFFFFFFFFFFFFFFFFFFFFFFFFFFFFFFFF DUP3 EQ ISZERO PUSH2 0x431 JUMPI PUSH2 0x430 PUSH2 0x43C JUMP JUMPDEST JUMPDEST PUSH1 0x1 DUP3 ADD SWAP1 POP SWAP2 SWAP1 POP JUMP JUMPDEST PUSH32 0x4E487B7100000000000000000000000000000000000000000000000000000000 PUSH1 0x0 MSTORE PUSH1 0x11 PUSH1 0x4 MSTORE PUSH1 0x24 PUSH1 0x0 REVERT JUMPDEST PUSH32 0x4E487B7100000000000000000000000000000000000000000000000000000000 PUSH1 0x0 MSTORE PUSH1 0x22 PUSH1 0x4 MSTORE PUSH1 0x24 PUSH1 0x0 REVERT JUMPDEST PUSH32 0x4E487B7100000000000000000000000000000000000000000000000000000000 PUSH1 0x0 MSTORE PUSH1 0x41 PUSH1 0x4 MSTORE PUSH1 0x24 PUSH1 0x0 REVERT JUMPDEST PUSH1 0x0 DUP1 REVERT JUMPDEST PUSH1 0x0 DUP1 REVERT JUMPDEST PUSH1 0x0 DUP1 REVERT JUMPDEST PUSH1 0x0 DUP1 REVERT JUMPDEST PUSH1 0x0 PUSH1 0x1F NOT PUSH1 0x1F DUP4 ADD AND SWAP1 POP SWAP2 SWAP1 POP JUMP INVALID LOG2 PUSH5 0x6970667358 0x22 SLT KECCAK256 PUSH25 0x5BD9058FE77551063BE7A19B649DC16442213CF94669E5756B REVERT 0xC7 0xFB PUSH20 0xDA2864736F6C6343000807003300000000000000 "
				},
				"gasEstimates": {
					"creation": {
						"codeDepositCost": "263200",
						"executionCost": "5312",
						"totalCost": "268512"
					},
					"external": {
						"addOption(string)": "infinite",
						"startPool(string,string)": "infinite"
					}
				},
				"methodIdentifiers": {
					"addOption(string)": "edc550dc",
					"startPool(string,string)": "f71b5cde"
				}
			},
			"userdoc": {
				"kind": "user",
				"methods": {},
				"version": 1
			}
		}
	}
}