{
	"contracts/eVoting_app.sol": {
		"EVoteApp": {
			"abi": [
				{
					"inputs": [
						{
							"internalType": "uint256",
							"name": "_poolIndex",
							"type": "uint256"
						},
						{
							"internalType": "string",
							"name": "_name",
							"type": "string"
						}
					],
					"name": "addOption",
					"outputs": [],
					"stateMutability": "nonpayable",
					"type": "function"
				},
				{
					"inputs": [
						{
							"internalType": "string",
							"name": "_poolName",
							"type": "string"
						},
						{
							"internalType": "string",
							"name": "_description",
							"type": "string"
						}
					],
					"name": "createPool",
					"outputs": [
						{
							"internalType": "uint256",
							"name": "",
							"type": "uint256"
						}
					],
					"stateMutability": "nonpayable",
					"type": "function"
				},
				{
					"inputs": [],
					"name": "getActivePools",
					"outputs": [
						{
							"components": [
								{
									"internalType": "string",
									"name": "name",
									"type": "string"
								},
								{
									"internalType": "string",
									"name": "description",
									"type": "string"
								},
								{
									"internalType": "uint256",
									"name": "totalVotes",
									"type": "uint256"
								},
								{
									"internalType": "uint256",
									"name": "numOfOptions",
									"type": "uint256"
								},
								{
									"internalType": "uint256",
									"name": "poolIndex",
									"type": "uint256"
								}
							],
							"internalType": "struct EVoteApp.ShowPool[]",
							"name": "",
							"type": "tuple[]"
						}
					],
					"stateMutability": "view",
					"type": "function"
				},
				{
					"inputs": [
						{
							"internalType": "uint256",
							"name": "_poolIndex",
							"type": "uint256"
						}
					],
					"name": "getNumOfOptions",
					"outputs": [
						{
							"internalType": "uint256",
							"name": "",
							"type": "uint256"
						}
					],
					"stateMutability": "view",
					"type": "function"
				},
				{
					"inputs": [
						{
							"internalType": "uint256",
							"name": "_poolIndex",
							"type": "uint256"
						}
					],
					"name": "getNumOfVotes",
					"outputs": [
						{
							"internalType": "uint256",
							"name": "",
							"type": "uint256"
						}
					],
					"stateMutability": "view",
					"type": "function"
				},
				{
					"inputs": [
						{
							"internalType": "uint256",
							"name": "_poolIndex",
							"type": "uint256"
						}
					],
					"name": "getOptions",
					"outputs": [
						{
							"components": [
								{
									"internalType": "string",
									"name": "name",
									"type": "string"
								},
								{
									"internalType": "uint256",
									"name": "numOfVotes",
									"type": "uint256"
								}
							],
							"internalType": "struct EVoteApp.Option[]",
							"name": "",
							"type": "tuple[]"
						}
					],
					"stateMutability": "view",
					"type": "function"
				},
				{
					"inputs": [
						{
							"internalType": "uint256",
							"name": "_poolIndex",
							"type": "uint256"
						}
					],
					"name": "startPool",
					"outputs": [],
					"stateMutability": "nonpayable",
					"type": "function"
				},
				{
					"inputs": [
						{
							"internalType": "uint256",
							"name": "_poolIndex",
							"type": "uint256"
						},
						{
							"internalType": "uint256",
							"name": "selectedOption",
							"type": "uint256"
						},
						{
							"internalType": "string",
							"name": "_username",
							"type": "string"
						}
					],
					"name": "vote",
					"outputs": [],
					"stateMutability": "nonpayable",
					"type": "function"
				}
			],
			"devdoc": {
				"kind": "dev",
				"methods": {},
				"version": 1
			},
			"evm": {
				"assembly": "    /* \"contracts/eVoting_app.sol\":71:3637  contract EVoteApp{... */\n  mstore(0x40, 0x80)\n    /* \"contracts/eVoting_app.sol\":815:816  0 */\n  0x00\n    /* \"contracts/eVoting_app.sol\":794:816  uint256 numOfPools = 0 */\n  0x01\n  sstore\n    /* \"contracts/eVoting_app.sol\":71:3637  contract EVoteApp{... */\n  callvalue\n  dup1\n  iszero\n  tag_1\n  jumpi\n  0x00\n  dup1\n  revert\ntag_1:\n  pop\n  dataSize(sub_0)\n  dup1\n  dataOffset(sub_0)\n  0x00\n  codecopy\n  0x00\n  return\nstop\n\nsub_0: assembly {\n        /* \"contracts/eVoting_app.sol\":71:3637  contract EVoteApp{... */\n      mstore(0x40, 0x80)\n      callvalue\n      dup1\n      iszero\n      tag_1\n      jumpi\n      0x00\n      dup1\n      revert\n    tag_1:\n      pop\n      jumpi(tag_2, lt(calldatasize, 0x04))\n      shr(0xe0, calldataload(0x00))\n      dup1\n      0x8ec08354\n      gt\n      tag_11\n      jumpi\n      dup1\n      0x8ec08354\n      eq\n      tag_7\n      jumpi\n      dup1\n      0xa1bbfc05\n      eq\n      tag_8\n      jumpi\n      dup1\n      0xa901d15c\n      eq\n      tag_9\n      jumpi\n      dup1\n      0xea57d5d4\n      eq\n      tag_10\n      jumpi\n      jump(tag_2)\n    tag_11:\n      dup1\n      0x186dd066\n      eq\n      tag_3\n      jumpi\n      dup1\n      0x5ea81a32\n      eq\n      tag_4\n      jumpi\n      dup1\n      0x8915b3fb\n      eq\n      tag_5\n      jumpi\n      dup1\n      0x8c8e54fb\n      eq\n      tag_6\n      jumpi\n    tag_2:\n      0x00\n      dup1\n      revert\n        /* \"contracts/eVoting_app.sol\":2510:2637  function getNumOfOptions(uint256 _poolIndex) public view returns(uint256){... */\n    tag_3:\n      tag_12\n      0x04\n      dup1\n      calldatasize\n      sub\n      dup2\n      add\n      swap1\n      tag_13\n      swap2\n      swap1\n      tag_14\n      jump\t// in\n    tag_13:\n      tag_15\n      jump\t// in\n    tag_12:\n      mload(0x40)\n      tag_16\n      swap2\n      swap1\n      tag_17\n      jump\t// in\n    tag_16:\n      mload(0x40)\n      dup1\n      swap2\n      sub\n      swap1\n      return\n        /* \"contracts/eVoting_app.sol\":1065:1496  function createPool(string memory _poolName, string memory _description) public returns(uint256){... */\n    tag_4:\n      tag_18\n      0x04\n      dup1\n      calldatasize\n      sub\n      dup2\n      add\n      swap1\n      tag_19\n      swap2\n      swap1\n      tag_20\n      jump\t// in\n    tag_19:\n      tag_21\n      jump\t// in\n    tag_18:\n      mload(0x40)\n      tag_22\n      swap2\n      swap1\n      tag_17\n      jump\t// in\n    tag_22:\n      mload(0x40)\n      dup1\n      swap2\n      sub\n      swap1\n      return\n        /* \"contracts/eVoting_app.sol\":2643:2968  function getOptions(uint256 _poolIndex) public view returns(Option[] memory){... */\n    tag_5:\n      tag_23\n      0x04\n      dup1\n      calldatasize\n      sub\n      dup2\n      add\n      swap1\n      tag_24\n      swap2\n      swap1\n      tag_14\n      jump\t// in\n    tag_24:\n      tag_25\n      jump\t// in\n    tag_23:\n      mload(0x40)\n      tag_26\n      swap2\n      swap1\n      tag_27\n      jump\t// in\n    tag_26:\n      mload(0x40)\n      dup1\n      swap2\n      sub\n      swap1\n      return\n        /* \"contracts/eVoting_app.sol\":2381:2504  function getNumOfVotes(uint256 _poolIndex) public view returns(uint256){... */\n    tag_6:\n      tag_28\n      0x04\n      dup1\n      calldatasize\n      sub\n      dup2\n      add\n      swap1\n      tag_29\n      swap2\n      swap1\n      tag_14\n      jump\t// in\n    tag_29:\n      tag_30\n      jump\t// in\n    tag_28:\n      mload(0x40)\n      tag_31\n      swap2\n      swap1\n      tag_17\n      jump\t// in\n    tag_31:\n      mload(0x40)\n      dup1\n      swap2\n      sub\n      swap1\n      return\n        /* \"contracts/eVoting_app.sol\":3023:3630  function getActivePools() public view returns(ShowPool[] memory){... */\n    tag_7:\n      tag_32\n      tag_33\n      jump\t// in\n    tag_32:\n      mload(0x40)\n      tag_34\n      swap2\n      swap1\n      tag_35\n      jump\t// in\n    tag_34:\n      mload(0x40)\n      dup1\n      swap2\n      sub\n      swap1\n      return\n        /* \"contracts/eVoting_app.sol\":1876:2375  function vote(uint256 _poolIndex, uint256 selectedOption, string memory _username) canVote(_poolIndex) public{... */\n    tag_8:\n      tag_36\n      0x04\n      dup1\n      calldatasize\n      sub\n      dup2\n      add\n      swap1\n      tag_37\n      swap2\n      swap1\n      tag_38\n      jump\t// in\n    tag_37:\n      tag_39\n      jump\t// in\n    tag_36:\n      stop\n        /* \"contracts/eVoting_app.sol\":1716:1870  function startPool(uint256 _poolIndex) onlyOwner(_poolIndex) public{... */\n    tag_9:\n      tag_40\n      0x04\n      dup1\n      calldatasize\n      sub\n      dup2\n      add\n      swap1\n      tag_41\n      swap2\n      swap1\n      tag_14\n      jump\t// in\n    tag_41:\n      tag_42\n      jump\t// in\n    tag_40:\n      stop\n        /* \"contracts/eVoting_app.sol\":1502:1710  function addOption(uint256 _poolIndex, string memory _name) onlyOwner(_poolIndex) public{... */\n    tag_10:\n      tag_43\n      0x04\n      dup1\n      calldatasize\n      sub\n      dup2\n      add\n      swap1\n      tag_44\n      swap2\n      swap1\n      tag_45\n      jump\t// in\n    tag_44:\n      tag_46\n      jump\t// in\n    tag_43:\n      stop\n        /* \"contracts/eVoting_app.sol\":2510:2637  function getNumOfOptions(uint256 _poolIndex) public view returns(uint256){... */\n    tag_15:\n        /* \"contracts/eVoting_app.sol\":2575:2582  uint256 */\n      0x00\n        /* \"contracts/eVoting_app.sol\":2600:2605  pools */\n      dup1\n        /* \"contracts/eVoting_app.sol\":2600:2617  pools[_poolIndex] */\n      0x00\n        /* \"contracts/eVoting_app.sol\":2606:2616  _poolIndex */\n      dup4\n        /* \"contracts/eVoting_app.sol\":2600:2617  pools[_poolIndex] */\n      dup2\n      mstore\n      0x20\n      add\n      swap1\n      dup2\n      mstore\n      0x20\n      add\n      0x00\n      keccak256\n        /* \"contracts/eVoting_app.sol\":2600:2630  pools[_poolIndex].numOfOptions */\n      0x06\n      add\n      sload\n        /* \"contracts/eVoting_app.sol\":2593:2630  return pools[_poolIndex].numOfOptions */\n      swap1\n      pop\n        /* \"contracts/eVoting_app.sol\":2510:2637  function getNumOfOptions(uint256 _poolIndex) public view returns(uint256){... */\n      swap2\n      swap1\n      pop\n      jump\t// out\n        /* \"contracts/eVoting_app.sol\":1065:1496  function createPool(string memory _poolName, string memory _description) public returns(uint256){... */\n    tag_21:\n        /* \"contracts/eVoting_app.sol\":1153:1160  uint256 */\n      0x00\n        /* \"contracts/eVoting_app.sol\":1172:1190  Pool storage _pool */\n      dup1\n        /* \"contracts/eVoting_app.sol\":1193:1198  pools */\n      0x00\n        /* \"contracts/eVoting_app.sol\":1193:1212  pools[numOfPools++] */\n      dup1\n        /* \"contracts/eVoting_app.sol\":1199:1209  numOfPools */\n      0x01\n      0x00\n        /* \"contracts/eVoting_app.sol\":1199:1211  numOfPools++ */\n      dup2\n      sload\n      dup1\n      swap3\n      swap2\n      swap1\n      tag_49\n      swap1\n      tag_50\n      jump\t// in\n    tag_49:\n      swap2\n      swap1\n      pop\n      sstore\n        /* \"contracts/eVoting_app.sol\":1193:1212  pools[numOfPools++] */\n      dup2\n      mstore\n      0x20\n      add\n      swap1\n      dup2\n      mstore\n      0x20\n      add\n      0x00\n      keccak256\n        /* \"contracts/eVoting_app.sol\":1172:1212  Pool storage _pool = pools[numOfPools++] */\n      swap1\n      pop\n        /* \"contracts/eVoting_app.sol\":1236:1245  _poolName */\n      dup4\n        /* \"contracts/eVoting_app.sol\":1223:1228  _pool */\n      dup2\n        /* \"contracts/eVoting_app.sol\":1223:1233  _pool.name */\n      0x00\n      add\n        /* \"contracts/eVoting_app.sol\":1223:1245  _pool.name = _poolName */\n      swap1\n      dup1\n      mload\n      swap1\n      0x20\n      add\n      swap1\n      tag_51\n      swap3\n      swap2\n      swap1\n      tag_52\n      jump\t// in\n    tag_51:\n      pop\n        /* \"contracts/eVoting_app.sol\":1275:1287  _description */\n      dup3\n        /* \"contracts/eVoting_app.sol\":1255:1260  _pool */\n      dup2\n        /* \"contracts/eVoting_app.sol\":1255:1272  _pool.description */\n      0x01\n      add\n        /* \"contracts/eVoting_app.sol\":1255:1287  _pool.description = _description */\n      swap1\n      dup1\n      mload\n      swap1\n      0x20\n      add\n      swap1\n      tag_53\n      swap3\n      swap2\n      swap1\n      tag_52\n      jump\t// in\n    tag_53:\n      pop\n        /* \"contracts/eVoting_app.sol\":1316:1317  0 */\n      0x00\n        /* \"contracts/eVoting_app.sol\":1297:1302  _pool */\n      dup2\n        /* \"contracts/eVoting_app.sol\":1297:1313  _pool.totalVotes */\n      0x02\n      add\n        /* \"contracts/eVoting_app.sol\":1297:1317  _pool.totalVotes = 0 */\n      dup2\n      swap1\n      sstore\n      pop\n        /* \"contracts/eVoting_app.sol\":1341:1351  msg.sender */\n      caller\n        /* \"contracts/eVoting_app.sol\":1327:1332  _pool */\n      dup2\n        /* \"contracts/eVoting_app.sol\":1327:1338  _pool.owner */\n      0x03\n      add\n      0x00\n        /* \"contracts/eVoting_app.sol\":1327:1351  _pool.owner = msg.sender */\n      0x0100\n      exp\n      dup2\n      sload\n      dup2\n      0xffffffffffffffffffffffffffffffffffffffff\n      mul\n      not\n      and\n      swap1\n      dup4\n      0xffffffffffffffffffffffffffffffffffffffff\n      and\n      mul\n      or\n      swap1\n      sstore\n      pop\n        /* \"contracts/eVoting_app.sol\":1382:1383  0 */\n      0x00\n        /* \"contracts/eVoting_app.sol\":1361:1366  _pool */\n      dup2\n        /* \"contracts/eVoting_app.sol\":1361:1379  _pool.numOfOptions */\n      0x06\n      add\n        /* \"contracts/eVoting_app.sol\":1361:1383  _pool.numOfOptions = 0 */\n      dup2\n      swap1\n      sstore\n      pop\n        /* \"contracts/eVoting_app.sol\":1410:1415  false */\n      0x00\n        /* \"contracts/eVoting_app.sol\":1393:1398  _pool */\n      dup2\n        /* \"contracts/eVoting_app.sol\":1393:1407  _pool.isActive */\n      0x07\n      add\n      0x00\n        /* \"contracts/eVoting_app.sol\":1393:1415  _pool.isActive = false */\n      0x0100\n      exp\n      dup2\n      sload\n      dup2\n      0xff\n      mul\n      not\n      and\n      swap1\n      dup4\n      iszero\n      iszero\n      mul\n      or\n      swap1\n      sstore\n      pop\n        /* \"contracts/eVoting_app.sol\":1456:1457  1 */\n      0x01\n        /* \"contracts/eVoting_app.sol\":1443:1453  numOfPools */\n      dup1\n      sload\n        /* \"contracts/eVoting_app.sol\":1443:1457  numOfPools - 1 */\n      tag_54\n      swap2\n      swap1\n      tag_55\n      jump\t// in\n    tag_54:\n        /* \"contracts/eVoting_app.sol\":1425:1430  _pool */\n      dup2\n        /* \"contracts/eVoting_app.sol\":1425:1440  _pool.poolIndex */\n      0x08\n      add\n        /* \"contracts/eVoting_app.sol\":1425:1457  _pool.poolIndex = numOfPools - 1 */\n      dup2\n      swap1\n      sstore\n      pop\n        /* \"contracts/eVoting_app.sol\":1488:1489  1 */\n      0x01\n        /* \"contracts/eVoting_app.sol\":1475:1485  numOfPools */\n      dup1\n      sload\n        /* \"contracts/eVoting_app.sol\":1475:1489  numOfPools - 1 */\n      tag_56\n      swap2\n      swap1\n      tag_55\n      jump\t// in\n    tag_56:\n        /* \"contracts/eVoting_app.sol\":1468:1489  return numOfPools - 1 */\n      swap2\n      pop\n      pop\n        /* \"contracts/eVoting_app.sol\":1065:1496  function createPool(string memory _poolName, string memory _description) public returns(uint256){... */\n      swap3\n      swap2\n      pop\n      pop\n      jump\t// out\n        /* \"contracts/eVoting_app.sol\":2643:2968  function getOptions(uint256 _poolIndex) public view returns(Option[] memory){... */\n    tag_25:\n        /* \"contracts/eVoting_app.sol\":2703:2718  Option[] memory */\n      0x60\n        /* \"contracts/eVoting_app.sol\":2730:2754  Option[] memory _options */\n      0x00\n        /* \"contracts/eVoting_app.sol\":2770:2775  pools */\n      dup1\n        /* \"contracts/eVoting_app.sol\":2770:2787  pools[_poolIndex] */\n      0x00\n        /* \"contracts/eVoting_app.sol\":2776:2786  _poolIndex */\n      dup5\n        /* \"contracts/eVoting_app.sol\":2770:2787  pools[_poolIndex] */\n      dup2\n      mstore\n      0x20\n      add\n      swap1\n      dup2\n      mstore\n      0x20\n      add\n      0x00\n      keccak256\n        /* \"contracts/eVoting_app.sol\":2770:2800  pools[_poolIndex].numOfOptions */\n      0x06\n      add\n      sload\n        /* \"contracts/eVoting_app.sol\":2757:2801  new Option[](pools[_poolIndex].numOfOptions) */\n      0xffffffffffffffff\n      dup2\n      gt\n      iszero\n      tag_58\n      jumpi\n      tag_59\n      tag_60\n      jump\t// in\n    tag_59:\n    tag_58:\n      mload(0x40)\n      swap1\n      dup1\n      dup3\n      mstore\n      dup1\n      0x20\n      mul\n      0x20\n      add\n      dup3\n      add\n      0x40\n      mstore\n      dup1\n      iszero\n      tag_61\n      jumpi\n      dup2\n      0x20\n      add\n    tag_62:\n      tag_63\n      tag_64\n      jump\t// in\n    tag_63:\n      dup2\n      mstore\n      0x20\n      add\n      swap1\n      0x01\n      swap1\n      sub\n      swap1\n      dup2\n      tag_62\n      jumpi\n      swap1\n      pop\n    tag_61:\n      pop\n        /* \"contracts/eVoting_app.sol\":2730:2801  Option[] memory _options = new Option[](pools[_poolIndex].numOfOptions) */\n      swap1\n      pop\n        /* \"contracts/eVoting_app.sol\":2817:2823  uint i */\n      0x00\n        /* \"contracts/eVoting_app.sol\":2812:2937  for (uint i = 0; i < pools[_poolIndex].numOfOptions; i++) {... */\n    tag_65:\n        /* \"contracts/eVoting_app.sol\":2833:2838  pools */\n      0x00\n        /* \"contracts/eVoting_app.sol\":2833:2850  pools[_poolIndex] */\n      dup1\n        /* \"contracts/eVoting_app.sol\":2839:2849  _poolIndex */\n      dup6\n        /* \"contracts/eVoting_app.sol\":2833:2850  pools[_poolIndex] */\n      dup2\n      mstore\n      0x20\n      add\n      swap1\n      dup2\n      mstore\n      0x20\n      add\n      0x00\n      keccak256\n        /* \"contracts/eVoting_app.sol\":2833:2863  pools[_poolIndex].numOfOptions */\n      0x06\n      add\n      sload\n        /* \"contracts/eVoting_app.sol\":2829:2830  i */\n      dup2\n        /* \"contracts/eVoting_app.sol\":2829:2863  i < pools[_poolIndex].numOfOptions */\n      lt\n        /* \"contracts/eVoting_app.sol\":2812:2937  for (uint i = 0; i < pools[_poolIndex].numOfOptions; i++) {... */\n      iszero\n      tag_66\n      jumpi\n        /* \"contracts/eVoting_app.sol\":2898:2903  pools */\n      0x00\n        /* \"contracts/eVoting_app.sol\":2898:2915  pools[_poolIndex] */\n      dup1\n        /* \"contracts/eVoting_app.sol\":2904:2914  _poolIndex */\n      dup6\n        /* \"contracts/eVoting_app.sol\":2898:2915  pools[_poolIndex] */\n      dup2\n      mstore\n      0x20\n      add\n      swap1\n      dup2\n      mstore\n      0x20\n      add\n      0x00\n      keccak256\n        /* \"contracts/eVoting_app.sol\":2898:2923  pools[_poolIndex].options */\n      0x05\n      add\n        /* \"contracts/eVoting_app.sol\":2898:2926  pools[_poolIndex].options[i] */\n      0x00\n        /* \"contracts/eVoting_app.sol\":2924:2925  i */\n      dup3\n        /* \"contracts/eVoting_app.sol\":2898:2926  pools[_poolIndex].options[i] */\n      dup2\n      mstore\n      0x20\n      add\n      swap1\n      dup2\n      mstore\n      0x20\n      add\n      0x00\n      keccak256\n        /* \"contracts/eVoting_app.sol\":2884:2926  _options[i] = pools[_poolIndex].options[i] */\n      mload(0x40)\n      dup1\n      0x40\n      add\n      0x40\n      mstore\n      swap1\n      dup2\n      0x00\n      dup3\n      add\n      dup1\n      sload\n      tag_68\n      swap1\n      tag_69\n      jump\t// in\n    tag_68:\n      dup1\n      0x1f\n      add\n      0x20\n      dup1\n      swap2\n      div\n      mul\n      0x20\n      add\n      mload(0x40)\n      swap1\n      dup2\n      add\n      0x40\n      mstore\n      dup1\n      swap3\n      swap2\n      swap1\n      dup2\n      dup2\n      mstore\n      0x20\n      add\n      dup3\n      dup1\n      sload\n      tag_70\n      swap1\n      tag_69\n      jump\t// in\n    tag_70:\n      dup1\n      iszero\n      tag_71\n      jumpi\n      dup1\n      0x1f\n      lt\n      tag_72\n      jumpi\n      0x0100\n      dup1\n      dup4\n      sload\n      div\n      mul\n      dup4\n      mstore\n      swap2\n      0x20\n      add\n      swap2\n      jump(tag_71)\n    tag_72:\n      dup3\n      add\n      swap2\n      swap1\n      0x00\n      mstore\n      keccak256(0x00, 0x20)\n      swap1\n    tag_73:\n      dup2\n      sload\n      dup2\n      mstore\n      swap1\n      0x01\n      add\n      swap1\n      0x20\n      add\n      dup1\n      dup4\n      gt\n      tag_73\n      jumpi\n      dup3\n      swap1\n      sub\n      0x1f\n      and\n      dup3\n      add\n      swap2\n    tag_71:\n      pop\n      pop\n      pop\n      pop\n      pop\n      dup2\n      mstore\n      0x20\n      add\n      0x01\n      dup3\n      add\n      sload\n      dup2\n      mstore\n      pop\n      pop\n        /* \"contracts/eVoting_app.sol\":2884:2892  _options */\n      dup3\n        /* \"contracts/eVoting_app.sol\":2893:2894  i */\n      dup3\n        /* \"contracts/eVoting_app.sol\":2884:2895  _options[i] */\n      dup2\n      mload\n      dup2\n      lt\n      tag_74\n      jumpi\n      tag_75\n      tag_76\n      jump\t// in\n    tag_75:\n    tag_74:\n      0x20\n      mul\n      0x20\n      add\n      add\n        /* \"contracts/eVoting_app.sol\":2884:2926  _options[i] = pools[_poolIndex].options[i] */\n      dup2\n      swap1\n      mstore\n      pop\n        /* \"contracts/eVoting_app.sol\":2865:2868  i++ */\n      dup1\n      dup1\n      tag_77\n      swap1\n      tag_50\n      jump\t// in\n    tag_77:\n      swap2\n      pop\n      pop\n        /* \"contracts/eVoting_app.sol\":2812:2937  for (uint i = 0; i < pools[_poolIndex].numOfOptions; i++) {... */\n      jump(tag_65)\n    tag_66:\n      pop\n        /* \"contracts/eVoting_app.sol\":2953:2961  _options */\n      dup1\n        /* \"contracts/eVoting_app.sol\":2946:2961  return _options */\n      swap2\n      pop\n      pop\n        /* \"contracts/eVoting_app.sol\":2643:2968  function getOptions(uint256 _poolIndex) public view returns(Option[] memory){... */\n      swap2\n      swap1\n      pop\n      jump\t// out\n        /* \"contracts/eVoting_app.sol\":2381:2504  function getNumOfVotes(uint256 _poolIndex) public view returns(uint256){... */\n    tag_30:\n        /* \"contracts/eVoting_app.sol\":2444:2451  uint256 */\n      0x00\n        /* \"contracts/eVoting_app.sol\":2469:2474  pools */\n      dup1\n        /* \"contracts/eVoting_app.sol\":2469:2486  pools[_poolIndex] */\n      0x00\n        /* \"contracts/eVoting_app.sol\":2475:2485  _poolIndex */\n      dup4\n        /* \"contracts/eVoting_app.sol\":2469:2486  pools[_poolIndex] */\n      dup2\n      mstore\n      0x20\n      add\n      swap1\n      dup2\n      mstore\n      0x20\n      add\n      0x00\n      keccak256\n        /* \"contracts/eVoting_app.sol\":2469:2497  pools[_poolIndex].totalVotes */\n      0x02\n      add\n      sload\n        /* \"contracts/eVoting_app.sol\":2462:2497  return pools[_poolIndex].totalVotes */\n      swap1\n      pop\n        /* \"contracts/eVoting_app.sol\":2381:2504  function getNumOfVotes(uint256 _poolIndex) public view returns(uint256){... */\n      swap2\n      swap1\n      pop\n      jump\t// out\n        /* \"contracts/eVoting_app.sol\":3023:3630  function getActivePools() public view returns(ShowPool[] memory){... */\n    tag_33:\n        /* \"contracts/eVoting_app.sol\":3069:3086  ShowPool[] memory */\n      0x60\n        /* \"contracts/eVoting_app.sol\":3098:3122  ShowPool[] memory _pools */\n      dup1\n        /* \"contracts/eVoting_app.sol\":3142:3164  uint256 numOfShowPools */\n      0x00\n        /* \"contracts/eVoting_app.sol\":3617:3623  _pools */\n      dup2\n        /* \"contracts/eVoting_app.sol\":3610:3623  return _pools */\n      swap3\n      pop\n      pop\n      pop\n        /* \"contracts/eVoting_app.sol\":3023:3630  function getActivePools() public view returns(ShowPool[] memory){... */\n      swap1\n      jump\t// out\n        /* \"contracts/eVoting_app.sol\":1876:2375  function vote(uint256 _poolIndex, uint256 selectedOption, string memory _username) canVote(_poolIndex) public{... */\n    tag_39:\n        /* \"contracts/eVoting_app.sol\":1967:1977  _poolIndex */\n      dup3\n        /* \"contracts/eVoting_app.sol\":996:1001  pools */\n      0x00\n        /* \"contracts/eVoting_app.sol\":996:1013  pools[_poolIndex] */\n      dup1\n        /* \"contracts/eVoting_app.sol\":1002:1012  _poolIndex */\n      dup3\n        /* \"contracts/eVoting_app.sol\":996:1013  pools[_poolIndex] */\n      dup2\n      mstore\n      0x20\n      add\n      swap1\n      dup2\n      mstore\n      0x20\n      add\n      0x00\n      keccak256\n        /* \"contracts/eVoting_app.sol\":996:1020  pools[_poolIndex].voters */\n      0x04\n      add\n        /* \"contracts/eVoting_app.sol\":996:1032  pools[_poolIndex].voters[msg.sender] */\n      0x00\n        /* \"contracts/eVoting_app.sol\":1021:1031  msg.sender */\n      caller\n        /* \"contracts/eVoting_app.sol\":996:1032  pools[_poolIndex].voters[msg.sender] */\n      0xffffffffffffffffffffffffffffffffffffffff\n      and\n      0xffffffffffffffffffffffffffffffffffffffff\n      and\n      dup2\n      mstore\n      0x20\n      add\n      swap1\n      dup2\n      mstore\n      0x20\n      add\n      0x00\n      keccak256\n        /* \"contracts/eVoting_app.sol\":996:1040  pools[_poolIndex].voters[msg.sender].isVoted */\n      0x02\n      add\n      0x00\n      swap1\n      sload\n      swap1\n      0x0100\n      exp\n      swap1\n      div\n      0xff\n      and\n        /* \"contracts/eVoting_app.sol\":995:1040  !pools[_poolIndex].voters[msg.sender].isVoted */\n      iszero\n        /* \"contracts/eVoting_app.sol\":987:1041  require(!pools[_poolIndex].voters[msg.sender].isVoted) */\n      tag_81\n      jumpi\n      0x00\n      dup1\n      revert\n    tag_81:\n        /* \"contracts/eVoting_app.sol\":1995:2013  Pool storage _pool */\n      0x00\n        /* \"contracts/eVoting_app.sol\":2016:2021  pools */\n      dup1\n        /* \"contracts/eVoting_app.sol\":2016:2033  pools[_poolIndex] */\n      0x00\n        /* \"contracts/eVoting_app.sol\":2022:2032  _poolIndex */\n      dup7\n        /* \"contracts/eVoting_app.sol\":2016:2033  pools[_poolIndex] */\n      dup2\n      mstore\n      0x20\n      add\n      swap1\n      dup2\n      mstore\n      0x20\n      add\n      0x00\n      keccak256\n        /* \"contracts/eVoting_app.sol\":1995:2033  Pool storage _pool = pools[_poolIndex] */\n      swap1\n      pop\n        /* \"contracts/eVoting_app.sol\":2044:2064  Voter storage _voter */\n      0x00\n        /* \"contracts/eVoting_app.sol\":2067:2072  _pool */\n      dup2\n        /* \"contracts/eVoting_app.sol\":2067:2079  _pool.voters */\n      0x04\n      add\n        /* \"contracts/eVoting_app.sol\":2067:2091  _pool.voters[msg.sender] */\n      0x00\n        /* \"contracts/eVoting_app.sol\":2080:2090  msg.sender */\n      caller\n        /* \"contracts/eVoting_app.sol\":2067:2091  _pool.voters[msg.sender] */\n      0xffffffffffffffffffffffffffffffffffffffff\n      and\n      0xffffffffffffffffffffffffffffffffffffffff\n      and\n      dup2\n      mstore\n      0x20\n      add\n      swap1\n      dup2\n      mstore\n      0x20\n      add\n      0x00\n      keccak256\n        /* \"contracts/eVoting_app.sol\":2044:2091  Voter storage _voter = _pool.voters[msg.sender] */\n      swap1\n      pop\n        /* \"contracts/eVoting_app.sol\":2102:2123  Option storage option */\n      0x00\n        /* \"contracts/eVoting_app.sol\":2126:2131  _pool */\n      dup3\n        /* \"contracts/eVoting_app.sol\":2126:2139  _pool.options */\n      0x05\n      add\n        /* \"contracts/eVoting_app.sol\":2126:2155  _pool.options[selectedOption] */\n      0x00\n        /* \"contracts/eVoting_app.sol\":2140:2154  selectedOption */\n      dup8\n        /* \"contracts/eVoting_app.sol\":2126:2155  _pool.options[selectedOption] */\n      dup2\n      mstore\n      0x20\n      add\n      swap1\n      dup2\n      mstore\n      0x20\n      add\n      0x00\n      keccak256\n        /* \"contracts/eVoting_app.sol\":2102:2155  Option storage option = _pool.options[selectedOption] */\n      swap1\n      pop\n        /* \"contracts/eVoting_app.sol\":2166:2171  _pool */\n      dup3\n        /* \"contracts/eVoting_app.sol\":2166:2182  _pool.totalVotes */\n      0x02\n      add\n      0x00\n        /* \"contracts/eVoting_app.sol\":2166:2184  _pool.totalVotes++ */\n      dup2\n      sload\n      dup1\n      swap3\n      swap2\n      swap1\n      tag_83\n      swap1\n      tag_50\n      jump\t// in\n    tag_83:\n      swap2\n      swap1\n      pop\n      sstore\n      pop\n        /* \"contracts/eVoting_app.sol\":2209:2218  _username */\n      dup5\n        /* \"contracts/eVoting_app.sol\":2195:2201  _voter */\n      dup3\n        /* \"contracts/eVoting_app.sol\":2195:2206  _voter.name */\n      0x00\n      add\n        /* \"contracts/eVoting_app.sol\":2195:2218  _voter.name = _username */\n      swap1\n      dup1\n      mload\n      swap1\n      0x20\n      add\n      swap1\n      tag_84\n      swap3\n      swap2\n      swap1\n      tag_52\n      jump\t// in\n    tag_84:\n      pop\n        /* \"contracts/eVoting_app.sol\":2252:2266  selectedOption */\n      dup6\n        /* \"contracts/eVoting_app.sol\":2228:2234  _voter */\n      dup3\n        /* \"contracts/eVoting_app.sol\":2228:2249  _voter.selectedOption */\n      0x01\n      add\n        /* \"contracts/eVoting_app.sol\":2228:2266  _voter.selectedOption = selectedOption */\n      dup2\n      swap1\n      sstore\n      pop\n        /* \"contracts/eVoting_app.sol\":2276:2282  _voter */\n      dup2\n        /* \"contracts/eVoting_app.sol\":2276:2305  _voter.numOfParticipatedVotes */\n      0x03\n      add\n      0x00\n        /* \"contracts/eVoting_app.sol\":2276:2307  _voter.numOfParticipatedVotes++ */\n      dup2\n      sload\n      dup1\n      swap3\n      swap2\n      swap1\n      tag_85\n      swap1\n      tag_50\n      jump\t// in\n    tag_85:\n      swap2\n      swap1\n      pop\n      sstore\n      pop\n        /* \"contracts/eVoting_app.sol\":2334:2338  true */\n      0x01\n        /* \"contracts/eVoting_app.sol\":2317:2323  _voter */\n      dup3\n        /* \"contracts/eVoting_app.sol\":2317:2331  _voter.isVoted */\n      0x02\n      add\n      0x00\n        /* \"contracts/eVoting_app.sol\":2317:2338  _voter.isVoted = true */\n      0x0100\n      exp\n      dup2\n      sload\n      dup2\n      0xff\n      mul\n      not\n      and\n      swap1\n      dup4\n      iszero\n      iszero\n      mul\n      or\n      swap1\n      sstore\n      pop\n        /* \"contracts/eVoting_app.sol\":2349:2355  option */\n      dup1\n        /* \"contracts/eVoting_app.sol\":2349:2366  option.numOfVotes */\n      0x01\n      add\n      0x00\n        /* \"contracts/eVoting_app.sol\":2349:2368  option.numOfVotes++ */\n      dup2\n      sload\n      dup1\n      swap3\n      swap2\n      swap1\n      tag_86\n      swap1\n      tag_50\n      jump\t// in\n    tag_86:\n      swap2\n      swap1\n      pop\n      sstore\n      pop\n        /* \"contracts/eVoting_app.sol\":1985:2375  {... */\n      pop\n      pop\n      pop\n        /* \"contracts/eVoting_app.sol\":1876:2375  function vote(uint256 _poolIndex, uint256 selectedOption, string memory _username) canVote(_poolIndex) public{... */\n      pop\n      pop\n      pop\n      pop\n      jump\t// out\n        /* \"contracts/eVoting_app.sol\":1716:1870  function startPool(uint256 _poolIndex) onlyOwner(_poolIndex) public{... */\n    tag_42:\n        /* \"contracts/eVoting_app.sol\":1765:1775  _poolIndex */\n      dup1\n        /* \"contracts/eVoting_app.sol\":893:898  pools */\n      0x00\n        /* \"contracts/eVoting_app.sol\":893:910  pools[_poolIndex] */\n      dup1\n        /* \"contracts/eVoting_app.sol\":899:909  _poolIndex */\n      dup3\n        /* \"contracts/eVoting_app.sol\":893:910  pools[_poolIndex] */\n      dup2\n      mstore\n      0x20\n      add\n      swap1\n      dup2\n      mstore\n      0x20\n      add\n      0x00\n      keccak256\n        /* \"contracts/eVoting_app.sol\":893:916  pools[_poolIndex].owner */\n      0x03\n      add\n      0x00\n      swap1\n      sload\n      swap1\n      0x0100\n      exp\n      swap1\n      div\n      0xffffffffffffffffffffffffffffffffffffffff\n      and\n        /* \"contracts/eVoting_app.sol\":879:916  msg.sender == pools[_poolIndex].owner */\n      0xffffffffffffffffffffffffffffffffffffffff\n      and\n        /* \"contracts/eVoting_app.sol\":879:889  msg.sender */\n      caller\n        /* \"contracts/eVoting_app.sol\":879:916  msg.sender == pools[_poolIndex].owner */\n      0xffffffffffffffffffffffffffffffffffffffff\n      and\n      eq\n        /* \"contracts/eVoting_app.sol\":871:917  require(msg.sender == pools[_poolIndex].owner) */\n      tag_88\n      jumpi\n      0x00\n      dup1\n      revert\n    tag_88:\n        /* \"contracts/eVoting_app.sol\":1793:1811  Pool storage _pool */\n      0x00\n        /* \"contracts/eVoting_app.sol\":1814:1819  pools */\n      dup1\n        /* \"contracts/eVoting_app.sol\":1814:1831  pools[_poolIndex] */\n      0x00\n        /* \"contracts/eVoting_app.sol\":1820:1830  _poolIndex */\n      dup5\n        /* \"contracts/eVoting_app.sol\":1814:1831  pools[_poolIndex] */\n      dup2\n      mstore\n      0x20\n      add\n      swap1\n      dup2\n      mstore\n      0x20\n      add\n      0x00\n      keccak256\n        /* \"contracts/eVoting_app.sol\":1793:1831  Pool storage _pool = pools[_poolIndex] */\n      swap1\n      pop\n        /* \"contracts/eVoting_app.sol\":1859:1863  true */\n      0x01\n        /* \"contracts/eVoting_app.sol\":1842:1847  _pool */\n      dup2\n        /* \"contracts/eVoting_app.sol\":1842:1856  _pool.isActive */\n      0x07\n      add\n      0x00\n        /* \"contracts/eVoting_app.sol\":1842:1863  _pool.isActive = true */\n      0x0100\n      exp\n      dup2\n      sload\n      dup2\n      0xff\n      mul\n      not\n      and\n      swap1\n      dup4\n      iszero\n      iszero\n      mul\n      or\n      swap1\n      sstore\n      pop\n        /* \"contracts/eVoting_app.sol\":1783:1870  {... */\n      pop\n        /* \"contracts/eVoting_app.sol\":1716:1870  function startPool(uint256 _poolIndex) onlyOwner(_poolIndex) public{... */\n      pop\n      pop\n      jump\t// out\n        /* \"contracts/eVoting_app.sol\":1502:1710  function addOption(uint256 _poolIndex, string memory _name) onlyOwner(_poolIndex) public{... */\n    tag_46:\n        /* \"contracts/eVoting_app.sol\":1572:1582  _poolIndex */\n      dup2\n        /* \"contracts/eVoting_app.sol\":893:898  pools */\n      0x00\n        /* \"contracts/eVoting_app.sol\":893:910  pools[_poolIndex] */\n      dup1\n        /* \"contracts/eVoting_app.sol\":899:909  _poolIndex */\n      dup3\n        /* \"contracts/eVoting_app.sol\":893:910  pools[_poolIndex] */\n      dup2\n      mstore\n      0x20\n      add\n      swap1\n      dup2\n      mstore\n      0x20\n      add\n      0x00\n      keccak256\n        /* \"contracts/eVoting_app.sol\":893:916  pools[_poolIndex].owner */\n      0x03\n      add\n      0x00\n      swap1\n      sload\n      swap1\n      0x0100\n      exp\n      swap1\n      div\n      0xffffffffffffffffffffffffffffffffffffffff\n      and\n        /* \"contracts/eVoting_app.sol\":879:916  msg.sender == pools[_poolIndex].owner */\n      0xffffffffffffffffffffffffffffffffffffffff\n      and\n        /* \"contracts/eVoting_app.sol\":879:889  msg.sender */\n      caller\n        /* \"contracts/eVoting_app.sol\":879:916  msg.sender == pools[_poolIndex].owner */\n      0xffffffffffffffffffffffffffffffffffffffff\n      and\n      eq\n        /* \"contracts/eVoting_app.sol\":871:917  require(msg.sender == pools[_poolIndex].owner) */\n      tag_91\n      jumpi\n      0x00\n      dup1\n      revert\n    tag_91:\n        /* \"contracts/eVoting_app.sol\":1600:1618  Pool storage _pool */\n      0x00\n        /* \"contracts/eVoting_app.sol\":1621:1626  pools */\n      dup1\n        /* \"contracts/eVoting_app.sol\":1621:1638  pools[_poolIndex] */\n      0x00\n        /* \"contracts/eVoting_app.sol\":1627:1637  _poolIndex */\n      dup6\n        /* \"contracts/eVoting_app.sol\":1621:1638  pools[_poolIndex] */\n      dup2\n      mstore\n      0x20\n      add\n      swap1\n      dup2\n      mstore\n      0x20\n      add\n      0x00\n      keccak256\n        /* \"contracts/eVoting_app.sol\":1600:1638  Pool storage _pool = pools[_poolIndex] */\n      swap1\n      pop\n        /* \"contracts/eVoting_app.sol\":1687:1703  Option(_name, 0) */\n      mload(0x40)\n      dup1\n      0x40\n      add\n      0x40\n      mstore\n      dup1\n        /* \"contracts/eVoting_app.sol\":1694:1699  _name */\n      dup5\n        /* \"contracts/eVoting_app.sol\":1687:1703  Option(_name, 0) */\n      dup2\n      mstore\n      0x20\n      add\n        /* \"contracts/eVoting_app.sol\":1701:1702  0 */\n      0x00\n        /* \"contracts/eVoting_app.sol\":1687:1703  Option(_name, 0) */\n      dup2\n      mstore\n      pop\n        /* \"contracts/eVoting_app.sol\":1649:1654  _pool */\n      dup2\n        /* \"contracts/eVoting_app.sol\":1649:1662  _pool.options */\n      0x05\n      add\n        /* \"contracts/eVoting_app.sol\":1649:1684  _pool.options[_pool.numOfOptions++] */\n      0x00\n        /* \"contracts/eVoting_app.sol\":1663:1668  _pool */\n      dup4\n        /* \"contracts/eVoting_app.sol\":1663:1681  _pool.numOfOptions */\n      0x06\n      add\n      0x00\n        /* \"contracts/eVoting_app.sol\":1663:1683  _pool.numOfOptions++ */\n      dup2\n      sload\n      dup1\n      swap3\n      swap2\n      swap1\n      tag_93\n      swap1\n      tag_50\n      jump\t// in\n    tag_93:\n      swap2\n      swap1\n      pop\n      sstore\n        /* \"contracts/eVoting_app.sol\":1649:1684  _pool.options[_pool.numOfOptions++] */\n      dup2\n      mstore\n      0x20\n      add\n      swap1\n      dup2\n      mstore\n      0x20\n      add\n      0x00\n      keccak256\n        /* \"contracts/eVoting_app.sol\":1649:1703  _pool.options[_pool.numOfOptions++] = Option(_name, 0) */\n      0x00\n      dup3\n      add\n      mload\n      dup2\n      0x00\n      add\n      swap1\n      dup1\n      mload\n      swap1\n      0x20\n      add\n      swap1\n      tag_94\n      swap3\n      swap2\n      swap1\n      tag_52\n      jump\t// in\n    tag_94:\n      pop\n      0x20\n      dup3\n      add\n      mload\n      dup2\n      0x01\n      add\n      sstore\n      swap1\n      pop\n      pop\n        /* \"contracts/eVoting_app.sol\":1590:1710  {... */\n      pop\n        /* \"contracts/eVoting_app.sol\":1502:1710  function addOption(uint256 _poolIndex, string memory _name) onlyOwner(_poolIndex) public{... */\n      pop\n      pop\n      pop\n      jump\t// out\n    tag_52:\n      dup3\n      dup1\n      sload\n      tag_95\n      swap1\n      tag_69\n      jump\t// in\n    tag_95:\n      swap1\n      0x00\n      mstore\n      keccak256(0x00, 0x20)\n      swap1\n      0x1f\n      add\n      0x20\n      swap1\n      div\n      dup2\n      add\n      swap3\n      dup3\n      tag_97\n      jumpi\n      0x00\n      dup6\n      sstore\n      jump(tag_96)\n    tag_97:\n      dup3\n      0x1f\n      lt\n      tag_98\n      jumpi\n      dup1\n      mload\n      not(0xff)\n      and\n      dup4\n      dup1\n      add\n      or\n      dup6\n      sstore\n      jump(tag_96)\n    tag_98:\n      dup3\n      dup1\n      add\n      0x01\n      add\n      dup6\n      sstore\n      dup3\n      iszero\n      tag_96\n      jumpi\n      swap2\n      dup3\n      add\n    tag_99:\n      dup3\n      dup2\n      gt\n      iszero\n      tag_100\n      jumpi\n      dup3\n      mload\n      dup3\n      sstore\n      swap2\n      0x20\n      add\n      swap2\n      swap1\n      0x01\n      add\n      swap1\n      jump(tag_99)\n    tag_100:\n    tag_96:\n      pop\n      swap1\n      pop\n      tag_101\n      swap2\n      swap1\n      tag_102\n      jump\t// in\n    tag_101:\n      pop\n      swap1\n      jump\t// out\n    tag_64:\n      mload(0x40)\n      dup1\n      0x40\n      add\n      0x40\n      mstore\n      dup1\n      0x60\n      dup2\n      mstore\n      0x20\n      add\n      0x00\n      dup2\n      mstore\n      pop\n      swap1\n      jump\t// out\n    tag_102:\n    tag_103:\n      dup1\n      dup3\n      gt\n      iszero\n      tag_104\n      jumpi\n      0x00\n      dup2\n      0x00\n      swap1\n      sstore\n      pop\n      0x01\n      add\n      jump(tag_103)\n    tag_104:\n      pop\n      swap1\n      jump\t// out\n        /* \"#utility.yul\":7:419   */\n    tag_106:\n        /* \"#utility.yul\":85:90   */\n      0x00\n        /* \"#utility.yul\":110:176   */\n      tag_108\n        /* \"#utility.yul\":126:175   */\n      tag_109\n        /* \"#utility.yul\":168:174   */\n      dup5\n        /* \"#utility.yul\":126:175   */\n      tag_110\n      jump\t// in\n    tag_109:\n        /* \"#utility.yul\":110:176   */\n      tag_111\n      jump\t// in\n    tag_108:\n        /* \"#utility.yul\":101:176   */\n      swap1\n      pop\n        /* \"#utility.yul\":199:205   */\n      dup3\n        /* \"#utility.yul\":192:197   */\n      dup2\n        /* \"#utility.yul\":185:206   */\n      mstore\n        /* \"#utility.yul\":237:241   */\n      0x20\n        /* \"#utility.yul\":230:235   */\n      dup2\n        /* \"#utility.yul\":226:242   */\n      add\n        /* \"#utility.yul\":275:278   */\n      dup5\n        /* \"#utility.yul\":266:272   */\n      dup5\n        /* \"#utility.yul\":261:264   */\n      dup5\n        /* \"#utility.yul\":257:273   */\n      add\n        /* \"#utility.yul\":254:279   */\n      gt\n        /* \"#utility.yul\":251:363   */\n      iszero\n      tag_112\n      jumpi\n        /* \"#utility.yul\":282:361   */\n      tag_113\n      tag_114\n      jump\t// in\n    tag_113:\n        /* \"#utility.yul\":251:363   */\n    tag_112:\n        /* \"#utility.yul\":372:413   */\n      tag_115\n        /* \"#utility.yul\":406:412   */\n      dup5\n        /* \"#utility.yul\":401:404   */\n      dup3\n        /* \"#utility.yul\":396:399   */\n      dup6\n        /* \"#utility.yul\":372:413   */\n      tag_116\n      jump\t// in\n    tag_115:\n        /* \"#utility.yul\":91:419   */\n      pop\n        /* \"#utility.yul\":7:419   */\n      swap4\n      swap3\n      pop\n      pop\n      pop\n      jump\t// out\n        /* \"#utility.yul\":439:779   */\n    tag_117:\n        /* \"#utility.yul\":495:500   */\n      0x00\n        /* \"#utility.yul\":544:547   */\n      dup3\n        /* \"#utility.yul\":537:541   */\n      0x1f\n        /* \"#utility.yul\":529:535   */\n      dup4\n        /* \"#utility.yul\":525:542   */\n      add\n        /* \"#utility.yul\":521:548   */\n      slt\n        /* \"#utility.yul\":511:633   */\n      tag_119\n      jumpi\n        /* \"#utility.yul\":552:631   */\n      tag_120\n      tag_121\n      jump\t// in\n    tag_120:\n        /* \"#utility.yul\":511:633   */\n    tag_119:\n        /* \"#utility.yul\":669:675   */\n      dup2\n        /* \"#utility.yul\":656:676   */\n      calldataload\n        /* \"#utility.yul\":694:773   */\n      tag_122\n        /* \"#utility.yul\":769:772   */\n      dup5\n        /* \"#utility.yul\":761:767   */\n      dup3\n        /* \"#utility.yul\":754:758   */\n      0x20\n        /* \"#utility.yul\":746:752   */\n      dup7\n        /* \"#utility.yul\":742:759   */\n      add\n        /* \"#utility.yul\":694:773   */\n      tag_106\n      jump\t// in\n    tag_122:\n        /* \"#utility.yul\":685:773   */\n      swap2\n      pop\n        /* \"#utility.yul\":501:779   */\n      pop\n        /* \"#utility.yul\":439:779   */\n      swap3\n      swap2\n      pop\n      pop\n      jump\t// out\n        /* \"#utility.yul\":785:924   */\n    tag_123:\n        /* \"#utility.yul\":831:836   */\n      0x00\n        /* \"#utility.yul\":869:875   */\n      dup2\n        /* \"#utility.yul\":856:876   */\n      calldataload\n        /* \"#utility.yul\":847:876   */\n      swap1\n      pop\n        /* \"#utility.yul\":885:918   */\n      tag_125\n        /* \"#utility.yul\":912:917   */\n      dup2\n        /* \"#utility.yul\":885:918   */\n      tag_126\n      jump\t// in\n    tag_125:\n        /* \"#utility.yul\":785:924   */\n      swap3\n      swap2\n      pop\n      pop\n      jump\t// out\n        /* \"#utility.yul\":930:1764   */\n    tag_20:\n        /* \"#utility.yul\":1018:1024   */\n      0x00\n        /* \"#utility.yul\":1026:1032   */\n      dup1\n        /* \"#utility.yul\":1075:1077   */\n      0x40\n        /* \"#utility.yul\":1063:1072   */\n      dup4\n        /* \"#utility.yul\":1054:1061   */\n      dup6\n        /* \"#utility.yul\":1050:1073   */\n      sub\n        /* \"#utility.yul\":1046:1078   */\n      slt\n        /* \"#utility.yul\":1043:1162   */\n      iszero\n      tag_128\n      jumpi\n        /* \"#utility.yul\":1081:1160   */\n      tag_129\n      tag_130\n      jump\t// in\n    tag_129:\n        /* \"#utility.yul\":1043:1162   */\n    tag_128:\n        /* \"#utility.yul\":1229:1230   */\n      0x00\n        /* \"#utility.yul\":1218:1227   */\n      dup4\n        /* \"#utility.yul\":1214:1231   */\n      add\n        /* \"#utility.yul\":1201:1232   */\n      calldataload\n        /* \"#utility.yul\":1259:1277   */\n      0xffffffffffffffff\n        /* \"#utility.yul\":1251:1257   */\n      dup2\n        /* \"#utility.yul\":1248:1278   */\n      gt\n        /* \"#utility.yul\":1245:1362   */\n      iszero\n      tag_131\n      jumpi\n        /* \"#utility.yul\":1281:1360   */\n      tag_132\n      tag_133\n      jump\t// in\n    tag_132:\n        /* \"#utility.yul\":1245:1362   */\n    tag_131:\n        /* \"#utility.yul\":1386:1449   */\n      tag_134\n        /* \"#utility.yul\":1441:1448   */\n      dup6\n        /* \"#utility.yul\":1432:1438   */\n      dup3\n        /* \"#utility.yul\":1421:1430   */\n      dup7\n        /* \"#utility.yul\":1417:1439   */\n      add\n        /* \"#utility.yul\":1386:1449   */\n      tag_117\n      jump\t// in\n    tag_134:\n        /* \"#utility.yul\":1376:1449   */\n      swap3\n      pop\n        /* \"#utility.yul\":1172:1459   */\n      pop\n        /* \"#utility.yul\":1526:1528   */\n      0x20\n        /* \"#utility.yul\":1515:1524   */\n      dup4\n        /* \"#utility.yul\":1511:1529   */\n      add\n        /* \"#utility.yul\":1498:1530   */\n      calldataload\n        /* \"#utility.yul\":1557:1575   */\n      0xffffffffffffffff\n        /* \"#utility.yul\":1549:1555   */\n      dup2\n        /* \"#utility.yul\":1546:1576   */\n      gt\n        /* \"#utility.yul\":1543:1660   */\n      iszero\n      tag_135\n      jumpi\n        /* \"#utility.yul\":1579:1658   */\n      tag_136\n      tag_133\n      jump\t// in\n    tag_136:\n        /* \"#utility.yul\":1543:1660   */\n    tag_135:\n        /* \"#utility.yul\":1684:1747   */\n      tag_137\n        /* \"#utility.yul\":1739:1746   */\n      dup6\n        /* \"#utility.yul\":1730:1736   */\n      dup3\n        /* \"#utility.yul\":1719:1728   */\n      dup7\n        /* \"#utility.yul\":1715:1737   */\n      add\n        /* \"#utility.yul\":1684:1747   */\n      tag_117\n      jump\t// in\n    tag_137:\n        /* \"#utility.yul\":1674:1747   */\n      swap2\n      pop\n        /* \"#utility.yul\":1469:1757   */\n      pop\n        /* \"#utility.yul\":930:1764   */\n      swap3\n      pop\n      swap3\n      swap1\n      pop\n      jump\t// out\n        /* \"#utility.yul\":1770:2099   */\n    tag_14:\n        /* \"#utility.yul\":1829:1835   */\n      0x00\n        /* \"#utility.yul\":1878:1880   */\n      0x20\n        /* \"#utility.yul\":1866:1875   */\n      dup3\n        /* \"#utility.yul\":1857:1864   */\n      dup5\n        /* \"#utility.yul\":1853:1876   */\n      sub\n        /* \"#utility.yul\":1849:1881   */\n      slt\n        /* \"#utility.yul\":1846:1965   */\n      iszero\n      tag_139\n      jumpi\n        /* \"#utility.yul\":1884:1963   */\n      tag_140\n      tag_130\n      jump\t// in\n    tag_140:\n        /* \"#utility.yul\":1846:1965   */\n    tag_139:\n        /* \"#utility.yul\":2004:2005   */\n      0x00\n        /* \"#utility.yul\":2029:2082   */\n      tag_141\n        /* \"#utility.yul\":2074:2081   */\n      dup5\n        /* \"#utility.yul\":2065:2071   */\n      dup3\n        /* \"#utility.yul\":2054:2063   */\n      dup6\n        /* \"#utility.yul\":2050:2072   */\n      add\n        /* \"#utility.yul\":2029:2082   */\n      tag_123\n      jump\t// in\n    tag_141:\n        /* \"#utility.yul\":2019:2082   */\n      swap2\n      pop\n        /* \"#utility.yul\":1975:2092   */\n      pop\n        /* \"#utility.yul\":1770:2099   */\n      swap3\n      swap2\n      pop\n      pop\n      jump\t// out\n        /* \"#utility.yul\":2105:2759   */\n    tag_45:\n        /* \"#utility.yul\":2183:2189   */\n      0x00\n        /* \"#utility.yul\":2191:2197   */\n      dup1\n        /* \"#utility.yul\":2240:2242   */\n      0x40\n        /* \"#utility.yul\":2228:2237   */\n      dup4\n        /* \"#utility.yul\":2219:2226   */\n      dup6\n        /* \"#utility.yul\":2215:2238   */\n      sub\n        /* \"#utility.yul\":2211:2243   */\n      slt\n        /* \"#utility.yul\":2208:2327   */\n      iszero\n      tag_143\n      jumpi\n        /* \"#utility.yul\":2246:2325   */\n      tag_144\n      tag_130\n      jump\t// in\n    tag_144:\n        /* \"#utility.yul\":2208:2327   */\n    tag_143:\n        /* \"#utility.yul\":2366:2367   */\n      0x00\n        /* \"#utility.yul\":2391:2444   */\n      tag_145\n        /* \"#utility.yul\":2436:2443   */\n      dup6\n        /* \"#utility.yul\":2427:2433   */\n      dup3\n        /* \"#utility.yul\":2416:2425   */\n      dup7\n        /* \"#utility.yul\":2412:2434   */\n      add\n        /* \"#utility.yul\":2391:2444   */\n      tag_123\n      jump\t// in\n    tag_145:\n        /* \"#utility.yul\":2381:2444   */\n      swap3\n      pop\n        /* \"#utility.yul\":2337:2454   */\n      pop\n        /* \"#utility.yul\":2521:2523   */\n      0x20\n        /* \"#utility.yul\":2510:2519   */\n      dup4\n        /* \"#utility.yul\":2506:2524   */\n      add\n        /* \"#utility.yul\":2493:2525   */\n      calldataload\n        /* \"#utility.yul\":2552:2570   */\n      0xffffffffffffffff\n        /* \"#utility.yul\":2544:2550   */\n      dup2\n        /* \"#utility.yul\":2541:2571   */\n      gt\n        /* \"#utility.yul\":2538:2655   */\n      iszero\n      tag_146\n      jumpi\n        /* \"#utility.yul\":2574:2653   */\n      tag_147\n      tag_133\n      jump\t// in\n    tag_147:\n        /* \"#utility.yul\":2538:2655   */\n    tag_146:\n        /* \"#utility.yul\":2679:2742   */\n      tag_148\n        /* \"#utility.yul\":2734:2741   */\n      dup6\n        /* \"#utility.yul\":2725:2731   */\n      dup3\n        /* \"#utility.yul\":2714:2723   */\n      dup7\n        /* \"#utility.yul\":2710:2732   */\n      add\n        /* \"#utility.yul\":2679:2742   */\n      tag_117\n      jump\t// in\n    tag_148:\n        /* \"#utility.yul\":2669:2742   */\n      swap2\n      pop\n        /* \"#utility.yul\":2464:2752   */\n      pop\n        /* \"#utility.yul\":2105:2759   */\n      swap3\n      pop\n      swap3\n      swap1\n      pop\n      jump\t// out\n        /* \"#utility.yul\":2765:3564   */\n    tag_38:\n        /* \"#utility.yul\":2852:2858   */\n      0x00\n        /* \"#utility.yul\":2860:2866   */\n      dup1\n        /* \"#utility.yul\":2868:2874   */\n      0x00\n        /* \"#utility.yul\":2917:2919   */\n      0x60\n        /* \"#utility.yul\":2905:2914   */\n      dup5\n        /* \"#utility.yul\":2896:2903   */\n      dup7\n        /* \"#utility.yul\":2892:2915   */\n      sub\n        /* \"#utility.yul\":2888:2920   */\n      slt\n        /* \"#utility.yul\":2885:3004   */\n      iszero\n      tag_150\n      jumpi\n        /* \"#utility.yul\":2923:3002   */\n      tag_151\n      tag_130\n      jump\t// in\n    tag_151:\n        /* \"#utility.yul\":2885:3004   */\n    tag_150:\n        /* \"#utility.yul\":3043:3044   */\n      0x00\n        /* \"#utility.yul\":3068:3121   */\n      tag_152\n        /* \"#utility.yul\":3113:3120   */\n      dup7\n        /* \"#utility.yul\":3104:3110   */\n      dup3\n        /* \"#utility.yul\":3093:3102   */\n      dup8\n        /* \"#utility.yul\":3089:3111   */\n      add\n        /* \"#utility.yul\":3068:3121   */\n      tag_123\n      jump\t// in\n    tag_152:\n        /* \"#utility.yul\":3058:3121   */\n      swap4\n      pop\n        /* \"#utility.yul\":3014:3131   */\n      pop\n        /* \"#utility.yul\":3170:3172   */\n      0x20\n        /* \"#utility.yul\":3196:3249   */\n      tag_153\n        /* \"#utility.yul\":3241:3248   */\n      dup7\n        /* \"#utility.yul\":3232:3238   */\n      dup3\n        /* \"#utility.yul\":3221:3230   */\n      dup8\n        /* \"#utility.yul\":3217:3239   */\n      add\n        /* \"#utility.yul\":3196:3249   */\n      tag_123\n      jump\t// in\n    tag_153:\n        /* \"#utility.yul\":3186:3249   */\n      swap3\n      pop\n        /* \"#utility.yul\":3141:3259   */\n      pop\n        /* \"#utility.yul\":3326:3328   */\n      0x40\n        /* \"#utility.yul\":3315:3324   */\n      dup5\n        /* \"#utility.yul\":3311:3329   */\n      add\n        /* \"#utility.yul\":3298:3330   */\n      calldataload\n        /* \"#utility.yul\":3357:3375   */\n      0xffffffffffffffff\n        /* \"#utility.yul\":3349:3355   */\n      dup2\n        /* \"#utility.yul\":3346:3376   */\n      gt\n        /* \"#utility.yul\":3343:3460   */\n      iszero\n      tag_154\n      jumpi\n        /* \"#utility.yul\":3379:3458   */\n      tag_155\n      tag_133\n      jump\t// in\n    tag_155:\n        /* \"#utility.yul\":3343:3460   */\n    tag_154:\n        /* \"#utility.yul\":3484:3547   */\n      tag_156\n        /* \"#utility.yul\":3539:3546   */\n      dup7\n        /* \"#utility.yul\":3530:3536   */\n      dup3\n        /* \"#utility.yul\":3519:3528   */\n      dup8\n        /* \"#utility.yul\":3515:3537   */\n      add\n        /* \"#utility.yul\":3484:3547   */\n      tag_117\n      jump\t// in\n    tag_156:\n        /* \"#utility.yul\":3474:3547   */\n      swap2\n      pop\n        /* \"#utility.yul\":3269:3557   */\n      pop\n        /* \"#utility.yul\":2765:3564   */\n      swap3\n      pop\n      swap3\n      pop\n      swap3\n      jump\t// out\n        /* \"#utility.yul\":3570:3814   */\n    tag_157:\n        /* \"#utility.yul\":3683:3693   */\n      0x00\n        /* \"#utility.yul\":3718:3808   */\n      tag_159\n        /* \"#utility.yul\":3804:3807   */\n      dup4\n        /* \"#utility.yul\":3796:3802   */\n      dup4\n        /* \"#utility.yul\":3718:3808   */\n      tag_160\n      jump\t// in\n    tag_159:\n        /* \"#utility.yul\":3704:3808   */\n      swap1\n      pop\n        /* \"#utility.yul\":3570:3814   */\n      swap3\n      swap2\n      pop\n      pop\n      jump\t// out\n        /* \"#utility.yul\":3820:4072   */\n    tag_161:\n        /* \"#utility.yul\":3937:3947   */\n      0x00\n        /* \"#utility.yul\":3972:4066   */\n      tag_163\n        /* \"#utility.yul\":4062:4065   */\n      dup4\n        /* \"#utility.yul\":4054:4060   */\n      dup4\n        /* \"#utility.yul\":3972:4066   */\n      tag_164\n      jump\t// in\n    tag_163:\n        /* \"#utility.yul\":3958:4066   */\n      swap1\n      pop\n        /* \"#utility.yul\":3820:4072   */\n      swap3\n      swap2\n      pop\n      pop\n      jump\t// out\n        /* \"#utility.yul\":4138:5225   */\n    tag_165:\n        /* \"#utility.yul\":4301:4304   */\n      0x00\n        /* \"#utility.yul\":4330:4406   */\n      tag_167\n        /* \"#utility.yul\":4400:4405   */\n      dup3\n        /* \"#utility.yul\":4330:4406   */\n      tag_168\n      jump\t// in\n    tag_167:\n        /* \"#utility.yul\":4422:4530   */\n      tag_169\n        /* \"#utility.yul\":4523:4529   */\n      dup2\n        /* \"#utility.yul\":4518:4521   */\n      dup6\n        /* \"#utility.yul\":4422:4530   */\n      tag_170\n      jump\t// in\n    tag_169:\n        /* \"#utility.yul\":4415:4530   */\n      swap4\n      pop\n        /* \"#utility.yul\":4556:4559   */\n      dup4\n        /* \"#utility.yul\":4601:4605   */\n      0x20\n        /* \"#utility.yul\":4593:4599   */\n      dup3\n        /* \"#utility.yul\":4589:4606   */\n      mul\n        /* \"#utility.yul\":4584:4587   */\n      dup6\n        /* \"#utility.yul\":4580:4607   */\n      add\n        /* \"#utility.yul\":4631:4709   */\n      tag_171\n        /* \"#utility.yul\":4703:4708   */\n      dup6\n        /* \"#utility.yul\":4631:4709   */\n      tag_172\n      jump\t// in\n    tag_171:\n        /* \"#utility.yul\":4732:4739   */\n      dup1\n        /* \"#utility.yul\":4763:4764   */\n      0x00\n        /* \"#utility.yul\":4748:5180   */\n    tag_173:\n        /* \"#utility.yul\":4773:4779   */\n      dup6\n        /* \"#utility.yul\":4770:4771   */\n      dup2\n        /* \"#utility.yul\":4767:4780   */\n      lt\n        /* \"#utility.yul\":4748:5180   */\n      iszero\n      tag_175\n      jumpi\n        /* \"#utility.yul\":4844:4853   */\n      dup5\n        /* \"#utility.yul\":4838:4842   */\n      dup5\n        /* \"#utility.yul\":4834:4854   */\n      sub\n        /* \"#utility.yul\":4829:4832   */\n      dup10\n        /* \"#utility.yul\":4822:4855   */\n      mstore\n        /* \"#utility.yul\":4895:4901   */\n      dup2\n        /* \"#utility.yul\":4889:4902   */\n      mload\n        /* \"#utility.yul\":4923:5031   */\n      tag_176\n        /* \"#utility.yul\":5026:5030   */\n      dup6\n        /* \"#utility.yul\":5011:5024   */\n      dup3\n        /* \"#utility.yul\":4923:5031   */\n      tag_157\n      jump\t// in\n    tag_176:\n        /* \"#utility.yul\":4915:5031   */\n      swap5\n      pop\n        /* \"#utility.yul\":5054:5136   */\n      tag_177\n        /* \"#utility.yul\":5129:5135   */\n      dup4\n        /* \"#utility.yul\":5054:5136   */\n      tag_178\n      jump\t// in\n    tag_177:\n        /* \"#utility.yul\":5044:5136   */\n      swap3\n      pop\n        /* \"#utility.yul\":5165:5169   */\n      0x20\n        /* \"#utility.yul\":5160:5163   */\n      dup11\n        /* \"#utility.yul\":5156:5170   */\n      add\n        /* \"#utility.yul\":5149:5170   */\n      swap10\n      pop\n        /* \"#utility.yul\":4808:5180   */\n      pop\n        /* \"#utility.yul\":4795:4796   */\n      0x01\n        /* \"#utility.yul\":4792:4793   */\n      dup2\n        /* \"#utility.yul\":4788:4797   */\n      add\n        /* \"#utility.yul\":4783:4797   */\n      swap1\n      pop\n        /* \"#utility.yul\":4748:5180   */\n      jump(tag_173)\n    tag_175:\n        /* \"#utility.yul\":4752:4766   */\n      pop\n        /* \"#utility.yul\":5196:5200   */\n      dup3\n        /* \"#utility.yul\":5189:5200   */\n      swap8\n      pop\n        /* \"#utility.yul\":5216:5219   */\n      dup8\n        /* \"#utility.yul\":5209:5219   */\n      swap6\n      pop\n        /* \"#utility.yul\":4306:5225   */\n      pop\n      pop\n      pop\n      pop\n      pop\n        /* \"#utility.yul\":4138:5225   */\n      swap3\n      swap2\n      pop\n      pop\n      jump\t// out\n        /* \"#utility.yul\":5295:6398   */\n    tag_179:\n        /* \"#utility.yul\":5462:5465   */\n      0x00\n        /* \"#utility.yul\":5491:5569   */\n      tag_181\n        /* \"#utility.yul\":5563:5568   */\n      dup3\n        /* \"#utility.yul\":5491:5569   */\n      tag_182\n      jump\t// in\n    tag_181:\n        /* \"#utility.yul\":5585:5695   */\n      tag_183\n        /* \"#utility.yul\":5688:5694   */\n      dup2\n        /* \"#utility.yul\":5683:5686   */\n      dup6\n        /* \"#utility.yul\":5585:5695   */\n      tag_184\n      jump\t// in\n    tag_183:\n        /* \"#utility.yul\":5578:5695   */\n      swap4\n      pop\n        /* \"#utility.yul\":5721:5724   */\n      dup4\n        /* \"#utility.yul\":5766:5770   */\n      0x20\n        /* \"#utility.yul\":5758:5764   */\n      dup3\n        /* \"#utility.yul\":5754:5771   */\n      mul\n        /* \"#utility.yul\":5749:5752   */\n      dup6\n        /* \"#utility.yul\":5745:5772   */\n      add\n        /* \"#utility.yul\":5796:5876   */\n      tag_185\n        /* \"#utility.yul\":5870:5875   */\n      dup6\n        /* \"#utility.yul\":5796:5876   */\n      tag_186\n      jump\t// in\n    tag_185:\n        /* \"#utility.yul\":5899:5906   */\n      dup1\n        /* \"#utility.yul\":5930:5931   */\n      0x00\n        /* \"#utility.yul\":5915:6353   */\n    tag_187:\n        /* \"#utility.yul\":5940:5946   */\n      dup6\n        /* \"#utility.yul\":5937:5938   */\n      dup2\n        /* \"#utility.yul\":5934:5947   */\n      lt\n        /* \"#utility.yul\":5915:6353   */\n      iszero\n      tag_189\n      jumpi\n        /* \"#utility.yul\":6011:6020   */\n      dup5\n        /* \"#utility.yul\":6005:6009   */\n      dup5\n        /* \"#utility.yul\":6001:6021   */\n      sub\n        /* \"#utility.yul\":5996:5999   */\n      dup10\n        /* \"#utility.yul\":5989:6022   */\n      mstore\n        /* \"#utility.yul\":6062:6068   */\n      dup2\n        /* \"#utility.yul\":6056:6069   */\n      mload\n        /* \"#utility.yul\":6090:6202   */\n      tag_190\n        /* \"#utility.yul\":6197:6201   */\n      dup6\n        /* \"#utility.yul\":6182:6195   */\n      dup3\n        /* \"#utility.yul\":6090:6202   */\n      tag_161\n      jump\t// in\n    tag_190:\n        /* \"#utility.yul\":6082:6202   */\n      swap5\n      pop\n        /* \"#utility.yul\":6225:6309   */\n      tag_191\n        /* \"#utility.yul\":6302:6308   */\n      dup4\n        /* \"#utility.yul\":6225:6309   */\n      tag_192\n      jump\t// in\n    tag_191:\n        /* \"#utility.yul\":6215:6309   */\n      swap3\n      pop\n        /* \"#utility.yul\":6338:6342   */\n      0x20\n        /* \"#utility.yul\":6333:6336   */\n      dup11\n        /* \"#utility.yul\":6329:6343   */\n      add\n        /* \"#utility.yul\":6322:6343   */\n      swap10\n      pop\n        /* \"#utility.yul\":5975:6353   */\n      pop\n        /* \"#utility.yul\":5962:5963   */\n      0x01\n        /* \"#utility.yul\":5959:5960   */\n      dup2\n        /* \"#utility.yul\":5955:5964   */\n      add\n        /* \"#utility.yul\":5950:5964   */\n      swap1\n      pop\n        /* \"#utility.yul\":5915:6353   */\n      jump(tag_187)\n    tag_189:\n        /* \"#utility.yul\":5919:5933   */\n      pop\n        /* \"#utility.yul\":6369:6373   */\n      dup3\n        /* \"#utility.yul\":6362:6373   */\n      swap8\n      pop\n        /* \"#utility.yul\":6389:6392   */\n      dup8\n        /* \"#utility.yul\":6382:6392   */\n      swap6\n      pop\n        /* \"#utility.yul\":5467:6398   */\n      pop\n      pop\n      pop\n      pop\n      pop\n        /* \"#utility.yul\":5295:6398   */\n      swap3\n      swap2\n      pop\n      pop\n      jump\t// out\n        /* \"#utility.yul\":6404:6748   */\n    tag_193:\n        /* \"#utility.yul\":6482:6485   */\n      0x00\n        /* \"#utility.yul\":6510:6549   */\n      tag_195\n        /* \"#utility.yul\":6543:6548   */\n      dup3\n        /* \"#utility.yul\":6510:6549   */\n      tag_196\n      jump\t// in\n    tag_195:\n        /* \"#utility.yul\":6565:6626   */\n      tag_197\n        /* \"#utility.yul\":6619:6625   */\n      dup2\n        /* \"#utility.yul\":6614:6617   */\n      dup6\n        /* \"#utility.yul\":6565:6626   */\n      tag_198\n      jump\t// in\n    tag_197:\n        /* \"#utility.yul\":6558:6626   */\n      swap4\n      pop\n        /* \"#utility.yul\":6635:6687   */\n      tag_199\n        /* \"#utility.yul\":6680:6686   */\n      dup2\n        /* \"#utility.yul\":6675:6678   */\n      dup6\n        /* \"#utility.yul\":6668:6672   */\n      0x20\n        /* \"#utility.yul\":6661:6666   */\n      dup7\n        /* \"#utility.yul\":6657:6673   */\n      add\n        /* \"#utility.yul\":6635:6687   */\n      tag_200\n      jump\t// in\n    tag_199:\n        /* \"#utility.yul\":6712:6741   */\n      tag_201\n        /* \"#utility.yul\":6734:6740   */\n      dup2\n        /* \"#utility.yul\":6712:6741   */\n      tag_202\n      jump\t// in\n    tag_201:\n        /* \"#utility.yul\":6707:6710   */\n      dup5\n        /* \"#utility.yul\":6703:6742   */\n      add\n        /* \"#utility.yul\":6696:6742   */\n      swap2\n      pop\n        /* \"#utility.yul\":6486:6748   */\n      pop\n        /* \"#utility.yul\":6404:6748   */\n      swap3\n      swap2\n      pop\n      pop\n      jump\t// out\n        /* \"#utility.yul\":6810:7406   */\n    tag_160:\n        /* \"#utility.yul\":6913:6916   */\n      0x00\n        /* \"#utility.yul\":6949:6953   */\n      0x40\n        /* \"#utility.yul\":6944:6947   */\n      dup4\n        /* \"#utility.yul\":6940:6954   */\n      add\n        /* \"#utility.yul\":7036:7040   */\n      0x00\n        /* \"#utility.yul\":7029:7034   */\n      dup4\n        /* \"#utility.yul\":7025:7041   */\n      add\n        /* \"#utility.yul\":7019:7042   */\n      mload\n        /* \"#utility.yul\":7089:7092   */\n      dup5\n        /* \"#utility.yul\":7083:7087   */\n      dup3\n        /* \"#utility.yul\":7079:7093   */\n      sub\n        /* \"#utility.yul\":7072:7076   */\n      0x00\n        /* \"#utility.yul\":7067:7070   */\n      dup7\n        /* \"#utility.yul\":7063:7077   */\n      add\n        /* \"#utility.yul\":7056:7094   */\n      mstore\n        /* \"#utility.yul\":7115:7188   */\n      tag_204\n        /* \"#utility.yul\":7183:7187   */\n      dup3\n        /* \"#utility.yul\":7169:7181   */\n      dup3\n        /* \"#utility.yul\":7115:7188   */\n      tag_193\n      jump\t// in\n    tag_204:\n        /* \"#utility.yul\":7107:7188   */\n      swap2\n      pop\n        /* \"#utility.yul\":6964:7199   */\n      pop\n        /* \"#utility.yul\":7287:7291   */\n      0x20\n        /* \"#utility.yul\":7280:7285   */\n      dup4\n        /* \"#utility.yul\":7276:7292   */\n      add\n        /* \"#utility.yul\":7270:7293   */\n      mload\n        /* \"#utility.yul\":7306:7369   */\n      tag_205\n        /* \"#utility.yul\":7363:7367   */\n      0x20\n        /* \"#utility.yul\":7358:7361   */\n      dup7\n        /* \"#utility.yul\":7354:7368   */\n      add\n        /* \"#utility.yul\":7340:7352   */\n      dup3\n        /* \"#utility.yul\":7306:7369   */\n      tag_206\n      jump\t// in\n    tag_205:\n        /* \"#utility.yul\":7209:7379   */\n      pop\n        /* \"#utility.yul\":7396:7400   */\n      dup1\n        /* \"#utility.yul\":7389:7400   */\n      swap2\n      pop\n        /* \"#utility.yul\":6918:7406   */\n      pop\n        /* \"#utility.yul\":6810:7406   */\n      swap3\n      swap2\n      pop\n      pop\n      jump\t// out\n        /* \"#utility.yul\":7472:8685   */\n    tag_164:\n        /* \"#utility.yul\":7579:7582   */\n      0x00\n        /* \"#utility.yul\":7615:7619   */\n      0xa0\n        /* \"#utility.yul\":7610:7613   */\n      dup4\n        /* \"#utility.yul\":7606:7620   */\n      add\n        /* \"#utility.yul\":7702:7706   */\n      0x00\n        /* \"#utility.yul\":7695:7700   */\n      dup4\n        /* \"#utility.yul\":7691:7707   */\n      add\n        /* \"#utility.yul\":7685:7708   */\n      mload\n        /* \"#utility.yul\":7755:7758   */\n      dup5\n        /* \"#utility.yul\":7749:7753   */\n      dup3\n        /* \"#utility.yul\":7745:7759   */\n      sub\n        /* \"#utility.yul\":7738:7742   */\n      0x00\n        /* \"#utility.yul\":7733:7736   */\n      dup7\n        /* \"#utility.yul\":7729:7743   */\n      add\n        /* \"#utility.yul\":7722:7760   */\n      mstore\n        /* \"#utility.yul\":7781:7854   */\n      tag_208\n        /* \"#utility.yul\":7849:7853   */\n      dup3\n        /* \"#utility.yul\":7835:7847   */\n      dup3\n        /* \"#utility.yul\":7781:7854   */\n      tag_193\n      jump\t// in\n    tag_208:\n        /* \"#utility.yul\":7773:7854   */\n      swap2\n      pop\n        /* \"#utility.yul\":7630:7865   */\n      pop\n        /* \"#utility.yul\":7954:7958   */\n      0x20\n        /* \"#utility.yul\":7947:7952   */\n      dup4\n        /* \"#utility.yul\":7943:7959   */\n      add\n        /* \"#utility.yul\":7937:7960   */\n      mload\n        /* \"#utility.yul\":8007:8010   */\n      dup5\n        /* \"#utility.yul\":8001:8005   */\n      dup3\n        /* \"#utility.yul\":7997:8011   */\n      sub\n        /* \"#utility.yul\":7990:7994   */\n      0x20\n        /* \"#utility.yul\":7985:7988   */\n      dup7\n        /* \"#utility.yul\":7981:7995   */\n      add\n        /* \"#utility.yul\":7974:8012   */\n      mstore\n        /* \"#utility.yul\":8033:8106   */\n      tag_209\n        /* \"#utility.yul\":8101:8105   */\n      dup3\n        /* \"#utility.yul\":8087:8099   */\n      dup3\n        /* \"#utility.yul\":8033:8106   */\n      tag_193\n      jump\t// in\n    tag_209:\n        /* \"#utility.yul\":8025:8106   */\n      swap2\n      pop\n        /* \"#utility.yul\":7875:8117   */\n      pop\n        /* \"#utility.yul\":8205:8209   */\n      0x40\n        /* \"#utility.yul\":8198:8203   */\n      dup4\n        /* \"#utility.yul\":8194:8210   */\n      add\n        /* \"#utility.yul\":8188:8211   */\n      mload\n        /* \"#utility.yul\":8224:8287   */\n      tag_210\n        /* \"#utility.yul\":8281:8285   */\n      0x40\n        /* \"#utility.yul\":8276:8279   */\n      dup7\n        /* \"#utility.yul\":8272:8286   */\n      add\n        /* \"#utility.yul\":8258:8270   */\n      dup3\n        /* \"#utility.yul\":8224:8287   */\n      tag_206\n      jump\t// in\n    tag_210:\n        /* \"#utility.yul\":8127:8297   */\n      pop\n        /* \"#utility.yul\":8387:8391   */\n      0x60\n        /* \"#utility.yul\":8380:8385   */\n      dup4\n        /* \"#utility.yul\":8376:8392   */\n      add\n        /* \"#utility.yul\":8370:8393   */\n      mload\n        /* \"#utility.yul\":8406:8469   */\n      tag_211\n        /* \"#utility.yul\":8463:8467   */\n      0x60\n        /* \"#utility.yul\":8458:8461   */\n      dup7\n        /* \"#utility.yul\":8454:8468   */\n      add\n        /* \"#utility.yul\":8440:8452   */\n      dup3\n        /* \"#utility.yul\":8406:8469   */\n      tag_206\n      jump\t// in\n    tag_211:\n        /* \"#utility.yul\":8307:8479   */\n      pop\n        /* \"#utility.yul\":8566:8570   */\n      0x80\n        /* \"#utility.yul\":8559:8564   */\n      dup4\n        /* \"#utility.yul\":8555:8571   */\n      add\n        /* \"#utility.yul\":8549:8572   */\n      mload\n        /* \"#utility.yul\":8585:8648   */\n      tag_212\n        /* \"#utility.yul\":8642:8646   */\n      0x80\n        /* \"#utility.yul\":8637:8640   */\n      dup7\n        /* \"#utility.yul\":8633:8647   */\n      add\n        /* \"#utility.yul\":8619:8631   */\n      dup3\n        /* \"#utility.yul\":8585:8648   */\n      tag_206\n      jump\t// in\n    tag_212:\n        /* \"#utility.yul\":8489:8658   */\n      pop\n        /* \"#utility.yul\":8675:8679   */\n      dup1\n        /* \"#utility.yul\":8668:8679   */\n      swap2\n      pop\n        /* \"#utility.yul\":7584:8685   */\n      pop\n        /* \"#utility.yul\":7472:8685   */\n      swap3\n      swap2\n      pop\n      pop\n      jump\t// out\n        /* \"#utility.yul\":8691:8799   */\n    tag_206:\n        /* \"#utility.yul\":8768:8792   */\n      tag_214\n        /* \"#utility.yul\":8786:8791   */\n      dup2\n        /* \"#utility.yul\":8768:8792   */\n      tag_215\n      jump\t// in\n    tag_214:\n        /* \"#utility.yul\":8763:8766   */\n      dup3\n        /* \"#utility.yul\":8756:8793   */\n      mstore\n        /* \"#utility.yul\":8691:8799   */\n      pop\n      pop\n      jump\t// out\n        /* \"#utility.yul\":8805:8923   */\n    tag_216:\n        /* \"#utility.yul\":8892:8916   */\n      tag_218\n        /* \"#utility.yul\":8910:8915   */\n      dup2\n        /* \"#utility.yul\":8892:8916   */\n      tag_215\n      jump\t// in\n    tag_218:\n        /* \"#utility.yul\":8887:8890   */\n      dup3\n        /* \"#utility.yul\":8880:8917   */\n      mstore\n        /* \"#utility.yul\":8805:8923   */\n      pop\n      pop\n      jump\t// out\n        /* \"#utility.yul\":8929:9390   */\n    tag_27:\n        /* \"#utility.yul\":9116:9120   */\n      0x00\n        /* \"#utility.yul\":9154:9156   */\n      0x20\n        /* \"#utility.yul\":9143:9152   */\n      dup3\n        /* \"#utility.yul\":9139:9157   */\n      add\n        /* \"#utility.yul\":9131:9157   */\n      swap1\n      pop\n        /* \"#utility.yul\":9203:9212   */\n      dup2\n        /* \"#utility.yul\":9197:9201   */\n      dup2\n        /* \"#utility.yul\":9193:9213   */\n      sub\n        /* \"#utility.yul\":9189:9190   */\n      0x00\n        /* \"#utility.yul\":9178:9187   */\n      dup4\n        /* \"#utility.yul\":9174:9191   */\n      add\n        /* \"#utility.yul\":9167:9214   */\n      mstore\n        /* \"#utility.yul\":9231:9383   */\n      tag_220\n        /* \"#utility.yul\":9378:9382   */\n      dup2\n        /* \"#utility.yul\":9369:9375   */\n      dup5\n        /* \"#utility.yul\":9231:9383   */\n      tag_165\n      jump\t// in\n    tag_220:\n        /* \"#utility.yul\":9223:9383   */\n      swap1\n      pop\n        /* \"#utility.yul\":8929:9390   */\n      swap3\n      swap2\n      pop\n      pop\n      jump\t// out\n        /* \"#utility.yul\":9396:9865   */\n    tag_35:\n        /* \"#utility.yul\":9587:9591   */\n      0x00\n        /* \"#utility.yul\":9625:9627   */\n      0x20\n        /* \"#utility.yul\":9614:9623   */\n      dup3\n        /* \"#utility.yul\":9610:9628   */\n      add\n        /* \"#utility.yul\":9602:9628   */\n      swap1\n      pop\n        /* \"#utility.yul\":9674:9683   */\n      dup2\n        /* \"#utility.yul\":9668:9672   */\n      dup2\n        /* \"#utility.yul\":9664:9684   */\n      sub\n        /* \"#utility.yul\":9660:9661   */\n      0x00\n        /* \"#utility.yul\":9649:9658   */\n      dup4\n        /* \"#utility.yul\":9645:9662   */\n      add\n        /* \"#utility.yul\":9638:9685   */\n      mstore\n        /* \"#utility.yul\":9702:9858   */\n      tag_222\n        /* \"#utility.yul\":9853:9857   */\n      dup2\n        /* \"#utility.yul\":9844:9850   */\n      dup5\n        /* \"#utility.yul\":9702:9858   */\n      tag_179\n      jump\t// in\n    tag_222:\n        /* \"#utility.yul\":9694:9858   */\n      swap1\n      pop\n        /* \"#utility.yul\":9396:9865   */\n      swap3\n      swap2\n      pop\n      pop\n      jump\t// out\n        /* \"#utility.yul\":9871:10093   */\n    tag_17:\n        /* \"#utility.yul\":9964:9968   */\n      0x00\n        /* \"#utility.yul\":10002:10004   */\n      0x20\n        /* \"#utility.yul\":9991:10000   */\n      dup3\n        /* \"#utility.yul\":9987:10005   */\n      add\n        /* \"#utility.yul\":9979:10005   */\n      swap1\n      pop\n        /* \"#utility.yul\":10015:10086   */\n      tag_224\n        /* \"#utility.yul\":10083:10084   */\n      0x00\n        /* \"#utility.yul\":10072:10081   */\n      dup4\n        /* \"#utility.yul\":10068:10085   */\n      add\n        /* \"#utility.yul\":10059:10065   */\n      dup5\n        /* \"#utility.yul\":10015:10086   */\n      tag_216\n      jump\t// in\n    tag_224:\n        /* \"#utility.yul\":9871:10093   */\n      swap3\n      swap2\n      pop\n      pop\n      jump\t// out\n        /* \"#utility.yul\":10099:10228   */\n    tag_111:\n        /* \"#utility.yul\":10133:10139   */\n      0x00\n        /* \"#utility.yul\":10160:10180   */\n      tag_226\n      tag_227\n      jump\t// in\n    tag_226:\n        /* \"#utility.yul\":10150:10180   */\n      swap1\n      pop\n        /* \"#utility.yul\":10189:10222   */\n      tag_228\n        /* \"#utility.yul\":10217:10221   */\n      dup3\n        /* \"#utility.yul\":10209:10215   */\n      dup3\n        /* \"#utility.yul\":10189:10222   */\n      tag_229\n      jump\t// in\n    tag_228:\n        /* \"#utility.yul\":10099:10228   */\n      swap2\n      swap1\n      pop\n      jump\t// out\n        /* \"#utility.yul\":10234:10309   */\n    tag_227:\n        /* \"#utility.yul\":10267:10273   */\n      0x00\n        /* \"#utility.yul\":10300:10302   */\n      0x40\n        /* \"#utility.yul\":10294:10303   */\n      mload\n        /* \"#utility.yul\":10284:10303   */\n      swap1\n      pop\n        /* \"#utility.yul\":10234:10309   */\n      swap1\n      jump\t// out\n        /* \"#utility.yul\":10315:10623   */\n    tag_110:\n        /* \"#utility.yul\":10377:10381   */\n      0x00\n        /* \"#utility.yul\":10467:10485   */\n      0xffffffffffffffff\n        /* \"#utility.yul\":10459:10465   */\n      dup3\n        /* \"#utility.yul\":10456:10486   */\n      gt\n        /* \"#utility.yul\":10453:10509   */\n      iszero\n      tag_232\n      jumpi\n        /* \"#utility.yul\":10489:10507   */\n      tag_233\n      tag_60\n      jump\t// in\n    tag_233:\n        /* \"#utility.yul\":10453:10509   */\n    tag_232:\n        /* \"#utility.yul\":10527:10556   */\n      tag_234\n        /* \"#utility.yul\":10549:10555   */\n      dup3\n        /* \"#utility.yul\":10527:10556   */\n      tag_202\n      jump\t// in\n    tag_234:\n        /* \"#utility.yul\":10519:10556   */\n      swap1\n      pop\n        /* \"#utility.yul\":10611:10615   */\n      0x20\n        /* \"#utility.yul\":10605:10609   */\n      dup2\n        /* \"#utility.yul\":10601:10616   */\n      add\n        /* \"#utility.yul\":10593:10616   */\n      swap1\n      pop\n        /* \"#utility.yul\":10315:10623   */\n      swap2\n      swap1\n      pop\n      jump\t// out\n        /* \"#utility.yul\":10629:10783   */\n    tag_172:\n        /* \"#utility.yul\":10718:10722   */\n      0x00\n        /* \"#utility.yul\":10741:10744   */\n      dup2\n        /* \"#utility.yul\":10733:10744   */\n      swap1\n      pop\n        /* \"#utility.yul\":10771:10775   */\n      0x20\n        /* \"#utility.yul\":10766:10769   */\n      dup3\n        /* \"#utility.yul\":10762:10776   */\n      add\n        /* \"#utility.yul\":10754:10776   */\n      swap1\n      pop\n        /* \"#utility.yul\":10629:10783   */\n      swap2\n      swap1\n      pop\n      jump\t// out\n        /* \"#utility.yul\":10789:10945   */\n    tag_186:\n        /* \"#utility.yul\":10880:10884   */\n      0x00\n        /* \"#utility.yul\":10903:10906   */\n      dup2\n        /* \"#utility.yul\":10895:10906   */\n      swap1\n      pop\n        /* \"#utility.yul\":10933:10937   */\n      0x20\n        /* \"#utility.yul\":10928:10931   */\n      dup3\n        /* \"#utility.yul\":10924:10938   */\n      add\n        /* \"#utility.yul\":10916:10938   */\n      swap1\n      pop\n        /* \"#utility.yul\":10789:10945   */\n      swap2\n      swap1\n      pop\n      jump\t// out\n        /* \"#utility.yul\":10951:11087   */\n    tag_168:\n        /* \"#utility.yul\":11040:11046   */\n      0x00\n        /* \"#utility.yul\":11074:11079   */\n      dup2\n        /* \"#utility.yul\":11068:11080   */\n      mload\n        /* \"#utility.yul\":11058:11080   */\n      swap1\n      pop\n        /* \"#utility.yul\":10951:11087   */\n      swap2\n      swap1\n      pop\n      jump\t// out\n        /* \"#utility.yul\":11093:11231   */\n    tag_182:\n        /* \"#utility.yul\":11184:11190   */\n      0x00\n        /* \"#utility.yul\":11218:11223   */\n      dup2\n        /* \"#utility.yul\":11212:11224   */\n      mload\n        /* \"#utility.yul\":11202:11224   */\n      swap1\n      pop\n        /* \"#utility.yul\":11093:11231   */\n      swap2\n      swap1\n      pop\n      jump\t// out\n        /* \"#utility.yul\":11237:11336   */\n    tag_196:\n        /* \"#utility.yul\":11289:11295   */\n      0x00\n        /* \"#utility.yul\":11323:11328   */\n      dup2\n        /* \"#utility.yul\":11317:11329   */\n      mload\n        /* \"#utility.yul\":11307:11329   */\n      swap1\n      pop\n        /* \"#utility.yul\":11237:11336   */\n      swap2\n      swap1\n      pop\n      jump\t// out\n        /* \"#utility.yul\":11342:11477   */\n    tag_178:\n        /* \"#utility.yul\":11434:11438   */\n      0x00\n        /* \"#utility.yul\":11466:11470   */\n      0x20\n        /* \"#utility.yul\":11461:11464   */\n      dup3\n        /* \"#utility.yul\":11457:11471   */\n      add\n        /* \"#utility.yul\":11449:11471   */\n      swap1\n      pop\n        /* \"#utility.yul\":11342:11477   */\n      swap2\n      swap1\n      pop\n      jump\t// out\n        /* \"#utility.yul\":11483:11620   */\n    tag_192:\n        /* \"#utility.yul\":11577:11581   */\n      0x00\n        /* \"#utility.yul\":11609:11613   */\n      0x20\n        /* \"#utility.yul\":11604:11607   */\n      dup3\n        /* \"#utility.yul\":11600:11614   */\n      add\n        /* \"#utility.yul\":11592:11614   */\n      swap1\n      pop\n        /* \"#utility.yul\":11483:11620   */\n      swap2\n      swap1\n      pop\n      jump\t// out\n        /* \"#utility.yul\":11626:11832   */\n    tag_170:\n        /* \"#utility.yul\":11747:11758   */\n      0x00\n        /* \"#utility.yul\":11781:11787   */\n      dup3\n        /* \"#utility.yul\":11776:11779   */\n      dup3\n        /* \"#utility.yul\":11769:11788   */\n      mstore\n        /* \"#utility.yul\":11821:11825   */\n      0x20\n        /* \"#utility.yul\":11816:11819   */\n      dup3\n        /* \"#utility.yul\":11812:11826   */\n      add\n        /* \"#utility.yul\":11797:11826   */\n      swap1\n      pop\n        /* \"#utility.yul\":11626:11832   */\n      swap3\n      swap2\n      pop\n      pop\n      jump\t// out\n        /* \"#utility.yul\":11838:12046   */\n    tag_184:\n        /* \"#utility.yul\":11961:11972   */\n      0x00\n        /* \"#utility.yul\":11995:12001   */\n      dup3\n        /* \"#utility.yul\":11990:11993   */\n      dup3\n        /* \"#utility.yul\":11983:12002   */\n      mstore\n        /* \"#utility.yul\":12035:12039   */\n      0x20\n        /* \"#utility.yul\":12030:12033   */\n      dup3\n        /* \"#utility.yul\":12026:12040   */\n      add\n        /* \"#utility.yul\":12011:12040   */\n      swap1\n      pop\n        /* \"#utility.yul\":11838:12046   */\n      swap3\n      swap2\n      pop\n      pop\n      jump\t// out\n        /* \"#utility.yul\":12052:12211   */\n    tag_198:\n        /* \"#utility.yul\":12126:12137   */\n      0x00\n        /* \"#utility.yul\":12160:12166   */\n      dup3\n        /* \"#utility.yul\":12155:12158   */\n      dup3\n        /* \"#utility.yul\":12148:12167   */\n      mstore\n        /* \"#utility.yul\":12200:12204   */\n      0x20\n        /* \"#utility.yul\":12195:12198   */\n      dup3\n        /* \"#utility.yul\":12191:12205   */\n      add\n        /* \"#utility.yul\":12176:12205   */\n      swap1\n      pop\n        /* \"#utility.yul\":12052:12211   */\n      swap3\n      swap2\n      pop\n      pop\n      jump\t// out\n        /* \"#utility.yul\":12217:12408   */\n    tag_55:\n        /* \"#utility.yul\":12257:12261   */\n      0x00\n        /* \"#utility.yul\":12277:12297   */\n      tag_246\n        /* \"#utility.yul\":12295:12296   */\n      dup3\n        /* \"#utility.yul\":12277:12297   */\n      tag_215\n      jump\t// in\n    tag_246:\n        /* \"#utility.yul\":12272:12297   */\n      swap2\n      pop\n        /* \"#utility.yul\":12311:12331   */\n      tag_247\n        /* \"#utility.yul\":12329:12330   */\n      dup4\n        /* \"#utility.yul\":12311:12331   */\n      tag_215\n      jump\t// in\n    tag_247:\n        /* \"#utility.yul\":12306:12331   */\n      swap3\n      pop\n        /* \"#utility.yul\":12350:12351   */\n      dup3\n        /* \"#utility.yul\":12347:12348   */\n      dup3\n        /* \"#utility.yul\":12344:12352   */\n      lt\n        /* \"#utility.yul\":12341:12375   */\n      iszero\n      tag_248\n      jumpi\n        /* \"#utility.yul\":12355:12373   */\n      tag_249\n      tag_250\n      jump\t// in\n    tag_249:\n        /* \"#utility.yul\":12341:12375   */\n    tag_248:\n        /* \"#utility.yul\":12400:12401   */\n      dup3\n        /* \"#utility.yul\":12397:12398   */\n      dup3\n        /* \"#utility.yul\":12393:12402   */\n      sub\n        /* \"#utility.yul\":12385:12402   */\n      swap1\n      pop\n        /* \"#utility.yul\":12217:12408   */\n      swap3\n      swap2\n      pop\n      pop\n      jump\t// out\n        /* \"#utility.yul\":12414:12491   */\n    tag_215:\n        /* \"#utility.yul\":12451:12458   */\n      0x00\n        /* \"#utility.yul\":12480:12485   */\n      dup2\n        /* \"#utility.yul\":12469:12485   */\n      swap1\n      pop\n        /* \"#utility.yul\":12414:12491   */\n      swap2\n      swap1\n      pop\n      jump\t// out\n        /* \"#utility.yul\":12497:12651   */\n    tag_116:\n        /* \"#utility.yul\":12581:12587   */\n      dup3\n        /* \"#utility.yul\":12576:12579   */\n      dup2\n        /* \"#utility.yul\":12571:12574   */\n      dup4\n        /* \"#utility.yul\":12558:12588   */\n      calldatacopy\n        /* \"#utility.yul\":12643:12644   */\n      0x00\n        /* \"#utility.yul\":12634:12640   */\n      dup4\n        /* \"#utility.yul\":12629:12632   */\n      dup4\n        /* \"#utility.yul\":12625:12641   */\n      add\n        /* \"#utility.yul\":12618:12645   */\n      mstore\n        /* \"#utility.yul\":12497:12651   */\n      pop\n      pop\n      pop\n      jump\t// out\n        /* \"#utility.yul\":12657:12964   */\n    tag_200:\n        /* \"#utility.yul\":12725:12726   */\n      0x00\n        /* \"#utility.yul\":12735:12848   */\n    tag_254:\n        /* \"#utility.yul\":12749:12755   */\n      dup4\n        /* \"#utility.yul\":12746:12747   */\n      dup2\n        /* \"#utility.yul\":12743:12756   */\n      lt\n        /* \"#utility.yul\":12735:12848   */\n      iszero\n      tag_256\n      jumpi\n        /* \"#utility.yul\":12834:12835   */\n      dup1\n        /* \"#utility.yul\":12829:12832   */\n      dup3\n        /* \"#utility.yul\":12825:12836   */\n      add\n        /* \"#utility.yul\":12819:12837   */\n      mload\n        /* \"#utility.yul\":12815:12816   */\n      dup2\n        /* \"#utility.yul\":12810:12813   */\n      dup5\n        /* \"#utility.yul\":12806:12817   */\n      add\n        /* \"#utility.yul\":12799:12838   */\n      mstore\n        /* \"#utility.yul\":12771:12773   */\n      0x20\n        /* \"#utility.yul\":12768:12769   */\n      dup2\n        /* \"#utility.yul\":12764:12774   */\n      add\n        /* \"#utility.yul\":12759:12774   */\n      swap1\n      pop\n        /* \"#utility.yul\":12735:12848   */\n      jump(tag_254)\n    tag_256:\n        /* \"#utility.yul\":12866:12872   */\n      dup4\n        /* \"#utility.yul\":12863:12864   */\n      dup2\n        /* \"#utility.yul\":12860:12873   */\n      gt\n        /* \"#utility.yul\":12857:12958   */\n      iszero\n      tag_257\n      jumpi\n        /* \"#utility.yul\":12946:12947   */\n      0x00\n        /* \"#utility.yul\":12937:12943   */\n      dup5\n        /* \"#utility.yul\":12932:12935   */\n      dup5\n        /* \"#utility.yul\":12928:12944   */\n      add\n        /* \"#utility.yul\":12921:12948   */\n      mstore\n        /* \"#utility.yul\":12857:12958   */\n    tag_257:\n        /* \"#utility.yul\":12706:12964   */\n      pop\n        /* \"#utility.yul\":12657:12964   */\n      pop\n      pop\n      pop\n      jump\t// out\n        /* \"#utility.yul\":12970:13290   */\n    tag_69:\n        /* \"#utility.yul\":13014:13020   */\n      0x00\n        /* \"#utility.yul\":13051:13052   */\n      0x02\n        /* \"#utility.yul\":13045:13049   */\n      dup3\n        /* \"#utility.yul\":13041:13053   */\n      div\n        /* \"#utility.yul\":13031:13053   */\n      swap1\n      pop\n        /* \"#utility.yul\":13098:13099   */\n      0x01\n        /* \"#utility.yul\":13092:13096   */\n      dup3\n        /* \"#utility.yul\":13088:13100   */\n      and\n        /* \"#utility.yul\":13119:13137   */\n      dup1\n        /* \"#utility.yul\":13109:13190   */\n      tag_259\n      jumpi\n        /* \"#utility.yul\":13175:13179   */\n      0x7f\n        /* \"#utility.yul\":13167:13173   */\n      dup3\n        /* \"#utility.yul\":13163:13180   */\n      and\n        /* \"#utility.yul\":13153:13180   */\n      swap2\n      pop\n        /* \"#utility.yul\":13109:13190   */\n    tag_259:\n        /* \"#utility.yul\":13237:13239   */\n      0x20\n        /* \"#utility.yul\":13229:13235   */\n      dup3\n        /* \"#utility.yul\":13226:13240   */\n      lt\n        /* \"#utility.yul\":13206:13224   */\n      dup2\n        /* \"#utility.yul\":13203:13241   */\n      eq\n        /* \"#utility.yul\":13200:13284   */\n      iszero\n      tag_260\n      jumpi\n        /* \"#utility.yul\":13256:13274   */\n      tag_261\n      tag_262\n      jump\t// in\n    tag_261:\n        /* \"#utility.yul\":13200:13284   */\n    tag_260:\n        /* \"#utility.yul\":13021:13290   */\n      pop\n        /* \"#utility.yul\":12970:13290   */\n      swap2\n      swap1\n      pop\n      jump\t// out\n        /* \"#utility.yul\":13296:13577   */\n    tag_229:\n        /* \"#utility.yul\":13379:13406   */\n      tag_264\n        /* \"#utility.yul\":13401:13405   */\n      dup3\n        /* \"#utility.yul\":13379:13406   */\n      tag_202\n      jump\t// in\n    tag_264:\n        /* \"#utility.yul\":13371:13377   */\n      dup2\n        /* \"#utility.yul\":13367:13407   */\n      add\n        /* \"#utility.yul\":13509:13515   */\n      dup2\n        /* \"#utility.yul\":13497:13507   */\n      dup2\n        /* \"#utility.yul\":13494:13516   */\n      lt\n        /* \"#utility.yul\":13473:13491   */\n      0xffffffffffffffff\n        /* \"#utility.yul\":13461:13471   */\n      dup3\n        /* \"#utility.yul\":13458:13492   */\n      gt\n        /* \"#utility.yul\":13455:13517   */\n      or\n        /* \"#utility.yul\":13452:13540   */\n      iszero\n      tag_265\n      jumpi\n        /* \"#utility.yul\":13520:13538   */\n      tag_266\n      tag_60\n      jump\t// in\n    tag_266:\n        /* \"#utility.yul\":13452:13540   */\n    tag_265:\n        /* \"#utility.yul\":13560:13570   */\n      dup1\n        /* \"#utility.yul\":13556:13558   */\n      0x40\n        /* \"#utility.yul\":13549:13571   */\n      mstore\n        /* \"#utility.yul\":13339:13577   */\n      pop\n        /* \"#utility.yul\":13296:13577   */\n      pop\n      pop\n      jump\t// out\n        /* \"#utility.yul\":13583:13816   */\n    tag_50:\n        /* \"#utility.yul\":13622:13625   */\n      0x00\n        /* \"#utility.yul\":13645:13669   */\n      tag_268\n        /* \"#utility.yul\":13663:13668   */\n      dup3\n        /* \"#utility.yul\":13645:13669   */\n      tag_215\n      jump\t// in\n    tag_268:\n        /* \"#utility.yul\":13636:13669   */\n      swap2\n      pop\n        /* \"#utility.yul\":13691:13757   */\n      0xffffffffffffffffffffffffffffffffffffffffffffffffffffffffffffffff\n        /* \"#utility.yul\":13684:13689   */\n      dup3\n        /* \"#utility.yul\":13681:13758   */\n      eq\n        /* \"#utility.yul\":13678:13781   */\n      iszero\n      tag_269\n      jumpi\n        /* \"#utility.yul\":13761:13779   */\n      tag_270\n      tag_250\n      jump\t// in\n    tag_270:\n        /* \"#utility.yul\":13678:13781   */\n    tag_269:\n        /* \"#utility.yul\":13808:13809   */\n      0x01\n        /* \"#utility.yul\":13801:13806   */\n      dup3\n        /* \"#utility.yul\":13797:13810   */\n      add\n        /* \"#utility.yul\":13790:13810   */\n      swap1\n      pop\n        /* \"#utility.yul\":13583:13816   */\n      swap2\n      swap1\n      pop\n      jump\t// out\n        /* \"#utility.yul\":13822:14002   */\n    tag_250:\n        /* \"#utility.yul\":13870:13947   */\n      0x4e487b7100000000000000000000000000000000000000000000000000000000\n        /* \"#utility.yul\":13867:13868   */\n      0x00\n        /* \"#utility.yul\":13860:13948   */\n      mstore\n        /* \"#utility.yul\":13967:13971   */\n      0x11\n        /* \"#utility.yul\":13964:13965   */\n      0x04\n        /* \"#utility.yul\":13957:13972   */\n      mstore\n        /* \"#utility.yul\":13991:13995   */\n      0x24\n        /* \"#utility.yul\":13988:13989   */\n      0x00\n        /* \"#utility.yul\":13981:13996   */\n      revert\n        /* \"#utility.yul\":14008:14188   */\n    tag_262:\n        /* \"#utility.yul\":14056:14133   */\n      0x4e487b7100000000000000000000000000000000000000000000000000000000\n        /* \"#utility.yul\":14053:14054   */\n      0x00\n        /* \"#utility.yul\":14046:14134   */\n      mstore\n        /* \"#utility.yul\":14153:14157   */\n      0x22\n        /* \"#utility.yul\":14150:14151   */\n      0x04\n        /* \"#utility.yul\":14143:14158   */\n      mstore\n        /* \"#utility.yul\":14177:14181   */\n      0x24\n        /* \"#utility.yul\":14174:14175   */\n      0x00\n        /* \"#utility.yul\":14167:14182   */\n      revert\n        /* \"#utility.yul\":14194:14374   */\n    tag_76:\n        /* \"#utility.yul\":14242:14319   */\n      0x4e487b7100000000000000000000000000000000000000000000000000000000\n        /* \"#utility.yul\":14239:14240   */\n      0x00\n        /* \"#utility.yul\":14232:14320   */\n      mstore\n        /* \"#utility.yul\":14339:14343   */\n      0x32\n        /* \"#utility.yul\":14336:14337   */\n      0x04\n        /* \"#utility.yul\":14329:14344   */\n      mstore\n        /* \"#utility.yul\":14363:14367   */\n      0x24\n        /* \"#utility.yul\":14360:14361   */\n      0x00\n        /* \"#utility.yul\":14353:14368   */\n      revert\n        /* \"#utility.yul\":14380:14560   */\n    tag_60:\n        /* \"#utility.yul\":14428:14505   */\n      0x4e487b7100000000000000000000000000000000000000000000000000000000\n        /* \"#utility.yul\":14425:14426   */\n      0x00\n        /* \"#utility.yul\":14418:14506   */\n      mstore\n        /* \"#utility.yul\":14525:14529   */\n      0x41\n        /* \"#utility.yul\":14522:14523   */\n      0x04\n        /* \"#utility.yul\":14515:14530   */\n      mstore\n        /* \"#utility.yul\":14549:14553   */\n      0x24\n        /* \"#utility.yul\":14546:14547   */\n      0x00\n        /* \"#utility.yul\":14539:14554   */\n      revert\n        /* \"#utility.yul\":14566:14683   */\n    tag_121:\n        /* \"#utility.yul\":14675:14676   */\n      0x00\n        /* \"#utility.yul\":14672:14673   */\n      dup1\n        /* \"#utility.yul\":14665:14677   */\n      revert\n        /* \"#utility.yul\":14689:14806   */\n    tag_114:\n        /* \"#utility.yul\":14798:14799   */\n      0x00\n        /* \"#utility.yul\":14795:14796   */\n      dup1\n        /* \"#utility.yul\":14788:14800   */\n      revert\n        /* \"#utility.yul\":14812:14929   */\n    tag_133:\n        /* \"#utility.yul\":14921:14922   */\n      0x00\n        /* \"#utility.yul\":14918:14919   */\n      dup1\n        /* \"#utility.yul\":14911:14923   */\n      revert\n        /* \"#utility.yul\":14935:15052   */\n    tag_130:\n        /* \"#utility.yul\":15044:15045   */\n      0x00\n        /* \"#utility.yul\":15041:15042   */\n      dup1\n        /* \"#utility.yul\":15034:15046   */\n      revert\n        /* \"#utility.yul\":15058:15160   */\n    tag_202:\n        /* \"#utility.yul\":15099:15105   */\n      0x00\n        /* \"#utility.yul\":15150:15152   */\n      0x1f\n        /* \"#utility.yul\":15146:15153   */\n      not\n        /* \"#utility.yul\":15141:15143   */\n      0x1f\n        /* \"#utility.yul\":15134:15139   */\n      dup4\n        /* \"#utility.yul\":15130:15144   */\n      add\n        /* \"#utility.yul\":15126:15154   */\n      and\n        /* \"#utility.yul\":15116:15154   */\n      swap1\n      pop\n        /* \"#utility.yul\":15058:15160   */\n      swap2\n      swap1\n      pop\n      jump\t// out\n        /* \"#utility.yul\":15166:15288   */\n    tag_126:\n        /* \"#utility.yul\":15239:15263   */\n      tag_281\n        /* \"#utility.yul\":15257:15262   */\n      dup2\n        /* \"#utility.yul\":15239:15263   */\n      tag_215\n      jump\t// in\n    tag_281:\n        /* \"#utility.yul\":15232:15237   */\n      dup2\n        /* \"#utility.yul\":15229:15264   */\n      eq\n        /* \"#utility.yul\":15219:15282   */\n      tag_282\n      jumpi\n        /* \"#utility.yul\":15278:15279   */\n      0x00\n        /* \"#utility.yul\":15275:15276   */\n      dup1\n        /* \"#utility.yul\":15268:15280   */\n      revert\n        /* \"#utility.yul\":15219:15282   */\n    tag_282:\n        /* \"#utility.yul\":15166:15288   */\n      pop\n      jump\t// out\n\n    auxdata: 0xa2646970667358221220040cff6f331d5671433e2c28205f5993a8a384f8ab515ab391b9569b8ea556c764736f6c63430008070033\n}\n",
				"bytecode": {
					"linkReferences": {},
					"object": "6080604052600060015534801561001557600080fd5b50611028806100256000396000f3fe608060405234801561001057600080fd5b50600436106100885760003560e01c80638ec083541161005b5780638ec083541461014d578063a1bbfc051461016b578063a901d15c14610187578063ea57d5d4146101a357610088565b8063186dd0661461008d5780635ea81a32146100bd5780638915b3fb146100ed5780638c8e54fb1461011d575b600080fd5b6100a760048036038101906100a29190610970565b6101bf565b6040516100b49190610ccf565b60405180910390f35b6100d760048036038101906100d291906108f8565b6101de565b6040516100e49190610ccf565b60405180910390f35b61010760048036038101906101029190610970565b6102de565b6040516101149190610c8b565b60405180910390f35b61013760048036038101906101329190610970565b610475565b6040516101449190610ccf565b60405180910390f35b610155610494565b6040516101629190610cad565b60405180910390f35b610185600480360381019061018091906109f9565b6104a1565b005b6101a1600480360381019061019c9190610970565b610619565b005b6101bd60048036038101906101b8919061099d565b6106bf565b005b6000806000838152602001908152602001600020600601549050919050565b600080600080600160008154809291906101f790610eb1565b9190505581526020019081526020016000209050838160000190805190602001906102239291906107b6565b508281600101908051906020019061023c9291906107b6565b5060008160020181905550338160030160006101000a81548173ffffffffffffffffffffffffffffffffffffffff021916908373ffffffffffffffffffffffffffffffffffffffff1602179055506000816006018190555060008160070160006101000a81548160ff021916908315150217905550600180546102bf9190610dce565b8160080181905550600180546102d59190610dce565b91505092915050565b606060008060008481526020019081526020016000206006015467ffffffffffffffff81111561031157610310610f87565b5b60405190808252806020026020018201604052801561034a57816020015b61033761083c565b81526020019060019003908161032f5790505b50905060005b6000808581526020019081526020016000206006015481101561046b5760008085815260200190815260200160002060050160008281526020019081526020016000206040518060400160405290816000820180546103ae90610e4e565b80601f01602080910402602001604051908101604052809291908181526020018280546103da90610e4e565b80156104275780601f106103fc57610100808354040283529160200191610427565b820191906000526020600020905b81548152906001019060200180831161040a57829003601f168201915b5050505050815260200160018201548152505082828151811061044d5761044c610f58565b5b6020026020010181905250808061046390610eb1565b915050610350565b5080915050919050565b6000806000838152602001908152602001600020600201549050919050565b6060806000819250505090565b8260008082815260200190815260200160002060040160003373ffffffffffffffffffffffffffffffffffffffff1673ffffffffffffffffffffffffffffffffffffffff16815260200190815260200160002060020160009054906101000a900460ff161561050f57600080fd5b6000806000868152602001908152602001600020905060008160040160003373ffffffffffffffffffffffffffffffffffffffff1673ffffffffffffffffffffffffffffffffffffffff16815260200190815260200160002090506000826005016000878152602001908152602001600020905082600201600081548092919061059890610eb1565b9190505550848260000190805190602001906105b59291906107b6565b508582600101819055508160030160008154809291906105d490610eb1565b919050555060018260020160006101000a81548160ff02191690831515021790555080600101600081548092919061060b90610eb1565b919050555050505050505050565b8060008082815260200190815260200160002060030160009054906101000a900473ffffffffffffffffffffffffffffffffffffffff1673ffffffffffffffffffffffffffffffffffffffff163373ffffffffffffffffffffffffffffffffffffffff161461068757600080fd5b6000806000848152602001908152602001600020905060018160070160006101000a81548160ff021916908315150217905550505050565b8160008082815260200190815260200160002060030160009054906101000a900473ffffffffffffffffffffffffffffffffffffffff1673ffffffffffffffffffffffffffffffffffffffff163373ffffffffffffffffffffffffffffffffffffffff161461072d57600080fd5b600080600085815260200190815260200160002090506040518060400160405280848152602001600081525081600501600083600601600081548092919061077490610eb1565b91905055815260200190815260200160002060008201518160000190805190602001906107a29291906107b6565b506020820151816001015590505050505050565b8280546107c290610e4e565b90600052602060002090601f0160209004810192826107e4576000855561082b565b82601f106107fd57805160ff191683800117855561082b565b8280016001018555821561082b579182015b8281111561082a57825182559160200191906001019061080f565b5b5090506108389190610856565b5090565b604051806040016040528060608152602001600081525090565b5b8082111561086f576000816000905550600101610857565b5090565b600061088661088184610d0f565b610cea565b9050828152602081018484840111156108a2576108a1610fbb565b5b6108ad848285610e0c565b509392505050565b600082601f8301126108ca576108c9610fb6565b5b81356108da848260208601610873565b91505092915050565b6000813590506108f281610fdb565b92915050565b6000806040838503121561090f5761090e610fc5565b5b600083013567ffffffffffffffff81111561092d5761092c610fc0565b5b610939858286016108b5565b925050602083013567ffffffffffffffff81111561095a57610959610fc0565b5b610966858286016108b5565b9150509250929050565b60006020828403121561098657610985610fc5565b5b6000610994848285016108e3565b91505092915050565b600080604083850312156109b4576109b3610fc5565b5b60006109c2858286016108e3565b925050602083013567ffffffffffffffff8111156109e3576109e2610fc0565b5b6109ef858286016108b5565b9150509250929050565b600080600060608486031215610a1257610a11610fc5565b5b6000610a20868287016108e3565b9350506020610a31868287016108e3565b925050604084013567ffffffffffffffff811115610a5257610a51610fc0565b5b610a5e868287016108b5565b9150509250925092565b6000610a748383610bb3565b905092915050565b6000610a888383610bf0565b905092915050565b6000610a9b82610d60565b610aa58185610d9b565b935083602082028501610ab785610d40565b8060005b85811015610af35784840389528151610ad48582610a68565b9450610adf83610d81565b925060208a01995050600181019050610abb565b50829750879550505050505092915050565b6000610b1082610d6b565b610b1a8185610dac565b935083602082028501610b2c85610d50565b8060005b85811015610b685784840389528151610b498582610a7c565b9450610b5483610d8e565b925060208a01995050600181019050610b30565b50829750879550505050505092915050565b6000610b8582610d76565b610b8f8185610dbd565b9350610b9f818560208601610e1b565b610ba881610fca565b840191505092915050565b60006040830160008301518482036000860152610bd08282610b7a565b9150506020830151610be56020860182610c6d565b508091505092915050565b600060a0830160008301518482036000860152610c0d8282610b7a565b91505060208301518482036020860152610c278282610b7a565b9150506040830151610c3c6040860182610c6d565b506060830151610c4f6060860182610c6d565b506080830151610c626080860182610c6d565b508091505092915050565b610c7681610e02565b82525050565b610c8581610e02565b82525050565b60006020820190508181036000830152610ca58184610a90565b905092915050565b60006020820190508181036000830152610cc78184610b05565b905092915050565b6000602082019050610ce46000830184610c7c565b92915050565b6000610cf4610d05565b9050610d008282610e80565b919050565b6000604051905090565b600067ffffffffffffffff821115610d2a57610d29610f87565b5b610d3382610fca565b9050602081019050919050565b6000819050602082019050919050565b6000819050602082019050919050565b600081519050919050565b600081519050919050565b600081519050919050565b6000602082019050919050565b6000602082019050919050565b600082825260208201905092915050565b600082825260208201905092915050565b600082825260208201905092915050565b6000610dd982610e02565b9150610de483610e02565b925082821015610df757610df6610efa565b5b828203905092915050565b6000819050919050565b82818337600083830152505050565b60005b83811015610e39578082015181840152602081019050610e1e565b83811115610e48576000848401525b50505050565b60006002820490506001821680610e6657607f821691505b60208210811415610e7a57610e79610f29565b5b50919050565b610e8982610fca565b810181811067ffffffffffffffff82111715610ea857610ea7610f87565b5b80604052505050565b6000610ebc82610e02565b91507fffffffffffffffffffffffffffffffffffffffffffffffffffffffffffffffff821415610eef57610eee610efa565b5b600182019050919050565b7f4e487b7100000000000000000000000000000000000000000000000000000000600052601160045260246000fd5b7f4e487b7100000000000000000000000000000000000000000000000000000000600052602260045260246000fd5b7f4e487b7100000000000000000000000000000000000000000000000000000000600052603260045260246000fd5b7f4e487b7100000000000000000000000000000000000000000000000000000000600052604160045260246000fd5b600080fd5b600080fd5b600080fd5b600080fd5b6000601f19601f8301169050919050565b610fe481610e02565b8114610fef57600080fd5b5056fea2646970667358221220040cff6f331d5671433e2c28205f5993a8a384f8ab515ab391b9569b8ea556c764736f6c63430008070033",
					"opcodes": "PUSH1 0x80 PUSH1 0x40 MSTORE PUSH1 0x0 PUSH1 0x1 SSTORE CALLVALUE DUP1 ISZERO PUSH2 0x15 JUMPI PUSH1 0x0 DUP1 REVERT JUMPDEST POP PUSH2 0x1028 DUP1 PUSH2 0x25 PUSH1 0x0 CODECOPY PUSH1 0x0 RETURN INVALID PUSH1 0x80 PUSH1 0x40 MSTORE CALLVALUE DUP1 ISZERO PUSH2 0x10 JUMPI PUSH1 0x0 DUP1 REVERT JUMPDEST POP PUSH1 0x4 CALLDATASIZE LT PUSH2 0x88 JUMPI PUSH1 0x0 CALLDATALOAD PUSH1 0xE0 SHR DUP1 PUSH4 0x8EC08354 GT PUSH2 0x5B JUMPI DUP1 PUSH4 0x8EC08354 EQ PUSH2 0x14D JUMPI DUP1 PUSH4 0xA1BBFC05 EQ PUSH2 0x16B JUMPI DUP1 PUSH4 0xA901D15C EQ PUSH2 0x187 JUMPI DUP1 PUSH4 0xEA57D5D4 EQ PUSH2 0x1A3 JUMPI PUSH2 0x88 JUMP JUMPDEST DUP1 PUSH4 0x186DD066 EQ PUSH2 0x8D JUMPI DUP1 PUSH4 0x5EA81A32 EQ PUSH2 0xBD JUMPI DUP1 PUSH4 0x8915B3FB EQ PUSH2 0xED JUMPI DUP1 PUSH4 0x8C8E54FB EQ PUSH2 0x11D JUMPI JUMPDEST PUSH1 0x0 DUP1 REVERT JUMPDEST PUSH2 0xA7 PUSH1 0x4 DUP1 CALLDATASIZE SUB DUP2 ADD SWAP1 PUSH2 0xA2 SWAP2 SWAP1 PUSH2 0x970 JUMP JUMPDEST PUSH2 0x1BF JUMP JUMPDEST PUSH1 0x40 MLOAD PUSH2 0xB4 SWAP2 SWAP1 PUSH2 0xCCF JUMP JUMPDEST PUSH1 0x40 MLOAD DUP1 SWAP2 SUB SWAP1 RETURN JUMPDEST PUSH2 0xD7 PUSH1 0x4 DUP1 CALLDATASIZE SUB DUP2 ADD SWAP1 PUSH2 0xD2 SWAP2 SWAP1 PUSH2 0x8F8 JUMP JUMPDEST PUSH2 0x1DE JUMP JUMPDEST PUSH1 0x40 MLOAD PUSH2 0xE4 SWAP2 SWAP1 PUSH2 0xCCF JUMP JUMPDEST PUSH1 0x40 MLOAD DUP1 SWAP2 SUB SWAP1 RETURN JUMPDEST PUSH2 0x107 PUSH1 0x4 DUP1 CALLDATASIZE SUB DUP2 ADD SWAP1 PUSH2 0x102 SWAP2 SWAP1 PUSH2 0x970 JUMP JUMPDEST PUSH2 0x2DE JUMP JUMPDEST PUSH1 0x40 MLOAD PUSH2 0x114 SWAP2 SWAP1 PUSH2 0xC8B JUMP JUMPDEST PUSH1 0x40 MLOAD DUP1 SWAP2 SUB SWAP1 RETURN JUMPDEST PUSH2 0x137 PUSH1 0x4 DUP1 CALLDATASIZE SUB DUP2 ADD SWAP1 PUSH2 0x132 SWAP2 SWAP1 PUSH2 0x970 JUMP JUMPDEST PUSH2 0x475 JUMP JUMPDEST PUSH1 0x40 MLOAD PUSH2 0x144 SWAP2 SWAP1 PUSH2 0xCCF JUMP JUMPDEST PUSH1 0x40 MLOAD DUP1 SWAP2 SUB SWAP1 RETURN JUMPDEST PUSH2 0x155 PUSH2 0x494 JUMP JUMPDEST PUSH1 0x40 MLOAD PUSH2 0x162 SWAP2 SWAP1 PUSH2 0xCAD JUMP JUMPDEST PUSH1 0x40 MLOAD DUP1 SWAP2 SUB SWAP1 RETURN JUMPDEST PUSH2 0x185 PUSH1 0x4 DUP1 CALLDATASIZE SUB DUP2 ADD SWAP1 PUSH2 0x180 SWAP2 SWAP1 PUSH2 0x9F9 JUMP JUMPDEST PUSH2 0x4A1 JUMP JUMPDEST STOP JUMPDEST PUSH2 0x1A1 PUSH1 0x4 DUP1 CALLDATASIZE SUB DUP2 ADD SWAP1 PUSH2 0x19C SWAP2 SWAP1 PUSH2 0x970 JUMP JUMPDEST PUSH2 0x619 JUMP JUMPDEST STOP JUMPDEST PUSH2 0x1BD PUSH1 0x4 DUP1 CALLDATASIZE SUB DUP2 ADD SWAP1 PUSH2 0x1B8 SWAP2 SWAP1 PUSH2 0x99D JUMP JUMPDEST PUSH2 0x6BF JUMP JUMPDEST STOP JUMPDEST PUSH1 0x0 DUP1 PUSH1 0x0 DUP4 DUP2 MSTORE PUSH1 0x20 ADD SWAP1 DUP2 MSTORE PUSH1 0x20 ADD PUSH1 0x0 KECCAK256 PUSH1 0x6 ADD SLOAD SWAP1 POP SWAP2 SWAP1 POP JUMP JUMPDEST PUSH1 0x0 DUP1 PUSH1 0x0 DUP1 PUSH1 0x1 PUSH1 0x0 DUP2 SLOAD DUP1 SWAP3 SWAP2 SWAP1 PUSH2 0x1F7 SWAP1 PUSH2 0xEB1 JUMP JUMPDEST SWAP2 SWAP1 POP SSTORE DUP2 MSTORE PUSH1 0x20 ADD SWAP1 DUP2 MSTORE PUSH1 0x20 ADD PUSH1 0x0 KECCAK256 SWAP1 POP DUP4 DUP2 PUSH1 0x0 ADD SWAP1 DUP1 MLOAD SWAP1 PUSH1 0x20 ADD SWAP1 PUSH2 0x223 SWAP3 SWAP2 SWAP1 PUSH2 0x7B6 JUMP JUMPDEST POP DUP3 DUP2 PUSH1 0x1 ADD SWAP1 DUP1 MLOAD SWAP1 PUSH1 0x20 ADD SWAP1 PUSH2 0x23C SWAP3 SWAP2 SWAP1 PUSH2 0x7B6 JUMP JUMPDEST POP PUSH1 0x0 DUP2 PUSH1 0x2 ADD DUP2 SWAP1 SSTORE POP CALLER DUP2 PUSH1 0x3 ADD PUSH1 0x0 PUSH2 0x100 EXP DUP2 SLOAD DUP2 PUSH20 0xFFFFFFFFFFFFFFFFFFFFFFFFFFFFFFFFFFFFFFFF MUL NOT AND SWAP1 DUP4 PUSH20 0xFFFFFFFFFFFFFFFFFFFFFFFFFFFFFFFFFFFFFFFF AND MUL OR SWAP1 SSTORE POP PUSH1 0x0 DUP2 PUSH1 0x6 ADD DUP2 SWAP1 SSTORE POP PUSH1 0x0 DUP2 PUSH1 0x7 ADD PUSH1 0x0 PUSH2 0x100 EXP DUP2 SLOAD DUP2 PUSH1 0xFF MUL NOT AND SWAP1 DUP4 ISZERO ISZERO MUL OR SWAP1 SSTORE POP PUSH1 0x1 DUP1 SLOAD PUSH2 0x2BF SWAP2 SWAP1 PUSH2 0xDCE JUMP JUMPDEST DUP2 PUSH1 0x8 ADD DUP2 SWAP1 SSTORE POP PUSH1 0x1 DUP1 SLOAD PUSH2 0x2D5 SWAP2 SWAP1 PUSH2 0xDCE JUMP JUMPDEST SWAP2 POP POP SWAP3 SWAP2 POP POP JUMP JUMPDEST PUSH1 0x60 PUSH1 0x0 DUP1 PUSH1 0x0 DUP5 DUP2 MSTORE PUSH1 0x20 ADD SWAP1 DUP2 MSTORE PUSH1 0x20 ADD PUSH1 0x0 KECCAK256 PUSH1 0x6 ADD SLOAD PUSH8 0xFFFFFFFFFFFFFFFF DUP2 GT ISZERO PUSH2 0x311 JUMPI PUSH2 0x310 PUSH2 0xF87 JUMP JUMPDEST JUMPDEST PUSH1 0x40 MLOAD SWAP1 DUP1 DUP3 MSTORE DUP1 PUSH1 0x20 MUL PUSH1 0x20 ADD DUP3 ADD PUSH1 0x40 MSTORE DUP1 ISZERO PUSH2 0x34A JUMPI DUP2 PUSH1 0x20 ADD JUMPDEST PUSH2 0x337 PUSH2 0x83C JUMP JUMPDEST DUP2 MSTORE PUSH1 0x20 ADD SWAP1 PUSH1 0x1 SWAP1 SUB SWAP1 DUP2 PUSH2 0x32F JUMPI SWAP1 POP JUMPDEST POP SWAP1 POP PUSH1 0x0 JUMPDEST PUSH1 0x0 DUP1 DUP6 DUP2 MSTORE PUSH1 0x20 ADD SWAP1 DUP2 MSTORE PUSH1 0x20 ADD PUSH1 0x0 KECCAK256 PUSH1 0x6 ADD SLOAD DUP2 LT ISZERO PUSH2 0x46B JUMPI PUSH1 0x0 DUP1 DUP6 DUP2 MSTORE PUSH1 0x20 ADD SWAP1 DUP2 MSTORE PUSH1 0x20 ADD PUSH1 0x0 KECCAK256 PUSH1 0x5 ADD PUSH1 0x0 DUP3 DUP2 MSTORE PUSH1 0x20 ADD SWAP1 DUP2 MSTORE PUSH1 0x20 ADD PUSH1 0x0 KECCAK256 PUSH1 0x40 MLOAD DUP1 PUSH1 0x40 ADD PUSH1 0x40 MSTORE SWAP1 DUP2 PUSH1 0x0 DUP3 ADD DUP1 SLOAD PUSH2 0x3AE SWAP1 PUSH2 0xE4E JUMP JUMPDEST DUP1 PUSH1 0x1F ADD PUSH1 0x20 DUP1 SWAP2 DIV MUL PUSH1 0x20 ADD PUSH1 0x40 MLOAD SWAP1 DUP2 ADD PUSH1 0x40 MSTORE DUP1 SWAP3 SWAP2 SWAP1 DUP2 DUP2 MSTORE PUSH1 0x20 ADD DUP3 DUP1 SLOAD PUSH2 0x3DA SWAP1 PUSH2 0xE4E JUMP JUMPDEST DUP1 ISZERO PUSH2 0x427 JUMPI DUP1 PUSH1 0x1F LT PUSH2 0x3FC JUMPI PUSH2 0x100 DUP1 DUP4 SLOAD DIV MUL DUP4 MSTORE SWAP2 PUSH1 0x20 ADD SWAP2 PUSH2 0x427 JUMP JUMPDEST DUP3 ADD SWAP2 SWAP1 PUSH1 0x0 MSTORE PUSH1 0x20 PUSH1 0x0 KECCAK256 SWAP1 JUMPDEST DUP2 SLOAD DUP2 MSTORE SWAP1 PUSH1 0x1 ADD SWAP1 PUSH1 0x20 ADD DUP1 DUP4 GT PUSH2 0x40A JUMPI DUP3 SWAP1 SUB PUSH1 0x1F AND DUP3 ADD SWAP2 JUMPDEST POP POP POP POP POP DUP2 MSTORE PUSH1 0x20 ADD PUSH1 0x1 DUP3 ADD SLOAD DUP2 MSTORE POP POP DUP3 DUP3 DUP2 MLOAD DUP2 LT PUSH2 0x44D JUMPI PUSH2 0x44C PUSH2 0xF58 JUMP JUMPDEST JUMPDEST PUSH1 0x20 MUL PUSH1 0x20 ADD ADD DUP2 SWAP1 MSTORE POP DUP1 DUP1 PUSH2 0x463 SWAP1 PUSH2 0xEB1 JUMP JUMPDEST SWAP2 POP POP PUSH2 0x350 JUMP JUMPDEST POP DUP1 SWAP2 POP POP SWAP2 SWAP1 POP JUMP JUMPDEST PUSH1 0x0 DUP1 PUSH1 0x0 DUP4 DUP2 MSTORE PUSH1 0x20 ADD SWAP1 DUP2 MSTORE PUSH1 0x20 ADD PUSH1 0x0 KECCAK256 PUSH1 0x2 ADD SLOAD SWAP1 POP SWAP2 SWAP1 POP JUMP JUMPDEST PUSH1 0x60 DUP1 PUSH1 0x0 DUP2 SWAP3 POP POP POP SWAP1 JUMP JUMPDEST DUP3 PUSH1 0x0 DUP1 DUP3 DUP2 MSTORE PUSH1 0x20 ADD SWAP1 DUP2 MSTORE PUSH1 0x20 ADD PUSH1 0x0 KECCAK256 PUSH1 0x4 ADD PUSH1 0x0 CALLER PUSH20 0xFFFFFFFFFFFFFFFFFFFFFFFFFFFFFFFFFFFFFFFF AND PUSH20 0xFFFFFFFFFFFFFFFFFFFFFFFFFFFFFFFFFFFFFFFF AND DUP2 MSTORE PUSH1 0x20 ADD SWAP1 DUP2 MSTORE PUSH1 0x20 ADD PUSH1 0x0 KECCAK256 PUSH1 0x2 ADD PUSH1 0x0 SWAP1 SLOAD SWAP1 PUSH2 0x100 EXP SWAP1 DIV PUSH1 0xFF AND ISZERO PUSH2 0x50F JUMPI PUSH1 0x0 DUP1 REVERT JUMPDEST PUSH1 0x0 DUP1 PUSH1 0x0 DUP7 DUP2 MSTORE PUSH1 0x20 ADD SWAP1 DUP2 MSTORE PUSH1 0x20 ADD PUSH1 0x0 KECCAK256 SWAP1 POP PUSH1 0x0 DUP2 PUSH1 0x4 ADD PUSH1 0x0 CALLER PUSH20 0xFFFFFFFFFFFFFFFFFFFFFFFFFFFFFFFFFFFFFFFF AND PUSH20 0xFFFFFFFFFFFFFFFFFFFFFFFFFFFFFFFFFFFFFFFF AND DUP2 MSTORE PUSH1 0x20 ADD SWAP1 DUP2 MSTORE PUSH1 0x20 ADD PUSH1 0x0 KECCAK256 SWAP1 POP PUSH1 0x0 DUP3 PUSH1 0x5 ADD PUSH1 0x0 DUP8 DUP2 MSTORE PUSH1 0x20 ADD SWAP1 DUP2 MSTORE PUSH1 0x20 ADD PUSH1 0x0 KECCAK256 SWAP1 POP DUP3 PUSH1 0x2 ADD PUSH1 0x0 DUP2 SLOAD DUP1 SWAP3 SWAP2 SWAP1 PUSH2 0x598 SWAP1 PUSH2 0xEB1 JUMP JUMPDEST SWAP2 SWAP1 POP SSTORE POP DUP5 DUP3 PUSH1 0x0 ADD SWAP1 DUP1 MLOAD SWAP1 PUSH1 0x20 ADD SWAP1 PUSH2 0x5B5 SWAP3 SWAP2 SWAP1 PUSH2 0x7B6 JUMP JUMPDEST POP DUP6 DUP3 PUSH1 0x1 ADD DUP2 SWAP1 SSTORE POP DUP2 PUSH1 0x3 ADD PUSH1 0x0 DUP2 SLOAD DUP1 SWAP3 SWAP2 SWAP1 PUSH2 0x5D4 SWAP1 PUSH2 0xEB1 JUMP JUMPDEST SWAP2 SWAP1 POP SSTORE POP PUSH1 0x1 DUP3 PUSH1 0x2 ADD PUSH1 0x0 PUSH2 0x100 EXP DUP2 SLOAD DUP2 PUSH1 0xFF MUL NOT AND SWAP1 DUP4 ISZERO ISZERO MUL OR SWAP1 SSTORE POP DUP1 PUSH1 0x1 ADD PUSH1 0x0 DUP2 SLOAD DUP1 SWAP3 SWAP2 SWAP1 PUSH2 0x60B SWAP1 PUSH2 0xEB1 JUMP JUMPDEST SWAP2 SWAP1 POP SSTORE POP POP POP POP POP POP POP POP JUMP JUMPDEST DUP1 PUSH1 0x0 DUP1 DUP3 DUP2 MSTORE PUSH1 0x20 ADD SWAP1 DUP2 MSTORE PUSH1 0x20 ADD PUSH1 0x0 KECCAK256 PUSH1 0x3 ADD PUSH1 0x0 SWAP1 SLOAD SWAP1 PUSH2 0x100 EXP SWAP1 DIV PUSH20 0xFFFFFFFFFFFFFFFFFFFFFFFFFFFFFFFFFFFFFFFF AND PUSH20 0xFFFFFFFFFFFFFFFFFFFFFFFFFFFFFFFFFFFFFFFF AND CALLER PUSH20 0xFFFFFFFFFFFFFFFFFFFFFFFFFFFFFFFFFFFFFFFF AND EQ PUSH2 0x687 JUMPI PUSH1 0x0 DUP1 REVERT JUMPDEST PUSH1 0x0 DUP1 PUSH1 0x0 DUP5 DUP2 MSTORE PUSH1 0x20 ADD SWAP1 DUP2 MSTORE PUSH1 0x20 ADD PUSH1 0x0 KECCAK256 SWAP1 POP PUSH1 0x1 DUP2 PUSH1 0x7 ADD PUSH1 0x0 PUSH2 0x100 EXP DUP2 SLOAD DUP2 PUSH1 0xFF MUL NOT AND SWAP1 DUP4 ISZERO ISZERO MUL OR SWAP1 SSTORE POP POP POP POP JUMP JUMPDEST DUP2 PUSH1 0x0 DUP1 DUP3 DUP2 MSTORE PUSH1 0x20 ADD SWAP1 DUP2 MSTORE PUSH1 0x20 ADD PUSH1 0x0 KECCAK256 PUSH1 0x3 ADD PUSH1 0x0 SWAP1 SLOAD SWAP1 PUSH2 0x100 EXP SWAP1 DIV PUSH20 0xFFFFFFFFFFFFFFFFFFFFFFFFFFFFFFFFFFFFFFFF AND PUSH20 0xFFFFFFFFFFFFFFFFFFFFFFFFFFFFFFFFFFFFFFFF AND CALLER PUSH20 0xFFFFFFFFFFFFFFFFFFFFFFFFFFFFFFFFFFFFFFFF AND EQ PUSH2 0x72D JUMPI PUSH1 0x0 DUP1 REVERT JUMPDEST PUSH1 0x0 DUP1 PUSH1 0x0 DUP6 DUP2 MSTORE PUSH1 0x20 ADD SWAP1 DUP2 MSTORE PUSH1 0x20 ADD PUSH1 0x0 KECCAK256 SWAP1 POP PUSH1 0x40 MLOAD DUP1 PUSH1 0x40 ADD PUSH1 0x40 MSTORE DUP1 DUP5 DUP2 MSTORE PUSH1 0x20 ADD PUSH1 0x0 DUP2 MSTORE POP DUP2 PUSH1 0x5 ADD PUSH1 0x0 DUP4 PUSH1 0x6 ADD PUSH1 0x0 DUP2 SLOAD DUP1 SWAP3 SWAP2 SWAP1 PUSH2 0x774 SWAP1 PUSH2 0xEB1 JUMP JUMPDEST SWAP2 SWAP1 POP SSTORE DUP2 MSTORE PUSH1 0x20 ADD SWAP1 DUP2 MSTORE PUSH1 0x20 ADD PUSH1 0x0 KECCAK256 PUSH1 0x0 DUP3 ADD MLOAD DUP2 PUSH1 0x0 ADD SWAP1 DUP1 MLOAD SWAP1 PUSH1 0x20 ADD SWAP1 PUSH2 0x7A2 SWAP3 SWAP2 SWAP1 PUSH2 0x7B6 JUMP JUMPDEST POP PUSH1 0x20 DUP3 ADD MLOAD DUP2 PUSH1 0x1 ADD SSTORE SWAP1 POP POP POP POP POP POP JUMP JUMPDEST DUP3 DUP1 SLOAD PUSH2 0x7C2 SWAP1 PUSH2 0xE4E JUMP JUMPDEST SWAP1 PUSH1 0x0 MSTORE PUSH1 0x20 PUSH1 0x0 KECCAK256 SWAP1 PUSH1 0x1F ADD PUSH1 0x20 SWAP1 DIV DUP2 ADD SWAP3 DUP3 PUSH2 0x7E4 JUMPI PUSH1 0x0 DUP6 SSTORE PUSH2 0x82B JUMP JUMPDEST DUP3 PUSH1 0x1F LT PUSH2 0x7FD JUMPI DUP1 MLOAD PUSH1 0xFF NOT AND DUP4 DUP1 ADD OR DUP6 SSTORE PUSH2 0x82B JUMP JUMPDEST DUP3 DUP1 ADD PUSH1 0x1 ADD DUP6 SSTORE DUP3 ISZERO PUSH2 0x82B JUMPI SWAP2 DUP3 ADD JUMPDEST DUP3 DUP2 GT ISZERO PUSH2 0x82A JUMPI DUP3 MLOAD DUP3 SSTORE SWAP2 PUSH1 0x20 ADD SWAP2 SWAP1 PUSH1 0x1 ADD SWAP1 PUSH2 0x80F JUMP JUMPDEST JUMPDEST POP SWAP1 POP PUSH2 0x838 SWAP2 SWAP1 PUSH2 0x856 JUMP JUMPDEST POP SWAP1 JUMP JUMPDEST PUSH1 0x40 MLOAD DUP1 PUSH1 0x40 ADD PUSH1 0x40 MSTORE DUP1 PUSH1 0x60 DUP2 MSTORE PUSH1 0x20 ADD PUSH1 0x0 DUP2 MSTORE POP SWAP1 JUMP JUMPDEST JUMPDEST DUP1 DUP3 GT ISZERO PUSH2 0x86F JUMPI PUSH1 0x0 DUP2 PUSH1 0x0 SWAP1 SSTORE POP PUSH1 0x1 ADD PUSH2 0x857 JUMP JUMPDEST POP SWAP1 JUMP JUMPDEST PUSH1 0x0 PUSH2 0x886 PUSH2 0x881 DUP5 PUSH2 0xD0F JUMP JUMPDEST PUSH2 0xCEA JUMP JUMPDEST SWAP1 POP DUP3 DUP2 MSTORE PUSH1 0x20 DUP2 ADD DUP5 DUP5 DUP5 ADD GT ISZERO PUSH2 0x8A2 JUMPI PUSH2 0x8A1 PUSH2 0xFBB JUMP JUMPDEST JUMPDEST PUSH2 0x8AD DUP5 DUP3 DUP6 PUSH2 0xE0C JUMP JUMPDEST POP SWAP4 SWAP3 POP POP POP JUMP JUMPDEST PUSH1 0x0 DUP3 PUSH1 0x1F DUP4 ADD SLT PUSH2 0x8CA JUMPI PUSH2 0x8C9 PUSH2 0xFB6 JUMP JUMPDEST JUMPDEST DUP2 CALLDATALOAD PUSH2 0x8DA DUP5 DUP3 PUSH1 0x20 DUP7 ADD PUSH2 0x873 JUMP JUMPDEST SWAP2 POP POP SWAP3 SWAP2 POP POP JUMP JUMPDEST PUSH1 0x0 DUP2 CALLDATALOAD SWAP1 POP PUSH2 0x8F2 DUP2 PUSH2 0xFDB JUMP JUMPDEST SWAP3 SWAP2 POP POP JUMP JUMPDEST PUSH1 0x0 DUP1 PUSH1 0x40 DUP4 DUP6 SUB SLT ISZERO PUSH2 0x90F JUMPI PUSH2 0x90E PUSH2 0xFC5 JUMP JUMPDEST JUMPDEST PUSH1 0x0 DUP4 ADD CALLDATALOAD PUSH8 0xFFFFFFFFFFFFFFFF DUP2 GT ISZERO PUSH2 0x92D JUMPI PUSH2 0x92C PUSH2 0xFC0 JUMP JUMPDEST JUMPDEST PUSH2 0x939 DUP6 DUP3 DUP7 ADD PUSH2 0x8B5 JUMP JUMPDEST SWAP3 POP POP PUSH1 0x20 DUP4 ADD CALLDATALOAD PUSH8 0xFFFFFFFFFFFFFFFF DUP2 GT ISZERO PUSH2 0x95A JUMPI PUSH2 0x959 PUSH2 0xFC0 JUMP JUMPDEST JUMPDEST PUSH2 0x966 DUP6 DUP3 DUP7 ADD PUSH2 0x8B5 JUMP JUMPDEST SWAP2 POP POP SWAP3 POP SWAP3 SWAP1 POP JUMP JUMPDEST PUSH1 0x0 PUSH1 0x20 DUP3 DUP5 SUB SLT ISZERO PUSH2 0x986 JUMPI PUSH2 0x985 PUSH2 0xFC5 JUMP JUMPDEST JUMPDEST PUSH1 0x0 PUSH2 0x994 DUP5 DUP3 DUP6 ADD PUSH2 0x8E3 JUMP JUMPDEST SWAP2 POP POP SWAP3 SWAP2 POP POP JUMP JUMPDEST PUSH1 0x0 DUP1 PUSH1 0x40 DUP4 DUP6 SUB SLT ISZERO PUSH2 0x9B4 JUMPI PUSH2 0x9B3 PUSH2 0xFC5 JUMP JUMPDEST JUMPDEST PUSH1 0x0 PUSH2 0x9C2 DUP6 DUP3 DUP7 ADD PUSH2 0x8E3 JUMP JUMPDEST SWAP3 POP POP PUSH1 0x20 DUP4 ADD CALLDATALOAD PUSH8 0xFFFFFFFFFFFFFFFF DUP2 GT ISZERO PUSH2 0x9E3 JUMPI PUSH2 0x9E2 PUSH2 0xFC0 JUMP JUMPDEST JUMPDEST PUSH2 0x9EF DUP6 DUP3 DUP7 ADD PUSH2 0x8B5 JUMP JUMPDEST SWAP2 POP POP SWAP3 POP SWAP3 SWAP1 POP JUMP JUMPDEST PUSH1 0x0 DUP1 PUSH1 0x0 PUSH1 0x60 DUP5 DUP7 SUB SLT ISZERO PUSH2 0xA12 JUMPI PUSH2 0xA11 PUSH2 0xFC5 JUMP JUMPDEST JUMPDEST PUSH1 0x0 PUSH2 0xA20 DUP7 DUP3 DUP8 ADD PUSH2 0x8E3 JUMP JUMPDEST SWAP4 POP POP PUSH1 0x20 PUSH2 0xA31 DUP7 DUP3 DUP8 ADD PUSH2 0x8E3 JUMP JUMPDEST SWAP3 POP POP PUSH1 0x40 DUP5 ADD CALLDATALOAD PUSH8 0xFFFFFFFFFFFFFFFF DUP2 GT ISZERO PUSH2 0xA52 JUMPI PUSH2 0xA51 PUSH2 0xFC0 JUMP JUMPDEST JUMPDEST PUSH2 0xA5E DUP7 DUP3 DUP8 ADD PUSH2 0x8B5 JUMP JUMPDEST SWAP2 POP POP SWAP3 POP SWAP3 POP SWAP3 JUMP JUMPDEST PUSH1 0x0 PUSH2 0xA74 DUP4 DUP4 PUSH2 0xBB3 JUMP JUMPDEST SWAP1 POP SWAP3 SWAP2 POP POP JUMP JUMPDEST PUSH1 0x0 PUSH2 0xA88 DUP4 DUP4 PUSH2 0xBF0 JUMP JUMPDEST SWAP1 POP SWAP3 SWAP2 POP POP JUMP JUMPDEST PUSH1 0x0 PUSH2 0xA9B DUP3 PUSH2 0xD60 JUMP JUMPDEST PUSH2 0xAA5 DUP2 DUP6 PUSH2 0xD9B JUMP JUMPDEST SWAP4 POP DUP4 PUSH1 0x20 DUP3 MUL DUP6 ADD PUSH2 0xAB7 DUP6 PUSH2 0xD40 JUMP JUMPDEST DUP1 PUSH1 0x0 JUMPDEST DUP6 DUP2 LT ISZERO PUSH2 0xAF3 JUMPI DUP5 DUP5 SUB DUP10 MSTORE DUP2 MLOAD PUSH2 0xAD4 DUP6 DUP3 PUSH2 0xA68 JUMP JUMPDEST SWAP5 POP PUSH2 0xADF DUP4 PUSH2 0xD81 JUMP JUMPDEST SWAP3 POP PUSH1 0x20 DUP11 ADD SWAP10 POP POP PUSH1 0x1 DUP2 ADD SWAP1 POP PUSH2 0xABB JUMP JUMPDEST POP DUP3 SWAP8 POP DUP8 SWAP6 POP POP POP POP POP POP SWAP3 SWAP2 POP POP JUMP JUMPDEST PUSH1 0x0 PUSH2 0xB10 DUP3 PUSH2 0xD6B JUMP JUMPDEST PUSH2 0xB1A DUP2 DUP6 PUSH2 0xDAC JUMP JUMPDEST SWAP4 POP DUP4 PUSH1 0x20 DUP3 MUL DUP6 ADD PUSH2 0xB2C DUP6 PUSH2 0xD50 JUMP JUMPDEST DUP1 PUSH1 0x0 JUMPDEST DUP6 DUP2 LT ISZERO PUSH2 0xB68 JUMPI DUP5 DUP5 SUB DUP10 MSTORE DUP2 MLOAD PUSH2 0xB49 DUP6 DUP3 PUSH2 0xA7C JUMP JUMPDEST SWAP5 POP PUSH2 0xB54 DUP4 PUSH2 0xD8E JUMP JUMPDEST SWAP3 POP PUSH1 0x20 DUP11 ADD SWAP10 POP POP PUSH1 0x1 DUP2 ADD SWAP1 POP PUSH2 0xB30 JUMP JUMPDEST POP DUP3 SWAP8 POP DUP8 SWAP6 POP POP POP POP POP POP SWAP3 SWAP2 POP POP JUMP JUMPDEST PUSH1 0x0 PUSH2 0xB85 DUP3 PUSH2 0xD76 JUMP JUMPDEST PUSH2 0xB8F DUP2 DUP6 PUSH2 0xDBD JUMP JUMPDEST SWAP4 POP PUSH2 0xB9F DUP2 DUP6 PUSH1 0x20 DUP7 ADD PUSH2 0xE1B JUMP JUMPDEST PUSH2 0xBA8 DUP2 PUSH2 0xFCA JUMP JUMPDEST DUP5 ADD SWAP2 POP POP SWAP3 SWAP2 POP POP JUMP JUMPDEST PUSH1 0x0 PUSH1 0x40 DUP4 ADD PUSH1 0x0 DUP4 ADD MLOAD DUP5 DUP3 SUB PUSH1 0x0 DUP7 ADD MSTORE PUSH2 0xBD0 DUP3 DUP3 PUSH2 0xB7A JUMP JUMPDEST SWAP2 POP POP PUSH1 0x20 DUP4 ADD MLOAD PUSH2 0xBE5 PUSH1 0x20 DUP7 ADD DUP3 PUSH2 0xC6D JUMP JUMPDEST POP DUP1 SWAP2 POP POP SWAP3 SWAP2 POP POP JUMP JUMPDEST PUSH1 0x0 PUSH1 0xA0 DUP4 ADD PUSH1 0x0 DUP4 ADD MLOAD DUP5 DUP3 SUB PUSH1 0x0 DUP7 ADD MSTORE PUSH2 0xC0D DUP3 DUP3 PUSH2 0xB7A JUMP JUMPDEST SWAP2 POP POP PUSH1 0x20 DUP4 ADD MLOAD DUP5 DUP3 SUB PUSH1 0x20 DUP7 ADD MSTORE PUSH2 0xC27 DUP3 DUP3 PUSH2 0xB7A JUMP JUMPDEST SWAP2 POP POP PUSH1 0x40 DUP4 ADD MLOAD PUSH2 0xC3C PUSH1 0x40 DUP7 ADD DUP3 PUSH2 0xC6D JUMP JUMPDEST POP PUSH1 0x60 DUP4 ADD MLOAD PUSH2 0xC4F PUSH1 0x60 DUP7 ADD DUP3 PUSH2 0xC6D JUMP JUMPDEST POP PUSH1 0x80 DUP4 ADD MLOAD PUSH2 0xC62 PUSH1 0x80 DUP7 ADD DUP3 PUSH2 0xC6D JUMP JUMPDEST POP DUP1 SWAP2 POP POP SWAP3 SWAP2 POP POP JUMP JUMPDEST PUSH2 0xC76 DUP2 PUSH2 0xE02 JUMP JUMPDEST DUP3 MSTORE POP POP JUMP JUMPDEST PUSH2 0xC85 DUP2 PUSH2 0xE02 JUMP JUMPDEST DUP3 MSTORE POP POP JUMP JUMPDEST PUSH1 0x0 PUSH1 0x20 DUP3 ADD SWAP1 POP DUP2 DUP2 SUB PUSH1 0x0 DUP4 ADD MSTORE PUSH2 0xCA5 DUP2 DUP5 PUSH2 0xA90 JUMP JUMPDEST SWAP1 POP SWAP3 SWAP2 POP POP JUMP JUMPDEST PUSH1 0x0 PUSH1 0x20 DUP3 ADD SWAP1 POP DUP2 DUP2 SUB PUSH1 0x0 DUP4 ADD MSTORE PUSH2 0xCC7 DUP2 DUP5 PUSH2 0xB05 JUMP JUMPDEST SWAP1 POP SWAP3 SWAP2 POP POP JUMP JUMPDEST PUSH1 0x0 PUSH1 0x20 DUP3 ADD SWAP1 POP PUSH2 0xCE4 PUSH1 0x0 DUP4 ADD DUP5 PUSH2 0xC7C JUMP JUMPDEST SWAP3 SWAP2 POP POP JUMP JUMPDEST PUSH1 0x0 PUSH2 0xCF4 PUSH2 0xD05 JUMP JUMPDEST SWAP1 POP PUSH2 0xD00 DUP3 DUP3 PUSH2 0xE80 JUMP JUMPDEST SWAP2 SWAP1 POP JUMP JUMPDEST PUSH1 0x0 PUSH1 0x40 MLOAD SWAP1 POP SWAP1 JUMP JUMPDEST PUSH1 0x0 PUSH8 0xFFFFFFFFFFFFFFFF DUP3 GT ISZERO PUSH2 0xD2A JUMPI PUSH2 0xD29 PUSH2 0xF87 JUMP JUMPDEST JUMPDEST PUSH2 0xD33 DUP3 PUSH2 0xFCA JUMP JUMPDEST SWAP1 POP PUSH1 0x20 DUP2 ADD SWAP1 POP SWAP2 SWAP1 POP JUMP JUMPDEST PUSH1 0x0 DUP2 SWAP1 POP PUSH1 0x20 DUP3 ADD SWAP1 POP SWAP2 SWAP1 POP JUMP JUMPDEST PUSH1 0x0 DUP2 SWAP1 POP PUSH1 0x20 DUP3 ADD SWAP1 POP SWAP2 SWAP1 POP JUMP JUMPDEST PUSH1 0x0 DUP2 MLOAD SWAP1 POP SWAP2 SWAP1 POP JUMP JUMPDEST PUSH1 0x0 DUP2 MLOAD SWAP1 POP SWAP2 SWAP1 POP JUMP JUMPDEST PUSH1 0x0 DUP2 MLOAD SWAP1 POP SWAP2 SWAP1 POP JUMP JUMPDEST PUSH1 0x0 PUSH1 0x20 DUP3 ADD SWAP1 POP SWAP2 SWAP1 POP JUMP JUMPDEST PUSH1 0x0 PUSH1 0x20 DUP3 ADD SWAP1 POP SWAP2 SWAP1 POP JUMP JUMPDEST PUSH1 0x0 DUP3 DUP3 MSTORE PUSH1 0x20 DUP3 ADD SWAP1 POP SWAP3 SWAP2 POP POP JUMP JUMPDEST PUSH1 0x0 DUP3 DUP3 MSTORE PUSH1 0x20 DUP3 ADD SWAP1 POP SWAP3 SWAP2 POP POP JUMP JUMPDEST PUSH1 0x0 DUP3 DUP3 MSTORE PUSH1 0x20 DUP3 ADD SWAP1 POP SWAP3 SWAP2 POP POP JUMP JUMPDEST PUSH1 0x0 PUSH2 0xDD9 DUP3 PUSH2 0xE02 JUMP JUMPDEST SWAP2 POP PUSH2 0xDE4 DUP4 PUSH2 0xE02 JUMP JUMPDEST SWAP3 POP DUP3 DUP3 LT ISZERO PUSH2 0xDF7 JUMPI PUSH2 0xDF6 PUSH2 0xEFA JUMP JUMPDEST JUMPDEST DUP3 DUP3 SUB SWAP1 POP SWAP3 SWAP2 POP POP JUMP JUMPDEST PUSH1 0x0 DUP2 SWAP1 POP SWAP2 SWAP1 POP JUMP JUMPDEST DUP3 DUP2 DUP4 CALLDATACOPY PUSH1 0x0 DUP4 DUP4 ADD MSTORE POP POP POP JUMP JUMPDEST PUSH1 0x0 JUMPDEST DUP4 DUP2 LT ISZERO PUSH2 0xE39 JUMPI DUP1 DUP3 ADD MLOAD DUP2 DUP5 ADD MSTORE PUSH1 0x20 DUP2 ADD SWAP1 POP PUSH2 0xE1E JUMP JUMPDEST DUP4 DUP2 GT ISZERO PUSH2 0xE48 JUMPI PUSH1 0x0 DUP5 DUP5 ADD MSTORE JUMPDEST POP POP POP POP JUMP JUMPDEST PUSH1 0x0 PUSH1 0x2 DUP3 DIV SWAP1 POP PUSH1 0x1 DUP3 AND DUP1 PUSH2 0xE66 JUMPI PUSH1 0x7F DUP3 AND SWAP2 POP JUMPDEST PUSH1 0x20 DUP3 LT DUP2 EQ ISZERO PUSH2 0xE7A JUMPI PUSH2 0xE79 PUSH2 0xF29 JUMP JUMPDEST JUMPDEST POP SWAP2 SWAP1 POP JUMP JUMPDEST PUSH2 0xE89 DUP3 PUSH2 0xFCA JUMP JUMPDEST DUP2 ADD DUP2 DUP2 LT PUSH8 0xFFFFFFFFFFFFFFFF DUP3 GT OR ISZERO PUSH2 0xEA8 JUMPI PUSH2 0xEA7 PUSH2 0xF87 JUMP JUMPDEST JUMPDEST DUP1 PUSH1 0x40 MSTORE POP POP POP JUMP JUMPDEST PUSH1 0x0 PUSH2 0xEBC DUP3 PUSH2 0xE02 JUMP JUMPDEST SWAP2 POP PUSH32 0xFFFFFFFFFFFFFFFFFFFFFFFFFFFFFFFFFFFFFFFFFFFFFFFFFFFFFFFFFFFFFFFF DUP3 EQ ISZERO PUSH2 0xEEF JUMPI PUSH2 0xEEE PUSH2 0xEFA JUMP JUMPDEST JUMPDEST PUSH1 0x1 DUP3 ADD SWAP1 POP SWAP2 SWAP1 POP JUMP JUMPDEST PUSH32 0x4E487B7100000000000000000000000000000000000000000000000000000000 PUSH1 0x0 MSTORE PUSH1 0x11 PUSH1 0x4 MSTORE PUSH1 0x24 PUSH1 0x0 REVERT JUMPDEST PUSH32 0x4E487B7100000000000000000000000000000000000000000000000000000000 PUSH1 0x0 MSTORE PUSH1 0x22 PUSH1 0x4 MSTORE PUSH1 0x24 PUSH1 0x0 REVERT JUMPDEST PUSH32 0x4E487B7100000000000000000000000000000000000000000000000000000000 PUSH1 0x0 MSTORE PUSH1 0x32 PUSH1 0x4 MSTORE PUSH1 0x24 PUSH1 0x0 REVERT JUMPDEST PUSH32 0x4E487B7100000000000000000000000000000000000000000000000000000000 PUSH1 0x0 MSTORE PUSH1 0x41 PUSH1 0x4 MSTORE PUSH1 0x24 PUSH1 0x0 REVERT JUMPDEST PUSH1 0x0 DUP1 REVERT JUMPDEST PUSH1 0x0 DUP1 REVERT JUMPDEST PUSH1 0x0 DUP1 REVERT JUMPDEST PUSH1 0x0 DUP1 REVERT JUMPDEST PUSH1 0x0 PUSH1 0x1F NOT PUSH1 0x1F DUP4 ADD AND SWAP1 POP SWAP2 SWAP1 POP JUMP JUMPDEST PUSH2 0xFE4 DUP2 PUSH2 0xE02 JUMP JUMPDEST DUP2 EQ PUSH2 0xFEF JUMPI PUSH1 0x0 DUP1 REVERT JUMPDEST POP JUMP INVALID LOG2 PUSH5 0x6970667358 0x22 SLT KECCAK256 DIV 0xC SELFDESTRUCT PUSH16 0x331D5671433E2C28205F5993A8A384F8 0xAB MLOAD GAS 0xB3 SWAP2 0xB9 JUMP SWAP12 DUP15 0xA5 JUMP 0xC7 PUSH5 0x736F6C6343 STOP ADDMOD SMOD STOP CALLER "
				},
				"gasEstimates": {
					"creation": {
						"codeDepositCost": "827200",
						"executionCost": "5870",
						"totalCost": "833070"
					},
					"external": {
						"addOption(uint256,string)": "infinite",
						"createPool(string,string)": "infinite",
						"getActivePools()": "infinite",
						"getNumOfOptions(uint256)": "infinite",
						"getNumOfVotes(uint256)": "infinite",
						"getOptions(uint256)": "infinite",
						"startPool(uint256)": "27073",
						"vote(uint256,uint256,string)": "infinite"
					}
				},
				"methodIdentifiers": {
					"addOption(uint256,string)": "ea57d5d4",
					"createPool(string,string)": "5ea81a32",
					"getActivePools()": "8ec08354",
					"getNumOfOptions(uint256)": "186dd066",
					"getNumOfVotes(uint256)": "8c8e54fb",
					"getOptions(uint256)": "8915b3fb",
					"startPool(uint256)": "a901d15c",
					"vote(uint256,uint256,string)": "a1bbfc05"
				}
			},
			"userdoc": {
				"kind": "user",
				"methods": {},
				"version": 1
			}
		}
	}
}