{
	"contracts/eVoting_app.sol": {
		"EVoteApp": {
			"abi": [
				{
					"inputs": [
						{
							"internalType": "uint256",
							"name": "_poolIndex",
							"type": "uint256"
						},
						{
							"internalType": "string",
							"name": "_name",
							"type": "string"
						}
					],
					"name": "addOption",
					"outputs": [],
					"stateMutability": "nonpayable",
					"type": "function"
				},
				{
					"inputs": [
						{
							"internalType": "string",
							"name": "_poolName",
							"type": "string"
						},
						{
							"internalType": "string",
							"name": "_description",
							"type": "string"
						}
					],
					"name": "createPool",
					"outputs": [
						{
							"internalType": "uint256",
							"name": "",
							"type": "uint256"
						}
					],
					"stateMutability": "nonpayable",
					"type": "function"
				},
				{
					"inputs": [
						{
							"internalType": "uint256",
							"name": "_poolIndex",
							"type": "uint256"
						},
						{
							"internalType": "string",
							"name": "_name",
							"type": "string"
						}
					],
					"name": "startPool",
					"outputs": [],
					"stateMutability": "nonpayable",
					"type": "function"
				}
			],
			"devdoc": {
				"kind": "dev",
				"methods": {},
				"version": 1
			},
			"evm": {
				"assembly": "    /* \"contracts/eVoting_app.sol\":71:1498  contract EVoteApp{... */\n  mstore(0x40, 0x80)\n    /* \"contracts/eVoting_app.sol\":616:617  0 */\n  0x00\n    /* \"contracts/eVoting_app.sol\":595:617  uint256 numOfPools = 0 */\n  0x01\n  sstore\n    /* \"contracts/eVoting_app.sol\":71:1498  contract EVoteApp{... */\n  callvalue\n  dup1\n  iszero\n  tag_1\n  jumpi\n  0x00\n  dup1\n  revert\ntag_1:\n  pop\n  dataSize(sub_0)\n  dup1\n  dataOffset(sub_0)\n  0x00\n  codecopy\n  0x00\n  return\nstop\n\nsub_0: assembly {\n        /* \"contracts/eVoting_app.sol\":71:1498  contract EVoteApp{... */\n      mstore(0x40, 0x80)\n      callvalue\n      dup1\n      iszero\n      tag_1\n      jumpi\n      0x00\n      dup1\n      revert\n    tag_1:\n      pop\n      jumpi(tag_2, lt(calldatasize, 0x04))\n      shr(0xe0, calldataload(0x00))\n      dup1\n      0x5ea81a32\n      eq\n      tag_3\n      jumpi\n      dup1\n      0xea57d5d4\n      eq\n      tag_4\n      jumpi\n      dup1\n      0xf183929b\n      eq\n      tag_5\n      jumpi\n    tag_2:\n      0x00\n      dup1\n      revert\n        /* \"contracts/eVoting_app.sol\":624:1112  function createPool(string memory _poolName, string memory _description) public returns(uint256){... */\n    tag_3:\n      tag_6\n      0x04\n      dup1\n      calldatasize\n      sub\n      dup2\n      add\n      swap1\n      tag_7\n      swap2\n      swap1\n      tag_8\n      jump\t// in\n    tag_7:\n      tag_9\n      jump\t// in\n    tag_6:\n      mload(0x40)\n      tag_10\n      swap2\n      swap1\n      tag_11\n      jump\t// in\n    tag_10:\n      mload(0x40)\n      dup1\n      swap2\n      sub\n      swap1\n      return\n        /* \"contracts/eVoting_app.sol\":1118:1304  function addOption(uint256 _poolIndex, string memory _name) public{... */\n    tag_4:\n      tag_12\n      0x04\n      dup1\n      calldatasize\n      sub\n      dup2\n      add\n      swap1\n      tag_13\n      swap2\n      swap1\n      tag_14\n      jump\t// in\n    tag_13:\n      tag_15\n      jump\t// in\n    tag_12:\n      stop\n        /* \"contracts/eVoting_app.sol\":1310:1496  function startPool(uint256 _poolIndex, string memory _name) public{... */\n    tag_5:\n      tag_16\n      0x04\n      dup1\n      calldatasize\n      sub\n      dup2\n      add\n      swap1\n      tag_17\n      swap2\n      swap1\n      tag_14\n      jump\t// in\n    tag_17:\n      tag_18\n      jump\t// in\n    tag_16:\n      stop\n        /* \"contracts/eVoting_app.sol\":624:1112  function createPool(string memory _poolName, string memory _description) public returns(uint256){... */\n    tag_9:\n        /* \"contracts/eVoting_app.sol\":712:719  uint256 */\n      0x00\n        /* \"contracts/eVoting_app.sol\":787:805  Pool storage _pool */\n      dup1\n        /* \"contracts/eVoting_app.sol\":808:813  pools */\n      0x00\n        /* \"contracts/eVoting_app.sol\":808:827  pools[numOfPools++] */\n      dup1\n        /* \"contracts/eVoting_app.sol\":814:824  numOfPools */\n      0x01\n      0x00\n        /* \"contracts/eVoting_app.sol\":814:826  numOfPools++ */\n      dup2\n      sload\n      dup1\n      swap3\n      swap2\n      swap1\n      tag_20\n      swap1\n      tag_21\n      jump\t// in\n    tag_20:\n      swap2\n      swap1\n      pop\n      sstore\n        /* \"contracts/eVoting_app.sol\":808:827  pools[numOfPools++] */\n      dup2\n      mstore\n      0x20\n      add\n      swap1\n      dup2\n      mstore\n      0x20\n      add\n      0x00\n      keccak256\n        /* \"contracts/eVoting_app.sol\":787:827  Pool storage _pool = pools[numOfPools++] */\n      swap1\n      pop\n        /* \"contracts/eVoting_app.sol\":851:860  _poolName */\n      dup4\n        /* \"contracts/eVoting_app.sol\":838:843  _pool */\n      dup2\n        /* \"contracts/eVoting_app.sol\":838:848  _pool.name */\n      0x00\n      add\n        /* \"contracts/eVoting_app.sol\":838:860  _pool.name = _poolName */\n      swap1\n      dup1\n      mload\n      swap1\n      0x20\n      add\n      swap1\n      tag_22\n      swap3\n      swap2\n      swap1\n      tag_23\n      jump\t// in\n    tag_22:\n      pop\n        /* \"contracts/eVoting_app.sol\":890:902  _description */\n      dup3\n        /* \"contracts/eVoting_app.sol\":870:875  _pool */\n      dup2\n        /* \"contracts/eVoting_app.sol\":870:887  _pool.description */\n      0x01\n      add\n        /* \"contracts/eVoting_app.sol\":870:902  _pool.description = _description */\n      swap1\n      dup1\n      mload\n      swap1\n      0x20\n      add\n      swap1\n      tag_24\n      swap3\n      swap2\n      swap1\n      tag_23\n      jump\t// in\n    tag_24:\n      pop\n        /* \"contracts/eVoting_app.sol\":931:932  0 */\n      0x00\n        /* \"contracts/eVoting_app.sol\":912:917  _pool */\n      dup2\n        /* \"contracts/eVoting_app.sol\":912:928  _pool.totalVotes */\n      0x02\n      add\n        /* \"contracts/eVoting_app.sol\":912:932  _pool.totalVotes = 0 */\n      dup2\n      swap1\n      sstore\n      pop\n        /* \"contracts/eVoting_app.sol\":956:966  msg.sender */\n      caller\n        /* \"contracts/eVoting_app.sol\":942:947  _pool */\n      dup2\n        /* \"contracts/eVoting_app.sol\":942:953  _pool.owner */\n      0x03\n      add\n      0x00\n        /* \"contracts/eVoting_app.sol\":942:966  _pool.owner = msg.sender */\n      0x0100\n      exp\n      dup2\n      sload\n      dup2\n      0xffffffffffffffffffffffffffffffffffffffff\n      mul\n      not\n      and\n      swap1\n      dup4\n      0xffffffffffffffffffffffffffffffffffffffff\n      and\n      mul\n      or\n      swap1\n      sstore\n      pop\n        /* \"contracts/eVoting_app.sol\":997:998  0 */\n      0x00\n        /* \"contracts/eVoting_app.sol\":976:981  _pool */\n      dup2\n        /* \"contracts/eVoting_app.sol\":976:994  _pool.numOfOptions */\n      0x05\n      add\n        /* \"contracts/eVoting_app.sol\":976:998  _pool.numOfOptions = 0 */\n      dup2\n      swap1\n      sstore\n      pop\n        /* \"contracts/eVoting_app.sol\":1025:1030  false */\n      0x00\n        /* \"contracts/eVoting_app.sol\":1008:1013  _pool */\n      dup2\n        /* \"contracts/eVoting_app.sol\":1008:1022  _pool.isActive */\n      0x06\n      add\n      0x00\n        /* \"contracts/eVoting_app.sol\":1008:1030  _pool.isActive = false */\n      0x0100\n      exp\n      dup2\n      sload\n      dup2\n      0xff\n      mul\n      not\n      and\n      swap1\n      dup4\n      iszero\n      iszero\n      mul\n      or\n      swap1\n      sstore\n      pop\n        /* \"contracts/eVoting_app.sol\":1071:1072  1 */\n      0x01\n        /* \"contracts/eVoting_app.sol\":1058:1068  numOfPools */\n      dup1\n      sload\n        /* \"contracts/eVoting_app.sol\":1058:1072  numOfPools - 1 */\n      tag_25\n      swap2\n      swap1\n      tag_26\n      jump\t// in\n    tag_25:\n        /* \"contracts/eVoting_app.sol\":1040:1045  _pool */\n      dup2\n        /* \"contracts/eVoting_app.sol\":1040:1055  _pool.poolIndex */\n      0x07\n      add\n        /* \"contracts/eVoting_app.sol\":1040:1072  _pool.poolIndex = numOfPools - 1 */\n      dup2\n      swap1\n      sstore\n      pop\n        /* \"contracts/eVoting_app.sol\":1103:1104  1 */\n      0x01\n        /* \"contracts/eVoting_app.sol\":1090:1100  numOfPools */\n      dup1\n      sload\n        /* \"contracts/eVoting_app.sol\":1090:1104  numOfPools - 1 */\n      tag_27\n      swap2\n      swap1\n      tag_26\n      jump\t// in\n    tag_27:\n        /* \"contracts/eVoting_app.sol\":1083:1104  return numOfPools - 1 */\n      swap2\n      pop\n      pop\n        /* \"contracts/eVoting_app.sol\":624:1112  function createPool(string memory _poolName, string memory _description) public returns(uint256){... */\n      swap3\n      swap2\n      pop\n      pop\n      jump\t// out\n        /* \"contracts/eVoting_app.sol\":1118:1304  function addOption(uint256 _poolIndex, string memory _name) public{... */\n    tag_15:\n        /* \"contracts/eVoting_app.sol\":1194:1212  Pool storage _pool */\n      0x00\n        /* \"contracts/eVoting_app.sol\":1215:1220  pools */\n      dup1\n        /* \"contracts/eVoting_app.sol\":1215:1232  pools[_poolIndex] */\n      0x00\n        /* \"contracts/eVoting_app.sol\":1221:1231  _poolIndex */\n      dup5\n        /* \"contracts/eVoting_app.sol\":1215:1232  pools[_poolIndex] */\n      dup2\n      mstore\n      0x20\n      add\n      swap1\n      dup2\n      mstore\n      0x20\n      add\n      0x00\n      keccak256\n        /* \"contracts/eVoting_app.sol\":1194:1232  Pool storage _pool = pools[_poolIndex] */\n      swap1\n      pop\n        /* \"contracts/eVoting_app.sol\":1281:1297  Option(_name, 0) */\n      mload(0x40)\n      dup1\n      0x40\n      add\n      0x40\n      mstore\n      dup1\n        /* \"contracts/eVoting_app.sol\":1288:1293  _name */\n      dup4\n        /* \"contracts/eVoting_app.sol\":1281:1297  Option(_name, 0) */\n      dup2\n      mstore\n      0x20\n      add\n        /* \"contracts/eVoting_app.sol\":1295:1296  0 */\n      0x00\n        /* \"contracts/eVoting_app.sol\":1281:1297  Option(_name, 0) */\n      dup2\n      mstore\n      pop\n        /* \"contracts/eVoting_app.sol\":1243:1248  _pool */\n      dup2\n        /* \"contracts/eVoting_app.sol\":1243:1256  _pool.options */\n      0x04\n      add\n        /* \"contracts/eVoting_app.sol\":1243:1278  _pool.options[_pool.numOfOptions++] */\n      0x00\n        /* \"contracts/eVoting_app.sol\":1257:1262  _pool */\n      dup4\n        /* \"contracts/eVoting_app.sol\":1257:1275  _pool.numOfOptions */\n      0x05\n      add\n      0x00\n        /* \"contracts/eVoting_app.sol\":1257:1277  _pool.numOfOptions++ */\n      dup2\n      sload\n      dup1\n      swap3\n      swap2\n      swap1\n      tag_29\n      swap1\n      tag_21\n      jump\t// in\n    tag_29:\n      swap2\n      swap1\n      pop\n      sstore\n        /* \"contracts/eVoting_app.sol\":1243:1278  _pool.options[_pool.numOfOptions++] */\n      dup2\n      mstore\n      0x20\n      add\n      swap1\n      dup2\n      mstore\n      0x20\n      add\n      0x00\n      keccak256\n        /* \"contracts/eVoting_app.sol\":1243:1297  _pool.options[_pool.numOfOptions++] = Option(_name, 0) */\n      0x00\n      dup3\n      add\n      mload\n      dup2\n      0x00\n      add\n      swap1\n      dup1\n      mload\n      swap1\n      0x20\n      add\n      swap1\n      tag_30\n      swap3\n      swap2\n      swap1\n      tag_23\n      jump\t// in\n    tag_30:\n      pop\n      0x20\n      dup3\n      add\n      mload\n      dup2\n      0x01\n      add\n      sstore\n      swap1\n      pop\n      pop\n        /* \"contracts/eVoting_app.sol\":1184:1304  {... */\n      pop\n        /* \"contracts/eVoting_app.sol\":1118:1304  function addOption(uint256 _poolIndex, string memory _name) public{... */\n      pop\n      pop\n      jump\t// out\n        /* \"contracts/eVoting_app.sol\":1310:1496  function startPool(uint256 _poolIndex, string memory _name) public{... */\n    tag_18:\n        /* \"contracts/eVoting_app.sol\":1386:1404  Pool storage _pool */\n      0x00\n        /* \"contracts/eVoting_app.sol\":1407:1412  pools */\n      dup1\n        /* \"contracts/eVoting_app.sol\":1407:1424  pools[_poolIndex] */\n      0x00\n        /* \"contracts/eVoting_app.sol\":1413:1423  _poolIndex */\n      dup5\n        /* \"contracts/eVoting_app.sol\":1407:1424  pools[_poolIndex] */\n      dup2\n      mstore\n      0x20\n      add\n      swap1\n      dup2\n      mstore\n      0x20\n      add\n      0x00\n      keccak256\n        /* \"contracts/eVoting_app.sol\":1386:1424  Pool storage _pool = pools[_poolIndex] */\n      swap1\n      pop\n        /* \"contracts/eVoting_app.sol\":1473:1489  Option(_name, 0) */\n      mload(0x40)\n      dup1\n      0x40\n      add\n      0x40\n      mstore\n      dup1\n        /* \"contracts/eVoting_app.sol\":1480:1485  _name */\n      dup4\n        /* \"contracts/eVoting_app.sol\":1473:1489  Option(_name, 0) */\n      dup2\n      mstore\n      0x20\n      add\n        /* \"contracts/eVoting_app.sol\":1487:1488  0 */\n      0x00\n        /* \"contracts/eVoting_app.sol\":1473:1489  Option(_name, 0) */\n      dup2\n      mstore\n      pop\n        /* \"contracts/eVoting_app.sol\":1435:1440  _pool */\n      dup2\n        /* \"contracts/eVoting_app.sol\":1435:1448  _pool.options */\n      0x04\n      add\n        /* \"contracts/eVoting_app.sol\":1435:1470  _pool.options[_pool.numOfOptions++] */\n      0x00\n        /* \"contracts/eVoting_app.sol\":1449:1454  _pool */\n      dup4\n        /* \"contracts/eVoting_app.sol\":1449:1467  _pool.numOfOptions */\n      0x05\n      add\n      0x00\n        /* \"contracts/eVoting_app.sol\":1449:1469  _pool.numOfOptions++ */\n      dup2\n      sload\n      dup1\n      swap3\n      swap2\n      swap1\n      tag_32\n      swap1\n      tag_21\n      jump\t// in\n    tag_32:\n      swap2\n      swap1\n      pop\n      sstore\n        /* \"contracts/eVoting_app.sol\":1435:1470  _pool.options[_pool.numOfOptions++] */\n      dup2\n      mstore\n      0x20\n      add\n      swap1\n      dup2\n      mstore\n      0x20\n      add\n      0x00\n      keccak256\n        /* \"contracts/eVoting_app.sol\":1435:1489  _pool.options[_pool.numOfOptions++] = Option(_name, 0) */\n      0x00\n      dup3\n      add\n      mload\n      dup2\n      0x00\n      add\n      swap1\n      dup1\n      mload\n      swap1\n      0x20\n      add\n      swap1\n      tag_33\n      swap3\n      swap2\n      swap1\n      tag_23\n      jump\t// in\n    tag_33:\n      pop\n      0x20\n      dup3\n      add\n      mload\n      dup2\n      0x01\n      add\n      sstore\n      swap1\n      pop\n      pop\n        /* \"contracts/eVoting_app.sol\":1376:1496  {... */\n      pop\n        /* \"contracts/eVoting_app.sol\":1310:1496  function startPool(uint256 _poolIndex, string memory _name) public{... */\n      pop\n      pop\n      jump\t// out\n    tag_23:\n      dup3\n      dup1\n      sload\n      tag_34\n      swap1\n      tag_35\n      jump\t// in\n    tag_34:\n      swap1\n      0x00\n      mstore\n      keccak256(0x00, 0x20)\n      swap1\n      0x1f\n      add\n      0x20\n      swap1\n      div\n      dup2\n      add\n      swap3\n      dup3\n      tag_37\n      jumpi\n      0x00\n      dup6\n      sstore\n      jump(tag_36)\n    tag_37:\n      dup3\n      0x1f\n      lt\n      tag_38\n      jumpi\n      dup1\n      mload\n      not(0xff)\n      and\n      dup4\n      dup1\n      add\n      or\n      dup6\n      sstore\n      jump(tag_36)\n    tag_38:\n      dup3\n      dup1\n      add\n      0x01\n      add\n      dup6\n      sstore\n      dup3\n      iszero\n      tag_36\n      jumpi\n      swap2\n      dup3\n      add\n    tag_39:\n      dup3\n      dup2\n      gt\n      iszero\n      tag_40\n      jumpi\n      dup3\n      mload\n      dup3\n      sstore\n      swap2\n      0x20\n      add\n      swap2\n      swap1\n      0x01\n      add\n      swap1\n      jump(tag_39)\n    tag_40:\n    tag_36:\n      pop\n      swap1\n      pop\n      tag_41\n      swap2\n      swap1\n      tag_42\n      jump\t// in\n    tag_41:\n      pop\n      swap1\n      jump\t// out\n    tag_42:\n    tag_43:\n      dup1\n      dup3\n      gt\n      iszero\n      tag_44\n      jumpi\n      0x00\n      dup2\n      0x00\n      swap1\n      sstore\n      pop\n      0x01\n      add\n      jump(tag_43)\n    tag_44:\n      pop\n      swap1\n      jump\t// out\n        /* \"#utility.yul\":7:419   */\n    tag_46:\n        /* \"#utility.yul\":85:90   */\n      0x00\n        /* \"#utility.yul\":110:176   */\n      tag_48\n        /* \"#utility.yul\":126:175   */\n      tag_49\n        /* \"#utility.yul\":168:174   */\n      dup5\n        /* \"#utility.yul\":126:175   */\n      tag_50\n      jump\t// in\n    tag_49:\n        /* \"#utility.yul\":110:176   */\n      tag_51\n      jump\t// in\n    tag_48:\n        /* \"#utility.yul\":101:176   */\n      swap1\n      pop\n        /* \"#utility.yul\":199:205   */\n      dup3\n        /* \"#utility.yul\":192:197   */\n      dup2\n        /* \"#utility.yul\":185:206   */\n      mstore\n        /* \"#utility.yul\":237:241   */\n      0x20\n        /* \"#utility.yul\":230:235   */\n      dup2\n        /* \"#utility.yul\":226:242   */\n      add\n        /* \"#utility.yul\":275:278   */\n      dup5\n        /* \"#utility.yul\":266:272   */\n      dup5\n        /* \"#utility.yul\":261:264   */\n      dup5\n        /* \"#utility.yul\":257:273   */\n      add\n        /* \"#utility.yul\":254:279   */\n      gt\n        /* \"#utility.yul\":251:363   */\n      iszero\n      tag_52\n      jumpi\n        /* \"#utility.yul\":282:361   */\n      tag_53\n      tag_54\n      jump\t// in\n    tag_53:\n        /* \"#utility.yul\":251:363   */\n    tag_52:\n        /* \"#utility.yul\":372:413   */\n      tag_55\n        /* \"#utility.yul\":406:412   */\n      dup5\n        /* \"#utility.yul\":401:404   */\n      dup3\n        /* \"#utility.yul\":396:399   */\n      dup6\n        /* \"#utility.yul\":372:413   */\n      tag_56\n      jump\t// in\n    tag_55:\n        /* \"#utility.yul\":91:419   */\n      pop\n        /* \"#utility.yul\":7:419   */\n      swap4\n      swap3\n      pop\n      pop\n      pop\n      jump\t// out\n        /* \"#utility.yul\":439:779   */\n    tag_57:\n        /* \"#utility.yul\":495:500   */\n      0x00\n        /* \"#utility.yul\":544:547   */\n      dup3\n        /* \"#utility.yul\":537:541   */\n      0x1f\n        /* \"#utility.yul\":529:535   */\n      dup4\n        /* \"#utility.yul\":525:542   */\n      add\n        /* \"#utility.yul\":521:548   */\n      slt\n        /* \"#utility.yul\":511:633   */\n      tag_59\n      jumpi\n        /* \"#utility.yul\":552:631   */\n      tag_60\n      tag_61\n      jump\t// in\n    tag_60:\n        /* \"#utility.yul\":511:633   */\n    tag_59:\n        /* \"#utility.yul\":669:675   */\n      dup2\n        /* \"#utility.yul\":656:676   */\n      calldataload\n        /* \"#utility.yul\":694:773   */\n      tag_62\n        /* \"#utility.yul\":769:772   */\n      dup5\n        /* \"#utility.yul\":761:767   */\n      dup3\n        /* \"#utility.yul\":754:758   */\n      0x20\n        /* \"#utility.yul\":746:752   */\n      dup7\n        /* \"#utility.yul\":742:759   */\n      add\n        /* \"#utility.yul\":694:773   */\n      tag_46\n      jump\t// in\n    tag_62:\n        /* \"#utility.yul\":685:773   */\n      swap2\n      pop\n        /* \"#utility.yul\":501:779   */\n      pop\n        /* \"#utility.yul\":439:779   */\n      swap3\n      swap2\n      pop\n      pop\n      jump\t// out\n        /* \"#utility.yul\":785:924   */\n    tag_63:\n        /* \"#utility.yul\":831:836   */\n      0x00\n        /* \"#utility.yul\":869:875   */\n      dup2\n        /* \"#utility.yul\":856:876   */\n      calldataload\n        /* \"#utility.yul\":847:876   */\n      swap1\n      pop\n        /* \"#utility.yul\":885:918   */\n      tag_65\n        /* \"#utility.yul\":912:917   */\n      dup2\n        /* \"#utility.yul\":885:918   */\n      tag_66\n      jump\t// in\n    tag_65:\n        /* \"#utility.yul\":785:924   */\n      swap3\n      swap2\n      pop\n      pop\n      jump\t// out\n        /* \"#utility.yul\":930:1764   */\n    tag_8:\n        /* \"#utility.yul\":1018:1024   */\n      0x00\n        /* \"#utility.yul\":1026:1032   */\n      dup1\n        /* \"#utility.yul\":1075:1077   */\n      0x40\n        /* \"#utility.yul\":1063:1072   */\n      dup4\n        /* \"#utility.yul\":1054:1061   */\n      dup6\n        /* \"#utility.yul\":1050:1073   */\n      sub\n        /* \"#utility.yul\":1046:1078   */\n      slt\n        /* \"#utility.yul\":1043:1162   */\n      iszero\n      tag_68\n      jumpi\n        /* \"#utility.yul\":1081:1160   */\n      tag_69\n      tag_70\n      jump\t// in\n    tag_69:\n        /* \"#utility.yul\":1043:1162   */\n    tag_68:\n        /* \"#utility.yul\":1229:1230   */\n      0x00\n        /* \"#utility.yul\":1218:1227   */\n      dup4\n        /* \"#utility.yul\":1214:1231   */\n      add\n        /* \"#utility.yul\":1201:1232   */\n      calldataload\n        /* \"#utility.yul\":1259:1277   */\n      0xffffffffffffffff\n        /* \"#utility.yul\":1251:1257   */\n      dup2\n        /* \"#utility.yul\":1248:1278   */\n      gt\n        /* \"#utility.yul\":1245:1362   */\n      iszero\n      tag_71\n      jumpi\n        /* \"#utility.yul\":1281:1360   */\n      tag_72\n      tag_73\n      jump\t// in\n    tag_72:\n        /* \"#utility.yul\":1245:1362   */\n    tag_71:\n        /* \"#utility.yul\":1386:1449   */\n      tag_74\n        /* \"#utility.yul\":1441:1448   */\n      dup6\n        /* \"#utility.yul\":1432:1438   */\n      dup3\n        /* \"#utility.yul\":1421:1430   */\n      dup7\n        /* \"#utility.yul\":1417:1439   */\n      add\n        /* \"#utility.yul\":1386:1449   */\n      tag_57\n      jump\t// in\n    tag_74:\n        /* \"#utility.yul\":1376:1449   */\n      swap3\n      pop\n        /* \"#utility.yul\":1172:1459   */\n      pop\n        /* \"#utility.yul\":1526:1528   */\n      0x20\n        /* \"#utility.yul\":1515:1524   */\n      dup4\n        /* \"#utility.yul\":1511:1529   */\n      add\n        /* \"#utility.yul\":1498:1530   */\n      calldataload\n        /* \"#utility.yul\":1557:1575   */\n      0xffffffffffffffff\n        /* \"#utility.yul\":1549:1555   */\n      dup2\n        /* \"#utility.yul\":1546:1576   */\n      gt\n        /* \"#utility.yul\":1543:1660   */\n      iszero\n      tag_75\n      jumpi\n        /* \"#utility.yul\":1579:1658   */\n      tag_76\n      tag_73\n      jump\t// in\n    tag_76:\n        /* \"#utility.yul\":1543:1660   */\n    tag_75:\n        /* \"#utility.yul\":1684:1747   */\n      tag_77\n        /* \"#utility.yul\":1739:1746   */\n      dup6\n        /* \"#utility.yul\":1730:1736   */\n      dup3\n        /* \"#utility.yul\":1719:1728   */\n      dup7\n        /* \"#utility.yul\":1715:1737   */\n      add\n        /* \"#utility.yul\":1684:1747   */\n      tag_57\n      jump\t// in\n    tag_77:\n        /* \"#utility.yul\":1674:1747   */\n      swap2\n      pop\n        /* \"#utility.yul\":1469:1757   */\n      pop\n        /* \"#utility.yul\":930:1764   */\n      swap3\n      pop\n      swap3\n      swap1\n      pop\n      jump\t// out\n        /* \"#utility.yul\":1770:2424   */\n    tag_14:\n        /* \"#utility.yul\":1848:1854   */\n      0x00\n        /* \"#utility.yul\":1856:1862   */\n      dup1\n        /* \"#utility.yul\":1905:1907   */\n      0x40\n        /* \"#utility.yul\":1893:1902   */\n      dup4\n        /* \"#utility.yul\":1884:1891   */\n      dup6\n        /* \"#utility.yul\":1880:1903   */\n      sub\n        /* \"#utility.yul\":1876:1908   */\n      slt\n        /* \"#utility.yul\":1873:1992   */\n      iszero\n      tag_79\n      jumpi\n        /* \"#utility.yul\":1911:1990   */\n      tag_80\n      tag_70\n      jump\t// in\n    tag_80:\n        /* \"#utility.yul\":1873:1992   */\n    tag_79:\n        /* \"#utility.yul\":2031:2032   */\n      0x00\n        /* \"#utility.yul\":2056:2109   */\n      tag_81\n        /* \"#utility.yul\":2101:2108   */\n      dup6\n        /* \"#utility.yul\":2092:2098   */\n      dup3\n        /* \"#utility.yul\":2081:2090   */\n      dup7\n        /* \"#utility.yul\":2077:2099   */\n      add\n        /* \"#utility.yul\":2056:2109   */\n      tag_63\n      jump\t// in\n    tag_81:\n        /* \"#utility.yul\":2046:2109   */\n      swap3\n      pop\n        /* \"#utility.yul\":2002:2119   */\n      pop\n        /* \"#utility.yul\":2186:2188   */\n      0x20\n        /* \"#utility.yul\":2175:2184   */\n      dup4\n        /* \"#utility.yul\":2171:2189   */\n      add\n        /* \"#utility.yul\":2158:2190   */\n      calldataload\n        /* \"#utility.yul\":2217:2235   */\n      0xffffffffffffffff\n        /* \"#utility.yul\":2209:2215   */\n      dup2\n        /* \"#utility.yul\":2206:2236   */\n      gt\n        /* \"#utility.yul\":2203:2320   */\n      iszero\n      tag_82\n      jumpi\n        /* \"#utility.yul\":2239:2318   */\n      tag_83\n      tag_73\n      jump\t// in\n    tag_83:\n        /* \"#utility.yul\":2203:2320   */\n    tag_82:\n        /* \"#utility.yul\":2344:2407   */\n      tag_84\n        /* \"#utility.yul\":2399:2406   */\n      dup6\n        /* \"#utility.yul\":2390:2396   */\n      dup3\n        /* \"#utility.yul\":2379:2388   */\n      dup7\n        /* \"#utility.yul\":2375:2397   */\n      add\n        /* \"#utility.yul\":2344:2407   */\n      tag_57\n      jump\t// in\n    tag_84:\n        /* \"#utility.yul\":2334:2407   */\n      swap2\n      pop\n        /* \"#utility.yul\":2129:2417   */\n      pop\n        /* \"#utility.yul\":1770:2424   */\n      swap3\n      pop\n      swap3\n      swap1\n      pop\n      jump\t// out\n        /* \"#utility.yul\":2430:2548   */\n    tag_85:\n        /* \"#utility.yul\":2517:2541   */\n      tag_87\n        /* \"#utility.yul\":2535:2540   */\n      dup2\n        /* \"#utility.yul\":2517:2541   */\n      tag_88\n      jump\t// in\n    tag_87:\n        /* \"#utility.yul\":2512:2515   */\n      dup3\n        /* \"#utility.yul\":2505:2542   */\n      mstore\n        /* \"#utility.yul\":2430:2548   */\n      pop\n      pop\n      jump\t// out\n        /* \"#utility.yul\":2554:2776   */\n    tag_11:\n        /* \"#utility.yul\":2647:2651   */\n      0x00\n        /* \"#utility.yul\":2685:2687   */\n      0x20\n        /* \"#utility.yul\":2674:2683   */\n      dup3\n        /* \"#utility.yul\":2670:2688   */\n      add\n        /* \"#utility.yul\":2662:2688   */\n      swap1\n      pop\n        /* \"#utility.yul\":2698:2769   */\n      tag_90\n        /* \"#utility.yul\":2766:2767   */\n      0x00\n        /* \"#utility.yul\":2755:2764   */\n      dup4\n        /* \"#utility.yul\":2751:2768   */\n      add\n        /* \"#utility.yul\":2742:2748   */\n      dup5\n        /* \"#utility.yul\":2698:2769   */\n      tag_85\n      jump\t// in\n    tag_90:\n        /* \"#utility.yul\":2554:2776   */\n      swap3\n      swap2\n      pop\n      pop\n      jump\t// out\n        /* \"#utility.yul\":2782:2911   */\n    tag_51:\n        /* \"#utility.yul\":2816:2822   */\n      0x00\n        /* \"#utility.yul\":2843:2863   */\n      tag_92\n      tag_93\n      jump\t// in\n    tag_92:\n        /* \"#utility.yul\":2833:2863   */\n      swap1\n      pop\n        /* \"#utility.yul\":2872:2905   */\n      tag_94\n        /* \"#utility.yul\":2900:2904   */\n      dup3\n        /* \"#utility.yul\":2892:2898   */\n      dup3\n        /* \"#utility.yul\":2872:2905   */\n      tag_95\n      jump\t// in\n    tag_94:\n        /* \"#utility.yul\":2782:2911   */\n      swap2\n      swap1\n      pop\n      jump\t// out\n        /* \"#utility.yul\":2917:2992   */\n    tag_93:\n        /* \"#utility.yul\":2950:2956   */\n      0x00\n        /* \"#utility.yul\":2983:2985   */\n      0x40\n        /* \"#utility.yul\":2977:2986   */\n      mload\n        /* \"#utility.yul\":2967:2986   */\n      swap1\n      pop\n        /* \"#utility.yul\":2917:2992   */\n      swap1\n      jump\t// out\n        /* \"#utility.yul\":2998:3306   */\n    tag_50:\n        /* \"#utility.yul\":3060:3064   */\n      0x00\n        /* \"#utility.yul\":3150:3168   */\n      0xffffffffffffffff\n        /* \"#utility.yul\":3142:3148   */\n      dup3\n        /* \"#utility.yul\":3139:3169   */\n      gt\n        /* \"#utility.yul\":3136:3192   */\n      iszero\n      tag_98\n      jumpi\n        /* \"#utility.yul\":3172:3190   */\n      tag_99\n      tag_100\n      jump\t// in\n    tag_99:\n        /* \"#utility.yul\":3136:3192   */\n    tag_98:\n        /* \"#utility.yul\":3210:3239   */\n      tag_101\n        /* \"#utility.yul\":3232:3238   */\n      dup3\n        /* \"#utility.yul\":3210:3239   */\n      tag_102\n      jump\t// in\n    tag_101:\n        /* \"#utility.yul\":3202:3239   */\n      swap1\n      pop\n        /* \"#utility.yul\":3294:3298   */\n      0x20\n        /* \"#utility.yul\":3288:3292   */\n      dup2\n        /* \"#utility.yul\":3284:3299   */\n      add\n        /* \"#utility.yul\":3276:3299   */\n      swap1\n      pop\n        /* \"#utility.yul\":2998:3306   */\n      swap2\n      swap1\n      pop\n      jump\t// out\n        /* \"#utility.yul\":3312:3503   */\n    tag_26:\n        /* \"#utility.yul\":3352:3356   */\n      0x00\n        /* \"#utility.yul\":3372:3392   */\n      tag_104\n        /* \"#utility.yul\":3390:3391   */\n      dup3\n        /* \"#utility.yul\":3372:3392   */\n      tag_88\n      jump\t// in\n    tag_104:\n        /* \"#utility.yul\":3367:3392   */\n      swap2\n      pop\n        /* \"#utility.yul\":3406:3426   */\n      tag_105\n        /* \"#utility.yul\":3424:3425   */\n      dup4\n        /* \"#utility.yul\":3406:3426   */\n      tag_88\n      jump\t// in\n    tag_105:\n        /* \"#utility.yul\":3401:3426   */\n      swap3\n      pop\n        /* \"#utility.yul\":3445:3446   */\n      dup3\n        /* \"#utility.yul\":3442:3443   */\n      dup3\n        /* \"#utility.yul\":3439:3447   */\n      lt\n        /* \"#utility.yul\":3436:3470   */\n      iszero\n      tag_106\n      jumpi\n        /* \"#utility.yul\":3450:3468   */\n      tag_107\n      tag_108\n      jump\t// in\n    tag_107:\n        /* \"#utility.yul\":3436:3470   */\n    tag_106:\n        /* \"#utility.yul\":3495:3496   */\n      dup3\n        /* \"#utility.yul\":3492:3493   */\n      dup3\n        /* \"#utility.yul\":3488:3497   */\n      sub\n        /* \"#utility.yul\":3480:3497   */\n      swap1\n      pop\n        /* \"#utility.yul\":3312:3503   */\n      swap3\n      swap2\n      pop\n      pop\n      jump\t// out\n        /* \"#utility.yul\":3509:3586   */\n    tag_88:\n        /* \"#utility.yul\":3546:3553   */\n      0x00\n        /* \"#utility.yul\":3575:3580   */\n      dup2\n        /* \"#utility.yul\":3564:3580   */\n      swap1\n      pop\n        /* \"#utility.yul\":3509:3586   */\n      swap2\n      swap1\n      pop\n      jump\t// out\n        /* \"#utility.yul\":3592:3746   */\n    tag_56:\n        /* \"#utility.yul\":3676:3682   */\n      dup3\n        /* \"#utility.yul\":3671:3674   */\n      dup2\n        /* \"#utility.yul\":3666:3669   */\n      dup4\n        /* \"#utility.yul\":3653:3683   */\n      calldatacopy\n        /* \"#utility.yul\":3738:3739   */\n      0x00\n        /* \"#utility.yul\":3729:3735   */\n      dup4\n        /* \"#utility.yul\":3724:3727   */\n      dup4\n        /* \"#utility.yul\":3720:3736   */\n      add\n        /* \"#utility.yul\":3713:3740   */\n      mstore\n        /* \"#utility.yul\":3592:3746   */\n      pop\n      pop\n      pop\n      jump\t// out\n        /* \"#utility.yul\":3752:4072   */\n    tag_35:\n        /* \"#utility.yul\":3796:3802   */\n      0x00\n        /* \"#utility.yul\":3833:3834   */\n      0x02\n        /* \"#utility.yul\":3827:3831   */\n      dup3\n        /* \"#utility.yul\":3823:3835   */\n      div\n        /* \"#utility.yul\":3813:3835   */\n      swap1\n      pop\n        /* \"#utility.yul\":3880:3881   */\n      0x01\n        /* \"#utility.yul\":3874:3878   */\n      dup3\n        /* \"#utility.yul\":3870:3882   */\n      and\n        /* \"#utility.yul\":3901:3919   */\n      dup1\n        /* \"#utility.yul\":3891:3972   */\n      tag_112\n      jumpi\n        /* \"#utility.yul\":3957:3961   */\n      0x7f\n        /* \"#utility.yul\":3949:3955   */\n      dup3\n        /* \"#utility.yul\":3945:3962   */\n      and\n        /* \"#utility.yul\":3935:3962   */\n      swap2\n      pop\n        /* \"#utility.yul\":3891:3972   */\n    tag_112:\n        /* \"#utility.yul\":4019:4021   */\n      0x20\n        /* \"#utility.yul\":4011:4017   */\n      dup3\n        /* \"#utility.yul\":4008:4022   */\n      lt\n        /* \"#utility.yul\":3988:4006   */\n      dup2\n        /* \"#utility.yul\":3985:4023   */\n      eq\n        /* \"#utility.yul\":3982:4066   */\n      iszero\n      tag_113\n      jumpi\n        /* \"#utility.yul\":4038:4056   */\n      tag_114\n      tag_115\n      jump\t// in\n    tag_114:\n        /* \"#utility.yul\":3982:4066   */\n    tag_113:\n        /* \"#utility.yul\":3803:4072   */\n      pop\n        /* \"#utility.yul\":3752:4072   */\n      swap2\n      swap1\n      pop\n      jump\t// out\n        /* \"#utility.yul\":4078:4359   */\n    tag_95:\n        /* \"#utility.yul\":4161:4188   */\n      tag_117\n        /* \"#utility.yul\":4183:4187   */\n      dup3\n        /* \"#utility.yul\":4161:4188   */\n      tag_102\n      jump\t// in\n    tag_117:\n        /* \"#utility.yul\":4153:4159   */\n      dup2\n        /* \"#utility.yul\":4149:4189   */\n      add\n        /* \"#utility.yul\":4291:4297   */\n      dup2\n        /* \"#utility.yul\":4279:4289   */\n      dup2\n        /* \"#utility.yul\":4276:4298   */\n      lt\n        /* \"#utility.yul\":4255:4273   */\n      0xffffffffffffffff\n        /* \"#utility.yul\":4243:4253   */\n      dup3\n        /* \"#utility.yul\":4240:4274   */\n      gt\n        /* \"#utility.yul\":4237:4299   */\n      or\n        /* \"#utility.yul\":4234:4322   */\n      iszero\n      tag_118\n      jumpi\n        /* \"#utility.yul\":4302:4320   */\n      tag_119\n      tag_100\n      jump\t// in\n    tag_119:\n        /* \"#utility.yul\":4234:4322   */\n    tag_118:\n        /* \"#utility.yul\":4342:4352   */\n      dup1\n        /* \"#utility.yul\":4338:4340   */\n      0x40\n        /* \"#utility.yul\":4331:4353   */\n      mstore\n        /* \"#utility.yul\":4121:4359   */\n      pop\n        /* \"#utility.yul\":4078:4359   */\n      pop\n      pop\n      jump\t// out\n        /* \"#utility.yul\":4365:4598   */\n    tag_21:\n        /* \"#utility.yul\":4404:4407   */\n      0x00\n        /* \"#utility.yul\":4427:4451   */\n      tag_121\n        /* \"#utility.yul\":4445:4450   */\n      dup3\n        /* \"#utility.yul\":4427:4451   */\n      tag_88\n      jump\t// in\n    tag_121:\n        /* \"#utility.yul\":4418:4451   */\n      swap2\n      pop\n        /* \"#utility.yul\":4473:4539   */\n      0xffffffffffffffffffffffffffffffffffffffffffffffffffffffffffffffff\n        /* \"#utility.yul\":4466:4471   */\n      dup3\n        /* \"#utility.yul\":4463:4540   */\n      eq\n        /* \"#utility.yul\":4460:4563   */\n      iszero\n      tag_122\n      jumpi\n        /* \"#utility.yul\":4543:4561   */\n      tag_123\n      tag_108\n      jump\t// in\n    tag_123:\n        /* \"#utility.yul\":4460:4563   */\n    tag_122:\n        /* \"#utility.yul\":4590:4591   */\n      0x01\n        /* \"#utility.yul\":4583:4588   */\n      dup3\n        /* \"#utility.yul\":4579:4592   */\n      add\n        /* \"#utility.yul\":4572:4592   */\n      swap1\n      pop\n        /* \"#utility.yul\":4365:4598   */\n      swap2\n      swap1\n      pop\n      jump\t// out\n        /* \"#utility.yul\":4604:4784   */\n    tag_108:\n        /* \"#utility.yul\":4652:4729   */\n      0x4e487b7100000000000000000000000000000000000000000000000000000000\n        /* \"#utility.yul\":4649:4650   */\n      0x00\n        /* \"#utility.yul\":4642:4730   */\n      mstore\n        /* \"#utility.yul\":4749:4753   */\n      0x11\n        /* \"#utility.yul\":4746:4747   */\n      0x04\n        /* \"#utility.yul\":4739:4754   */\n      mstore\n        /* \"#utility.yul\":4773:4777   */\n      0x24\n        /* \"#utility.yul\":4770:4771   */\n      0x00\n        /* \"#utility.yul\":4763:4778   */\n      revert\n        /* \"#utility.yul\":4790:4970   */\n    tag_115:\n        /* \"#utility.yul\":4838:4915   */\n      0x4e487b7100000000000000000000000000000000000000000000000000000000\n        /* \"#utility.yul\":4835:4836   */\n      0x00\n        /* \"#utility.yul\":4828:4916   */\n      mstore\n        /* \"#utility.yul\":4935:4939   */\n      0x22\n        /* \"#utility.yul\":4932:4933   */\n      0x04\n        /* \"#utility.yul\":4925:4940   */\n      mstore\n        /* \"#utility.yul\":4959:4963   */\n      0x24\n        /* \"#utility.yul\":4956:4957   */\n      0x00\n        /* \"#utility.yul\":4949:4964   */\n      revert\n        /* \"#utility.yul\":4976:5156   */\n    tag_100:\n        /* \"#utility.yul\":5024:5101   */\n      0x4e487b7100000000000000000000000000000000000000000000000000000000\n        /* \"#utility.yul\":5021:5022   */\n      0x00\n        /* \"#utility.yul\":5014:5102   */\n      mstore\n        /* \"#utility.yul\":5121:5125   */\n      0x41\n        /* \"#utility.yul\":5118:5119   */\n      0x04\n        /* \"#utility.yul\":5111:5126   */\n      mstore\n        /* \"#utility.yul\":5145:5149   */\n      0x24\n        /* \"#utility.yul\":5142:5143   */\n      0x00\n        /* \"#utility.yul\":5135:5150   */\n      revert\n        /* \"#utility.yul\":5162:5279   */\n    tag_61:\n        /* \"#utility.yul\":5271:5272   */\n      0x00\n        /* \"#utility.yul\":5268:5269   */\n      dup1\n        /* \"#utility.yul\":5261:5273   */\n      revert\n        /* \"#utility.yul\":5285:5402   */\n    tag_54:\n        /* \"#utility.yul\":5394:5395   */\n      0x00\n        /* \"#utility.yul\":5391:5392   */\n      dup1\n        /* \"#utility.yul\":5384:5396   */\n      revert\n        /* \"#utility.yul\":5408:5525   */\n    tag_73:\n        /* \"#utility.yul\":5517:5518   */\n      0x00\n        /* \"#utility.yul\":5514:5515   */\n      dup1\n        /* \"#utility.yul\":5507:5519   */\n      revert\n        /* \"#utility.yul\":5531:5648   */\n    tag_70:\n        /* \"#utility.yul\":5640:5641   */\n      0x00\n        /* \"#utility.yul\":5637:5638   */\n      dup1\n        /* \"#utility.yul\":5630:5642   */\n      revert\n        /* \"#utility.yul\":5654:5756   */\n    tag_102:\n        /* \"#utility.yul\":5695:5701   */\n      0x00\n        /* \"#utility.yul\":5746:5748   */\n      0x1f\n        /* \"#utility.yul\":5742:5749   */\n      not\n        /* \"#utility.yul\":5737:5739   */\n      0x1f\n        /* \"#utility.yul\":5730:5735   */\n      dup4\n        /* \"#utility.yul\":5726:5740   */\n      add\n        /* \"#utility.yul\":5722:5750   */\n      and\n        /* \"#utility.yul\":5712:5750   */\n      swap1\n      pop\n        /* \"#utility.yul\":5654:5756   */\n      swap2\n      swap1\n      pop\n      jump\t// out\n        /* \"#utility.yul\":5762:5884   */\n    tag_66:\n        /* \"#utility.yul\":5835:5859   */\n      tag_133\n        /* \"#utility.yul\":5853:5858   */\n      dup2\n        /* \"#utility.yul\":5835:5859   */\n      tag_88\n      jump\t// in\n    tag_133:\n        /* \"#utility.yul\":5828:5833   */\n      dup2\n        /* \"#utility.yul\":5825:5860   */\n      eq\n        /* \"#utility.yul\":5815:5878   */\n      tag_134\n      jumpi\n        /* \"#utility.yul\":5874:5875   */\n      0x00\n        /* \"#utility.yul\":5871:5872   */\n      dup1\n        /* \"#utility.yul\":5864:5876   */\n      revert\n        /* \"#utility.yul\":5815:5878   */\n    tag_134:\n        /* \"#utility.yul\":5762:5884   */\n      pop\n      jump\t// out\n\n    auxdata: 0xa26469706673582212208f9dfefe8c4fd3d9ad2da9af4ae7647d24fea0edf6a090f04f575c7bb825850064736f6c63430008070033\n}\n",
				"bytecode": {
					"linkReferences": {},
					"object": "6080604052600060015534801561001557600080fd5b50610732806100256000396000f3fe608060405234801561001057600080fd5b50600436106100415760003560e01c80635ea81a3214610046578063ea57d5d414610076578063f183929b14610092575b600080fd5b610060600480360381019061005b91906103e6565b6100ae565b60405161006d91906104c9565b60405180910390f35b610090600480360381019061008b919061045e565b6101ae565b005b6100ac60048036038101906100a7919061045e565b610236565b005b600080600080600160008154809291906100c7906105ea565b9190505581526020019081526020016000209050838160000190805190602001906100f39291906102be565b508281600101908051906020019061010c9291906102be565b5060008160020181905550338160030160006101000a81548173ffffffffffffffffffffffffffffffffffffffff021916908373ffffffffffffffffffffffffffffffffffffffff1602179055506000816005018190555060008160060160006101000a81548160ff0219169083151502179055506001805461018f919061053a565b8160070181905550600180546101a5919061053a565b91505092915050565b60008060008481526020019081526020016000209050604051806040016040528083815260200160008152508160040160008360050160008154809291906101f5906105ea565b91905055815260200190815260200160002060008201518160000190805190602001906102239291906102be565b5060208201518160010155905050505050565b600080600084815260200190815260200160002090506040518060400160405280838152602001600081525081600401600083600501600081548092919061027d906105ea565b91905055815260200190815260200160002060008201518160000190805190602001906102ab9291906102be565b5060208201518160010155905050505050565b8280546102ca90610587565b90600052602060002090601f0160209004810192826102ec5760008555610333565b82601f1061030557805160ff1916838001178555610333565b82800160010185558215610333579182015b82811115610332578251825591602001919060010190610317565b5b5090506103409190610344565b5090565b5b8082111561035d576000816000905550600101610345565b5090565b600061037461036f84610509565b6104e4565b9050828152602081018484840111156103905761038f6106c5565b5b61039b848285610578565b509392505050565b600082601f8301126103b8576103b76106c0565b5b81356103c8848260208601610361565b91505092915050565b6000813590506103e0816106e5565b92915050565b600080604083850312156103fd576103fc6106cf565b5b600083013567ffffffffffffffff81111561041b5761041a6106ca565b5b610427858286016103a3565b925050602083013567ffffffffffffffff811115610448576104476106ca565b5b610454858286016103a3565b9150509250929050565b60008060408385031215610475576104746106cf565b5b6000610483858286016103d1565b925050602083013567ffffffffffffffff8111156104a4576104a36106ca565b5b6104b0858286016103a3565b9150509250929050565b6104c38161056e565b82525050565b60006020820190506104de60008301846104ba565b92915050565b60006104ee6104ff565b90506104fa82826105b9565b919050565b6000604051905090565b600067ffffffffffffffff82111561052457610523610691565b5b61052d826106d4565b9050602081019050919050565b60006105458261056e565b91506105508361056e565b92508282101561056357610562610633565b5b828203905092915050565b6000819050919050565b82818337600083830152505050565b6000600282049050600182168061059f57607f821691505b602082108114156105b3576105b2610662565b5b50919050565b6105c2826106d4565b810181811067ffffffffffffffff821117156105e1576105e0610691565b5b80604052505050565b60006105f58261056e565b91507fffffffffffffffffffffffffffffffffffffffffffffffffffffffffffffffff82141561062857610627610633565b5b600182019050919050565b7f4e487b7100000000000000000000000000000000000000000000000000000000600052601160045260246000fd5b7f4e487b7100000000000000000000000000000000000000000000000000000000600052602260045260246000fd5b7f4e487b7100000000000000000000000000000000000000000000000000000000600052604160045260246000fd5b600080fd5b600080fd5b600080fd5b600080fd5b6000601f19601f8301169050919050565b6106ee8161056e565b81146106f957600080fd5b5056fea26469706673582212208f9dfefe8c4fd3d9ad2da9af4ae7647d24fea0edf6a090f04f575c7bb825850064736f6c63430008070033",
					"opcodes": "PUSH1 0x80 PUSH1 0x40 MSTORE PUSH1 0x0 PUSH1 0x1 SSTORE CALLVALUE DUP1 ISZERO PUSH2 0x15 JUMPI PUSH1 0x0 DUP1 REVERT JUMPDEST POP PUSH2 0x732 DUP1 PUSH2 0x25 PUSH1 0x0 CODECOPY PUSH1 0x0 RETURN INVALID PUSH1 0x80 PUSH1 0x40 MSTORE CALLVALUE DUP1 ISZERO PUSH2 0x10 JUMPI PUSH1 0x0 DUP1 REVERT JUMPDEST POP PUSH1 0x4 CALLDATASIZE LT PUSH2 0x41 JUMPI PUSH1 0x0 CALLDATALOAD PUSH1 0xE0 SHR DUP1 PUSH4 0x5EA81A32 EQ PUSH2 0x46 JUMPI DUP1 PUSH4 0xEA57D5D4 EQ PUSH2 0x76 JUMPI DUP1 PUSH4 0xF183929B EQ PUSH2 0x92 JUMPI JUMPDEST PUSH1 0x0 DUP1 REVERT JUMPDEST PUSH2 0x60 PUSH1 0x4 DUP1 CALLDATASIZE SUB DUP2 ADD SWAP1 PUSH2 0x5B SWAP2 SWAP1 PUSH2 0x3E6 JUMP JUMPDEST PUSH2 0xAE JUMP JUMPDEST PUSH1 0x40 MLOAD PUSH2 0x6D SWAP2 SWAP1 PUSH2 0x4C9 JUMP JUMPDEST PUSH1 0x40 MLOAD DUP1 SWAP2 SUB SWAP1 RETURN JUMPDEST PUSH2 0x90 PUSH1 0x4 DUP1 CALLDATASIZE SUB DUP2 ADD SWAP1 PUSH2 0x8B SWAP2 SWAP1 PUSH2 0x45E JUMP JUMPDEST PUSH2 0x1AE JUMP JUMPDEST STOP JUMPDEST PUSH2 0xAC PUSH1 0x4 DUP1 CALLDATASIZE SUB DUP2 ADD SWAP1 PUSH2 0xA7 SWAP2 SWAP1 PUSH2 0x45E JUMP JUMPDEST PUSH2 0x236 JUMP JUMPDEST STOP JUMPDEST PUSH1 0x0 DUP1 PUSH1 0x0 DUP1 PUSH1 0x1 PUSH1 0x0 DUP2 SLOAD DUP1 SWAP3 SWAP2 SWAP1 PUSH2 0xC7 SWAP1 PUSH2 0x5EA JUMP JUMPDEST SWAP2 SWAP1 POP SSTORE DUP2 MSTORE PUSH1 0x20 ADD SWAP1 DUP2 MSTORE PUSH1 0x20 ADD PUSH1 0x0 KECCAK256 SWAP1 POP DUP4 DUP2 PUSH1 0x0 ADD SWAP1 DUP1 MLOAD SWAP1 PUSH1 0x20 ADD SWAP1 PUSH2 0xF3 SWAP3 SWAP2 SWAP1 PUSH2 0x2BE JUMP JUMPDEST POP DUP3 DUP2 PUSH1 0x1 ADD SWAP1 DUP1 MLOAD SWAP1 PUSH1 0x20 ADD SWAP1 PUSH2 0x10C SWAP3 SWAP2 SWAP1 PUSH2 0x2BE JUMP JUMPDEST POP PUSH1 0x0 DUP2 PUSH1 0x2 ADD DUP2 SWAP1 SSTORE POP CALLER DUP2 PUSH1 0x3 ADD PUSH1 0x0 PUSH2 0x100 EXP DUP2 SLOAD DUP2 PUSH20 0xFFFFFFFFFFFFFFFFFFFFFFFFFFFFFFFFFFFFFFFF MUL NOT AND SWAP1 DUP4 PUSH20 0xFFFFFFFFFFFFFFFFFFFFFFFFFFFFFFFFFFFFFFFF AND MUL OR SWAP1 SSTORE POP PUSH1 0x0 DUP2 PUSH1 0x5 ADD DUP2 SWAP1 SSTORE POP PUSH1 0x0 DUP2 PUSH1 0x6 ADD PUSH1 0x0 PUSH2 0x100 EXP DUP2 SLOAD DUP2 PUSH1 0xFF MUL NOT AND SWAP1 DUP4 ISZERO ISZERO MUL OR SWAP1 SSTORE POP PUSH1 0x1 DUP1 SLOAD PUSH2 0x18F SWAP2 SWAP1 PUSH2 0x53A JUMP JUMPDEST DUP2 PUSH1 0x7 ADD DUP2 SWAP1 SSTORE POP PUSH1 0x1 DUP1 SLOAD PUSH2 0x1A5 SWAP2 SWAP1 PUSH2 0x53A JUMP JUMPDEST SWAP2 POP POP SWAP3 SWAP2 POP POP JUMP JUMPDEST PUSH1 0x0 DUP1 PUSH1 0x0 DUP5 DUP2 MSTORE PUSH1 0x20 ADD SWAP1 DUP2 MSTORE PUSH1 0x20 ADD PUSH1 0x0 KECCAK256 SWAP1 POP PUSH1 0x40 MLOAD DUP1 PUSH1 0x40 ADD PUSH1 0x40 MSTORE DUP1 DUP4 DUP2 MSTORE PUSH1 0x20 ADD PUSH1 0x0 DUP2 MSTORE POP DUP2 PUSH1 0x4 ADD PUSH1 0x0 DUP4 PUSH1 0x5 ADD PUSH1 0x0 DUP2 SLOAD DUP1 SWAP3 SWAP2 SWAP1 PUSH2 0x1F5 SWAP1 PUSH2 0x5EA JUMP JUMPDEST SWAP2 SWAP1 POP SSTORE DUP2 MSTORE PUSH1 0x20 ADD SWAP1 DUP2 MSTORE PUSH1 0x20 ADD PUSH1 0x0 KECCAK256 PUSH1 0x0 DUP3 ADD MLOAD DUP2 PUSH1 0x0 ADD SWAP1 DUP1 MLOAD SWAP1 PUSH1 0x20 ADD SWAP1 PUSH2 0x223 SWAP3 SWAP2 SWAP1 PUSH2 0x2BE JUMP JUMPDEST POP PUSH1 0x20 DUP3 ADD MLOAD DUP2 PUSH1 0x1 ADD SSTORE SWAP1 POP POP POP POP POP JUMP JUMPDEST PUSH1 0x0 DUP1 PUSH1 0x0 DUP5 DUP2 MSTORE PUSH1 0x20 ADD SWAP1 DUP2 MSTORE PUSH1 0x20 ADD PUSH1 0x0 KECCAK256 SWAP1 POP PUSH1 0x40 MLOAD DUP1 PUSH1 0x40 ADD PUSH1 0x40 MSTORE DUP1 DUP4 DUP2 MSTORE PUSH1 0x20 ADD PUSH1 0x0 DUP2 MSTORE POP DUP2 PUSH1 0x4 ADD PUSH1 0x0 DUP4 PUSH1 0x5 ADD PUSH1 0x0 DUP2 SLOAD DUP1 SWAP3 SWAP2 SWAP1 PUSH2 0x27D SWAP1 PUSH2 0x5EA JUMP JUMPDEST SWAP2 SWAP1 POP SSTORE DUP2 MSTORE PUSH1 0x20 ADD SWAP1 DUP2 MSTORE PUSH1 0x20 ADD PUSH1 0x0 KECCAK256 PUSH1 0x0 DUP3 ADD MLOAD DUP2 PUSH1 0x0 ADD SWAP1 DUP1 MLOAD SWAP1 PUSH1 0x20 ADD SWAP1 PUSH2 0x2AB SWAP3 SWAP2 SWAP1 PUSH2 0x2BE JUMP JUMPDEST POP PUSH1 0x20 DUP3 ADD MLOAD DUP2 PUSH1 0x1 ADD SSTORE SWAP1 POP POP POP POP POP JUMP JUMPDEST DUP3 DUP1 SLOAD PUSH2 0x2CA SWAP1 PUSH2 0x587 JUMP JUMPDEST SWAP1 PUSH1 0x0 MSTORE PUSH1 0x20 PUSH1 0x0 KECCAK256 SWAP1 PUSH1 0x1F ADD PUSH1 0x20 SWAP1 DIV DUP2 ADD SWAP3 DUP3 PUSH2 0x2EC JUMPI PUSH1 0x0 DUP6 SSTORE PUSH2 0x333 JUMP JUMPDEST DUP3 PUSH1 0x1F LT PUSH2 0x305 JUMPI DUP1 MLOAD PUSH1 0xFF NOT AND DUP4 DUP1 ADD OR DUP6 SSTORE PUSH2 0x333 JUMP JUMPDEST DUP3 DUP1 ADD PUSH1 0x1 ADD DUP6 SSTORE DUP3 ISZERO PUSH2 0x333 JUMPI SWAP2 DUP3 ADD JUMPDEST DUP3 DUP2 GT ISZERO PUSH2 0x332 JUMPI DUP3 MLOAD DUP3 SSTORE SWAP2 PUSH1 0x20 ADD SWAP2 SWAP1 PUSH1 0x1 ADD SWAP1 PUSH2 0x317 JUMP JUMPDEST JUMPDEST POP SWAP1 POP PUSH2 0x340 SWAP2 SWAP1 PUSH2 0x344 JUMP JUMPDEST POP SWAP1 JUMP JUMPDEST JUMPDEST DUP1 DUP3 GT ISZERO PUSH2 0x35D JUMPI PUSH1 0x0 DUP2 PUSH1 0x0 SWAP1 SSTORE POP PUSH1 0x1 ADD PUSH2 0x345 JUMP JUMPDEST POP SWAP1 JUMP JUMPDEST PUSH1 0x0 PUSH2 0x374 PUSH2 0x36F DUP5 PUSH2 0x509 JUMP JUMPDEST PUSH2 0x4E4 JUMP JUMPDEST SWAP1 POP DUP3 DUP2 MSTORE PUSH1 0x20 DUP2 ADD DUP5 DUP5 DUP5 ADD GT ISZERO PUSH2 0x390 JUMPI PUSH2 0x38F PUSH2 0x6C5 JUMP JUMPDEST JUMPDEST PUSH2 0x39B DUP5 DUP3 DUP6 PUSH2 0x578 JUMP JUMPDEST POP SWAP4 SWAP3 POP POP POP JUMP JUMPDEST PUSH1 0x0 DUP3 PUSH1 0x1F DUP4 ADD SLT PUSH2 0x3B8 JUMPI PUSH2 0x3B7 PUSH2 0x6C0 JUMP JUMPDEST JUMPDEST DUP2 CALLDATALOAD PUSH2 0x3C8 DUP5 DUP3 PUSH1 0x20 DUP7 ADD PUSH2 0x361 JUMP JUMPDEST SWAP2 POP POP SWAP3 SWAP2 POP POP JUMP JUMPDEST PUSH1 0x0 DUP2 CALLDATALOAD SWAP1 POP PUSH2 0x3E0 DUP2 PUSH2 0x6E5 JUMP JUMPDEST SWAP3 SWAP2 POP POP JUMP JUMPDEST PUSH1 0x0 DUP1 PUSH1 0x40 DUP4 DUP6 SUB SLT ISZERO PUSH2 0x3FD JUMPI PUSH2 0x3FC PUSH2 0x6CF JUMP JUMPDEST JUMPDEST PUSH1 0x0 DUP4 ADD CALLDATALOAD PUSH8 0xFFFFFFFFFFFFFFFF DUP2 GT ISZERO PUSH2 0x41B JUMPI PUSH2 0x41A PUSH2 0x6CA JUMP JUMPDEST JUMPDEST PUSH2 0x427 DUP6 DUP3 DUP7 ADD PUSH2 0x3A3 JUMP JUMPDEST SWAP3 POP POP PUSH1 0x20 DUP4 ADD CALLDATALOAD PUSH8 0xFFFFFFFFFFFFFFFF DUP2 GT ISZERO PUSH2 0x448 JUMPI PUSH2 0x447 PUSH2 0x6CA JUMP JUMPDEST JUMPDEST PUSH2 0x454 DUP6 DUP3 DUP7 ADD PUSH2 0x3A3 JUMP JUMPDEST SWAP2 POP POP SWAP3 POP SWAP3 SWAP1 POP JUMP JUMPDEST PUSH1 0x0 DUP1 PUSH1 0x40 DUP4 DUP6 SUB SLT ISZERO PUSH2 0x475 JUMPI PUSH2 0x474 PUSH2 0x6CF JUMP JUMPDEST JUMPDEST PUSH1 0x0 PUSH2 0x483 DUP6 DUP3 DUP7 ADD PUSH2 0x3D1 JUMP JUMPDEST SWAP3 POP POP PUSH1 0x20 DUP4 ADD CALLDATALOAD PUSH8 0xFFFFFFFFFFFFFFFF DUP2 GT ISZERO PUSH2 0x4A4 JUMPI PUSH2 0x4A3 PUSH2 0x6CA JUMP JUMPDEST JUMPDEST PUSH2 0x4B0 DUP6 DUP3 DUP7 ADD PUSH2 0x3A3 JUMP JUMPDEST SWAP2 POP POP SWAP3 POP SWAP3 SWAP1 POP JUMP JUMPDEST PUSH2 0x4C3 DUP2 PUSH2 0x56E JUMP JUMPDEST DUP3 MSTORE POP POP JUMP JUMPDEST PUSH1 0x0 PUSH1 0x20 DUP3 ADD SWAP1 POP PUSH2 0x4DE PUSH1 0x0 DUP4 ADD DUP5 PUSH2 0x4BA JUMP JUMPDEST SWAP3 SWAP2 POP POP JUMP JUMPDEST PUSH1 0x0 PUSH2 0x4EE PUSH2 0x4FF JUMP JUMPDEST SWAP1 POP PUSH2 0x4FA DUP3 DUP3 PUSH2 0x5B9 JUMP JUMPDEST SWAP2 SWAP1 POP JUMP JUMPDEST PUSH1 0x0 PUSH1 0x40 MLOAD SWAP1 POP SWAP1 JUMP JUMPDEST PUSH1 0x0 PUSH8 0xFFFFFFFFFFFFFFFF DUP3 GT ISZERO PUSH2 0x524 JUMPI PUSH2 0x523 PUSH2 0x691 JUMP JUMPDEST JUMPDEST PUSH2 0x52D DUP3 PUSH2 0x6D4 JUMP JUMPDEST SWAP1 POP PUSH1 0x20 DUP2 ADD SWAP1 POP SWAP2 SWAP1 POP JUMP JUMPDEST PUSH1 0x0 PUSH2 0x545 DUP3 PUSH2 0x56E JUMP JUMPDEST SWAP2 POP PUSH2 0x550 DUP4 PUSH2 0x56E JUMP JUMPDEST SWAP3 POP DUP3 DUP3 LT ISZERO PUSH2 0x563 JUMPI PUSH2 0x562 PUSH2 0x633 JUMP JUMPDEST JUMPDEST DUP3 DUP3 SUB SWAP1 POP SWAP3 SWAP2 POP POP JUMP JUMPDEST PUSH1 0x0 DUP2 SWAP1 POP SWAP2 SWAP1 POP JUMP JUMPDEST DUP3 DUP2 DUP4 CALLDATACOPY PUSH1 0x0 DUP4 DUP4 ADD MSTORE POP POP POP JUMP JUMPDEST PUSH1 0x0 PUSH1 0x2 DUP3 DIV SWAP1 POP PUSH1 0x1 DUP3 AND DUP1 PUSH2 0x59F JUMPI PUSH1 0x7F DUP3 AND SWAP2 POP JUMPDEST PUSH1 0x20 DUP3 LT DUP2 EQ ISZERO PUSH2 0x5B3 JUMPI PUSH2 0x5B2 PUSH2 0x662 JUMP JUMPDEST JUMPDEST POP SWAP2 SWAP1 POP JUMP JUMPDEST PUSH2 0x5C2 DUP3 PUSH2 0x6D4 JUMP JUMPDEST DUP2 ADD DUP2 DUP2 LT PUSH8 0xFFFFFFFFFFFFFFFF DUP3 GT OR ISZERO PUSH2 0x5E1 JUMPI PUSH2 0x5E0 PUSH2 0x691 JUMP JUMPDEST JUMPDEST DUP1 PUSH1 0x40 MSTORE POP POP POP JUMP JUMPDEST PUSH1 0x0 PUSH2 0x5F5 DUP3 PUSH2 0x56E JUMP JUMPDEST SWAP2 POP PUSH32 0xFFFFFFFFFFFFFFFFFFFFFFFFFFFFFFFFFFFFFFFFFFFFFFFFFFFFFFFFFFFFFFFF DUP3 EQ ISZERO PUSH2 0x628 JUMPI PUSH2 0x627 PUSH2 0x633 JUMP JUMPDEST JUMPDEST PUSH1 0x1 DUP3 ADD SWAP1 POP SWAP2 SWAP1 POP JUMP JUMPDEST PUSH32 0x4E487B7100000000000000000000000000000000000000000000000000000000 PUSH1 0x0 MSTORE PUSH1 0x11 PUSH1 0x4 MSTORE PUSH1 0x24 PUSH1 0x0 REVERT JUMPDEST PUSH32 0x4E487B7100000000000000000000000000000000000000000000000000000000 PUSH1 0x0 MSTORE PUSH1 0x22 PUSH1 0x4 MSTORE PUSH1 0x24 PUSH1 0x0 REVERT JUMPDEST PUSH32 0x4E487B7100000000000000000000000000000000000000000000000000000000 PUSH1 0x0 MSTORE PUSH1 0x41 PUSH1 0x4 MSTORE PUSH1 0x24 PUSH1 0x0 REVERT JUMPDEST PUSH1 0x0 DUP1 REVERT JUMPDEST PUSH1 0x0 DUP1 REVERT JUMPDEST PUSH1 0x0 DUP1 REVERT JUMPDEST PUSH1 0x0 DUP1 REVERT JUMPDEST PUSH1 0x0 PUSH1 0x1F NOT PUSH1 0x1F DUP4 ADD AND SWAP1 POP SWAP2 SWAP1 POP JUMP JUMPDEST PUSH2 0x6EE DUP2 PUSH2 0x56E JUMP JUMPDEST DUP2 EQ PUSH2 0x6F9 JUMPI PUSH1 0x0 DUP1 REVERT JUMPDEST POP JUMP INVALID LOG2 PUSH5 0x6970667358 0x22 SLT KECCAK256 DUP16 SWAP14 INVALID INVALID DUP13 0x4F 0xD3 0xD9 0xAD 0x2D 0xA9 0xAF 0x4A 0xE7 PUSH5 0x7D24FEA0ED 0xF6 LOG0 SWAP1 CREATE 0x4F JUMPI 0x5C PUSH28 0xB825850064736F6C6343000807003300000000000000000000000000 "
				},
				"gasEstimates": {
					"creation": {
						"codeDepositCost": "368400",
						"executionCost": "5411",
						"totalCost": "373811"
					},
					"external": {
						"addOption(uint256,string)": "infinite",
						"createPool(string,string)": "infinite",
						"startPool(uint256,string)": "infinite"
					}
				},
				"methodIdentifiers": {
					"addOption(uint256,string)": "ea57d5d4",
					"createPool(string,string)": "5ea81a32",
					"startPool(uint256,string)": "f183929b"
				}
			},
			"userdoc": {
				"kind": "user",
				"methods": {},
				"version": 1
			}
		}
	}
}