{
	"contracts/eVoting_app.sol": {
		"EVoteApp": {
			"abi": [
				{
					"inputs": [
						{
							"internalType": "address",
							"name": "",
							"type": "address"
						}
					],
					"name": "pools",
					"outputs": [
						{
							"internalType": "string",
							"name": "name",
							"type": "string"
						},
						{
							"internalType": "string",
							"name": "description",
							"type": "string"
						},
						{
							"internalType": "uint256",
							"name": "totalV",
							"type": "uint256"
						},
						{
							"internalType": "address",
							"name": "owner",
							"type": "address"
						}
					],
					"stateMutability": "view",
					"type": "function"
				}
			],
			"devdoc": {
				"kind": "dev",
				"methods": {},
				"version": 1
			},
			"evm": {
				"assembly": "    /* \"contracts/eVoting_app.sol\":71:494  contract EVoteApp{... */\n  mstore(0x40, 0x80)\n  callvalue\n  dup1\n  iszero\n  tag_1\n  jumpi\n  0x00\n  dup1\n  revert\ntag_1:\n  pop\n  dataSize(sub_0)\n  dup1\n  dataOffset(sub_0)\n  0x00\n  codecopy\n  0x00\n  return\nstop\n\nsub_0: assembly {\n        /* \"contracts/eVoting_app.sol\":71:494  contract EVoteApp{... */\n      mstore(0x40, 0x80)\n      callvalue\n      dup1\n      iszero\n      tag_1\n      jumpi\n      0x00\n      dup1\n      revert\n    tag_1:\n      pop\n      jumpi(tag_2, lt(calldatasize, 0x04))\n      shr(0xe0, calldataload(0x00))\n      dup1\n      0xa4063dbc\n      eq\n      tag_3\n      jumpi\n    tag_2:\n      0x00\n      dup1\n      revert\n        /* \"contracts/eVoting_app.sol\":454:491  mapping(address => Pool) public pools */\n    tag_3:\n      tag_4\n      0x04\n      dup1\n      calldatasize\n      sub\n      dup2\n      add\n      swap1\n      tag_5\n      swap2\n      swap1\n      tag_6\n      jump\t// in\n    tag_5:\n      tag_7\n      jump\t// in\n    tag_4:\n      mload(0x40)\n      tag_8\n      swap5\n      swap4\n      swap3\n      swap2\n      swap1\n      tag_9\n      jump\t// in\n    tag_8:\n      mload(0x40)\n      dup1\n      swap2\n      sub\n      swap1\n      return\n    tag_7:\n      mstore(0x20, 0x00)\n      dup1\n      0x00\n      mstore\n      keccak256(0x00, 0x40)\n      0x00\n      swap2\n      pop\n      swap1\n      pop\n      dup1\n      0x00\n      add\n      dup1\n      sload\n      tag_10\n      swap1\n      tag_11\n      jump\t// in\n    tag_10:\n      dup1\n      0x1f\n      add\n      0x20\n      dup1\n      swap2\n      div\n      mul\n      0x20\n      add\n      mload(0x40)\n      swap1\n      dup2\n      add\n      0x40\n      mstore\n      dup1\n      swap3\n      swap2\n      swap1\n      dup2\n      dup2\n      mstore\n      0x20\n      add\n      dup3\n      dup1\n      sload\n      tag_12\n      swap1\n      tag_11\n      jump\t// in\n    tag_12:\n      dup1\n      iszero\n      tag_13\n      jumpi\n      dup1\n      0x1f\n      lt\n      tag_14\n      jumpi\n      0x0100\n      dup1\n      dup4\n      sload\n      div\n      mul\n      dup4\n      mstore\n      swap2\n      0x20\n      add\n      swap2\n      jump(tag_13)\n    tag_14:\n      dup3\n      add\n      swap2\n      swap1\n      0x00\n      mstore\n      keccak256(0x00, 0x20)\n      swap1\n    tag_15:\n      dup2\n      sload\n      dup2\n      mstore\n      swap1\n      0x01\n      add\n      swap1\n      0x20\n      add\n      dup1\n      dup4\n      gt\n      tag_15\n      jumpi\n      dup3\n      swap1\n      sub\n      0x1f\n      and\n      dup3\n      add\n      swap2\n    tag_13:\n      pop\n      pop\n      pop\n      pop\n      pop\n      swap1\n      dup1\n      0x01\n      add\n      dup1\n      sload\n      tag_16\n      swap1\n      tag_11\n      jump\t// in\n    tag_16:\n      dup1\n      0x1f\n      add\n      0x20\n      dup1\n      swap2\n      div\n      mul\n      0x20\n      add\n      mload(0x40)\n      swap1\n      dup2\n      add\n      0x40\n      mstore\n      dup1\n      swap3\n      swap2\n      swap1\n      dup2\n      dup2\n      mstore\n      0x20\n      add\n      dup3\n      dup1\n      sload\n      tag_17\n      swap1\n      tag_11\n      jump\t// in\n    tag_17:\n      dup1\n      iszero\n      tag_18\n      jumpi\n      dup1\n      0x1f\n      lt\n      tag_19\n      jumpi\n      0x0100\n      dup1\n      dup4\n      sload\n      div\n      mul\n      dup4\n      mstore\n      swap2\n      0x20\n      add\n      swap2\n      jump(tag_18)\n    tag_19:\n      dup3\n      add\n      swap2\n      swap1\n      0x00\n      mstore\n      keccak256(0x00, 0x20)\n      swap1\n    tag_20:\n      dup2\n      sload\n      dup2\n      mstore\n      swap1\n      0x01\n      add\n      swap1\n      0x20\n      add\n      dup1\n      dup4\n      gt\n      tag_20\n      jumpi\n      dup3\n      swap1\n      sub\n      0x1f\n      and\n      dup3\n      add\n      swap2\n    tag_18:\n      pop\n      pop\n      pop\n      pop\n      pop\n      swap1\n      dup1\n      0x02\n      add\n      sload\n      swap1\n      dup1\n      0x03\n      add\n      0x00\n      swap1\n      sload\n      swap1\n      0x0100\n      exp\n      swap1\n      div\n      0xffffffffffffffffffffffffffffffffffffffff\n      and\n      swap1\n      pop\n      dup5\n      jump\t// out\n        /* \"#utility.yul\":7:146   */\n    tag_22:\n        /* \"#utility.yul\":53:58   */\n      0x00\n        /* \"#utility.yul\":91:97   */\n      dup2\n        /* \"#utility.yul\":78:98   */\n      calldataload\n        /* \"#utility.yul\":69:98   */\n      swap1\n      pop\n        /* \"#utility.yul\":107:140   */\n      tag_24\n        /* \"#utility.yul\":134:139   */\n      dup2\n        /* \"#utility.yul\":107:140   */\n      tag_25\n      jump\t// in\n    tag_24:\n        /* \"#utility.yul\":7:146   */\n      swap3\n      swap2\n      pop\n      pop\n      jump\t// out\n        /* \"#utility.yul\":152:481   */\n    tag_6:\n        /* \"#utility.yul\":211:217   */\n      0x00\n        /* \"#utility.yul\":260:262   */\n      0x20\n        /* \"#utility.yul\":248:257   */\n      dup3\n        /* \"#utility.yul\":239:246   */\n      dup5\n        /* \"#utility.yul\":235:258   */\n      sub\n        /* \"#utility.yul\":231:263   */\n      slt\n        /* \"#utility.yul\":228:347   */\n      iszero\n      tag_27\n      jumpi\n        /* \"#utility.yul\":266:345   */\n      tag_28\n      tag_29\n      jump\t// in\n    tag_28:\n        /* \"#utility.yul\":228:347   */\n    tag_27:\n        /* \"#utility.yul\":386:387   */\n      0x00\n        /* \"#utility.yul\":411:464   */\n      tag_30\n        /* \"#utility.yul\":456:463   */\n      dup5\n        /* \"#utility.yul\":447:453   */\n      dup3\n        /* \"#utility.yul\":436:445   */\n      dup6\n        /* \"#utility.yul\":432:454   */\n      add\n        /* \"#utility.yul\":411:464   */\n      tag_22\n      jump\t// in\n    tag_30:\n        /* \"#utility.yul\":401:464   */\n      swap2\n      pop\n        /* \"#utility.yul\":357:474   */\n      pop\n        /* \"#utility.yul\":152:481   */\n      swap3\n      swap2\n      pop\n      pop\n      jump\t// out\n        /* \"#utility.yul\":487:605   */\n    tag_31:\n        /* \"#utility.yul\":574:598   */\n      tag_33\n        /* \"#utility.yul\":592:597   */\n      dup2\n        /* \"#utility.yul\":574:598   */\n      tag_34\n      jump\t// in\n    tag_33:\n        /* \"#utility.yul\":569:572   */\n      dup3\n        /* \"#utility.yul\":562:599   */\n      mstore\n        /* \"#utility.yul\":487:605   */\n      pop\n      pop\n      jump\t// out\n        /* \"#utility.yul\":611:975   */\n    tag_35:\n        /* \"#utility.yul\":699:702   */\n      0x00\n        /* \"#utility.yul\":727:766   */\n      tag_37\n        /* \"#utility.yul\":760:765   */\n      dup3\n        /* \"#utility.yul\":727:766   */\n      tag_38\n      jump\t// in\n    tag_37:\n        /* \"#utility.yul\":782:853   */\n      tag_39\n        /* \"#utility.yul\":846:852   */\n      dup2\n        /* \"#utility.yul\":841:844   */\n      dup6\n        /* \"#utility.yul\":782:853   */\n      tag_40\n      jump\t// in\n    tag_39:\n        /* \"#utility.yul\":775:853   */\n      swap4\n      pop\n        /* \"#utility.yul\":862:914   */\n      tag_41\n        /* \"#utility.yul\":907:913   */\n      dup2\n        /* \"#utility.yul\":902:905   */\n      dup6\n        /* \"#utility.yul\":895:899   */\n      0x20\n        /* \"#utility.yul\":888:893   */\n      dup7\n        /* \"#utility.yul\":884:900   */\n      add\n        /* \"#utility.yul\":862:914   */\n      tag_42\n      jump\t// in\n    tag_41:\n        /* \"#utility.yul\":939:968   */\n      tag_43\n        /* \"#utility.yul\":961:967   */\n      dup2\n        /* \"#utility.yul\":939:968   */\n      tag_44\n      jump\t// in\n    tag_43:\n        /* \"#utility.yul\":934:937   */\n      dup5\n        /* \"#utility.yul\":930:969   */\n      add\n        /* \"#utility.yul\":923:969   */\n      swap2\n      pop\n        /* \"#utility.yul\":703:975   */\n      pop\n        /* \"#utility.yul\":611:975   */\n      swap3\n      swap2\n      pop\n      pop\n      jump\t// out\n        /* \"#utility.yul\":981:1099   */\n    tag_45:\n        /* \"#utility.yul\":1068:1092   */\n      tag_47\n        /* \"#utility.yul\":1086:1091   */\n      dup2\n        /* \"#utility.yul\":1068:1092   */\n      tag_48\n      jump\t// in\n    tag_47:\n        /* \"#utility.yul\":1063:1066   */\n      dup3\n        /* \"#utility.yul\":1056:1093   */\n      mstore\n        /* \"#utility.yul\":981:1099   */\n      pop\n      pop\n      jump\t// out\n        /* \"#utility.yul\":1105:1840   */\n    tag_9:\n        /* \"#utility.yul\":1322:1326   */\n      0x00\n        /* \"#utility.yul\":1360:1363   */\n      0x80\n        /* \"#utility.yul\":1349:1358   */\n      dup3\n        /* \"#utility.yul\":1345:1364   */\n      add\n        /* \"#utility.yul\":1337:1364   */\n      swap1\n      pop\n        /* \"#utility.yul\":1410:1419   */\n      dup2\n        /* \"#utility.yul\":1404:1408   */\n      dup2\n        /* \"#utility.yul\":1400:1420   */\n      sub\n        /* \"#utility.yul\":1396:1397   */\n      0x00\n        /* \"#utility.yul\":1385:1394   */\n      dup4\n        /* \"#utility.yul\":1381:1398   */\n      add\n        /* \"#utility.yul\":1374:1421   */\n      mstore\n        /* \"#utility.yul\":1438:1516   */\n      tag_50\n        /* \"#utility.yul\":1511:1515   */\n      dup2\n        /* \"#utility.yul\":1502:1508   */\n      dup8\n        /* \"#utility.yul\":1438:1516   */\n      tag_35\n      jump\t// in\n    tag_50:\n        /* \"#utility.yul\":1430:1516   */\n      swap1\n      pop\n        /* \"#utility.yul\":1563:1572   */\n      dup2\n        /* \"#utility.yul\":1557:1561   */\n      dup2\n        /* \"#utility.yul\":1553:1573   */\n      sub\n        /* \"#utility.yul\":1548:1550   */\n      0x20\n        /* \"#utility.yul\":1537:1546   */\n      dup4\n        /* \"#utility.yul\":1533:1551   */\n      add\n        /* \"#utility.yul\":1526:1574   */\n      mstore\n        /* \"#utility.yul\":1591:1669   */\n      tag_51\n        /* \"#utility.yul\":1664:1668   */\n      dup2\n        /* \"#utility.yul\":1655:1661   */\n      dup7\n        /* \"#utility.yul\":1591:1669   */\n      tag_35\n      jump\t// in\n    tag_51:\n        /* \"#utility.yul\":1583:1669   */\n      swap1\n      pop\n        /* \"#utility.yul\":1679:1751   */\n      tag_52\n        /* \"#utility.yul\":1747:1749   */\n      0x40\n        /* \"#utility.yul\":1736:1745   */\n      dup4\n        /* \"#utility.yul\":1732:1750   */\n      add\n        /* \"#utility.yul\":1723:1729   */\n      dup6\n        /* \"#utility.yul\":1679:1751   */\n      tag_45\n      jump\t// in\n    tag_52:\n        /* \"#utility.yul\":1761:1833   */\n      tag_53\n        /* \"#utility.yul\":1829:1831   */\n      0x60\n        /* \"#utility.yul\":1818:1827   */\n      dup4\n        /* \"#utility.yul\":1814:1832   */\n      add\n        /* \"#utility.yul\":1805:1811   */\n      dup5\n        /* \"#utility.yul\":1761:1833   */\n      tag_31\n      jump\t// in\n    tag_53:\n        /* \"#utility.yul\":1105:1840   */\n      swap6\n      swap5\n      pop\n      pop\n      pop\n      pop\n      pop\n      jump\t// out\n        /* \"#utility.yul\":1927:2026   */\n    tag_38:\n        /* \"#utility.yul\":1979:1985   */\n      0x00\n        /* \"#utility.yul\":2013:2018   */\n      dup2\n        /* \"#utility.yul\":2007:2019   */\n      mload\n        /* \"#utility.yul\":1997:2019   */\n      swap1\n      pop\n        /* \"#utility.yul\":1927:2026   */\n      swap2\n      swap1\n      pop\n      jump\t// out\n        /* \"#utility.yul\":2032:2201   */\n    tag_40:\n        /* \"#utility.yul\":2116:2127   */\n      0x00\n        /* \"#utility.yul\":2150:2156   */\n      dup3\n        /* \"#utility.yul\":2145:2148   */\n      dup3\n        /* \"#utility.yul\":2138:2157   */\n      mstore\n        /* \"#utility.yul\":2190:2194   */\n      0x20\n        /* \"#utility.yul\":2185:2188   */\n      dup3\n        /* \"#utility.yul\":2181:2195   */\n      add\n        /* \"#utility.yul\":2166:2195   */\n      swap1\n      pop\n        /* \"#utility.yul\":2032:2201   */\n      swap3\n      swap2\n      pop\n      pop\n      jump\t// out\n        /* \"#utility.yul\":2207:2303   */\n    tag_34:\n        /* \"#utility.yul\":2244:2251   */\n      0x00\n        /* \"#utility.yul\":2273:2297   */\n      tag_59\n        /* \"#utility.yul\":2291:2296   */\n      dup3\n        /* \"#utility.yul\":2273:2297   */\n      tag_60\n      jump\t// in\n    tag_59:\n        /* \"#utility.yul\":2262:2297   */\n      swap1\n      pop\n        /* \"#utility.yul\":2207:2303   */\n      swap2\n      swap1\n      pop\n      jump\t// out\n        /* \"#utility.yul\":2309:2435   */\n    tag_60:\n        /* \"#utility.yul\":2346:2353   */\n      0x00\n        /* \"#utility.yul\":2386:2428   */\n      0xffffffffffffffffffffffffffffffffffffffff\n        /* \"#utility.yul\":2379:2384   */\n      dup3\n        /* \"#utility.yul\":2375:2429   */\n      and\n        /* \"#utility.yul\":2364:2429   */\n      swap1\n      pop\n        /* \"#utility.yul\":2309:2435   */\n      swap2\n      swap1\n      pop\n      jump\t// out\n        /* \"#utility.yul\":2441:2518   */\n    tag_48:\n        /* \"#utility.yul\":2478:2485   */\n      0x00\n        /* \"#utility.yul\":2507:2512   */\n      dup2\n        /* \"#utility.yul\":2496:2512   */\n      swap1\n      pop\n        /* \"#utility.yul\":2441:2518   */\n      swap2\n      swap1\n      pop\n      jump\t// out\n        /* \"#utility.yul\":2524:2831   */\n    tag_42:\n        /* \"#utility.yul\":2592:2593   */\n      0x00\n        /* \"#utility.yul\":2602:2715   */\n    tag_64:\n        /* \"#utility.yul\":2616:2622   */\n      dup4\n        /* \"#utility.yul\":2613:2614   */\n      dup2\n        /* \"#utility.yul\":2610:2623   */\n      lt\n        /* \"#utility.yul\":2602:2715   */\n      iszero\n      tag_66\n      jumpi\n        /* \"#utility.yul\":2701:2702   */\n      dup1\n        /* \"#utility.yul\":2696:2699   */\n      dup3\n        /* \"#utility.yul\":2692:2703   */\n      add\n        /* \"#utility.yul\":2686:2704   */\n      mload\n        /* \"#utility.yul\":2682:2683   */\n      dup2\n        /* \"#utility.yul\":2677:2680   */\n      dup5\n        /* \"#utility.yul\":2673:2684   */\n      add\n        /* \"#utility.yul\":2666:2705   */\n      mstore\n        /* \"#utility.yul\":2638:2640   */\n      0x20\n        /* \"#utility.yul\":2635:2636   */\n      dup2\n        /* \"#utility.yul\":2631:2641   */\n      add\n        /* \"#utility.yul\":2626:2641   */\n      swap1\n      pop\n        /* \"#utility.yul\":2602:2715   */\n      jump(tag_64)\n    tag_66:\n        /* \"#utility.yul\":2733:2739   */\n      dup4\n        /* \"#utility.yul\":2730:2731   */\n      dup2\n        /* \"#utility.yul\":2727:2740   */\n      gt\n        /* \"#utility.yul\":2724:2825   */\n      iszero\n      tag_67\n      jumpi\n        /* \"#utility.yul\":2813:2814   */\n      0x00\n        /* \"#utility.yul\":2804:2810   */\n      dup5\n        /* \"#utility.yul\":2799:2802   */\n      dup5\n        /* \"#utility.yul\":2795:2811   */\n      add\n        /* \"#utility.yul\":2788:2815   */\n      mstore\n        /* \"#utility.yul\":2724:2825   */\n    tag_67:\n        /* \"#utility.yul\":2573:2831   */\n      pop\n        /* \"#utility.yul\":2524:2831   */\n      pop\n      pop\n      pop\n      jump\t// out\n        /* \"#utility.yul\":2837:3157   */\n    tag_11:\n        /* \"#utility.yul\":2881:2887   */\n      0x00\n        /* \"#utility.yul\":2918:2919   */\n      0x02\n        /* \"#utility.yul\":2912:2916   */\n      dup3\n        /* \"#utility.yul\":2908:2920   */\n      div\n        /* \"#utility.yul\":2898:2920   */\n      swap1\n      pop\n        /* \"#utility.yul\":2965:2966   */\n      0x01\n        /* \"#utility.yul\":2959:2963   */\n      dup3\n        /* \"#utility.yul\":2955:2967   */\n      and\n        /* \"#utility.yul\":2986:3004   */\n      dup1\n        /* \"#utility.yul\":2976:3057   */\n      tag_69\n      jumpi\n        /* \"#utility.yul\":3042:3046   */\n      0x7f\n        /* \"#utility.yul\":3034:3040   */\n      dup3\n        /* \"#utility.yul\":3030:3047   */\n      and\n        /* \"#utility.yul\":3020:3047   */\n      swap2\n      pop\n        /* \"#utility.yul\":2976:3057   */\n    tag_69:\n        /* \"#utility.yul\":3104:3106   */\n      0x20\n        /* \"#utility.yul\":3096:3102   */\n      dup3\n        /* \"#utility.yul\":3093:3107   */\n      lt\n        /* \"#utility.yul\":3073:3091   */\n      dup2\n        /* \"#utility.yul\":3070:3108   */\n      eq\n        /* \"#utility.yul\":3067:3151   */\n      iszero\n      tag_70\n      jumpi\n        /* \"#utility.yul\":3123:3141   */\n      tag_71\n      tag_72\n      jump\t// in\n    tag_71:\n        /* \"#utility.yul\":3067:3151   */\n    tag_70:\n        /* \"#utility.yul\":2888:3157   */\n      pop\n        /* \"#utility.yul\":2837:3157   */\n      swap2\n      swap1\n      pop\n      jump\t// out\n        /* \"#utility.yul\":3163:3343   */\n    tag_72:\n        /* \"#utility.yul\":3211:3288   */\n      0x4e487b7100000000000000000000000000000000000000000000000000000000\n        /* \"#utility.yul\":3208:3209   */\n      0x00\n        /* \"#utility.yul\":3201:3289   */\n      mstore\n        /* \"#utility.yul\":3308:3312   */\n      0x22\n        /* \"#utility.yul\":3305:3306   */\n      0x04\n        /* \"#utility.yul\":3298:3313   */\n      mstore\n        /* \"#utility.yul\":3332:3336   */\n      0x24\n        /* \"#utility.yul\":3329:3330   */\n      0x00\n        /* \"#utility.yul\":3322:3337   */\n      revert\n        /* \"#utility.yul\":3472:3589   */\n    tag_29:\n        /* \"#utility.yul\":3581:3582   */\n      0x00\n        /* \"#utility.yul\":3578:3579   */\n      dup1\n        /* \"#utility.yul\":3571:3583   */\n      revert\n        /* \"#utility.yul\":3595:3697   */\n    tag_44:\n        /* \"#utility.yul\":3636:3642   */\n      0x00\n        /* \"#utility.yul\":3687:3689   */\n      0x1f\n        /* \"#utility.yul\":3683:3690   */\n      not\n        /* \"#utility.yul\":3678:3680   */\n      0x1f\n        /* \"#utility.yul\":3671:3676   */\n      dup4\n        /* \"#utility.yul\":3667:3681   */\n      add\n        /* \"#utility.yul\":3663:3691   */\n      and\n        /* \"#utility.yul\":3653:3691   */\n      swap1\n      pop\n        /* \"#utility.yul\":3595:3697   */\n      swap2\n      swap1\n      pop\n      jump\t// out\n        /* \"#utility.yul\":3703:3825   */\n    tag_25:\n        /* \"#utility.yul\":3776:3800   */\n      tag_79\n        /* \"#utility.yul\":3794:3799   */\n      dup2\n        /* \"#utility.yul\":3776:3800   */\n      tag_34\n      jump\t// in\n    tag_79:\n        /* \"#utility.yul\":3769:3774   */\n      dup2\n        /* \"#utility.yul\":3766:3801   */\n      eq\n        /* \"#utility.yul\":3756:3819   */\n      tag_80\n      jumpi\n        /* \"#utility.yul\":3815:3816   */\n      0x00\n        /* \"#utility.yul\":3812:3813   */\n      dup1\n        /* \"#utility.yul\":3805:3817   */\n      revert\n        /* \"#utility.yul\":3756:3819   */\n    tag_80:\n        /* \"#utility.yul\":3703:3825   */\n      pop\n      jump\t// out\n\n    auxdata: 0xa26469706673582212202d9e407bd77a14b49f230cefec9e6d69427c276d010ffa390cdb8a4ab025392c64736f6c63430008070033\n}\n",
				"bytecode": {
					"linkReferences": {},
					"object": "608060405234801561001057600080fd5b506103fe806100206000396000f3fe608060405234801561001057600080fd5b506004361061002b5760003560e01c8063a4063dbc14610030575b600080fd5b61004a600480360381019061004591906101d8565b610063565b60405161005a949392919061025c565b60405180910390f35b60006020528060005260406000206000915090508060000180546100869061033a565b80601f01602080910402602001604051908101604052809291908181526020018280546100b29061033a565b80156100ff5780601f106100d4576101008083540402835291602001916100ff565b820191906000526020600020905b8154815290600101906020018083116100e257829003601f168201915b5050505050908060010180546101149061033a565b80601f01602080910402602001604051908101604052809291908181526020018280546101409061033a565b801561018d5780601f106101625761010080835404028352916020019161018d565b820191906000526020600020905b81548152906001019060200180831161017057829003601f168201915b5050505050908060020154908060030160009054906101000a900473ffffffffffffffffffffffffffffffffffffffff16905084565b6000813590506101d2816103b1565b92915050565b6000602082840312156101ee576101ed61039b565b5b60006101fc848285016101c3565b91505092915050565b61020e816102cb565b82525050565b600061021f826102af565b61022981856102ba565b9350610239818560208601610307565b610242816103a0565b840191505092915050565b610256816102fd565b82525050565b600060808201905081810360008301526102768187610214565b9050818103602083015261028a8186610214565b9050610299604083018561024d565b6102a66060830184610205565b95945050505050565b600081519050919050565b600082825260208201905092915050565b60006102d6826102dd565b9050919050565b600073ffffffffffffffffffffffffffffffffffffffff82169050919050565b6000819050919050565b60005b8381101561032557808201518184015260208101905061030a565b83811115610334576000848401525b50505050565b6000600282049050600182168061035257607f821691505b602082108114156103665761036561036c565b5b50919050565b7f4e487b7100000000000000000000000000000000000000000000000000000000600052602260045260246000fd5b600080fd5b6000601f19601f8301169050919050565b6103ba816102cb565b81146103c557600080fd5b5056fea26469706673582212202d9e407bd77a14b49f230cefec9e6d69427c276d010ffa390cdb8a4ab025392c64736f6c63430008070033",
					"opcodes": "PUSH1 0x80 PUSH1 0x40 MSTORE CALLVALUE DUP1 ISZERO PUSH2 0x10 JUMPI PUSH1 0x0 DUP1 REVERT JUMPDEST POP PUSH2 0x3FE DUP1 PUSH2 0x20 PUSH1 0x0 CODECOPY PUSH1 0x0 RETURN INVALID PUSH1 0x80 PUSH1 0x40 MSTORE CALLVALUE DUP1 ISZERO PUSH2 0x10 JUMPI PUSH1 0x0 DUP1 REVERT JUMPDEST POP PUSH1 0x4 CALLDATASIZE LT PUSH2 0x2B JUMPI PUSH1 0x0 CALLDATALOAD PUSH1 0xE0 SHR DUP1 PUSH4 0xA4063DBC EQ PUSH2 0x30 JUMPI JUMPDEST PUSH1 0x0 DUP1 REVERT JUMPDEST PUSH2 0x4A PUSH1 0x4 DUP1 CALLDATASIZE SUB DUP2 ADD SWAP1 PUSH2 0x45 SWAP2 SWAP1 PUSH2 0x1D8 JUMP JUMPDEST PUSH2 0x63 JUMP JUMPDEST PUSH1 0x40 MLOAD PUSH2 0x5A SWAP5 SWAP4 SWAP3 SWAP2 SWAP1 PUSH2 0x25C JUMP JUMPDEST PUSH1 0x40 MLOAD DUP1 SWAP2 SUB SWAP1 RETURN JUMPDEST PUSH1 0x0 PUSH1 0x20 MSTORE DUP1 PUSH1 0x0 MSTORE PUSH1 0x40 PUSH1 0x0 KECCAK256 PUSH1 0x0 SWAP2 POP SWAP1 POP DUP1 PUSH1 0x0 ADD DUP1 SLOAD PUSH2 0x86 SWAP1 PUSH2 0x33A JUMP JUMPDEST DUP1 PUSH1 0x1F ADD PUSH1 0x20 DUP1 SWAP2 DIV MUL PUSH1 0x20 ADD PUSH1 0x40 MLOAD SWAP1 DUP2 ADD PUSH1 0x40 MSTORE DUP1 SWAP3 SWAP2 SWAP1 DUP2 DUP2 MSTORE PUSH1 0x20 ADD DUP3 DUP1 SLOAD PUSH2 0xB2 SWAP1 PUSH2 0x33A JUMP JUMPDEST DUP1 ISZERO PUSH2 0xFF JUMPI DUP1 PUSH1 0x1F LT PUSH2 0xD4 JUMPI PUSH2 0x100 DUP1 DUP4 SLOAD DIV MUL DUP4 MSTORE SWAP2 PUSH1 0x20 ADD SWAP2 PUSH2 0xFF JUMP JUMPDEST DUP3 ADD SWAP2 SWAP1 PUSH1 0x0 MSTORE PUSH1 0x20 PUSH1 0x0 KECCAK256 SWAP1 JUMPDEST DUP2 SLOAD DUP2 MSTORE SWAP1 PUSH1 0x1 ADD SWAP1 PUSH1 0x20 ADD DUP1 DUP4 GT PUSH2 0xE2 JUMPI DUP3 SWAP1 SUB PUSH1 0x1F AND DUP3 ADD SWAP2 JUMPDEST POP POP POP POP POP SWAP1 DUP1 PUSH1 0x1 ADD DUP1 SLOAD PUSH2 0x114 SWAP1 PUSH2 0x33A JUMP JUMPDEST DUP1 PUSH1 0x1F ADD PUSH1 0x20 DUP1 SWAP2 DIV MUL PUSH1 0x20 ADD PUSH1 0x40 MLOAD SWAP1 DUP2 ADD PUSH1 0x40 MSTORE DUP1 SWAP3 SWAP2 SWAP1 DUP2 DUP2 MSTORE PUSH1 0x20 ADD DUP3 DUP1 SLOAD PUSH2 0x140 SWAP1 PUSH2 0x33A JUMP JUMPDEST DUP1 ISZERO PUSH2 0x18D JUMPI DUP1 PUSH1 0x1F LT PUSH2 0x162 JUMPI PUSH2 0x100 DUP1 DUP4 SLOAD DIV MUL DUP4 MSTORE SWAP2 PUSH1 0x20 ADD SWAP2 PUSH2 0x18D JUMP JUMPDEST DUP3 ADD SWAP2 SWAP1 PUSH1 0x0 MSTORE PUSH1 0x20 PUSH1 0x0 KECCAK256 SWAP1 JUMPDEST DUP2 SLOAD DUP2 MSTORE SWAP1 PUSH1 0x1 ADD SWAP1 PUSH1 0x20 ADD DUP1 DUP4 GT PUSH2 0x170 JUMPI DUP3 SWAP1 SUB PUSH1 0x1F AND DUP3 ADD SWAP2 JUMPDEST POP POP POP POP POP SWAP1 DUP1 PUSH1 0x2 ADD SLOAD SWAP1 DUP1 PUSH1 0x3 ADD PUSH1 0x0 SWAP1 SLOAD SWAP1 PUSH2 0x100 EXP SWAP1 DIV PUSH20 0xFFFFFFFFFFFFFFFFFFFFFFFFFFFFFFFFFFFFFFFF AND SWAP1 POP DUP5 JUMP JUMPDEST PUSH1 0x0 DUP2 CALLDATALOAD SWAP1 POP PUSH2 0x1D2 DUP2 PUSH2 0x3B1 JUMP JUMPDEST SWAP3 SWAP2 POP POP JUMP JUMPDEST PUSH1 0x0 PUSH1 0x20 DUP3 DUP5 SUB SLT ISZERO PUSH2 0x1EE JUMPI PUSH2 0x1ED PUSH2 0x39B JUMP JUMPDEST JUMPDEST PUSH1 0x0 PUSH2 0x1FC DUP5 DUP3 DUP6 ADD PUSH2 0x1C3 JUMP JUMPDEST SWAP2 POP POP SWAP3 SWAP2 POP POP JUMP JUMPDEST PUSH2 0x20E DUP2 PUSH2 0x2CB JUMP JUMPDEST DUP3 MSTORE POP POP JUMP JUMPDEST PUSH1 0x0 PUSH2 0x21F DUP3 PUSH2 0x2AF JUMP JUMPDEST PUSH2 0x229 DUP2 DUP6 PUSH2 0x2BA JUMP JUMPDEST SWAP4 POP PUSH2 0x239 DUP2 DUP6 PUSH1 0x20 DUP7 ADD PUSH2 0x307 JUMP JUMPDEST PUSH2 0x242 DUP2 PUSH2 0x3A0 JUMP JUMPDEST DUP5 ADD SWAP2 POP POP SWAP3 SWAP2 POP POP JUMP JUMPDEST PUSH2 0x256 DUP2 PUSH2 0x2FD JUMP JUMPDEST DUP3 MSTORE POP POP JUMP JUMPDEST PUSH1 0x0 PUSH1 0x80 DUP3 ADD SWAP1 POP DUP2 DUP2 SUB PUSH1 0x0 DUP4 ADD MSTORE PUSH2 0x276 DUP2 DUP8 PUSH2 0x214 JUMP JUMPDEST SWAP1 POP DUP2 DUP2 SUB PUSH1 0x20 DUP4 ADD MSTORE PUSH2 0x28A DUP2 DUP7 PUSH2 0x214 JUMP JUMPDEST SWAP1 POP PUSH2 0x299 PUSH1 0x40 DUP4 ADD DUP6 PUSH2 0x24D JUMP JUMPDEST PUSH2 0x2A6 PUSH1 0x60 DUP4 ADD DUP5 PUSH2 0x205 JUMP JUMPDEST SWAP6 SWAP5 POP POP POP POP POP JUMP JUMPDEST PUSH1 0x0 DUP2 MLOAD SWAP1 POP SWAP2 SWAP1 POP JUMP JUMPDEST PUSH1 0x0 DUP3 DUP3 MSTORE PUSH1 0x20 DUP3 ADD SWAP1 POP SWAP3 SWAP2 POP POP JUMP JUMPDEST PUSH1 0x0 PUSH2 0x2D6 DUP3 PUSH2 0x2DD JUMP JUMPDEST SWAP1 POP SWAP2 SWAP1 POP JUMP JUMPDEST PUSH1 0x0 PUSH20 0xFFFFFFFFFFFFFFFFFFFFFFFFFFFFFFFFFFFFFFFF DUP3 AND SWAP1 POP SWAP2 SWAP1 POP JUMP JUMPDEST PUSH1 0x0 DUP2 SWAP1 POP SWAP2 SWAP1 POP JUMP JUMPDEST PUSH1 0x0 JUMPDEST DUP4 DUP2 LT ISZERO PUSH2 0x325 JUMPI DUP1 DUP3 ADD MLOAD DUP2 DUP5 ADD MSTORE PUSH1 0x20 DUP2 ADD SWAP1 POP PUSH2 0x30A JUMP JUMPDEST DUP4 DUP2 GT ISZERO PUSH2 0x334 JUMPI PUSH1 0x0 DUP5 DUP5 ADD MSTORE JUMPDEST POP POP POP POP JUMP JUMPDEST PUSH1 0x0 PUSH1 0x2 DUP3 DIV SWAP1 POP PUSH1 0x1 DUP3 AND DUP1 PUSH2 0x352 JUMPI PUSH1 0x7F DUP3 AND SWAP2 POP JUMPDEST PUSH1 0x20 DUP3 LT DUP2 EQ ISZERO PUSH2 0x366 JUMPI PUSH2 0x365 PUSH2 0x36C JUMP JUMPDEST JUMPDEST POP SWAP2 SWAP1 POP JUMP JUMPDEST PUSH32 0x4E487B7100000000000000000000000000000000000000000000000000000000 PUSH1 0x0 MSTORE PUSH1 0x22 PUSH1 0x4 MSTORE PUSH1 0x24 PUSH1 0x0 REVERT JUMPDEST PUSH1 0x0 DUP1 REVERT JUMPDEST PUSH1 0x0 PUSH1 0x1F NOT PUSH1 0x1F DUP4 ADD AND SWAP1 POP SWAP2 SWAP1 POP JUMP JUMPDEST PUSH2 0x3BA DUP2 PUSH2 0x2CB JUMP JUMPDEST DUP2 EQ PUSH2 0x3C5 JUMPI PUSH1 0x0 DUP1 REVERT JUMPDEST POP JUMP INVALID LOG2 PUSH5 0x6970667358 0x22 SLT KECCAK256 0x2D SWAP15 BLOCKHASH PUSH28 0xD77A14B49F230CEFEC9E6D69427C276D010FFA390CDB8A4AB025392C PUSH5 0x736F6C6343 STOP ADDMOD SMOD STOP CALLER "
				},
				"gasEstimates": {
					"creation": {
						"codeDepositCost": "204400",
						"executionCost": "245",
						"totalCost": "204645"
					},
					"external": {
						"pools(address)": "infinite"
					}
				},
				"methodIdentifiers": {
					"pools(address)": "a4063dbc"
				}
			},
			"userdoc": {
				"kind": "user",
				"methods": {},
				"version": 1
			}
		}
	}
}