{
	"contracts/eVoting_app.sol": {
		"EVoteApp": {
			"abi": [
				{
					"inputs": [
						{
							"internalType": "uint256",
							"name": "_poolIndex",
							"type": "uint256"
						},
						{
							"internalType": "string",
							"name": "_name",
							"type": "string"
						}
					],
					"name": "addOption",
					"outputs": [],
					"stateMutability": "nonpayable",
					"type": "function"
				},
				{
					"inputs": [
						{
							"internalType": "string",
							"name": "_poolName",
							"type": "string"
						},
						{
							"internalType": "string",
							"name": "_description",
							"type": "string"
						}
					],
					"name": "createPool",
					"outputs": [
						{
							"internalType": "uint256",
							"name": "",
							"type": "uint256"
						}
					],
					"stateMutability": "nonpayable",
					"type": "function"
				},
				{
					"inputs": [
						{
							"internalType": "uint256",
							"name": "_poolIndex",
							"type": "uint256"
						}
					],
					"name": "startPool",
					"outputs": [],
					"stateMutability": "nonpayable",
					"type": "function"
				}
			],
			"devdoc": {
				"kind": "dev",
				"methods": {},
				"version": 1
			},
			"evm": {
				"assembly": "    /* \"contracts/eVoting_app.sol\":71:1451  contract EVoteApp{... */\n  mstore(0x40, 0x80)\n    /* \"contracts/eVoting_app.sol\":616:617  0 */\n  0x00\n    /* \"contracts/eVoting_app.sol\":595:617  uint256 numOfPools = 0 */\n  0x01\n  sstore\n    /* \"contracts/eVoting_app.sol\":71:1451  contract EVoteApp{... */\n  callvalue\n  dup1\n  iszero\n  tag_1\n  jumpi\n  0x00\n  dup1\n  revert\ntag_1:\n  pop\n  dataSize(sub_0)\n  dup1\n  dataOffset(sub_0)\n  0x00\n  codecopy\n  0x00\n  return\nstop\n\nsub_0: assembly {\n        /* \"contracts/eVoting_app.sol\":71:1451  contract EVoteApp{... */\n      mstore(0x40, 0x80)\n      callvalue\n      dup1\n      iszero\n      tag_1\n      jumpi\n      0x00\n      dup1\n      revert\n    tag_1:\n      pop\n      jumpi(tag_2, lt(calldatasize, 0x04))\n      shr(0xe0, calldataload(0x00))\n      dup1\n      0x5ea81a32\n      eq\n      tag_3\n      jumpi\n      dup1\n      0xa901d15c\n      eq\n      tag_4\n      jumpi\n      dup1\n      0xea57d5d4\n      eq\n      tag_5\n      jumpi\n    tag_2:\n      0x00\n      dup1\n      revert\n        /* \"contracts/eVoting_app.sol\":630:1117  function createPool(string memory _poolName, string memory _description) public returns(uint256){... */\n    tag_3:\n      tag_6\n      0x04\n      dup1\n      calldatasize\n      sub\n      dup2\n      add\n      swap1\n      tag_7\n      swap2\n      swap1\n      tag_8\n      jump\t// in\n    tag_7:\n      tag_9\n      jump\t// in\n    tag_6:\n      mload(0x40)\n      tag_10\n      swap2\n      swap1\n      tag_11\n      jump\t// in\n    tag_10:\n      mload(0x40)\n      dup1\n      swap2\n      sub\n      swap1\n      return\n        /* \"contracts/eVoting_app.sol\":1315:1447  function startPool(uint256 _poolIndex) public{... */\n    tag_4:\n      tag_12\n      0x04\n      dup1\n      calldatasize\n      sub\n      dup2\n      add\n      swap1\n      tag_13\n      swap2\n      swap1\n      tag_14\n      jump\t// in\n    tag_13:\n      tag_15\n      jump\t// in\n    tag_12:\n      stop\n        /* \"contracts/eVoting_app.sol\":1123:1309  function addOption(uint256 _poolIndex, string memory _name) public{... */\n    tag_5:\n      tag_16\n      0x04\n      dup1\n      calldatasize\n      sub\n      dup2\n      add\n      swap1\n      tag_17\n      swap2\n      swap1\n      tag_18\n      jump\t// in\n    tag_17:\n      tag_19\n      jump\t// in\n    tag_16:\n      stop\n        /* \"contracts/eVoting_app.sol\":630:1117  function createPool(string memory _poolName, string memory _description) public returns(uint256){... */\n    tag_9:\n        /* \"contracts/eVoting_app.sol\":718:725  uint256 */\n      0x00\n        /* \"contracts/eVoting_app.sol\":793:811  Pool storage _pool */\n      dup1\n        /* \"contracts/eVoting_app.sol\":814:819  pools */\n      0x00\n        /* \"contracts/eVoting_app.sol\":814:833  pools[numOfPools++] */\n      dup1\n        /* \"contracts/eVoting_app.sol\":820:830  numOfPools */\n      0x01\n      0x00\n        /* \"contracts/eVoting_app.sol\":820:832  numOfPools++ */\n      dup2\n      sload\n      dup1\n      swap3\n      swap2\n      swap1\n      tag_21\n      swap1\n      tag_22\n      jump\t// in\n    tag_21:\n      swap2\n      swap1\n      pop\n      sstore\n        /* \"contracts/eVoting_app.sol\":814:833  pools[numOfPools++] */\n      dup2\n      mstore\n      0x20\n      add\n      swap1\n      dup2\n      mstore\n      0x20\n      add\n      0x00\n      keccak256\n        /* \"contracts/eVoting_app.sol\":793:833  Pool storage _pool = pools[numOfPools++] */\n      swap1\n      pop\n        /* \"contracts/eVoting_app.sol\":857:866  _poolName */\n      dup4\n        /* \"contracts/eVoting_app.sol\":844:849  _pool */\n      dup2\n        /* \"contracts/eVoting_app.sol\":844:854  _pool.name */\n      0x00\n      add\n        /* \"contracts/eVoting_app.sol\":844:866  _pool.name = _poolName */\n      swap1\n      dup1\n      mload\n      swap1\n      0x20\n      add\n      swap1\n      tag_23\n      swap3\n      swap2\n      swap1\n      tag_24\n      jump\t// in\n    tag_23:\n      pop\n        /* \"contracts/eVoting_app.sol\":896:908  _description */\n      dup3\n        /* \"contracts/eVoting_app.sol\":876:881  _pool */\n      dup2\n        /* \"contracts/eVoting_app.sol\":876:893  _pool.description */\n      0x01\n      add\n        /* \"contracts/eVoting_app.sol\":876:908  _pool.description = _description */\n      swap1\n      dup1\n      mload\n      swap1\n      0x20\n      add\n      swap1\n      tag_25\n      swap3\n      swap2\n      swap1\n      tag_24\n      jump\t// in\n    tag_25:\n      pop\n        /* \"contracts/eVoting_app.sol\":937:938  0 */\n      0x00\n        /* \"contracts/eVoting_app.sol\":918:923  _pool */\n      dup2\n        /* \"contracts/eVoting_app.sol\":918:934  _pool.totalVotes */\n      0x02\n      add\n        /* \"contracts/eVoting_app.sol\":918:938  _pool.totalVotes = 0 */\n      dup2\n      swap1\n      sstore\n      pop\n        /* \"contracts/eVoting_app.sol\":962:972  msg.sender */\n      caller\n        /* \"contracts/eVoting_app.sol\":948:953  _pool */\n      dup2\n        /* \"contracts/eVoting_app.sol\":948:959  _pool.owner */\n      0x03\n      add\n      0x00\n        /* \"contracts/eVoting_app.sol\":948:972  _pool.owner = msg.sender */\n      0x0100\n      exp\n      dup2\n      sload\n      dup2\n      0xffffffffffffffffffffffffffffffffffffffff\n      mul\n      not\n      and\n      swap1\n      dup4\n      0xffffffffffffffffffffffffffffffffffffffff\n      and\n      mul\n      or\n      swap1\n      sstore\n      pop\n        /* \"contracts/eVoting_app.sol\":1003:1004  0 */\n      0x00\n        /* \"contracts/eVoting_app.sol\":982:987  _pool */\n      dup2\n        /* \"contracts/eVoting_app.sol\":982:1000  _pool.numOfOptions */\n      0x05\n      add\n        /* \"contracts/eVoting_app.sol\":982:1004  _pool.numOfOptions = 0 */\n      dup2\n      swap1\n      sstore\n      pop\n        /* \"contracts/eVoting_app.sol\":1031:1036  false */\n      0x00\n        /* \"contracts/eVoting_app.sol\":1014:1019  _pool */\n      dup2\n        /* \"contracts/eVoting_app.sol\":1014:1028  _pool.isActive */\n      0x06\n      add\n      0x00\n        /* \"contracts/eVoting_app.sol\":1014:1036  _pool.isActive = false */\n      0x0100\n      exp\n      dup2\n      sload\n      dup2\n      0xff\n      mul\n      not\n      and\n      swap1\n      dup4\n      iszero\n      iszero\n      mul\n      or\n      swap1\n      sstore\n      pop\n        /* \"contracts/eVoting_app.sol\":1077:1078  1 */\n      0x01\n        /* \"contracts/eVoting_app.sol\":1064:1074  numOfPools */\n      dup1\n      sload\n        /* \"contracts/eVoting_app.sol\":1064:1078  numOfPools - 1 */\n      tag_26\n      swap2\n      swap1\n      tag_27\n      jump\t// in\n    tag_26:\n        /* \"contracts/eVoting_app.sol\":1046:1051  _pool */\n      dup2\n        /* \"contracts/eVoting_app.sol\":1046:1061  _pool.poolIndex */\n      0x07\n      add\n        /* \"contracts/eVoting_app.sol\":1046:1078  _pool.poolIndex = numOfPools - 1 */\n      dup2\n      swap1\n      sstore\n      pop\n        /* \"contracts/eVoting_app.sol\":1109:1110  1 */\n      0x01\n        /* \"contracts/eVoting_app.sol\":1096:1106  numOfPools */\n      dup1\n      sload\n        /* \"contracts/eVoting_app.sol\":1096:1110  numOfPools - 1 */\n      tag_28\n      swap2\n      swap1\n      tag_27\n      jump\t// in\n    tag_28:\n        /* \"contracts/eVoting_app.sol\":1089:1110  return numOfPools - 1 */\n      swap2\n      pop\n      pop\n        /* \"contracts/eVoting_app.sol\":630:1117  function createPool(string memory _poolName, string memory _description) public returns(uint256){... */\n      swap3\n      swap2\n      pop\n      pop\n      jump\t// out\n        /* \"contracts/eVoting_app.sol\":1315:1447  function startPool(uint256 _poolIndex) public{... */\n    tag_15:\n        /* \"contracts/eVoting_app.sol\":1370:1388  Pool storage _pool */\n      0x00\n        /* \"contracts/eVoting_app.sol\":1391:1396  pools */\n      dup1\n        /* \"contracts/eVoting_app.sol\":1391:1408  pools[_poolIndex] */\n      0x00\n        /* \"contracts/eVoting_app.sol\":1397:1407  _poolIndex */\n      dup4\n        /* \"contracts/eVoting_app.sol\":1391:1408  pools[_poolIndex] */\n      dup2\n      mstore\n      0x20\n      add\n      swap1\n      dup2\n      mstore\n      0x20\n      add\n      0x00\n      keccak256\n        /* \"contracts/eVoting_app.sol\":1370:1408  Pool storage _pool = pools[_poolIndex] */\n      swap1\n      pop\n        /* \"contracts/eVoting_app.sol\":1436:1440  true */\n      0x01\n        /* \"contracts/eVoting_app.sol\":1419:1424  _pool */\n      dup2\n        /* \"contracts/eVoting_app.sol\":1419:1433  _pool.isActive */\n      0x06\n      add\n      0x00\n        /* \"contracts/eVoting_app.sol\":1419:1440  _pool.isActive = true */\n      0x0100\n      exp\n      dup2\n      sload\n      dup2\n      0xff\n      mul\n      not\n      and\n      swap1\n      dup4\n      iszero\n      iszero\n      mul\n      or\n      swap1\n      sstore\n      pop\n        /* \"contracts/eVoting_app.sol\":1360:1447  {... */\n      pop\n        /* \"contracts/eVoting_app.sol\":1315:1447  function startPool(uint256 _poolIndex) public{... */\n      pop\n      jump\t// out\n        /* \"contracts/eVoting_app.sol\":1123:1309  function addOption(uint256 _poolIndex, string memory _name) public{... */\n    tag_19:\n        /* \"contracts/eVoting_app.sol\":1199:1217  Pool storage _pool */\n      0x00\n        /* \"contracts/eVoting_app.sol\":1220:1225  pools */\n      dup1\n        /* \"contracts/eVoting_app.sol\":1220:1237  pools[_poolIndex] */\n      0x00\n        /* \"contracts/eVoting_app.sol\":1226:1236  _poolIndex */\n      dup5\n        /* \"contracts/eVoting_app.sol\":1220:1237  pools[_poolIndex] */\n      dup2\n      mstore\n      0x20\n      add\n      swap1\n      dup2\n      mstore\n      0x20\n      add\n      0x00\n      keccak256\n        /* \"contracts/eVoting_app.sol\":1199:1237  Pool storage _pool = pools[_poolIndex] */\n      swap1\n      pop\n        /* \"contracts/eVoting_app.sol\":1286:1302  Option(_name, 0) */\n      mload(0x40)\n      dup1\n      0x40\n      add\n      0x40\n      mstore\n      dup1\n        /* \"contracts/eVoting_app.sol\":1293:1298  _name */\n      dup4\n        /* \"contracts/eVoting_app.sol\":1286:1302  Option(_name, 0) */\n      dup2\n      mstore\n      0x20\n      add\n        /* \"contracts/eVoting_app.sol\":1300:1301  0 */\n      0x00\n        /* \"contracts/eVoting_app.sol\":1286:1302  Option(_name, 0) */\n      dup2\n      mstore\n      pop\n        /* \"contracts/eVoting_app.sol\":1248:1253  _pool */\n      dup2\n        /* \"contracts/eVoting_app.sol\":1248:1261  _pool.options */\n      0x04\n      add\n        /* \"contracts/eVoting_app.sol\":1248:1283  _pool.options[_pool.numOfOptions++] */\n      0x00\n        /* \"contracts/eVoting_app.sol\":1262:1267  _pool */\n      dup4\n        /* \"contracts/eVoting_app.sol\":1262:1280  _pool.numOfOptions */\n      0x05\n      add\n      0x00\n        /* \"contracts/eVoting_app.sol\":1262:1282  _pool.numOfOptions++ */\n      dup2\n      sload\n      dup1\n      swap3\n      swap2\n      swap1\n      tag_31\n      swap1\n      tag_22\n      jump\t// in\n    tag_31:\n      swap2\n      swap1\n      pop\n      sstore\n        /* \"contracts/eVoting_app.sol\":1248:1283  _pool.options[_pool.numOfOptions++] */\n      dup2\n      mstore\n      0x20\n      add\n      swap1\n      dup2\n      mstore\n      0x20\n      add\n      0x00\n      keccak256\n        /* \"contracts/eVoting_app.sol\":1248:1302  _pool.options[_pool.numOfOptions++] = Option(_name, 0) */\n      0x00\n      dup3\n      add\n      mload\n      dup2\n      0x00\n      add\n      swap1\n      dup1\n      mload\n      swap1\n      0x20\n      add\n      swap1\n      tag_32\n      swap3\n      swap2\n      swap1\n      tag_24\n      jump\t// in\n    tag_32:\n      pop\n      0x20\n      dup3\n      add\n      mload\n      dup2\n      0x01\n      add\n      sstore\n      swap1\n      pop\n      pop\n        /* \"contracts/eVoting_app.sol\":1189:1309  {... */\n      pop\n        /* \"contracts/eVoting_app.sol\":1123:1309  function addOption(uint256 _poolIndex, string memory _name) public{... */\n      pop\n      pop\n      jump\t// out\n    tag_24:\n      dup3\n      dup1\n      sload\n      tag_33\n      swap1\n      tag_34\n      jump\t// in\n    tag_33:\n      swap1\n      0x00\n      mstore\n      keccak256(0x00, 0x20)\n      swap1\n      0x1f\n      add\n      0x20\n      swap1\n      div\n      dup2\n      add\n      swap3\n      dup3\n      tag_36\n      jumpi\n      0x00\n      dup6\n      sstore\n      jump(tag_35)\n    tag_36:\n      dup3\n      0x1f\n      lt\n      tag_37\n      jumpi\n      dup1\n      mload\n      not(0xff)\n      and\n      dup4\n      dup1\n      add\n      or\n      dup6\n      sstore\n      jump(tag_35)\n    tag_37:\n      dup3\n      dup1\n      add\n      0x01\n      add\n      dup6\n      sstore\n      dup3\n      iszero\n      tag_35\n      jumpi\n      swap2\n      dup3\n      add\n    tag_38:\n      dup3\n      dup2\n      gt\n      iszero\n      tag_39\n      jumpi\n      dup3\n      mload\n      dup3\n      sstore\n      swap2\n      0x20\n      add\n      swap2\n      swap1\n      0x01\n      add\n      swap1\n      jump(tag_38)\n    tag_39:\n    tag_35:\n      pop\n      swap1\n      pop\n      tag_40\n      swap2\n      swap1\n      tag_41\n      jump\t// in\n    tag_40:\n      pop\n      swap1\n      jump\t// out\n    tag_41:\n    tag_42:\n      dup1\n      dup3\n      gt\n      iszero\n      tag_43\n      jumpi\n      0x00\n      dup2\n      0x00\n      swap1\n      sstore\n      pop\n      0x01\n      add\n      jump(tag_42)\n    tag_43:\n      pop\n      swap1\n      jump\t// out\n        /* \"#utility.yul\":7:419   */\n    tag_45:\n        /* \"#utility.yul\":85:90   */\n      0x00\n        /* \"#utility.yul\":110:176   */\n      tag_47\n        /* \"#utility.yul\":126:175   */\n      tag_48\n        /* \"#utility.yul\":168:174   */\n      dup5\n        /* \"#utility.yul\":126:175   */\n      tag_49\n      jump\t// in\n    tag_48:\n        /* \"#utility.yul\":110:176   */\n      tag_50\n      jump\t// in\n    tag_47:\n        /* \"#utility.yul\":101:176   */\n      swap1\n      pop\n        /* \"#utility.yul\":199:205   */\n      dup3\n        /* \"#utility.yul\":192:197   */\n      dup2\n        /* \"#utility.yul\":185:206   */\n      mstore\n        /* \"#utility.yul\":237:241   */\n      0x20\n        /* \"#utility.yul\":230:235   */\n      dup2\n        /* \"#utility.yul\":226:242   */\n      add\n        /* \"#utility.yul\":275:278   */\n      dup5\n        /* \"#utility.yul\":266:272   */\n      dup5\n        /* \"#utility.yul\":261:264   */\n      dup5\n        /* \"#utility.yul\":257:273   */\n      add\n        /* \"#utility.yul\":254:279   */\n      gt\n        /* \"#utility.yul\":251:363   */\n      iszero\n      tag_51\n      jumpi\n        /* \"#utility.yul\":282:361   */\n      tag_52\n      tag_53\n      jump\t// in\n    tag_52:\n        /* \"#utility.yul\":251:363   */\n    tag_51:\n        /* \"#utility.yul\":372:413   */\n      tag_54\n        /* \"#utility.yul\":406:412   */\n      dup5\n        /* \"#utility.yul\":401:404   */\n      dup3\n        /* \"#utility.yul\":396:399   */\n      dup6\n        /* \"#utility.yul\":372:413   */\n      tag_55\n      jump\t// in\n    tag_54:\n        /* \"#utility.yul\":91:419   */\n      pop\n        /* \"#utility.yul\":7:419   */\n      swap4\n      swap3\n      pop\n      pop\n      pop\n      jump\t// out\n        /* \"#utility.yul\":439:779   */\n    tag_56:\n        /* \"#utility.yul\":495:500   */\n      0x00\n        /* \"#utility.yul\":544:547   */\n      dup3\n        /* \"#utility.yul\":537:541   */\n      0x1f\n        /* \"#utility.yul\":529:535   */\n      dup4\n        /* \"#utility.yul\":525:542   */\n      add\n        /* \"#utility.yul\":521:548   */\n      slt\n        /* \"#utility.yul\":511:633   */\n      tag_58\n      jumpi\n        /* \"#utility.yul\":552:631   */\n      tag_59\n      tag_60\n      jump\t// in\n    tag_59:\n        /* \"#utility.yul\":511:633   */\n    tag_58:\n        /* \"#utility.yul\":669:675   */\n      dup2\n        /* \"#utility.yul\":656:676   */\n      calldataload\n        /* \"#utility.yul\":694:773   */\n      tag_61\n        /* \"#utility.yul\":769:772   */\n      dup5\n        /* \"#utility.yul\":761:767   */\n      dup3\n        /* \"#utility.yul\":754:758   */\n      0x20\n        /* \"#utility.yul\":746:752   */\n      dup7\n        /* \"#utility.yul\":742:759   */\n      add\n        /* \"#utility.yul\":694:773   */\n      tag_45\n      jump\t// in\n    tag_61:\n        /* \"#utility.yul\":685:773   */\n      swap2\n      pop\n        /* \"#utility.yul\":501:779   */\n      pop\n        /* \"#utility.yul\":439:779   */\n      swap3\n      swap2\n      pop\n      pop\n      jump\t// out\n        /* \"#utility.yul\":785:924   */\n    tag_62:\n        /* \"#utility.yul\":831:836   */\n      0x00\n        /* \"#utility.yul\":869:875   */\n      dup2\n        /* \"#utility.yul\":856:876   */\n      calldataload\n        /* \"#utility.yul\":847:876   */\n      swap1\n      pop\n        /* \"#utility.yul\":885:918   */\n      tag_64\n        /* \"#utility.yul\":912:917   */\n      dup2\n        /* \"#utility.yul\":885:918   */\n      tag_65\n      jump\t// in\n    tag_64:\n        /* \"#utility.yul\":785:924   */\n      swap3\n      swap2\n      pop\n      pop\n      jump\t// out\n        /* \"#utility.yul\":930:1764   */\n    tag_8:\n        /* \"#utility.yul\":1018:1024   */\n      0x00\n        /* \"#utility.yul\":1026:1032   */\n      dup1\n        /* \"#utility.yul\":1075:1077   */\n      0x40\n        /* \"#utility.yul\":1063:1072   */\n      dup4\n        /* \"#utility.yul\":1054:1061   */\n      dup6\n        /* \"#utility.yul\":1050:1073   */\n      sub\n        /* \"#utility.yul\":1046:1078   */\n      slt\n        /* \"#utility.yul\":1043:1162   */\n      iszero\n      tag_67\n      jumpi\n        /* \"#utility.yul\":1081:1160   */\n      tag_68\n      tag_69\n      jump\t// in\n    tag_68:\n        /* \"#utility.yul\":1043:1162   */\n    tag_67:\n        /* \"#utility.yul\":1229:1230   */\n      0x00\n        /* \"#utility.yul\":1218:1227   */\n      dup4\n        /* \"#utility.yul\":1214:1231   */\n      add\n        /* \"#utility.yul\":1201:1232   */\n      calldataload\n        /* \"#utility.yul\":1259:1277   */\n      0xffffffffffffffff\n        /* \"#utility.yul\":1251:1257   */\n      dup2\n        /* \"#utility.yul\":1248:1278   */\n      gt\n        /* \"#utility.yul\":1245:1362   */\n      iszero\n      tag_70\n      jumpi\n        /* \"#utility.yul\":1281:1360   */\n      tag_71\n      tag_72\n      jump\t// in\n    tag_71:\n        /* \"#utility.yul\":1245:1362   */\n    tag_70:\n        /* \"#utility.yul\":1386:1449   */\n      tag_73\n        /* \"#utility.yul\":1441:1448   */\n      dup6\n        /* \"#utility.yul\":1432:1438   */\n      dup3\n        /* \"#utility.yul\":1421:1430   */\n      dup7\n        /* \"#utility.yul\":1417:1439   */\n      add\n        /* \"#utility.yul\":1386:1449   */\n      tag_56\n      jump\t// in\n    tag_73:\n        /* \"#utility.yul\":1376:1449   */\n      swap3\n      pop\n        /* \"#utility.yul\":1172:1459   */\n      pop\n        /* \"#utility.yul\":1526:1528   */\n      0x20\n        /* \"#utility.yul\":1515:1524   */\n      dup4\n        /* \"#utility.yul\":1511:1529   */\n      add\n        /* \"#utility.yul\":1498:1530   */\n      calldataload\n        /* \"#utility.yul\":1557:1575   */\n      0xffffffffffffffff\n        /* \"#utility.yul\":1549:1555   */\n      dup2\n        /* \"#utility.yul\":1546:1576   */\n      gt\n        /* \"#utility.yul\":1543:1660   */\n      iszero\n      tag_74\n      jumpi\n        /* \"#utility.yul\":1579:1658   */\n      tag_75\n      tag_72\n      jump\t// in\n    tag_75:\n        /* \"#utility.yul\":1543:1660   */\n    tag_74:\n        /* \"#utility.yul\":1684:1747   */\n      tag_76\n        /* \"#utility.yul\":1739:1746   */\n      dup6\n        /* \"#utility.yul\":1730:1736   */\n      dup3\n        /* \"#utility.yul\":1719:1728   */\n      dup7\n        /* \"#utility.yul\":1715:1737   */\n      add\n        /* \"#utility.yul\":1684:1747   */\n      tag_56\n      jump\t// in\n    tag_76:\n        /* \"#utility.yul\":1674:1747   */\n      swap2\n      pop\n        /* \"#utility.yul\":1469:1757   */\n      pop\n        /* \"#utility.yul\":930:1764   */\n      swap3\n      pop\n      swap3\n      swap1\n      pop\n      jump\t// out\n        /* \"#utility.yul\":1770:2099   */\n    tag_14:\n        /* \"#utility.yul\":1829:1835   */\n      0x00\n        /* \"#utility.yul\":1878:1880   */\n      0x20\n        /* \"#utility.yul\":1866:1875   */\n      dup3\n        /* \"#utility.yul\":1857:1864   */\n      dup5\n        /* \"#utility.yul\":1853:1876   */\n      sub\n        /* \"#utility.yul\":1849:1881   */\n      slt\n        /* \"#utility.yul\":1846:1965   */\n      iszero\n      tag_78\n      jumpi\n        /* \"#utility.yul\":1884:1963   */\n      tag_79\n      tag_69\n      jump\t// in\n    tag_79:\n        /* \"#utility.yul\":1846:1965   */\n    tag_78:\n        /* \"#utility.yul\":2004:2005   */\n      0x00\n        /* \"#utility.yul\":2029:2082   */\n      tag_80\n        /* \"#utility.yul\":2074:2081   */\n      dup5\n        /* \"#utility.yul\":2065:2071   */\n      dup3\n        /* \"#utility.yul\":2054:2063   */\n      dup6\n        /* \"#utility.yul\":2050:2072   */\n      add\n        /* \"#utility.yul\":2029:2082   */\n      tag_62\n      jump\t// in\n    tag_80:\n        /* \"#utility.yul\":2019:2082   */\n      swap2\n      pop\n        /* \"#utility.yul\":1975:2092   */\n      pop\n        /* \"#utility.yul\":1770:2099   */\n      swap3\n      swap2\n      pop\n      pop\n      jump\t// out\n        /* \"#utility.yul\":2105:2759   */\n    tag_18:\n        /* \"#utility.yul\":2183:2189   */\n      0x00\n        /* \"#utility.yul\":2191:2197   */\n      dup1\n        /* \"#utility.yul\":2240:2242   */\n      0x40\n        /* \"#utility.yul\":2228:2237   */\n      dup4\n        /* \"#utility.yul\":2219:2226   */\n      dup6\n        /* \"#utility.yul\":2215:2238   */\n      sub\n        /* \"#utility.yul\":2211:2243   */\n      slt\n        /* \"#utility.yul\":2208:2327   */\n      iszero\n      tag_82\n      jumpi\n        /* \"#utility.yul\":2246:2325   */\n      tag_83\n      tag_69\n      jump\t// in\n    tag_83:\n        /* \"#utility.yul\":2208:2327   */\n    tag_82:\n        /* \"#utility.yul\":2366:2367   */\n      0x00\n        /* \"#utility.yul\":2391:2444   */\n      tag_84\n        /* \"#utility.yul\":2436:2443   */\n      dup6\n        /* \"#utility.yul\":2427:2433   */\n      dup3\n        /* \"#utility.yul\":2416:2425   */\n      dup7\n        /* \"#utility.yul\":2412:2434   */\n      add\n        /* \"#utility.yul\":2391:2444   */\n      tag_62\n      jump\t// in\n    tag_84:\n        /* \"#utility.yul\":2381:2444   */\n      swap3\n      pop\n        /* \"#utility.yul\":2337:2454   */\n      pop\n        /* \"#utility.yul\":2521:2523   */\n      0x20\n        /* \"#utility.yul\":2510:2519   */\n      dup4\n        /* \"#utility.yul\":2506:2524   */\n      add\n        /* \"#utility.yul\":2493:2525   */\n      calldataload\n        /* \"#utility.yul\":2552:2570   */\n      0xffffffffffffffff\n        /* \"#utility.yul\":2544:2550   */\n      dup2\n        /* \"#utility.yul\":2541:2571   */\n      gt\n        /* \"#utility.yul\":2538:2655   */\n      iszero\n      tag_85\n      jumpi\n        /* \"#utility.yul\":2574:2653   */\n      tag_86\n      tag_72\n      jump\t// in\n    tag_86:\n        /* \"#utility.yul\":2538:2655   */\n    tag_85:\n        /* \"#utility.yul\":2679:2742   */\n      tag_87\n        /* \"#utility.yul\":2734:2741   */\n      dup6\n        /* \"#utility.yul\":2725:2731   */\n      dup3\n        /* \"#utility.yul\":2714:2723   */\n      dup7\n        /* \"#utility.yul\":2710:2732   */\n      add\n        /* \"#utility.yul\":2679:2742   */\n      tag_56\n      jump\t// in\n    tag_87:\n        /* \"#utility.yul\":2669:2742   */\n      swap2\n      pop\n        /* \"#utility.yul\":2464:2752   */\n      pop\n        /* \"#utility.yul\":2105:2759   */\n      swap3\n      pop\n      swap3\n      swap1\n      pop\n      jump\t// out\n        /* \"#utility.yul\":2765:2883   */\n    tag_88:\n        /* \"#utility.yul\":2852:2876   */\n      tag_90\n        /* \"#utility.yul\":2870:2875   */\n      dup2\n        /* \"#utility.yul\":2852:2876   */\n      tag_91\n      jump\t// in\n    tag_90:\n        /* \"#utility.yul\":2847:2850   */\n      dup3\n        /* \"#utility.yul\":2840:2877   */\n      mstore\n        /* \"#utility.yul\":2765:2883   */\n      pop\n      pop\n      jump\t// out\n        /* \"#utility.yul\":2889:3111   */\n    tag_11:\n        /* \"#utility.yul\":2982:2986   */\n      0x00\n        /* \"#utility.yul\":3020:3022   */\n      0x20\n        /* \"#utility.yul\":3009:3018   */\n      dup3\n        /* \"#utility.yul\":3005:3023   */\n      add\n        /* \"#utility.yul\":2997:3023   */\n      swap1\n      pop\n        /* \"#utility.yul\":3033:3104   */\n      tag_93\n        /* \"#utility.yul\":3101:3102   */\n      0x00\n        /* \"#utility.yul\":3090:3099   */\n      dup4\n        /* \"#utility.yul\":3086:3103   */\n      add\n        /* \"#utility.yul\":3077:3083   */\n      dup5\n        /* \"#utility.yul\":3033:3104   */\n      tag_88\n      jump\t// in\n    tag_93:\n        /* \"#utility.yul\":2889:3111   */\n      swap3\n      swap2\n      pop\n      pop\n      jump\t// out\n        /* \"#utility.yul\":3117:3246   */\n    tag_50:\n        /* \"#utility.yul\":3151:3157   */\n      0x00\n        /* \"#utility.yul\":3178:3198   */\n      tag_95\n      tag_96\n      jump\t// in\n    tag_95:\n        /* \"#utility.yul\":3168:3198   */\n      swap1\n      pop\n        /* \"#utility.yul\":3207:3240   */\n      tag_97\n        /* \"#utility.yul\":3235:3239   */\n      dup3\n        /* \"#utility.yul\":3227:3233   */\n      dup3\n        /* \"#utility.yul\":3207:3240   */\n      tag_98\n      jump\t// in\n    tag_97:\n        /* \"#utility.yul\":3117:3246   */\n      swap2\n      swap1\n      pop\n      jump\t// out\n        /* \"#utility.yul\":3252:3327   */\n    tag_96:\n        /* \"#utility.yul\":3285:3291   */\n      0x00\n        /* \"#utility.yul\":3318:3320   */\n      0x40\n        /* \"#utility.yul\":3312:3321   */\n      mload\n        /* \"#utility.yul\":3302:3321   */\n      swap1\n      pop\n        /* \"#utility.yul\":3252:3327   */\n      swap1\n      jump\t// out\n        /* \"#utility.yul\":3333:3641   */\n    tag_49:\n        /* \"#utility.yul\":3395:3399   */\n      0x00\n        /* \"#utility.yul\":3485:3503   */\n      0xffffffffffffffff\n        /* \"#utility.yul\":3477:3483   */\n      dup3\n        /* \"#utility.yul\":3474:3504   */\n      gt\n        /* \"#utility.yul\":3471:3527   */\n      iszero\n      tag_101\n      jumpi\n        /* \"#utility.yul\":3507:3525   */\n      tag_102\n      tag_103\n      jump\t// in\n    tag_102:\n        /* \"#utility.yul\":3471:3527   */\n    tag_101:\n        /* \"#utility.yul\":3545:3574   */\n      tag_104\n        /* \"#utility.yul\":3567:3573   */\n      dup3\n        /* \"#utility.yul\":3545:3574   */\n      tag_105\n      jump\t// in\n    tag_104:\n        /* \"#utility.yul\":3537:3574   */\n      swap1\n      pop\n        /* \"#utility.yul\":3629:3633   */\n      0x20\n        /* \"#utility.yul\":3623:3627   */\n      dup2\n        /* \"#utility.yul\":3619:3634   */\n      add\n        /* \"#utility.yul\":3611:3634   */\n      swap1\n      pop\n        /* \"#utility.yul\":3333:3641   */\n      swap2\n      swap1\n      pop\n      jump\t// out\n        /* \"#utility.yul\":3647:3838   */\n    tag_27:\n        /* \"#utility.yul\":3687:3691   */\n      0x00\n        /* \"#utility.yul\":3707:3727   */\n      tag_107\n        /* \"#utility.yul\":3725:3726   */\n      dup3\n        /* \"#utility.yul\":3707:3727   */\n      tag_91\n      jump\t// in\n    tag_107:\n        /* \"#utility.yul\":3702:3727   */\n      swap2\n      pop\n        /* \"#utility.yul\":3741:3761   */\n      tag_108\n        /* \"#utility.yul\":3759:3760   */\n      dup4\n        /* \"#utility.yul\":3741:3761   */\n      tag_91\n      jump\t// in\n    tag_108:\n        /* \"#utility.yul\":3736:3761   */\n      swap3\n      pop\n        /* \"#utility.yul\":3780:3781   */\n      dup3\n        /* \"#utility.yul\":3777:3778   */\n      dup3\n        /* \"#utility.yul\":3774:3782   */\n      lt\n        /* \"#utility.yul\":3771:3805   */\n      iszero\n      tag_109\n      jumpi\n        /* \"#utility.yul\":3785:3803   */\n      tag_110\n      tag_111\n      jump\t// in\n    tag_110:\n        /* \"#utility.yul\":3771:3805   */\n    tag_109:\n        /* \"#utility.yul\":3830:3831   */\n      dup3\n        /* \"#utility.yul\":3827:3828   */\n      dup3\n        /* \"#utility.yul\":3823:3832   */\n      sub\n        /* \"#utility.yul\":3815:3832   */\n      swap1\n      pop\n        /* \"#utility.yul\":3647:3838   */\n      swap3\n      swap2\n      pop\n      pop\n      jump\t// out\n        /* \"#utility.yul\":3844:3921   */\n    tag_91:\n        /* \"#utility.yul\":3881:3888   */\n      0x00\n        /* \"#utility.yul\":3910:3915   */\n      dup2\n        /* \"#utility.yul\":3899:3915   */\n      swap1\n      pop\n        /* \"#utility.yul\":3844:3921   */\n      swap2\n      swap1\n      pop\n      jump\t// out\n        /* \"#utility.yul\":3927:4081   */\n    tag_55:\n        /* \"#utility.yul\":4011:4017   */\n      dup3\n        /* \"#utility.yul\":4006:4009   */\n      dup2\n        /* \"#utility.yul\":4001:4004   */\n      dup4\n        /* \"#utility.yul\":3988:4018   */\n      calldatacopy\n        /* \"#utility.yul\":4073:4074   */\n      0x00\n        /* \"#utility.yul\":4064:4070   */\n      dup4\n        /* \"#utility.yul\":4059:4062   */\n      dup4\n        /* \"#utility.yul\":4055:4071   */\n      add\n        /* \"#utility.yul\":4048:4075   */\n      mstore\n        /* \"#utility.yul\":3927:4081   */\n      pop\n      pop\n      pop\n      jump\t// out\n        /* \"#utility.yul\":4087:4407   */\n    tag_34:\n        /* \"#utility.yul\":4131:4137   */\n      0x00\n        /* \"#utility.yul\":4168:4169   */\n      0x02\n        /* \"#utility.yul\":4162:4166   */\n      dup3\n        /* \"#utility.yul\":4158:4170   */\n      div\n        /* \"#utility.yul\":4148:4170   */\n      swap1\n      pop\n        /* \"#utility.yul\":4215:4216   */\n      0x01\n        /* \"#utility.yul\":4209:4213   */\n      dup3\n        /* \"#utility.yul\":4205:4217   */\n      and\n        /* \"#utility.yul\":4236:4254   */\n      dup1\n        /* \"#utility.yul\":4226:4307   */\n      tag_115\n      jumpi\n        /* \"#utility.yul\":4292:4296   */\n      0x7f\n        /* \"#utility.yul\":4284:4290   */\n      dup3\n        /* \"#utility.yul\":4280:4297   */\n      and\n        /* \"#utility.yul\":4270:4297   */\n      swap2\n      pop\n        /* \"#utility.yul\":4226:4307   */\n    tag_115:\n        /* \"#utility.yul\":4354:4356   */\n      0x20\n        /* \"#utility.yul\":4346:4352   */\n      dup3\n        /* \"#utility.yul\":4343:4357   */\n      lt\n        /* \"#utility.yul\":4323:4341   */\n      dup2\n        /* \"#utility.yul\":4320:4358   */\n      eq\n        /* \"#utility.yul\":4317:4401   */\n      iszero\n      tag_116\n      jumpi\n        /* \"#utility.yul\":4373:4391   */\n      tag_117\n      tag_118\n      jump\t// in\n    tag_117:\n        /* \"#utility.yul\":4317:4401   */\n    tag_116:\n        /* \"#utility.yul\":4138:4407   */\n      pop\n        /* \"#utility.yul\":4087:4407   */\n      swap2\n      swap1\n      pop\n      jump\t// out\n        /* \"#utility.yul\":4413:4694   */\n    tag_98:\n        /* \"#utility.yul\":4496:4523   */\n      tag_120\n        /* \"#utility.yul\":4518:4522   */\n      dup3\n        /* \"#utility.yul\":4496:4523   */\n      tag_105\n      jump\t// in\n    tag_120:\n        /* \"#utility.yul\":4488:4494   */\n      dup2\n        /* \"#utility.yul\":4484:4524   */\n      add\n        /* \"#utility.yul\":4626:4632   */\n      dup2\n        /* \"#utility.yul\":4614:4624   */\n      dup2\n        /* \"#utility.yul\":4611:4633   */\n      lt\n        /* \"#utility.yul\":4590:4608   */\n      0xffffffffffffffff\n        /* \"#utility.yul\":4578:4588   */\n      dup3\n        /* \"#utility.yul\":4575:4609   */\n      gt\n        /* \"#utility.yul\":4572:4634   */\n      or\n        /* \"#utility.yul\":4569:4657   */\n      iszero\n      tag_121\n      jumpi\n        /* \"#utility.yul\":4637:4655   */\n      tag_122\n      tag_103\n      jump\t// in\n    tag_122:\n        /* \"#utility.yul\":4569:4657   */\n    tag_121:\n        /* \"#utility.yul\":4677:4687   */\n      dup1\n        /* \"#utility.yul\":4673:4675   */\n      0x40\n        /* \"#utility.yul\":4666:4688   */\n      mstore\n        /* \"#utility.yul\":4456:4694   */\n      pop\n        /* \"#utility.yul\":4413:4694   */\n      pop\n      pop\n      jump\t// out\n        /* \"#utility.yul\":4700:4933   */\n    tag_22:\n        /* \"#utility.yul\":4739:4742   */\n      0x00\n        /* \"#utility.yul\":4762:4786   */\n      tag_124\n        /* \"#utility.yul\":4780:4785   */\n      dup3\n        /* \"#utility.yul\":4762:4786   */\n      tag_91\n      jump\t// in\n    tag_124:\n        /* \"#utility.yul\":4753:4786   */\n      swap2\n      pop\n        /* \"#utility.yul\":4808:4874   */\n      0xffffffffffffffffffffffffffffffffffffffffffffffffffffffffffffffff\n        /* \"#utility.yul\":4801:4806   */\n      dup3\n        /* \"#utility.yul\":4798:4875   */\n      eq\n        /* \"#utility.yul\":4795:4898   */\n      iszero\n      tag_125\n      jumpi\n        /* \"#utility.yul\":4878:4896   */\n      tag_126\n      tag_111\n      jump\t// in\n    tag_126:\n        /* \"#utility.yul\":4795:4898   */\n    tag_125:\n        /* \"#utility.yul\":4925:4926   */\n      0x01\n        /* \"#utility.yul\":4918:4923   */\n      dup3\n        /* \"#utility.yul\":4914:4927   */\n      add\n        /* \"#utility.yul\":4907:4927   */\n      swap1\n      pop\n        /* \"#utility.yul\":4700:4933   */\n      swap2\n      swap1\n      pop\n      jump\t// out\n        /* \"#utility.yul\":4939:5119   */\n    tag_111:\n        /* \"#utility.yul\":4987:5064   */\n      0x4e487b7100000000000000000000000000000000000000000000000000000000\n        /* \"#utility.yul\":4984:4985   */\n      0x00\n        /* \"#utility.yul\":4977:5065   */\n      mstore\n        /* \"#utility.yul\":5084:5088   */\n      0x11\n        /* \"#utility.yul\":5081:5082   */\n      0x04\n        /* \"#utility.yul\":5074:5089   */\n      mstore\n        /* \"#utility.yul\":5108:5112   */\n      0x24\n        /* \"#utility.yul\":5105:5106   */\n      0x00\n        /* \"#utility.yul\":5098:5113   */\n      revert\n        /* \"#utility.yul\":5125:5305   */\n    tag_118:\n        /* \"#utility.yul\":5173:5250   */\n      0x4e487b7100000000000000000000000000000000000000000000000000000000\n        /* \"#utility.yul\":5170:5171   */\n      0x00\n        /* \"#utility.yul\":5163:5251   */\n      mstore\n        /* \"#utility.yul\":5270:5274   */\n      0x22\n        /* \"#utility.yul\":5267:5268   */\n      0x04\n        /* \"#utility.yul\":5260:5275   */\n      mstore\n        /* \"#utility.yul\":5294:5298   */\n      0x24\n        /* \"#utility.yul\":5291:5292   */\n      0x00\n        /* \"#utility.yul\":5284:5299   */\n      revert\n        /* \"#utility.yul\":5311:5491   */\n    tag_103:\n        /* \"#utility.yul\":5359:5436   */\n      0x4e487b7100000000000000000000000000000000000000000000000000000000\n        /* \"#utility.yul\":5356:5357   */\n      0x00\n        /* \"#utility.yul\":5349:5437   */\n      mstore\n        /* \"#utility.yul\":5456:5460   */\n      0x41\n        /* \"#utility.yul\":5453:5454   */\n      0x04\n        /* \"#utility.yul\":5446:5461   */\n      mstore\n        /* \"#utility.yul\":5480:5484   */\n      0x24\n        /* \"#utility.yul\":5477:5478   */\n      0x00\n        /* \"#utility.yul\":5470:5485   */\n      revert\n        /* \"#utility.yul\":5497:5614   */\n    tag_60:\n        /* \"#utility.yul\":5606:5607   */\n      0x00\n        /* \"#utility.yul\":5603:5604   */\n      dup1\n        /* \"#utility.yul\":5596:5608   */\n      revert\n        /* \"#utility.yul\":5620:5737   */\n    tag_53:\n        /* \"#utility.yul\":5729:5730   */\n      0x00\n        /* \"#utility.yul\":5726:5727   */\n      dup1\n        /* \"#utility.yul\":5719:5731   */\n      revert\n        /* \"#utility.yul\":5743:5860   */\n    tag_72:\n        /* \"#utility.yul\":5852:5853   */\n      0x00\n        /* \"#utility.yul\":5849:5850   */\n      dup1\n        /* \"#utility.yul\":5842:5854   */\n      revert\n        /* \"#utility.yul\":5866:5983   */\n    tag_69:\n        /* \"#utility.yul\":5975:5976   */\n      0x00\n        /* \"#utility.yul\":5972:5973   */\n      dup1\n        /* \"#utility.yul\":5965:5977   */\n      revert\n        /* \"#utility.yul\":5989:6091   */\n    tag_105:\n        /* \"#utility.yul\":6030:6036   */\n      0x00\n        /* \"#utility.yul\":6081:6083   */\n      0x1f\n        /* \"#utility.yul\":6077:6084   */\n      not\n        /* \"#utility.yul\":6072:6074   */\n      0x1f\n        /* \"#utility.yul\":6065:6070   */\n      dup4\n        /* \"#utility.yul\":6061:6075   */\n      add\n        /* \"#utility.yul\":6057:6085   */\n      and\n        /* \"#utility.yul\":6047:6085   */\n      swap1\n      pop\n        /* \"#utility.yul\":5989:6091   */\n      swap2\n      swap1\n      pop\n      jump\t// out\n        /* \"#utility.yul\":6097:6219   */\n    tag_65:\n        /* \"#utility.yul\":6170:6194   */\n      tag_136\n        /* \"#utility.yul\":6188:6193   */\n      dup2\n        /* \"#utility.yul\":6170:6194   */\n      tag_91\n      jump\t// in\n    tag_136:\n        /* \"#utility.yul\":6163:6168   */\n      dup2\n        /* \"#utility.yul\":6160:6195   */\n      eq\n        /* \"#utility.yul\":6150:6213   */\n      tag_137\n      jumpi\n        /* \"#utility.yul\":6209:6210   */\n      0x00\n        /* \"#utility.yul\":6206:6207   */\n      dup1\n        /* \"#utility.yul\":6199:6211   */\n      revert\n        /* \"#utility.yul\":6150:6213   */\n    tag_137:\n        /* \"#utility.yul\":6097:6219   */\n      pop\n      jump\t// out\n\n    auxdata: 0xa2646970667358221220875ca18253b1b47d8b168918191b2771eb555e60f734c8fea14efbbd700438dc64736f6c63430008070033\n}\n",
				"bytecode": {
					"linkReferences": {},
					"object": "6080604052600060015534801561001557600080fd5b5061070e806100256000396000f3fe608060405234801561001057600080fd5b50600436106100415760003560e01c80635ea81a3214610046578063a901d15c14610076578063ea57d5d414610092575b600080fd5b610060600480360381019061005b9190610395565b6100ae565b60405161006d91906104a5565b60405180910390f35b610090600480360381019061008b919061040d565b6101ae565b005b6100ac60048036038101906100a7919061043a565b6101e5565b005b600080600080600160008154809291906100c7906105c6565b9190505581526020019081526020016000209050838160000190805190602001906100f392919061026d565b508281600101908051906020019061010c92919061026d565b5060008160020181905550338160030160006101000a81548173ffffffffffffffffffffffffffffffffffffffff021916908373ffffffffffffffffffffffffffffffffffffffff1602179055506000816005018190555060008160060160006101000a81548160ff0219169083151502179055506001805461018f9190610516565b8160070181905550600180546101a59190610516565b91505092915050565b6000806000838152602001908152602001600020905060018160060160006101000a81548160ff0219169083151502179055505050565b600080600084815260200190815260200160002090506040518060400160405280838152602001600081525081600401600083600501600081548092919061022c906105c6565b919050558152602001908152602001600020600082015181600001908051906020019061025a92919061026d565b5060208201518160010155905050505050565b82805461027990610563565b90600052602060002090601f01602090048101928261029b57600085556102e2565b82601f106102b457805160ff19168380011785556102e2565b828001600101855582156102e2579182015b828111156102e15782518255916020019190600101906102c6565b5b5090506102ef91906102f3565b5090565b5b8082111561030c5760008160009055506001016102f4565b5090565b600061032361031e846104e5565b6104c0565b90508281526020810184848401111561033f5761033e6106a1565b5b61034a848285610554565b509392505050565b600082601f8301126103675761036661069c565b5b8135610377848260208601610310565b91505092915050565b60008135905061038f816106c1565b92915050565b600080604083850312156103ac576103ab6106ab565b5b600083013567ffffffffffffffff8111156103ca576103c96106a6565b5b6103d685828601610352565b925050602083013567ffffffffffffffff8111156103f7576103f66106a6565b5b61040385828601610352565b9150509250929050565b600060208284031215610423576104226106ab565b5b600061043184828501610380565b91505092915050565b60008060408385031215610451576104506106ab565b5b600061045f85828601610380565b925050602083013567ffffffffffffffff8111156104805761047f6106a6565b5b61048c85828601610352565b9150509250929050565b61049f8161054a565b82525050565b60006020820190506104ba6000830184610496565b92915050565b60006104ca6104db565b90506104d68282610595565b919050565b6000604051905090565b600067ffffffffffffffff821115610500576104ff61066d565b5b610509826106b0565b9050602081019050919050565b60006105218261054a565b915061052c8361054a565b92508282101561053f5761053e61060f565b5b828203905092915050565b6000819050919050565b82818337600083830152505050565b6000600282049050600182168061057b57607f821691505b6020821081141561058f5761058e61063e565b5b50919050565b61059e826106b0565b810181811067ffffffffffffffff821117156105bd576105bc61066d565b5b80604052505050565b60006105d18261054a565b91507fffffffffffffffffffffffffffffffffffffffffffffffffffffffffffffffff8214156106045761060361060f565b5b600182019050919050565b7f4e487b7100000000000000000000000000000000000000000000000000000000600052601160045260246000fd5b7f4e487b7100000000000000000000000000000000000000000000000000000000600052602260045260246000fd5b7f4e487b7100000000000000000000000000000000000000000000000000000000600052604160045260246000fd5b600080fd5b600080fd5b600080fd5b600080fd5b6000601f19601f8301169050919050565b6106ca8161054a565b81146106d557600080fd5b5056fea2646970667358221220875ca18253b1b47d8b168918191b2771eb555e60f734c8fea14efbbd700438dc64736f6c63430008070033",
					"opcodes": "PUSH1 0x80 PUSH1 0x40 MSTORE PUSH1 0x0 PUSH1 0x1 SSTORE CALLVALUE DUP1 ISZERO PUSH2 0x15 JUMPI PUSH1 0x0 DUP1 REVERT JUMPDEST POP PUSH2 0x70E DUP1 PUSH2 0x25 PUSH1 0x0 CODECOPY PUSH1 0x0 RETURN INVALID PUSH1 0x80 PUSH1 0x40 MSTORE CALLVALUE DUP1 ISZERO PUSH2 0x10 JUMPI PUSH1 0x0 DUP1 REVERT JUMPDEST POP PUSH1 0x4 CALLDATASIZE LT PUSH2 0x41 JUMPI PUSH1 0x0 CALLDATALOAD PUSH1 0xE0 SHR DUP1 PUSH4 0x5EA81A32 EQ PUSH2 0x46 JUMPI DUP1 PUSH4 0xA901D15C EQ PUSH2 0x76 JUMPI DUP1 PUSH4 0xEA57D5D4 EQ PUSH2 0x92 JUMPI JUMPDEST PUSH1 0x0 DUP1 REVERT JUMPDEST PUSH2 0x60 PUSH1 0x4 DUP1 CALLDATASIZE SUB DUP2 ADD SWAP1 PUSH2 0x5B SWAP2 SWAP1 PUSH2 0x395 JUMP JUMPDEST PUSH2 0xAE JUMP JUMPDEST PUSH1 0x40 MLOAD PUSH2 0x6D SWAP2 SWAP1 PUSH2 0x4A5 JUMP JUMPDEST PUSH1 0x40 MLOAD DUP1 SWAP2 SUB SWAP1 RETURN JUMPDEST PUSH2 0x90 PUSH1 0x4 DUP1 CALLDATASIZE SUB DUP2 ADD SWAP1 PUSH2 0x8B SWAP2 SWAP1 PUSH2 0x40D JUMP JUMPDEST PUSH2 0x1AE JUMP JUMPDEST STOP JUMPDEST PUSH2 0xAC PUSH1 0x4 DUP1 CALLDATASIZE SUB DUP2 ADD SWAP1 PUSH2 0xA7 SWAP2 SWAP1 PUSH2 0x43A JUMP JUMPDEST PUSH2 0x1E5 JUMP JUMPDEST STOP JUMPDEST PUSH1 0x0 DUP1 PUSH1 0x0 DUP1 PUSH1 0x1 PUSH1 0x0 DUP2 SLOAD DUP1 SWAP3 SWAP2 SWAP1 PUSH2 0xC7 SWAP1 PUSH2 0x5C6 JUMP JUMPDEST SWAP2 SWAP1 POP SSTORE DUP2 MSTORE PUSH1 0x20 ADD SWAP1 DUP2 MSTORE PUSH1 0x20 ADD PUSH1 0x0 KECCAK256 SWAP1 POP DUP4 DUP2 PUSH1 0x0 ADD SWAP1 DUP1 MLOAD SWAP1 PUSH1 0x20 ADD SWAP1 PUSH2 0xF3 SWAP3 SWAP2 SWAP1 PUSH2 0x26D JUMP JUMPDEST POP DUP3 DUP2 PUSH1 0x1 ADD SWAP1 DUP1 MLOAD SWAP1 PUSH1 0x20 ADD SWAP1 PUSH2 0x10C SWAP3 SWAP2 SWAP1 PUSH2 0x26D JUMP JUMPDEST POP PUSH1 0x0 DUP2 PUSH1 0x2 ADD DUP2 SWAP1 SSTORE POP CALLER DUP2 PUSH1 0x3 ADD PUSH1 0x0 PUSH2 0x100 EXP DUP2 SLOAD DUP2 PUSH20 0xFFFFFFFFFFFFFFFFFFFFFFFFFFFFFFFFFFFFFFFF MUL NOT AND SWAP1 DUP4 PUSH20 0xFFFFFFFFFFFFFFFFFFFFFFFFFFFFFFFFFFFFFFFF AND MUL OR SWAP1 SSTORE POP PUSH1 0x0 DUP2 PUSH1 0x5 ADD DUP2 SWAP1 SSTORE POP PUSH1 0x0 DUP2 PUSH1 0x6 ADD PUSH1 0x0 PUSH2 0x100 EXP DUP2 SLOAD DUP2 PUSH1 0xFF MUL NOT AND SWAP1 DUP4 ISZERO ISZERO MUL OR SWAP1 SSTORE POP PUSH1 0x1 DUP1 SLOAD PUSH2 0x18F SWAP2 SWAP1 PUSH2 0x516 JUMP JUMPDEST DUP2 PUSH1 0x7 ADD DUP2 SWAP1 SSTORE POP PUSH1 0x1 DUP1 SLOAD PUSH2 0x1A5 SWAP2 SWAP1 PUSH2 0x516 JUMP JUMPDEST SWAP2 POP POP SWAP3 SWAP2 POP POP JUMP JUMPDEST PUSH1 0x0 DUP1 PUSH1 0x0 DUP4 DUP2 MSTORE PUSH1 0x20 ADD SWAP1 DUP2 MSTORE PUSH1 0x20 ADD PUSH1 0x0 KECCAK256 SWAP1 POP PUSH1 0x1 DUP2 PUSH1 0x6 ADD PUSH1 0x0 PUSH2 0x100 EXP DUP2 SLOAD DUP2 PUSH1 0xFF MUL NOT AND SWAP1 DUP4 ISZERO ISZERO MUL OR SWAP1 SSTORE POP POP POP JUMP JUMPDEST PUSH1 0x0 DUP1 PUSH1 0x0 DUP5 DUP2 MSTORE PUSH1 0x20 ADD SWAP1 DUP2 MSTORE PUSH1 0x20 ADD PUSH1 0x0 KECCAK256 SWAP1 POP PUSH1 0x40 MLOAD DUP1 PUSH1 0x40 ADD PUSH1 0x40 MSTORE DUP1 DUP4 DUP2 MSTORE PUSH1 0x20 ADD PUSH1 0x0 DUP2 MSTORE POP DUP2 PUSH1 0x4 ADD PUSH1 0x0 DUP4 PUSH1 0x5 ADD PUSH1 0x0 DUP2 SLOAD DUP1 SWAP3 SWAP2 SWAP1 PUSH2 0x22C SWAP1 PUSH2 0x5C6 JUMP JUMPDEST SWAP2 SWAP1 POP SSTORE DUP2 MSTORE PUSH1 0x20 ADD SWAP1 DUP2 MSTORE PUSH1 0x20 ADD PUSH1 0x0 KECCAK256 PUSH1 0x0 DUP3 ADD MLOAD DUP2 PUSH1 0x0 ADD SWAP1 DUP1 MLOAD SWAP1 PUSH1 0x20 ADD SWAP1 PUSH2 0x25A SWAP3 SWAP2 SWAP1 PUSH2 0x26D JUMP JUMPDEST POP PUSH1 0x20 DUP3 ADD MLOAD DUP2 PUSH1 0x1 ADD SSTORE SWAP1 POP POP POP POP POP JUMP JUMPDEST DUP3 DUP1 SLOAD PUSH2 0x279 SWAP1 PUSH2 0x563 JUMP JUMPDEST SWAP1 PUSH1 0x0 MSTORE PUSH1 0x20 PUSH1 0x0 KECCAK256 SWAP1 PUSH1 0x1F ADD PUSH1 0x20 SWAP1 DIV DUP2 ADD SWAP3 DUP3 PUSH2 0x29B JUMPI PUSH1 0x0 DUP6 SSTORE PUSH2 0x2E2 JUMP JUMPDEST DUP3 PUSH1 0x1F LT PUSH2 0x2B4 JUMPI DUP1 MLOAD PUSH1 0xFF NOT AND DUP4 DUP1 ADD OR DUP6 SSTORE PUSH2 0x2E2 JUMP JUMPDEST DUP3 DUP1 ADD PUSH1 0x1 ADD DUP6 SSTORE DUP3 ISZERO PUSH2 0x2E2 JUMPI SWAP2 DUP3 ADD JUMPDEST DUP3 DUP2 GT ISZERO PUSH2 0x2E1 JUMPI DUP3 MLOAD DUP3 SSTORE SWAP2 PUSH1 0x20 ADD SWAP2 SWAP1 PUSH1 0x1 ADD SWAP1 PUSH2 0x2C6 JUMP JUMPDEST JUMPDEST POP SWAP1 POP PUSH2 0x2EF SWAP2 SWAP1 PUSH2 0x2F3 JUMP JUMPDEST POP SWAP1 JUMP JUMPDEST JUMPDEST DUP1 DUP3 GT ISZERO PUSH2 0x30C JUMPI PUSH1 0x0 DUP2 PUSH1 0x0 SWAP1 SSTORE POP PUSH1 0x1 ADD PUSH2 0x2F4 JUMP JUMPDEST POP SWAP1 JUMP JUMPDEST PUSH1 0x0 PUSH2 0x323 PUSH2 0x31E DUP5 PUSH2 0x4E5 JUMP JUMPDEST PUSH2 0x4C0 JUMP JUMPDEST SWAP1 POP DUP3 DUP2 MSTORE PUSH1 0x20 DUP2 ADD DUP5 DUP5 DUP5 ADD GT ISZERO PUSH2 0x33F JUMPI PUSH2 0x33E PUSH2 0x6A1 JUMP JUMPDEST JUMPDEST PUSH2 0x34A DUP5 DUP3 DUP6 PUSH2 0x554 JUMP JUMPDEST POP SWAP4 SWAP3 POP POP POP JUMP JUMPDEST PUSH1 0x0 DUP3 PUSH1 0x1F DUP4 ADD SLT PUSH2 0x367 JUMPI PUSH2 0x366 PUSH2 0x69C JUMP JUMPDEST JUMPDEST DUP2 CALLDATALOAD PUSH2 0x377 DUP5 DUP3 PUSH1 0x20 DUP7 ADD PUSH2 0x310 JUMP JUMPDEST SWAP2 POP POP SWAP3 SWAP2 POP POP JUMP JUMPDEST PUSH1 0x0 DUP2 CALLDATALOAD SWAP1 POP PUSH2 0x38F DUP2 PUSH2 0x6C1 JUMP JUMPDEST SWAP3 SWAP2 POP POP JUMP JUMPDEST PUSH1 0x0 DUP1 PUSH1 0x40 DUP4 DUP6 SUB SLT ISZERO PUSH2 0x3AC JUMPI PUSH2 0x3AB PUSH2 0x6AB JUMP JUMPDEST JUMPDEST PUSH1 0x0 DUP4 ADD CALLDATALOAD PUSH8 0xFFFFFFFFFFFFFFFF DUP2 GT ISZERO PUSH2 0x3CA JUMPI PUSH2 0x3C9 PUSH2 0x6A6 JUMP JUMPDEST JUMPDEST PUSH2 0x3D6 DUP6 DUP3 DUP7 ADD PUSH2 0x352 JUMP JUMPDEST SWAP3 POP POP PUSH1 0x20 DUP4 ADD CALLDATALOAD PUSH8 0xFFFFFFFFFFFFFFFF DUP2 GT ISZERO PUSH2 0x3F7 JUMPI PUSH2 0x3F6 PUSH2 0x6A6 JUMP JUMPDEST JUMPDEST PUSH2 0x403 DUP6 DUP3 DUP7 ADD PUSH2 0x352 JUMP JUMPDEST SWAP2 POP POP SWAP3 POP SWAP3 SWAP1 POP JUMP JUMPDEST PUSH1 0x0 PUSH1 0x20 DUP3 DUP5 SUB SLT ISZERO PUSH2 0x423 JUMPI PUSH2 0x422 PUSH2 0x6AB JUMP JUMPDEST JUMPDEST PUSH1 0x0 PUSH2 0x431 DUP5 DUP3 DUP6 ADD PUSH2 0x380 JUMP JUMPDEST SWAP2 POP POP SWAP3 SWAP2 POP POP JUMP JUMPDEST PUSH1 0x0 DUP1 PUSH1 0x40 DUP4 DUP6 SUB SLT ISZERO PUSH2 0x451 JUMPI PUSH2 0x450 PUSH2 0x6AB JUMP JUMPDEST JUMPDEST PUSH1 0x0 PUSH2 0x45F DUP6 DUP3 DUP7 ADD PUSH2 0x380 JUMP JUMPDEST SWAP3 POP POP PUSH1 0x20 DUP4 ADD CALLDATALOAD PUSH8 0xFFFFFFFFFFFFFFFF DUP2 GT ISZERO PUSH2 0x480 JUMPI PUSH2 0x47F PUSH2 0x6A6 JUMP JUMPDEST JUMPDEST PUSH2 0x48C DUP6 DUP3 DUP7 ADD PUSH2 0x352 JUMP JUMPDEST SWAP2 POP POP SWAP3 POP SWAP3 SWAP1 POP JUMP JUMPDEST PUSH2 0x49F DUP2 PUSH2 0x54A JUMP JUMPDEST DUP3 MSTORE POP POP JUMP JUMPDEST PUSH1 0x0 PUSH1 0x20 DUP3 ADD SWAP1 POP PUSH2 0x4BA PUSH1 0x0 DUP4 ADD DUP5 PUSH2 0x496 JUMP JUMPDEST SWAP3 SWAP2 POP POP JUMP JUMPDEST PUSH1 0x0 PUSH2 0x4CA PUSH2 0x4DB JUMP JUMPDEST SWAP1 POP PUSH2 0x4D6 DUP3 DUP3 PUSH2 0x595 JUMP JUMPDEST SWAP2 SWAP1 POP JUMP JUMPDEST PUSH1 0x0 PUSH1 0x40 MLOAD SWAP1 POP SWAP1 JUMP JUMPDEST PUSH1 0x0 PUSH8 0xFFFFFFFFFFFFFFFF DUP3 GT ISZERO PUSH2 0x500 JUMPI PUSH2 0x4FF PUSH2 0x66D JUMP JUMPDEST JUMPDEST PUSH2 0x509 DUP3 PUSH2 0x6B0 JUMP JUMPDEST SWAP1 POP PUSH1 0x20 DUP2 ADD SWAP1 POP SWAP2 SWAP1 POP JUMP JUMPDEST PUSH1 0x0 PUSH2 0x521 DUP3 PUSH2 0x54A JUMP JUMPDEST SWAP2 POP PUSH2 0x52C DUP4 PUSH2 0x54A JUMP JUMPDEST SWAP3 POP DUP3 DUP3 LT ISZERO PUSH2 0x53F JUMPI PUSH2 0x53E PUSH2 0x60F JUMP JUMPDEST JUMPDEST DUP3 DUP3 SUB SWAP1 POP SWAP3 SWAP2 POP POP JUMP JUMPDEST PUSH1 0x0 DUP2 SWAP1 POP SWAP2 SWAP1 POP JUMP JUMPDEST DUP3 DUP2 DUP4 CALLDATACOPY PUSH1 0x0 DUP4 DUP4 ADD MSTORE POP POP POP JUMP JUMPDEST PUSH1 0x0 PUSH1 0x2 DUP3 DIV SWAP1 POP PUSH1 0x1 DUP3 AND DUP1 PUSH2 0x57B JUMPI PUSH1 0x7F DUP3 AND SWAP2 POP JUMPDEST PUSH1 0x20 DUP3 LT DUP2 EQ ISZERO PUSH2 0x58F JUMPI PUSH2 0x58E PUSH2 0x63E JUMP JUMPDEST JUMPDEST POP SWAP2 SWAP1 POP JUMP JUMPDEST PUSH2 0x59E DUP3 PUSH2 0x6B0 JUMP JUMPDEST DUP2 ADD DUP2 DUP2 LT PUSH8 0xFFFFFFFFFFFFFFFF DUP3 GT OR ISZERO PUSH2 0x5BD JUMPI PUSH2 0x5BC PUSH2 0x66D JUMP JUMPDEST JUMPDEST DUP1 PUSH1 0x40 MSTORE POP POP POP JUMP JUMPDEST PUSH1 0x0 PUSH2 0x5D1 DUP3 PUSH2 0x54A JUMP JUMPDEST SWAP2 POP PUSH32 0xFFFFFFFFFFFFFFFFFFFFFFFFFFFFFFFFFFFFFFFFFFFFFFFFFFFFFFFFFFFFFFFF DUP3 EQ ISZERO PUSH2 0x604 JUMPI PUSH2 0x603 PUSH2 0x60F JUMP JUMPDEST JUMPDEST PUSH1 0x1 DUP3 ADD SWAP1 POP SWAP2 SWAP1 POP JUMP JUMPDEST PUSH32 0x4E487B7100000000000000000000000000000000000000000000000000000000 PUSH1 0x0 MSTORE PUSH1 0x11 PUSH1 0x4 MSTORE PUSH1 0x24 PUSH1 0x0 REVERT JUMPDEST PUSH32 0x4E487B7100000000000000000000000000000000000000000000000000000000 PUSH1 0x0 MSTORE PUSH1 0x22 PUSH1 0x4 MSTORE PUSH1 0x24 PUSH1 0x0 REVERT JUMPDEST PUSH32 0x4E487B7100000000000000000000000000000000000000000000000000000000 PUSH1 0x0 MSTORE PUSH1 0x41 PUSH1 0x4 MSTORE PUSH1 0x24 PUSH1 0x0 REVERT JUMPDEST PUSH1 0x0 DUP1 REVERT JUMPDEST PUSH1 0x0 DUP1 REVERT JUMPDEST PUSH1 0x0 DUP1 REVERT JUMPDEST PUSH1 0x0 DUP1 REVERT JUMPDEST PUSH1 0x0 PUSH1 0x1F NOT PUSH1 0x1F DUP4 ADD AND SWAP1 POP SWAP2 SWAP1 POP JUMP JUMPDEST PUSH2 0x6CA DUP2 PUSH2 0x54A JUMP JUMPDEST DUP2 EQ PUSH2 0x6D5 JUMPI PUSH1 0x0 DUP1 REVERT JUMPDEST POP JUMP INVALID LOG2 PUSH5 0x6970667358 0x22 SLT KECCAK256 DUP8 0x5C LOG1 DUP3 MSTORE8 0xB1 0xB4 PUSH30 0x8B168918191B2771EB555E60F734C8FEA14EFBBD700438DC64736F6C6343 STOP ADDMOD SMOD STOP CALLER "
				},
				"gasEstimates": {
					"creation": {
						"codeDepositCost": "361200",
						"executionCost": "5405",
						"totalCost": "366605"
					},
					"external": {
						"addOption(uint256,string)": "infinite",
						"createPool(string,string)": "infinite",
						"startPool(uint256)": "24770"
					}
				},
				"methodIdentifiers": {
					"addOption(uint256,string)": "ea57d5d4",
					"createPool(string,string)": "5ea81a32",
					"startPool(uint256)": "a901d15c"
				}
			},
			"userdoc": {
				"kind": "user",
				"methods": {},
				"version": 1
			}
		}
	}
}