{
	"contracts/eVoting_app.sol": {
		"EVoteApp": {
			"abi": [
				{
					"inputs": [
						{
							"internalType": "uint256",
							"name": "_poolIndex",
							"type": "uint256"
						},
						{
							"internalType": "string",
							"name": "_name",
							"type": "string"
						}
					],
					"name": "addOption",
					"outputs": [],
					"stateMutability": "nonpayable",
					"type": "function"
				},
				{
					"inputs": [
						{
							"internalType": "string",
							"name": "_poolName",
							"type": "string"
						},
						{
							"internalType": "string",
							"name": "_description",
							"type": "string"
						}
					],
					"name": "createPool",
					"outputs": [],
					"stateMutability": "nonpayable",
					"type": "function"
				},
				{
					"inputs": [
						{
							"internalType": "uint256",
							"name": "_poolIndex",
							"type": "uint256"
						},
						{
							"internalType": "string",
							"name": "_name",
							"type": "string"
						}
					],
					"name": "startP",
					"outputs": [],
					"stateMutability": "nonpayable",
					"type": "function"
				}
			],
			"devdoc": {
				"kind": "dev",
				"methods": {},
				"version": 1
			},
			"evm": {
				"assembly": "    /* \"contracts/eVoting_app.sol\":71:1446  contract EVoteApp{... */\n  mstore(0x40, 0x80)\n    /* \"contracts/eVoting_app.sol\":616:617  0 */\n  0x00\n    /* \"contracts/eVoting_app.sol\":595:617  uint256 numOfPools = 0 */\n  0x01\n  sstore\n    /* \"contracts/eVoting_app.sol\":71:1446  contract EVoteApp{... */\n  callvalue\n  dup1\n  iszero\n  tag_1\n  jumpi\n  0x00\n  dup1\n  revert\ntag_1:\n  pop\n  dataSize(sub_0)\n  dup1\n  dataOffset(sub_0)\n  0x00\n  codecopy\n  0x00\n  return\nstop\n\nsub_0: assembly {\n        /* \"contracts/eVoting_app.sol\":71:1446  contract EVoteApp{... */\n      mstore(0x40, 0x80)\n      callvalue\n      dup1\n      iszero\n      tag_1\n      jumpi\n      0x00\n      dup1\n      revert\n    tag_1:\n      pop\n      jumpi(tag_2, lt(calldatasize, 0x04))\n      shr(0xe0, calldataload(0x00))\n      dup1\n      0x55d88747\n      eq\n      tag_3\n      jumpi\n      dup1\n      0x5ea81a32\n      eq\n      tag_4\n      jumpi\n      dup1\n      0xea57d5d4\n      eq\n      tag_5\n      jumpi\n    tag_2:\n      0x00\n      dup1\n      revert\n        /* \"contracts/eVoting_app.sol\":1261:1444  function startP(uint256 _poolIndex, string memory _name) public{... */\n    tag_3:\n      tag_6\n      0x04\n      dup1\n      calldatasize\n      sub\n      dup2\n      add\n      swap1\n      tag_7\n      swap2\n      swap1\n      tag_8\n      jump\t// in\n    tag_7:\n      tag_9\n      jump\t// in\n    tag_6:\n      stop\n        /* \"contracts/eVoting_app.sol\":624:1063  function createPool(string memory _poolName, string memory _description) public{... */\n    tag_4:\n      tag_10\n      0x04\n      dup1\n      calldatasize\n      sub\n      dup2\n      add\n      swap1\n      tag_11\n      swap2\n      swap1\n      tag_12\n      jump\t// in\n    tag_11:\n      tag_13\n      jump\t// in\n    tag_10:\n      stop\n        /* \"contracts/eVoting_app.sol\":1069:1255  function addOption(uint256 _poolIndex, string memory _name) public{... */\n    tag_5:\n      tag_14\n      0x04\n      dup1\n      calldatasize\n      sub\n      dup2\n      add\n      swap1\n      tag_15\n      swap2\n      swap1\n      tag_8\n      jump\t// in\n    tag_15:\n      tag_16\n      jump\t// in\n    tag_14:\n      stop\n        /* \"contracts/eVoting_app.sol\":1261:1444  function startP(uint256 _poolIndex, string memory _name) public{... */\n    tag_9:\n        /* \"contracts/eVoting_app.sol\":1334:1352  Pool storage _pool */\n      0x00\n        /* \"contracts/eVoting_app.sol\":1355:1360  pools */\n      dup1\n        /* \"contracts/eVoting_app.sol\":1355:1372  pools[_poolIndex] */\n      0x00\n        /* \"contracts/eVoting_app.sol\":1361:1371  _poolIndex */\n      dup5\n        /* \"contracts/eVoting_app.sol\":1355:1372  pools[_poolIndex] */\n      dup2\n      mstore\n      0x20\n      add\n      swap1\n      dup2\n      mstore\n      0x20\n      add\n      0x00\n      keccak256\n        /* \"contracts/eVoting_app.sol\":1334:1372  Pool storage _pool = pools[_poolIndex] */\n      swap1\n      pop\n        /* \"contracts/eVoting_app.sol\":1421:1437  Option(_name, 0) */\n      mload(0x40)\n      dup1\n      0x40\n      add\n      0x40\n      mstore\n      dup1\n        /* \"contracts/eVoting_app.sol\":1428:1433  _name */\n      dup4\n        /* \"contracts/eVoting_app.sol\":1421:1437  Option(_name, 0) */\n      dup2\n      mstore\n      0x20\n      add\n        /* \"contracts/eVoting_app.sol\":1435:1436  0 */\n      0x00\n        /* \"contracts/eVoting_app.sol\":1421:1437  Option(_name, 0) */\n      dup2\n      mstore\n      pop\n        /* \"contracts/eVoting_app.sol\":1383:1388  _pool */\n      dup2\n        /* \"contracts/eVoting_app.sol\":1383:1396  _pool.options */\n      0x04\n      add\n        /* \"contracts/eVoting_app.sol\":1383:1418  _pool.options[_pool.numOfOptions++] */\n      0x00\n        /* \"contracts/eVoting_app.sol\":1397:1402  _pool */\n      dup4\n        /* \"contracts/eVoting_app.sol\":1397:1415  _pool.numOfOptions */\n      0x05\n      add\n      0x00\n        /* \"contracts/eVoting_app.sol\":1397:1417  _pool.numOfOptions++ */\n      dup2\n      sload\n      dup1\n      swap3\n      swap2\n      swap1\n      tag_18\n      swap1\n      tag_19\n      jump\t// in\n    tag_18:\n      swap2\n      swap1\n      pop\n      sstore\n        /* \"contracts/eVoting_app.sol\":1383:1418  _pool.options[_pool.numOfOptions++] */\n      dup2\n      mstore\n      0x20\n      add\n      swap1\n      dup2\n      mstore\n      0x20\n      add\n      0x00\n      keccak256\n        /* \"contracts/eVoting_app.sol\":1383:1437  _pool.options[_pool.numOfOptions++] = Option(_name, 0) */\n      0x00\n      dup3\n      add\n      mload\n      dup2\n      0x00\n      add\n      swap1\n      dup1\n      mload\n      swap1\n      0x20\n      add\n      swap1\n      tag_20\n      swap3\n      swap2\n      swap1\n      tag_21\n      jump\t// in\n    tag_20:\n      pop\n      0x20\n      dup3\n      add\n      mload\n      dup2\n      0x01\n      add\n      sstore\n      swap1\n      pop\n      pop\n        /* \"contracts/eVoting_app.sol\":1324:1444  {... */\n      pop\n        /* \"contracts/eVoting_app.sol\":1261:1444  function startP(uint256 _poolIndex, string memory _name) public{... */\n      pop\n      pop\n      jump\t// out\n        /* \"contracts/eVoting_app.sol\":624:1063  function createPool(string memory _poolName, string memory _description) public{... */\n    tag_13:\n        /* \"contracts/eVoting_app.sol\":770:788  Pool storage _pool */\n      0x00\n        /* \"contracts/eVoting_app.sol\":791:796  pools */\n      dup1\n        /* \"contracts/eVoting_app.sol\":791:810  pools[numOfPools++] */\n      0x00\n        /* \"contracts/eVoting_app.sol\":797:807  numOfPools */\n      0x01\n      0x00\n        /* \"contracts/eVoting_app.sol\":797:809  numOfPools++ */\n      dup2\n      sload\n      dup1\n      swap3\n      swap2\n      swap1\n      tag_23\n      swap1\n      tag_19\n      jump\t// in\n    tag_23:\n      swap2\n      swap1\n      pop\n      sstore\n        /* \"contracts/eVoting_app.sol\":791:810  pools[numOfPools++] */\n      dup2\n      mstore\n      0x20\n      add\n      swap1\n      dup2\n      mstore\n      0x20\n      add\n      0x00\n      keccak256\n        /* \"contracts/eVoting_app.sol\":770:810  Pool storage _pool = pools[numOfPools++] */\n      swap1\n      pop\n        /* \"contracts/eVoting_app.sol\":834:843  _poolName */\n      dup3\n        /* \"contracts/eVoting_app.sol\":821:826  _pool */\n      dup2\n        /* \"contracts/eVoting_app.sol\":821:831  _pool.name */\n      0x00\n      add\n        /* \"contracts/eVoting_app.sol\":821:843  _pool.name = _poolName */\n      swap1\n      dup1\n      mload\n      swap1\n      0x20\n      add\n      swap1\n      tag_24\n      swap3\n      swap2\n      swap1\n      tag_21\n      jump\t// in\n    tag_24:\n      pop\n        /* \"contracts/eVoting_app.sol\":873:885  _description */\n      dup2\n        /* \"contracts/eVoting_app.sol\":853:858  _pool */\n      dup2\n        /* \"contracts/eVoting_app.sol\":853:870  _pool.description */\n      0x01\n      add\n        /* \"contracts/eVoting_app.sol\":853:885  _pool.description = _description */\n      swap1\n      dup1\n      mload\n      swap1\n      0x20\n      add\n      swap1\n      tag_25\n      swap3\n      swap2\n      swap1\n      tag_21\n      jump\t// in\n    tag_25:\n      pop\n        /* \"contracts/eVoting_app.sol\":914:915  0 */\n      0x00\n        /* \"contracts/eVoting_app.sol\":895:900  _pool */\n      dup2\n        /* \"contracts/eVoting_app.sol\":895:911  _pool.totalVotes */\n      0x02\n      add\n        /* \"contracts/eVoting_app.sol\":895:915  _pool.totalVotes = 0 */\n      dup2\n      swap1\n      sstore\n      pop\n        /* \"contracts/eVoting_app.sol\":939:949  msg.sender */\n      caller\n        /* \"contracts/eVoting_app.sol\":925:930  _pool */\n      dup2\n        /* \"contracts/eVoting_app.sol\":925:936  _pool.owner */\n      0x03\n      add\n      0x00\n        /* \"contracts/eVoting_app.sol\":925:949  _pool.owner = msg.sender */\n      0x0100\n      exp\n      dup2\n      sload\n      dup2\n      0xffffffffffffffffffffffffffffffffffffffff\n      mul\n      not\n      and\n      swap1\n      dup4\n      0xffffffffffffffffffffffffffffffffffffffff\n      and\n      mul\n      or\n      swap1\n      sstore\n      pop\n        /* \"contracts/eVoting_app.sol\":980:981  0 */\n      0x00\n        /* \"contracts/eVoting_app.sol\":959:964  _pool */\n      dup2\n        /* \"contracts/eVoting_app.sol\":959:977  _pool.numOfOptions */\n      0x05\n      add\n        /* \"contracts/eVoting_app.sol\":959:981  _pool.numOfOptions = 0 */\n      dup2\n      swap1\n      sstore\n      pop\n        /* \"contracts/eVoting_app.sol\":1008:1013  false */\n      0x00\n        /* \"contracts/eVoting_app.sol\":991:996  _pool */\n      dup2\n        /* \"contracts/eVoting_app.sol\":991:1005  _pool.isActive */\n      0x06\n      add\n      0x00\n        /* \"contracts/eVoting_app.sol\":991:1013  _pool.isActive = false */\n      0x0100\n      exp\n      dup2\n      sload\n      dup2\n      0xff\n      mul\n      not\n      and\n      swap1\n      dup4\n      iszero\n      iszero\n      mul\n      or\n      swap1\n      sstore\n      pop\n        /* \"contracts/eVoting_app.sol\":1054:1055  1 */\n      0x01\n        /* \"contracts/eVoting_app.sol\":1041:1051  numOfPools */\n      dup1\n      sload\n        /* \"contracts/eVoting_app.sol\":1041:1055  numOfPools - 1 */\n      tag_26\n      swap2\n      swap1\n      tag_27\n      jump\t// in\n    tag_26:\n        /* \"contracts/eVoting_app.sol\":1023:1028  _pool */\n      dup2\n        /* \"contracts/eVoting_app.sol\":1023:1038  _pool.poolIndex */\n      0x07\n      add\n        /* \"contracts/eVoting_app.sol\":1023:1055  _pool.poolIndex = numOfPools - 1 */\n      dup2\n      swap1\n      sstore\n      pop\n        /* \"contracts/eVoting_app.sol\":703:1063  {... */\n      pop\n        /* \"contracts/eVoting_app.sol\":624:1063  function createPool(string memory _poolName, string memory _description) public{... */\n      pop\n      pop\n      jump\t// out\n        /* \"contracts/eVoting_app.sol\":1069:1255  function addOption(uint256 _poolIndex, string memory _name) public{... */\n    tag_16:\n        /* \"contracts/eVoting_app.sol\":1145:1163  Pool storage _pool */\n      0x00\n        /* \"contracts/eVoting_app.sol\":1166:1171  pools */\n      dup1\n        /* \"contracts/eVoting_app.sol\":1166:1183  pools[_poolIndex] */\n      0x00\n        /* \"contracts/eVoting_app.sol\":1172:1182  _poolIndex */\n      dup5\n        /* \"contracts/eVoting_app.sol\":1166:1183  pools[_poolIndex] */\n      dup2\n      mstore\n      0x20\n      add\n      swap1\n      dup2\n      mstore\n      0x20\n      add\n      0x00\n      keccak256\n        /* \"contracts/eVoting_app.sol\":1145:1183  Pool storage _pool = pools[_poolIndex] */\n      swap1\n      pop\n        /* \"contracts/eVoting_app.sol\":1232:1248  Option(_name, 0) */\n      mload(0x40)\n      dup1\n      0x40\n      add\n      0x40\n      mstore\n      dup1\n        /* \"contracts/eVoting_app.sol\":1239:1244  _name */\n      dup4\n        /* \"contracts/eVoting_app.sol\":1232:1248  Option(_name, 0) */\n      dup2\n      mstore\n      0x20\n      add\n        /* \"contracts/eVoting_app.sol\":1246:1247  0 */\n      0x00\n        /* \"contracts/eVoting_app.sol\":1232:1248  Option(_name, 0) */\n      dup2\n      mstore\n      pop\n        /* \"contracts/eVoting_app.sol\":1194:1199  _pool */\n      dup2\n        /* \"contracts/eVoting_app.sol\":1194:1207  _pool.options */\n      0x04\n      add\n        /* \"contracts/eVoting_app.sol\":1194:1229  _pool.options[_pool.numOfOptions++] */\n      0x00\n        /* \"contracts/eVoting_app.sol\":1208:1213  _pool */\n      dup4\n        /* \"contracts/eVoting_app.sol\":1208:1226  _pool.numOfOptions */\n      0x05\n      add\n      0x00\n        /* \"contracts/eVoting_app.sol\":1208:1228  _pool.numOfOptions++ */\n      dup2\n      sload\n      dup1\n      swap3\n      swap2\n      swap1\n      tag_29\n      swap1\n      tag_19\n      jump\t// in\n    tag_29:\n      swap2\n      swap1\n      pop\n      sstore\n        /* \"contracts/eVoting_app.sol\":1194:1229  _pool.options[_pool.numOfOptions++] */\n      dup2\n      mstore\n      0x20\n      add\n      swap1\n      dup2\n      mstore\n      0x20\n      add\n      0x00\n      keccak256\n        /* \"contracts/eVoting_app.sol\":1194:1248  _pool.options[_pool.numOfOptions++] = Option(_name, 0) */\n      0x00\n      dup3\n      add\n      mload\n      dup2\n      0x00\n      add\n      swap1\n      dup1\n      mload\n      swap1\n      0x20\n      add\n      swap1\n      tag_30\n      swap3\n      swap2\n      swap1\n      tag_21\n      jump\t// in\n    tag_30:\n      pop\n      0x20\n      dup3\n      add\n      mload\n      dup2\n      0x01\n      add\n      sstore\n      swap1\n      pop\n      pop\n        /* \"contracts/eVoting_app.sol\":1135:1255  {... */\n      pop\n        /* \"contracts/eVoting_app.sol\":1069:1255  function addOption(uint256 _poolIndex, string memory _name) public{... */\n      pop\n      pop\n      jump\t// out\n    tag_21:\n      dup3\n      dup1\n      sload\n      tag_31\n      swap1\n      tag_32\n      jump\t// in\n    tag_31:\n      swap1\n      0x00\n      mstore\n      keccak256(0x00, 0x20)\n      swap1\n      0x1f\n      add\n      0x20\n      swap1\n      div\n      dup2\n      add\n      swap3\n      dup3\n      tag_34\n      jumpi\n      0x00\n      dup6\n      sstore\n      jump(tag_33)\n    tag_34:\n      dup3\n      0x1f\n      lt\n      tag_35\n      jumpi\n      dup1\n      mload\n      not(0xff)\n      and\n      dup4\n      dup1\n      add\n      or\n      dup6\n      sstore\n      jump(tag_33)\n    tag_35:\n      dup3\n      dup1\n      add\n      0x01\n      add\n      dup6\n      sstore\n      dup3\n      iszero\n      tag_33\n      jumpi\n      swap2\n      dup3\n      add\n    tag_36:\n      dup3\n      dup2\n      gt\n      iszero\n      tag_37\n      jumpi\n      dup3\n      mload\n      dup3\n      sstore\n      swap2\n      0x20\n      add\n      swap2\n      swap1\n      0x01\n      add\n      swap1\n      jump(tag_36)\n    tag_37:\n    tag_33:\n      pop\n      swap1\n      pop\n      tag_38\n      swap2\n      swap1\n      tag_39\n      jump\t// in\n    tag_38:\n      pop\n      swap1\n      jump\t// out\n    tag_39:\n    tag_40:\n      dup1\n      dup3\n      gt\n      iszero\n      tag_41\n      jumpi\n      0x00\n      dup2\n      0x00\n      swap1\n      sstore\n      pop\n      0x01\n      add\n      jump(tag_40)\n    tag_41:\n      pop\n      swap1\n      jump\t// out\n        /* \"#utility.yul\":7:419   */\n    tag_43:\n        /* \"#utility.yul\":85:90   */\n      0x00\n        /* \"#utility.yul\":110:176   */\n      tag_45\n        /* \"#utility.yul\":126:175   */\n      tag_46\n        /* \"#utility.yul\":168:174   */\n      dup5\n        /* \"#utility.yul\":126:175   */\n      tag_47\n      jump\t// in\n    tag_46:\n        /* \"#utility.yul\":110:176   */\n      tag_48\n      jump\t// in\n    tag_45:\n        /* \"#utility.yul\":101:176   */\n      swap1\n      pop\n        /* \"#utility.yul\":199:205   */\n      dup3\n        /* \"#utility.yul\":192:197   */\n      dup2\n        /* \"#utility.yul\":185:206   */\n      mstore\n        /* \"#utility.yul\":237:241   */\n      0x20\n        /* \"#utility.yul\":230:235   */\n      dup2\n        /* \"#utility.yul\":226:242   */\n      add\n        /* \"#utility.yul\":275:278   */\n      dup5\n        /* \"#utility.yul\":266:272   */\n      dup5\n        /* \"#utility.yul\":261:264   */\n      dup5\n        /* \"#utility.yul\":257:273   */\n      add\n        /* \"#utility.yul\":254:279   */\n      gt\n        /* \"#utility.yul\":251:363   */\n      iszero\n      tag_49\n      jumpi\n        /* \"#utility.yul\":282:361   */\n      tag_50\n      tag_51\n      jump\t// in\n    tag_50:\n        /* \"#utility.yul\":251:363   */\n    tag_49:\n        /* \"#utility.yul\":372:413   */\n      tag_52\n        /* \"#utility.yul\":406:412   */\n      dup5\n        /* \"#utility.yul\":401:404   */\n      dup3\n        /* \"#utility.yul\":396:399   */\n      dup6\n        /* \"#utility.yul\":372:413   */\n      tag_53\n      jump\t// in\n    tag_52:\n        /* \"#utility.yul\":91:419   */\n      pop\n        /* \"#utility.yul\":7:419   */\n      swap4\n      swap3\n      pop\n      pop\n      pop\n      jump\t// out\n        /* \"#utility.yul\":439:779   */\n    tag_54:\n        /* \"#utility.yul\":495:500   */\n      0x00\n        /* \"#utility.yul\":544:547   */\n      dup3\n        /* \"#utility.yul\":537:541   */\n      0x1f\n        /* \"#utility.yul\":529:535   */\n      dup4\n        /* \"#utility.yul\":525:542   */\n      add\n        /* \"#utility.yul\":521:548   */\n      slt\n        /* \"#utility.yul\":511:633   */\n      tag_56\n      jumpi\n        /* \"#utility.yul\":552:631   */\n      tag_57\n      tag_58\n      jump\t// in\n    tag_57:\n        /* \"#utility.yul\":511:633   */\n    tag_56:\n        /* \"#utility.yul\":669:675   */\n      dup2\n        /* \"#utility.yul\":656:676   */\n      calldataload\n        /* \"#utility.yul\":694:773   */\n      tag_59\n        /* \"#utility.yul\":769:772   */\n      dup5\n        /* \"#utility.yul\":761:767   */\n      dup3\n        /* \"#utility.yul\":754:758   */\n      0x20\n        /* \"#utility.yul\":746:752   */\n      dup7\n        /* \"#utility.yul\":742:759   */\n      add\n        /* \"#utility.yul\":694:773   */\n      tag_43\n      jump\t// in\n    tag_59:\n        /* \"#utility.yul\":685:773   */\n      swap2\n      pop\n        /* \"#utility.yul\":501:779   */\n      pop\n        /* \"#utility.yul\":439:779   */\n      swap3\n      swap2\n      pop\n      pop\n      jump\t// out\n        /* \"#utility.yul\":785:924   */\n    tag_60:\n        /* \"#utility.yul\":831:836   */\n      0x00\n        /* \"#utility.yul\":869:875   */\n      dup2\n        /* \"#utility.yul\":856:876   */\n      calldataload\n        /* \"#utility.yul\":847:876   */\n      swap1\n      pop\n        /* \"#utility.yul\":885:918   */\n      tag_62\n        /* \"#utility.yul\":912:917   */\n      dup2\n        /* \"#utility.yul\":885:918   */\n      tag_63\n      jump\t// in\n    tag_62:\n        /* \"#utility.yul\":785:924   */\n      swap3\n      swap2\n      pop\n      pop\n      jump\t// out\n        /* \"#utility.yul\":930:1764   */\n    tag_12:\n        /* \"#utility.yul\":1018:1024   */\n      0x00\n        /* \"#utility.yul\":1026:1032   */\n      dup1\n        /* \"#utility.yul\":1075:1077   */\n      0x40\n        /* \"#utility.yul\":1063:1072   */\n      dup4\n        /* \"#utility.yul\":1054:1061   */\n      dup6\n        /* \"#utility.yul\":1050:1073   */\n      sub\n        /* \"#utility.yul\":1046:1078   */\n      slt\n        /* \"#utility.yul\":1043:1162   */\n      iszero\n      tag_65\n      jumpi\n        /* \"#utility.yul\":1081:1160   */\n      tag_66\n      tag_67\n      jump\t// in\n    tag_66:\n        /* \"#utility.yul\":1043:1162   */\n    tag_65:\n        /* \"#utility.yul\":1229:1230   */\n      0x00\n        /* \"#utility.yul\":1218:1227   */\n      dup4\n        /* \"#utility.yul\":1214:1231   */\n      add\n        /* \"#utility.yul\":1201:1232   */\n      calldataload\n        /* \"#utility.yul\":1259:1277   */\n      0xffffffffffffffff\n        /* \"#utility.yul\":1251:1257   */\n      dup2\n        /* \"#utility.yul\":1248:1278   */\n      gt\n        /* \"#utility.yul\":1245:1362   */\n      iszero\n      tag_68\n      jumpi\n        /* \"#utility.yul\":1281:1360   */\n      tag_69\n      tag_70\n      jump\t// in\n    tag_69:\n        /* \"#utility.yul\":1245:1362   */\n    tag_68:\n        /* \"#utility.yul\":1386:1449   */\n      tag_71\n        /* \"#utility.yul\":1441:1448   */\n      dup6\n        /* \"#utility.yul\":1432:1438   */\n      dup3\n        /* \"#utility.yul\":1421:1430   */\n      dup7\n        /* \"#utility.yul\":1417:1439   */\n      add\n        /* \"#utility.yul\":1386:1449   */\n      tag_54\n      jump\t// in\n    tag_71:\n        /* \"#utility.yul\":1376:1449   */\n      swap3\n      pop\n        /* \"#utility.yul\":1172:1459   */\n      pop\n        /* \"#utility.yul\":1526:1528   */\n      0x20\n        /* \"#utility.yul\":1515:1524   */\n      dup4\n        /* \"#utility.yul\":1511:1529   */\n      add\n        /* \"#utility.yul\":1498:1530   */\n      calldataload\n        /* \"#utility.yul\":1557:1575   */\n      0xffffffffffffffff\n        /* \"#utility.yul\":1549:1555   */\n      dup2\n        /* \"#utility.yul\":1546:1576   */\n      gt\n        /* \"#utility.yul\":1543:1660   */\n      iszero\n      tag_72\n      jumpi\n        /* \"#utility.yul\":1579:1658   */\n      tag_73\n      tag_70\n      jump\t// in\n    tag_73:\n        /* \"#utility.yul\":1543:1660   */\n    tag_72:\n        /* \"#utility.yul\":1684:1747   */\n      tag_74\n        /* \"#utility.yul\":1739:1746   */\n      dup6\n        /* \"#utility.yul\":1730:1736   */\n      dup3\n        /* \"#utility.yul\":1719:1728   */\n      dup7\n        /* \"#utility.yul\":1715:1737   */\n      add\n        /* \"#utility.yul\":1684:1747   */\n      tag_54\n      jump\t// in\n    tag_74:\n        /* \"#utility.yul\":1674:1747   */\n      swap2\n      pop\n        /* \"#utility.yul\":1469:1757   */\n      pop\n        /* \"#utility.yul\":930:1764   */\n      swap3\n      pop\n      swap3\n      swap1\n      pop\n      jump\t// out\n        /* \"#utility.yul\":1770:2424   */\n    tag_8:\n        /* \"#utility.yul\":1848:1854   */\n      0x00\n        /* \"#utility.yul\":1856:1862   */\n      dup1\n        /* \"#utility.yul\":1905:1907   */\n      0x40\n        /* \"#utility.yul\":1893:1902   */\n      dup4\n        /* \"#utility.yul\":1884:1891   */\n      dup6\n        /* \"#utility.yul\":1880:1903   */\n      sub\n        /* \"#utility.yul\":1876:1908   */\n      slt\n        /* \"#utility.yul\":1873:1992   */\n      iszero\n      tag_76\n      jumpi\n        /* \"#utility.yul\":1911:1990   */\n      tag_77\n      tag_67\n      jump\t// in\n    tag_77:\n        /* \"#utility.yul\":1873:1992   */\n    tag_76:\n        /* \"#utility.yul\":2031:2032   */\n      0x00\n        /* \"#utility.yul\":2056:2109   */\n      tag_78\n        /* \"#utility.yul\":2101:2108   */\n      dup6\n        /* \"#utility.yul\":2092:2098   */\n      dup3\n        /* \"#utility.yul\":2081:2090   */\n      dup7\n        /* \"#utility.yul\":2077:2099   */\n      add\n        /* \"#utility.yul\":2056:2109   */\n      tag_60\n      jump\t// in\n    tag_78:\n        /* \"#utility.yul\":2046:2109   */\n      swap3\n      pop\n        /* \"#utility.yul\":2002:2119   */\n      pop\n        /* \"#utility.yul\":2186:2188   */\n      0x20\n        /* \"#utility.yul\":2175:2184   */\n      dup4\n        /* \"#utility.yul\":2171:2189   */\n      add\n        /* \"#utility.yul\":2158:2190   */\n      calldataload\n        /* \"#utility.yul\":2217:2235   */\n      0xffffffffffffffff\n        /* \"#utility.yul\":2209:2215   */\n      dup2\n        /* \"#utility.yul\":2206:2236   */\n      gt\n        /* \"#utility.yul\":2203:2320   */\n      iszero\n      tag_79\n      jumpi\n        /* \"#utility.yul\":2239:2318   */\n      tag_80\n      tag_70\n      jump\t// in\n    tag_80:\n        /* \"#utility.yul\":2203:2320   */\n    tag_79:\n        /* \"#utility.yul\":2344:2407   */\n      tag_81\n        /* \"#utility.yul\":2399:2406   */\n      dup6\n        /* \"#utility.yul\":2390:2396   */\n      dup3\n        /* \"#utility.yul\":2379:2388   */\n      dup7\n        /* \"#utility.yul\":2375:2397   */\n      add\n        /* \"#utility.yul\":2344:2407   */\n      tag_54\n      jump\t// in\n    tag_81:\n        /* \"#utility.yul\":2334:2407   */\n      swap2\n      pop\n        /* \"#utility.yul\":2129:2417   */\n      pop\n        /* \"#utility.yul\":1770:2424   */\n      swap3\n      pop\n      swap3\n      swap1\n      pop\n      jump\t// out\n        /* \"#utility.yul\":2430:2559   */\n    tag_48:\n        /* \"#utility.yul\":2464:2470   */\n      0x00\n        /* \"#utility.yul\":2491:2511   */\n      tag_83\n      tag_84\n      jump\t// in\n    tag_83:\n        /* \"#utility.yul\":2481:2511   */\n      swap1\n      pop\n        /* \"#utility.yul\":2520:2553   */\n      tag_85\n        /* \"#utility.yul\":2548:2552   */\n      dup3\n        /* \"#utility.yul\":2540:2546   */\n      dup3\n        /* \"#utility.yul\":2520:2553   */\n      tag_86\n      jump\t// in\n    tag_85:\n        /* \"#utility.yul\":2430:2559   */\n      swap2\n      swap1\n      pop\n      jump\t// out\n        /* \"#utility.yul\":2565:2640   */\n    tag_84:\n        /* \"#utility.yul\":2598:2604   */\n      0x00\n        /* \"#utility.yul\":2631:2633   */\n      0x40\n        /* \"#utility.yul\":2625:2634   */\n      mload\n        /* \"#utility.yul\":2615:2634   */\n      swap1\n      pop\n        /* \"#utility.yul\":2565:2640   */\n      swap1\n      jump\t// out\n        /* \"#utility.yul\":2646:2954   */\n    tag_47:\n        /* \"#utility.yul\":2708:2712   */\n      0x00\n        /* \"#utility.yul\":2798:2816   */\n      0xffffffffffffffff\n        /* \"#utility.yul\":2790:2796   */\n      dup3\n        /* \"#utility.yul\":2787:2817   */\n      gt\n        /* \"#utility.yul\":2784:2840   */\n      iszero\n      tag_89\n      jumpi\n        /* \"#utility.yul\":2820:2838   */\n      tag_90\n      tag_91\n      jump\t// in\n    tag_90:\n        /* \"#utility.yul\":2784:2840   */\n    tag_89:\n        /* \"#utility.yul\":2858:2887   */\n      tag_92\n        /* \"#utility.yul\":2880:2886   */\n      dup3\n        /* \"#utility.yul\":2858:2887   */\n      tag_93\n      jump\t// in\n    tag_92:\n        /* \"#utility.yul\":2850:2887   */\n      swap1\n      pop\n        /* \"#utility.yul\":2942:2946   */\n      0x20\n        /* \"#utility.yul\":2936:2940   */\n      dup2\n        /* \"#utility.yul\":2932:2947   */\n      add\n        /* \"#utility.yul\":2924:2947   */\n      swap1\n      pop\n        /* \"#utility.yul\":2646:2954   */\n      swap2\n      swap1\n      pop\n      jump\t// out\n        /* \"#utility.yul\":2960:3151   */\n    tag_27:\n        /* \"#utility.yul\":3000:3004   */\n      0x00\n        /* \"#utility.yul\":3020:3040   */\n      tag_95\n        /* \"#utility.yul\":3038:3039   */\n      dup3\n        /* \"#utility.yul\":3020:3040   */\n      tag_96\n      jump\t// in\n    tag_95:\n        /* \"#utility.yul\":3015:3040   */\n      swap2\n      pop\n        /* \"#utility.yul\":3054:3074   */\n      tag_97\n        /* \"#utility.yul\":3072:3073   */\n      dup4\n        /* \"#utility.yul\":3054:3074   */\n      tag_96\n      jump\t// in\n    tag_97:\n        /* \"#utility.yul\":3049:3074   */\n      swap3\n      pop\n        /* \"#utility.yul\":3093:3094   */\n      dup3\n        /* \"#utility.yul\":3090:3091   */\n      dup3\n        /* \"#utility.yul\":3087:3095   */\n      lt\n        /* \"#utility.yul\":3084:3118   */\n      iszero\n      tag_98\n      jumpi\n        /* \"#utility.yul\":3098:3116   */\n      tag_99\n      tag_100\n      jump\t// in\n    tag_99:\n        /* \"#utility.yul\":3084:3118   */\n    tag_98:\n        /* \"#utility.yul\":3143:3144   */\n      dup3\n        /* \"#utility.yul\":3140:3141   */\n      dup3\n        /* \"#utility.yul\":3136:3145   */\n      sub\n        /* \"#utility.yul\":3128:3145   */\n      swap1\n      pop\n        /* \"#utility.yul\":2960:3151   */\n      swap3\n      swap2\n      pop\n      pop\n      jump\t// out\n        /* \"#utility.yul\":3157:3234   */\n    tag_96:\n        /* \"#utility.yul\":3194:3201   */\n      0x00\n        /* \"#utility.yul\":3223:3228   */\n      dup2\n        /* \"#utility.yul\":3212:3228   */\n      swap1\n      pop\n        /* \"#utility.yul\":3157:3234   */\n      swap2\n      swap1\n      pop\n      jump\t// out\n        /* \"#utility.yul\":3240:3394   */\n    tag_53:\n        /* \"#utility.yul\":3324:3330   */\n      dup3\n        /* \"#utility.yul\":3319:3322   */\n      dup2\n        /* \"#utility.yul\":3314:3317   */\n      dup4\n        /* \"#utility.yul\":3301:3331   */\n      calldatacopy\n        /* \"#utility.yul\":3386:3387   */\n      0x00\n        /* \"#utility.yul\":3377:3383   */\n      dup4\n        /* \"#utility.yul\":3372:3375   */\n      dup4\n        /* \"#utility.yul\":3368:3384   */\n      add\n        /* \"#utility.yul\":3361:3388   */\n      mstore\n        /* \"#utility.yul\":3240:3394   */\n      pop\n      pop\n      pop\n      jump\t// out\n        /* \"#utility.yul\":3400:3720   */\n    tag_32:\n        /* \"#utility.yul\":3444:3450   */\n      0x00\n        /* \"#utility.yul\":3481:3482   */\n      0x02\n        /* \"#utility.yul\":3475:3479   */\n      dup3\n        /* \"#utility.yul\":3471:3483   */\n      div\n        /* \"#utility.yul\":3461:3483   */\n      swap1\n      pop\n        /* \"#utility.yul\":3528:3529   */\n      0x01\n        /* \"#utility.yul\":3522:3526   */\n      dup3\n        /* \"#utility.yul\":3518:3530   */\n      and\n        /* \"#utility.yul\":3549:3567   */\n      dup1\n        /* \"#utility.yul\":3539:3620   */\n      tag_104\n      jumpi\n        /* \"#utility.yul\":3605:3609   */\n      0x7f\n        /* \"#utility.yul\":3597:3603   */\n      dup3\n        /* \"#utility.yul\":3593:3610   */\n      and\n        /* \"#utility.yul\":3583:3610   */\n      swap2\n      pop\n        /* \"#utility.yul\":3539:3620   */\n    tag_104:\n        /* \"#utility.yul\":3667:3669   */\n      0x20\n        /* \"#utility.yul\":3659:3665   */\n      dup3\n        /* \"#utility.yul\":3656:3670   */\n      lt\n        /* \"#utility.yul\":3636:3654   */\n      dup2\n        /* \"#utility.yul\":3633:3671   */\n      eq\n        /* \"#utility.yul\":3630:3714   */\n      iszero\n      tag_105\n      jumpi\n        /* \"#utility.yul\":3686:3704   */\n      tag_106\n      tag_107\n      jump\t// in\n    tag_106:\n        /* \"#utility.yul\":3630:3714   */\n    tag_105:\n        /* \"#utility.yul\":3451:3720   */\n      pop\n        /* \"#utility.yul\":3400:3720   */\n      swap2\n      swap1\n      pop\n      jump\t// out\n        /* \"#utility.yul\":3726:4007   */\n    tag_86:\n        /* \"#utility.yul\":3809:3836   */\n      tag_109\n        /* \"#utility.yul\":3831:3835   */\n      dup3\n        /* \"#utility.yul\":3809:3836   */\n      tag_93\n      jump\t// in\n    tag_109:\n        /* \"#utility.yul\":3801:3807   */\n      dup2\n        /* \"#utility.yul\":3797:3837   */\n      add\n        /* \"#utility.yul\":3939:3945   */\n      dup2\n        /* \"#utility.yul\":3927:3937   */\n      dup2\n        /* \"#utility.yul\":3924:3946   */\n      lt\n        /* \"#utility.yul\":3903:3921   */\n      0xffffffffffffffff\n        /* \"#utility.yul\":3891:3901   */\n      dup3\n        /* \"#utility.yul\":3888:3922   */\n      gt\n        /* \"#utility.yul\":3885:3947   */\n      or\n        /* \"#utility.yul\":3882:3970   */\n      iszero\n      tag_110\n      jumpi\n        /* \"#utility.yul\":3950:3968   */\n      tag_111\n      tag_91\n      jump\t// in\n    tag_111:\n        /* \"#utility.yul\":3882:3970   */\n    tag_110:\n        /* \"#utility.yul\":3990:4000   */\n      dup1\n        /* \"#utility.yul\":3986:3988   */\n      0x40\n        /* \"#utility.yul\":3979:4001   */\n      mstore\n        /* \"#utility.yul\":3769:4007   */\n      pop\n        /* \"#utility.yul\":3726:4007   */\n      pop\n      pop\n      jump\t// out\n        /* \"#utility.yul\":4013:4246   */\n    tag_19:\n        /* \"#utility.yul\":4052:4055   */\n      0x00\n        /* \"#utility.yul\":4075:4099   */\n      tag_113\n        /* \"#utility.yul\":4093:4098   */\n      dup3\n        /* \"#utility.yul\":4075:4099   */\n      tag_96\n      jump\t// in\n    tag_113:\n        /* \"#utility.yul\":4066:4099   */\n      swap2\n      pop\n        /* \"#utility.yul\":4121:4187   */\n      0xffffffffffffffffffffffffffffffffffffffffffffffffffffffffffffffff\n        /* \"#utility.yul\":4114:4119   */\n      dup3\n        /* \"#utility.yul\":4111:4188   */\n      eq\n        /* \"#utility.yul\":4108:4211   */\n      iszero\n      tag_114\n      jumpi\n        /* \"#utility.yul\":4191:4209   */\n      tag_115\n      tag_100\n      jump\t// in\n    tag_115:\n        /* \"#utility.yul\":4108:4211   */\n    tag_114:\n        /* \"#utility.yul\":4238:4239   */\n      0x01\n        /* \"#utility.yul\":4231:4236   */\n      dup3\n        /* \"#utility.yul\":4227:4240   */\n      add\n        /* \"#utility.yul\":4220:4240   */\n      swap1\n      pop\n        /* \"#utility.yul\":4013:4246   */\n      swap2\n      swap1\n      pop\n      jump\t// out\n        /* \"#utility.yul\":4252:4432   */\n    tag_100:\n        /* \"#utility.yul\":4300:4377   */\n      0x4e487b7100000000000000000000000000000000000000000000000000000000\n        /* \"#utility.yul\":4297:4298   */\n      0x00\n        /* \"#utility.yul\":4290:4378   */\n      mstore\n        /* \"#utility.yul\":4397:4401   */\n      0x11\n        /* \"#utility.yul\":4394:4395   */\n      0x04\n        /* \"#utility.yul\":4387:4402   */\n      mstore\n        /* \"#utility.yul\":4421:4425   */\n      0x24\n        /* \"#utility.yul\":4418:4419   */\n      0x00\n        /* \"#utility.yul\":4411:4426   */\n      revert\n        /* \"#utility.yul\":4438:4618   */\n    tag_107:\n        /* \"#utility.yul\":4486:4563   */\n      0x4e487b7100000000000000000000000000000000000000000000000000000000\n        /* \"#utility.yul\":4483:4484   */\n      0x00\n        /* \"#utility.yul\":4476:4564   */\n      mstore\n        /* \"#utility.yul\":4583:4587   */\n      0x22\n        /* \"#utility.yul\":4580:4581   */\n      0x04\n        /* \"#utility.yul\":4573:4588   */\n      mstore\n        /* \"#utility.yul\":4607:4611   */\n      0x24\n        /* \"#utility.yul\":4604:4605   */\n      0x00\n        /* \"#utility.yul\":4597:4612   */\n      revert\n        /* \"#utility.yul\":4624:4804   */\n    tag_91:\n        /* \"#utility.yul\":4672:4749   */\n      0x4e487b7100000000000000000000000000000000000000000000000000000000\n        /* \"#utility.yul\":4669:4670   */\n      0x00\n        /* \"#utility.yul\":4662:4750   */\n      mstore\n        /* \"#utility.yul\":4769:4773   */\n      0x41\n        /* \"#utility.yul\":4766:4767   */\n      0x04\n        /* \"#utility.yul\":4759:4774   */\n      mstore\n        /* \"#utility.yul\":4793:4797   */\n      0x24\n        /* \"#utility.yul\":4790:4791   */\n      0x00\n        /* \"#utility.yul\":4783:4798   */\n      revert\n        /* \"#utility.yul\":4810:4927   */\n    tag_58:\n        /* \"#utility.yul\":4919:4920   */\n      0x00\n        /* \"#utility.yul\":4916:4917   */\n      dup1\n        /* \"#utility.yul\":4909:4921   */\n      revert\n        /* \"#utility.yul\":4933:5050   */\n    tag_51:\n        /* \"#utility.yul\":5042:5043   */\n      0x00\n        /* \"#utility.yul\":5039:5040   */\n      dup1\n        /* \"#utility.yul\":5032:5044   */\n      revert\n        /* \"#utility.yul\":5056:5173   */\n    tag_70:\n        /* \"#utility.yul\":5165:5166   */\n      0x00\n        /* \"#utility.yul\":5162:5163   */\n      dup1\n        /* \"#utility.yul\":5155:5167   */\n      revert\n        /* \"#utility.yul\":5179:5296   */\n    tag_67:\n        /* \"#utility.yul\":5288:5289   */\n      0x00\n        /* \"#utility.yul\":5285:5286   */\n      dup1\n        /* \"#utility.yul\":5278:5290   */\n      revert\n        /* \"#utility.yul\":5302:5404   */\n    tag_93:\n        /* \"#utility.yul\":5343:5349   */\n      0x00\n        /* \"#utility.yul\":5394:5396   */\n      0x1f\n        /* \"#utility.yul\":5390:5397   */\n      not\n        /* \"#utility.yul\":5385:5387   */\n      0x1f\n        /* \"#utility.yul\":5378:5383   */\n      dup4\n        /* \"#utility.yul\":5374:5388   */\n      add\n        /* \"#utility.yul\":5370:5398   */\n      and\n        /* \"#utility.yul\":5360:5398   */\n      swap1\n      pop\n        /* \"#utility.yul\":5302:5404   */\n      swap2\n      swap1\n      pop\n      jump\t// out\n        /* \"#utility.yul\":5410:5532   */\n    tag_63:\n        /* \"#utility.yul\":5483:5507   */\n      tag_125\n        /* \"#utility.yul\":5501:5506   */\n      dup2\n        /* \"#utility.yul\":5483:5507   */\n      tag_96\n      jump\t// in\n    tag_125:\n        /* \"#utility.yul\":5476:5481   */\n      dup2\n        /* \"#utility.yul\":5473:5508   */\n      eq\n        /* \"#utility.yul\":5463:5526   */\n      tag_126\n      jumpi\n        /* \"#utility.yul\":5522:5523   */\n      0x00\n        /* \"#utility.yul\":5519:5520   */\n      dup1\n        /* \"#utility.yul\":5512:5524   */\n      revert\n        /* \"#utility.yul\":5463:5526   */\n    tag_126:\n        /* \"#utility.yul\":5410:5532   */\n      pop\n      jump\t// out\n\n    auxdata: 0xa26469706673582212200ea0fe68eb617acdf27035842ddbc87e314ebc8092bc1a3df1086f9962e1e75764736f6c63430008070033\n}\n",
				"bytecode": {
					"linkReferences": {},
					"object": "6080604052600060015534801561001557600080fd5b506106e1806100256000396000f3fe608060405234801561001057600080fd5b50600436106100415760003560e01c806355d88747146100465780635ea81a3214610062578063ea57d5d41461007e575b600080fd5b610060600480360381019061005b9190610437565b61009a565b005b61007c600480360381019061007791906103bf565b610122565b005b61009860048036038101906100939190610437565b61020f565b005b60008060008481526020019081526020016000209050604051806040016040528083815260200160008152508160040160008360050160008154809291906100e190610599565b919050558152602001908152602001600020600082015181600001908051906020019061010f929190610297565b5060208201518160010155905050505050565b60008060006001600081548092919061013a90610599565b919050558152602001908152602001600020905082816000019080519060200190610166929190610297565b508181600101908051906020019061017f929190610297565b5060008160020181905550338160030160006101000a81548173ffffffffffffffffffffffffffffffffffffffff021916908373ffffffffffffffffffffffffffffffffffffffff1602179055506000816005018190555060008160060160006101000a81548160ff0219169083151502179055506001805461020291906104e9565b8160070181905550505050565b600080600084815260200190815260200160002090506040518060400160405280838152602001600081525081600401600083600501600081548092919061025690610599565b9190505581526020019081526020016000206000820151816000019080519060200190610284929190610297565b5060208201518160010155905050505050565b8280546102a390610536565b90600052602060002090601f0160209004810192826102c5576000855561030c565b82601f106102de57805160ff191683800117855561030c565b8280016001018555821561030c579182015b8281111561030b5782518255916020019190600101906102f0565b5b509050610319919061031d565b5090565b5b8082111561033657600081600090555060010161031e565b5090565b600061034d610348846104b8565b610493565b90508281526020810184848401111561036957610368610674565b5b610374848285610527565b509392505050565b600082601f8301126103915761039061066f565b5b81356103a184826020860161033a565b91505092915050565b6000813590506103b981610694565b92915050565b600080604083850312156103d6576103d561067e565b5b600083013567ffffffffffffffff8111156103f4576103f3610679565b5b6104008582860161037c565b925050602083013567ffffffffffffffff81111561042157610420610679565b5b61042d8582860161037c565b9150509250929050565b6000806040838503121561044e5761044d61067e565b5b600061045c858286016103aa565b925050602083013567ffffffffffffffff81111561047d5761047c610679565b5b6104898582860161037c565b9150509250929050565b600061049d6104ae565b90506104a98282610568565b919050565b6000604051905090565b600067ffffffffffffffff8211156104d3576104d2610640565b5b6104dc82610683565b9050602081019050919050565b60006104f48261051d565b91506104ff8361051d565b925082821015610512576105116105e2565b5b828203905092915050565b6000819050919050565b82818337600083830152505050565b6000600282049050600182168061054e57607f821691505b6020821081141561056257610561610611565b5b50919050565b61057182610683565b810181811067ffffffffffffffff821117156105905761058f610640565b5b80604052505050565b60006105a48261051d565b91507fffffffffffffffffffffffffffffffffffffffffffffffffffffffffffffffff8214156105d7576105d66105e2565b5b600182019050919050565b7f4e487b7100000000000000000000000000000000000000000000000000000000600052601160045260246000fd5b7f4e487b7100000000000000000000000000000000000000000000000000000000600052602260045260246000fd5b7f4e487b7100000000000000000000000000000000000000000000000000000000600052604160045260246000fd5b600080fd5b600080fd5b600080fd5b600080fd5b6000601f19601f8301169050919050565b61069d8161051d565b81146106a857600080fd5b5056fea26469706673582212200ea0fe68eb617acdf27035842ddbc87e314ebc8092bc1a3df1086f9962e1e75764736f6c63430008070033",
					"opcodes": "PUSH1 0x80 PUSH1 0x40 MSTORE PUSH1 0x0 PUSH1 0x1 SSTORE CALLVALUE DUP1 ISZERO PUSH2 0x15 JUMPI PUSH1 0x0 DUP1 REVERT JUMPDEST POP PUSH2 0x6E1 DUP1 PUSH2 0x25 PUSH1 0x0 CODECOPY PUSH1 0x0 RETURN INVALID PUSH1 0x80 PUSH1 0x40 MSTORE CALLVALUE DUP1 ISZERO PUSH2 0x10 JUMPI PUSH1 0x0 DUP1 REVERT JUMPDEST POP PUSH1 0x4 CALLDATASIZE LT PUSH2 0x41 JUMPI PUSH1 0x0 CALLDATALOAD PUSH1 0xE0 SHR DUP1 PUSH4 0x55D88747 EQ PUSH2 0x46 JUMPI DUP1 PUSH4 0x5EA81A32 EQ PUSH2 0x62 JUMPI DUP1 PUSH4 0xEA57D5D4 EQ PUSH2 0x7E JUMPI JUMPDEST PUSH1 0x0 DUP1 REVERT JUMPDEST PUSH2 0x60 PUSH1 0x4 DUP1 CALLDATASIZE SUB DUP2 ADD SWAP1 PUSH2 0x5B SWAP2 SWAP1 PUSH2 0x437 JUMP JUMPDEST PUSH2 0x9A JUMP JUMPDEST STOP JUMPDEST PUSH2 0x7C PUSH1 0x4 DUP1 CALLDATASIZE SUB DUP2 ADD SWAP1 PUSH2 0x77 SWAP2 SWAP1 PUSH2 0x3BF JUMP JUMPDEST PUSH2 0x122 JUMP JUMPDEST STOP JUMPDEST PUSH2 0x98 PUSH1 0x4 DUP1 CALLDATASIZE SUB DUP2 ADD SWAP1 PUSH2 0x93 SWAP2 SWAP1 PUSH2 0x437 JUMP JUMPDEST PUSH2 0x20F JUMP JUMPDEST STOP JUMPDEST PUSH1 0x0 DUP1 PUSH1 0x0 DUP5 DUP2 MSTORE PUSH1 0x20 ADD SWAP1 DUP2 MSTORE PUSH1 0x20 ADD PUSH1 0x0 KECCAK256 SWAP1 POP PUSH1 0x40 MLOAD DUP1 PUSH1 0x40 ADD PUSH1 0x40 MSTORE DUP1 DUP4 DUP2 MSTORE PUSH1 0x20 ADD PUSH1 0x0 DUP2 MSTORE POP DUP2 PUSH1 0x4 ADD PUSH1 0x0 DUP4 PUSH1 0x5 ADD PUSH1 0x0 DUP2 SLOAD DUP1 SWAP3 SWAP2 SWAP1 PUSH2 0xE1 SWAP1 PUSH2 0x599 JUMP JUMPDEST SWAP2 SWAP1 POP SSTORE DUP2 MSTORE PUSH1 0x20 ADD SWAP1 DUP2 MSTORE PUSH1 0x20 ADD PUSH1 0x0 KECCAK256 PUSH1 0x0 DUP3 ADD MLOAD DUP2 PUSH1 0x0 ADD SWAP1 DUP1 MLOAD SWAP1 PUSH1 0x20 ADD SWAP1 PUSH2 0x10F SWAP3 SWAP2 SWAP1 PUSH2 0x297 JUMP JUMPDEST POP PUSH1 0x20 DUP3 ADD MLOAD DUP2 PUSH1 0x1 ADD SSTORE SWAP1 POP POP POP POP POP JUMP JUMPDEST PUSH1 0x0 DUP1 PUSH1 0x0 PUSH1 0x1 PUSH1 0x0 DUP2 SLOAD DUP1 SWAP3 SWAP2 SWAP1 PUSH2 0x13A SWAP1 PUSH2 0x599 JUMP JUMPDEST SWAP2 SWAP1 POP SSTORE DUP2 MSTORE PUSH1 0x20 ADD SWAP1 DUP2 MSTORE PUSH1 0x20 ADD PUSH1 0x0 KECCAK256 SWAP1 POP DUP3 DUP2 PUSH1 0x0 ADD SWAP1 DUP1 MLOAD SWAP1 PUSH1 0x20 ADD SWAP1 PUSH2 0x166 SWAP3 SWAP2 SWAP1 PUSH2 0x297 JUMP JUMPDEST POP DUP2 DUP2 PUSH1 0x1 ADD SWAP1 DUP1 MLOAD SWAP1 PUSH1 0x20 ADD SWAP1 PUSH2 0x17F SWAP3 SWAP2 SWAP1 PUSH2 0x297 JUMP JUMPDEST POP PUSH1 0x0 DUP2 PUSH1 0x2 ADD DUP2 SWAP1 SSTORE POP CALLER DUP2 PUSH1 0x3 ADD PUSH1 0x0 PUSH2 0x100 EXP DUP2 SLOAD DUP2 PUSH20 0xFFFFFFFFFFFFFFFFFFFFFFFFFFFFFFFFFFFFFFFF MUL NOT AND SWAP1 DUP4 PUSH20 0xFFFFFFFFFFFFFFFFFFFFFFFFFFFFFFFFFFFFFFFF AND MUL OR SWAP1 SSTORE POP PUSH1 0x0 DUP2 PUSH1 0x5 ADD DUP2 SWAP1 SSTORE POP PUSH1 0x0 DUP2 PUSH1 0x6 ADD PUSH1 0x0 PUSH2 0x100 EXP DUP2 SLOAD DUP2 PUSH1 0xFF MUL NOT AND SWAP1 DUP4 ISZERO ISZERO MUL OR SWAP1 SSTORE POP PUSH1 0x1 DUP1 SLOAD PUSH2 0x202 SWAP2 SWAP1 PUSH2 0x4E9 JUMP JUMPDEST DUP2 PUSH1 0x7 ADD DUP2 SWAP1 SSTORE POP POP POP POP JUMP JUMPDEST PUSH1 0x0 DUP1 PUSH1 0x0 DUP5 DUP2 MSTORE PUSH1 0x20 ADD SWAP1 DUP2 MSTORE PUSH1 0x20 ADD PUSH1 0x0 KECCAK256 SWAP1 POP PUSH1 0x40 MLOAD DUP1 PUSH1 0x40 ADD PUSH1 0x40 MSTORE DUP1 DUP4 DUP2 MSTORE PUSH1 0x20 ADD PUSH1 0x0 DUP2 MSTORE POP DUP2 PUSH1 0x4 ADD PUSH1 0x0 DUP4 PUSH1 0x5 ADD PUSH1 0x0 DUP2 SLOAD DUP1 SWAP3 SWAP2 SWAP1 PUSH2 0x256 SWAP1 PUSH2 0x599 JUMP JUMPDEST SWAP2 SWAP1 POP SSTORE DUP2 MSTORE PUSH1 0x20 ADD SWAP1 DUP2 MSTORE PUSH1 0x20 ADD PUSH1 0x0 KECCAK256 PUSH1 0x0 DUP3 ADD MLOAD DUP2 PUSH1 0x0 ADD SWAP1 DUP1 MLOAD SWAP1 PUSH1 0x20 ADD SWAP1 PUSH2 0x284 SWAP3 SWAP2 SWAP1 PUSH2 0x297 JUMP JUMPDEST POP PUSH1 0x20 DUP3 ADD MLOAD DUP2 PUSH1 0x1 ADD SSTORE SWAP1 POP POP POP POP POP JUMP JUMPDEST DUP3 DUP1 SLOAD PUSH2 0x2A3 SWAP1 PUSH2 0x536 JUMP JUMPDEST SWAP1 PUSH1 0x0 MSTORE PUSH1 0x20 PUSH1 0x0 KECCAK256 SWAP1 PUSH1 0x1F ADD PUSH1 0x20 SWAP1 DIV DUP2 ADD SWAP3 DUP3 PUSH2 0x2C5 JUMPI PUSH1 0x0 DUP6 SSTORE PUSH2 0x30C JUMP JUMPDEST DUP3 PUSH1 0x1F LT PUSH2 0x2DE JUMPI DUP1 MLOAD PUSH1 0xFF NOT AND DUP4 DUP1 ADD OR DUP6 SSTORE PUSH2 0x30C JUMP JUMPDEST DUP3 DUP1 ADD PUSH1 0x1 ADD DUP6 SSTORE DUP3 ISZERO PUSH2 0x30C JUMPI SWAP2 DUP3 ADD JUMPDEST DUP3 DUP2 GT ISZERO PUSH2 0x30B JUMPI DUP3 MLOAD DUP3 SSTORE SWAP2 PUSH1 0x20 ADD SWAP2 SWAP1 PUSH1 0x1 ADD SWAP1 PUSH2 0x2F0 JUMP JUMPDEST JUMPDEST POP SWAP1 POP PUSH2 0x319 SWAP2 SWAP1 PUSH2 0x31D JUMP JUMPDEST POP SWAP1 JUMP JUMPDEST JUMPDEST DUP1 DUP3 GT ISZERO PUSH2 0x336 JUMPI PUSH1 0x0 DUP2 PUSH1 0x0 SWAP1 SSTORE POP PUSH1 0x1 ADD PUSH2 0x31E JUMP JUMPDEST POP SWAP1 JUMP JUMPDEST PUSH1 0x0 PUSH2 0x34D PUSH2 0x348 DUP5 PUSH2 0x4B8 JUMP JUMPDEST PUSH2 0x493 JUMP JUMPDEST SWAP1 POP DUP3 DUP2 MSTORE PUSH1 0x20 DUP2 ADD DUP5 DUP5 DUP5 ADD GT ISZERO PUSH2 0x369 JUMPI PUSH2 0x368 PUSH2 0x674 JUMP JUMPDEST JUMPDEST PUSH2 0x374 DUP5 DUP3 DUP6 PUSH2 0x527 JUMP JUMPDEST POP SWAP4 SWAP3 POP POP POP JUMP JUMPDEST PUSH1 0x0 DUP3 PUSH1 0x1F DUP4 ADD SLT PUSH2 0x391 JUMPI PUSH2 0x390 PUSH2 0x66F JUMP JUMPDEST JUMPDEST DUP2 CALLDATALOAD PUSH2 0x3A1 DUP5 DUP3 PUSH1 0x20 DUP7 ADD PUSH2 0x33A JUMP JUMPDEST SWAP2 POP POP SWAP3 SWAP2 POP POP JUMP JUMPDEST PUSH1 0x0 DUP2 CALLDATALOAD SWAP1 POP PUSH2 0x3B9 DUP2 PUSH2 0x694 JUMP JUMPDEST SWAP3 SWAP2 POP POP JUMP JUMPDEST PUSH1 0x0 DUP1 PUSH1 0x40 DUP4 DUP6 SUB SLT ISZERO PUSH2 0x3D6 JUMPI PUSH2 0x3D5 PUSH2 0x67E JUMP JUMPDEST JUMPDEST PUSH1 0x0 DUP4 ADD CALLDATALOAD PUSH8 0xFFFFFFFFFFFFFFFF DUP2 GT ISZERO PUSH2 0x3F4 JUMPI PUSH2 0x3F3 PUSH2 0x679 JUMP JUMPDEST JUMPDEST PUSH2 0x400 DUP6 DUP3 DUP7 ADD PUSH2 0x37C JUMP JUMPDEST SWAP3 POP POP PUSH1 0x20 DUP4 ADD CALLDATALOAD PUSH8 0xFFFFFFFFFFFFFFFF DUP2 GT ISZERO PUSH2 0x421 JUMPI PUSH2 0x420 PUSH2 0x679 JUMP JUMPDEST JUMPDEST PUSH2 0x42D DUP6 DUP3 DUP7 ADD PUSH2 0x37C JUMP JUMPDEST SWAP2 POP POP SWAP3 POP SWAP3 SWAP1 POP JUMP JUMPDEST PUSH1 0x0 DUP1 PUSH1 0x40 DUP4 DUP6 SUB SLT ISZERO PUSH2 0x44E JUMPI PUSH2 0x44D PUSH2 0x67E JUMP JUMPDEST JUMPDEST PUSH1 0x0 PUSH2 0x45C DUP6 DUP3 DUP7 ADD PUSH2 0x3AA JUMP JUMPDEST SWAP3 POP POP PUSH1 0x20 DUP4 ADD CALLDATALOAD PUSH8 0xFFFFFFFFFFFFFFFF DUP2 GT ISZERO PUSH2 0x47D JUMPI PUSH2 0x47C PUSH2 0x679 JUMP JUMPDEST JUMPDEST PUSH2 0x489 DUP6 DUP3 DUP7 ADD PUSH2 0x37C JUMP JUMPDEST SWAP2 POP POP SWAP3 POP SWAP3 SWAP1 POP JUMP JUMPDEST PUSH1 0x0 PUSH2 0x49D PUSH2 0x4AE JUMP JUMPDEST SWAP1 POP PUSH2 0x4A9 DUP3 DUP3 PUSH2 0x568 JUMP JUMPDEST SWAP2 SWAP1 POP JUMP JUMPDEST PUSH1 0x0 PUSH1 0x40 MLOAD SWAP1 POP SWAP1 JUMP JUMPDEST PUSH1 0x0 PUSH8 0xFFFFFFFFFFFFFFFF DUP3 GT ISZERO PUSH2 0x4D3 JUMPI PUSH2 0x4D2 PUSH2 0x640 JUMP JUMPDEST JUMPDEST PUSH2 0x4DC DUP3 PUSH2 0x683 JUMP JUMPDEST SWAP1 POP PUSH1 0x20 DUP2 ADD SWAP1 POP SWAP2 SWAP1 POP JUMP JUMPDEST PUSH1 0x0 PUSH2 0x4F4 DUP3 PUSH2 0x51D JUMP JUMPDEST SWAP2 POP PUSH2 0x4FF DUP4 PUSH2 0x51D JUMP JUMPDEST SWAP3 POP DUP3 DUP3 LT ISZERO PUSH2 0x512 JUMPI PUSH2 0x511 PUSH2 0x5E2 JUMP JUMPDEST JUMPDEST DUP3 DUP3 SUB SWAP1 POP SWAP3 SWAP2 POP POP JUMP JUMPDEST PUSH1 0x0 DUP2 SWAP1 POP SWAP2 SWAP1 POP JUMP JUMPDEST DUP3 DUP2 DUP4 CALLDATACOPY PUSH1 0x0 DUP4 DUP4 ADD MSTORE POP POP POP JUMP JUMPDEST PUSH1 0x0 PUSH1 0x2 DUP3 DIV SWAP1 POP PUSH1 0x1 DUP3 AND DUP1 PUSH2 0x54E JUMPI PUSH1 0x7F DUP3 AND SWAP2 POP JUMPDEST PUSH1 0x20 DUP3 LT DUP2 EQ ISZERO PUSH2 0x562 JUMPI PUSH2 0x561 PUSH2 0x611 JUMP JUMPDEST JUMPDEST POP SWAP2 SWAP1 POP JUMP JUMPDEST PUSH2 0x571 DUP3 PUSH2 0x683 JUMP JUMPDEST DUP2 ADD DUP2 DUP2 LT PUSH8 0xFFFFFFFFFFFFFFFF DUP3 GT OR ISZERO PUSH2 0x590 JUMPI PUSH2 0x58F PUSH2 0x640 JUMP JUMPDEST JUMPDEST DUP1 PUSH1 0x40 MSTORE POP POP POP JUMP JUMPDEST PUSH1 0x0 PUSH2 0x5A4 DUP3 PUSH2 0x51D JUMP JUMPDEST SWAP2 POP PUSH32 0xFFFFFFFFFFFFFFFFFFFFFFFFFFFFFFFFFFFFFFFFFFFFFFFFFFFFFFFFFFFFFFFF DUP3 EQ ISZERO PUSH2 0x5D7 JUMPI PUSH2 0x5D6 PUSH2 0x5E2 JUMP JUMPDEST JUMPDEST PUSH1 0x1 DUP3 ADD SWAP1 POP SWAP2 SWAP1 POP JUMP JUMPDEST PUSH32 0x4E487B7100000000000000000000000000000000000000000000000000000000 PUSH1 0x0 MSTORE PUSH1 0x11 PUSH1 0x4 MSTORE PUSH1 0x24 PUSH1 0x0 REVERT JUMPDEST PUSH32 0x4E487B7100000000000000000000000000000000000000000000000000000000 PUSH1 0x0 MSTORE PUSH1 0x22 PUSH1 0x4 MSTORE PUSH1 0x24 PUSH1 0x0 REVERT JUMPDEST PUSH32 0x4E487B7100000000000000000000000000000000000000000000000000000000 PUSH1 0x0 MSTORE PUSH1 0x41 PUSH1 0x4 MSTORE PUSH1 0x24 PUSH1 0x0 REVERT JUMPDEST PUSH1 0x0 DUP1 REVERT JUMPDEST PUSH1 0x0 DUP1 REVERT JUMPDEST PUSH1 0x0 DUP1 REVERT JUMPDEST PUSH1 0x0 DUP1 REVERT JUMPDEST PUSH1 0x0 PUSH1 0x1F NOT PUSH1 0x1F DUP4 ADD AND SWAP1 POP SWAP2 SWAP1 POP JUMP JUMPDEST PUSH2 0x69D DUP2 PUSH2 0x51D JUMP JUMPDEST DUP2 EQ PUSH2 0x6A8 JUMPI PUSH1 0x0 DUP1 REVERT JUMPDEST POP JUMP INVALID LOG2 PUSH5 0x6970667358 0x22 SLT KECCAK256 0xE LOG0 INVALID PUSH9 0xEB617ACDF27035842D 0xDB 0xC8 PUSH31 0x314EBC8092BC1A3DF1086F9962E1E75764736F6C6343000807003300000000 "
				},
				"gasEstimates": {
					"creation": {
						"codeDepositCost": "352200",
						"executionCost": "5399",
						"totalCost": "357599"
					},
					"external": {
						"addOption(uint256,string)": "infinite",
						"createPool(string,string)": "infinite",
						"startP(uint256,string)": "infinite"
					}
				},
				"methodIdentifiers": {
					"addOption(uint256,string)": "ea57d5d4",
					"createPool(string,string)": "5ea81a32",
					"startP(uint256,string)": "55d88747"
				}
			},
			"userdoc": {
				"kind": "user",
				"methods": {},
				"version": 1
			}
		}
	}
}