{
	"contracts/eVoting_app.sol": {
		"EVoteApp": {
			"abi": [
				{
					"inputs": [
						{
							"internalType": "string",
							"name": "_poolIndex",
							"type": "string"
						},
						{
							"internalType": "string",
							"name": "_name",
							"type": "string"
						}
					],
					"name": "addOption",
					"outputs": [],
					"stateMutability": "nonpayable",
					"type": "function"
				},
				{
					"inputs": [
						{
							"internalType": "string",
							"name": "_poolName",
							"type": "string"
						},
						{
							"internalType": "string",
							"name": "_description",
							"type": "string"
						}
					],
					"name": "startPool",
					"outputs": [],
					"stateMutability": "nonpayable",
					"type": "function"
				}
			],
			"devdoc": {
				"kind": "dev",
				"methods": {},
				"version": 1
			},
			"evm": {
				"assembly": "    /* \"contracts/eVoting_app.sol\":71:1199  contract EVoteApp{... */\n  mstore(0x40, 0x80)\n    /* \"contracts/eVoting_app.sol\":616:617  0 */\n  0x00\n    /* \"contracts/eVoting_app.sol\":595:617  uint256 numOfPools = 0 */\n  0x01\n  sstore\n    /* \"contracts/eVoting_app.sol\":71:1199  contract EVoteApp{... */\n  callvalue\n  dup1\n  iszero\n  tag_1\n  jumpi\n  0x00\n  dup1\n  revert\ntag_1:\n  pop\n  dataSize(sub_0)\n  dup1\n  dataOffset(sub_0)\n  0x00\n  codecopy\n  0x00\n  return\nstop\n\nsub_0: assembly {\n        /* \"contracts/eVoting_app.sol\":71:1199  contract EVoteApp{... */\n      mstore(0x40, 0x80)\n      callvalue\n      dup1\n      iszero\n      tag_1\n      jumpi\n      0x00\n      dup1\n      revert\n    tag_1:\n      pop\n      jumpi(tag_2, lt(calldatasize, 0x04))\n      shr(0xe0, calldataload(0x00))\n      dup1\n      0x4b67e07f\n      eq\n      tag_3\n      jumpi\n      dup1\n      0xf71b5cde\n      eq\n      tag_4\n      jumpi\n    tag_2:\n      0x00\n      dup1\n      revert\n        /* \"contracts/eVoting_app.sol\":1068:1197  function addOption(string memory _poolIndex, string memory _name) public{... */\n    tag_3:\n      tag_5\n      0x04\n      dup1\n      calldatasize\n      sub\n      dup2\n      add\n      swap1\n      tag_6\n      swap2\n      swap1\n      tag_7\n      jump\t// in\n    tag_6:\n      tag_8\n      jump\t// in\n    tag_5:\n      stop\n        /* \"contracts/eVoting_app.sol\":624:1062  function startPool(string memory _poolName, string memory _description) public{... */\n    tag_4:\n      tag_9\n      0x04\n      dup1\n      calldatasize\n      sub\n      dup2\n      add\n      swap1\n      tag_10\n      swap2\n      swap1\n      tag_7\n      jump\t// in\n    tag_10:\n      tag_11\n      jump\t// in\n    tag_9:\n      stop\n        /* \"contracts/eVoting_app.sol\":1068:1197  function addOption(string memory _poolIndex, string memory _name) public{... */\n    tag_8:\n        /* \"contracts/eVoting_app.sol\":1150:1168  Pool storage _pool */\n      0x00\n        /* \"contracts/eVoting_app.sol\":1171:1176  pools */\n      dup1\n        /* \"contracts/eVoting_app.sol\":1171:1190  pools[numOfPools++] */\n      0x00\n        /* \"contracts/eVoting_app.sol\":1177:1187  numOfPools */\n      0x01\n      0x00\n        /* \"contracts/eVoting_app.sol\":1177:1189  numOfPools++ */\n      dup2\n      sload\n      dup1\n      swap3\n      swap2\n      swap1\n      tag_13\n      swap1\n      tag_14\n      jump\t// in\n    tag_13:\n      swap2\n      swap1\n      pop\n      sstore\n        /* \"contracts/eVoting_app.sol\":1171:1190  pools[numOfPools++] */\n      dup2\n      mstore\n      0x20\n      add\n      swap1\n      dup2\n      mstore\n      0x20\n      add\n      0x00\n      keccak256\n        /* \"contracts/eVoting_app.sol\":1150:1190  Pool storage _pool = pools[numOfPools++] */\n      swap1\n      pop\n        /* \"contracts/eVoting_app.sol\":1140:1197  {... */\n      pop\n        /* \"contracts/eVoting_app.sol\":1068:1197  function addOption(string memory _poolIndex, string memory _name) public{... */\n      pop\n      pop\n      jump\t// out\n        /* \"contracts/eVoting_app.sol\":624:1062  function startPool(string memory _poolName, string memory _description) public{... */\n    tag_11:\n        /* \"contracts/eVoting_app.sol\":769:787  Pool storage _pool */\n      0x00\n        /* \"contracts/eVoting_app.sol\":790:795  pools */\n      dup1\n        /* \"contracts/eVoting_app.sol\":790:809  pools[numOfPools++] */\n      0x00\n        /* \"contracts/eVoting_app.sol\":796:806  numOfPools */\n      0x01\n      0x00\n        /* \"contracts/eVoting_app.sol\":796:808  numOfPools++ */\n      dup2\n      sload\n      dup1\n      swap3\n      swap2\n      swap1\n      tag_16\n      swap1\n      tag_14\n      jump\t// in\n    tag_16:\n      swap2\n      swap1\n      pop\n      sstore\n        /* \"contracts/eVoting_app.sol\":790:809  pools[numOfPools++] */\n      dup2\n      mstore\n      0x20\n      add\n      swap1\n      dup2\n      mstore\n      0x20\n      add\n      0x00\n      keccak256\n        /* \"contracts/eVoting_app.sol\":769:809  Pool storage _pool = pools[numOfPools++] */\n      swap1\n      pop\n        /* \"contracts/eVoting_app.sol\":833:842  _poolName */\n      dup3\n        /* \"contracts/eVoting_app.sol\":820:825  _pool */\n      dup2\n        /* \"contracts/eVoting_app.sol\":820:830  _pool.name */\n      0x00\n      add\n        /* \"contracts/eVoting_app.sol\":820:842  _pool.name = _poolName */\n      swap1\n      dup1\n      mload\n      swap1\n      0x20\n      add\n      swap1\n      tag_17\n      swap3\n      swap2\n      swap1\n      tag_18\n      jump\t// in\n    tag_17:\n      pop\n        /* \"contracts/eVoting_app.sol\":872:884  _description */\n      dup2\n        /* \"contracts/eVoting_app.sol\":852:857  _pool */\n      dup2\n        /* \"contracts/eVoting_app.sol\":852:869  _pool.description */\n      0x01\n      add\n        /* \"contracts/eVoting_app.sol\":852:884  _pool.description = _description */\n      swap1\n      dup1\n      mload\n      swap1\n      0x20\n      add\n      swap1\n      tag_19\n      swap3\n      swap2\n      swap1\n      tag_18\n      jump\t// in\n    tag_19:\n      pop\n        /* \"contracts/eVoting_app.sol\":913:914  0 */\n      0x00\n        /* \"contracts/eVoting_app.sol\":894:899  _pool */\n      dup2\n        /* \"contracts/eVoting_app.sol\":894:910  _pool.totalVotes */\n      0x02\n      add\n        /* \"contracts/eVoting_app.sol\":894:914  _pool.totalVotes = 0 */\n      dup2\n      swap1\n      sstore\n      pop\n        /* \"contracts/eVoting_app.sol\":938:948  msg.sender */\n      caller\n        /* \"contracts/eVoting_app.sol\":924:929  _pool */\n      dup2\n        /* \"contracts/eVoting_app.sol\":924:935  _pool.owner */\n      0x03\n      add\n      0x00\n        /* \"contracts/eVoting_app.sol\":924:948  _pool.owner = msg.sender */\n      0x0100\n      exp\n      dup2\n      sload\n      dup2\n      0xffffffffffffffffffffffffffffffffffffffff\n      mul\n      not\n      and\n      swap1\n      dup4\n      0xffffffffffffffffffffffffffffffffffffffff\n      and\n      mul\n      or\n      swap1\n      sstore\n      pop\n        /* \"contracts/eVoting_app.sol\":979:980  0 */\n      0x00\n        /* \"contracts/eVoting_app.sol\":958:963  _pool */\n      dup2\n        /* \"contracts/eVoting_app.sol\":958:976  _pool.numOfOptions */\n      0x05\n      add\n        /* \"contracts/eVoting_app.sol\":958:980  _pool.numOfOptions = 0 */\n      dup2\n      swap1\n      sstore\n      pop\n        /* \"contracts/eVoting_app.sol\":1007:1012  false */\n      0x00\n        /* \"contracts/eVoting_app.sol\":990:995  _pool */\n      dup2\n        /* \"contracts/eVoting_app.sol\":990:1004  _pool.isActive */\n      0x06\n      add\n      0x00\n        /* \"contracts/eVoting_app.sol\":990:1012  _pool.isActive = false */\n      0x0100\n      exp\n      dup2\n      sload\n      dup2\n      0xff\n      mul\n      not\n      and\n      swap1\n      dup4\n      iszero\n      iszero\n      mul\n      or\n      swap1\n      sstore\n      pop\n        /* \"contracts/eVoting_app.sol\":1053:1054  1 */\n      0x01\n        /* \"contracts/eVoting_app.sol\":1040:1050  numOfPools */\n      dup1\n      sload\n        /* \"contracts/eVoting_app.sol\":1040:1054  numOfPools - 1 */\n      tag_20\n      swap2\n      swap1\n      tag_21\n      jump\t// in\n    tag_20:\n        /* \"contracts/eVoting_app.sol\":1022:1027  _pool */\n      dup2\n        /* \"contracts/eVoting_app.sol\":1022:1037  _pool.poolIndex */\n      0x07\n      add\n        /* \"contracts/eVoting_app.sol\":1022:1054  _pool.poolIndex = numOfPools - 1 */\n      dup2\n      swap1\n      sstore\n      pop\n        /* \"contracts/eVoting_app.sol\":702:1062  {... */\n      pop\n        /* \"contracts/eVoting_app.sol\":624:1062  function startPool(string memory _poolName, string memory _description) public{... */\n      pop\n      pop\n      jump\t// out\n    tag_18:\n      dup3\n      dup1\n      sload\n      tag_22\n      swap1\n      tag_23\n      jump\t// in\n    tag_22:\n      swap1\n      0x00\n      mstore\n      keccak256(0x00, 0x20)\n      swap1\n      0x1f\n      add\n      0x20\n      swap1\n      div\n      dup2\n      add\n      swap3\n      dup3\n      tag_25\n      jumpi\n      0x00\n      dup6\n      sstore\n      jump(tag_24)\n    tag_25:\n      dup3\n      0x1f\n      lt\n      tag_26\n      jumpi\n      dup1\n      mload\n      not(0xff)\n      and\n      dup4\n      dup1\n      add\n      or\n      dup6\n      sstore\n      jump(tag_24)\n    tag_26:\n      dup3\n      dup1\n      add\n      0x01\n      add\n      dup6\n      sstore\n      dup3\n      iszero\n      tag_24\n      jumpi\n      swap2\n      dup3\n      add\n    tag_27:\n      dup3\n      dup2\n      gt\n      iszero\n      tag_28\n      jumpi\n      dup3\n      mload\n      dup3\n      sstore\n      swap2\n      0x20\n      add\n      swap2\n      swap1\n      0x01\n      add\n      swap1\n      jump(tag_27)\n    tag_28:\n    tag_24:\n      pop\n      swap1\n      pop\n      tag_29\n      swap2\n      swap1\n      tag_30\n      jump\t// in\n    tag_29:\n      pop\n      swap1\n      jump\t// out\n    tag_30:\n    tag_31:\n      dup1\n      dup3\n      gt\n      iszero\n      tag_32\n      jumpi\n      0x00\n      dup2\n      0x00\n      swap1\n      sstore\n      pop\n      0x01\n      add\n      jump(tag_31)\n    tag_32:\n      pop\n      swap1\n      jump\t// out\n        /* \"#utility.yul\":7:419   */\n    tag_34:\n        /* \"#utility.yul\":85:90   */\n      0x00\n        /* \"#utility.yul\":110:176   */\n      tag_36\n        /* \"#utility.yul\":126:175   */\n      tag_37\n        /* \"#utility.yul\":168:174   */\n      dup5\n        /* \"#utility.yul\":126:175   */\n      tag_38\n      jump\t// in\n    tag_37:\n        /* \"#utility.yul\":110:176   */\n      tag_39\n      jump\t// in\n    tag_36:\n        /* \"#utility.yul\":101:176   */\n      swap1\n      pop\n        /* \"#utility.yul\":199:205   */\n      dup3\n        /* \"#utility.yul\":192:197   */\n      dup2\n        /* \"#utility.yul\":185:206   */\n      mstore\n        /* \"#utility.yul\":237:241   */\n      0x20\n        /* \"#utility.yul\":230:235   */\n      dup2\n        /* \"#utility.yul\":226:242   */\n      add\n        /* \"#utility.yul\":275:278   */\n      dup5\n        /* \"#utility.yul\":266:272   */\n      dup5\n        /* \"#utility.yul\":261:264   */\n      dup5\n        /* \"#utility.yul\":257:273   */\n      add\n        /* \"#utility.yul\":254:279   */\n      gt\n        /* \"#utility.yul\":251:363   */\n      iszero\n      tag_40\n      jumpi\n        /* \"#utility.yul\":282:361   */\n      tag_41\n      tag_42\n      jump\t// in\n    tag_41:\n        /* \"#utility.yul\":251:363   */\n    tag_40:\n        /* \"#utility.yul\":372:413   */\n      tag_43\n        /* \"#utility.yul\":406:412   */\n      dup5\n        /* \"#utility.yul\":401:404   */\n      dup3\n        /* \"#utility.yul\":396:399   */\n      dup6\n        /* \"#utility.yul\":372:413   */\n      tag_44\n      jump\t// in\n    tag_43:\n        /* \"#utility.yul\":91:419   */\n      pop\n        /* \"#utility.yul\":7:419   */\n      swap4\n      swap3\n      pop\n      pop\n      pop\n      jump\t// out\n        /* \"#utility.yul\":439:779   */\n    tag_45:\n        /* \"#utility.yul\":495:500   */\n      0x00\n        /* \"#utility.yul\":544:547   */\n      dup3\n        /* \"#utility.yul\":537:541   */\n      0x1f\n        /* \"#utility.yul\":529:535   */\n      dup4\n        /* \"#utility.yul\":525:542   */\n      add\n        /* \"#utility.yul\":521:548   */\n      slt\n        /* \"#utility.yul\":511:633   */\n      tag_47\n      jumpi\n        /* \"#utility.yul\":552:631   */\n      tag_48\n      tag_49\n      jump\t// in\n    tag_48:\n        /* \"#utility.yul\":511:633   */\n    tag_47:\n        /* \"#utility.yul\":669:675   */\n      dup2\n        /* \"#utility.yul\":656:676   */\n      calldataload\n        /* \"#utility.yul\":694:773   */\n      tag_50\n        /* \"#utility.yul\":769:772   */\n      dup5\n        /* \"#utility.yul\":761:767   */\n      dup3\n        /* \"#utility.yul\":754:758   */\n      0x20\n        /* \"#utility.yul\":746:752   */\n      dup7\n        /* \"#utility.yul\":742:759   */\n      add\n        /* \"#utility.yul\":694:773   */\n      tag_34\n      jump\t// in\n    tag_50:\n        /* \"#utility.yul\":685:773   */\n      swap2\n      pop\n        /* \"#utility.yul\":501:779   */\n      pop\n        /* \"#utility.yul\":439:779   */\n      swap3\n      swap2\n      pop\n      pop\n      jump\t// out\n        /* \"#utility.yul\":785:1619   */\n    tag_7:\n        /* \"#utility.yul\":873:879   */\n      0x00\n        /* \"#utility.yul\":881:887   */\n      dup1\n        /* \"#utility.yul\":930:932   */\n      0x40\n        /* \"#utility.yul\":918:927   */\n      dup4\n        /* \"#utility.yul\":909:916   */\n      dup6\n        /* \"#utility.yul\":905:928   */\n      sub\n        /* \"#utility.yul\":901:933   */\n      slt\n        /* \"#utility.yul\":898:1017   */\n      iszero\n      tag_52\n      jumpi\n        /* \"#utility.yul\":936:1015   */\n      tag_53\n      tag_54\n      jump\t// in\n    tag_53:\n        /* \"#utility.yul\":898:1017   */\n    tag_52:\n        /* \"#utility.yul\":1084:1085   */\n      0x00\n        /* \"#utility.yul\":1073:1082   */\n      dup4\n        /* \"#utility.yul\":1069:1086   */\n      add\n        /* \"#utility.yul\":1056:1087   */\n      calldataload\n        /* \"#utility.yul\":1114:1132   */\n      0xffffffffffffffff\n        /* \"#utility.yul\":1106:1112   */\n      dup2\n        /* \"#utility.yul\":1103:1133   */\n      gt\n        /* \"#utility.yul\":1100:1217   */\n      iszero\n      tag_55\n      jumpi\n        /* \"#utility.yul\":1136:1215   */\n      tag_56\n      tag_57\n      jump\t// in\n    tag_56:\n        /* \"#utility.yul\":1100:1217   */\n    tag_55:\n        /* \"#utility.yul\":1241:1304   */\n      tag_58\n        /* \"#utility.yul\":1296:1303   */\n      dup6\n        /* \"#utility.yul\":1287:1293   */\n      dup3\n        /* \"#utility.yul\":1276:1285   */\n      dup7\n        /* \"#utility.yul\":1272:1294   */\n      add\n        /* \"#utility.yul\":1241:1304   */\n      tag_45\n      jump\t// in\n    tag_58:\n        /* \"#utility.yul\":1231:1304   */\n      swap3\n      pop\n        /* \"#utility.yul\":1027:1314   */\n      pop\n        /* \"#utility.yul\":1381:1383   */\n      0x20\n        /* \"#utility.yul\":1370:1379   */\n      dup4\n        /* \"#utility.yul\":1366:1384   */\n      add\n        /* \"#utility.yul\":1353:1385   */\n      calldataload\n        /* \"#utility.yul\":1412:1430   */\n      0xffffffffffffffff\n        /* \"#utility.yul\":1404:1410   */\n      dup2\n        /* \"#utility.yul\":1401:1431   */\n      gt\n        /* \"#utility.yul\":1398:1515   */\n      iszero\n      tag_59\n      jumpi\n        /* \"#utility.yul\":1434:1513   */\n      tag_60\n      tag_57\n      jump\t// in\n    tag_60:\n        /* \"#utility.yul\":1398:1515   */\n    tag_59:\n        /* \"#utility.yul\":1539:1602   */\n      tag_61\n        /* \"#utility.yul\":1594:1601   */\n      dup6\n        /* \"#utility.yul\":1585:1591   */\n      dup3\n        /* \"#utility.yul\":1574:1583   */\n      dup7\n        /* \"#utility.yul\":1570:1592   */\n      add\n        /* \"#utility.yul\":1539:1602   */\n      tag_45\n      jump\t// in\n    tag_61:\n        /* \"#utility.yul\":1529:1602   */\n      swap2\n      pop\n        /* \"#utility.yul\":1324:1612   */\n      pop\n        /* \"#utility.yul\":785:1619   */\n      swap3\n      pop\n      swap3\n      swap1\n      pop\n      jump\t// out\n        /* \"#utility.yul\":1625:1754   */\n    tag_39:\n        /* \"#utility.yul\":1659:1665   */\n      0x00\n        /* \"#utility.yul\":1686:1706   */\n      tag_63\n      tag_64\n      jump\t// in\n    tag_63:\n        /* \"#utility.yul\":1676:1706   */\n      swap1\n      pop\n        /* \"#utility.yul\":1715:1748   */\n      tag_65\n        /* \"#utility.yul\":1743:1747   */\n      dup3\n        /* \"#utility.yul\":1735:1741   */\n      dup3\n        /* \"#utility.yul\":1715:1748   */\n      tag_66\n      jump\t// in\n    tag_65:\n        /* \"#utility.yul\":1625:1754   */\n      swap2\n      swap1\n      pop\n      jump\t// out\n        /* \"#utility.yul\":1760:1835   */\n    tag_64:\n        /* \"#utility.yul\":1793:1799   */\n      0x00\n        /* \"#utility.yul\":1826:1828   */\n      0x40\n        /* \"#utility.yul\":1820:1829   */\n      mload\n        /* \"#utility.yul\":1810:1829   */\n      swap1\n      pop\n        /* \"#utility.yul\":1760:1835   */\n      swap1\n      jump\t// out\n        /* \"#utility.yul\":1841:2149   */\n    tag_38:\n        /* \"#utility.yul\":1903:1907   */\n      0x00\n        /* \"#utility.yul\":1993:2011   */\n      0xffffffffffffffff\n        /* \"#utility.yul\":1985:1991   */\n      dup3\n        /* \"#utility.yul\":1982:2012   */\n      gt\n        /* \"#utility.yul\":1979:2035   */\n      iszero\n      tag_69\n      jumpi\n        /* \"#utility.yul\":2015:2033   */\n      tag_70\n      tag_71\n      jump\t// in\n    tag_70:\n        /* \"#utility.yul\":1979:2035   */\n    tag_69:\n        /* \"#utility.yul\":2053:2082   */\n      tag_72\n        /* \"#utility.yul\":2075:2081   */\n      dup3\n        /* \"#utility.yul\":2053:2082   */\n      tag_73\n      jump\t// in\n    tag_72:\n        /* \"#utility.yul\":2045:2082   */\n      swap1\n      pop\n        /* \"#utility.yul\":2137:2141   */\n      0x20\n        /* \"#utility.yul\":2131:2135   */\n      dup2\n        /* \"#utility.yul\":2127:2142   */\n      add\n        /* \"#utility.yul\":2119:2142   */\n      swap1\n      pop\n        /* \"#utility.yul\":1841:2149   */\n      swap2\n      swap1\n      pop\n      jump\t// out\n        /* \"#utility.yul\":2155:2346   */\n    tag_21:\n        /* \"#utility.yul\":2195:2199   */\n      0x00\n        /* \"#utility.yul\":2215:2235   */\n      tag_75\n        /* \"#utility.yul\":2233:2234   */\n      dup3\n        /* \"#utility.yul\":2215:2235   */\n      tag_76\n      jump\t// in\n    tag_75:\n        /* \"#utility.yul\":2210:2235   */\n      swap2\n      pop\n        /* \"#utility.yul\":2249:2269   */\n      tag_77\n        /* \"#utility.yul\":2267:2268   */\n      dup4\n        /* \"#utility.yul\":2249:2269   */\n      tag_76\n      jump\t// in\n    tag_77:\n        /* \"#utility.yul\":2244:2269   */\n      swap3\n      pop\n        /* \"#utility.yul\":2288:2289   */\n      dup3\n        /* \"#utility.yul\":2285:2286   */\n      dup3\n        /* \"#utility.yul\":2282:2290   */\n      lt\n        /* \"#utility.yul\":2279:2313   */\n      iszero\n      tag_78\n      jumpi\n        /* \"#utility.yul\":2293:2311   */\n      tag_79\n      tag_80\n      jump\t// in\n    tag_79:\n        /* \"#utility.yul\":2279:2313   */\n    tag_78:\n        /* \"#utility.yul\":2338:2339   */\n      dup3\n        /* \"#utility.yul\":2335:2336   */\n      dup3\n        /* \"#utility.yul\":2331:2340   */\n      sub\n        /* \"#utility.yul\":2323:2340   */\n      swap1\n      pop\n        /* \"#utility.yul\":2155:2346   */\n      swap3\n      swap2\n      pop\n      pop\n      jump\t// out\n        /* \"#utility.yul\":2352:2429   */\n    tag_76:\n        /* \"#utility.yul\":2389:2396   */\n      0x00\n        /* \"#utility.yul\":2418:2423   */\n      dup2\n        /* \"#utility.yul\":2407:2423   */\n      swap1\n      pop\n        /* \"#utility.yul\":2352:2429   */\n      swap2\n      swap1\n      pop\n      jump\t// out\n        /* \"#utility.yul\":2435:2589   */\n    tag_44:\n        /* \"#utility.yul\":2519:2525   */\n      dup3\n        /* \"#utility.yul\":2514:2517   */\n      dup2\n        /* \"#utility.yul\":2509:2512   */\n      dup4\n        /* \"#utility.yul\":2496:2526   */\n      calldatacopy\n        /* \"#utility.yul\":2581:2582   */\n      0x00\n        /* \"#utility.yul\":2572:2578   */\n      dup4\n        /* \"#utility.yul\":2567:2570   */\n      dup4\n        /* \"#utility.yul\":2563:2579   */\n      add\n        /* \"#utility.yul\":2556:2583   */\n      mstore\n        /* \"#utility.yul\":2435:2589   */\n      pop\n      pop\n      pop\n      jump\t// out\n        /* \"#utility.yul\":2595:2915   */\n    tag_23:\n        /* \"#utility.yul\":2639:2645   */\n      0x00\n        /* \"#utility.yul\":2676:2677   */\n      0x02\n        /* \"#utility.yul\":2670:2674   */\n      dup3\n        /* \"#utility.yul\":2666:2678   */\n      div\n        /* \"#utility.yul\":2656:2678   */\n      swap1\n      pop\n        /* \"#utility.yul\":2723:2724   */\n      0x01\n        /* \"#utility.yul\":2717:2721   */\n      dup3\n        /* \"#utility.yul\":2713:2725   */\n      and\n        /* \"#utility.yul\":2744:2762   */\n      dup1\n        /* \"#utility.yul\":2734:2815   */\n      tag_84\n      jumpi\n        /* \"#utility.yul\":2800:2804   */\n      0x7f\n        /* \"#utility.yul\":2792:2798   */\n      dup3\n        /* \"#utility.yul\":2788:2805   */\n      and\n        /* \"#utility.yul\":2778:2805   */\n      swap2\n      pop\n        /* \"#utility.yul\":2734:2815   */\n    tag_84:\n        /* \"#utility.yul\":2862:2864   */\n      0x20\n        /* \"#utility.yul\":2854:2860   */\n      dup3\n        /* \"#utility.yul\":2851:2865   */\n      lt\n        /* \"#utility.yul\":2831:2849   */\n      dup2\n        /* \"#utility.yul\":2828:2866   */\n      eq\n        /* \"#utility.yul\":2825:2909   */\n      iszero\n      tag_85\n      jumpi\n        /* \"#utility.yul\":2881:2899   */\n      tag_86\n      tag_87\n      jump\t// in\n    tag_86:\n        /* \"#utility.yul\":2825:2909   */\n    tag_85:\n        /* \"#utility.yul\":2646:2915   */\n      pop\n        /* \"#utility.yul\":2595:2915   */\n      swap2\n      swap1\n      pop\n      jump\t// out\n        /* \"#utility.yul\":2921:3202   */\n    tag_66:\n        /* \"#utility.yul\":3004:3031   */\n      tag_89\n        /* \"#utility.yul\":3026:3030   */\n      dup3\n        /* \"#utility.yul\":3004:3031   */\n      tag_73\n      jump\t// in\n    tag_89:\n        /* \"#utility.yul\":2996:3002   */\n      dup2\n        /* \"#utility.yul\":2992:3032   */\n      add\n        /* \"#utility.yul\":3134:3140   */\n      dup2\n        /* \"#utility.yul\":3122:3132   */\n      dup2\n        /* \"#utility.yul\":3119:3141   */\n      lt\n        /* \"#utility.yul\":3098:3116   */\n      0xffffffffffffffff\n        /* \"#utility.yul\":3086:3096   */\n      dup3\n        /* \"#utility.yul\":3083:3117   */\n      gt\n        /* \"#utility.yul\":3080:3142   */\n      or\n        /* \"#utility.yul\":3077:3165   */\n      iszero\n      tag_90\n      jumpi\n        /* \"#utility.yul\":3145:3163   */\n      tag_91\n      tag_71\n      jump\t// in\n    tag_91:\n        /* \"#utility.yul\":3077:3165   */\n    tag_90:\n        /* \"#utility.yul\":3185:3195   */\n      dup1\n        /* \"#utility.yul\":3181:3183   */\n      0x40\n        /* \"#utility.yul\":3174:3196   */\n      mstore\n        /* \"#utility.yul\":2964:3202   */\n      pop\n        /* \"#utility.yul\":2921:3202   */\n      pop\n      pop\n      jump\t// out\n        /* \"#utility.yul\":3208:3441   */\n    tag_14:\n        /* \"#utility.yul\":3247:3250   */\n      0x00\n        /* \"#utility.yul\":3270:3294   */\n      tag_93\n        /* \"#utility.yul\":3288:3293   */\n      dup3\n        /* \"#utility.yul\":3270:3294   */\n      tag_76\n      jump\t// in\n    tag_93:\n        /* \"#utility.yul\":3261:3294   */\n      swap2\n      pop\n        /* \"#utility.yul\":3316:3382   */\n      0xffffffffffffffffffffffffffffffffffffffffffffffffffffffffffffffff\n        /* \"#utility.yul\":3309:3314   */\n      dup3\n        /* \"#utility.yul\":3306:3383   */\n      eq\n        /* \"#utility.yul\":3303:3406   */\n      iszero\n      tag_94\n      jumpi\n        /* \"#utility.yul\":3386:3404   */\n      tag_95\n      tag_80\n      jump\t// in\n    tag_95:\n        /* \"#utility.yul\":3303:3406   */\n    tag_94:\n        /* \"#utility.yul\":3433:3434   */\n      0x01\n        /* \"#utility.yul\":3426:3431   */\n      dup3\n        /* \"#utility.yul\":3422:3435   */\n      add\n        /* \"#utility.yul\":3415:3435   */\n      swap1\n      pop\n        /* \"#utility.yul\":3208:3441   */\n      swap2\n      swap1\n      pop\n      jump\t// out\n        /* \"#utility.yul\":3447:3627   */\n    tag_80:\n        /* \"#utility.yul\":3495:3572   */\n      0x4e487b7100000000000000000000000000000000000000000000000000000000\n        /* \"#utility.yul\":3492:3493   */\n      0x00\n        /* \"#utility.yul\":3485:3573   */\n      mstore\n        /* \"#utility.yul\":3592:3596   */\n      0x11\n        /* \"#utility.yul\":3589:3590   */\n      0x04\n        /* \"#utility.yul\":3582:3597   */\n      mstore\n        /* \"#utility.yul\":3616:3620   */\n      0x24\n        /* \"#utility.yul\":3613:3614   */\n      0x00\n        /* \"#utility.yul\":3606:3621   */\n      revert\n        /* \"#utility.yul\":3633:3813   */\n    tag_87:\n        /* \"#utility.yul\":3681:3758   */\n      0x4e487b7100000000000000000000000000000000000000000000000000000000\n        /* \"#utility.yul\":3678:3679   */\n      0x00\n        /* \"#utility.yul\":3671:3759   */\n      mstore\n        /* \"#utility.yul\":3778:3782   */\n      0x22\n        /* \"#utility.yul\":3775:3776   */\n      0x04\n        /* \"#utility.yul\":3768:3783   */\n      mstore\n        /* \"#utility.yul\":3802:3806   */\n      0x24\n        /* \"#utility.yul\":3799:3800   */\n      0x00\n        /* \"#utility.yul\":3792:3807   */\n      revert\n        /* \"#utility.yul\":3819:3999   */\n    tag_71:\n        /* \"#utility.yul\":3867:3944   */\n      0x4e487b7100000000000000000000000000000000000000000000000000000000\n        /* \"#utility.yul\":3864:3865   */\n      0x00\n        /* \"#utility.yul\":3857:3945   */\n      mstore\n        /* \"#utility.yul\":3964:3968   */\n      0x41\n        /* \"#utility.yul\":3961:3962   */\n      0x04\n        /* \"#utility.yul\":3954:3969   */\n      mstore\n        /* \"#utility.yul\":3988:3992   */\n      0x24\n        /* \"#utility.yul\":3985:3986   */\n      0x00\n        /* \"#utility.yul\":3978:3993   */\n      revert\n        /* \"#utility.yul\":4005:4122   */\n    tag_49:\n        /* \"#utility.yul\":4114:4115   */\n      0x00\n        /* \"#utility.yul\":4111:4112   */\n      dup1\n        /* \"#utility.yul\":4104:4116   */\n      revert\n        /* \"#utility.yul\":4128:4245   */\n    tag_42:\n        /* \"#utility.yul\":4237:4238   */\n      0x00\n        /* \"#utility.yul\":4234:4235   */\n      dup1\n        /* \"#utility.yul\":4227:4239   */\n      revert\n        /* \"#utility.yul\":4251:4368   */\n    tag_57:\n        /* \"#utility.yul\":4360:4361   */\n      0x00\n        /* \"#utility.yul\":4357:4358   */\n      dup1\n        /* \"#utility.yul\":4350:4362   */\n      revert\n        /* \"#utility.yul\":4374:4491   */\n    tag_54:\n        /* \"#utility.yul\":4483:4484   */\n      0x00\n        /* \"#utility.yul\":4480:4481   */\n      dup1\n        /* \"#utility.yul\":4473:4485   */\n      revert\n        /* \"#utility.yul\":4497:4599   */\n    tag_73:\n        /* \"#utility.yul\":4538:4544   */\n      0x00\n        /* \"#utility.yul\":4589:4591   */\n      0x1f\n        /* \"#utility.yul\":4585:4592   */\n      not\n        /* \"#utility.yul\":4580:4582   */\n      0x1f\n        /* \"#utility.yul\":4573:4578   */\n      dup4\n        /* \"#utility.yul\":4569:4583   */\n      add\n        /* \"#utility.yul\":4565:4593   */\n      and\n        /* \"#utility.yul\":4555:4593   */\n      swap1\n      pop\n        /* \"#utility.yul\":4497:4599   */\n      swap2\n      swap1\n      pop\n      jump\t// out\n\n    auxdata: 0xa2646970667358221220903b0fade43783d0fe5bface5c23cc3dcc0c0879202533fc6b6e42659a3c3c6b64736f6c63430008070033\n}\n",
				"bytecode": {
					"linkReferences": {},
					"object": "6080604052600060015534801561001557600080fd5b50610553806100256000396000f3fe608060405234801561001057600080fd5b50600436106100365760003560e01c80634b67e07f1461003b578063f71b5cde14610057575b600080fd5b610055600480360381019061005091906102a4565b610073565b005b610071600480360381019061006c91906102a4565b6100a4565b005b60008060006001600081548092919061008b90610422565b9190505581526020019081526020016000209050505050565b6000806000600160008154809291906100bc90610422565b9190505581526020019081526020016000209050828160000190805190602001906100e8929190610191565b5081816001019080519060200190610101929190610191565b5060008160020181905550338160030160006101000a81548173ffffffffffffffffffffffffffffffffffffffff021916908373ffffffffffffffffffffffffffffffffffffffff1602179055506000816005018190555060008160060160006101000a81548160ff021916908315150217905550600180546101849190610372565b8160070181905550505050565b82805461019d906103bf565b90600052602060002090601f0160209004810192826101bf5760008555610206565b82601f106101d857805160ff1916838001178555610206565b82800160010185558215610206579182015b828111156102055782518255916020019190600101906101ea565b5b5090506102139190610217565b5090565b5b80821115610230576000816000905550600101610218565b5090565b600061024761024284610341565b61031c565b905082815260208101848484011115610263576102626104fd565b5b61026e8482856103b0565b509392505050565b600082601f83011261028b5761028a6104f8565b5b813561029b848260208601610234565b91505092915050565b600080604083850312156102bb576102ba610507565b5b600083013567ffffffffffffffff8111156102d9576102d8610502565b5b6102e585828601610276565b925050602083013567ffffffffffffffff81111561030657610305610502565b5b61031285828601610276565b9150509250929050565b6000610326610337565b905061033282826103f1565b919050565b6000604051905090565b600067ffffffffffffffff82111561035c5761035b6104c9565b5b6103658261050c565b9050602081019050919050565b600061037d826103a6565b9150610388836103a6565b92508282101561039b5761039a61046b565b5b828203905092915050565b6000819050919050565b82818337600083830152505050565b600060028204905060018216806103d757607f821691505b602082108114156103eb576103ea61049a565b5b50919050565b6103fa8261050c565b810181811067ffffffffffffffff82111715610419576104186104c9565b5b80604052505050565b600061042d826103a6565b91507fffffffffffffffffffffffffffffffffffffffffffffffffffffffffffffffff8214156104605761045f61046b565b5b600182019050919050565b7f4e487b7100000000000000000000000000000000000000000000000000000000600052601160045260246000fd5b7f4e487b7100000000000000000000000000000000000000000000000000000000600052602260045260246000fd5b7f4e487b7100000000000000000000000000000000000000000000000000000000600052604160045260246000fd5b600080fd5b600080fd5b600080fd5b600080fd5b6000601f19601f830116905091905056fea2646970667358221220903b0fade43783d0fe5bface5c23cc3dcc0c0879202533fc6b6e42659a3c3c6b64736f6c63430008070033",
					"opcodes": "PUSH1 0x80 PUSH1 0x40 MSTORE PUSH1 0x0 PUSH1 0x1 SSTORE CALLVALUE DUP1 ISZERO PUSH2 0x15 JUMPI PUSH1 0x0 DUP1 REVERT JUMPDEST POP PUSH2 0x553 DUP1 PUSH2 0x25 PUSH1 0x0 CODECOPY PUSH1 0x0 RETURN INVALID PUSH1 0x80 PUSH1 0x40 MSTORE CALLVALUE DUP1 ISZERO PUSH2 0x10 JUMPI PUSH1 0x0 DUP1 REVERT JUMPDEST POP PUSH1 0x4 CALLDATASIZE LT PUSH2 0x36 JUMPI PUSH1 0x0 CALLDATALOAD PUSH1 0xE0 SHR DUP1 PUSH4 0x4B67E07F EQ PUSH2 0x3B JUMPI DUP1 PUSH4 0xF71B5CDE EQ PUSH2 0x57 JUMPI JUMPDEST PUSH1 0x0 DUP1 REVERT JUMPDEST PUSH2 0x55 PUSH1 0x4 DUP1 CALLDATASIZE SUB DUP2 ADD SWAP1 PUSH2 0x50 SWAP2 SWAP1 PUSH2 0x2A4 JUMP JUMPDEST PUSH2 0x73 JUMP JUMPDEST STOP JUMPDEST PUSH2 0x71 PUSH1 0x4 DUP1 CALLDATASIZE SUB DUP2 ADD SWAP1 PUSH2 0x6C SWAP2 SWAP1 PUSH2 0x2A4 JUMP JUMPDEST PUSH2 0xA4 JUMP JUMPDEST STOP JUMPDEST PUSH1 0x0 DUP1 PUSH1 0x0 PUSH1 0x1 PUSH1 0x0 DUP2 SLOAD DUP1 SWAP3 SWAP2 SWAP1 PUSH2 0x8B SWAP1 PUSH2 0x422 JUMP JUMPDEST SWAP2 SWAP1 POP SSTORE DUP2 MSTORE PUSH1 0x20 ADD SWAP1 DUP2 MSTORE PUSH1 0x20 ADD PUSH1 0x0 KECCAK256 SWAP1 POP POP POP POP JUMP JUMPDEST PUSH1 0x0 DUP1 PUSH1 0x0 PUSH1 0x1 PUSH1 0x0 DUP2 SLOAD DUP1 SWAP3 SWAP2 SWAP1 PUSH2 0xBC SWAP1 PUSH2 0x422 JUMP JUMPDEST SWAP2 SWAP1 POP SSTORE DUP2 MSTORE PUSH1 0x20 ADD SWAP1 DUP2 MSTORE PUSH1 0x20 ADD PUSH1 0x0 KECCAK256 SWAP1 POP DUP3 DUP2 PUSH1 0x0 ADD SWAP1 DUP1 MLOAD SWAP1 PUSH1 0x20 ADD SWAP1 PUSH2 0xE8 SWAP3 SWAP2 SWAP1 PUSH2 0x191 JUMP JUMPDEST POP DUP2 DUP2 PUSH1 0x1 ADD SWAP1 DUP1 MLOAD SWAP1 PUSH1 0x20 ADD SWAP1 PUSH2 0x101 SWAP3 SWAP2 SWAP1 PUSH2 0x191 JUMP JUMPDEST POP PUSH1 0x0 DUP2 PUSH1 0x2 ADD DUP2 SWAP1 SSTORE POP CALLER DUP2 PUSH1 0x3 ADD PUSH1 0x0 PUSH2 0x100 EXP DUP2 SLOAD DUP2 PUSH20 0xFFFFFFFFFFFFFFFFFFFFFFFFFFFFFFFFFFFFFFFF MUL NOT AND SWAP1 DUP4 PUSH20 0xFFFFFFFFFFFFFFFFFFFFFFFFFFFFFFFFFFFFFFFF AND MUL OR SWAP1 SSTORE POP PUSH1 0x0 DUP2 PUSH1 0x5 ADD DUP2 SWAP1 SSTORE POP PUSH1 0x0 DUP2 PUSH1 0x6 ADD PUSH1 0x0 PUSH2 0x100 EXP DUP2 SLOAD DUP2 PUSH1 0xFF MUL NOT AND SWAP1 DUP4 ISZERO ISZERO MUL OR SWAP1 SSTORE POP PUSH1 0x1 DUP1 SLOAD PUSH2 0x184 SWAP2 SWAP1 PUSH2 0x372 JUMP JUMPDEST DUP2 PUSH1 0x7 ADD DUP2 SWAP1 SSTORE POP POP POP POP JUMP JUMPDEST DUP3 DUP1 SLOAD PUSH2 0x19D SWAP1 PUSH2 0x3BF JUMP JUMPDEST SWAP1 PUSH1 0x0 MSTORE PUSH1 0x20 PUSH1 0x0 KECCAK256 SWAP1 PUSH1 0x1F ADD PUSH1 0x20 SWAP1 DIV DUP2 ADD SWAP3 DUP3 PUSH2 0x1BF JUMPI PUSH1 0x0 DUP6 SSTORE PUSH2 0x206 JUMP JUMPDEST DUP3 PUSH1 0x1F LT PUSH2 0x1D8 JUMPI DUP1 MLOAD PUSH1 0xFF NOT AND DUP4 DUP1 ADD OR DUP6 SSTORE PUSH2 0x206 JUMP JUMPDEST DUP3 DUP1 ADD PUSH1 0x1 ADD DUP6 SSTORE DUP3 ISZERO PUSH2 0x206 JUMPI SWAP2 DUP3 ADD JUMPDEST DUP3 DUP2 GT ISZERO PUSH2 0x205 JUMPI DUP3 MLOAD DUP3 SSTORE SWAP2 PUSH1 0x20 ADD SWAP2 SWAP1 PUSH1 0x1 ADD SWAP1 PUSH2 0x1EA JUMP JUMPDEST JUMPDEST POP SWAP1 POP PUSH2 0x213 SWAP2 SWAP1 PUSH2 0x217 JUMP JUMPDEST POP SWAP1 JUMP JUMPDEST JUMPDEST DUP1 DUP3 GT ISZERO PUSH2 0x230 JUMPI PUSH1 0x0 DUP2 PUSH1 0x0 SWAP1 SSTORE POP PUSH1 0x1 ADD PUSH2 0x218 JUMP JUMPDEST POP SWAP1 JUMP JUMPDEST PUSH1 0x0 PUSH2 0x247 PUSH2 0x242 DUP5 PUSH2 0x341 JUMP JUMPDEST PUSH2 0x31C JUMP JUMPDEST SWAP1 POP DUP3 DUP2 MSTORE PUSH1 0x20 DUP2 ADD DUP5 DUP5 DUP5 ADD GT ISZERO PUSH2 0x263 JUMPI PUSH2 0x262 PUSH2 0x4FD JUMP JUMPDEST JUMPDEST PUSH2 0x26E DUP5 DUP3 DUP6 PUSH2 0x3B0 JUMP JUMPDEST POP SWAP4 SWAP3 POP POP POP JUMP JUMPDEST PUSH1 0x0 DUP3 PUSH1 0x1F DUP4 ADD SLT PUSH2 0x28B JUMPI PUSH2 0x28A PUSH2 0x4F8 JUMP JUMPDEST JUMPDEST DUP2 CALLDATALOAD PUSH2 0x29B DUP5 DUP3 PUSH1 0x20 DUP7 ADD PUSH2 0x234 JUMP JUMPDEST SWAP2 POP POP SWAP3 SWAP2 POP POP JUMP JUMPDEST PUSH1 0x0 DUP1 PUSH1 0x40 DUP4 DUP6 SUB SLT ISZERO PUSH2 0x2BB JUMPI PUSH2 0x2BA PUSH2 0x507 JUMP JUMPDEST JUMPDEST PUSH1 0x0 DUP4 ADD CALLDATALOAD PUSH8 0xFFFFFFFFFFFFFFFF DUP2 GT ISZERO PUSH2 0x2D9 JUMPI PUSH2 0x2D8 PUSH2 0x502 JUMP JUMPDEST JUMPDEST PUSH2 0x2E5 DUP6 DUP3 DUP7 ADD PUSH2 0x276 JUMP JUMPDEST SWAP3 POP POP PUSH1 0x20 DUP4 ADD CALLDATALOAD PUSH8 0xFFFFFFFFFFFFFFFF DUP2 GT ISZERO PUSH2 0x306 JUMPI PUSH2 0x305 PUSH2 0x502 JUMP JUMPDEST JUMPDEST PUSH2 0x312 DUP6 DUP3 DUP7 ADD PUSH2 0x276 JUMP JUMPDEST SWAP2 POP POP SWAP3 POP SWAP3 SWAP1 POP JUMP JUMPDEST PUSH1 0x0 PUSH2 0x326 PUSH2 0x337 JUMP JUMPDEST SWAP1 POP PUSH2 0x332 DUP3 DUP3 PUSH2 0x3F1 JUMP JUMPDEST SWAP2 SWAP1 POP JUMP JUMPDEST PUSH1 0x0 PUSH1 0x40 MLOAD SWAP1 POP SWAP1 JUMP JUMPDEST PUSH1 0x0 PUSH8 0xFFFFFFFFFFFFFFFF DUP3 GT ISZERO PUSH2 0x35C JUMPI PUSH2 0x35B PUSH2 0x4C9 JUMP JUMPDEST JUMPDEST PUSH2 0x365 DUP3 PUSH2 0x50C JUMP JUMPDEST SWAP1 POP PUSH1 0x20 DUP2 ADD SWAP1 POP SWAP2 SWAP1 POP JUMP JUMPDEST PUSH1 0x0 PUSH2 0x37D DUP3 PUSH2 0x3A6 JUMP JUMPDEST SWAP2 POP PUSH2 0x388 DUP4 PUSH2 0x3A6 JUMP JUMPDEST SWAP3 POP DUP3 DUP3 LT ISZERO PUSH2 0x39B JUMPI PUSH2 0x39A PUSH2 0x46B JUMP JUMPDEST JUMPDEST DUP3 DUP3 SUB SWAP1 POP SWAP3 SWAP2 POP POP JUMP JUMPDEST PUSH1 0x0 DUP2 SWAP1 POP SWAP2 SWAP1 POP JUMP JUMPDEST DUP3 DUP2 DUP4 CALLDATACOPY PUSH1 0x0 DUP4 DUP4 ADD MSTORE POP POP POP JUMP JUMPDEST PUSH1 0x0 PUSH1 0x2 DUP3 DIV SWAP1 POP PUSH1 0x1 DUP3 AND DUP1 PUSH2 0x3D7 JUMPI PUSH1 0x7F DUP3 AND SWAP2 POP JUMPDEST PUSH1 0x20 DUP3 LT DUP2 EQ ISZERO PUSH2 0x3EB JUMPI PUSH2 0x3EA PUSH2 0x49A JUMP JUMPDEST JUMPDEST POP SWAP2 SWAP1 POP JUMP JUMPDEST PUSH2 0x3FA DUP3 PUSH2 0x50C JUMP JUMPDEST DUP2 ADD DUP2 DUP2 LT PUSH8 0xFFFFFFFFFFFFFFFF DUP3 GT OR ISZERO PUSH2 0x419 JUMPI PUSH2 0x418 PUSH2 0x4C9 JUMP JUMPDEST JUMPDEST DUP1 PUSH1 0x40 MSTORE POP POP POP JUMP JUMPDEST PUSH1 0x0 PUSH2 0x42D DUP3 PUSH2 0x3A6 JUMP JUMPDEST SWAP2 POP PUSH32 0xFFFFFFFFFFFFFFFFFFFFFFFFFFFFFFFFFFFFFFFFFFFFFFFFFFFFFFFFFFFFFFFF DUP3 EQ ISZERO PUSH2 0x460 JUMPI PUSH2 0x45F PUSH2 0x46B JUMP JUMPDEST JUMPDEST PUSH1 0x1 DUP3 ADD SWAP1 POP SWAP2 SWAP1 POP JUMP JUMPDEST PUSH32 0x4E487B7100000000000000000000000000000000000000000000000000000000 PUSH1 0x0 MSTORE PUSH1 0x11 PUSH1 0x4 MSTORE PUSH1 0x24 PUSH1 0x0 REVERT JUMPDEST PUSH32 0x4E487B7100000000000000000000000000000000000000000000000000000000 PUSH1 0x0 MSTORE PUSH1 0x22 PUSH1 0x4 MSTORE PUSH1 0x24 PUSH1 0x0 REVERT JUMPDEST PUSH32 0x4E487B7100000000000000000000000000000000000000000000000000000000 PUSH1 0x0 MSTORE PUSH1 0x41 PUSH1 0x4 MSTORE PUSH1 0x24 PUSH1 0x0 REVERT JUMPDEST PUSH1 0x0 DUP1 REVERT JUMPDEST PUSH1 0x0 DUP1 REVERT JUMPDEST PUSH1 0x0 DUP1 REVERT JUMPDEST PUSH1 0x0 DUP1 REVERT JUMPDEST PUSH1 0x0 PUSH1 0x1F NOT PUSH1 0x1F DUP4 ADD AND SWAP1 POP SWAP2 SWAP1 POP JUMP INVALID LOG2 PUSH5 0x6970667358 0x22 SLT KECCAK256 SWAP1 EXTCODESIZE 0xF 0xAD 0xE4 CALLDATACOPY DUP4 0xD0 INVALID JUMPDEST STATICCALL 0xCE 0x5C 0x23 0xCC RETURNDATASIZE 0xCC 0xC ADDMOD PUSH26 0x202533FC6B6E42659A3C3C6B64736F6C63430008070033000000 "
				},
				"gasEstimates": {
					"creation": {
						"codeDepositCost": "272600",
						"executionCost": "5318",
						"totalCost": "277918"
					},
					"external": {
						"addOption(string,string)": "infinite",
						"startPool(string,string)": "infinite"
					}
				},
				"methodIdentifiers": {
					"addOption(string,string)": "4b67e07f",
					"startPool(string,string)": "f71b5cde"
				}
			},
			"userdoc": {
				"kind": "user",
				"methods": {},
				"version": 1
			}
		}
	}
}