{
	"contracts/eVoting_app.sol": {
		"EVoteApp": {
			"abi": [
				{
					"inputs": [
						{
							"internalType": "uint256",
							"name": "_poolIndex",
							"type": "uint256"
						},
						{
							"internalType": "string",
							"name": "_name",
							"type": "string"
						}
					],
					"name": "addOption",
					"outputs": [],
					"stateMutability": "nonpayable",
					"type": "function"
				},
				{
					"inputs": [
						{
							"internalType": "string",
							"name": "_poolName",
							"type": "string"
						},
						{
							"internalType": "string",
							"name": "_description",
							"type": "string"
						}
					],
					"name": "createPool",
					"outputs": [
						{
							"internalType": "uint256",
							"name": "",
							"type": "uint256"
						}
					],
					"stateMutability": "nonpayable",
					"type": "function"
				},
				{
					"inputs": [
						{
							"internalType": "uint256",
							"name": "_poolIndex",
							"type": "uint256"
						}
					],
					"name": "getNumOfOptions",
					"outputs": [
						{
							"internalType": "uint256",
							"name": "",
							"type": "uint256"
						}
					],
					"stateMutability": "view",
					"type": "function"
				},
				{
					"inputs": [
						{
							"internalType": "uint256",
							"name": "_poolIndex",
							"type": "uint256"
						}
					],
					"name": "getNumOfVotes",
					"outputs": [
						{
							"internalType": "uint256",
							"name": "",
							"type": "uint256"
						}
					],
					"stateMutability": "view",
					"type": "function"
				},
				{
					"inputs": [
						{
							"internalType": "uint256",
							"name": "_poolIndex",
							"type": "uint256"
						}
					],
					"name": "getOptions",
					"outputs": [
						{
							"components": [
								{
									"internalType": "string",
									"name": "name",
									"type": "string"
								},
								{
									"internalType": "uint256",
									"name": "numOfVotes",
									"type": "uint256"
								}
							],
							"internalType": "struct EVoteApp.Option[]",
							"name": "",
							"type": "tuple[]"
						}
					],
					"stateMutability": "view",
					"type": "function"
				},
				{
					"inputs": [],
					"name": "numOfPools",
					"outputs": [
						{
							"internalType": "uint256",
							"name": "",
							"type": "uint256"
						}
					],
					"stateMutability": "view",
					"type": "function"
				},
				{
					"inputs": [
						{
							"internalType": "uint256",
							"name": "",
							"type": "uint256"
						}
					],
					"name": "pools",
					"outputs": [
						{
							"internalType": "string",
							"name": "name",
							"type": "string"
						},
						{
							"internalType": "string",
							"name": "description",
							"type": "string"
						},
						{
							"internalType": "uint256",
							"name": "totalVotes",
							"type": "uint256"
						},
						{
							"internalType": "address",
							"name": "owner",
							"type": "address"
						},
						{
							"internalType": "uint256",
							"name": "numOfOptions",
							"type": "uint256"
						},
						{
							"internalType": "bool",
							"name": "isActive",
							"type": "bool"
						},
						{
							"internalType": "uint256",
							"name": "poolIndex",
							"type": "uint256"
						}
					],
					"stateMutability": "view",
					"type": "function"
				},
				{
					"inputs": [
						{
							"internalType": "uint256",
							"name": "_poolIndex",
							"type": "uint256"
						}
					],
					"name": "startPool",
					"outputs": [],
					"stateMutability": "nonpayable",
					"type": "function"
				},
				{
					"inputs": [
						{
							"internalType": "uint256",
							"name": "_poolIndex",
							"type": "uint256"
						},
						{
							"internalType": "uint256",
							"name": "selectedOption",
							"type": "uint256"
						},
						{
							"internalType": "string",
							"name": "_username",
							"type": "string"
						}
					],
					"name": "vote",
					"outputs": [],
					"stateMutability": "nonpayable",
					"type": "function"
				}
			],
			"devdoc": {
				"kind": "dev",
				"methods": {},
				"version": 1
			},
			"evm": {
				"assembly": "    /* \"contracts/eVoting_app.sol\":71:3692  contract EVoteApp{... */\n  mstore(0x40, 0x80)\n    /* \"contracts/eVoting_app.sol\":829:830  0 */\n  0x00\n    /* \"contracts/eVoting_app.sol\":801:830  uint256 public numOfPools = 0 */\n  0x01\n  sstore\n    /* \"contracts/eVoting_app.sol\":71:3692  contract EVoteApp{... */\n  callvalue\n  dup1\n  iszero\n  tag_1\n  jumpi\n  0x00\n  dup1\n  revert\ntag_1:\n  pop\n  dataSize(sub_0)\n  dup1\n  dataOffset(sub_0)\n  0x00\n  codecopy\n  0x00\n  return\nstop\n\nsub_0: assembly {\n        /* \"contracts/eVoting_app.sol\":71:3692  contract EVoteApp{... */\n      mstore(0x40, 0x80)\n      callvalue\n      dup1\n      iszero\n      tag_1\n      jumpi\n      0x00\n      dup1\n      revert\n    tag_1:\n      pop\n      jumpi(tag_2, lt(calldatasize, 0x04))\n      shr(0xe0, calldataload(0x00))\n      dup1\n      0xa1bbfc05\n      gt\n      tag_12\n      jumpi\n      dup1\n      0xa1bbfc05\n      eq\n      tag_7\n      jumpi\n      dup1\n      0xa901d15c\n      eq\n      tag_8\n      jumpi\n      dup1\n      0xac4afa38\n      eq\n      tag_9\n      jumpi\n      dup1\n      0xea57d5d4\n      eq\n      tag_10\n      jumpi\n      dup1\n      0xfcbd2a88\n      eq\n      tag_11\n      jumpi\n      jump(tag_2)\n    tag_12:\n      dup1\n      0x186dd066\n      eq\n      tag_3\n      jumpi\n      dup1\n      0x5ea81a32\n      eq\n      tag_4\n      jumpi\n      dup1\n      0x8915b3fb\n      eq\n      tag_5\n      jumpi\n      dup1\n      0x8c8e54fb\n      eq\n      tag_6\n      jumpi\n    tag_2:\n      0x00\n      dup1\n      revert\n        /* \"contracts/eVoting_app.sol\":2524:2651  function getNumOfOptions(uint256 _poolIndex) public view returns(uint256){... */\n    tag_3:\n      tag_13\n      0x04\n      dup1\n      calldatasize\n      sub\n      dup2\n      add\n      swap1\n      tag_14\n      swap2\n      swap1\n      tag_15\n      jump\t// in\n    tag_14:\n      tag_16\n      jump\t// in\n    tag_13:\n      mload(0x40)\n      tag_17\n      swap2\n      swap1\n      tag_18\n      jump\t// in\n    tag_17:\n      mload(0x40)\n      dup1\n      swap2\n      sub\n      swap1\n      return\n        /* \"contracts/eVoting_app.sol\":1079:1510  function createPool(string memory _poolName, string memory _description) public returns(uint256){... */\n    tag_4:\n      tag_19\n      0x04\n      dup1\n      calldatasize\n      sub\n      dup2\n      add\n      swap1\n      tag_20\n      swap2\n      swap1\n      tag_21\n      jump\t// in\n    tag_20:\n      tag_22\n      jump\t// in\n    tag_19:\n      mload(0x40)\n      tag_23\n      swap2\n      swap1\n      tag_18\n      jump\t// in\n    tag_23:\n      mload(0x40)\n      dup1\n      swap2\n      sub\n      swap1\n      return\n        /* \"contracts/eVoting_app.sol\":2657:2982  function getOptions(uint256 _poolIndex) public view returns(Option[] memory){... */\n    tag_5:\n      tag_24\n      0x04\n      dup1\n      calldatasize\n      sub\n      dup2\n      add\n      swap1\n      tag_25\n      swap2\n      swap1\n      tag_15\n      jump\t// in\n    tag_25:\n      tag_26\n      jump\t// in\n    tag_24:\n      mload(0x40)\n      tag_27\n      swap2\n      swap1\n      tag_28\n      jump\t// in\n    tag_27:\n      mload(0x40)\n      dup1\n      swap2\n      sub\n      swap1\n      return\n        /* \"contracts/eVoting_app.sol\":2395:2518  function getNumOfVotes(uint256 _poolIndex) public view returns(uint256){... */\n    tag_6:\n      tag_29\n      0x04\n      dup1\n      calldatasize\n      sub\n      dup2\n      add\n      swap1\n      tag_30\n      swap2\n      swap1\n      tag_15\n      jump\t// in\n    tag_30:\n      tag_31\n      jump\t// in\n    tag_29:\n      mload(0x40)\n      tag_32\n      swap2\n      swap1\n      tag_18\n      jump\t// in\n    tag_32:\n      mload(0x40)\n      dup1\n      swap2\n      sub\n      swap1\n      return\n        /* \"contracts/eVoting_app.sol\":1890:2389  function vote(uint256 _poolIndex, uint256 selectedOption, string memory _username) canVote(_poolIndex) public{... */\n    tag_7:\n      tag_33\n      0x04\n      dup1\n      calldatasize\n      sub\n      dup2\n      add\n      swap1\n      tag_34\n      swap2\n      swap1\n      tag_35\n      jump\t// in\n    tag_34:\n      tag_36\n      jump\t// in\n    tag_33:\n      stop\n        /* \"contracts/eVoting_app.sol\":1730:1884  function startPool(uint256 _poolIndex) onlyOwner(_poolIndex) public{... */\n    tag_8:\n      tag_37\n      0x04\n      dup1\n      calldatasize\n      sub\n      dup2\n      add\n      swap1\n      tag_38\n      swap2\n      swap1\n      tag_15\n      jump\t// in\n    tag_38:\n      tag_39\n      jump\t// in\n    tag_37:\n      stop\n        /* \"contracts/eVoting_app.sol\":758:795  mapping(uint256 => Pool) public pools */\n    tag_9:\n      tag_40\n      0x04\n      dup1\n      calldatasize\n      sub\n      dup2\n      add\n      swap1\n      tag_41\n      swap2\n      swap1\n      tag_15\n      jump\t// in\n    tag_41:\n      tag_42\n      jump\t// in\n    tag_40:\n      mload(0x40)\n      tag_43\n      swap8\n      swap7\n      swap6\n      swap5\n      swap4\n      swap3\n      swap2\n      swap1\n      tag_44\n      jump\t// in\n    tag_43:\n      mload(0x40)\n      dup1\n      swap2\n      sub\n      swap1\n      return\n        /* \"contracts/eVoting_app.sol\":1516:1724  function addOption(uint256 _poolIndex, string memory _name) onlyOwner(_poolIndex) public{... */\n    tag_10:\n      tag_45\n      0x04\n      dup1\n      calldatasize\n      sub\n      dup2\n      add\n      swap1\n      tag_46\n      swap2\n      swap1\n      tag_47\n      jump\t// in\n    tag_46:\n      tag_48\n      jump\t// in\n    tag_45:\n      stop\n        /* \"contracts/eVoting_app.sol\":801:830  uint256 public numOfPools = 0 */\n    tag_11:\n      tag_49\n      tag_50\n      jump\t// in\n    tag_49:\n      mload(0x40)\n      tag_51\n      swap2\n      swap1\n      tag_18\n      jump\t// in\n    tag_51:\n      mload(0x40)\n      dup1\n      swap2\n      sub\n      swap1\n      return\n        /* \"contracts/eVoting_app.sol\":2524:2651  function getNumOfOptions(uint256 _poolIndex) public view returns(uint256){... */\n    tag_16:\n        /* \"contracts/eVoting_app.sol\":2589:2596  uint256 */\n      0x00\n        /* \"contracts/eVoting_app.sol\":2614:2619  pools */\n      dup1\n        /* \"contracts/eVoting_app.sol\":2614:2631  pools[_poolIndex] */\n      0x00\n        /* \"contracts/eVoting_app.sol\":2620:2630  _poolIndex */\n      dup4\n        /* \"contracts/eVoting_app.sol\":2614:2631  pools[_poolIndex] */\n      dup2\n      mstore\n      0x20\n      add\n      swap1\n      dup2\n      mstore\n      0x20\n      add\n      0x00\n      keccak256\n        /* \"contracts/eVoting_app.sol\":2614:2644  pools[_poolIndex].numOfOptions */\n      0x06\n      add\n      sload\n        /* \"contracts/eVoting_app.sol\":2607:2644  return pools[_poolIndex].numOfOptions */\n      swap1\n      pop\n        /* \"contracts/eVoting_app.sol\":2524:2651  function getNumOfOptions(uint256 _poolIndex) public view returns(uint256){... */\n      swap2\n      swap1\n      pop\n      jump\t// out\n        /* \"contracts/eVoting_app.sol\":1079:1510  function createPool(string memory _poolName, string memory _description) public returns(uint256){... */\n    tag_22:\n        /* \"contracts/eVoting_app.sol\":1167:1174  uint256 */\n      0x00\n        /* \"contracts/eVoting_app.sol\":1186:1204  Pool storage _pool */\n      dup1\n        /* \"contracts/eVoting_app.sol\":1207:1212  pools */\n      0x00\n        /* \"contracts/eVoting_app.sol\":1207:1226  pools[numOfPools++] */\n      dup1\n        /* \"contracts/eVoting_app.sol\":1213:1223  numOfPools */\n      0x01\n      0x00\n        /* \"contracts/eVoting_app.sol\":1213:1225  numOfPools++ */\n      dup2\n      sload\n      dup1\n      swap3\n      swap2\n      swap1\n      tag_54\n      swap1\n      tag_55\n      jump\t// in\n    tag_54:\n      swap2\n      swap1\n      pop\n      sstore\n        /* \"contracts/eVoting_app.sol\":1207:1226  pools[numOfPools++] */\n      dup2\n      mstore\n      0x20\n      add\n      swap1\n      dup2\n      mstore\n      0x20\n      add\n      0x00\n      keccak256\n        /* \"contracts/eVoting_app.sol\":1186:1226  Pool storage _pool = pools[numOfPools++] */\n      swap1\n      pop\n        /* \"contracts/eVoting_app.sol\":1250:1259  _poolName */\n      dup4\n        /* \"contracts/eVoting_app.sol\":1237:1242  _pool */\n      dup2\n        /* \"contracts/eVoting_app.sol\":1237:1247  _pool.name */\n      0x00\n      add\n        /* \"contracts/eVoting_app.sol\":1237:1259  _pool.name = _poolName */\n      swap1\n      dup1\n      mload\n      swap1\n      0x20\n      add\n      swap1\n      tag_56\n      swap3\n      swap2\n      swap1\n      tag_57\n      jump\t// in\n    tag_56:\n      pop\n        /* \"contracts/eVoting_app.sol\":1289:1301  _description */\n      dup3\n        /* \"contracts/eVoting_app.sol\":1269:1274  _pool */\n      dup2\n        /* \"contracts/eVoting_app.sol\":1269:1286  _pool.description */\n      0x01\n      add\n        /* \"contracts/eVoting_app.sol\":1269:1301  _pool.description = _description */\n      swap1\n      dup1\n      mload\n      swap1\n      0x20\n      add\n      swap1\n      tag_58\n      swap3\n      swap2\n      swap1\n      tag_57\n      jump\t// in\n    tag_58:\n      pop\n        /* \"contracts/eVoting_app.sol\":1330:1331  0 */\n      0x00\n        /* \"contracts/eVoting_app.sol\":1311:1316  _pool */\n      dup2\n        /* \"contracts/eVoting_app.sol\":1311:1327  _pool.totalVotes */\n      0x02\n      add\n        /* \"contracts/eVoting_app.sol\":1311:1331  _pool.totalVotes = 0 */\n      dup2\n      swap1\n      sstore\n      pop\n        /* \"contracts/eVoting_app.sol\":1355:1365  msg.sender */\n      caller\n        /* \"contracts/eVoting_app.sol\":1341:1346  _pool */\n      dup2\n        /* \"contracts/eVoting_app.sol\":1341:1352  _pool.owner */\n      0x03\n      add\n      0x00\n        /* \"contracts/eVoting_app.sol\":1341:1365  _pool.owner = msg.sender */\n      0x0100\n      exp\n      dup2\n      sload\n      dup2\n      0xffffffffffffffffffffffffffffffffffffffff\n      mul\n      not\n      and\n      swap1\n      dup4\n      0xffffffffffffffffffffffffffffffffffffffff\n      and\n      mul\n      or\n      swap1\n      sstore\n      pop\n        /* \"contracts/eVoting_app.sol\":1396:1397  0 */\n      0x00\n        /* \"contracts/eVoting_app.sol\":1375:1380  _pool */\n      dup2\n        /* \"contracts/eVoting_app.sol\":1375:1393  _pool.numOfOptions */\n      0x06\n      add\n        /* \"contracts/eVoting_app.sol\":1375:1397  _pool.numOfOptions = 0 */\n      dup2\n      swap1\n      sstore\n      pop\n        /* \"contracts/eVoting_app.sol\":1424:1429  false */\n      0x00\n        /* \"contracts/eVoting_app.sol\":1407:1412  _pool */\n      dup2\n        /* \"contracts/eVoting_app.sol\":1407:1421  _pool.isActive */\n      0x07\n      add\n      0x00\n        /* \"contracts/eVoting_app.sol\":1407:1429  _pool.isActive = false */\n      0x0100\n      exp\n      dup2\n      sload\n      dup2\n      0xff\n      mul\n      not\n      and\n      swap1\n      dup4\n      iszero\n      iszero\n      mul\n      or\n      swap1\n      sstore\n      pop\n        /* \"contracts/eVoting_app.sol\":1470:1471  1 */\n      0x01\n        /* \"contracts/eVoting_app.sol\":1457:1467  numOfPools */\n      dup1\n      sload\n        /* \"contracts/eVoting_app.sol\":1457:1471  numOfPools - 1 */\n      tag_59\n      swap2\n      swap1\n      tag_60\n      jump\t// in\n    tag_59:\n        /* \"contracts/eVoting_app.sol\":1439:1444  _pool */\n      dup2\n        /* \"contracts/eVoting_app.sol\":1439:1454  _pool.poolIndex */\n      0x08\n      add\n        /* \"contracts/eVoting_app.sol\":1439:1471  _pool.poolIndex = numOfPools - 1 */\n      dup2\n      swap1\n      sstore\n      pop\n        /* \"contracts/eVoting_app.sol\":1502:1503  1 */\n      0x01\n        /* \"contracts/eVoting_app.sol\":1489:1499  numOfPools */\n      dup1\n      sload\n        /* \"contracts/eVoting_app.sol\":1489:1503  numOfPools - 1 */\n      tag_61\n      swap2\n      swap1\n      tag_60\n      jump\t// in\n    tag_61:\n        /* \"contracts/eVoting_app.sol\":1482:1503  return numOfPools - 1 */\n      swap2\n      pop\n      pop\n        /* \"contracts/eVoting_app.sol\":1079:1510  function createPool(string memory _poolName, string memory _description) public returns(uint256){... */\n      swap3\n      swap2\n      pop\n      pop\n      jump\t// out\n        /* \"contracts/eVoting_app.sol\":2657:2982  function getOptions(uint256 _poolIndex) public view returns(Option[] memory){... */\n    tag_26:\n        /* \"contracts/eVoting_app.sol\":2717:2732  Option[] memory */\n      0x60\n        /* \"contracts/eVoting_app.sol\":2744:2768  Option[] memory _options */\n      0x00\n        /* \"contracts/eVoting_app.sol\":2784:2789  pools */\n      dup1\n        /* \"contracts/eVoting_app.sol\":2784:2801  pools[_poolIndex] */\n      0x00\n        /* \"contracts/eVoting_app.sol\":2790:2800  _poolIndex */\n      dup5\n        /* \"contracts/eVoting_app.sol\":2784:2801  pools[_poolIndex] */\n      dup2\n      mstore\n      0x20\n      add\n      swap1\n      dup2\n      mstore\n      0x20\n      add\n      0x00\n      keccak256\n        /* \"contracts/eVoting_app.sol\":2784:2814  pools[_poolIndex].numOfOptions */\n      0x06\n      add\n      sload\n        /* \"contracts/eVoting_app.sol\":2771:2815  new Option[](pools[_poolIndex].numOfOptions) */\n      0xffffffffffffffff\n      dup2\n      gt\n      iszero\n      tag_63\n      jumpi\n      tag_64\n      tag_65\n      jump\t// in\n    tag_64:\n    tag_63:\n      mload(0x40)\n      swap1\n      dup1\n      dup3\n      mstore\n      dup1\n      0x20\n      mul\n      0x20\n      add\n      dup3\n      add\n      0x40\n      mstore\n      dup1\n      iszero\n      tag_66\n      jumpi\n      dup2\n      0x20\n      add\n    tag_67:\n      tag_68\n      tag_69\n      jump\t// in\n    tag_68:\n      dup2\n      mstore\n      0x20\n      add\n      swap1\n      0x01\n      swap1\n      sub\n      swap1\n      dup2\n      tag_67\n      jumpi\n      swap1\n      pop\n    tag_66:\n      pop\n        /* \"contracts/eVoting_app.sol\":2744:2815  Option[] memory _options = new Option[](pools[_poolIndex].numOfOptions) */\n      swap1\n      pop\n        /* \"contracts/eVoting_app.sol\":2831:2837  uint i */\n      0x00\n        /* \"contracts/eVoting_app.sol\":2826:2951  for (uint i = 0; i < pools[_poolIndex].numOfOptions; i++) {... */\n    tag_70:\n        /* \"contracts/eVoting_app.sol\":2847:2852  pools */\n      0x00\n        /* \"contracts/eVoting_app.sol\":2847:2864  pools[_poolIndex] */\n      dup1\n        /* \"contracts/eVoting_app.sol\":2853:2863  _poolIndex */\n      dup6\n        /* \"contracts/eVoting_app.sol\":2847:2864  pools[_poolIndex] */\n      dup2\n      mstore\n      0x20\n      add\n      swap1\n      dup2\n      mstore\n      0x20\n      add\n      0x00\n      keccak256\n        /* \"contracts/eVoting_app.sol\":2847:2877  pools[_poolIndex].numOfOptions */\n      0x06\n      add\n      sload\n        /* \"contracts/eVoting_app.sol\":2843:2844  i */\n      dup2\n        /* \"contracts/eVoting_app.sol\":2843:2877  i < pools[_poolIndex].numOfOptions */\n      lt\n        /* \"contracts/eVoting_app.sol\":2826:2951  for (uint i = 0; i < pools[_poolIndex].numOfOptions; i++) {... */\n      iszero\n      tag_71\n      jumpi\n        /* \"contracts/eVoting_app.sol\":2912:2917  pools */\n      0x00\n        /* \"contracts/eVoting_app.sol\":2912:2929  pools[_poolIndex] */\n      dup1\n        /* \"contracts/eVoting_app.sol\":2918:2928  _poolIndex */\n      dup6\n        /* \"contracts/eVoting_app.sol\":2912:2929  pools[_poolIndex] */\n      dup2\n      mstore\n      0x20\n      add\n      swap1\n      dup2\n      mstore\n      0x20\n      add\n      0x00\n      keccak256\n        /* \"contracts/eVoting_app.sol\":2912:2937  pools[_poolIndex].options */\n      0x05\n      add\n        /* \"contracts/eVoting_app.sol\":2912:2940  pools[_poolIndex].options[i] */\n      0x00\n        /* \"contracts/eVoting_app.sol\":2938:2939  i */\n      dup3\n        /* \"contracts/eVoting_app.sol\":2912:2940  pools[_poolIndex].options[i] */\n      dup2\n      mstore\n      0x20\n      add\n      swap1\n      dup2\n      mstore\n      0x20\n      add\n      0x00\n      keccak256\n        /* \"contracts/eVoting_app.sol\":2898:2940  _options[i] = pools[_poolIndex].options[i] */\n      mload(0x40)\n      dup1\n      0x40\n      add\n      0x40\n      mstore\n      swap1\n      dup2\n      0x00\n      dup3\n      add\n      dup1\n      sload\n      tag_73\n      swap1\n      tag_74\n      jump\t// in\n    tag_73:\n      dup1\n      0x1f\n      add\n      0x20\n      dup1\n      swap2\n      div\n      mul\n      0x20\n      add\n      mload(0x40)\n      swap1\n      dup2\n      add\n      0x40\n      mstore\n      dup1\n      swap3\n      swap2\n      swap1\n      dup2\n      dup2\n      mstore\n      0x20\n      add\n      dup3\n      dup1\n      sload\n      tag_75\n      swap1\n      tag_74\n      jump\t// in\n    tag_75:\n      dup1\n      iszero\n      tag_76\n      jumpi\n      dup1\n      0x1f\n      lt\n      tag_77\n      jumpi\n      0x0100\n      dup1\n      dup4\n      sload\n      div\n      mul\n      dup4\n      mstore\n      swap2\n      0x20\n      add\n      swap2\n      jump(tag_76)\n    tag_77:\n      dup3\n      add\n      swap2\n      swap1\n      0x00\n      mstore\n      keccak256(0x00, 0x20)\n      swap1\n    tag_78:\n      dup2\n      sload\n      dup2\n      mstore\n      swap1\n      0x01\n      add\n      swap1\n      0x20\n      add\n      dup1\n      dup4\n      gt\n      tag_78\n      jumpi\n      dup3\n      swap1\n      sub\n      0x1f\n      and\n      dup3\n      add\n      swap2\n    tag_76:\n      pop\n      pop\n      pop\n      pop\n      pop\n      dup2\n      mstore\n      0x20\n      add\n      0x01\n      dup3\n      add\n      sload\n      dup2\n      mstore\n      pop\n      pop\n        /* \"contracts/eVoting_app.sol\":2898:2906  _options */\n      dup3\n        /* \"contracts/eVoting_app.sol\":2907:2908  i */\n      dup3\n        /* \"contracts/eVoting_app.sol\":2898:2909  _options[i] */\n      dup2\n      mload\n      dup2\n      lt\n      tag_79\n      jumpi\n      tag_80\n      tag_81\n      jump\t// in\n    tag_80:\n    tag_79:\n      0x20\n      mul\n      0x20\n      add\n      add\n        /* \"contracts/eVoting_app.sol\":2898:2940  _options[i] = pools[_poolIndex].options[i] */\n      dup2\n      swap1\n      mstore\n      pop\n        /* \"contracts/eVoting_app.sol\":2879:2882  i++ */\n      dup1\n      dup1\n      tag_82\n      swap1\n      tag_55\n      jump\t// in\n    tag_82:\n      swap2\n      pop\n      pop\n        /* \"contracts/eVoting_app.sol\":2826:2951  for (uint i = 0; i < pools[_poolIndex].numOfOptions; i++) {... */\n      jump(tag_70)\n    tag_71:\n      pop\n        /* \"contracts/eVoting_app.sol\":2967:2975  _options */\n      dup1\n        /* \"contracts/eVoting_app.sol\":2960:2975  return _options */\n      swap2\n      pop\n      pop\n        /* \"contracts/eVoting_app.sol\":2657:2982  function getOptions(uint256 _poolIndex) public view returns(Option[] memory){... */\n      swap2\n      swap1\n      pop\n      jump\t// out\n        /* \"contracts/eVoting_app.sol\":2395:2518  function getNumOfVotes(uint256 _poolIndex) public view returns(uint256){... */\n    tag_31:\n        /* \"contracts/eVoting_app.sol\":2458:2465  uint256 */\n      0x00\n        /* \"contracts/eVoting_app.sol\":2483:2488  pools */\n      dup1\n        /* \"contracts/eVoting_app.sol\":2483:2500  pools[_poolIndex] */\n      0x00\n        /* \"contracts/eVoting_app.sol\":2489:2499  _poolIndex */\n      dup4\n        /* \"contracts/eVoting_app.sol\":2483:2500  pools[_poolIndex] */\n      dup2\n      mstore\n      0x20\n      add\n      swap1\n      dup2\n      mstore\n      0x20\n      add\n      0x00\n      keccak256\n        /* \"contracts/eVoting_app.sol\":2483:2511  pools[_poolIndex].totalVotes */\n      0x02\n      add\n      sload\n        /* \"contracts/eVoting_app.sol\":2476:2511  return pools[_poolIndex].totalVotes */\n      swap1\n      pop\n        /* \"contracts/eVoting_app.sol\":2395:2518  function getNumOfVotes(uint256 _poolIndex) public view returns(uint256){... */\n      swap2\n      swap1\n      pop\n      jump\t// out\n        /* \"contracts/eVoting_app.sol\":1890:2389  function vote(uint256 _poolIndex, uint256 selectedOption, string memory _username) canVote(_poolIndex) public{... */\n    tag_36:\n        /* \"contracts/eVoting_app.sol\":1981:1991  _poolIndex */\n      dup3\n        /* \"contracts/eVoting_app.sol\":1010:1015  pools */\n      0x00\n        /* \"contracts/eVoting_app.sol\":1010:1027  pools[_poolIndex] */\n      dup1\n        /* \"contracts/eVoting_app.sol\":1016:1026  _poolIndex */\n      dup3\n        /* \"contracts/eVoting_app.sol\":1010:1027  pools[_poolIndex] */\n      dup2\n      mstore\n      0x20\n      add\n      swap1\n      dup2\n      mstore\n      0x20\n      add\n      0x00\n      keccak256\n        /* \"contracts/eVoting_app.sol\":1010:1034  pools[_poolIndex].voters */\n      0x04\n      add\n        /* \"contracts/eVoting_app.sol\":1010:1046  pools[_poolIndex].voters[msg.sender] */\n      0x00\n        /* \"contracts/eVoting_app.sol\":1035:1045  msg.sender */\n      caller\n        /* \"contracts/eVoting_app.sol\":1010:1046  pools[_poolIndex].voters[msg.sender] */\n      0xffffffffffffffffffffffffffffffffffffffff\n      and\n      0xffffffffffffffffffffffffffffffffffffffff\n      and\n      dup2\n      mstore\n      0x20\n      add\n      swap1\n      dup2\n      mstore\n      0x20\n      add\n      0x00\n      keccak256\n        /* \"contracts/eVoting_app.sol\":1010:1054  pools[_poolIndex].voters[msg.sender].isVoted */\n      0x02\n      add\n      0x00\n      swap1\n      sload\n      swap1\n      0x0100\n      exp\n      swap1\n      div\n      0xff\n      and\n        /* \"contracts/eVoting_app.sol\":1009:1054  !pools[_poolIndex].voters[msg.sender].isVoted */\n      iszero\n        /* \"contracts/eVoting_app.sol\":1001:1055  require(!pools[_poolIndex].voters[msg.sender].isVoted) */\n      tag_85\n      jumpi\n      0x00\n      dup1\n      revert\n    tag_85:\n        /* \"contracts/eVoting_app.sol\":2009:2027  Pool storage _pool */\n      0x00\n        /* \"contracts/eVoting_app.sol\":2030:2035  pools */\n      dup1\n        /* \"contracts/eVoting_app.sol\":2030:2047  pools[_poolIndex] */\n      0x00\n        /* \"contracts/eVoting_app.sol\":2036:2046  _poolIndex */\n      dup7\n        /* \"contracts/eVoting_app.sol\":2030:2047  pools[_poolIndex] */\n      dup2\n      mstore\n      0x20\n      add\n      swap1\n      dup2\n      mstore\n      0x20\n      add\n      0x00\n      keccak256\n        /* \"contracts/eVoting_app.sol\":2009:2047  Pool storage _pool = pools[_poolIndex] */\n      swap1\n      pop\n        /* \"contracts/eVoting_app.sol\":2058:2078  Voter storage _voter */\n      0x00\n        /* \"contracts/eVoting_app.sol\":2081:2086  _pool */\n      dup2\n        /* \"contracts/eVoting_app.sol\":2081:2093  _pool.voters */\n      0x04\n      add\n        /* \"contracts/eVoting_app.sol\":2081:2105  _pool.voters[msg.sender] */\n      0x00\n        /* \"contracts/eVoting_app.sol\":2094:2104  msg.sender */\n      caller\n        /* \"contracts/eVoting_app.sol\":2081:2105  _pool.voters[msg.sender] */\n      0xffffffffffffffffffffffffffffffffffffffff\n      and\n      0xffffffffffffffffffffffffffffffffffffffff\n      and\n      dup2\n      mstore\n      0x20\n      add\n      swap1\n      dup2\n      mstore\n      0x20\n      add\n      0x00\n      keccak256\n        /* \"contracts/eVoting_app.sol\":2058:2105  Voter storage _voter = _pool.voters[msg.sender] */\n      swap1\n      pop\n        /* \"contracts/eVoting_app.sol\":2116:2137  Option storage option */\n      0x00\n        /* \"contracts/eVoting_app.sol\":2140:2145  _pool */\n      dup3\n        /* \"contracts/eVoting_app.sol\":2140:2153  _pool.options */\n      0x05\n      add\n        /* \"contracts/eVoting_app.sol\":2140:2169  _pool.options[selectedOption] */\n      0x00\n        /* \"contracts/eVoting_app.sol\":2154:2168  selectedOption */\n      dup8\n        /* \"contracts/eVoting_app.sol\":2140:2169  _pool.options[selectedOption] */\n      dup2\n      mstore\n      0x20\n      add\n      swap1\n      dup2\n      mstore\n      0x20\n      add\n      0x00\n      keccak256\n        /* \"contracts/eVoting_app.sol\":2116:2169  Option storage option = _pool.options[selectedOption] */\n      swap1\n      pop\n        /* \"contracts/eVoting_app.sol\":2180:2185  _pool */\n      dup3\n        /* \"contracts/eVoting_app.sol\":2180:2196  _pool.totalVotes */\n      0x02\n      add\n      0x00\n        /* \"contracts/eVoting_app.sol\":2180:2198  _pool.totalVotes++ */\n      dup2\n      sload\n      dup1\n      swap3\n      swap2\n      swap1\n      tag_87\n      swap1\n      tag_55\n      jump\t// in\n    tag_87:\n      swap2\n      swap1\n      pop\n      sstore\n      pop\n        /* \"contracts/eVoting_app.sol\":2223:2232  _username */\n      dup5\n        /* \"contracts/eVoting_app.sol\":2209:2215  _voter */\n      dup3\n        /* \"contracts/eVoting_app.sol\":2209:2220  _voter.name */\n      0x00\n      add\n        /* \"contracts/eVoting_app.sol\":2209:2232  _voter.name = _username */\n      swap1\n      dup1\n      mload\n      swap1\n      0x20\n      add\n      swap1\n      tag_88\n      swap3\n      swap2\n      swap1\n      tag_57\n      jump\t// in\n    tag_88:\n      pop\n        /* \"contracts/eVoting_app.sol\":2266:2280  selectedOption */\n      dup6\n        /* \"contracts/eVoting_app.sol\":2242:2248  _voter */\n      dup3\n        /* \"contracts/eVoting_app.sol\":2242:2263  _voter.selectedOption */\n      0x01\n      add\n        /* \"contracts/eVoting_app.sol\":2242:2280  _voter.selectedOption = selectedOption */\n      dup2\n      swap1\n      sstore\n      pop\n        /* \"contracts/eVoting_app.sol\":2290:2296  _voter */\n      dup2\n        /* \"contracts/eVoting_app.sol\":2290:2319  _voter.numOfParticipatedVotes */\n      0x03\n      add\n      0x00\n        /* \"contracts/eVoting_app.sol\":2290:2321  _voter.numOfParticipatedVotes++ */\n      dup2\n      sload\n      dup1\n      swap3\n      swap2\n      swap1\n      tag_89\n      swap1\n      tag_55\n      jump\t// in\n    tag_89:\n      swap2\n      swap1\n      pop\n      sstore\n      pop\n        /* \"contracts/eVoting_app.sol\":2348:2352  true */\n      0x01\n        /* \"contracts/eVoting_app.sol\":2331:2337  _voter */\n      dup3\n        /* \"contracts/eVoting_app.sol\":2331:2345  _voter.isVoted */\n      0x02\n      add\n      0x00\n        /* \"contracts/eVoting_app.sol\":2331:2352  _voter.isVoted = true */\n      0x0100\n      exp\n      dup2\n      sload\n      dup2\n      0xff\n      mul\n      not\n      and\n      swap1\n      dup4\n      iszero\n      iszero\n      mul\n      or\n      swap1\n      sstore\n      pop\n        /* \"contracts/eVoting_app.sol\":2363:2369  option */\n      dup1\n        /* \"contracts/eVoting_app.sol\":2363:2380  option.numOfVotes */\n      0x01\n      add\n      0x00\n        /* \"contracts/eVoting_app.sol\":2363:2382  option.numOfVotes++ */\n      dup2\n      sload\n      dup1\n      swap3\n      swap2\n      swap1\n      tag_90\n      swap1\n      tag_55\n      jump\t// in\n    tag_90:\n      swap2\n      swap1\n      pop\n      sstore\n      pop\n        /* \"contracts/eVoting_app.sol\":1999:2389  {... */\n      pop\n      pop\n      pop\n        /* \"contracts/eVoting_app.sol\":1890:2389  function vote(uint256 _poolIndex, uint256 selectedOption, string memory _username) canVote(_poolIndex) public{... */\n      pop\n      pop\n      pop\n      pop\n      jump\t// out\n        /* \"contracts/eVoting_app.sol\":1730:1884  function startPool(uint256 _poolIndex) onlyOwner(_poolIndex) public{... */\n    tag_39:\n        /* \"contracts/eVoting_app.sol\":1779:1789  _poolIndex */\n      dup1\n        /* \"contracts/eVoting_app.sol\":907:912  pools */\n      0x00\n        /* \"contracts/eVoting_app.sol\":907:924  pools[_poolIndex] */\n      dup1\n        /* \"contracts/eVoting_app.sol\":913:923  _poolIndex */\n      dup3\n        /* \"contracts/eVoting_app.sol\":907:924  pools[_poolIndex] */\n      dup2\n      mstore\n      0x20\n      add\n      swap1\n      dup2\n      mstore\n      0x20\n      add\n      0x00\n      keccak256\n        /* \"contracts/eVoting_app.sol\":907:930  pools[_poolIndex].owner */\n      0x03\n      add\n      0x00\n      swap1\n      sload\n      swap1\n      0x0100\n      exp\n      swap1\n      div\n      0xffffffffffffffffffffffffffffffffffffffff\n      and\n        /* \"contracts/eVoting_app.sol\":893:930  msg.sender == pools[_poolIndex].owner */\n      0xffffffffffffffffffffffffffffffffffffffff\n      and\n        /* \"contracts/eVoting_app.sol\":893:903  msg.sender */\n      caller\n        /* \"contracts/eVoting_app.sol\":893:930  msg.sender == pools[_poolIndex].owner */\n      0xffffffffffffffffffffffffffffffffffffffff\n      and\n      eq\n        /* \"contracts/eVoting_app.sol\":885:931  require(msg.sender == pools[_poolIndex].owner) */\n      tag_92\n      jumpi\n      0x00\n      dup1\n      revert\n    tag_92:\n        /* \"contracts/eVoting_app.sol\":1807:1825  Pool storage _pool */\n      0x00\n        /* \"contracts/eVoting_app.sol\":1828:1833  pools */\n      dup1\n        /* \"contracts/eVoting_app.sol\":1828:1845  pools[_poolIndex] */\n      0x00\n        /* \"contracts/eVoting_app.sol\":1834:1844  _poolIndex */\n      dup5\n        /* \"contracts/eVoting_app.sol\":1828:1845  pools[_poolIndex] */\n      dup2\n      mstore\n      0x20\n      add\n      swap1\n      dup2\n      mstore\n      0x20\n      add\n      0x00\n      keccak256\n        /* \"contracts/eVoting_app.sol\":1807:1845  Pool storage _pool = pools[_poolIndex] */\n      swap1\n      pop\n        /* \"contracts/eVoting_app.sol\":1873:1877  true */\n      0x01\n        /* \"contracts/eVoting_app.sol\":1856:1861  _pool */\n      dup2\n        /* \"contracts/eVoting_app.sol\":1856:1870  _pool.isActive */\n      0x07\n      add\n      0x00\n        /* \"contracts/eVoting_app.sol\":1856:1877  _pool.isActive = true */\n      0x0100\n      exp\n      dup2\n      sload\n      dup2\n      0xff\n      mul\n      not\n      and\n      swap1\n      dup4\n      iszero\n      iszero\n      mul\n      or\n      swap1\n      sstore\n      pop\n        /* \"contracts/eVoting_app.sol\":1797:1884  {... */\n      pop\n        /* \"contracts/eVoting_app.sol\":1730:1884  function startPool(uint256 _poolIndex) onlyOwner(_poolIndex) public{... */\n      pop\n      pop\n      jump\t// out\n        /* \"contracts/eVoting_app.sol\":758:795  mapping(uint256 => Pool) public pools */\n    tag_42:\n      mstore(0x20, 0x00)\n      dup1\n      0x00\n      mstore\n      keccak256(0x00, 0x40)\n      0x00\n      swap2\n      pop\n      swap1\n      pop\n      dup1\n      0x00\n      add\n      dup1\n      sload\n      tag_94\n      swap1\n      tag_74\n      jump\t// in\n    tag_94:\n      dup1\n      0x1f\n      add\n      0x20\n      dup1\n      swap2\n      div\n      mul\n      0x20\n      add\n      mload(0x40)\n      swap1\n      dup2\n      add\n      0x40\n      mstore\n      dup1\n      swap3\n      swap2\n      swap1\n      dup2\n      dup2\n      mstore\n      0x20\n      add\n      dup3\n      dup1\n      sload\n      tag_95\n      swap1\n      tag_74\n      jump\t// in\n    tag_95:\n      dup1\n      iszero\n      tag_96\n      jumpi\n      dup1\n      0x1f\n      lt\n      tag_97\n      jumpi\n      0x0100\n      dup1\n      dup4\n      sload\n      div\n      mul\n      dup4\n      mstore\n      swap2\n      0x20\n      add\n      swap2\n      jump(tag_96)\n    tag_97:\n      dup3\n      add\n      swap2\n      swap1\n      0x00\n      mstore\n      keccak256(0x00, 0x20)\n      swap1\n    tag_98:\n      dup2\n      sload\n      dup2\n      mstore\n      swap1\n      0x01\n      add\n      swap1\n      0x20\n      add\n      dup1\n      dup4\n      gt\n      tag_98\n      jumpi\n      dup3\n      swap1\n      sub\n      0x1f\n      and\n      dup3\n      add\n      swap2\n    tag_96:\n      pop\n      pop\n      pop\n      pop\n      pop\n      swap1\n      dup1\n      0x01\n      add\n      dup1\n      sload\n      tag_99\n      swap1\n      tag_74\n      jump\t// in\n    tag_99:\n      dup1\n      0x1f\n      add\n      0x20\n      dup1\n      swap2\n      div\n      mul\n      0x20\n      add\n      mload(0x40)\n      swap1\n      dup2\n      add\n      0x40\n      mstore\n      dup1\n      swap3\n      swap2\n      swap1\n      dup2\n      dup2\n      mstore\n      0x20\n      add\n      dup3\n      dup1\n      sload\n      tag_100\n      swap1\n      tag_74\n      jump\t// in\n    tag_100:\n      dup1\n      iszero\n      tag_101\n      jumpi\n      dup1\n      0x1f\n      lt\n      tag_102\n      jumpi\n      0x0100\n      dup1\n      dup4\n      sload\n      div\n      mul\n      dup4\n      mstore\n      swap2\n      0x20\n      add\n      swap2\n      jump(tag_101)\n    tag_102:\n      dup3\n      add\n      swap2\n      swap1\n      0x00\n      mstore\n      keccak256(0x00, 0x20)\n      swap1\n    tag_103:\n      dup2\n      sload\n      dup2\n      mstore\n      swap1\n      0x01\n      add\n      swap1\n      0x20\n      add\n      dup1\n      dup4\n      gt\n      tag_103\n      jumpi\n      dup3\n      swap1\n      sub\n      0x1f\n      and\n      dup3\n      add\n      swap2\n    tag_101:\n      pop\n      pop\n      pop\n      pop\n      pop\n      swap1\n      dup1\n      0x02\n      add\n      sload\n      swap1\n      dup1\n      0x03\n      add\n      0x00\n      swap1\n      sload\n      swap1\n      0x0100\n      exp\n      swap1\n      div\n      0xffffffffffffffffffffffffffffffffffffffff\n      and\n      swap1\n      dup1\n      0x06\n      add\n      sload\n      swap1\n      dup1\n      0x07\n      add\n      0x00\n      swap1\n      sload\n      swap1\n      0x0100\n      exp\n      swap1\n      div\n      0xff\n      and\n      swap1\n      dup1\n      0x08\n      add\n      sload\n      swap1\n      pop\n      dup8\n      jump\t// out\n        /* \"contracts/eVoting_app.sol\":1516:1724  function addOption(uint256 _poolIndex, string memory _name) onlyOwner(_poolIndex) public{... */\n    tag_48:\n        /* \"contracts/eVoting_app.sol\":1586:1596  _poolIndex */\n      dup2\n        /* \"contracts/eVoting_app.sol\":907:912  pools */\n      0x00\n        /* \"contracts/eVoting_app.sol\":907:924  pools[_poolIndex] */\n      dup1\n        /* \"contracts/eVoting_app.sol\":913:923  _poolIndex */\n      dup3\n        /* \"contracts/eVoting_app.sol\":907:924  pools[_poolIndex] */\n      dup2\n      mstore\n      0x20\n      add\n      swap1\n      dup2\n      mstore\n      0x20\n      add\n      0x00\n      keccak256\n        /* \"contracts/eVoting_app.sol\":907:930  pools[_poolIndex].owner */\n      0x03\n      add\n      0x00\n      swap1\n      sload\n      swap1\n      0x0100\n      exp\n      swap1\n      div\n      0xffffffffffffffffffffffffffffffffffffffff\n      and\n        /* \"contracts/eVoting_app.sol\":893:930  msg.sender == pools[_poolIndex].owner */\n      0xffffffffffffffffffffffffffffffffffffffff\n      and\n        /* \"contracts/eVoting_app.sol\":893:903  msg.sender */\n      caller\n        /* \"contracts/eVoting_app.sol\":893:930  msg.sender == pools[_poolIndex].owner */\n      0xffffffffffffffffffffffffffffffffffffffff\n      and\n      eq\n        /* \"contracts/eVoting_app.sol\":885:931  require(msg.sender == pools[_poolIndex].owner) */\n      tag_105\n      jumpi\n      0x00\n      dup1\n      revert\n    tag_105:\n        /* \"contracts/eVoting_app.sol\":1614:1632  Pool storage _pool */\n      0x00\n        /* \"contracts/eVoting_app.sol\":1635:1640  pools */\n      dup1\n        /* \"contracts/eVoting_app.sol\":1635:1652  pools[_poolIndex] */\n      0x00\n        /* \"contracts/eVoting_app.sol\":1641:1651  _poolIndex */\n      dup6\n        /* \"contracts/eVoting_app.sol\":1635:1652  pools[_poolIndex] */\n      dup2\n      mstore\n      0x20\n      add\n      swap1\n      dup2\n      mstore\n      0x20\n      add\n      0x00\n      keccak256\n        /* \"contracts/eVoting_app.sol\":1614:1652  Pool storage _pool = pools[_poolIndex] */\n      swap1\n      pop\n        /* \"contracts/eVoting_app.sol\":1701:1717  Option(_name, 0) */\n      mload(0x40)\n      dup1\n      0x40\n      add\n      0x40\n      mstore\n      dup1\n        /* \"contracts/eVoting_app.sol\":1708:1713  _name */\n      dup5\n        /* \"contracts/eVoting_app.sol\":1701:1717  Option(_name, 0) */\n      dup2\n      mstore\n      0x20\n      add\n        /* \"contracts/eVoting_app.sol\":1715:1716  0 */\n      0x00\n        /* \"contracts/eVoting_app.sol\":1701:1717  Option(_name, 0) */\n      dup2\n      mstore\n      pop\n        /* \"contracts/eVoting_app.sol\":1663:1668  _pool */\n      dup2\n        /* \"contracts/eVoting_app.sol\":1663:1676  _pool.options */\n      0x05\n      add\n        /* \"contracts/eVoting_app.sol\":1663:1698  _pool.options[_pool.numOfOptions++] */\n      0x00\n        /* \"contracts/eVoting_app.sol\":1677:1682  _pool */\n      dup4\n        /* \"contracts/eVoting_app.sol\":1677:1695  _pool.numOfOptions */\n      0x06\n      add\n      0x00\n        /* \"contracts/eVoting_app.sol\":1677:1697  _pool.numOfOptions++ */\n      dup2\n      sload\n      dup1\n      swap3\n      swap2\n      swap1\n      tag_107\n      swap1\n      tag_55\n      jump\t// in\n    tag_107:\n      swap2\n      swap1\n      pop\n      sstore\n        /* \"contracts/eVoting_app.sol\":1663:1698  _pool.options[_pool.numOfOptions++] */\n      dup2\n      mstore\n      0x20\n      add\n      swap1\n      dup2\n      mstore\n      0x20\n      add\n      0x00\n      keccak256\n        /* \"contracts/eVoting_app.sol\":1663:1717  _pool.options[_pool.numOfOptions++] = Option(_name, 0) */\n      0x00\n      dup3\n      add\n      mload\n      dup2\n      0x00\n      add\n      swap1\n      dup1\n      mload\n      swap1\n      0x20\n      add\n      swap1\n      tag_108\n      swap3\n      swap2\n      swap1\n      tag_57\n      jump\t// in\n    tag_108:\n      pop\n      0x20\n      dup3\n      add\n      mload\n      dup2\n      0x01\n      add\n      sstore\n      swap1\n      pop\n      pop\n        /* \"contracts/eVoting_app.sol\":1604:1724  {... */\n      pop\n        /* \"contracts/eVoting_app.sol\":1516:1724  function addOption(uint256 _poolIndex, string memory _name) onlyOwner(_poolIndex) public{... */\n      pop\n      pop\n      pop\n      jump\t// out\n        /* \"contracts/eVoting_app.sol\":801:830  uint256 public numOfPools = 0 */\n    tag_50:\n      sload(0x01)\n      dup2\n      jump\t// out\n    tag_57:\n      dup3\n      dup1\n      sload\n      tag_109\n      swap1\n      tag_74\n      jump\t// in\n    tag_109:\n      swap1\n      0x00\n      mstore\n      keccak256(0x00, 0x20)\n      swap1\n      0x1f\n      add\n      0x20\n      swap1\n      div\n      dup2\n      add\n      swap3\n      dup3\n      tag_111\n      jumpi\n      0x00\n      dup6\n      sstore\n      jump(tag_110)\n    tag_111:\n      dup3\n      0x1f\n      lt\n      tag_112\n      jumpi\n      dup1\n      mload\n      not(0xff)\n      and\n      dup4\n      dup1\n      add\n      or\n      dup6\n      sstore\n      jump(tag_110)\n    tag_112:\n      dup3\n      dup1\n      add\n      0x01\n      add\n      dup6\n      sstore\n      dup3\n      iszero\n      tag_110\n      jumpi\n      swap2\n      dup3\n      add\n    tag_113:\n      dup3\n      dup2\n      gt\n      iszero\n      tag_114\n      jumpi\n      dup3\n      mload\n      dup3\n      sstore\n      swap2\n      0x20\n      add\n      swap2\n      swap1\n      0x01\n      add\n      swap1\n      jump(tag_113)\n    tag_114:\n    tag_110:\n      pop\n      swap1\n      pop\n      tag_115\n      swap2\n      swap1\n      tag_116\n      jump\t// in\n    tag_115:\n      pop\n      swap1\n      jump\t// out\n    tag_69:\n      mload(0x40)\n      dup1\n      0x40\n      add\n      0x40\n      mstore\n      dup1\n      0x60\n      dup2\n      mstore\n      0x20\n      add\n      0x00\n      dup2\n      mstore\n      pop\n      swap1\n      jump\t// out\n    tag_116:\n    tag_117:\n      dup1\n      dup3\n      gt\n      iszero\n      tag_118\n      jumpi\n      0x00\n      dup2\n      0x00\n      swap1\n      sstore\n      pop\n      0x01\n      add\n      jump(tag_117)\n    tag_118:\n      pop\n      swap1\n      jump\t// out\n        /* \"#utility.yul\":7:419   */\n    tag_120:\n        /* \"#utility.yul\":85:90   */\n      0x00\n        /* \"#utility.yul\":110:176   */\n      tag_122\n        /* \"#utility.yul\":126:175   */\n      tag_123\n        /* \"#utility.yul\":168:174   */\n      dup5\n        /* \"#utility.yul\":126:175   */\n      tag_124\n      jump\t// in\n    tag_123:\n        /* \"#utility.yul\":110:176   */\n      tag_125\n      jump\t// in\n    tag_122:\n        /* \"#utility.yul\":101:176   */\n      swap1\n      pop\n        /* \"#utility.yul\":199:205   */\n      dup3\n        /* \"#utility.yul\":192:197   */\n      dup2\n        /* \"#utility.yul\":185:206   */\n      mstore\n        /* \"#utility.yul\":237:241   */\n      0x20\n        /* \"#utility.yul\":230:235   */\n      dup2\n        /* \"#utility.yul\":226:242   */\n      add\n        /* \"#utility.yul\":275:278   */\n      dup5\n        /* \"#utility.yul\":266:272   */\n      dup5\n        /* \"#utility.yul\":261:264   */\n      dup5\n        /* \"#utility.yul\":257:273   */\n      add\n        /* \"#utility.yul\":254:279   */\n      gt\n        /* \"#utility.yul\":251:363   */\n      iszero\n      tag_126\n      jumpi\n        /* \"#utility.yul\":282:361   */\n      tag_127\n      tag_128\n      jump\t// in\n    tag_127:\n        /* \"#utility.yul\":251:363   */\n    tag_126:\n        /* \"#utility.yul\":372:413   */\n      tag_129\n        /* \"#utility.yul\":406:412   */\n      dup5\n        /* \"#utility.yul\":401:404   */\n      dup3\n        /* \"#utility.yul\":396:399   */\n      dup6\n        /* \"#utility.yul\":372:413   */\n      tag_130\n      jump\t// in\n    tag_129:\n        /* \"#utility.yul\":91:419   */\n      pop\n        /* \"#utility.yul\":7:419   */\n      swap4\n      swap3\n      pop\n      pop\n      pop\n      jump\t// out\n        /* \"#utility.yul\":439:779   */\n    tag_131:\n        /* \"#utility.yul\":495:500   */\n      0x00\n        /* \"#utility.yul\":544:547   */\n      dup3\n        /* \"#utility.yul\":537:541   */\n      0x1f\n        /* \"#utility.yul\":529:535   */\n      dup4\n        /* \"#utility.yul\":525:542   */\n      add\n        /* \"#utility.yul\":521:548   */\n      slt\n        /* \"#utility.yul\":511:633   */\n      tag_133\n      jumpi\n        /* \"#utility.yul\":552:631   */\n      tag_134\n      tag_135\n      jump\t// in\n    tag_134:\n        /* \"#utility.yul\":511:633   */\n    tag_133:\n        /* \"#utility.yul\":669:675   */\n      dup2\n        /* \"#utility.yul\":656:676   */\n      calldataload\n        /* \"#utility.yul\":694:773   */\n      tag_136\n        /* \"#utility.yul\":769:772   */\n      dup5\n        /* \"#utility.yul\":761:767   */\n      dup3\n        /* \"#utility.yul\":754:758   */\n      0x20\n        /* \"#utility.yul\":746:752   */\n      dup7\n        /* \"#utility.yul\":742:759   */\n      add\n        /* \"#utility.yul\":694:773   */\n      tag_120\n      jump\t// in\n    tag_136:\n        /* \"#utility.yul\":685:773   */\n      swap2\n      pop\n        /* \"#utility.yul\":501:779   */\n      pop\n        /* \"#utility.yul\":439:779   */\n      swap3\n      swap2\n      pop\n      pop\n      jump\t// out\n        /* \"#utility.yul\":785:924   */\n    tag_137:\n        /* \"#utility.yul\":831:836   */\n      0x00\n        /* \"#utility.yul\":869:875   */\n      dup2\n        /* \"#utility.yul\":856:876   */\n      calldataload\n        /* \"#utility.yul\":847:876   */\n      swap1\n      pop\n        /* \"#utility.yul\":885:918   */\n      tag_139\n        /* \"#utility.yul\":912:917   */\n      dup2\n        /* \"#utility.yul\":885:918   */\n      tag_140\n      jump\t// in\n    tag_139:\n        /* \"#utility.yul\":785:924   */\n      swap3\n      swap2\n      pop\n      pop\n      jump\t// out\n        /* \"#utility.yul\":930:1764   */\n    tag_21:\n        /* \"#utility.yul\":1018:1024   */\n      0x00\n        /* \"#utility.yul\":1026:1032   */\n      dup1\n        /* \"#utility.yul\":1075:1077   */\n      0x40\n        /* \"#utility.yul\":1063:1072   */\n      dup4\n        /* \"#utility.yul\":1054:1061   */\n      dup6\n        /* \"#utility.yul\":1050:1073   */\n      sub\n        /* \"#utility.yul\":1046:1078   */\n      slt\n        /* \"#utility.yul\":1043:1162   */\n      iszero\n      tag_142\n      jumpi\n        /* \"#utility.yul\":1081:1160   */\n      tag_143\n      tag_144\n      jump\t// in\n    tag_143:\n        /* \"#utility.yul\":1043:1162   */\n    tag_142:\n        /* \"#utility.yul\":1229:1230   */\n      0x00\n        /* \"#utility.yul\":1218:1227   */\n      dup4\n        /* \"#utility.yul\":1214:1231   */\n      add\n        /* \"#utility.yul\":1201:1232   */\n      calldataload\n        /* \"#utility.yul\":1259:1277   */\n      0xffffffffffffffff\n        /* \"#utility.yul\":1251:1257   */\n      dup2\n        /* \"#utility.yul\":1248:1278   */\n      gt\n        /* \"#utility.yul\":1245:1362   */\n      iszero\n      tag_145\n      jumpi\n        /* \"#utility.yul\":1281:1360   */\n      tag_146\n      tag_147\n      jump\t// in\n    tag_146:\n        /* \"#utility.yul\":1245:1362   */\n    tag_145:\n        /* \"#utility.yul\":1386:1449   */\n      tag_148\n        /* \"#utility.yul\":1441:1448   */\n      dup6\n        /* \"#utility.yul\":1432:1438   */\n      dup3\n        /* \"#utility.yul\":1421:1430   */\n      dup7\n        /* \"#utility.yul\":1417:1439   */\n      add\n        /* \"#utility.yul\":1386:1449   */\n      tag_131\n      jump\t// in\n    tag_148:\n        /* \"#utility.yul\":1376:1449   */\n      swap3\n      pop\n        /* \"#utility.yul\":1172:1459   */\n      pop\n        /* \"#utility.yul\":1526:1528   */\n      0x20\n        /* \"#utility.yul\":1515:1524   */\n      dup4\n        /* \"#utility.yul\":1511:1529   */\n      add\n        /* \"#utility.yul\":1498:1530   */\n      calldataload\n        /* \"#utility.yul\":1557:1575   */\n      0xffffffffffffffff\n        /* \"#utility.yul\":1549:1555   */\n      dup2\n        /* \"#utility.yul\":1546:1576   */\n      gt\n        /* \"#utility.yul\":1543:1660   */\n      iszero\n      tag_149\n      jumpi\n        /* \"#utility.yul\":1579:1658   */\n      tag_150\n      tag_147\n      jump\t// in\n    tag_150:\n        /* \"#utility.yul\":1543:1660   */\n    tag_149:\n        /* \"#utility.yul\":1684:1747   */\n      tag_151\n        /* \"#utility.yul\":1739:1746   */\n      dup6\n        /* \"#utility.yul\":1730:1736   */\n      dup3\n        /* \"#utility.yul\":1719:1728   */\n      dup7\n        /* \"#utility.yul\":1715:1737   */\n      add\n        /* \"#utility.yul\":1684:1747   */\n      tag_131\n      jump\t// in\n    tag_151:\n        /* \"#utility.yul\":1674:1747   */\n      swap2\n      pop\n        /* \"#utility.yul\":1469:1757   */\n      pop\n        /* \"#utility.yul\":930:1764   */\n      swap3\n      pop\n      swap3\n      swap1\n      pop\n      jump\t// out\n        /* \"#utility.yul\":1770:2099   */\n    tag_15:\n        /* \"#utility.yul\":1829:1835   */\n      0x00\n        /* \"#utility.yul\":1878:1880   */\n      0x20\n        /* \"#utility.yul\":1866:1875   */\n      dup3\n        /* \"#utility.yul\":1857:1864   */\n      dup5\n        /* \"#utility.yul\":1853:1876   */\n      sub\n        /* \"#utility.yul\":1849:1881   */\n      slt\n        /* \"#utility.yul\":1846:1965   */\n      iszero\n      tag_153\n      jumpi\n        /* \"#utility.yul\":1884:1963   */\n      tag_154\n      tag_144\n      jump\t// in\n    tag_154:\n        /* \"#utility.yul\":1846:1965   */\n    tag_153:\n        /* \"#utility.yul\":2004:2005   */\n      0x00\n        /* \"#utility.yul\":2029:2082   */\n      tag_155\n        /* \"#utility.yul\":2074:2081   */\n      dup5\n        /* \"#utility.yul\":2065:2071   */\n      dup3\n        /* \"#utility.yul\":2054:2063   */\n      dup6\n        /* \"#utility.yul\":2050:2072   */\n      add\n        /* \"#utility.yul\":2029:2082   */\n      tag_137\n      jump\t// in\n    tag_155:\n        /* \"#utility.yul\":2019:2082   */\n      swap2\n      pop\n        /* \"#utility.yul\":1975:2092   */\n      pop\n        /* \"#utility.yul\":1770:2099   */\n      swap3\n      swap2\n      pop\n      pop\n      jump\t// out\n        /* \"#utility.yul\":2105:2759   */\n    tag_47:\n        /* \"#utility.yul\":2183:2189   */\n      0x00\n        /* \"#utility.yul\":2191:2197   */\n      dup1\n        /* \"#utility.yul\":2240:2242   */\n      0x40\n        /* \"#utility.yul\":2228:2237   */\n      dup4\n        /* \"#utility.yul\":2219:2226   */\n      dup6\n        /* \"#utility.yul\":2215:2238   */\n      sub\n        /* \"#utility.yul\":2211:2243   */\n      slt\n        /* \"#utility.yul\":2208:2327   */\n      iszero\n      tag_157\n      jumpi\n        /* \"#utility.yul\":2246:2325   */\n      tag_158\n      tag_144\n      jump\t// in\n    tag_158:\n        /* \"#utility.yul\":2208:2327   */\n    tag_157:\n        /* \"#utility.yul\":2366:2367   */\n      0x00\n        /* \"#utility.yul\":2391:2444   */\n      tag_159\n        /* \"#utility.yul\":2436:2443   */\n      dup6\n        /* \"#utility.yul\":2427:2433   */\n      dup3\n        /* \"#utility.yul\":2416:2425   */\n      dup7\n        /* \"#utility.yul\":2412:2434   */\n      add\n        /* \"#utility.yul\":2391:2444   */\n      tag_137\n      jump\t// in\n    tag_159:\n        /* \"#utility.yul\":2381:2444   */\n      swap3\n      pop\n        /* \"#utility.yul\":2337:2454   */\n      pop\n        /* \"#utility.yul\":2521:2523   */\n      0x20\n        /* \"#utility.yul\":2510:2519   */\n      dup4\n        /* \"#utility.yul\":2506:2524   */\n      add\n        /* \"#utility.yul\":2493:2525   */\n      calldataload\n        /* \"#utility.yul\":2552:2570   */\n      0xffffffffffffffff\n        /* \"#utility.yul\":2544:2550   */\n      dup2\n        /* \"#utility.yul\":2541:2571   */\n      gt\n        /* \"#utility.yul\":2538:2655   */\n      iszero\n      tag_160\n      jumpi\n        /* \"#utility.yul\":2574:2653   */\n      tag_161\n      tag_147\n      jump\t// in\n    tag_161:\n        /* \"#utility.yul\":2538:2655   */\n    tag_160:\n        /* \"#utility.yul\":2679:2742   */\n      tag_162\n        /* \"#utility.yul\":2734:2741   */\n      dup6\n        /* \"#utility.yul\":2725:2731   */\n      dup3\n        /* \"#utility.yul\":2714:2723   */\n      dup7\n        /* \"#utility.yul\":2710:2732   */\n      add\n        /* \"#utility.yul\":2679:2742   */\n      tag_131\n      jump\t// in\n    tag_162:\n        /* \"#utility.yul\":2669:2742   */\n      swap2\n      pop\n        /* \"#utility.yul\":2464:2752   */\n      pop\n        /* \"#utility.yul\":2105:2759   */\n      swap3\n      pop\n      swap3\n      swap1\n      pop\n      jump\t// out\n        /* \"#utility.yul\":2765:3564   */\n    tag_35:\n        /* \"#utility.yul\":2852:2858   */\n      0x00\n        /* \"#utility.yul\":2860:2866   */\n      dup1\n        /* \"#utility.yul\":2868:2874   */\n      0x00\n        /* \"#utility.yul\":2917:2919   */\n      0x60\n        /* \"#utility.yul\":2905:2914   */\n      dup5\n        /* \"#utility.yul\":2896:2903   */\n      dup7\n        /* \"#utility.yul\":2892:2915   */\n      sub\n        /* \"#utility.yul\":2888:2920   */\n      slt\n        /* \"#utility.yul\":2885:3004   */\n      iszero\n      tag_164\n      jumpi\n        /* \"#utility.yul\":2923:3002   */\n      tag_165\n      tag_144\n      jump\t// in\n    tag_165:\n        /* \"#utility.yul\":2885:3004   */\n    tag_164:\n        /* \"#utility.yul\":3043:3044   */\n      0x00\n        /* \"#utility.yul\":3068:3121   */\n      tag_166\n        /* \"#utility.yul\":3113:3120   */\n      dup7\n        /* \"#utility.yul\":3104:3110   */\n      dup3\n        /* \"#utility.yul\":3093:3102   */\n      dup8\n        /* \"#utility.yul\":3089:3111   */\n      add\n        /* \"#utility.yul\":3068:3121   */\n      tag_137\n      jump\t// in\n    tag_166:\n        /* \"#utility.yul\":3058:3121   */\n      swap4\n      pop\n        /* \"#utility.yul\":3014:3131   */\n      pop\n        /* \"#utility.yul\":3170:3172   */\n      0x20\n        /* \"#utility.yul\":3196:3249   */\n      tag_167\n        /* \"#utility.yul\":3241:3248   */\n      dup7\n        /* \"#utility.yul\":3232:3238   */\n      dup3\n        /* \"#utility.yul\":3221:3230   */\n      dup8\n        /* \"#utility.yul\":3217:3239   */\n      add\n        /* \"#utility.yul\":3196:3249   */\n      tag_137\n      jump\t// in\n    tag_167:\n        /* \"#utility.yul\":3186:3249   */\n      swap3\n      pop\n        /* \"#utility.yul\":3141:3259   */\n      pop\n        /* \"#utility.yul\":3326:3328   */\n      0x40\n        /* \"#utility.yul\":3315:3324   */\n      dup5\n        /* \"#utility.yul\":3311:3329   */\n      add\n        /* \"#utility.yul\":3298:3330   */\n      calldataload\n        /* \"#utility.yul\":3357:3375   */\n      0xffffffffffffffff\n        /* \"#utility.yul\":3349:3355   */\n      dup2\n        /* \"#utility.yul\":3346:3376   */\n      gt\n        /* \"#utility.yul\":3343:3460   */\n      iszero\n      tag_168\n      jumpi\n        /* \"#utility.yul\":3379:3458   */\n      tag_169\n      tag_147\n      jump\t// in\n    tag_169:\n        /* \"#utility.yul\":3343:3460   */\n    tag_168:\n        /* \"#utility.yul\":3484:3547   */\n      tag_170\n        /* \"#utility.yul\":3539:3546   */\n      dup7\n        /* \"#utility.yul\":3530:3536   */\n      dup3\n        /* \"#utility.yul\":3519:3528   */\n      dup8\n        /* \"#utility.yul\":3515:3537   */\n      add\n        /* \"#utility.yul\":3484:3547   */\n      tag_131\n      jump\t// in\n    tag_170:\n        /* \"#utility.yul\":3474:3547   */\n      swap2\n      pop\n        /* \"#utility.yul\":3269:3557   */\n      pop\n        /* \"#utility.yul\":2765:3564   */\n      swap3\n      pop\n      swap3\n      pop\n      swap3\n      jump\t// out\n        /* \"#utility.yul\":3570:3814   */\n    tag_171:\n        /* \"#utility.yul\":3683:3693   */\n      0x00\n        /* \"#utility.yul\":3718:3808   */\n      tag_173\n        /* \"#utility.yul\":3804:3807   */\n      dup4\n        /* \"#utility.yul\":3796:3802   */\n      dup4\n        /* \"#utility.yul\":3718:3808   */\n      tag_174\n      jump\t// in\n    tag_173:\n        /* \"#utility.yul\":3704:3808   */\n      swap1\n      pop\n        /* \"#utility.yul\":3570:3814   */\n      swap3\n      swap2\n      pop\n      pop\n      jump\t// out\n        /* \"#utility.yul\":3820:3938   */\n    tag_175:\n        /* \"#utility.yul\":3907:3931   */\n      tag_177\n        /* \"#utility.yul\":3925:3930   */\n      dup2\n        /* \"#utility.yul\":3907:3931   */\n      tag_178\n      jump\t// in\n    tag_177:\n        /* \"#utility.yul\":3902:3905   */\n      dup3\n        /* \"#utility.yul\":3895:3932   */\n      mstore\n        /* \"#utility.yul\":3820:3938   */\n      pop\n      pop\n      jump\t// out\n        /* \"#utility.yul\":4004:5091   */\n    tag_179:\n        /* \"#utility.yul\":4167:4170   */\n      0x00\n        /* \"#utility.yul\":4196:4272   */\n      tag_181\n        /* \"#utility.yul\":4266:4271   */\n      dup3\n        /* \"#utility.yul\":4196:4272   */\n      tag_182\n      jump\t// in\n    tag_181:\n        /* \"#utility.yul\":4288:4396   */\n      tag_183\n        /* \"#utility.yul\":4389:4395   */\n      dup2\n        /* \"#utility.yul\":4384:4387   */\n      dup6\n        /* \"#utility.yul\":4288:4396   */\n      tag_184\n      jump\t// in\n    tag_183:\n        /* \"#utility.yul\":4281:4396   */\n      swap4\n      pop\n        /* \"#utility.yul\":4422:4425   */\n      dup4\n        /* \"#utility.yul\":4467:4471   */\n      0x20\n        /* \"#utility.yul\":4459:4465   */\n      dup3\n        /* \"#utility.yul\":4455:4472   */\n      mul\n        /* \"#utility.yul\":4450:4453   */\n      dup6\n        /* \"#utility.yul\":4446:4473   */\n      add\n        /* \"#utility.yul\":4497:4575   */\n      tag_185\n        /* \"#utility.yul\":4569:4574   */\n      dup6\n        /* \"#utility.yul\":4497:4575   */\n      tag_186\n      jump\t// in\n    tag_185:\n        /* \"#utility.yul\":4598:4605   */\n      dup1\n        /* \"#utility.yul\":4629:4630   */\n      0x00\n        /* \"#utility.yul\":4614:5046   */\n    tag_187:\n        /* \"#utility.yul\":4639:4645   */\n      dup6\n        /* \"#utility.yul\":4636:4637   */\n      dup2\n        /* \"#utility.yul\":4633:4646   */\n      lt\n        /* \"#utility.yul\":4614:5046   */\n      iszero\n      tag_189\n      jumpi\n        /* \"#utility.yul\":4710:4719   */\n      dup5\n        /* \"#utility.yul\":4704:4708   */\n      dup5\n        /* \"#utility.yul\":4700:4720   */\n      sub\n        /* \"#utility.yul\":4695:4698   */\n      dup10\n        /* \"#utility.yul\":4688:4721   */\n      mstore\n        /* \"#utility.yul\":4761:4767   */\n      dup2\n        /* \"#utility.yul\":4755:4768   */\n      mload\n        /* \"#utility.yul\":4789:4897   */\n      tag_190\n        /* \"#utility.yul\":4892:4896   */\n      dup6\n        /* \"#utility.yul\":4877:4890   */\n      dup3\n        /* \"#utility.yul\":4789:4897   */\n      tag_171\n      jump\t// in\n    tag_190:\n        /* \"#utility.yul\":4781:4897   */\n      swap5\n      pop\n        /* \"#utility.yul\":4920:5002   */\n      tag_191\n        /* \"#utility.yul\":4995:5001   */\n      dup4\n        /* \"#utility.yul\":4920:5002   */\n      tag_192\n      jump\t// in\n    tag_191:\n        /* \"#utility.yul\":4910:5002   */\n      swap3\n      pop\n        /* \"#utility.yul\":5031:5035   */\n      0x20\n        /* \"#utility.yul\":5026:5029   */\n      dup11\n        /* \"#utility.yul\":5022:5036   */\n      add\n        /* \"#utility.yul\":5015:5036   */\n      swap10\n      pop\n        /* \"#utility.yul\":4674:5046   */\n      pop\n        /* \"#utility.yul\":4661:4662   */\n      0x01\n        /* \"#utility.yul\":4658:4659   */\n      dup2\n        /* \"#utility.yul\":4654:4663   */\n      add\n        /* \"#utility.yul\":4649:4663   */\n      swap1\n      pop\n        /* \"#utility.yul\":4614:5046   */\n      jump(tag_187)\n    tag_189:\n        /* \"#utility.yul\":4618:4632   */\n      pop\n        /* \"#utility.yul\":5062:5066   */\n      dup3\n        /* \"#utility.yul\":5055:5066   */\n      swap8\n      pop\n        /* \"#utility.yul\":5082:5085   */\n      dup8\n        /* \"#utility.yul\":5075:5085   */\n      swap6\n      pop\n        /* \"#utility.yul\":4172:5091   */\n      pop\n      pop\n      pop\n      pop\n      pop\n        /* \"#utility.yul\":4004:5091   */\n      swap3\n      swap2\n      pop\n      pop\n      jump\t// out\n        /* \"#utility.yul\":5097:5206   */\n    tag_193:\n        /* \"#utility.yul\":5178:5199   */\n      tag_195\n        /* \"#utility.yul\":5193:5198   */\n      dup2\n        /* \"#utility.yul\":5178:5199   */\n      tag_196\n      jump\t// in\n    tag_195:\n        /* \"#utility.yul\":5173:5176   */\n      dup3\n        /* \"#utility.yul\":5166:5200   */\n      mstore\n        /* \"#utility.yul\":5097:5206   */\n      pop\n      pop\n      jump\t// out\n        /* \"#utility.yul\":5212:5556   */\n    tag_197:\n        /* \"#utility.yul\":5290:5293   */\n      0x00\n        /* \"#utility.yul\":5318:5357   */\n      tag_199\n        /* \"#utility.yul\":5351:5356   */\n      dup3\n        /* \"#utility.yul\":5318:5357   */\n      tag_200\n      jump\t// in\n    tag_199:\n        /* \"#utility.yul\":5373:5434   */\n      tag_201\n        /* \"#utility.yul\":5427:5433   */\n      dup2\n        /* \"#utility.yul\":5422:5425   */\n      dup6\n        /* \"#utility.yul\":5373:5434   */\n      tag_202\n      jump\t// in\n    tag_201:\n        /* \"#utility.yul\":5366:5434   */\n      swap4\n      pop\n        /* \"#utility.yul\":5443:5495   */\n      tag_203\n        /* \"#utility.yul\":5488:5494   */\n      dup2\n        /* \"#utility.yul\":5483:5486   */\n      dup6\n        /* \"#utility.yul\":5476:5480   */\n      0x20\n        /* \"#utility.yul\":5469:5474   */\n      dup7\n        /* \"#utility.yul\":5465:5481   */\n      add\n        /* \"#utility.yul\":5443:5495   */\n      tag_204\n      jump\t// in\n    tag_203:\n        /* \"#utility.yul\":5520:5549   */\n      tag_205\n        /* \"#utility.yul\":5542:5548   */\n      dup2\n        /* \"#utility.yul\":5520:5549   */\n      tag_206\n      jump\t// in\n    tag_205:\n        /* \"#utility.yul\":5515:5518   */\n      dup5\n        /* \"#utility.yul\":5511:5550   */\n      add\n        /* \"#utility.yul\":5504:5550   */\n      swap2\n      pop\n        /* \"#utility.yul\":5294:5556   */\n      pop\n        /* \"#utility.yul\":5212:5556   */\n      swap3\n      swap2\n      pop\n      pop\n      jump\t// out\n        /* \"#utility.yul\":5562:5926   */\n    tag_207:\n        /* \"#utility.yul\":5650:5653   */\n      0x00\n        /* \"#utility.yul\":5678:5717   */\n      tag_209\n        /* \"#utility.yul\":5711:5716   */\n      dup3\n        /* \"#utility.yul\":5678:5717   */\n      tag_200\n      jump\t// in\n    tag_209:\n        /* \"#utility.yul\":5733:5804   */\n      tag_210\n        /* \"#utility.yul\":5797:5803   */\n      dup2\n        /* \"#utility.yul\":5792:5795   */\n      dup6\n        /* \"#utility.yul\":5733:5804   */\n      tag_211\n      jump\t// in\n    tag_210:\n        /* \"#utility.yul\":5726:5804   */\n      swap4\n      pop\n        /* \"#utility.yul\":5813:5865   */\n      tag_212\n        /* \"#utility.yul\":5858:5864   */\n      dup2\n        /* \"#utility.yul\":5853:5856   */\n      dup6\n        /* \"#utility.yul\":5846:5850   */\n      0x20\n        /* \"#utility.yul\":5839:5844   */\n      dup7\n        /* \"#utility.yul\":5835:5851   */\n      add\n        /* \"#utility.yul\":5813:5865   */\n      tag_204\n      jump\t// in\n    tag_212:\n        /* \"#utility.yul\":5890:5919   */\n      tag_213\n        /* \"#utility.yul\":5912:5918   */\n      dup2\n        /* \"#utility.yul\":5890:5919   */\n      tag_206\n      jump\t// in\n    tag_213:\n        /* \"#utility.yul\":5885:5888   */\n      dup5\n        /* \"#utility.yul\":5881:5920   */\n      add\n        /* \"#utility.yul\":5874:5920   */\n      swap2\n      pop\n        /* \"#utility.yul\":5654:5926   */\n      pop\n        /* \"#utility.yul\":5562:5926   */\n      swap3\n      swap2\n      pop\n      pop\n      jump\t// out\n        /* \"#utility.yul\":5988:6584   */\n    tag_174:\n        /* \"#utility.yul\":6091:6094   */\n      0x00\n        /* \"#utility.yul\":6127:6131   */\n      0x40\n        /* \"#utility.yul\":6122:6125   */\n      dup4\n        /* \"#utility.yul\":6118:6132   */\n      add\n        /* \"#utility.yul\":6214:6218   */\n      0x00\n        /* \"#utility.yul\":6207:6212   */\n      dup4\n        /* \"#utility.yul\":6203:6219   */\n      add\n        /* \"#utility.yul\":6197:6220   */\n      mload\n        /* \"#utility.yul\":6267:6270   */\n      dup5\n        /* \"#utility.yul\":6261:6265   */\n      dup3\n        /* \"#utility.yul\":6257:6271   */\n      sub\n        /* \"#utility.yul\":6250:6254   */\n      0x00\n        /* \"#utility.yul\":6245:6248   */\n      dup7\n        /* \"#utility.yul\":6241:6255   */\n      add\n        /* \"#utility.yul\":6234:6272   */\n      mstore\n        /* \"#utility.yul\":6293:6366   */\n      tag_215\n        /* \"#utility.yul\":6361:6365   */\n      dup3\n        /* \"#utility.yul\":6347:6359   */\n      dup3\n        /* \"#utility.yul\":6293:6366   */\n      tag_197\n      jump\t// in\n    tag_215:\n        /* \"#utility.yul\":6285:6366   */\n      swap2\n      pop\n        /* \"#utility.yul\":6142:6377   */\n      pop\n        /* \"#utility.yul\":6465:6469   */\n      0x20\n        /* \"#utility.yul\":6458:6463   */\n      dup4\n        /* \"#utility.yul\":6454:6470   */\n      add\n        /* \"#utility.yul\":6448:6471   */\n      mload\n        /* \"#utility.yul\":6484:6547   */\n      tag_216\n        /* \"#utility.yul\":6541:6545   */\n      0x20\n        /* \"#utility.yul\":6536:6539   */\n      dup7\n        /* \"#utility.yul\":6532:6546   */\n      add\n        /* \"#utility.yul\":6518:6530   */\n      dup3\n        /* \"#utility.yul\":6484:6547   */\n      tag_217\n      jump\t// in\n    tag_216:\n        /* \"#utility.yul\":6387:6557   */\n      pop\n        /* \"#utility.yul\":6574:6578   */\n      dup1\n        /* \"#utility.yul\":6567:6578   */\n      swap2\n      pop\n        /* \"#utility.yul\":6096:6584   */\n      pop\n        /* \"#utility.yul\":5988:6584   */\n      swap3\n      swap2\n      pop\n      pop\n      jump\t// out\n        /* \"#utility.yul\":6590:6698   */\n    tag_217:\n        /* \"#utility.yul\":6667:6691   */\n      tag_219\n        /* \"#utility.yul\":6685:6690   */\n      dup2\n        /* \"#utility.yul\":6667:6691   */\n      tag_220\n      jump\t// in\n    tag_219:\n        /* \"#utility.yul\":6662:6665   */\n      dup3\n        /* \"#utility.yul\":6655:6692   */\n      mstore\n        /* \"#utility.yul\":6590:6698   */\n      pop\n      pop\n      jump\t// out\n        /* \"#utility.yul\":6704:6822   */\n    tag_221:\n        /* \"#utility.yul\":6791:6815   */\n      tag_223\n        /* \"#utility.yul\":6809:6814   */\n      dup2\n        /* \"#utility.yul\":6791:6815   */\n      tag_220\n      jump\t// in\n    tag_223:\n        /* \"#utility.yul\":6786:6789   */\n      dup3\n        /* \"#utility.yul\":6779:6816   */\n      mstore\n        /* \"#utility.yul\":6704:6822   */\n      pop\n      pop\n      jump\t// out\n        /* \"#utility.yul\":6828:7289   */\n    tag_28:\n        /* \"#utility.yul\":7015:7019   */\n      0x00\n        /* \"#utility.yul\":7053:7055   */\n      0x20\n        /* \"#utility.yul\":7042:7051   */\n      dup3\n        /* \"#utility.yul\":7038:7056   */\n      add\n        /* \"#utility.yul\":7030:7056   */\n      swap1\n      pop\n        /* \"#utility.yul\":7102:7111   */\n      dup2\n        /* \"#utility.yul\":7096:7100   */\n      dup2\n        /* \"#utility.yul\":7092:7112   */\n      sub\n        /* \"#utility.yul\":7088:7089   */\n      0x00\n        /* \"#utility.yul\":7077:7086   */\n      dup4\n        /* \"#utility.yul\":7073:7090   */\n      add\n        /* \"#utility.yul\":7066:7113   */\n      mstore\n        /* \"#utility.yul\":7130:7282   */\n      tag_225\n        /* \"#utility.yul\":7277:7281   */\n      dup2\n        /* \"#utility.yul\":7268:7274   */\n      dup5\n        /* \"#utility.yul\":7130:7282   */\n      tag_179\n      jump\t// in\n    tag_225:\n        /* \"#utility.yul\":7122:7282   */\n      swap1\n      pop\n        /* \"#utility.yul\":6828:7289   */\n      swap3\n      swap2\n      pop\n      pop\n      jump\t// out\n        /* \"#utility.yul\":7295:8351   */\n    tag_44:\n        /* \"#utility.yul\":7590:7594   */\n      0x00\n        /* \"#utility.yul\":7628:7631   */\n      0xe0\n        /* \"#utility.yul\":7617:7626   */\n      dup3\n        /* \"#utility.yul\":7613:7632   */\n      add\n        /* \"#utility.yul\":7605:7632   */\n      swap1\n      pop\n        /* \"#utility.yul\":7678:7687   */\n      dup2\n        /* \"#utility.yul\":7672:7676   */\n      dup2\n        /* \"#utility.yul\":7668:7688   */\n      sub\n        /* \"#utility.yul\":7664:7665   */\n      0x00\n        /* \"#utility.yul\":7653:7662   */\n      dup4\n        /* \"#utility.yul\":7649:7666   */\n      add\n        /* \"#utility.yul\":7642:7689   */\n      mstore\n        /* \"#utility.yul\":7706:7784   */\n      tag_227\n        /* \"#utility.yul\":7779:7783   */\n      dup2\n        /* \"#utility.yul\":7770:7776   */\n      dup11\n        /* \"#utility.yul\":7706:7784   */\n      tag_207\n      jump\t// in\n    tag_227:\n        /* \"#utility.yul\":7698:7784   */\n      swap1\n      pop\n        /* \"#utility.yul\":7831:7840   */\n      dup2\n        /* \"#utility.yul\":7825:7829   */\n      dup2\n        /* \"#utility.yul\":7821:7841   */\n      sub\n        /* \"#utility.yul\":7816:7818   */\n      0x20\n        /* \"#utility.yul\":7805:7814   */\n      dup4\n        /* \"#utility.yul\":7801:7819   */\n      add\n        /* \"#utility.yul\":7794:7842   */\n      mstore\n        /* \"#utility.yul\":7859:7937   */\n      tag_228\n        /* \"#utility.yul\":7932:7936   */\n      dup2\n        /* \"#utility.yul\":7923:7929   */\n      dup10\n        /* \"#utility.yul\":7859:7937   */\n      tag_207\n      jump\t// in\n    tag_228:\n        /* \"#utility.yul\":7851:7937   */\n      swap1\n      pop\n        /* \"#utility.yul\":7947:8019   */\n      tag_229\n        /* \"#utility.yul\":8015:8017   */\n      0x40\n        /* \"#utility.yul\":8004:8013   */\n      dup4\n        /* \"#utility.yul\":8000:8018   */\n      add\n        /* \"#utility.yul\":7991:7997   */\n      dup9\n        /* \"#utility.yul\":7947:8019   */\n      tag_221\n      jump\t// in\n    tag_229:\n        /* \"#utility.yul\":8029:8101   */\n      tag_230\n        /* \"#utility.yul\":8097:8099   */\n      0x60\n        /* \"#utility.yul\":8086:8095   */\n      dup4\n        /* \"#utility.yul\":8082:8100   */\n      add\n        /* \"#utility.yul\":8073:8079   */\n      dup8\n        /* \"#utility.yul\":8029:8101   */\n      tag_175\n      jump\t// in\n    tag_230:\n        /* \"#utility.yul\":8111:8184   */\n      tag_231\n        /* \"#utility.yul\":8179:8182   */\n      0x80\n        /* \"#utility.yul\":8168:8177   */\n      dup4\n        /* \"#utility.yul\":8164:8183   */\n      add\n        /* \"#utility.yul\":8155:8161   */\n      dup7\n        /* \"#utility.yul\":8111:8184   */\n      tag_221\n      jump\t// in\n    tag_231:\n        /* \"#utility.yul\":8194:8261   */\n      tag_232\n        /* \"#utility.yul\":8256:8259   */\n      0xa0\n        /* \"#utility.yul\":8245:8254   */\n      dup4\n        /* \"#utility.yul\":8241:8260   */\n      add\n        /* \"#utility.yul\":8232:8238   */\n      dup6\n        /* \"#utility.yul\":8194:8261   */\n      tag_193\n      jump\t// in\n    tag_232:\n        /* \"#utility.yul\":8271:8344   */\n      tag_233\n        /* \"#utility.yul\":8339:8342   */\n      0xc0\n        /* \"#utility.yul\":8328:8337   */\n      dup4\n        /* \"#utility.yul\":8324:8343   */\n      add\n        /* \"#utility.yul\":8315:8321   */\n      dup5\n        /* \"#utility.yul\":8271:8344   */\n      tag_221\n      jump\t// in\n    tag_233:\n        /* \"#utility.yul\":7295:8351   */\n      swap9\n      swap8\n      pop\n      pop\n      pop\n      pop\n      pop\n      pop\n      pop\n      pop\n      jump\t// out\n        /* \"#utility.yul\":8357:8579   */\n    tag_18:\n        /* \"#utility.yul\":8450:8454   */\n      0x00\n        /* \"#utility.yul\":8488:8490   */\n      0x20\n        /* \"#utility.yul\":8477:8486   */\n      dup3\n        /* \"#utility.yul\":8473:8491   */\n      add\n        /* \"#utility.yul\":8465:8491   */\n      swap1\n      pop\n        /* \"#utility.yul\":8501:8572   */\n      tag_235\n        /* \"#utility.yul\":8569:8570   */\n      0x00\n        /* \"#utility.yul\":8558:8567   */\n      dup4\n        /* \"#utility.yul\":8554:8571   */\n      add\n        /* \"#utility.yul\":8545:8551   */\n      dup5\n        /* \"#utility.yul\":8501:8572   */\n      tag_221\n      jump\t// in\n    tag_235:\n        /* \"#utility.yul\":8357:8579   */\n      swap3\n      swap2\n      pop\n      pop\n      jump\t// out\n        /* \"#utility.yul\":8585:8714   */\n    tag_125:\n        /* \"#utility.yul\":8619:8625   */\n      0x00\n        /* \"#utility.yul\":8646:8666   */\n      tag_237\n      tag_238\n      jump\t// in\n    tag_237:\n        /* \"#utility.yul\":8636:8666   */\n      swap1\n      pop\n        /* \"#utility.yul\":8675:8708   */\n      tag_239\n        /* \"#utility.yul\":8703:8707   */\n      dup3\n        /* \"#utility.yul\":8695:8701   */\n      dup3\n        /* \"#utility.yul\":8675:8708   */\n      tag_240\n      jump\t// in\n    tag_239:\n        /* \"#utility.yul\":8585:8714   */\n      swap2\n      swap1\n      pop\n      jump\t// out\n        /* \"#utility.yul\":8720:8795   */\n    tag_238:\n        /* \"#utility.yul\":8753:8759   */\n      0x00\n        /* \"#utility.yul\":8786:8788   */\n      0x40\n        /* \"#utility.yul\":8780:8789   */\n      mload\n        /* \"#utility.yul\":8770:8789   */\n      swap1\n      pop\n        /* \"#utility.yul\":8720:8795   */\n      swap1\n      jump\t// out\n        /* \"#utility.yul\":8801:9109   */\n    tag_124:\n        /* \"#utility.yul\":8863:8867   */\n      0x00\n        /* \"#utility.yul\":8953:8971   */\n      0xffffffffffffffff\n        /* \"#utility.yul\":8945:8951   */\n      dup3\n        /* \"#utility.yul\":8942:8972   */\n      gt\n        /* \"#utility.yul\":8939:8995   */\n      iszero\n      tag_243\n      jumpi\n        /* \"#utility.yul\":8975:8993   */\n      tag_244\n      tag_65\n      jump\t// in\n    tag_244:\n        /* \"#utility.yul\":8939:8995   */\n    tag_243:\n        /* \"#utility.yul\":9013:9042   */\n      tag_245\n        /* \"#utility.yul\":9035:9041   */\n      dup3\n        /* \"#utility.yul\":9013:9042   */\n      tag_206\n      jump\t// in\n    tag_245:\n        /* \"#utility.yul\":9005:9042   */\n      swap1\n      pop\n        /* \"#utility.yul\":9097:9101   */\n      0x20\n        /* \"#utility.yul\":9091:9095   */\n      dup2\n        /* \"#utility.yul\":9087:9102   */\n      add\n        /* \"#utility.yul\":9079:9102   */\n      swap1\n      pop\n        /* \"#utility.yul\":8801:9109   */\n      swap2\n      swap1\n      pop\n      jump\t// out\n        /* \"#utility.yul\":9115:9269   */\n    tag_186:\n        /* \"#utility.yul\":9204:9208   */\n      0x00\n        /* \"#utility.yul\":9227:9230   */\n      dup2\n        /* \"#utility.yul\":9219:9230   */\n      swap1\n      pop\n        /* \"#utility.yul\":9257:9261   */\n      0x20\n        /* \"#utility.yul\":9252:9255   */\n      dup3\n        /* \"#utility.yul\":9248:9262   */\n      add\n        /* \"#utility.yul\":9240:9262   */\n      swap1\n      pop\n        /* \"#utility.yul\":9115:9269   */\n      swap2\n      swap1\n      pop\n      jump\t// out\n        /* \"#utility.yul\":9275:9411   */\n    tag_182:\n        /* \"#utility.yul\":9364:9370   */\n      0x00\n        /* \"#utility.yul\":9398:9403   */\n      dup2\n        /* \"#utility.yul\":9392:9404   */\n      mload\n        /* \"#utility.yul\":9382:9404   */\n      swap1\n      pop\n        /* \"#utility.yul\":9275:9411   */\n      swap2\n      swap1\n      pop\n      jump\t// out\n        /* \"#utility.yul\":9417:9516   */\n    tag_200:\n        /* \"#utility.yul\":9469:9475   */\n      0x00\n        /* \"#utility.yul\":9503:9508   */\n      dup2\n        /* \"#utility.yul\":9497:9509   */\n      mload\n        /* \"#utility.yul\":9487:9509   */\n      swap1\n      pop\n        /* \"#utility.yul\":9417:9516   */\n      swap2\n      swap1\n      pop\n      jump\t// out\n        /* \"#utility.yul\":9522:9657   */\n    tag_192:\n        /* \"#utility.yul\":9614:9618   */\n      0x00\n        /* \"#utility.yul\":9646:9650   */\n      0x20\n        /* \"#utility.yul\":9641:9644   */\n      dup3\n        /* \"#utility.yul\":9637:9651   */\n      add\n        /* \"#utility.yul\":9629:9651   */\n      swap1\n      pop\n        /* \"#utility.yul\":9522:9657   */\n      swap2\n      swap1\n      pop\n      jump\t// out\n        /* \"#utility.yul\":9663:9869   */\n    tag_184:\n        /* \"#utility.yul\":9784:9795   */\n      0x00\n        /* \"#utility.yul\":9818:9824   */\n      dup3\n        /* \"#utility.yul\":9813:9816   */\n      dup3\n        /* \"#utility.yul\":9806:9825   */\n      mstore\n        /* \"#utility.yul\":9858:9862   */\n      0x20\n        /* \"#utility.yul\":9853:9856   */\n      dup3\n        /* \"#utility.yul\":9849:9863   */\n      add\n        /* \"#utility.yul\":9834:9863   */\n      swap1\n      pop\n        /* \"#utility.yul\":9663:9869   */\n      swap3\n      swap2\n      pop\n      pop\n      jump\t// out\n        /* \"#utility.yul\":9875:10034   */\n    tag_202:\n        /* \"#utility.yul\":9949:9960   */\n      0x00\n        /* \"#utility.yul\":9983:9989   */\n      dup3\n        /* \"#utility.yul\":9978:9981   */\n      dup3\n        /* \"#utility.yul\":9971:9990   */\n      mstore\n        /* \"#utility.yul\":10023:10027   */\n      0x20\n        /* \"#utility.yul\":10018:10021   */\n      dup3\n        /* \"#utility.yul\":10014:10028   */\n      add\n        /* \"#utility.yul\":9999:10028   */\n      swap1\n      pop\n        /* \"#utility.yul\":9875:10034   */\n      swap3\n      swap2\n      pop\n      pop\n      jump\t// out\n        /* \"#utility.yul\":10040:10209   */\n    tag_211:\n        /* \"#utility.yul\":10124:10135   */\n      0x00\n        /* \"#utility.yul\":10158:10164   */\n      dup3\n        /* \"#utility.yul\":10153:10156   */\n      dup3\n        /* \"#utility.yul\":10146:10165   */\n      mstore\n        /* \"#utility.yul\":10198:10202   */\n      0x20\n        /* \"#utility.yul\":10193:10196   */\n      dup3\n        /* \"#utility.yul\":10189:10203   */\n      add\n        /* \"#utility.yul\":10174:10203   */\n      swap1\n      pop\n        /* \"#utility.yul\":10040:10209   */\n      swap3\n      swap2\n      pop\n      pop\n      jump\t// out\n        /* \"#utility.yul\":10215:10406   */\n    tag_60:\n        /* \"#utility.yul\":10255:10259   */\n      0x00\n        /* \"#utility.yul\":10275:10295   */\n      tag_254\n        /* \"#utility.yul\":10293:10294   */\n      dup3\n        /* \"#utility.yul\":10275:10295   */\n      tag_220\n      jump\t// in\n    tag_254:\n        /* \"#utility.yul\":10270:10295   */\n      swap2\n      pop\n        /* \"#utility.yul\":10309:10329   */\n      tag_255\n        /* \"#utility.yul\":10327:10328   */\n      dup4\n        /* \"#utility.yul\":10309:10329   */\n      tag_220\n      jump\t// in\n    tag_255:\n        /* \"#utility.yul\":10304:10329   */\n      swap3\n      pop\n        /* \"#utility.yul\":10348:10349   */\n      dup3\n        /* \"#utility.yul\":10345:10346   */\n      dup3\n        /* \"#utility.yul\":10342:10350   */\n      lt\n        /* \"#utility.yul\":10339:10373   */\n      iszero\n      tag_256\n      jumpi\n        /* \"#utility.yul\":10353:10371   */\n      tag_257\n      tag_258\n      jump\t// in\n    tag_257:\n        /* \"#utility.yul\":10339:10373   */\n    tag_256:\n        /* \"#utility.yul\":10398:10399   */\n      dup3\n        /* \"#utility.yul\":10395:10396   */\n      dup3\n        /* \"#utility.yul\":10391:10400   */\n      sub\n        /* \"#utility.yul\":10383:10400   */\n      swap1\n      pop\n        /* \"#utility.yul\":10215:10406   */\n      swap3\n      swap2\n      pop\n      pop\n      jump\t// out\n        /* \"#utility.yul\":10412:10508   */\n    tag_178:\n        /* \"#utility.yul\":10449:10456   */\n      0x00\n        /* \"#utility.yul\":10478:10502   */\n      tag_260\n        /* \"#utility.yul\":10496:10501   */\n      dup3\n        /* \"#utility.yul\":10478:10502   */\n      tag_261\n      jump\t// in\n    tag_260:\n        /* \"#utility.yul\":10467:10502   */\n      swap1\n      pop\n        /* \"#utility.yul\":10412:10508   */\n      swap2\n      swap1\n      pop\n      jump\t// out\n        /* \"#utility.yul\":10514:10604   */\n    tag_196:\n        /* \"#utility.yul\":10548:10555   */\n      0x00\n        /* \"#utility.yul\":10591:10596   */\n      dup2\n        /* \"#utility.yul\":10584:10597   */\n      iszero\n        /* \"#utility.yul\":10577:10598   */\n      iszero\n        /* \"#utility.yul\":10566:10598   */\n      swap1\n      pop\n        /* \"#utility.yul\":10514:10604   */\n      swap2\n      swap1\n      pop\n      jump\t// out\n        /* \"#utility.yul\":10610:10736   */\n    tag_261:\n        /* \"#utility.yul\":10647:10654   */\n      0x00\n        /* \"#utility.yul\":10687:10729   */\n      0xffffffffffffffffffffffffffffffffffffffff\n        /* \"#utility.yul\":10680:10685   */\n      dup3\n        /* \"#utility.yul\":10676:10730   */\n      and\n        /* \"#utility.yul\":10665:10730   */\n      swap1\n      pop\n        /* \"#utility.yul\":10610:10736   */\n      swap2\n      swap1\n      pop\n      jump\t// out\n        /* \"#utility.yul\":10742:10819   */\n    tag_220:\n        /* \"#utility.yul\":10779:10786   */\n      0x00\n        /* \"#utility.yul\":10808:10813   */\n      dup2\n        /* \"#utility.yul\":10797:10813   */\n      swap1\n      pop\n        /* \"#utility.yul\":10742:10819   */\n      swap2\n      swap1\n      pop\n      jump\t// out\n        /* \"#utility.yul\":10825:10979   */\n    tag_130:\n        /* \"#utility.yul\":10909:10915   */\n      dup3\n        /* \"#utility.yul\":10904:10907   */\n      dup2\n        /* \"#utility.yul\":10899:10902   */\n      dup4\n        /* \"#utility.yul\":10886:10916   */\n      calldatacopy\n        /* \"#utility.yul\":10971:10972   */\n      0x00\n        /* \"#utility.yul\":10962:10968   */\n      dup4\n        /* \"#utility.yul\":10957:10960   */\n      dup4\n        /* \"#utility.yul\":10953:10969   */\n      add\n        /* \"#utility.yul\":10946:10973   */\n      mstore\n        /* \"#utility.yul\":10825:10979   */\n      pop\n      pop\n      pop\n      jump\t// out\n        /* \"#utility.yul\":10985:11292   */\n    tag_204:\n        /* \"#utility.yul\":11053:11054   */\n      0x00\n        /* \"#utility.yul\":11063:11176   */\n    tag_267:\n        /* \"#utility.yul\":11077:11083   */\n      dup4\n        /* \"#utility.yul\":11074:11075   */\n      dup2\n        /* \"#utility.yul\":11071:11084   */\n      lt\n        /* \"#utility.yul\":11063:11176   */\n      iszero\n      tag_269\n      jumpi\n        /* \"#utility.yul\":11162:11163   */\n      dup1\n        /* \"#utility.yul\":11157:11160   */\n      dup3\n        /* \"#utility.yul\":11153:11164   */\n      add\n        /* \"#utility.yul\":11147:11165   */\n      mload\n        /* \"#utility.yul\":11143:11144   */\n      dup2\n        /* \"#utility.yul\":11138:11141   */\n      dup5\n        /* \"#utility.yul\":11134:11145   */\n      add\n        /* \"#utility.yul\":11127:11166   */\n      mstore\n        /* \"#utility.yul\":11099:11101   */\n      0x20\n        /* \"#utility.yul\":11096:11097   */\n      dup2\n        /* \"#utility.yul\":11092:11102   */\n      add\n        /* \"#utility.yul\":11087:11102   */\n      swap1\n      pop\n        /* \"#utility.yul\":11063:11176   */\n      jump(tag_267)\n    tag_269:\n        /* \"#utility.yul\":11194:11200   */\n      dup4\n        /* \"#utility.yul\":11191:11192   */\n      dup2\n        /* \"#utility.yul\":11188:11201   */\n      gt\n        /* \"#utility.yul\":11185:11286   */\n      iszero\n      tag_270\n      jumpi\n        /* \"#utility.yul\":11274:11275   */\n      0x00\n        /* \"#utility.yul\":11265:11271   */\n      dup5\n        /* \"#utility.yul\":11260:11263   */\n      dup5\n        /* \"#utility.yul\":11256:11272   */\n      add\n        /* \"#utility.yul\":11249:11276   */\n      mstore\n        /* \"#utility.yul\":11185:11286   */\n    tag_270:\n        /* \"#utility.yul\":11034:11292   */\n      pop\n        /* \"#utility.yul\":10985:11292   */\n      pop\n      pop\n      pop\n      jump\t// out\n        /* \"#utility.yul\":11298:11618   */\n    tag_74:\n        /* \"#utility.yul\":11342:11348   */\n      0x00\n        /* \"#utility.yul\":11379:11380   */\n      0x02\n        /* \"#utility.yul\":11373:11377   */\n      dup3\n        /* \"#utility.yul\":11369:11381   */\n      div\n        /* \"#utility.yul\":11359:11381   */\n      swap1\n      pop\n        /* \"#utility.yul\":11426:11427   */\n      0x01\n        /* \"#utility.yul\":11420:11424   */\n      dup3\n        /* \"#utility.yul\":11416:11428   */\n      and\n        /* \"#utility.yul\":11447:11465   */\n      dup1\n        /* \"#utility.yul\":11437:11518   */\n      tag_272\n      jumpi\n        /* \"#utility.yul\":11503:11507   */\n      0x7f\n        /* \"#utility.yul\":11495:11501   */\n      dup3\n        /* \"#utility.yul\":11491:11508   */\n      and\n        /* \"#utility.yul\":11481:11508   */\n      swap2\n      pop\n        /* \"#utility.yul\":11437:11518   */\n    tag_272:\n        /* \"#utility.yul\":11565:11567   */\n      0x20\n        /* \"#utility.yul\":11557:11563   */\n      dup3\n        /* \"#utility.yul\":11554:11568   */\n      lt\n        /* \"#utility.yul\":11534:11552   */\n      dup2\n        /* \"#utility.yul\":11531:11569   */\n      eq\n        /* \"#utility.yul\":11528:11612   */\n      iszero\n      tag_273\n      jumpi\n        /* \"#utility.yul\":11584:11602   */\n      tag_274\n      tag_275\n      jump\t// in\n    tag_274:\n        /* \"#utility.yul\":11528:11612   */\n    tag_273:\n        /* \"#utility.yul\":11349:11618   */\n      pop\n        /* \"#utility.yul\":11298:11618   */\n      swap2\n      swap1\n      pop\n      jump\t// out\n        /* \"#utility.yul\":11624:11905   */\n    tag_240:\n        /* \"#utility.yul\":11707:11734   */\n      tag_277\n        /* \"#utility.yul\":11729:11733   */\n      dup3\n        /* \"#utility.yul\":11707:11734   */\n      tag_206\n      jump\t// in\n    tag_277:\n        /* \"#utility.yul\":11699:11705   */\n      dup2\n        /* \"#utility.yul\":11695:11735   */\n      add\n        /* \"#utility.yul\":11837:11843   */\n      dup2\n        /* \"#utility.yul\":11825:11835   */\n      dup2\n        /* \"#utility.yul\":11822:11844   */\n      lt\n        /* \"#utility.yul\":11801:11819   */\n      0xffffffffffffffff\n        /* \"#utility.yul\":11789:11799   */\n      dup3\n        /* \"#utility.yul\":11786:11820   */\n      gt\n        /* \"#utility.yul\":11783:11845   */\n      or\n        /* \"#utility.yul\":11780:11868   */\n      iszero\n      tag_278\n      jumpi\n        /* \"#utility.yul\":11848:11866   */\n      tag_279\n      tag_65\n      jump\t// in\n    tag_279:\n        /* \"#utility.yul\":11780:11868   */\n    tag_278:\n        /* \"#utility.yul\":11888:11898   */\n      dup1\n        /* \"#utility.yul\":11884:11886   */\n      0x40\n        /* \"#utility.yul\":11877:11899   */\n      mstore\n        /* \"#utility.yul\":11667:11905   */\n      pop\n        /* \"#utility.yul\":11624:11905   */\n      pop\n      pop\n      jump\t// out\n        /* \"#utility.yul\":11911:12144   */\n    tag_55:\n        /* \"#utility.yul\":11950:11953   */\n      0x00\n        /* \"#utility.yul\":11973:11997   */\n      tag_281\n        /* \"#utility.yul\":11991:11996   */\n      dup3\n        /* \"#utility.yul\":11973:11997   */\n      tag_220\n      jump\t// in\n    tag_281:\n        /* \"#utility.yul\":11964:11997   */\n      swap2\n      pop\n        /* \"#utility.yul\":12019:12085   */\n      0xffffffffffffffffffffffffffffffffffffffffffffffffffffffffffffffff\n        /* \"#utility.yul\":12012:12017   */\n      dup3\n        /* \"#utility.yul\":12009:12086   */\n      eq\n        /* \"#utility.yul\":12006:12109   */\n      iszero\n      tag_282\n      jumpi\n        /* \"#utility.yul\":12089:12107   */\n      tag_283\n      tag_258\n      jump\t// in\n    tag_283:\n        /* \"#utility.yul\":12006:12109   */\n    tag_282:\n        /* \"#utility.yul\":12136:12137   */\n      0x01\n        /* \"#utility.yul\":12129:12134   */\n      dup3\n        /* \"#utility.yul\":12125:12138   */\n      add\n        /* \"#utility.yul\":12118:12138   */\n      swap1\n      pop\n        /* \"#utility.yul\":11911:12144   */\n      swap2\n      swap1\n      pop\n      jump\t// out\n        /* \"#utility.yul\":12150:12330   */\n    tag_258:\n        /* \"#utility.yul\":12198:12275   */\n      0x4e487b7100000000000000000000000000000000000000000000000000000000\n        /* \"#utility.yul\":12195:12196   */\n      0x00\n        /* \"#utility.yul\":12188:12276   */\n      mstore\n        /* \"#utility.yul\":12295:12299   */\n      0x11\n        /* \"#utility.yul\":12292:12293   */\n      0x04\n        /* \"#utility.yul\":12285:12300   */\n      mstore\n        /* \"#utility.yul\":12319:12323   */\n      0x24\n        /* \"#utility.yul\":12316:12317   */\n      0x00\n        /* \"#utility.yul\":12309:12324   */\n      revert\n        /* \"#utility.yul\":12336:12516   */\n    tag_275:\n        /* \"#utility.yul\":12384:12461   */\n      0x4e487b7100000000000000000000000000000000000000000000000000000000\n        /* \"#utility.yul\":12381:12382   */\n      0x00\n        /* \"#utility.yul\":12374:12462   */\n      mstore\n        /* \"#utility.yul\":12481:12485   */\n      0x22\n        /* \"#utility.yul\":12478:12479   */\n      0x04\n        /* \"#utility.yul\":12471:12486   */\n      mstore\n        /* \"#utility.yul\":12505:12509   */\n      0x24\n        /* \"#utility.yul\":12502:12503   */\n      0x00\n        /* \"#utility.yul\":12495:12510   */\n      revert\n        /* \"#utility.yul\":12522:12702   */\n    tag_81:\n        /* \"#utility.yul\":12570:12647   */\n      0x4e487b7100000000000000000000000000000000000000000000000000000000\n        /* \"#utility.yul\":12567:12568   */\n      0x00\n        /* \"#utility.yul\":12560:12648   */\n      mstore\n        /* \"#utility.yul\":12667:12671   */\n      0x32\n        /* \"#utility.yul\":12664:12665   */\n      0x04\n        /* \"#utility.yul\":12657:12672   */\n      mstore\n        /* \"#utility.yul\":12691:12695   */\n      0x24\n        /* \"#utility.yul\":12688:12689   */\n      0x00\n        /* \"#utility.yul\":12681:12696   */\n      revert\n        /* \"#utility.yul\":12708:12888   */\n    tag_65:\n        /* \"#utility.yul\":12756:12833   */\n      0x4e487b7100000000000000000000000000000000000000000000000000000000\n        /* \"#utility.yul\":12753:12754   */\n      0x00\n        /* \"#utility.yul\":12746:12834   */\n      mstore\n        /* \"#utility.yul\":12853:12857   */\n      0x41\n        /* \"#utility.yul\":12850:12851   */\n      0x04\n        /* \"#utility.yul\":12843:12858   */\n      mstore\n        /* \"#utility.yul\":12877:12881   */\n      0x24\n        /* \"#utility.yul\":12874:12875   */\n      0x00\n        /* \"#utility.yul\":12867:12882   */\n      revert\n        /* \"#utility.yul\":12894:13011   */\n    tag_135:\n        /* \"#utility.yul\":13003:13004   */\n      0x00\n        /* \"#utility.yul\":13000:13001   */\n      dup1\n        /* \"#utility.yul\":12993:13005   */\n      revert\n        /* \"#utility.yul\":13017:13134   */\n    tag_128:\n        /* \"#utility.yul\":13126:13127   */\n      0x00\n        /* \"#utility.yul\":13123:13124   */\n      dup1\n        /* \"#utility.yul\":13116:13128   */\n      revert\n        /* \"#utility.yul\":13140:13257   */\n    tag_147:\n        /* \"#utility.yul\":13249:13250   */\n      0x00\n        /* \"#utility.yul\":13246:13247   */\n      dup1\n        /* \"#utility.yul\":13239:13251   */\n      revert\n        /* \"#utility.yul\":13263:13380   */\n    tag_144:\n        /* \"#utility.yul\":13372:13373   */\n      0x00\n        /* \"#utility.yul\":13369:13370   */\n      dup1\n        /* \"#utility.yul\":13362:13374   */\n      revert\n        /* \"#utility.yul\":13386:13488   */\n    tag_206:\n        /* \"#utility.yul\":13427:13433   */\n      0x00\n        /* \"#utility.yul\":13478:13480   */\n      0x1f\n        /* \"#utility.yul\":13474:13481   */\n      not\n        /* \"#utility.yul\":13469:13471   */\n      0x1f\n        /* \"#utility.yul\":13462:13467   */\n      dup4\n        /* \"#utility.yul\":13458:13472   */\n      add\n        /* \"#utility.yul\":13454:13482   */\n      and\n        /* \"#utility.yul\":13444:13482   */\n      swap1\n      pop\n        /* \"#utility.yul\":13386:13488   */\n      swap2\n      swap1\n      pop\n      jump\t// out\n        /* \"#utility.yul\":13494:13616   */\n    tag_140:\n        /* \"#utility.yul\":13567:13591   */\n      tag_294\n        /* \"#utility.yul\":13585:13590   */\n      dup2\n        /* \"#utility.yul\":13567:13591   */\n      tag_220\n      jump\t// in\n    tag_294:\n        /* \"#utility.yul\":13560:13565   */\n      dup2\n        /* \"#utility.yul\":13557:13592   */\n      eq\n        /* \"#utility.yul\":13547:13610   */\n      tag_295\n      jumpi\n        /* \"#utility.yul\":13606:13607   */\n      0x00\n        /* \"#utility.yul\":13603:13604   */\n      dup1\n        /* \"#utility.yul\":13596:13608   */\n      revert\n        /* \"#utility.yul\":13547:13610   */\n    tag_295:\n        /* \"#utility.yul\":13494:13616   */\n      pop\n      jump\t// out\n\n    auxdata: 0xa2646970667358221220968729ca6e83efe13d50c80eb0378c315fb22d1a8c9847ba56f544769069b03164736f6c63430008070033\n}\n",
				"bytecode": {
					"linkReferences": {},
					"object": "6080604052600060015534801561001557600080fd5b506111a3806100256000396000f3fe608060405234801561001057600080fd5b50600436106100935760003560e01c8063a1bbfc0511610066578063a1bbfc0514610158578063a901d15c14610174578063ac4afa3814610190578063ea57d5d4146101c6578063fcbd2a88146101e257610093565b8063186dd066146100985780635ea81a32146100c85780638915b3fb146100f85780638c8e54fb14610128575b600080fd5b6100b260048036038101906100ad9190610b29565b610200565b6040516100bf9190610e34565b60405180910390f35b6100e260048036038101906100dd9190610ab1565b61021f565b6040516100ef9190610e34565b60405180910390f35b610112600480360381019061010d9190610b29565b61031f565b60405161011f9190610d95565b60405180910390f35b610142600480360381019061013d9190610b29565b6104b6565b60405161014f9190610e34565b60405180910390f35b610172600480360381019061016d9190610bb2565b6104d5565b005b61018e60048036038101906101899190610b29565b61064d565b005b6101aa60048036038101906101a59190610b29565b6106f3565b6040516101bd9796959493929190610db7565b60405180910390f35b6101e060048036038101906101db9190610b56565b610872565b005b6101ea610969565b6040516101f79190610e34565b60405180910390f35b6000806000838152602001908152602001600020600601549050919050565b600080600080600160008154809291906102389061102c565b91905055815260200190815260200160002090508381600001908051906020019061026492919061096f565b508281600101908051906020019061027d92919061096f565b5060008160020181905550338160030160006101000a81548173ffffffffffffffffffffffffffffffffffffffff021916908373ffffffffffffffffffffffffffffffffffffffff1602179055506000816006018190555060008160070160006101000a81548160ff021916908315150217905550600180546103009190610f0b565b8160080181905550600180546103169190610f0b565b91505092915050565b606060008060008481526020019081526020016000206006015467ffffffffffffffff81111561035257610351611102565b5b60405190808252806020026020018201604052801561038b57816020015b6103786109f5565b8152602001906001900390816103705790505b50905060005b600080858152602001908152602001600020600601548110156104ac5760008085815260200190815260200160002060050160008281526020019081526020016000206040518060400160405290816000820180546103ef90610fc9565b80601f016020809104026020016040519081016040528092919081815260200182805461041b90610fc9565b80156104685780601f1061043d57610100808354040283529160200191610468565b820191906000526020600020905b81548152906001019060200180831161044b57829003601f168201915b5050505050815260200160018201548152505082828151811061048e5761048d6110d3565b5b602002602001018190525080806104a49061102c565b915050610391565b5080915050919050565b6000806000838152602001908152602001600020600201549050919050565b8260008082815260200190815260200160002060040160003373ffffffffffffffffffffffffffffffffffffffff1673ffffffffffffffffffffffffffffffffffffffff16815260200190815260200160002060020160009054906101000a900460ff161561054357600080fd5b6000806000868152602001908152602001600020905060008160040160003373ffffffffffffffffffffffffffffffffffffffff1673ffffffffffffffffffffffffffffffffffffffff1681526020019081526020016000209050600082600501600087815260200190815260200160002090508260020160008154809291906105cc9061102c565b9190505550848260000190805190602001906105e992919061096f565b508582600101819055508160030160008154809291906106089061102c565b919050555060018260020160006101000a81548160ff02191690831515021790555080600101600081548092919061063f9061102c565b919050555050505050505050565b8060008082815260200190815260200160002060030160009054906101000a900473ffffffffffffffffffffffffffffffffffffffff1673ffffffffffffffffffffffffffffffffffffffff163373ffffffffffffffffffffffffffffffffffffffff16146106bb57600080fd5b6000806000848152602001908152602001600020905060018160070160006101000a81548160ff021916908315150217905550505050565b600060205280600052604060002060009150905080600001805461071690610fc9565b80601f016020809104026020016040519081016040528092919081815260200182805461074290610fc9565b801561078f5780601f106107645761010080835404028352916020019161078f565b820191906000526020600020905b81548152906001019060200180831161077257829003601f168201915b5050505050908060010180546107a490610fc9565b80601f01602080910402602001604051908101604052809291908181526020018280546107d090610fc9565b801561081d5780601f106107f25761010080835404028352916020019161081d565b820191906000526020600020905b81548152906001019060200180831161080057829003601f168201915b5050505050908060020154908060030160009054906101000a900473ffffffffffffffffffffffffffffffffffffffff16908060060154908060070160009054906101000a900460ff16908060080154905087565b8160008082815260200190815260200160002060030160009054906101000a900473ffffffffffffffffffffffffffffffffffffffff1673ffffffffffffffffffffffffffffffffffffffff163373ffffffffffffffffffffffffffffffffffffffff16146108e057600080fd5b60008060008581526020019081526020016000209050604051806040016040528084815260200160008152508160050160008360060160008154809291906109279061102c565b919050558152602001908152602001600020600082015181600001908051906020019061095592919061096f565b506020820151816001015590505050505050565b60015481565b82805461097b90610fc9565b90600052602060002090601f01602090048101928261099d57600085556109e4565b82601f106109b657805160ff19168380011785556109e4565b828001600101855582156109e4579182015b828111156109e35782518255916020019190600101906109c8565b5b5090506109f19190610a0f565b5090565b604051806040016040528060608152602001600081525090565b5b80821115610a28576000816000905550600101610a10565b5090565b6000610a3f610a3a84610e74565b610e4f565b905082815260208101848484011115610a5b57610a5a611136565b5b610a66848285610f87565b509392505050565b600082601f830112610a8357610a82611131565b5b8135610a93848260208601610a2c565b91505092915050565b600081359050610aab81611156565b92915050565b60008060408385031215610ac857610ac7611140565b5b600083013567ffffffffffffffff811115610ae657610ae561113b565b5b610af285828601610a6e565b925050602083013567ffffffffffffffff811115610b1357610b1261113b565b5b610b1f85828601610a6e565b9150509250929050565b600060208284031215610b3f57610b3e611140565b5b6000610b4d84828501610a9c565b91505092915050565b60008060408385031215610b6d57610b6c611140565b5b6000610b7b85828601610a9c565b925050602083013567ffffffffffffffff811115610b9c57610b9b61113b565b5b610ba885828601610a6e565b9150509250929050565b600080600060608486031215610bcb57610bca611140565b5b6000610bd986828701610a9c565b9350506020610bea86828701610a9c565b925050604084013567ffffffffffffffff811115610c0b57610c0a61113b565b5b610c1786828701610a6e565b9150509250925092565b6000610c2d8383610d3a565b905092915050565b610c3e81610f3f565b82525050565b6000610c4f82610eb5565b610c598185610ed8565b935083602082028501610c6b85610ea5565b8060005b85811015610ca75784840389528151610c888582610c21565b9450610c9383610ecb565b925060208a01995050600181019050610c6f565b50829750879550505050505092915050565b610cc281610f51565b82525050565b6000610cd382610ec0565b610cdd8185610ee9565b9350610ced818560208601610f96565b610cf681611145565b840191505092915050565b6000610d0c82610ec0565b610d168185610efa565b9350610d26818560208601610f96565b610d2f81611145565b840191505092915050565b60006040830160008301518482036000860152610d578282610cc8565b9150506020830151610d6c6020860182610d77565b508091505092915050565b610d8081610f7d565b82525050565b610d8f81610f7d565b82525050565b60006020820190508181036000830152610daf8184610c44565b905092915050565b600060e0820190508181036000830152610dd1818a610d01565b90508181036020830152610de58189610d01565b9050610df46040830188610d86565b610e016060830187610c35565b610e0e6080830186610d86565b610e1b60a0830185610cb9565b610e2860c0830184610d86565b98975050505050505050565b6000602082019050610e496000830184610d86565b92915050565b6000610e59610e6a565b9050610e658282610ffb565b919050565b6000604051905090565b600067ffffffffffffffff821115610e8f57610e8e611102565b5b610e9882611145565b9050602081019050919050565b6000819050602082019050919050565b600081519050919050565b600081519050919050565b6000602082019050919050565b600082825260208201905092915050565b600082825260208201905092915050565b600082825260208201905092915050565b6000610f1682610f7d565b9150610f2183610f7d565b925082821015610f3457610f33611075565b5b828203905092915050565b6000610f4a82610f5d565b9050919050565b60008115159050919050565b600073ffffffffffffffffffffffffffffffffffffffff82169050919050565b6000819050919050565b82818337600083830152505050565b60005b83811015610fb4578082015181840152602081019050610f99565b83811115610fc3576000848401525b50505050565b60006002820490506001821680610fe157607f821691505b60208210811415610ff557610ff46110a4565b5b50919050565b61100482611145565b810181811067ffffffffffffffff8211171561102357611022611102565b5b80604052505050565b600061103782610f7d565b91507fffffffffffffffffffffffffffffffffffffffffffffffffffffffffffffffff82141561106a57611069611075565b5b600182019050919050565b7f4e487b7100000000000000000000000000000000000000000000000000000000600052601160045260246000fd5b7f4e487b7100000000000000000000000000000000000000000000000000000000600052602260045260246000fd5b7f4e487b7100000000000000000000000000000000000000000000000000000000600052603260045260246000fd5b7f4e487b7100000000000000000000000000000000000000000000000000000000600052604160045260246000fd5b600080fd5b600080fd5b600080fd5b600080fd5b6000601f19601f8301169050919050565b61115f81610f7d565b811461116a57600080fd5b5056fea2646970667358221220968729ca6e83efe13d50c80eb0378c315fb22d1a8c9847ba56f544769069b03164736f6c63430008070033",
					"opcodes": "PUSH1 0x80 PUSH1 0x40 MSTORE PUSH1 0x0 PUSH1 0x1 SSTORE CALLVALUE DUP1 ISZERO PUSH2 0x15 JUMPI PUSH1 0x0 DUP1 REVERT JUMPDEST POP PUSH2 0x11A3 DUP1 PUSH2 0x25 PUSH1 0x0 CODECOPY PUSH1 0x0 RETURN INVALID PUSH1 0x80 PUSH1 0x40 MSTORE CALLVALUE DUP1 ISZERO PUSH2 0x10 JUMPI PUSH1 0x0 DUP1 REVERT JUMPDEST POP PUSH1 0x4 CALLDATASIZE LT PUSH2 0x93 JUMPI PUSH1 0x0 CALLDATALOAD PUSH1 0xE0 SHR DUP1 PUSH4 0xA1BBFC05 GT PUSH2 0x66 JUMPI DUP1 PUSH4 0xA1BBFC05 EQ PUSH2 0x158 JUMPI DUP1 PUSH4 0xA901D15C EQ PUSH2 0x174 JUMPI DUP1 PUSH4 0xAC4AFA38 EQ PUSH2 0x190 JUMPI DUP1 PUSH4 0xEA57D5D4 EQ PUSH2 0x1C6 JUMPI DUP1 PUSH4 0xFCBD2A88 EQ PUSH2 0x1E2 JUMPI PUSH2 0x93 JUMP JUMPDEST DUP1 PUSH4 0x186DD066 EQ PUSH2 0x98 JUMPI DUP1 PUSH4 0x5EA81A32 EQ PUSH2 0xC8 JUMPI DUP1 PUSH4 0x8915B3FB EQ PUSH2 0xF8 JUMPI DUP1 PUSH4 0x8C8E54FB EQ PUSH2 0x128 JUMPI JUMPDEST PUSH1 0x0 DUP1 REVERT JUMPDEST PUSH2 0xB2 PUSH1 0x4 DUP1 CALLDATASIZE SUB DUP2 ADD SWAP1 PUSH2 0xAD SWAP2 SWAP1 PUSH2 0xB29 JUMP JUMPDEST PUSH2 0x200 JUMP JUMPDEST PUSH1 0x40 MLOAD PUSH2 0xBF SWAP2 SWAP1 PUSH2 0xE34 JUMP JUMPDEST PUSH1 0x40 MLOAD DUP1 SWAP2 SUB SWAP1 RETURN JUMPDEST PUSH2 0xE2 PUSH1 0x4 DUP1 CALLDATASIZE SUB DUP2 ADD SWAP1 PUSH2 0xDD SWAP2 SWAP1 PUSH2 0xAB1 JUMP JUMPDEST PUSH2 0x21F JUMP JUMPDEST PUSH1 0x40 MLOAD PUSH2 0xEF SWAP2 SWAP1 PUSH2 0xE34 JUMP JUMPDEST PUSH1 0x40 MLOAD DUP1 SWAP2 SUB SWAP1 RETURN JUMPDEST PUSH2 0x112 PUSH1 0x4 DUP1 CALLDATASIZE SUB DUP2 ADD SWAP1 PUSH2 0x10D SWAP2 SWAP1 PUSH2 0xB29 JUMP JUMPDEST PUSH2 0x31F JUMP JUMPDEST PUSH1 0x40 MLOAD PUSH2 0x11F SWAP2 SWAP1 PUSH2 0xD95 JUMP JUMPDEST PUSH1 0x40 MLOAD DUP1 SWAP2 SUB SWAP1 RETURN JUMPDEST PUSH2 0x142 PUSH1 0x4 DUP1 CALLDATASIZE SUB DUP2 ADD SWAP1 PUSH2 0x13D SWAP2 SWAP1 PUSH2 0xB29 JUMP JUMPDEST PUSH2 0x4B6 JUMP JUMPDEST PUSH1 0x40 MLOAD PUSH2 0x14F SWAP2 SWAP1 PUSH2 0xE34 JUMP JUMPDEST PUSH1 0x40 MLOAD DUP1 SWAP2 SUB SWAP1 RETURN JUMPDEST PUSH2 0x172 PUSH1 0x4 DUP1 CALLDATASIZE SUB DUP2 ADD SWAP1 PUSH2 0x16D SWAP2 SWAP1 PUSH2 0xBB2 JUMP JUMPDEST PUSH2 0x4D5 JUMP JUMPDEST STOP JUMPDEST PUSH2 0x18E PUSH1 0x4 DUP1 CALLDATASIZE SUB DUP2 ADD SWAP1 PUSH2 0x189 SWAP2 SWAP1 PUSH2 0xB29 JUMP JUMPDEST PUSH2 0x64D JUMP JUMPDEST STOP JUMPDEST PUSH2 0x1AA PUSH1 0x4 DUP1 CALLDATASIZE SUB DUP2 ADD SWAP1 PUSH2 0x1A5 SWAP2 SWAP1 PUSH2 0xB29 JUMP JUMPDEST PUSH2 0x6F3 JUMP JUMPDEST PUSH1 0x40 MLOAD PUSH2 0x1BD SWAP8 SWAP7 SWAP6 SWAP5 SWAP4 SWAP3 SWAP2 SWAP1 PUSH2 0xDB7 JUMP JUMPDEST PUSH1 0x40 MLOAD DUP1 SWAP2 SUB SWAP1 RETURN JUMPDEST PUSH2 0x1E0 PUSH1 0x4 DUP1 CALLDATASIZE SUB DUP2 ADD SWAP1 PUSH2 0x1DB SWAP2 SWAP1 PUSH2 0xB56 JUMP JUMPDEST PUSH2 0x872 JUMP JUMPDEST STOP JUMPDEST PUSH2 0x1EA PUSH2 0x969 JUMP JUMPDEST PUSH1 0x40 MLOAD PUSH2 0x1F7 SWAP2 SWAP1 PUSH2 0xE34 JUMP JUMPDEST PUSH1 0x40 MLOAD DUP1 SWAP2 SUB SWAP1 RETURN JUMPDEST PUSH1 0x0 DUP1 PUSH1 0x0 DUP4 DUP2 MSTORE PUSH1 0x20 ADD SWAP1 DUP2 MSTORE PUSH1 0x20 ADD PUSH1 0x0 KECCAK256 PUSH1 0x6 ADD SLOAD SWAP1 POP SWAP2 SWAP1 POP JUMP JUMPDEST PUSH1 0x0 DUP1 PUSH1 0x0 DUP1 PUSH1 0x1 PUSH1 0x0 DUP2 SLOAD DUP1 SWAP3 SWAP2 SWAP1 PUSH2 0x238 SWAP1 PUSH2 0x102C JUMP JUMPDEST SWAP2 SWAP1 POP SSTORE DUP2 MSTORE PUSH1 0x20 ADD SWAP1 DUP2 MSTORE PUSH1 0x20 ADD PUSH1 0x0 KECCAK256 SWAP1 POP DUP4 DUP2 PUSH1 0x0 ADD SWAP1 DUP1 MLOAD SWAP1 PUSH1 0x20 ADD SWAP1 PUSH2 0x264 SWAP3 SWAP2 SWAP1 PUSH2 0x96F JUMP JUMPDEST POP DUP3 DUP2 PUSH1 0x1 ADD SWAP1 DUP1 MLOAD SWAP1 PUSH1 0x20 ADD SWAP1 PUSH2 0x27D SWAP3 SWAP2 SWAP1 PUSH2 0x96F JUMP JUMPDEST POP PUSH1 0x0 DUP2 PUSH1 0x2 ADD DUP2 SWAP1 SSTORE POP CALLER DUP2 PUSH1 0x3 ADD PUSH1 0x0 PUSH2 0x100 EXP DUP2 SLOAD DUP2 PUSH20 0xFFFFFFFFFFFFFFFFFFFFFFFFFFFFFFFFFFFFFFFF MUL NOT AND SWAP1 DUP4 PUSH20 0xFFFFFFFFFFFFFFFFFFFFFFFFFFFFFFFFFFFFFFFF AND MUL OR SWAP1 SSTORE POP PUSH1 0x0 DUP2 PUSH1 0x6 ADD DUP2 SWAP1 SSTORE POP PUSH1 0x0 DUP2 PUSH1 0x7 ADD PUSH1 0x0 PUSH2 0x100 EXP DUP2 SLOAD DUP2 PUSH1 0xFF MUL NOT AND SWAP1 DUP4 ISZERO ISZERO MUL OR SWAP1 SSTORE POP PUSH1 0x1 DUP1 SLOAD PUSH2 0x300 SWAP2 SWAP1 PUSH2 0xF0B JUMP JUMPDEST DUP2 PUSH1 0x8 ADD DUP2 SWAP1 SSTORE POP PUSH1 0x1 DUP1 SLOAD PUSH2 0x316 SWAP2 SWAP1 PUSH2 0xF0B JUMP JUMPDEST SWAP2 POP POP SWAP3 SWAP2 POP POP JUMP JUMPDEST PUSH1 0x60 PUSH1 0x0 DUP1 PUSH1 0x0 DUP5 DUP2 MSTORE PUSH1 0x20 ADD SWAP1 DUP2 MSTORE PUSH1 0x20 ADD PUSH1 0x0 KECCAK256 PUSH1 0x6 ADD SLOAD PUSH8 0xFFFFFFFFFFFFFFFF DUP2 GT ISZERO PUSH2 0x352 JUMPI PUSH2 0x351 PUSH2 0x1102 JUMP JUMPDEST JUMPDEST PUSH1 0x40 MLOAD SWAP1 DUP1 DUP3 MSTORE DUP1 PUSH1 0x20 MUL PUSH1 0x20 ADD DUP3 ADD PUSH1 0x40 MSTORE DUP1 ISZERO PUSH2 0x38B JUMPI DUP2 PUSH1 0x20 ADD JUMPDEST PUSH2 0x378 PUSH2 0x9F5 JUMP JUMPDEST DUP2 MSTORE PUSH1 0x20 ADD SWAP1 PUSH1 0x1 SWAP1 SUB SWAP1 DUP2 PUSH2 0x370 JUMPI SWAP1 POP JUMPDEST POP SWAP1 POP PUSH1 0x0 JUMPDEST PUSH1 0x0 DUP1 DUP6 DUP2 MSTORE PUSH1 0x20 ADD SWAP1 DUP2 MSTORE PUSH1 0x20 ADD PUSH1 0x0 KECCAK256 PUSH1 0x6 ADD SLOAD DUP2 LT ISZERO PUSH2 0x4AC JUMPI PUSH1 0x0 DUP1 DUP6 DUP2 MSTORE PUSH1 0x20 ADD SWAP1 DUP2 MSTORE PUSH1 0x20 ADD PUSH1 0x0 KECCAK256 PUSH1 0x5 ADD PUSH1 0x0 DUP3 DUP2 MSTORE PUSH1 0x20 ADD SWAP1 DUP2 MSTORE PUSH1 0x20 ADD PUSH1 0x0 KECCAK256 PUSH1 0x40 MLOAD DUP1 PUSH1 0x40 ADD PUSH1 0x40 MSTORE SWAP1 DUP2 PUSH1 0x0 DUP3 ADD DUP1 SLOAD PUSH2 0x3EF SWAP1 PUSH2 0xFC9 JUMP JUMPDEST DUP1 PUSH1 0x1F ADD PUSH1 0x20 DUP1 SWAP2 DIV MUL PUSH1 0x20 ADD PUSH1 0x40 MLOAD SWAP1 DUP2 ADD PUSH1 0x40 MSTORE DUP1 SWAP3 SWAP2 SWAP1 DUP2 DUP2 MSTORE PUSH1 0x20 ADD DUP3 DUP1 SLOAD PUSH2 0x41B SWAP1 PUSH2 0xFC9 JUMP JUMPDEST DUP1 ISZERO PUSH2 0x468 JUMPI DUP1 PUSH1 0x1F LT PUSH2 0x43D JUMPI PUSH2 0x100 DUP1 DUP4 SLOAD DIV MUL DUP4 MSTORE SWAP2 PUSH1 0x20 ADD SWAP2 PUSH2 0x468 JUMP JUMPDEST DUP3 ADD SWAP2 SWAP1 PUSH1 0x0 MSTORE PUSH1 0x20 PUSH1 0x0 KECCAK256 SWAP1 JUMPDEST DUP2 SLOAD DUP2 MSTORE SWAP1 PUSH1 0x1 ADD SWAP1 PUSH1 0x20 ADD DUP1 DUP4 GT PUSH2 0x44B JUMPI DUP3 SWAP1 SUB PUSH1 0x1F AND DUP3 ADD SWAP2 JUMPDEST POP POP POP POP POP DUP2 MSTORE PUSH1 0x20 ADD PUSH1 0x1 DUP3 ADD SLOAD DUP2 MSTORE POP POP DUP3 DUP3 DUP2 MLOAD DUP2 LT PUSH2 0x48E JUMPI PUSH2 0x48D PUSH2 0x10D3 JUMP JUMPDEST JUMPDEST PUSH1 0x20 MUL PUSH1 0x20 ADD ADD DUP2 SWAP1 MSTORE POP DUP1 DUP1 PUSH2 0x4A4 SWAP1 PUSH2 0x102C JUMP JUMPDEST SWAP2 POP POP PUSH2 0x391 JUMP JUMPDEST POP DUP1 SWAP2 POP POP SWAP2 SWAP1 POP JUMP JUMPDEST PUSH1 0x0 DUP1 PUSH1 0x0 DUP4 DUP2 MSTORE PUSH1 0x20 ADD SWAP1 DUP2 MSTORE PUSH1 0x20 ADD PUSH1 0x0 KECCAK256 PUSH1 0x2 ADD SLOAD SWAP1 POP SWAP2 SWAP1 POP JUMP JUMPDEST DUP3 PUSH1 0x0 DUP1 DUP3 DUP2 MSTORE PUSH1 0x20 ADD SWAP1 DUP2 MSTORE PUSH1 0x20 ADD PUSH1 0x0 KECCAK256 PUSH1 0x4 ADD PUSH1 0x0 CALLER PUSH20 0xFFFFFFFFFFFFFFFFFFFFFFFFFFFFFFFFFFFFFFFF AND PUSH20 0xFFFFFFFFFFFFFFFFFFFFFFFFFFFFFFFFFFFFFFFF AND DUP2 MSTORE PUSH1 0x20 ADD SWAP1 DUP2 MSTORE PUSH1 0x20 ADD PUSH1 0x0 KECCAK256 PUSH1 0x2 ADD PUSH1 0x0 SWAP1 SLOAD SWAP1 PUSH2 0x100 EXP SWAP1 DIV PUSH1 0xFF AND ISZERO PUSH2 0x543 JUMPI PUSH1 0x0 DUP1 REVERT JUMPDEST PUSH1 0x0 DUP1 PUSH1 0x0 DUP7 DUP2 MSTORE PUSH1 0x20 ADD SWAP1 DUP2 MSTORE PUSH1 0x20 ADD PUSH1 0x0 KECCAK256 SWAP1 POP PUSH1 0x0 DUP2 PUSH1 0x4 ADD PUSH1 0x0 CALLER PUSH20 0xFFFFFFFFFFFFFFFFFFFFFFFFFFFFFFFFFFFFFFFF AND PUSH20 0xFFFFFFFFFFFFFFFFFFFFFFFFFFFFFFFFFFFFFFFF AND DUP2 MSTORE PUSH1 0x20 ADD SWAP1 DUP2 MSTORE PUSH1 0x20 ADD PUSH1 0x0 KECCAK256 SWAP1 POP PUSH1 0x0 DUP3 PUSH1 0x5 ADD PUSH1 0x0 DUP8 DUP2 MSTORE PUSH1 0x20 ADD SWAP1 DUP2 MSTORE PUSH1 0x20 ADD PUSH1 0x0 KECCAK256 SWAP1 POP DUP3 PUSH1 0x2 ADD PUSH1 0x0 DUP2 SLOAD DUP1 SWAP3 SWAP2 SWAP1 PUSH2 0x5CC SWAP1 PUSH2 0x102C JUMP JUMPDEST SWAP2 SWAP1 POP SSTORE POP DUP5 DUP3 PUSH1 0x0 ADD SWAP1 DUP1 MLOAD SWAP1 PUSH1 0x20 ADD SWAP1 PUSH2 0x5E9 SWAP3 SWAP2 SWAP1 PUSH2 0x96F JUMP JUMPDEST POP DUP6 DUP3 PUSH1 0x1 ADD DUP2 SWAP1 SSTORE POP DUP2 PUSH1 0x3 ADD PUSH1 0x0 DUP2 SLOAD DUP1 SWAP3 SWAP2 SWAP1 PUSH2 0x608 SWAP1 PUSH2 0x102C JUMP JUMPDEST SWAP2 SWAP1 POP SSTORE POP PUSH1 0x1 DUP3 PUSH1 0x2 ADD PUSH1 0x0 PUSH2 0x100 EXP DUP2 SLOAD DUP2 PUSH1 0xFF MUL NOT AND SWAP1 DUP4 ISZERO ISZERO MUL OR SWAP1 SSTORE POP DUP1 PUSH1 0x1 ADD PUSH1 0x0 DUP2 SLOAD DUP1 SWAP3 SWAP2 SWAP1 PUSH2 0x63F SWAP1 PUSH2 0x102C JUMP JUMPDEST SWAP2 SWAP1 POP SSTORE POP POP POP POP POP POP POP POP JUMP JUMPDEST DUP1 PUSH1 0x0 DUP1 DUP3 DUP2 MSTORE PUSH1 0x20 ADD SWAP1 DUP2 MSTORE PUSH1 0x20 ADD PUSH1 0x0 KECCAK256 PUSH1 0x3 ADD PUSH1 0x0 SWAP1 SLOAD SWAP1 PUSH2 0x100 EXP SWAP1 DIV PUSH20 0xFFFFFFFFFFFFFFFFFFFFFFFFFFFFFFFFFFFFFFFF AND PUSH20 0xFFFFFFFFFFFFFFFFFFFFFFFFFFFFFFFFFFFFFFFF AND CALLER PUSH20 0xFFFFFFFFFFFFFFFFFFFFFFFFFFFFFFFFFFFFFFFF AND EQ PUSH2 0x6BB JUMPI PUSH1 0x0 DUP1 REVERT JUMPDEST PUSH1 0x0 DUP1 PUSH1 0x0 DUP5 DUP2 MSTORE PUSH1 0x20 ADD SWAP1 DUP2 MSTORE PUSH1 0x20 ADD PUSH1 0x0 KECCAK256 SWAP1 POP PUSH1 0x1 DUP2 PUSH1 0x7 ADD PUSH1 0x0 PUSH2 0x100 EXP DUP2 SLOAD DUP2 PUSH1 0xFF MUL NOT AND SWAP1 DUP4 ISZERO ISZERO MUL OR SWAP1 SSTORE POP POP POP POP JUMP JUMPDEST PUSH1 0x0 PUSH1 0x20 MSTORE DUP1 PUSH1 0x0 MSTORE PUSH1 0x40 PUSH1 0x0 KECCAK256 PUSH1 0x0 SWAP2 POP SWAP1 POP DUP1 PUSH1 0x0 ADD DUP1 SLOAD PUSH2 0x716 SWAP1 PUSH2 0xFC9 JUMP JUMPDEST DUP1 PUSH1 0x1F ADD PUSH1 0x20 DUP1 SWAP2 DIV MUL PUSH1 0x20 ADD PUSH1 0x40 MLOAD SWAP1 DUP2 ADD PUSH1 0x40 MSTORE DUP1 SWAP3 SWAP2 SWAP1 DUP2 DUP2 MSTORE PUSH1 0x20 ADD DUP3 DUP1 SLOAD PUSH2 0x742 SWAP1 PUSH2 0xFC9 JUMP JUMPDEST DUP1 ISZERO PUSH2 0x78F JUMPI DUP1 PUSH1 0x1F LT PUSH2 0x764 JUMPI PUSH2 0x100 DUP1 DUP4 SLOAD DIV MUL DUP4 MSTORE SWAP2 PUSH1 0x20 ADD SWAP2 PUSH2 0x78F JUMP JUMPDEST DUP3 ADD SWAP2 SWAP1 PUSH1 0x0 MSTORE PUSH1 0x20 PUSH1 0x0 KECCAK256 SWAP1 JUMPDEST DUP2 SLOAD DUP2 MSTORE SWAP1 PUSH1 0x1 ADD SWAP1 PUSH1 0x20 ADD DUP1 DUP4 GT PUSH2 0x772 JUMPI DUP3 SWAP1 SUB PUSH1 0x1F AND DUP3 ADD SWAP2 JUMPDEST POP POP POP POP POP SWAP1 DUP1 PUSH1 0x1 ADD DUP1 SLOAD PUSH2 0x7A4 SWAP1 PUSH2 0xFC9 JUMP JUMPDEST DUP1 PUSH1 0x1F ADD PUSH1 0x20 DUP1 SWAP2 DIV MUL PUSH1 0x20 ADD PUSH1 0x40 MLOAD SWAP1 DUP2 ADD PUSH1 0x40 MSTORE DUP1 SWAP3 SWAP2 SWAP1 DUP2 DUP2 MSTORE PUSH1 0x20 ADD DUP3 DUP1 SLOAD PUSH2 0x7D0 SWAP1 PUSH2 0xFC9 JUMP JUMPDEST DUP1 ISZERO PUSH2 0x81D JUMPI DUP1 PUSH1 0x1F LT PUSH2 0x7F2 JUMPI PUSH2 0x100 DUP1 DUP4 SLOAD DIV MUL DUP4 MSTORE SWAP2 PUSH1 0x20 ADD SWAP2 PUSH2 0x81D JUMP JUMPDEST DUP3 ADD SWAP2 SWAP1 PUSH1 0x0 MSTORE PUSH1 0x20 PUSH1 0x0 KECCAK256 SWAP1 JUMPDEST DUP2 SLOAD DUP2 MSTORE SWAP1 PUSH1 0x1 ADD SWAP1 PUSH1 0x20 ADD DUP1 DUP4 GT PUSH2 0x800 JUMPI DUP3 SWAP1 SUB PUSH1 0x1F AND DUP3 ADD SWAP2 JUMPDEST POP POP POP POP POP SWAP1 DUP1 PUSH1 0x2 ADD SLOAD SWAP1 DUP1 PUSH1 0x3 ADD PUSH1 0x0 SWAP1 SLOAD SWAP1 PUSH2 0x100 EXP SWAP1 DIV PUSH20 0xFFFFFFFFFFFFFFFFFFFFFFFFFFFFFFFFFFFFFFFF AND SWAP1 DUP1 PUSH1 0x6 ADD SLOAD SWAP1 DUP1 PUSH1 0x7 ADD PUSH1 0x0 SWAP1 SLOAD SWAP1 PUSH2 0x100 EXP SWAP1 DIV PUSH1 0xFF AND SWAP1 DUP1 PUSH1 0x8 ADD SLOAD SWAP1 POP DUP8 JUMP JUMPDEST DUP2 PUSH1 0x0 DUP1 DUP3 DUP2 MSTORE PUSH1 0x20 ADD SWAP1 DUP2 MSTORE PUSH1 0x20 ADD PUSH1 0x0 KECCAK256 PUSH1 0x3 ADD PUSH1 0x0 SWAP1 SLOAD SWAP1 PUSH2 0x100 EXP SWAP1 DIV PUSH20 0xFFFFFFFFFFFFFFFFFFFFFFFFFFFFFFFFFFFFFFFF AND PUSH20 0xFFFFFFFFFFFFFFFFFFFFFFFFFFFFFFFFFFFFFFFF AND CALLER PUSH20 0xFFFFFFFFFFFFFFFFFFFFFFFFFFFFFFFFFFFFFFFF AND EQ PUSH2 0x8E0 JUMPI PUSH1 0x0 DUP1 REVERT JUMPDEST PUSH1 0x0 DUP1 PUSH1 0x0 DUP6 DUP2 MSTORE PUSH1 0x20 ADD SWAP1 DUP2 MSTORE PUSH1 0x20 ADD PUSH1 0x0 KECCAK256 SWAP1 POP PUSH1 0x40 MLOAD DUP1 PUSH1 0x40 ADD PUSH1 0x40 MSTORE DUP1 DUP5 DUP2 MSTORE PUSH1 0x20 ADD PUSH1 0x0 DUP2 MSTORE POP DUP2 PUSH1 0x5 ADD PUSH1 0x0 DUP4 PUSH1 0x6 ADD PUSH1 0x0 DUP2 SLOAD DUP1 SWAP3 SWAP2 SWAP1 PUSH2 0x927 SWAP1 PUSH2 0x102C JUMP JUMPDEST SWAP2 SWAP1 POP SSTORE DUP2 MSTORE PUSH1 0x20 ADD SWAP1 DUP2 MSTORE PUSH1 0x20 ADD PUSH1 0x0 KECCAK256 PUSH1 0x0 DUP3 ADD MLOAD DUP2 PUSH1 0x0 ADD SWAP1 DUP1 MLOAD SWAP1 PUSH1 0x20 ADD SWAP1 PUSH2 0x955 SWAP3 SWAP2 SWAP1 PUSH2 0x96F JUMP JUMPDEST POP PUSH1 0x20 DUP3 ADD MLOAD DUP2 PUSH1 0x1 ADD SSTORE SWAP1 POP POP POP POP POP POP JUMP JUMPDEST PUSH1 0x1 SLOAD DUP2 JUMP JUMPDEST DUP3 DUP1 SLOAD PUSH2 0x97B SWAP1 PUSH2 0xFC9 JUMP JUMPDEST SWAP1 PUSH1 0x0 MSTORE PUSH1 0x20 PUSH1 0x0 KECCAK256 SWAP1 PUSH1 0x1F ADD PUSH1 0x20 SWAP1 DIV DUP2 ADD SWAP3 DUP3 PUSH2 0x99D JUMPI PUSH1 0x0 DUP6 SSTORE PUSH2 0x9E4 JUMP JUMPDEST DUP3 PUSH1 0x1F LT PUSH2 0x9B6 JUMPI DUP1 MLOAD PUSH1 0xFF NOT AND DUP4 DUP1 ADD OR DUP6 SSTORE PUSH2 0x9E4 JUMP JUMPDEST DUP3 DUP1 ADD PUSH1 0x1 ADD DUP6 SSTORE DUP3 ISZERO PUSH2 0x9E4 JUMPI SWAP2 DUP3 ADD JUMPDEST DUP3 DUP2 GT ISZERO PUSH2 0x9E3 JUMPI DUP3 MLOAD DUP3 SSTORE SWAP2 PUSH1 0x20 ADD SWAP2 SWAP1 PUSH1 0x1 ADD SWAP1 PUSH2 0x9C8 JUMP JUMPDEST JUMPDEST POP SWAP1 POP PUSH2 0x9F1 SWAP2 SWAP1 PUSH2 0xA0F JUMP JUMPDEST POP SWAP1 JUMP JUMPDEST PUSH1 0x40 MLOAD DUP1 PUSH1 0x40 ADD PUSH1 0x40 MSTORE DUP1 PUSH1 0x60 DUP2 MSTORE PUSH1 0x20 ADD PUSH1 0x0 DUP2 MSTORE POP SWAP1 JUMP JUMPDEST JUMPDEST DUP1 DUP3 GT ISZERO PUSH2 0xA28 JUMPI PUSH1 0x0 DUP2 PUSH1 0x0 SWAP1 SSTORE POP PUSH1 0x1 ADD PUSH2 0xA10 JUMP JUMPDEST POP SWAP1 JUMP JUMPDEST PUSH1 0x0 PUSH2 0xA3F PUSH2 0xA3A DUP5 PUSH2 0xE74 JUMP JUMPDEST PUSH2 0xE4F JUMP JUMPDEST SWAP1 POP DUP3 DUP2 MSTORE PUSH1 0x20 DUP2 ADD DUP5 DUP5 DUP5 ADD GT ISZERO PUSH2 0xA5B JUMPI PUSH2 0xA5A PUSH2 0x1136 JUMP JUMPDEST JUMPDEST PUSH2 0xA66 DUP5 DUP3 DUP6 PUSH2 0xF87 JUMP JUMPDEST POP SWAP4 SWAP3 POP POP POP JUMP JUMPDEST PUSH1 0x0 DUP3 PUSH1 0x1F DUP4 ADD SLT PUSH2 0xA83 JUMPI PUSH2 0xA82 PUSH2 0x1131 JUMP JUMPDEST JUMPDEST DUP2 CALLDATALOAD PUSH2 0xA93 DUP5 DUP3 PUSH1 0x20 DUP7 ADD PUSH2 0xA2C JUMP JUMPDEST SWAP2 POP POP SWAP3 SWAP2 POP POP JUMP JUMPDEST PUSH1 0x0 DUP2 CALLDATALOAD SWAP1 POP PUSH2 0xAAB DUP2 PUSH2 0x1156 JUMP JUMPDEST SWAP3 SWAP2 POP POP JUMP JUMPDEST PUSH1 0x0 DUP1 PUSH1 0x40 DUP4 DUP6 SUB SLT ISZERO PUSH2 0xAC8 JUMPI PUSH2 0xAC7 PUSH2 0x1140 JUMP JUMPDEST JUMPDEST PUSH1 0x0 DUP4 ADD CALLDATALOAD PUSH8 0xFFFFFFFFFFFFFFFF DUP2 GT ISZERO PUSH2 0xAE6 JUMPI PUSH2 0xAE5 PUSH2 0x113B JUMP JUMPDEST JUMPDEST PUSH2 0xAF2 DUP6 DUP3 DUP7 ADD PUSH2 0xA6E JUMP JUMPDEST SWAP3 POP POP PUSH1 0x20 DUP4 ADD CALLDATALOAD PUSH8 0xFFFFFFFFFFFFFFFF DUP2 GT ISZERO PUSH2 0xB13 JUMPI PUSH2 0xB12 PUSH2 0x113B JUMP JUMPDEST JUMPDEST PUSH2 0xB1F DUP6 DUP3 DUP7 ADD PUSH2 0xA6E JUMP JUMPDEST SWAP2 POP POP SWAP3 POP SWAP3 SWAP1 POP JUMP JUMPDEST PUSH1 0x0 PUSH1 0x20 DUP3 DUP5 SUB SLT ISZERO PUSH2 0xB3F JUMPI PUSH2 0xB3E PUSH2 0x1140 JUMP JUMPDEST JUMPDEST PUSH1 0x0 PUSH2 0xB4D DUP5 DUP3 DUP6 ADD PUSH2 0xA9C JUMP JUMPDEST SWAP2 POP POP SWAP3 SWAP2 POP POP JUMP JUMPDEST PUSH1 0x0 DUP1 PUSH1 0x40 DUP4 DUP6 SUB SLT ISZERO PUSH2 0xB6D JUMPI PUSH2 0xB6C PUSH2 0x1140 JUMP JUMPDEST JUMPDEST PUSH1 0x0 PUSH2 0xB7B DUP6 DUP3 DUP7 ADD PUSH2 0xA9C JUMP JUMPDEST SWAP3 POP POP PUSH1 0x20 DUP4 ADD CALLDATALOAD PUSH8 0xFFFFFFFFFFFFFFFF DUP2 GT ISZERO PUSH2 0xB9C JUMPI PUSH2 0xB9B PUSH2 0x113B JUMP JUMPDEST JUMPDEST PUSH2 0xBA8 DUP6 DUP3 DUP7 ADD PUSH2 0xA6E JUMP JUMPDEST SWAP2 POP POP SWAP3 POP SWAP3 SWAP1 POP JUMP JUMPDEST PUSH1 0x0 DUP1 PUSH1 0x0 PUSH1 0x60 DUP5 DUP7 SUB SLT ISZERO PUSH2 0xBCB JUMPI PUSH2 0xBCA PUSH2 0x1140 JUMP JUMPDEST JUMPDEST PUSH1 0x0 PUSH2 0xBD9 DUP7 DUP3 DUP8 ADD PUSH2 0xA9C JUMP JUMPDEST SWAP4 POP POP PUSH1 0x20 PUSH2 0xBEA DUP7 DUP3 DUP8 ADD PUSH2 0xA9C JUMP JUMPDEST SWAP3 POP POP PUSH1 0x40 DUP5 ADD CALLDATALOAD PUSH8 0xFFFFFFFFFFFFFFFF DUP2 GT ISZERO PUSH2 0xC0B JUMPI PUSH2 0xC0A PUSH2 0x113B JUMP JUMPDEST JUMPDEST PUSH2 0xC17 DUP7 DUP3 DUP8 ADD PUSH2 0xA6E JUMP JUMPDEST SWAP2 POP POP SWAP3 POP SWAP3 POP SWAP3 JUMP JUMPDEST PUSH1 0x0 PUSH2 0xC2D DUP4 DUP4 PUSH2 0xD3A JUMP JUMPDEST SWAP1 POP SWAP3 SWAP2 POP POP JUMP JUMPDEST PUSH2 0xC3E DUP2 PUSH2 0xF3F JUMP JUMPDEST DUP3 MSTORE POP POP JUMP JUMPDEST PUSH1 0x0 PUSH2 0xC4F DUP3 PUSH2 0xEB5 JUMP JUMPDEST PUSH2 0xC59 DUP2 DUP6 PUSH2 0xED8 JUMP JUMPDEST SWAP4 POP DUP4 PUSH1 0x20 DUP3 MUL DUP6 ADD PUSH2 0xC6B DUP6 PUSH2 0xEA5 JUMP JUMPDEST DUP1 PUSH1 0x0 JUMPDEST DUP6 DUP2 LT ISZERO PUSH2 0xCA7 JUMPI DUP5 DUP5 SUB DUP10 MSTORE DUP2 MLOAD PUSH2 0xC88 DUP6 DUP3 PUSH2 0xC21 JUMP JUMPDEST SWAP5 POP PUSH2 0xC93 DUP4 PUSH2 0xECB JUMP JUMPDEST SWAP3 POP PUSH1 0x20 DUP11 ADD SWAP10 POP POP PUSH1 0x1 DUP2 ADD SWAP1 POP PUSH2 0xC6F JUMP JUMPDEST POP DUP3 SWAP8 POP DUP8 SWAP6 POP POP POP POP POP POP SWAP3 SWAP2 POP POP JUMP JUMPDEST PUSH2 0xCC2 DUP2 PUSH2 0xF51 JUMP JUMPDEST DUP3 MSTORE POP POP JUMP JUMPDEST PUSH1 0x0 PUSH2 0xCD3 DUP3 PUSH2 0xEC0 JUMP JUMPDEST PUSH2 0xCDD DUP2 DUP6 PUSH2 0xEE9 JUMP JUMPDEST SWAP4 POP PUSH2 0xCED DUP2 DUP6 PUSH1 0x20 DUP7 ADD PUSH2 0xF96 JUMP JUMPDEST PUSH2 0xCF6 DUP2 PUSH2 0x1145 JUMP JUMPDEST DUP5 ADD SWAP2 POP POP SWAP3 SWAP2 POP POP JUMP JUMPDEST PUSH1 0x0 PUSH2 0xD0C DUP3 PUSH2 0xEC0 JUMP JUMPDEST PUSH2 0xD16 DUP2 DUP6 PUSH2 0xEFA JUMP JUMPDEST SWAP4 POP PUSH2 0xD26 DUP2 DUP6 PUSH1 0x20 DUP7 ADD PUSH2 0xF96 JUMP JUMPDEST PUSH2 0xD2F DUP2 PUSH2 0x1145 JUMP JUMPDEST DUP5 ADD SWAP2 POP POP SWAP3 SWAP2 POP POP JUMP JUMPDEST PUSH1 0x0 PUSH1 0x40 DUP4 ADD PUSH1 0x0 DUP4 ADD MLOAD DUP5 DUP3 SUB PUSH1 0x0 DUP7 ADD MSTORE PUSH2 0xD57 DUP3 DUP3 PUSH2 0xCC8 JUMP JUMPDEST SWAP2 POP POP PUSH1 0x20 DUP4 ADD MLOAD PUSH2 0xD6C PUSH1 0x20 DUP7 ADD DUP3 PUSH2 0xD77 JUMP JUMPDEST POP DUP1 SWAP2 POP POP SWAP3 SWAP2 POP POP JUMP JUMPDEST PUSH2 0xD80 DUP2 PUSH2 0xF7D JUMP JUMPDEST DUP3 MSTORE POP POP JUMP JUMPDEST PUSH2 0xD8F DUP2 PUSH2 0xF7D JUMP JUMPDEST DUP3 MSTORE POP POP JUMP JUMPDEST PUSH1 0x0 PUSH1 0x20 DUP3 ADD SWAP1 POP DUP2 DUP2 SUB PUSH1 0x0 DUP4 ADD MSTORE PUSH2 0xDAF DUP2 DUP5 PUSH2 0xC44 JUMP JUMPDEST SWAP1 POP SWAP3 SWAP2 POP POP JUMP JUMPDEST PUSH1 0x0 PUSH1 0xE0 DUP3 ADD SWAP1 POP DUP2 DUP2 SUB PUSH1 0x0 DUP4 ADD MSTORE PUSH2 0xDD1 DUP2 DUP11 PUSH2 0xD01 JUMP JUMPDEST SWAP1 POP DUP2 DUP2 SUB PUSH1 0x20 DUP4 ADD MSTORE PUSH2 0xDE5 DUP2 DUP10 PUSH2 0xD01 JUMP JUMPDEST SWAP1 POP PUSH2 0xDF4 PUSH1 0x40 DUP4 ADD DUP9 PUSH2 0xD86 JUMP JUMPDEST PUSH2 0xE01 PUSH1 0x60 DUP4 ADD DUP8 PUSH2 0xC35 JUMP JUMPDEST PUSH2 0xE0E PUSH1 0x80 DUP4 ADD DUP7 PUSH2 0xD86 JUMP JUMPDEST PUSH2 0xE1B PUSH1 0xA0 DUP4 ADD DUP6 PUSH2 0xCB9 JUMP JUMPDEST PUSH2 0xE28 PUSH1 0xC0 DUP4 ADD DUP5 PUSH2 0xD86 JUMP JUMPDEST SWAP9 SWAP8 POP POP POP POP POP POP POP POP JUMP JUMPDEST PUSH1 0x0 PUSH1 0x20 DUP3 ADD SWAP1 POP PUSH2 0xE49 PUSH1 0x0 DUP4 ADD DUP5 PUSH2 0xD86 JUMP JUMPDEST SWAP3 SWAP2 POP POP JUMP JUMPDEST PUSH1 0x0 PUSH2 0xE59 PUSH2 0xE6A JUMP JUMPDEST SWAP1 POP PUSH2 0xE65 DUP3 DUP3 PUSH2 0xFFB JUMP JUMPDEST SWAP2 SWAP1 POP JUMP JUMPDEST PUSH1 0x0 PUSH1 0x40 MLOAD SWAP1 POP SWAP1 JUMP JUMPDEST PUSH1 0x0 PUSH8 0xFFFFFFFFFFFFFFFF DUP3 GT ISZERO PUSH2 0xE8F JUMPI PUSH2 0xE8E PUSH2 0x1102 JUMP JUMPDEST JUMPDEST PUSH2 0xE98 DUP3 PUSH2 0x1145 JUMP JUMPDEST SWAP1 POP PUSH1 0x20 DUP2 ADD SWAP1 POP SWAP2 SWAP1 POP JUMP JUMPDEST PUSH1 0x0 DUP2 SWAP1 POP PUSH1 0x20 DUP3 ADD SWAP1 POP SWAP2 SWAP1 POP JUMP JUMPDEST PUSH1 0x0 DUP2 MLOAD SWAP1 POP SWAP2 SWAP1 POP JUMP JUMPDEST PUSH1 0x0 DUP2 MLOAD SWAP1 POP SWAP2 SWAP1 POP JUMP JUMPDEST PUSH1 0x0 PUSH1 0x20 DUP3 ADD SWAP1 POP SWAP2 SWAP1 POP JUMP JUMPDEST PUSH1 0x0 DUP3 DUP3 MSTORE PUSH1 0x20 DUP3 ADD SWAP1 POP SWAP3 SWAP2 POP POP JUMP JUMPDEST PUSH1 0x0 DUP3 DUP3 MSTORE PUSH1 0x20 DUP3 ADD SWAP1 POP SWAP3 SWAP2 POP POP JUMP JUMPDEST PUSH1 0x0 DUP3 DUP3 MSTORE PUSH1 0x20 DUP3 ADD SWAP1 POP SWAP3 SWAP2 POP POP JUMP JUMPDEST PUSH1 0x0 PUSH2 0xF16 DUP3 PUSH2 0xF7D JUMP JUMPDEST SWAP2 POP PUSH2 0xF21 DUP4 PUSH2 0xF7D JUMP JUMPDEST SWAP3 POP DUP3 DUP3 LT ISZERO PUSH2 0xF34 JUMPI PUSH2 0xF33 PUSH2 0x1075 JUMP JUMPDEST JUMPDEST DUP3 DUP3 SUB SWAP1 POP SWAP3 SWAP2 POP POP JUMP JUMPDEST PUSH1 0x0 PUSH2 0xF4A DUP3 PUSH2 0xF5D JUMP JUMPDEST SWAP1 POP SWAP2 SWAP1 POP JUMP JUMPDEST PUSH1 0x0 DUP2 ISZERO ISZERO SWAP1 POP SWAP2 SWAP1 POP JUMP JUMPDEST PUSH1 0x0 PUSH20 0xFFFFFFFFFFFFFFFFFFFFFFFFFFFFFFFFFFFFFFFF DUP3 AND SWAP1 POP SWAP2 SWAP1 POP JUMP JUMPDEST PUSH1 0x0 DUP2 SWAP1 POP SWAP2 SWAP1 POP JUMP JUMPDEST DUP3 DUP2 DUP4 CALLDATACOPY PUSH1 0x0 DUP4 DUP4 ADD MSTORE POP POP POP JUMP JUMPDEST PUSH1 0x0 JUMPDEST DUP4 DUP2 LT ISZERO PUSH2 0xFB4 JUMPI DUP1 DUP3 ADD MLOAD DUP2 DUP5 ADD MSTORE PUSH1 0x20 DUP2 ADD SWAP1 POP PUSH2 0xF99 JUMP JUMPDEST DUP4 DUP2 GT ISZERO PUSH2 0xFC3 JUMPI PUSH1 0x0 DUP5 DUP5 ADD MSTORE JUMPDEST POP POP POP POP JUMP JUMPDEST PUSH1 0x0 PUSH1 0x2 DUP3 DIV SWAP1 POP PUSH1 0x1 DUP3 AND DUP1 PUSH2 0xFE1 JUMPI PUSH1 0x7F DUP3 AND SWAP2 POP JUMPDEST PUSH1 0x20 DUP3 LT DUP2 EQ ISZERO PUSH2 0xFF5 JUMPI PUSH2 0xFF4 PUSH2 0x10A4 JUMP JUMPDEST JUMPDEST POP SWAP2 SWAP1 POP JUMP JUMPDEST PUSH2 0x1004 DUP3 PUSH2 0x1145 JUMP JUMPDEST DUP2 ADD DUP2 DUP2 LT PUSH8 0xFFFFFFFFFFFFFFFF DUP3 GT OR ISZERO PUSH2 0x1023 JUMPI PUSH2 0x1022 PUSH2 0x1102 JUMP JUMPDEST JUMPDEST DUP1 PUSH1 0x40 MSTORE POP POP POP JUMP JUMPDEST PUSH1 0x0 PUSH2 0x1037 DUP3 PUSH2 0xF7D JUMP JUMPDEST SWAP2 POP PUSH32 0xFFFFFFFFFFFFFFFFFFFFFFFFFFFFFFFFFFFFFFFFFFFFFFFFFFFFFFFFFFFFFFFF DUP3 EQ ISZERO PUSH2 0x106A JUMPI PUSH2 0x1069 PUSH2 0x1075 JUMP JUMPDEST JUMPDEST PUSH1 0x1 DUP3 ADD SWAP1 POP SWAP2 SWAP1 POP JUMP JUMPDEST PUSH32 0x4E487B7100000000000000000000000000000000000000000000000000000000 PUSH1 0x0 MSTORE PUSH1 0x11 PUSH1 0x4 MSTORE PUSH1 0x24 PUSH1 0x0 REVERT JUMPDEST PUSH32 0x4E487B7100000000000000000000000000000000000000000000000000000000 PUSH1 0x0 MSTORE PUSH1 0x22 PUSH1 0x4 MSTORE PUSH1 0x24 PUSH1 0x0 REVERT JUMPDEST PUSH32 0x4E487B7100000000000000000000000000000000000000000000000000000000 PUSH1 0x0 MSTORE PUSH1 0x32 PUSH1 0x4 MSTORE PUSH1 0x24 PUSH1 0x0 REVERT JUMPDEST PUSH32 0x4E487B7100000000000000000000000000000000000000000000000000000000 PUSH1 0x0 MSTORE PUSH1 0x41 PUSH1 0x4 MSTORE PUSH1 0x24 PUSH1 0x0 REVERT JUMPDEST PUSH1 0x0 DUP1 REVERT JUMPDEST PUSH1 0x0 DUP1 REVERT JUMPDEST PUSH1 0x0 DUP1 REVERT JUMPDEST PUSH1 0x0 DUP1 REVERT JUMPDEST PUSH1 0x0 PUSH1 0x1F NOT PUSH1 0x1F DUP4 ADD AND SWAP1 POP SWAP2 SWAP1 POP JUMP JUMPDEST PUSH2 0x115F DUP2 PUSH2 0xF7D JUMP JUMPDEST DUP2 EQ PUSH2 0x116A JUMPI PUSH1 0x0 DUP1 REVERT JUMPDEST POP JUMP INVALID LOG2 PUSH5 0x6970667358 0x22 SLT KECCAK256 SWAP7 DUP8 0x29 0xCA PUSH15 0x83EFE13D50C80EB0378C315FB22D1A DUP13 SWAP9 SELFBALANCE 0xBA JUMP CREATE2 DIFFICULTY PUSH23 0x9069B03164736F6C634300080700330000000000000000 "
				},
				"gasEstimates": {
					"creation": {
						"codeDepositCost": "903000",
						"executionCost": "5948",
						"totalCost": "908948"
					},
					"external": {
						"addOption(uint256,string)": "infinite",
						"createPool(string,string)": "infinite",
						"getNumOfOptions(uint256)": "infinite",
						"getNumOfVotes(uint256)": "infinite",
						"getOptions(uint256)": "infinite",
						"numOfPools()": "2517",
						"pools(uint256)": "infinite",
						"startPool(uint256)": "27051",
						"vote(uint256,uint256,string)": "infinite"
					}
				},
				"methodIdentifiers": {
					"addOption(uint256,string)": "ea57d5d4",
					"createPool(string,string)": "5ea81a32",
					"getNumOfOptions(uint256)": "186dd066",
					"getNumOfVotes(uint256)": "8c8e54fb",
					"getOptions(uint256)": "8915b3fb",
					"numOfPools()": "fcbd2a88",
					"pools(uint256)": "ac4afa38",
					"startPool(uint256)": "a901d15c",
					"vote(uint256,uint256,string)": "a1bbfc05"
				}
			},
			"userdoc": {
				"kind": "user",
				"methods": {},
				"version": 1
			}
		}
	}
}