{
	"contracts/eVoting_app.sol": {
		"EVoteApp": {
			"abi": [
				{
					"inputs": [
						{
							"internalType": "uint256",
							"name": "_poolIndex",
							"type": "uint256"
						},
						{
							"internalType": "string",
							"name": "_name",
							"type": "string"
						}
					],
					"name": "addOption",
					"outputs": [],
					"stateMutability": "nonpayable",
					"type": "function"
				},
				{
					"inputs": [
						{
							"internalType": "string",
							"name": "_poolName",
							"type": "string"
						},
						{
							"internalType": "string",
							"name": "_description",
							"type": "string"
						}
					],
					"name": "createPool",
					"outputs": [
						{
							"internalType": "uint256",
							"name": "",
							"type": "uint256"
						}
					],
					"stateMutability": "nonpayable",
					"type": "function"
				},
				{
					"inputs": [
						{
							"internalType": "uint256",
							"name": "_poolIndex",
							"type": "uint256"
						}
					],
					"name": "getNumOfOptions",
					"outputs": [
						{
							"internalType": "uint256",
							"name": "",
							"type": "uint256"
						}
					],
					"stateMutability": "view",
					"type": "function"
				},
				{
					"inputs": [
						{
							"internalType": "uint256",
							"name": "_poolIndex",
							"type": "uint256"
						}
					],
					"name": "getNumOfVotes",
					"outputs": [
						{
							"internalType": "uint256",
							"name": "",
							"type": "uint256"
						}
					],
					"stateMutability": "view",
					"type": "function"
				},
				{
					"inputs": [
						{
							"internalType": "uint256",
							"name": "_poolIndex",
							"type": "uint256"
						}
					],
					"name": "getOptions",
					"outputs": [
						{
							"components": [
								{
									"internalType": "string",
									"name": "name",
									"type": "string"
								},
								{
									"internalType": "uint256",
									"name": "numOfVotes",
									"type": "uint256"
								}
							],
							"internalType": "struct EVoteApp.Option[]",
							"name": "",
							"type": "tuple[]"
						}
					],
					"stateMutability": "view",
					"type": "function"
				},
				{
					"inputs": [],
					"name": "numOfActivePools",
					"outputs": [
						{
							"internalType": "uint256",
							"name": "",
							"type": "uint256"
						}
					],
					"stateMutability": "view",
					"type": "function"
				},
				{
					"inputs": [],
					"name": "numOfPools",
					"outputs": [
						{
							"internalType": "uint256",
							"name": "",
							"type": "uint256"
						}
					],
					"stateMutability": "view",
					"type": "function"
				},
				{
					"inputs": [
						{
							"internalType": "uint256",
							"name": "",
							"type": "uint256"
						}
					],
					"name": "pools",
					"outputs": [
						{
							"internalType": "string",
							"name": "name",
							"type": "string"
						},
						{
							"internalType": "string",
							"name": "description",
							"type": "string"
						},
						{
							"internalType": "uint256",
							"name": "totalVotes",
							"type": "uint256"
						},
						{
							"internalType": "address",
							"name": "owner",
							"type": "address"
						},
						{
							"internalType": "uint256",
							"name": "numOfOptions",
							"type": "uint256"
						},
						{
							"internalType": "bool",
							"name": "isActive",
							"type": "bool"
						},
						{
							"internalType": "uint256",
							"name": "poolIndex",
							"type": "uint256"
						}
					],
					"stateMutability": "view",
					"type": "function"
				},
				{
					"inputs": [
						{
							"internalType": "uint256",
							"name": "_poolIndex",
							"type": "uint256"
						}
					],
					"name": "startPool",
					"outputs": [],
					"stateMutability": "nonpayable",
					"type": "function"
				},
				{
					"inputs": [
						{
							"internalType": "uint256",
							"name": "_poolIndex",
							"type": "uint256"
						},
						{
							"internalType": "uint256",
							"name": "selectedOption",
							"type": "uint256"
						},
						{
							"internalType": "string",
							"name": "_username",
							"type": "string"
						}
					],
					"name": "vote",
					"outputs": [],
					"stateMutability": "nonpayable",
					"type": "function"
				}
			],
			"devdoc": {
				"kind": "dev",
				"methods": {},
				"version": 1
			},
			"evm": {
				"assembly": "    /* \"contracts/eVoting_app.sol\":71:3761  contract EVoteApp{... */\n  mstore(0x40, 0x80)\n    /* \"contracts/eVoting_app.sol\":829:830  0 */\n  0x00\n    /* \"contracts/eVoting_app.sol\":801:830  uint256 public numOfPools = 0 */\n  0x01\n  sstore\n    /* \"contracts/eVoting_app.sol\":870:871  0 */\n  0x00\n    /* \"contracts/eVoting_app.sol\":836:871  uint256 public numOfActivePools = 0 */\n  0x02\n  sstore\n    /* \"contracts/eVoting_app.sol\":71:3761  contract EVoteApp{... */\n  callvalue\n  dup1\n  iszero\n  tag_1\n  jumpi\n  0x00\n  dup1\n  revert\ntag_1:\n  pop\n  dataSize(sub_0)\n  dup1\n  dataOffset(sub_0)\n  0x00\n  codecopy\n  0x00\n  return\nstop\n\nsub_0: assembly {\n        /* \"contracts/eVoting_app.sol\":71:3761  contract EVoteApp{... */\n      mstore(0x40, 0x80)\n      callvalue\n      dup1\n      iszero\n      tag_1\n      jumpi\n      0x00\n      dup1\n      revert\n    tag_1:\n      pop\n      jumpi(tag_2, lt(calldatasize, 0x04))\n      shr(0xe0, calldataload(0x00))\n      dup1\n      0xa1bbfc05\n      gt\n      tag_13\n      jumpi\n      dup1\n      0xa1bbfc05\n      eq\n      tag_8\n      jumpi\n      dup1\n      0xa901d15c\n      eq\n      tag_9\n      jumpi\n      dup1\n      0xac4afa38\n      eq\n      tag_10\n      jumpi\n      dup1\n      0xea57d5d4\n      eq\n      tag_11\n      jumpi\n      dup1\n      0xfcbd2a88\n      eq\n      tag_12\n      jumpi\n      jump(tag_2)\n    tag_13:\n      dup1\n      0x186dd066\n      eq\n      tag_3\n      jumpi\n      dup1\n      0x5ea81a32\n      eq\n      tag_4\n      jumpi\n      dup1\n      0x7e1d9ba5\n      eq\n      tag_5\n      jumpi\n      dup1\n      0x8915b3fb\n      eq\n      tag_6\n      jumpi\n      dup1\n      0x8c8e54fb\n      eq\n      tag_7\n      jumpi\n    tag_2:\n      0x00\n      dup1\n      revert\n        /* \"contracts/eVoting_app.sol\":2593:2720  function getNumOfOptions(uint256 _poolIndex) public view returns(uint256){... */\n    tag_3:\n      tag_14\n      0x04\n      dup1\n      calldatasize\n      sub\n      dup2\n      add\n      swap1\n      tag_15\n      swap2\n      swap1\n      tag_16\n      jump\t// in\n    tag_15:\n      tag_17\n      jump\t// in\n    tag_14:\n      mload(0x40)\n      tag_18\n      swap2\n      swap1\n      tag_19\n      jump\t// in\n    tag_18:\n      mload(0x40)\n      dup1\n      swap2\n      sub\n      swap1\n      return\n        /* \"contracts/eVoting_app.sol\":1120:1551  function createPool(string memory _poolName, string memory _description) public returns(uint256){... */\n    tag_4:\n      tag_20\n      0x04\n      dup1\n      calldatasize\n      sub\n      dup2\n      add\n      swap1\n      tag_21\n      swap2\n      swap1\n      tag_22\n      jump\t// in\n    tag_21:\n      tag_23\n      jump\t// in\n    tag_20:\n      mload(0x40)\n      tag_24\n      swap2\n      swap1\n      tag_19\n      jump\t// in\n    tag_24:\n      mload(0x40)\n      dup1\n      swap2\n      sub\n      swap1\n      return\n        /* \"contracts/eVoting_app.sol\":836:871  uint256 public numOfActivePools = 0 */\n    tag_5:\n      tag_25\n      tag_26\n      jump\t// in\n    tag_25:\n      mload(0x40)\n      tag_27\n      swap2\n      swap1\n      tag_19\n      jump\t// in\n    tag_27:\n      mload(0x40)\n      dup1\n      swap2\n      sub\n      swap1\n      return\n        /* \"contracts/eVoting_app.sol\":2726:3051  function getOptions(uint256 _poolIndex) public view returns(Option[] memory){... */\n    tag_6:\n      tag_28\n      0x04\n      dup1\n      calldatasize\n      sub\n      dup2\n      add\n      swap1\n      tag_29\n      swap2\n      swap1\n      tag_16\n      jump\t// in\n    tag_29:\n      tag_30\n      jump\t// in\n    tag_28:\n      mload(0x40)\n      tag_31\n      swap2\n      swap1\n      tag_32\n      jump\t// in\n    tag_31:\n      mload(0x40)\n      dup1\n      swap2\n      sub\n      swap1\n      return\n        /* \"contracts/eVoting_app.sol\":2464:2587  function getNumOfVotes(uint256 _poolIndex) public view returns(uint256){... */\n    tag_7:\n      tag_33\n      0x04\n      dup1\n      calldatasize\n      sub\n      dup2\n      add\n      swap1\n      tag_34\n      swap2\n      swap1\n      tag_16\n      jump\t// in\n    tag_34:\n      tag_35\n      jump\t// in\n    tag_33:\n      mload(0x40)\n      tag_36\n      swap2\n      swap1\n      tag_19\n      jump\t// in\n    tag_36:\n      mload(0x40)\n      dup1\n      swap2\n      sub\n      swap1\n      return\n        /* \"contracts/eVoting_app.sol\":1959:2458  function vote(uint256 _poolIndex, uint256 selectedOption, string memory _username) canVote(_poolIndex) public{... */\n    tag_8:\n      tag_37\n      0x04\n      dup1\n      calldatasize\n      sub\n      dup2\n      add\n      swap1\n      tag_38\n      swap2\n      swap1\n      tag_39\n      jump\t// in\n    tag_38:\n      tag_40\n      jump\t// in\n    tag_37:\n      stop\n        /* \"contracts/eVoting_app.sol\":1771:1953  function startPool(uint256 _poolIndex) onlyOwner(_poolIndex) public{... */\n    tag_9:\n      tag_41\n      0x04\n      dup1\n      calldatasize\n      sub\n      dup2\n      add\n      swap1\n      tag_42\n      swap2\n      swap1\n      tag_16\n      jump\t// in\n    tag_42:\n      tag_43\n      jump\t// in\n    tag_41:\n      stop\n        /* \"contracts/eVoting_app.sol\":758:795  mapping(uint256 => Pool) public pools */\n    tag_10:\n      tag_44\n      0x04\n      dup1\n      calldatasize\n      sub\n      dup2\n      add\n      swap1\n      tag_45\n      swap2\n      swap1\n      tag_16\n      jump\t// in\n    tag_45:\n      tag_46\n      jump\t// in\n    tag_44:\n      mload(0x40)\n      tag_47\n      swap8\n      swap7\n      swap6\n      swap5\n      swap4\n      swap3\n      swap2\n      swap1\n      tag_48\n      jump\t// in\n    tag_47:\n      mload(0x40)\n      dup1\n      swap2\n      sub\n      swap1\n      return\n        /* \"contracts/eVoting_app.sol\":1557:1765  function addOption(uint256 _poolIndex, string memory _name) onlyOwner(_poolIndex) public{... */\n    tag_11:\n      tag_49\n      0x04\n      dup1\n      calldatasize\n      sub\n      dup2\n      add\n      swap1\n      tag_50\n      swap2\n      swap1\n      tag_51\n      jump\t// in\n    tag_50:\n      tag_52\n      jump\t// in\n    tag_49:\n      stop\n        /* \"contracts/eVoting_app.sol\":801:830  uint256 public numOfPools = 0 */\n    tag_12:\n      tag_53\n      tag_54\n      jump\t// in\n    tag_53:\n      mload(0x40)\n      tag_55\n      swap2\n      swap1\n      tag_19\n      jump\t// in\n    tag_55:\n      mload(0x40)\n      dup1\n      swap2\n      sub\n      swap1\n      return\n        /* \"contracts/eVoting_app.sol\":2593:2720  function getNumOfOptions(uint256 _poolIndex) public view returns(uint256){... */\n    tag_17:\n        /* \"contracts/eVoting_app.sol\":2658:2665  uint256 */\n      0x00\n        /* \"contracts/eVoting_app.sol\":2683:2688  pools */\n      dup1\n        /* \"contracts/eVoting_app.sol\":2683:2700  pools[_poolIndex] */\n      0x00\n        /* \"contracts/eVoting_app.sol\":2689:2699  _poolIndex */\n      dup4\n        /* \"contracts/eVoting_app.sol\":2683:2700  pools[_poolIndex] */\n      dup2\n      mstore\n      0x20\n      add\n      swap1\n      dup2\n      mstore\n      0x20\n      add\n      0x00\n      keccak256\n        /* \"contracts/eVoting_app.sol\":2683:2713  pools[_poolIndex].numOfOptions */\n      0x06\n      add\n      sload\n        /* \"contracts/eVoting_app.sol\":2676:2713  return pools[_poolIndex].numOfOptions */\n      swap1\n      pop\n        /* \"contracts/eVoting_app.sol\":2593:2720  function getNumOfOptions(uint256 _poolIndex) public view returns(uint256){... */\n      swap2\n      swap1\n      pop\n      jump\t// out\n        /* \"contracts/eVoting_app.sol\":1120:1551  function createPool(string memory _poolName, string memory _description) public returns(uint256){... */\n    tag_23:\n        /* \"contracts/eVoting_app.sol\":1208:1215  uint256 */\n      0x00\n        /* \"contracts/eVoting_app.sol\":1227:1245  Pool storage _pool */\n      dup1\n        /* \"contracts/eVoting_app.sol\":1248:1253  pools */\n      0x00\n        /* \"contracts/eVoting_app.sol\":1248:1267  pools[numOfPools++] */\n      dup1\n        /* \"contracts/eVoting_app.sol\":1254:1264  numOfPools */\n      0x01\n      0x00\n        /* \"contracts/eVoting_app.sol\":1254:1266  numOfPools++ */\n      dup2\n      sload\n      dup1\n      swap3\n      swap2\n      swap1\n      tag_58\n      swap1\n      tag_59\n      jump\t// in\n    tag_58:\n      swap2\n      swap1\n      pop\n      sstore\n        /* \"contracts/eVoting_app.sol\":1248:1267  pools[numOfPools++] */\n      dup2\n      mstore\n      0x20\n      add\n      swap1\n      dup2\n      mstore\n      0x20\n      add\n      0x00\n      keccak256\n        /* \"contracts/eVoting_app.sol\":1227:1267  Pool storage _pool = pools[numOfPools++] */\n      swap1\n      pop\n        /* \"contracts/eVoting_app.sol\":1291:1300  _poolName */\n      dup4\n        /* \"contracts/eVoting_app.sol\":1278:1283  _pool */\n      dup2\n        /* \"contracts/eVoting_app.sol\":1278:1288  _pool.name */\n      0x00\n      add\n        /* \"contracts/eVoting_app.sol\":1278:1300  _pool.name = _poolName */\n      swap1\n      dup1\n      mload\n      swap1\n      0x20\n      add\n      swap1\n      tag_60\n      swap3\n      swap2\n      swap1\n      tag_61\n      jump\t// in\n    tag_60:\n      pop\n        /* \"contracts/eVoting_app.sol\":1330:1342  _description */\n      dup3\n        /* \"contracts/eVoting_app.sol\":1310:1315  _pool */\n      dup2\n        /* \"contracts/eVoting_app.sol\":1310:1327  _pool.description */\n      0x01\n      add\n        /* \"contracts/eVoting_app.sol\":1310:1342  _pool.description = _description */\n      swap1\n      dup1\n      mload\n      swap1\n      0x20\n      add\n      swap1\n      tag_62\n      swap3\n      swap2\n      swap1\n      tag_61\n      jump\t// in\n    tag_62:\n      pop\n        /* \"contracts/eVoting_app.sol\":1371:1372  0 */\n      0x00\n        /* \"contracts/eVoting_app.sol\":1352:1357  _pool */\n      dup2\n        /* \"contracts/eVoting_app.sol\":1352:1368  _pool.totalVotes */\n      0x02\n      add\n        /* \"contracts/eVoting_app.sol\":1352:1372  _pool.totalVotes = 0 */\n      dup2\n      swap1\n      sstore\n      pop\n        /* \"contracts/eVoting_app.sol\":1396:1406  msg.sender */\n      caller\n        /* \"contracts/eVoting_app.sol\":1382:1387  _pool */\n      dup2\n        /* \"contracts/eVoting_app.sol\":1382:1393  _pool.owner */\n      0x03\n      add\n      0x00\n        /* \"contracts/eVoting_app.sol\":1382:1406  _pool.owner = msg.sender */\n      0x0100\n      exp\n      dup2\n      sload\n      dup2\n      0xffffffffffffffffffffffffffffffffffffffff\n      mul\n      not\n      and\n      swap1\n      dup4\n      0xffffffffffffffffffffffffffffffffffffffff\n      and\n      mul\n      or\n      swap1\n      sstore\n      pop\n        /* \"contracts/eVoting_app.sol\":1437:1438  0 */\n      0x00\n        /* \"contracts/eVoting_app.sol\":1416:1421  _pool */\n      dup2\n        /* \"contracts/eVoting_app.sol\":1416:1434  _pool.numOfOptions */\n      0x06\n      add\n        /* \"contracts/eVoting_app.sol\":1416:1438  _pool.numOfOptions = 0 */\n      dup2\n      swap1\n      sstore\n      pop\n        /* \"contracts/eVoting_app.sol\":1465:1470  false */\n      0x00\n        /* \"contracts/eVoting_app.sol\":1448:1453  _pool */\n      dup2\n        /* \"contracts/eVoting_app.sol\":1448:1462  _pool.isActive */\n      0x07\n      add\n      0x00\n        /* \"contracts/eVoting_app.sol\":1448:1470  _pool.isActive = false */\n      0x0100\n      exp\n      dup2\n      sload\n      dup2\n      0xff\n      mul\n      not\n      and\n      swap1\n      dup4\n      iszero\n      iszero\n      mul\n      or\n      swap1\n      sstore\n      pop\n        /* \"contracts/eVoting_app.sol\":1511:1512  1 */\n      0x01\n        /* \"contracts/eVoting_app.sol\":1498:1508  numOfPools */\n      dup1\n      sload\n        /* \"contracts/eVoting_app.sol\":1498:1512  numOfPools - 1 */\n      tag_63\n      swap2\n      swap1\n      tag_64\n      jump\t// in\n    tag_63:\n        /* \"contracts/eVoting_app.sol\":1480:1485  _pool */\n      dup2\n        /* \"contracts/eVoting_app.sol\":1480:1495  _pool.poolIndex */\n      0x08\n      add\n        /* \"contracts/eVoting_app.sol\":1480:1512  _pool.poolIndex = numOfPools - 1 */\n      dup2\n      swap1\n      sstore\n      pop\n        /* \"contracts/eVoting_app.sol\":1543:1544  1 */\n      0x01\n        /* \"contracts/eVoting_app.sol\":1530:1540  numOfPools */\n      dup1\n      sload\n        /* \"contracts/eVoting_app.sol\":1530:1544  numOfPools - 1 */\n      tag_65\n      swap2\n      swap1\n      tag_64\n      jump\t// in\n    tag_65:\n        /* \"contracts/eVoting_app.sol\":1523:1544  return numOfPools - 1 */\n      swap2\n      pop\n      pop\n        /* \"contracts/eVoting_app.sol\":1120:1551  function createPool(string memory _poolName, string memory _description) public returns(uint256){... */\n      swap3\n      swap2\n      pop\n      pop\n      jump\t// out\n        /* \"contracts/eVoting_app.sol\":836:871  uint256 public numOfActivePools = 0 */\n    tag_26:\n      sload(0x02)\n      dup2\n      jump\t// out\n        /* \"contracts/eVoting_app.sol\":2726:3051  function getOptions(uint256 _poolIndex) public view returns(Option[] memory){... */\n    tag_30:\n        /* \"contracts/eVoting_app.sol\":2786:2801  Option[] memory */\n      0x60\n        /* \"contracts/eVoting_app.sol\":2813:2837  Option[] memory _options */\n      0x00\n        /* \"contracts/eVoting_app.sol\":2853:2858  pools */\n      dup1\n        /* \"contracts/eVoting_app.sol\":2853:2870  pools[_poolIndex] */\n      0x00\n        /* \"contracts/eVoting_app.sol\":2859:2869  _poolIndex */\n      dup5\n        /* \"contracts/eVoting_app.sol\":2853:2870  pools[_poolIndex] */\n      dup2\n      mstore\n      0x20\n      add\n      swap1\n      dup2\n      mstore\n      0x20\n      add\n      0x00\n      keccak256\n        /* \"contracts/eVoting_app.sol\":2853:2883  pools[_poolIndex].numOfOptions */\n      0x06\n      add\n      sload\n        /* \"contracts/eVoting_app.sol\":2840:2884  new Option[](pools[_poolIndex].numOfOptions) */\n      0xffffffffffffffff\n      dup2\n      gt\n      iszero\n      tag_67\n      jumpi\n      tag_68\n      tag_69\n      jump\t// in\n    tag_68:\n    tag_67:\n      mload(0x40)\n      swap1\n      dup1\n      dup3\n      mstore\n      dup1\n      0x20\n      mul\n      0x20\n      add\n      dup3\n      add\n      0x40\n      mstore\n      dup1\n      iszero\n      tag_70\n      jumpi\n      dup2\n      0x20\n      add\n    tag_71:\n      tag_72\n      tag_73\n      jump\t// in\n    tag_72:\n      dup2\n      mstore\n      0x20\n      add\n      swap1\n      0x01\n      swap1\n      sub\n      swap1\n      dup2\n      tag_71\n      jumpi\n      swap1\n      pop\n    tag_70:\n      pop\n        /* \"contracts/eVoting_app.sol\":2813:2884  Option[] memory _options = new Option[](pools[_poolIndex].numOfOptions) */\n      swap1\n      pop\n        /* \"contracts/eVoting_app.sol\":2900:2906  uint i */\n      0x00\n        /* \"contracts/eVoting_app.sol\":2895:3020  for (uint i = 0; i < pools[_poolIndex].numOfOptions; i++) {... */\n    tag_74:\n        /* \"contracts/eVoting_app.sol\":2916:2921  pools */\n      0x00\n        /* \"contracts/eVoting_app.sol\":2916:2933  pools[_poolIndex] */\n      dup1\n        /* \"contracts/eVoting_app.sol\":2922:2932  _poolIndex */\n      dup6\n        /* \"contracts/eVoting_app.sol\":2916:2933  pools[_poolIndex] */\n      dup2\n      mstore\n      0x20\n      add\n      swap1\n      dup2\n      mstore\n      0x20\n      add\n      0x00\n      keccak256\n        /* \"contracts/eVoting_app.sol\":2916:2946  pools[_poolIndex].numOfOptions */\n      0x06\n      add\n      sload\n        /* \"contracts/eVoting_app.sol\":2912:2913  i */\n      dup2\n        /* \"contracts/eVoting_app.sol\":2912:2946  i < pools[_poolIndex].numOfOptions */\n      lt\n        /* \"contracts/eVoting_app.sol\":2895:3020  for (uint i = 0; i < pools[_poolIndex].numOfOptions; i++) {... */\n      iszero\n      tag_75\n      jumpi\n        /* \"contracts/eVoting_app.sol\":2981:2986  pools */\n      0x00\n        /* \"contracts/eVoting_app.sol\":2981:2998  pools[_poolIndex] */\n      dup1\n        /* \"contracts/eVoting_app.sol\":2987:2997  _poolIndex */\n      dup6\n        /* \"contracts/eVoting_app.sol\":2981:2998  pools[_poolIndex] */\n      dup2\n      mstore\n      0x20\n      add\n      swap1\n      dup2\n      mstore\n      0x20\n      add\n      0x00\n      keccak256\n        /* \"contracts/eVoting_app.sol\":2981:3006  pools[_poolIndex].options */\n      0x05\n      add\n        /* \"contracts/eVoting_app.sol\":2981:3009  pools[_poolIndex].options[i] */\n      0x00\n        /* \"contracts/eVoting_app.sol\":3007:3008  i */\n      dup3\n        /* \"contracts/eVoting_app.sol\":2981:3009  pools[_poolIndex].options[i] */\n      dup2\n      mstore\n      0x20\n      add\n      swap1\n      dup2\n      mstore\n      0x20\n      add\n      0x00\n      keccak256\n        /* \"contracts/eVoting_app.sol\":2967:3009  _options[i] = pools[_poolIndex].options[i] */\n      mload(0x40)\n      dup1\n      0x40\n      add\n      0x40\n      mstore\n      swap1\n      dup2\n      0x00\n      dup3\n      add\n      dup1\n      sload\n      tag_77\n      swap1\n      tag_78\n      jump\t// in\n    tag_77:\n      dup1\n      0x1f\n      add\n      0x20\n      dup1\n      swap2\n      div\n      mul\n      0x20\n      add\n      mload(0x40)\n      swap1\n      dup2\n      add\n      0x40\n      mstore\n      dup1\n      swap3\n      swap2\n      swap1\n      dup2\n      dup2\n      mstore\n      0x20\n      add\n      dup3\n      dup1\n      sload\n      tag_79\n      swap1\n      tag_78\n      jump\t// in\n    tag_79:\n      dup1\n      iszero\n      tag_80\n      jumpi\n      dup1\n      0x1f\n      lt\n      tag_81\n      jumpi\n      0x0100\n      dup1\n      dup4\n      sload\n      div\n      mul\n      dup4\n      mstore\n      swap2\n      0x20\n      add\n      swap2\n      jump(tag_80)\n    tag_81:\n      dup3\n      add\n      swap2\n      swap1\n      0x00\n      mstore\n      keccak256(0x00, 0x20)\n      swap1\n    tag_82:\n      dup2\n      sload\n      dup2\n      mstore\n      swap1\n      0x01\n      add\n      swap1\n      0x20\n      add\n      dup1\n      dup4\n      gt\n      tag_82\n      jumpi\n      dup3\n      swap1\n      sub\n      0x1f\n      and\n      dup3\n      add\n      swap2\n    tag_80:\n      pop\n      pop\n      pop\n      pop\n      pop\n      dup2\n      mstore\n      0x20\n      add\n      0x01\n      dup3\n      add\n      sload\n      dup2\n      mstore\n      pop\n      pop\n        /* \"contracts/eVoting_app.sol\":2967:2975  _options */\n      dup3\n        /* \"contracts/eVoting_app.sol\":2976:2977  i */\n      dup3\n        /* \"contracts/eVoting_app.sol\":2967:2978  _options[i] */\n      dup2\n      mload\n      dup2\n      lt\n      tag_83\n      jumpi\n      tag_84\n      tag_85\n      jump\t// in\n    tag_84:\n    tag_83:\n      0x20\n      mul\n      0x20\n      add\n      add\n        /* \"contracts/eVoting_app.sol\":2967:3009  _options[i] = pools[_poolIndex].options[i] */\n      dup2\n      swap1\n      mstore\n      pop\n        /* \"contracts/eVoting_app.sol\":2948:2951  i++ */\n      dup1\n      dup1\n      tag_86\n      swap1\n      tag_59\n      jump\t// in\n    tag_86:\n      swap2\n      pop\n      pop\n        /* \"contracts/eVoting_app.sol\":2895:3020  for (uint i = 0; i < pools[_poolIndex].numOfOptions; i++) {... */\n      jump(tag_74)\n    tag_75:\n      pop\n        /* \"contracts/eVoting_app.sol\":3036:3044  _options */\n      dup1\n        /* \"contracts/eVoting_app.sol\":3029:3044  return _options */\n      swap2\n      pop\n      pop\n        /* \"contracts/eVoting_app.sol\":2726:3051  function getOptions(uint256 _poolIndex) public view returns(Option[] memory){... */\n      swap2\n      swap1\n      pop\n      jump\t// out\n        /* \"contracts/eVoting_app.sol\":2464:2587  function getNumOfVotes(uint256 _poolIndex) public view returns(uint256){... */\n    tag_35:\n        /* \"contracts/eVoting_app.sol\":2527:2534  uint256 */\n      0x00\n        /* \"contracts/eVoting_app.sol\":2552:2557  pools */\n      dup1\n        /* \"contracts/eVoting_app.sol\":2552:2569  pools[_poolIndex] */\n      0x00\n        /* \"contracts/eVoting_app.sol\":2558:2568  _poolIndex */\n      dup4\n        /* \"contracts/eVoting_app.sol\":2552:2569  pools[_poolIndex] */\n      dup2\n      mstore\n      0x20\n      add\n      swap1\n      dup2\n      mstore\n      0x20\n      add\n      0x00\n      keccak256\n        /* \"contracts/eVoting_app.sol\":2552:2580  pools[_poolIndex].totalVotes */\n      0x02\n      add\n      sload\n        /* \"contracts/eVoting_app.sol\":2545:2580  return pools[_poolIndex].totalVotes */\n      swap1\n      pop\n        /* \"contracts/eVoting_app.sol\":2464:2587  function getNumOfVotes(uint256 _poolIndex) public view returns(uint256){... */\n      swap2\n      swap1\n      pop\n      jump\t// out\n        /* \"contracts/eVoting_app.sol\":1959:2458  function vote(uint256 _poolIndex, uint256 selectedOption, string memory _username) canVote(_poolIndex) public{... */\n    tag_40:\n        /* \"contracts/eVoting_app.sol\":2050:2060  _poolIndex */\n      dup3\n        /* \"contracts/eVoting_app.sol\":1051:1056  pools */\n      0x00\n        /* \"contracts/eVoting_app.sol\":1051:1068  pools[_poolIndex] */\n      dup1\n        /* \"contracts/eVoting_app.sol\":1057:1067  _poolIndex */\n      dup3\n        /* \"contracts/eVoting_app.sol\":1051:1068  pools[_poolIndex] */\n      dup2\n      mstore\n      0x20\n      add\n      swap1\n      dup2\n      mstore\n      0x20\n      add\n      0x00\n      keccak256\n        /* \"contracts/eVoting_app.sol\":1051:1075  pools[_poolIndex].voters */\n      0x04\n      add\n        /* \"contracts/eVoting_app.sol\":1051:1087  pools[_poolIndex].voters[msg.sender] */\n      0x00\n        /* \"contracts/eVoting_app.sol\":1076:1086  msg.sender */\n      caller\n        /* \"contracts/eVoting_app.sol\":1051:1087  pools[_poolIndex].voters[msg.sender] */\n      0xffffffffffffffffffffffffffffffffffffffff\n      and\n      0xffffffffffffffffffffffffffffffffffffffff\n      and\n      dup2\n      mstore\n      0x20\n      add\n      swap1\n      dup2\n      mstore\n      0x20\n      add\n      0x00\n      keccak256\n        /* \"contracts/eVoting_app.sol\":1051:1095  pools[_poolIndex].voters[msg.sender].isVoted */\n      0x02\n      add\n      0x00\n      swap1\n      sload\n      swap1\n      0x0100\n      exp\n      swap1\n      div\n      0xff\n      and\n        /* \"contracts/eVoting_app.sol\":1050:1095  !pools[_poolIndex].voters[msg.sender].isVoted */\n      iszero\n        /* \"contracts/eVoting_app.sol\":1042:1096  require(!pools[_poolIndex].voters[msg.sender].isVoted) */\n      tag_89\n      jumpi\n      0x00\n      dup1\n      revert\n    tag_89:\n        /* \"contracts/eVoting_app.sol\":2078:2096  Pool storage _pool */\n      0x00\n        /* \"contracts/eVoting_app.sol\":2099:2104  pools */\n      dup1\n        /* \"contracts/eVoting_app.sol\":2099:2116  pools[_poolIndex] */\n      0x00\n        /* \"contracts/eVoting_app.sol\":2105:2115  _poolIndex */\n      dup7\n        /* \"contracts/eVoting_app.sol\":2099:2116  pools[_poolIndex] */\n      dup2\n      mstore\n      0x20\n      add\n      swap1\n      dup2\n      mstore\n      0x20\n      add\n      0x00\n      keccak256\n        /* \"contracts/eVoting_app.sol\":2078:2116  Pool storage _pool = pools[_poolIndex] */\n      swap1\n      pop\n        /* \"contracts/eVoting_app.sol\":2127:2147  Voter storage _voter */\n      0x00\n        /* \"contracts/eVoting_app.sol\":2150:2155  _pool */\n      dup2\n        /* \"contracts/eVoting_app.sol\":2150:2162  _pool.voters */\n      0x04\n      add\n        /* \"contracts/eVoting_app.sol\":2150:2174  _pool.voters[msg.sender] */\n      0x00\n        /* \"contracts/eVoting_app.sol\":2163:2173  msg.sender */\n      caller\n        /* \"contracts/eVoting_app.sol\":2150:2174  _pool.voters[msg.sender] */\n      0xffffffffffffffffffffffffffffffffffffffff\n      and\n      0xffffffffffffffffffffffffffffffffffffffff\n      and\n      dup2\n      mstore\n      0x20\n      add\n      swap1\n      dup2\n      mstore\n      0x20\n      add\n      0x00\n      keccak256\n        /* \"contracts/eVoting_app.sol\":2127:2174  Voter storage _voter = _pool.voters[msg.sender] */\n      swap1\n      pop\n        /* \"contracts/eVoting_app.sol\":2185:2206  Option storage option */\n      0x00\n        /* \"contracts/eVoting_app.sol\":2209:2214  _pool */\n      dup3\n        /* \"contracts/eVoting_app.sol\":2209:2222  _pool.options */\n      0x05\n      add\n        /* \"contracts/eVoting_app.sol\":2209:2238  _pool.options[selectedOption] */\n      0x00\n        /* \"contracts/eVoting_app.sol\":2223:2237  selectedOption */\n      dup8\n        /* \"contracts/eVoting_app.sol\":2209:2238  _pool.options[selectedOption] */\n      dup2\n      mstore\n      0x20\n      add\n      swap1\n      dup2\n      mstore\n      0x20\n      add\n      0x00\n      keccak256\n        /* \"contracts/eVoting_app.sol\":2185:2238  Option storage option = _pool.options[selectedOption] */\n      swap1\n      pop\n        /* \"contracts/eVoting_app.sol\":2249:2254  _pool */\n      dup3\n        /* \"contracts/eVoting_app.sol\":2249:2265  _pool.totalVotes */\n      0x02\n      add\n      0x00\n        /* \"contracts/eVoting_app.sol\":2249:2267  _pool.totalVotes++ */\n      dup2\n      sload\n      dup1\n      swap3\n      swap2\n      swap1\n      tag_91\n      swap1\n      tag_59\n      jump\t// in\n    tag_91:\n      swap2\n      swap1\n      pop\n      sstore\n      pop\n        /* \"contracts/eVoting_app.sol\":2292:2301  _username */\n      dup5\n        /* \"contracts/eVoting_app.sol\":2278:2284  _voter */\n      dup3\n        /* \"contracts/eVoting_app.sol\":2278:2289  _voter.name */\n      0x00\n      add\n        /* \"contracts/eVoting_app.sol\":2278:2301  _voter.name = _username */\n      swap1\n      dup1\n      mload\n      swap1\n      0x20\n      add\n      swap1\n      tag_92\n      swap3\n      swap2\n      swap1\n      tag_61\n      jump\t// in\n    tag_92:\n      pop\n        /* \"contracts/eVoting_app.sol\":2335:2349  selectedOption */\n      dup6\n        /* \"contracts/eVoting_app.sol\":2311:2317  _voter */\n      dup3\n        /* \"contracts/eVoting_app.sol\":2311:2332  _voter.selectedOption */\n      0x01\n      add\n        /* \"contracts/eVoting_app.sol\":2311:2349  _voter.selectedOption = selectedOption */\n      dup2\n      swap1\n      sstore\n      pop\n        /* \"contracts/eVoting_app.sol\":2359:2365  _voter */\n      dup2\n        /* \"contracts/eVoting_app.sol\":2359:2388  _voter.numOfParticipatedVotes */\n      0x03\n      add\n      0x00\n        /* \"contracts/eVoting_app.sol\":2359:2390  _voter.numOfParticipatedVotes++ */\n      dup2\n      sload\n      dup1\n      swap3\n      swap2\n      swap1\n      tag_93\n      swap1\n      tag_59\n      jump\t// in\n    tag_93:\n      swap2\n      swap1\n      pop\n      sstore\n      pop\n        /* \"contracts/eVoting_app.sol\":2417:2421  true */\n      0x01\n        /* \"contracts/eVoting_app.sol\":2400:2406  _voter */\n      dup3\n        /* \"contracts/eVoting_app.sol\":2400:2414  _voter.isVoted */\n      0x02\n      add\n      0x00\n        /* \"contracts/eVoting_app.sol\":2400:2421  _voter.isVoted = true */\n      0x0100\n      exp\n      dup2\n      sload\n      dup2\n      0xff\n      mul\n      not\n      and\n      swap1\n      dup4\n      iszero\n      iszero\n      mul\n      or\n      swap1\n      sstore\n      pop\n        /* \"contracts/eVoting_app.sol\":2432:2438  option */\n      dup1\n        /* \"contracts/eVoting_app.sol\":2432:2449  option.numOfVotes */\n      0x01\n      add\n      0x00\n        /* \"contracts/eVoting_app.sol\":2432:2451  option.numOfVotes++ */\n      dup2\n      sload\n      dup1\n      swap3\n      swap2\n      swap1\n      tag_94\n      swap1\n      tag_59\n      jump\t// in\n    tag_94:\n      swap2\n      swap1\n      pop\n      sstore\n      pop\n        /* \"contracts/eVoting_app.sol\":2068:2458  {... */\n      pop\n      pop\n      pop\n        /* \"contracts/eVoting_app.sol\":1959:2458  function vote(uint256 _poolIndex, uint256 selectedOption, string memory _username) canVote(_poolIndex) public{... */\n      pop\n      pop\n      pop\n      pop\n      jump\t// out\n        /* \"contracts/eVoting_app.sol\":1771:1953  function startPool(uint256 _poolIndex) onlyOwner(_poolIndex) public{... */\n    tag_43:\n        /* \"contracts/eVoting_app.sol\":1820:1830  _poolIndex */\n      dup1\n        /* \"contracts/eVoting_app.sol\":948:953  pools */\n      0x00\n        /* \"contracts/eVoting_app.sol\":948:965  pools[_poolIndex] */\n      dup1\n        /* \"contracts/eVoting_app.sol\":954:964  _poolIndex */\n      dup3\n        /* \"contracts/eVoting_app.sol\":948:965  pools[_poolIndex] */\n      dup2\n      mstore\n      0x20\n      add\n      swap1\n      dup2\n      mstore\n      0x20\n      add\n      0x00\n      keccak256\n        /* \"contracts/eVoting_app.sol\":948:971  pools[_poolIndex].owner */\n      0x03\n      add\n      0x00\n      swap1\n      sload\n      swap1\n      0x0100\n      exp\n      swap1\n      div\n      0xffffffffffffffffffffffffffffffffffffffff\n      and\n        /* \"contracts/eVoting_app.sol\":934:971  msg.sender == pools[_poolIndex].owner */\n      0xffffffffffffffffffffffffffffffffffffffff\n      and\n        /* \"contracts/eVoting_app.sol\":934:944  msg.sender */\n      caller\n        /* \"contracts/eVoting_app.sol\":934:971  msg.sender == pools[_poolIndex].owner */\n      0xffffffffffffffffffffffffffffffffffffffff\n      and\n      eq\n        /* \"contracts/eVoting_app.sol\":926:972  require(msg.sender == pools[_poolIndex].owner) */\n      tag_96\n      jumpi\n      0x00\n      dup1\n      revert\n    tag_96:\n        /* \"contracts/eVoting_app.sol\":1848:1866  Pool storage _pool */\n      0x00\n        /* \"contracts/eVoting_app.sol\":1869:1874  pools */\n      dup1\n        /* \"contracts/eVoting_app.sol\":1869:1886  pools[_poolIndex] */\n      0x00\n        /* \"contracts/eVoting_app.sol\":1875:1885  _poolIndex */\n      dup5\n        /* \"contracts/eVoting_app.sol\":1869:1886  pools[_poolIndex] */\n      dup2\n      mstore\n      0x20\n      add\n      swap1\n      dup2\n      mstore\n      0x20\n      add\n      0x00\n      keccak256\n        /* \"contracts/eVoting_app.sol\":1848:1886  Pool storage _pool = pools[_poolIndex] */\n      swap1\n      pop\n        /* \"contracts/eVoting_app.sol\":1914:1918  true */\n      0x01\n        /* \"contracts/eVoting_app.sol\":1897:1902  _pool */\n      dup2\n        /* \"contracts/eVoting_app.sol\":1897:1911  _pool.isActive */\n      0x07\n      add\n      0x00\n        /* \"contracts/eVoting_app.sol\":1897:1918  _pool.isActive = true */\n      0x0100\n      exp\n      dup2\n      sload\n      dup2\n      0xff\n      mul\n      not\n      and\n      swap1\n      dup4\n      iszero\n      iszero\n      mul\n      or\n      swap1\n      sstore\n      pop\n        /* \"contracts/eVoting_app.sol\":1928:1944  numOfActivePools */\n      0x02\n      0x00\n        /* \"contracts/eVoting_app.sol\":1928:1946  numOfActivePools++ */\n      dup2\n      sload\n      dup1\n      swap3\n      swap2\n      swap1\n      tag_98\n      swap1\n      tag_59\n      jump\t// in\n    tag_98:\n      swap2\n      swap1\n      pop\n      sstore\n      pop\n        /* \"contracts/eVoting_app.sol\":1838:1953  {... */\n      pop\n        /* \"contracts/eVoting_app.sol\":1771:1953  function startPool(uint256 _poolIndex) onlyOwner(_poolIndex) public{... */\n      pop\n      pop\n      jump\t// out\n        /* \"contracts/eVoting_app.sol\":758:795  mapping(uint256 => Pool) public pools */\n    tag_46:\n      mstore(0x20, 0x00)\n      dup1\n      0x00\n      mstore\n      keccak256(0x00, 0x40)\n      0x00\n      swap2\n      pop\n      swap1\n      pop\n      dup1\n      0x00\n      add\n      dup1\n      sload\n      tag_99\n      swap1\n      tag_78\n      jump\t// in\n    tag_99:\n      dup1\n      0x1f\n      add\n      0x20\n      dup1\n      swap2\n      div\n      mul\n      0x20\n      add\n      mload(0x40)\n      swap1\n      dup2\n      add\n      0x40\n      mstore\n      dup1\n      swap3\n      swap2\n      swap1\n      dup2\n      dup2\n      mstore\n      0x20\n      add\n      dup3\n      dup1\n      sload\n      tag_100\n      swap1\n      tag_78\n      jump\t// in\n    tag_100:\n      dup1\n      iszero\n      tag_101\n      jumpi\n      dup1\n      0x1f\n      lt\n      tag_102\n      jumpi\n      0x0100\n      dup1\n      dup4\n      sload\n      div\n      mul\n      dup4\n      mstore\n      swap2\n      0x20\n      add\n      swap2\n      jump(tag_101)\n    tag_102:\n      dup3\n      add\n      swap2\n      swap1\n      0x00\n      mstore\n      keccak256(0x00, 0x20)\n      swap1\n    tag_103:\n      dup2\n      sload\n      dup2\n      mstore\n      swap1\n      0x01\n      add\n      swap1\n      0x20\n      add\n      dup1\n      dup4\n      gt\n      tag_103\n      jumpi\n      dup3\n      swap1\n      sub\n      0x1f\n      and\n      dup3\n      add\n      swap2\n    tag_101:\n      pop\n      pop\n      pop\n      pop\n      pop\n      swap1\n      dup1\n      0x01\n      add\n      dup1\n      sload\n      tag_104\n      swap1\n      tag_78\n      jump\t// in\n    tag_104:\n      dup1\n      0x1f\n      add\n      0x20\n      dup1\n      swap2\n      div\n      mul\n      0x20\n      add\n      mload(0x40)\n      swap1\n      dup2\n      add\n      0x40\n      mstore\n      dup1\n      swap3\n      swap2\n      swap1\n      dup2\n      dup2\n      mstore\n      0x20\n      add\n      dup3\n      dup1\n      sload\n      tag_105\n      swap1\n      tag_78\n      jump\t// in\n    tag_105:\n      dup1\n      iszero\n      tag_106\n      jumpi\n      dup1\n      0x1f\n      lt\n      tag_107\n      jumpi\n      0x0100\n      dup1\n      dup4\n      sload\n      div\n      mul\n      dup4\n      mstore\n      swap2\n      0x20\n      add\n      swap2\n      jump(tag_106)\n    tag_107:\n      dup3\n      add\n      swap2\n      swap1\n      0x00\n      mstore\n      keccak256(0x00, 0x20)\n      swap1\n    tag_108:\n      dup2\n      sload\n      dup2\n      mstore\n      swap1\n      0x01\n      add\n      swap1\n      0x20\n      add\n      dup1\n      dup4\n      gt\n      tag_108\n      jumpi\n      dup3\n      swap1\n      sub\n      0x1f\n      and\n      dup3\n      add\n      swap2\n    tag_106:\n      pop\n      pop\n      pop\n      pop\n      pop\n      swap1\n      dup1\n      0x02\n      add\n      sload\n      swap1\n      dup1\n      0x03\n      add\n      0x00\n      swap1\n      sload\n      swap1\n      0x0100\n      exp\n      swap1\n      div\n      0xffffffffffffffffffffffffffffffffffffffff\n      and\n      swap1\n      dup1\n      0x06\n      add\n      sload\n      swap1\n      dup1\n      0x07\n      add\n      0x00\n      swap1\n      sload\n      swap1\n      0x0100\n      exp\n      swap1\n      div\n      0xff\n      and\n      swap1\n      dup1\n      0x08\n      add\n      sload\n      swap1\n      pop\n      dup8\n      jump\t// out\n        /* \"contracts/eVoting_app.sol\":1557:1765  function addOption(uint256 _poolIndex, string memory _name) onlyOwner(_poolIndex) public{... */\n    tag_52:\n        /* \"contracts/eVoting_app.sol\":1627:1637  _poolIndex */\n      dup2\n        /* \"contracts/eVoting_app.sol\":948:953  pools */\n      0x00\n        /* \"contracts/eVoting_app.sol\":948:965  pools[_poolIndex] */\n      dup1\n        /* \"contracts/eVoting_app.sol\":954:964  _poolIndex */\n      dup3\n        /* \"contracts/eVoting_app.sol\":948:965  pools[_poolIndex] */\n      dup2\n      mstore\n      0x20\n      add\n      swap1\n      dup2\n      mstore\n      0x20\n      add\n      0x00\n      keccak256\n        /* \"contracts/eVoting_app.sol\":948:971  pools[_poolIndex].owner */\n      0x03\n      add\n      0x00\n      swap1\n      sload\n      swap1\n      0x0100\n      exp\n      swap1\n      div\n      0xffffffffffffffffffffffffffffffffffffffff\n      and\n        /* \"contracts/eVoting_app.sol\":934:971  msg.sender == pools[_poolIndex].owner */\n      0xffffffffffffffffffffffffffffffffffffffff\n      and\n        /* \"contracts/eVoting_app.sol\":934:944  msg.sender */\n      caller\n        /* \"contracts/eVoting_app.sol\":934:971  msg.sender == pools[_poolIndex].owner */\n      0xffffffffffffffffffffffffffffffffffffffff\n      and\n      eq\n        /* \"contracts/eVoting_app.sol\":926:972  require(msg.sender == pools[_poolIndex].owner) */\n      tag_110\n      jumpi\n      0x00\n      dup1\n      revert\n    tag_110:\n        /* \"contracts/eVoting_app.sol\":1655:1673  Pool storage _pool */\n      0x00\n        /* \"contracts/eVoting_app.sol\":1676:1681  pools */\n      dup1\n        /* \"contracts/eVoting_app.sol\":1676:1693  pools[_poolIndex] */\n      0x00\n        /* \"contracts/eVoting_app.sol\":1682:1692  _poolIndex */\n      dup6\n        /* \"contracts/eVoting_app.sol\":1676:1693  pools[_poolIndex] */\n      dup2\n      mstore\n      0x20\n      add\n      swap1\n      dup2\n      mstore\n      0x20\n      add\n      0x00\n      keccak256\n        /* \"contracts/eVoting_app.sol\":1655:1693  Pool storage _pool = pools[_poolIndex] */\n      swap1\n      pop\n        /* \"contracts/eVoting_app.sol\":1742:1758  Option(_name, 0) */\n      mload(0x40)\n      dup1\n      0x40\n      add\n      0x40\n      mstore\n      dup1\n        /* \"contracts/eVoting_app.sol\":1749:1754  _name */\n      dup5\n        /* \"contracts/eVoting_app.sol\":1742:1758  Option(_name, 0) */\n      dup2\n      mstore\n      0x20\n      add\n        /* \"contracts/eVoting_app.sol\":1756:1757  0 */\n      0x00\n        /* \"contracts/eVoting_app.sol\":1742:1758  Option(_name, 0) */\n      dup2\n      mstore\n      pop\n        /* \"contracts/eVoting_app.sol\":1704:1709  _pool */\n      dup2\n        /* \"contracts/eVoting_app.sol\":1704:1717  _pool.options */\n      0x05\n      add\n        /* \"contracts/eVoting_app.sol\":1704:1739  _pool.options[_pool.numOfOptions++] */\n      0x00\n        /* \"contracts/eVoting_app.sol\":1718:1723  _pool */\n      dup4\n        /* \"contracts/eVoting_app.sol\":1718:1736  _pool.numOfOptions */\n      0x06\n      add\n      0x00\n        /* \"contracts/eVoting_app.sol\":1718:1738  _pool.numOfOptions++ */\n      dup2\n      sload\n      dup1\n      swap3\n      swap2\n      swap1\n      tag_112\n      swap1\n      tag_59\n      jump\t// in\n    tag_112:\n      swap2\n      swap1\n      pop\n      sstore\n        /* \"contracts/eVoting_app.sol\":1704:1739  _pool.options[_pool.numOfOptions++] */\n      dup2\n      mstore\n      0x20\n      add\n      swap1\n      dup2\n      mstore\n      0x20\n      add\n      0x00\n      keccak256\n        /* \"contracts/eVoting_app.sol\":1704:1758  _pool.options[_pool.numOfOptions++] = Option(_name, 0) */\n      0x00\n      dup3\n      add\n      mload\n      dup2\n      0x00\n      add\n      swap1\n      dup1\n      mload\n      swap1\n      0x20\n      add\n      swap1\n      tag_113\n      swap3\n      swap2\n      swap1\n      tag_61\n      jump\t// in\n    tag_113:\n      pop\n      0x20\n      dup3\n      add\n      mload\n      dup2\n      0x01\n      add\n      sstore\n      swap1\n      pop\n      pop\n        /* \"contracts/eVoting_app.sol\":1645:1765  {... */\n      pop\n        /* \"contracts/eVoting_app.sol\":1557:1765  function addOption(uint256 _poolIndex, string memory _name) onlyOwner(_poolIndex) public{... */\n      pop\n      pop\n      pop\n      jump\t// out\n        /* \"contracts/eVoting_app.sol\":801:830  uint256 public numOfPools = 0 */\n    tag_54:\n      sload(0x01)\n      dup2\n      jump\t// out\n    tag_61:\n      dup3\n      dup1\n      sload\n      tag_114\n      swap1\n      tag_78\n      jump\t// in\n    tag_114:\n      swap1\n      0x00\n      mstore\n      keccak256(0x00, 0x20)\n      swap1\n      0x1f\n      add\n      0x20\n      swap1\n      div\n      dup2\n      add\n      swap3\n      dup3\n      tag_116\n      jumpi\n      0x00\n      dup6\n      sstore\n      jump(tag_115)\n    tag_116:\n      dup3\n      0x1f\n      lt\n      tag_117\n      jumpi\n      dup1\n      mload\n      not(0xff)\n      and\n      dup4\n      dup1\n      add\n      or\n      dup6\n      sstore\n      jump(tag_115)\n    tag_117:\n      dup3\n      dup1\n      add\n      0x01\n      add\n      dup6\n      sstore\n      dup3\n      iszero\n      tag_115\n      jumpi\n      swap2\n      dup3\n      add\n    tag_118:\n      dup3\n      dup2\n      gt\n      iszero\n      tag_119\n      jumpi\n      dup3\n      mload\n      dup3\n      sstore\n      swap2\n      0x20\n      add\n      swap2\n      swap1\n      0x01\n      add\n      swap1\n      jump(tag_118)\n    tag_119:\n    tag_115:\n      pop\n      swap1\n      pop\n      tag_120\n      swap2\n      swap1\n      tag_121\n      jump\t// in\n    tag_120:\n      pop\n      swap1\n      jump\t// out\n    tag_73:\n      mload(0x40)\n      dup1\n      0x40\n      add\n      0x40\n      mstore\n      dup1\n      0x60\n      dup2\n      mstore\n      0x20\n      add\n      0x00\n      dup2\n      mstore\n      pop\n      swap1\n      jump\t// out\n    tag_121:\n    tag_122:\n      dup1\n      dup3\n      gt\n      iszero\n      tag_123\n      jumpi\n      0x00\n      dup2\n      0x00\n      swap1\n      sstore\n      pop\n      0x01\n      add\n      jump(tag_122)\n    tag_123:\n      pop\n      swap1\n      jump\t// out\n        /* \"#utility.yul\":7:419   */\n    tag_125:\n        /* \"#utility.yul\":85:90   */\n      0x00\n        /* \"#utility.yul\":110:176   */\n      tag_127\n        /* \"#utility.yul\":126:175   */\n      tag_128\n        /* \"#utility.yul\":168:174   */\n      dup5\n        /* \"#utility.yul\":126:175   */\n      tag_129\n      jump\t// in\n    tag_128:\n        /* \"#utility.yul\":110:176   */\n      tag_130\n      jump\t// in\n    tag_127:\n        /* \"#utility.yul\":101:176   */\n      swap1\n      pop\n        /* \"#utility.yul\":199:205   */\n      dup3\n        /* \"#utility.yul\":192:197   */\n      dup2\n        /* \"#utility.yul\":185:206   */\n      mstore\n        /* \"#utility.yul\":237:241   */\n      0x20\n        /* \"#utility.yul\":230:235   */\n      dup2\n        /* \"#utility.yul\":226:242   */\n      add\n        /* \"#utility.yul\":275:278   */\n      dup5\n        /* \"#utility.yul\":266:272   */\n      dup5\n        /* \"#utility.yul\":261:264   */\n      dup5\n        /* \"#utility.yul\":257:273   */\n      add\n        /* \"#utility.yul\":254:279   */\n      gt\n        /* \"#utility.yul\":251:363   */\n      iszero\n      tag_131\n      jumpi\n        /* \"#utility.yul\":282:361   */\n      tag_132\n      tag_133\n      jump\t// in\n    tag_132:\n        /* \"#utility.yul\":251:363   */\n    tag_131:\n        /* \"#utility.yul\":372:413   */\n      tag_134\n        /* \"#utility.yul\":406:412   */\n      dup5\n        /* \"#utility.yul\":401:404   */\n      dup3\n        /* \"#utility.yul\":396:399   */\n      dup6\n        /* \"#utility.yul\":372:413   */\n      tag_135\n      jump\t// in\n    tag_134:\n        /* \"#utility.yul\":91:419   */\n      pop\n        /* \"#utility.yul\":7:419   */\n      swap4\n      swap3\n      pop\n      pop\n      pop\n      jump\t// out\n        /* \"#utility.yul\":439:779   */\n    tag_136:\n        /* \"#utility.yul\":495:500   */\n      0x00\n        /* \"#utility.yul\":544:547   */\n      dup3\n        /* \"#utility.yul\":537:541   */\n      0x1f\n        /* \"#utility.yul\":529:535   */\n      dup4\n        /* \"#utility.yul\":525:542   */\n      add\n        /* \"#utility.yul\":521:548   */\n      slt\n        /* \"#utility.yul\":511:633   */\n      tag_138\n      jumpi\n        /* \"#utility.yul\":552:631   */\n      tag_139\n      tag_140\n      jump\t// in\n    tag_139:\n        /* \"#utility.yul\":511:633   */\n    tag_138:\n        /* \"#utility.yul\":669:675   */\n      dup2\n        /* \"#utility.yul\":656:676   */\n      calldataload\n        /* \"#utility.yul\":694:773   */\n      tag_141\n        /* \"#utility.yul\":769:772   */\n      dup5\n        /* \"#utility.yul\":761:767   */\n      dup3\n        /* \"#utility.yul\":754:758   */\n      0x20\n        /* \"#utility.yul\":746:752   */\n      dup7\n        /* \"#utility.yul\":742:759   */\n      add\n        /* \"#utility.yul\":694:773   */\n      tag_125\n      jump\t// in\n    tag_141:\n        /* \"#utility.yul\":685:773   */\n      swap2\n      pop\n        /* \"#utility.yul\":501:779   */\n      pop\n        /* \"#utility.yul\":439:779   */\n      swap3\n      swap2\n      pop\n      pop\n      jump\t// out\n        /* \"#utility.yul\":785:924   */\n    tag_142:\n        /* \"#utility.yul\":831:836   */\n      0x00\n        /* \"#utility.yul\":869:875   */\n      dup2\n        /* \"#utility.yul\":856:876   */\n      calldataload\n        /* \"#utility.yul\":847:876   */\n      swap1\n      pop\n        /* \"#utility.yul\":885:918   */\n      tag_144\n        /* \"#utility.yul\":912:917   */\n      dup2\n        /* \"#utility.yul\":885:918   */\n      tag_145\n      jump\t// in\n    tag_144:\n        /* \"#utility.yul\":785:924   */\n      swap3\n      swap2\n      pop\n      pop\n      jump\t// out\n        /* \"#utility.yul\":930:1764   */\n    tag_22:\n        /* \"#utility.yul\":1018:1024   */\n      0x00\n        /* \"#utility.yul\":1026:1032   */\n      dup1\n        /* \"#utility.yul\":1075:1077   */\n      0x40\n        /* \"#utility.yul\":1063:1072   */\n      dup4\n        /* \"#utility.yul\":1054:1061   */\n      dup6\n        /* \"#utility.yul\":1050:1073   */\n      sub\n        /* \"#utility.yul\":1046:1078   */\n      slt\n        /* \"#utility.yul\":1043:1162   */\n      iszero\n      tag_147\n      jumpi\n        /* \"#utility.yul\":1081:1160   */\n      tag_148\n      tag_149\n      jump\t// in\n    tag_148:\n        /* \"#utility.yul\":1043:1162   */\n    tag_147:\n        /* \"#utility.yul\":1229:1230   */\n      0x00\n        /* \"#utility.yul\":1218:1227   */\n      dup4\n        /* \"#utility.yul\":1214:1231   */\n      add\n        /* \"#utility.yul\":1201:1232   */\n      calldataload\n        /* \"#utility.yul\":1259:1277   */\n      0xffffffffffffffff\n        /* \"#utility.yul\":1251:1257   */\n      dup2\n        /* \"#utility.yul\":1248:1278   */\n      gt\n        /* \"#utility.yul\":1245:1362   */\n      iszero\n      tag_150\n      jumpi\n        /* \"#utility.yul\":1281:1360   */\n      tag_151\n      tag_152\n      jump\t// in\n    tag_151:\n        /* \"#utility.yul\":1245:1362   */\n    tag_150:\n        /* \"#utility.yul\":1386:1449   */\n      tag_153\n        /* \"#utility.yul\":1441:1448   */\n      dup6\n        /* \"#utility.yul\":1432:1438   */\n      dup3\n        /* \"#utility.yul\":1421:1430   */\n      dup7\n        /* \"#utility.yul\":1417:1439   */\n      add\n        /* \"#utility.yul\":1386:1449   */\n      tag_136\n      jump\t// in\n    tag_153:\n        /* \"#utility.yul\":1376:1449   */\n      swap3\n      pop\n        /* \"#utility.yul\":1172:1459   */\n      pop\n        /* \"#utility.yul\":1526:1528   */\n      0x20\n        /* \"#utility.yul\":1515:1524   */\n      dup4\n        /* \"#utility.yul\":1511:1529   */\n      add\n        /* \"#utility.yul\":1498:1530   */\n      calldataload\n        /* \"#utility.yul\":1557:1575   */\n      0xffffffffffffffff\n        /* \"#utility.yul\":1549:1555   */\n      dup2\n        /* \"#utility.yul\":1546:1576   */\n      gt\n        /* \"#utility.yul\":1543:1660   */\n      iszero\n      tag_154\n      jumpi\n        /* \"#utility.yul\":1579:1658   */\n      tag_155\n      tag_152\n      jump\t// in\n    tag_155:\n        /* \"#utility.yul\":1543:1660   */\n    tag_154:\n        /* \"#utility.yul\":1684:1747   */\n      tag_156\n        /* \"#utility.yul\":1739:1746   */\n      dup6\n        /* \"#utility.yul\":1730:1736   */\n      dup3\n        /* \"#utility.yul\":1719:1728   */\n      dup7\n        /* \"#utility.yul\":1715:1737   */\n      add\n        /* \"#utility.yul\":1684:1747   */\n      tag_136\n      jump\t// in\n    tag_156:\n        /* \"#utility.yul\":1674:1747   */\n      swap2\n      pop\n        /* \"#utility.yul\":1469:1757   */\n      pop\n        /* \"#utility.yul\":930:1764   */\n      swap3\n      pop\n      swap3\n      swap1\n      pop\n      jump\t// out\n        /* \"#utility.yul\":1770:2099   */\n    tag_16:\n        /* \"#utility.yul\":1829:1835   */\n      0x00\n        /* \"#utility.yul\":1878:1880   */\n      0x20\n        /* \"#utility.yul\":1866:1875   */\n      dup3\n        /* \"#utility.yul\":1857:1864   */\n      dup5\n        /* \"#utility.yul\":1853:1876   */\n      sub\n        /* \"#utility.yul\":1849:1881   */\n      slt\n        /* \"#utility.yul\":1846:1965   */\n      iszero\n      tag_158\n      jumpi\n        /* \"#utility.yul\":1884:1963   */\n      tag_159\n      tag_149\n      jump\t// in\n    tag_159:\n        /* \"#utility.yul\":1846:1965   */\n    tag_158:\n        /* \"#utility.yul\":2004:2005   */\n      0x00\n        /* \"#utility.yul\":2029:2082   */\n      tag_160\n        /* \"#utility.yul\":2074:2081   */\n      dup5\n        /* \"#utility.yul\":2065:2071   */\n      dup3\n        /* \"#utility.yul\":2054:2063   */\n      dup6\n        /* \"#utility.yul\":2050:2072   */\n      add\n        /* \"#utility.yul\":2029:2082   */\n      tag_142\n      jump\t// in\n    tag_160:\n        /* \"#utility.yul\":2019:2082   */\n      swap2\n      pop\n        /* \"#utility.yul\":1975:2092   */\n      pop\n        /* \"#utility.yul\":1770:2099   */\n      swap3\n      swap2\n      pop\n      pop\n      jump\t// out\n        /* \"#utility.yul\":2105:2759   */\n    tag_51:\n        /* \"#utility.yul\":2183:2189   */\n      0x00\n        /* \"#utility.yul\":2191:2197   */\n      dup1\n        /* \"#utility.yul\":2240:2242   */\n      0x40\n        /* \"#utility.yul\":2228:2237   */\n      dup4\n        /* \"#utility.yul\":2219:2226   */\n      dup6\n        /* \"#utility.yul\":2215:2238   */\n      sub\n        /* \"#utility.yul\":2211:2243   */\n      slt\n        /* \"#utility.yul\":2208:2327   */\n      iszero\n      tag_162\n      jumpi\n        /* \"#utility.yul\":2246:2325   */\n      tag_163\n      tag_149\n      jump\t// in\n    tag_163:\n        /* \"#utility.yul\":2208:2327   */\n    tag_162:\n        /* \"#utility.yul\":2366:2367   */\n      0x00\n        /* \"#utility.yul\":2391:2444   */\n      tag_164\n        /* \"#utility.yul\":2436:2443   */\n      dup6\n        /* \"#utility.yul\":2427:2433   */\n      dup3\n        /* \"#utility.yul\":2416:2425   */\n      dup7\n        /* \"#utility.yul\":2412:2434   */\n      add\n        /* \"#utility.yul\":2391:2444   */\n      tag_142\n      jump\t// in\n    tag_164:\n        /* \"#utility.yul\":2381:2444   */\n      swap3\n      pop\n        /* \"#utility.yul\":2337:2454   */\n      pop\n        /* \"#utility.yul\":2521:2523   */\n      0x20\n        /* \"#utility.yul\":2510:2519   */\n      dup4\n        /* \"#utility.yul\":2506:2524   */\n      add\n        /* \"#utility.yul\":2493:2525   */\n      calldataload\n        /* \"#utility.yul\":2552:2570   */\n      0xffffffffffffffff\n        /* \"#utility.yul\":2544:2550   */\n      dup2\n        /* \"#utility.yul\":2541:2571   */\n      gt\n        /* \"#utility.yul\":2538:2655   */\n      iszero\n      tag_165\n      jumpi\n        /* \"#utility.yul\":2574:2653   */\n      tag_166\n      tag_152\n      jump\t// in\n    tag_166:\n        /* \"#utility.yul\":2538:2655   */\n    tag_165:\n        /* \"#utility.yul\":2679:2742   */\n      tag_167\n        /* \"#utility.yul\":2734:2741   */\n      dup6\n        /* \"#utility.yul\":2725:2731   */\n      dup3\n        /* \"#utility.yul\":2714:2723   */\n      dup7\n        /* \"#utility.yul\":2710:2732   */\n      add\n        /* \"#utility.yul\":2679:2742   */\n      tag_136\n      jump\t// in\n    tag_167:\n        /* \"#utility.yul\":2669:2742   */\n      swap2\n      pop\n        /* \"#utility.yul\":2464:2752   */\n      pop\n        /* \"#utility.yul\":2105:2759   */\n      swap3\n      pop\n      swap3\n      swap1\n      pop\n      jump\t// out\n        /* \"#utility.yul\":2765:3564   */\n    tag_39:\n        /* \"#utility.yul\":2852:2858   */\n      0x00\n        /* \"#utility.yul\":2860:2866   */\n      dup1\n        /* \"#utility.yul\":2868:2874   */\n      0x00\n        /* \"#utility.yul\":2917:2919   */\n      0x60\n        /* \"#utility.yul\":2905:2914   */\n      dup5\n        /* \"#utility.yul\":2896:2903   */\n      dup7\n        /* \"#utility.yul\":2892:2915   */\n      sub\n        /* \"#utility.yul\":2888:2920   */\n      slt\n        /* \"#utility.yul\":2885:3004   */\n      iszero\n      tag_169\n      jumpi\n        /* \"#utility.yul\":2923:3002   */\n      tag_170\n      tag_149\n      jump\t// in\n    tag_170:\n        /* \"#utility.yul\":2885:3004   */\n    tag_169:\n        /* \"#utility.yul\":3043:3044   */\n      0x00\n        /* \"#utility.yul\":3068:3121   */\n      tag_171\n        /* \"#utility.yul\":3113:3120   */\n      dup7\n        /* \"#utility.yul\":3104:3110   */\n      dup3\n        /* \"#utility.yul\":3093:3102   */\n      dup8\n        /* \"#utility.yul\":3089:3111   */\n      add\n        /* \"#utility.yul\":3068:3121   */\n      tag_142\n      jump\t// in\n    tag_171:\n        /* \"#utility.yul\":3058:3121   */\n      swap4\n      pop\n        /* \"#utility.yul\":3014:3131   */\n      pop\n        /* \"#utility.yul\":3170:3172   */\n      0x20\n        /* \"#utility.yul\":3196:3249   */\n      tag_172\n        /* \"#utility.yul\":3241:3248   */\n      dup7\n        /* \"#utility.yul\":3232:3238   */\n      dup3\n        /* \"#utility.yul\":3221:3230   */\n      dup8\n        /* \"#utility.yul\":3217:3239   */\n      add\n        /* \"#utility.yul\":3196:3249   */\n      tag_142\n      jump\t// in\n    tag_172:\n        /* \"#utility.yul\":3186:3249   */\n      swap3\n      pop\n        /* \"#utility.yul\":3141:3259   */\n      pop\n        /* \"#utility.yul\":3326:3328   */\n      0x40\n        /* \"#utility.yul\":3315:3324   */\n      dup5\n        /* \"#utility.yul\":3311:3329   */\n      add\n        /* \"#utility.yul\":3298:3330   */\n      calldataload\n        /* \"#utility.yul\":3357:3375   */\n      0xffffffffffffffff\n        /* \"#utility.yul\":3349:3355   */\n      dup2\n        /* \"#utility.yul\":3346:3376   */\n      gt\n        /* \"#utility.yul\":3343:3460   */\n      iszero\n      tag_173\n      jumpi\n        /* \"#utility.yul\":3379:3458   */\n      tag_174\n      tag_152\n      jump\t// in\n    tag_174:\n        /* \"#utility.yul\":3343:3460   */\n    tag_173:\n        /* \"#utility.yul\":3484:3547   */\n      tag_175\n        /* \"#utility.yul\":3539:3546   */\n      dup7\n        /* \"#utility.yul\":3530:3536   */\n      dup3\n        /* \"#utility.yul\":3519:3528   */\n      dup8\n        /* \"#utility.yul\":3515:3537   */\n      add\n        /* \"#utility.yul\":3484:3547   */\n      tag_136\n      jump\t// in\n    tag_175:\n        /* \"#utility.yul\":3474:3547   */\n      swap2\n      pop\n        /* \"#utility.yul\":3269:3557   */\n      pop\n        /* \"#utility.yul\":2765:3564   */\n      swap3\n      pop\n      swap3\n      pop\n      swap3\n      jump\t// out\n        /* \"#utility.yul\":3570:3814   */\n    tag_176:\n        /* \"#utility.yul\":3683:3693   */\n      0x00\n        /* \"#utility.yul\":3718:3808   */\n      tag_178\n        /* \"#utility.yul\":3804:3807   */\n      dup4\n        /* \"#utility.yul\":3796:3802   */\n      dup4\n        /* \"#utility.yul\":3718:3808   */\n      tag_179\n      jump\t// in\n    tag_178:\n        /* \"#utility.yul\":3704:3808   */\n      swap1\n      pop\n        /* \"#utility.yul\":3570:3814   */\n      swap3\n      swap2\n      pop\n      pop\n      jump\t// out\n        /* \"#utility.yul\":3820:3938   */\n    tag_180:\n        /* \"#utility.yul\":3907:3931   */\n      tag_182\n        /* \"#utility.yul\":3925:3930   */\n      dup2\n        /* \"#utility.yul\":3907:3931   */\n      tag_183\n      jump\t// in\n    tag_182:\n        /* \"#utility.yul\":3902:3905   */\n      dup3\n        /* \"#utility.yul\":3895:3932   */\n      mstore\n        /* \"#utility.yul\":3820:3938   */\n      pop\n      pop\n      jump\t// out\n        /* \"#utility.yul\":4004:5091   */\n    tag_184:\n        /* \"#utility.yul\":4167:4170   */\n      0x00\n        /* \"#utility.yul\":4196:4272   */\n      tag_186\n        /* \"#utility.yul\":4266:4271   */\n      dup3\n        /* \"#utility.yul\":4196:4272   */\n      tag_187\n      jump\t// in\n    tag_186:\n        /* \"#utility.yul\":4288:4396   */\n      tag_188\n        /* \"#utility.yul\":4389:4395   */\n      dup2\n        /* \"#utility.yul\":4384:4387   */\n      dup6\n        /* \"#utility.yul\":4288:4396   */\n      tag_189\n      jump\t// in\n    tag_188:\n        /* \"#utility.yul\":4281:4396   */\n      swap4\n      pop\n        /* \"#utility.yul\":4422:4425   */\n      dup4\n        /* \"#utility.yul\":4467:4471   */\n      0x20\n        /* \"#utility.yul\":4459:4465   */\n      dup3\n        /* \"#utility.yul\":4455:4472   */\n      mul\n        /* \"#utility.yul\":4450:4453   */\n      dup6\n        /* \"#utility.yul\":4446:4473   */\n      add\n        /* \"#utility.yul\":4497:4575   */\n      tag_190\n        /* \"#utility.yul\":4569:4574   */\n      dup6\n        /* \"#utility.yul\":4497:4575   */\n      tag_191\n      jump\t// in\n    tag_190:\n        /* \"#utility.yul\":4598:4605   */\n      dup1\n        /* \"#utility.yul\":4629:4630   */\n      0x00\n        /* \"#utility.yul\":4614:5046   */\n    tag_192:\n        /* \"#utility.yul\":4639:4645   */\n      dup6\n        /* \"#utility.yul\":4636:4637   */\n      dup2\n        /* \"#utility.yul\":4633:4646   */\n      lt\n        /* \"#utility.yul\":4614:5046   */\n      iszero\n      tag_194\n      jumpi\n        /* \"#utility.yul\":4710:4719   */\n      dup5\n        /* \"#utility.yul\":4704:4708   */\n      dup5\n        /* \"#utility.yul\":4700:4720   */\n      sub\n        /* \"#utility.yul\":4695:4698   */\n      dup10\n        /* \"#utility.yul\":4688:4721   */\n      mstore\n        /* \"#utility.yul\":4761:4767   */\n      dup2\n        /* \"#utility.yul\":4755:4768   */\n      mload\n        /* \"#utility.yul\":4789:4897   */\n      tag_195\n        /* \"#utility.yul\":4892:4896   */\n      dup6\n        /* \"#utility.yul\":4877:4890   */\n      dup3\n        /* \"#utility.yul\":4789:4897   */\n      tag_176\n      jump\t// in\n    tag_195:\n        /* \"#utility.yul\":4781:4897   */\n      swap5\n      pop\n        /* \"#utility.yul\":4920:5002   */\n      tag_196\n        /* \"#utility.yul\":4995:5001   */\n      dup4\n        /* \"#utility.yul\":4920:5002   */\n      tag_197\n      jump\t// in\n    tag_196:\n        /* \"#utility.yul\":4910:5002   */\n      swap3\n      pop\n        /* \"#utility.yul\":5031:5035   */\n      0x20\n        /* \"#utility.yul\":5026:5029   */\n      dup11\n        /* \"#utility.yul\":5022:5036   */\n      add\n        /* \"#utility.yul\":5015:5036   */\n      swap10\n      pop\n        /* \"#utility.yul\":4674:5046   */\n      pop\n        /* \"#utility.yul\":4661:4662   */\n      0x01\n        /* \"#utility.yul\":4658:4659   */\n      dup2\n        /* \"#utility.yul\":4654:4663   */\n      add\n        /* \"#utility.yul\":4649:4663   */\n      swap1\n      pop\n        /* \"#utility.yul\":4614:5046   */\n      jump(tag_192)\n    tag_194:\n        /* \"#utility.yul\":4618:4632   */\n      pop\n        /* \"#utility.yul\":5062:5066   */\n      dup3\n        /* \"#utility.yul\":5055:5066   */\n      swap8\n      pop\n        /* \"#utility.yul\":5082:5085   */\n      dup8\n        /* \"#utility.yul\":5075:5085   */\n      swap6\n      pop\n        /* \"#utility.yul\":4172:5091   */\n      pop\n      pop\n      pop\n      pop\n      pop\n        /* \"#utility.yul\":4004:5091   */\n      swap3\n      swap2\n      pop\n      pop\n      jump\t// out\n        /* \"#utility.yul\":5097:5206   */\n    tag_198:\n        /* \"#utility.yul\":5178:5199   */\n      tag_200\n        /* \"#utility.yul\":5193:5198   */\n      dup2\n        /* \"#utility.yul\":5178:5199   */\n      tag_201\n      jump\t// in\n    tag_200:\n        /* \"#utility.yul\":5173:5176   */\n      dup3\n        /* \"#utility.yul\":5166:5200   */\n      mstore\n        /* \"#utility.yul\":5097:5206   */\n      pop\n      pop\n      jump\t// out\n        /* \"#utility.yul\":5212:5556   */\n    tag_202:\n        /* \"#utility.yul\":5290:5293   */\n      0x00\n        /* \"#utility.yul\":5318:5357   */\n      tag_204\n        /* \"#utility.yul\":5351:5356   */\n      dup3\n        /* \"#utility.yul\":5318:5357   */\n      tag_205\n      jump\t// in\n    tag_204:\n        /* \"#utility.yul\":5373:5434   */\n      tag_206\n        /* \"#utility.yul\":5427:5433   */\n      dup2\n        /* \"#utility.yul\":5422:5425   */\n      dup6\n        /* \"#utility.yul\":5373:5434   */\n      tag_207\n      jump\t// in\n    tag_206:\n        /* \"#utility.yul\":5366:5434   */\n      swap4\n      pop\n        /* \"#utility.yul\":5443:5495   */\n      tag_208\n        /* \"#utility.yul\":5488:5494   */\n      dup2\n        /* \"#utility.yul\":5483:5486   */\n      dup6\n        /* \"#utility.yul\":5476:5480   */\n      0x20\n        /* \"#utility.yul\":5469:5474   */\n      dup7\n        /* \"#utility.yul\":5465:5481   */\n      add\n        /* \"#utility.yul\":5443:5495   */\n      tag_209\n      jump\t// in\n    tag_208:\n        /* \"#utility.yul\":5520:5549   */\n      tag_210\n        /* \"#utility.yul\":5542:5548   */\n      dup2\n        /* \"#utility.yul\":5520:5549   */\n      tag_211\n      jump\t// in\n    tag_210:\n        /* \"#utility.yul\":5515:5518   */\n      dup5\n        /* \"#utility.yul\":5511:5550   */\n      add\n        /* \"#utility.yul\":5504:5550   */\n      swap2\n      pop\n        /* \"#utility.yul\":5294:5556   */\n      pop\n        /* \"#utility.yul\":5212:5556   */\n      swap3\n      swap2\n      pop\n      pop\n      jump\t// out\n        /* \"#utility.yul\":5562:5926   */\n    tag_212:\n        /* \"#utility.yul\":5650:5653   */\n      0x00\n        /* \"#utility.yul\":5678:5717   */\n      tag_214\n        /* \"#utility.yul\":5711:5716   */\n      dup3\n        /* \"#utility.yul\":5678:5717   */\n      tag_205\n      jump\t// in\n    tag_214:\n        /* \"#utility.yul\":5733:5804   */\n      tag_215\n        /* \"#utility.yul\":5797:5803   */\n      dup2\n        /* \"#utility.yul\":5792:5795   */\n      dup6\n        /* \"#utility.yul\":5733:5804   */\n      tag_216\n      jump\t// in\n    tag_215:\n        /* \"#utility.yul\":5726:5804   */\n      swap4\n      pop\n        /* \"#utility.yul\":5813:5865   */\n      tag_217\n        /* \"#utility.yul\":5858:5864   */\n      dup2\n        /* \"#utility.yul\":5853:5856   */\n      dup6\n        /* \"#utility.yul\":5846:5850   */\n      0x20\n        /* \"#utility.yul\":5839:5844   */\n      dup7\n        /* \"#utility.yul\":5835:5851   */\n      add\n        /* \"#utility.yul\":5813:5865   */\n      tag_209\n      jump\t// in\n    tag_217:\n        /* \"#utility.yul\":5890:5919   */\n      tag_218\n        /* \"#utility.yul\":5912:5918   */\n      dup2\n        /* \"#utility.yul\":5890:5919   */\n      tag_211\n      jump\t// in\n    tag_218:\n        /* \"#utility.yul\":5885:5888   */\n      dup5\n        /* \"#utility.yul\":5881:5920   */\n      add\n        /* \"#utility.yul\":5874:5920   */\n      swap2\n      pop\n        /* \"#utility.yul\":5654:5926   */\n      pop\n        /* \"#utility.yul\":5562:5926   */\n      swap3\n      swap2\n      pop\n      pop\n      jump\t// out\n        /* \"#utility.yul\":5988:6584   */\n    tag_179:\n        /* \"#utility.yul\":6091:6094   */\n      0x00\n        /* \"#utility.yul\":6127:6131   */\n      0x40\n        /* \"#utility.yul\":6122:6125   */\n      dup4\n        /* \"#utility.yul\":6118:6132   */\n      add\n        /* \"#utility.yul\":6214:6218   */\n      0x00\n        /* \"#utility.yul\":6207:6212   */\n      dup4\n        /* \"#utility.yul\":6203:6219   */\n      add\n        /* \"#utility.yul\":6197:6220   */\n      mload\n        /* \"#utility.yul\":6267:6270   */\n      dup5\n        /* \"#utility.yul\":6261:6265   */\n      dup3\n        /* \"#utility.yul\":6257:6271   */\n      sub\n        /* \"#utility.yul\":6250:6254   */\n      0x00\n        /* \"#utility.yul\":6245:6248   */\n      dup7\n        /* \"#utility.yul\":6241:6255   */\n      add\n        /* \"#utility.yul\":6234:6272   */\n      mstore\n        /* \"#utility.yul\":6293:6366   */\n      tag_220\n        /* \"#utility.yul\":6361:6365   */\n      dup3\n        /* \"#utility.yul\":6347:6359   */\n      dup3\n        /* \"#utility.yul\":6293:6366   */\n      tag_202\n      jump\t// in\n    tag_220:\n        /* \"#utility.yul\":6285:6366   */\n      swap2\n      pop\n        /* \"#utility.yul\":6142:6377   */\n      pop\n        /* \"#utility.yul\":6465:6469   */\n      0x20\n        /* \"#utility.yul\":6458:6463   */\n      dup4\n        /* \"#utility.yul\":6454:6470   */\n      add\n        /* \"#utility.yul\":6448:6471   */\n      mload\n        /* \"#utility.yul\":6484:6547   */\n      tag_221\n        /* \"#utility.yul\":6541:6545   */\n      0x20\n        /* \"#utility.yul\":6536:6539   */\n      dup7\n        /* \"#utility.yul\":6532:6546   */\n      add\n        /* \"#utility.yul\":6518:6530   */\n      dup3\n        /* \"#utility.yul\":6484:6547   */\n      tag_222\n      jump\t// in\n    tag_221:\n        /* \"#utility.yul\":6387:6557   */\n      pop\n        /* \"#utility.yul\":6574:6578   */\n      dup1\n        /* \"#utility.yul\":6567:6578   */\n      swap2\n      pop\n        /* \"#utility.yul\":6096:6584   */\n      pop\n        /* \"#utility.yul\":5988:6584   */\n      swap3\n      swap2\n      pop\n      pop\n      jump\t// out\n        /* \"#utility.yul\":6590:6698   */\n    tag_222:\n        /* \"#utility.yul\":6667:6691   */\n      tag_224\n        /* \"#utility.yul\":6685:6690   */\n      dup2\n        /* \"#utility.yul\":6667:6691   */\n      tag_225\n      jump\t// in\n    tag_224:\n        /* \"#utility.yul\":6662:6665   */\n      dup3\n        /* \"#utility.yul\":6655:6692   */\n      mstore\n        /* \"#utility.yul\":6590:6698   */\n      pop\n      pop\n      jump\t// out\n        /* \"#utility.yul\":6704:6822   */\n    tag_226:\n        /* \"#utility.yul\":6791:6815   */\n      tag_228\n        /* \"#utility.yul\":6809:6814   */\n      dup2\n        /* \"#utility.yul\":6791:6815   */\n      tag_225\n      jump\t// in\n    tag_228:\n        /* \"#utility.yul\":6786:6789   */\n      dup3\n        /* \"#utility.yul\":6779:6816   */\n      mstore\n        /* \"#utility.yul\":6704:6822   */\n      pop\n      pop\n      jump\t// out\n        /* \"#utility.yul\":6828:7289   */\n    tag_32:\n        /* \"#utility.yul\":7015:7019   */\n      0x00\n        /* \"#utility.yul\":7053:7055   */\n      0x20\n        /* \"#utility.yul\":7042:7051   */\n      dup3\n        /* \"#utility.yul\":7038:7056   */\n      add\n        /* \"#utility.yul\":7030:7056   */\n      swap1\n      pop\n        /* \"#utility.yul\":7102:7111   */\n      dup2\n        /* \"#utility.yul\":7096:7100   */\n      dup2\n        /* \"#utility.yul\":7092:7112   */\n      sub\n        /* \"#utility.yul\":7088:7089   */\n      0x00\n        /* \"#utility.yul\":7077:7086   */\n      dup4\n        /* \"#utility.yul\":7073:7090   */\n      add\n        /* \"#utility.yul\":7066:7113   */\n      mstore\n        /* \"#utility.yul\":7130:7282   */\n      tag_230\n        /* \"#utility.yul\":7277:7281   */\n      dup2\n        /* \"#utility.yul\":7268:7274   */\n      dup5\n        /* \"#utility.yul\":7130:7282   */\n      tag_184\n      jump\t// in\n    tag_230:\n        /* \"#utility.yul\":7122:7282   */\n      swap1\n      pop\n        /* \"#utility.yul\":6828:7289   */\n      swap3\n      swap2\n      pop\n      pop\n      jump\t// out\n        /* \"#utility.yul\":7295:8351   */\n    tag_48:\n        /* \"#utility.yul\":7590:7594   */\n      0x00\n        /* \"#utility.yul\":7628:7631   */\n      0xe0\n        /* \"#utility.yul\":7617:7626   */\n      dup3\n        /* \"#utility.yul\":7613:7632   */\n      add\n        /* \"#utility.yul\":7605:7632   */\n      swap1\n      pop\n        /* \"#utility.yul\":7678:7687   */\n      dup2\n        /* \"#utility.yul\":7672:7676   */\n      dup2\n        /* \"#utility.yul\":7668:7688   */\n      sub\n        /* \"#utility.yul\":7664:7665   */\n      0x00\n        /* \"#utility.yul\":7653:7662   */\n      dup4\n        /* \"#utility.yul\":7649:7666   */\n      add\n        /* \"#utility.yul\":7642:7689   */\n      mstore\n        /* \"#utility.yul\":7706:7784   */\n      tag_232\n        /* \"#utility.yul\":7779:7783   */\n      dup2\n        /* \"#utility.yul\":7770:7776   */\n      dup11\n        /* \"#utility.yul\":7706:7784   */\n      tag_212\n      jump\t// in\n    tag_232:\n        /* \"#utility.yul\":7698:7784   */\n      swap1\n      pop\n        /* \"#utility.yul\":7831:7840   */\n      dup2\n        /* \"#utility.yul\":7825:7829   */\n      dup2\n        /* \"#utility.yul\":7821:7841   */\n      sub\n        /* \"#utility.yul\":7816:7818   */\n      0x20\n        /* \"#utility.yul\":7805:7814   */\n      dup4\n        /* \"#utility.yul\":7801:7819   */\n      add\n        /* \"#utility.yul\":7794:7842   */\n      mstore\n        /* \"#utility.yul\":7859:7937   */\n      tag_233\n        /* \"#utility.yul\":7932:7936   */\n      dup2\n        /* \"#utility.yul\":7923:7929   */\n      dup10\n        /* \"#utility.yul\":7859:7937   */\n      tag_212\n      jump\t// in\n    tag_233:\n        /* \"#utility.yul\":7851:7937   */\n      swap1\n      pop\n        /* \"#utility.yul\":7947:8019   */\n      tag_234\n        /* \"#utility.yul\":8015:8017   */\n      0x40\n        /* \"#utility.yul\":8004:8013   */\n      dup4\n        /* \"#utility.yul\":8000:8018   */\n      add\n        /* \"#utility.yul\":7991:7997   */\n      dup9\n        /* \"#utility.yul\":7947:8019   */\n      tag_226\n      jump\t// in\n    tag_234:\n        /* \"#utility.yul\":8029:8101   */\n      tag_235\n        /* \"#utility.yul\":8097:8099   */\n      0x60\n        /* \"#utility.yul\":8086:8095   */\n      dup4\n        /* \"#utility.yul\":8082:8100   */\n      add\n        /* \"#utility.yul\":8073:8079   */\n      dup8\n        /* \"#utility.yul\":8029:8101   */\n      tag_180\n      jump\t// in\n    tag_235:\n        /* \"#utility.yul\":8111:8184   */\n      tag_236\n        /* \"#utility.yul\":8179:8182   */\n      0x80\n        /* \"#utility.yul\":8168:8177   */\n      dup4\n        /* \"#utility.yul\":8164:8183   */\n      add\n        /* \"#utility.yul\":8155:8161   */\n      dup7\n        /* \"#utility.yul\":8111:8184   */\n      tag_226\n      jump\t// in\n    tag_236:\n        /* \"#utility.yul\":8194:8261   */\n      tag_237\n        /* \"#utility.yul\":8256:8259   */\n      0xa0\n        /* \"#utility.yul\":8245:8254   */\n      dup4\n        /* \"#utility.yul\":8241:8260   */\n      add\n        /* \"#utility.yul\":8232:8238   */\n      dup6\n        /* \"#utility.yul\":8194:8261   */\n      tag_198\n      jump\t// in\n    tag_237:\n        /* \"#utility.yul\":8271:8344   */\n      tag_238\n        /* \"#utility.yul\":8339:8342   */\n      0xc0\n        /* \"#utility.yul\":8328:8337   */\n      dup4\n        /* \"#utility.yul\":8324:8343   */\n      add\n        /* \"#utility.yul\":8315:8321   */\n      dup5\n        /* \"#utility.yul\":8271:8344   */\n      tag_226\n      jump\t// in\n    tag_238:\n        /* \"#utility.yul\":7295:8351   */\n      swap9\n      swap8\n      pop\n      pop\n      pop\n      pop\n      pop\n      pop\n      pop\n      pop\n      jump\t// out\n        /* \"#utility.yul\":8357:8579   */\n    tag_19:\n        /* \"#utility.yul\":8450:8454   */\n      0x00\n        /* \"#utility.yul\":8488:8490   */\n      0x20\n        /* \"#utility.yul\":8477:8486   */\n      dup3\n        /* \"#utility.yul\":8473:8491   */\n      add\n        /* \"#utility.yul\":8465:8491   */\n      swap1\n      pop\n        /* \"#utility.yul\":8501:8572   */\n      tag_240\n        /* \"#utility.yul\":8569:8570   */\n      0x00\n        /* \"#utility.yul\":8558:8567   */\n      dup4\n        /* \"#utility.yul\":8554:8571   */\n      add\n        /* \"#utility.yul\":8545:8551   */\n      dup5\n        /* \"#utility.yul\":8501:8572   */\n      tag_226\n      jump\t// in\n    tag_240:\n        /* \"#utility.yul\":8357:8579   */\n      swap3\n      swap2\n      pop\n      pop\n      jump\t// out\n        /* \"#utility.yul\":8585:8714   */\n    tag_130:\n        /* \"#utility.yul\":8619:8625   */\n      0x00\n        /* \"#utility.yul\":8646:8666   */\n      tag_242\n      tag_243\n      jump\t// in\n    tag_242:\n        /* \"#utility.yul\":8636:8666   */\n      swap1\n      pop\n        /* \"#utility.yul\":8675:8708   */\n      tag_244\n        /* \"#utility.yul\":8703:8707   */\n      dup3\n        /* \"#utility.yul\":8695:8701   */\n      dup3\n        /* \"#utility.yul\":8675:8708   */\n      tag_245\n      jump\t// in\n    tag_244:\n        /* \"#utility.yul\":8585:8714   */\n      swap2\n      swap1\n      pop\n      jump\t// out\n        /* \"#utility.yul\":8720:8795   */\n    tag_243:\n        /* \"#utility.yul\":8753:8759   */\n      0x00\n        /* \"#utility.yul\":8786:8788   */\n      0x40\n        /* \"#utility.yul\":8780:8789   */\n      mload\n        /* \"#utility.yul\":8770:8789   */\n      swap1\n      pop\n        /* \"#utility.yul\":8720:8795   */\n      swap1\n      jump\t// out\n        /* \"#utility.yul\":8801:9109   */\n    tag_129:\n        /* \"#utility.yul\":8863:8867   */\n      0x00\n        /* \"#utility.yul\":8953:8971   */\n      0xffffffffffffffff\n        /* \"#utility.yul\":8945:8951   */\n      dup3\n        /* \"#utility.yul\":8942:8972   */\n      gt\n        /* \"#utility.yul\":8939:8995   */\n      iszero\n      tag_248\n      jumpi\n        /* \"#utility.yul\":8975:8993   */\n      tag_249\n      tag_69\n      jump\t// in\n    tag_249:\n        /* \"#utility.yul\":8939:8995   */\n    tag_248:\n        /* \"#utility.yul\":9013:9042   */\n      tag_250\n        /* \"#utility.yul\":9035:9041   */\n      dup3\n        /* \"#utility.yul\":9013:9042   */\n      tag_211\n      jump\t// in\n    tag_250:\n        /* \"#utility.yul\":9005:9042   */\n      swap1\n      pop\n        /* \"#utility.yul\":9097:9101   */\n      0x20\n        /* \"#utility.yul\":9091:9095   */\n      dup2\n        /* \"#utility.yul\":9087:9102   */\n      add\n        /* \"#utility.yul\":9079:9102   */\n      swap1\n      pop\n        /* \"#utility.yul\":8801:9109   */\n      swap2\n      swap1\n      pop\n      jump\t// out\n        /* \"#utility.yul\":9115:9269   */\n    tag_191:\n        /* \"#utility.yul\":9204:9208   */\n      0x00\n        /* \"#utility.yul\":9227:9230   */\n      dup2\n        /* \"#utility.yul\":9219:9230   */\n      swap1\n      pop\n        /* \"#utility.yul\":9257:9261   */\n      0x20\n        /* \"#utility.yul\":9252:9255   */\n      dup3\n        /* \"#utility.yul\":9248:9262   */\n      add\n        /* \"#utility.yul\":9240:9262   */\n      swap1\n      pop\n        /* \"#utility.yul\":9115:9269   */\n      swap2\n      swap1\n      pop\n      jump\t// out\n        /* \"#utility.yul\":9275:9411   */\n    tag_187:\n        /* \"#utility.yul\":9364:9370   */\n      0x00\n        /* \"#utility.yul\":9398:9403   */\n      dup2\n        /* \"#utility.yul\":9392:9404   */\n      mload\n        /* \"#utility.yul\":9382:9404   */\n      swap1\n      pop\n        /* \"#utility.yul\":9275:9411   */\n      swap2\n      swap1\n      pop\n      jump\t// out\n        /* \"#utility.yul\":9417:9516   */\n    tag_205:\n        /* \"#utility.yul\":9469:9475   */\n      0x00\n        /* \"#utility.yul\":9503:9508   */\n      dup2\n        /* \"#utility.yul\":9497:9509   */\n      mload\n        /* \"#utility.yul\":9487:9509   */\n      swap1\n      pop\n        /* \"#utility.yul\":9417:9516   */\n      swap2\n      swap1\n      pop\n      jump\t// out\n        /* \"#utility.yul\":9522:9657   */\n    tag_197:\n        /* \"#utility.yul\":9614:9618   */\n      0x00\n        /* \"#utility.yul\":9646:9650   */\n      0x20\n        /* \"#utility.yul\":9641:9644   */\n      dup3\n        /* \"#utility.yul\":9637:9651   */\n      add\n        /* \"#utility.yul\":9629:9651   */\n      swap1\n      pop\n        /* \"#utility.yul\":9522:9657   */\n      swap2\n      swap1\n      pop\n      jump\t// out\n        /* \"#utility.yul\":9663:9869   */\n    tag_189:\n        /* \"#utility.yul\":9784:9795   */\n      0x00\n        /* \"#utility.yul\":9818:9824   */\n      dup3\n        /* \"#utility.yul\":9813:9816   */\n      dup3\n        /* \"#utility.yul\":9806:9825   */\n      mstore\n        /* \"#utility.yul\":9858:9862   */\n      0x20\n        /* \"#utility.yul\":9853:9856   */\n      dup3\n        /* \"#utility.yul\":9849:9863   */\n      add\n        /* \"#utility.yul\":9834:9863   */\n      swap1\n      pop\n        /* \"#utility.yul\":9663:9869   */\n      swap3\n      swap2\n      pop\n      pop\n      jump\t// out\n        /* \"#utility.yul\":9875:10034   */\n    tag_207:\n        /* \"#utility.yul\":9949:9960   */\n      0x00\n        /* \"#utility.yul\":9983:9989   */\n      dup3\n        /* \"#utility.yul\":9978:9981   */\n      dup3\n        /* \"#utility.yul\":9971:9990   */\n      mstore\n        /* \"#utility.yul\":10023:10027   */\n      0x20\n        /* \"#utility.yul\":10018:10021   */\n      dup3\n        /* \"#utility.yul\":10014:10028   */\n      add\n        /* \"#utility.yul\":9999:10028   */\n      swap1\n      pop\n        /* \"#utility.yul\":9875:10034   */\n      swap3\n      swap2\n      pop\n      pop\n      jump\t// out\n        /* \"#utility.yul\":10040:10209   */\n    tag_216:\n        /* \"#utility.yul\":10124:10135   */\n      0x00\n        /* \"#utility.yul\":10158:10164   */\n      dup3\n        /* \"#utility.yul\":10153:10156   */\n      dup3\n        /* \"#utility.yul\":10146:10165   */\n      mstore\n        /* \"#utility.yul\":10198:10202   */\n      0x20\n        /* \"#utility.yul\":10193:10196   */\n      dup3\n        /* \"#utility.yul\":10189:10203   */\n      add\n        /* \"#utility.yul\":10174:10203   */\n      swap1\n      pop\n        /* \"#utility.yul\":10040:10209   */\n      swap3\n      swap2\n      pop\n      pop\n      jump\t// out\n        /* \"#utility.yul\":10215:10406   */\n    tag_64:\n        /* \"#utility.yul\":10255:10259   */\n      0x00\n        /* \"#utility.yul\":10275:10295   */\n      tag_259\n        /* \"#utility.yul\":10293:10294   */\n      dup3\n        /* \"#utility.yul\":10275:10295   */\n      tag_225\n      jump\t// in\n    tag_259:\n        /* \"#utility.yul\":10270:10295   */\n      swap2\n      pop\n        /* \"#utility.yul\":10309:10329   */\n      tag_260\n        /* \"#utility.yul\":10327:10328   */\n      dup4\n        /* \"#utility.yul\":10309:10329   */\n      tag_225\n      jump\t// in\n    tag_260:\n        /* \"#utility.yul\":10304:10329   */\n      swap3\n      pop\n        /* \"#utility.yul\":10348:10349   */\n      dup3\n        /* \"#utility.yul\":10345:10346   */\n      dup3\n        /* \"#utility.yul\":10342:10350   */\n      lt\n        /* \"#utility.yul\":10339:10373   */\n      iszero\n      tag_261\n      jumpi\n        /* \"#utility.yul\":10353:10371   */\n      tag_262\n      tag_263\n      jump\t// in\n    tag_262:\n        /* \"#utility.yul\":10339:10373   */\n    tag_261:\n        /* \"#utility.yul\":10398:10399   */\n      dup3\n        /* \"#utility.yul\":10395:10396   */\n      dup3\n        /* \"#utility.yul\":10391:10400   */\n      sub\n        /* \"#utility.yul\":10383:10400   */\n      swap1\n      pop\n        /* \"#utility.yul\":10215:10406   */\n      swap3\n      swap2\n      pop\n      pop\n      jump\t// out\n        /* \"#utility.yul\":10412:10508   */\n    tag_183:\n        /* \"#utility.yul\":10449:10456   */\n      0x00\n        /* \"#utility.yul\":10478:10502   */\n      tag_265\n        /* \"#utility.yul\":10496:10501   */\n      dup3\n        /* \"#utility.yul\":10478:10502   */\n      tag_266\n      jump\t// in\n    tag_265:\n        /* \"#utility.yul\":10467:10502   */\n      swap1\n      pop\n        /* \"#utility.yul\":10412:10508   */\n      swap2\n      swap1\n      pop\n      jump\t// out\n        /* \"#utility.yul\":10514:10604   */\n    tag_201:\n        /* \"#utility.yul\":10548:10555   */\n      0x00\n        /* \"#utility.yul\":10591:10596   */\n      dup2\n        /* \"#utility.yul\":10584:10597   */\n      iszero\n        /* \"#utility.yul\":10577:10598   */\n      iszero\n        /* \"#utility.yul\":10566:10598   */\n      swap1\n      pop\n        /* \"#utility.yul\":10514:10604   */\n      swap2\n      swap1\n      pop\n      jump\t// out\n        /* \"#utility.yul\":10610:10736   */\n    tag_266:\n        /* \"#utility.yul\":10647:10654   */\n      0x00\n        /* \"#utility.yul\":10687:10729   */\n      0xffffffffffffffffffffffffffffffffffffffff\n        /* \"#utility.yul\":10680:10685   */\n      dup3\n        /* \"#utility.yul\":10676:10730   */\n      and\n        /* \"#utility.yul\":10665:10730   */\n      swap1\n      pop\n        /* \"#utility.yul\":10610:10736   */\n      swap2\n      swap1\n      pop\n      jump\t// out\n        /* \"#utility.yul\":10742:10819   */\n    tag_225:\n        /* \"#utility.yul\":10779:10786   */\n      0x00\n        /* \"#utility.yul\":10808:10813   */\n      dup2\n        /* \"#utility.yul\":10797:10813   */\n      swap1\n      pop\n        /* \"#utility.yul\":10742:10819   */\n      swap2\n      swap1\n      pop\n      jump\t// out\n        /* \"#utility.yul\":10825:10979   */\n    tag_135:\n        /* \"#utility.yul\":10909:10915   */\n      dup3\n        /* \"#utility.yul\":10904:10907   */\n      dup2\n        /* \"#utility.yul\":10899:10902   */\n      dup4\n        /* \"#utility.yul\":10886:10916   */\n      calldatacopy\n        /* \"#utility.yul\":10971:10972   */\n      0x00\n        /* \"#utility.yul\":10962:10968   */\n      dup4\n        /* \"#utility.yul\":10957:10960   */\n      dup4\n        /* \"#utility.yul\":10953:10969   */\n      add\n        /* \"#utility.yul\":10946:10973   */\n      mstore\n        /* \"#utility.yul\":10825:10979   */\n      pop\n      pop\n      pop\n      jump\t// out\n        /* \"#utility.yul\":10985:11292   */\n    tag_209:\n        /* \"#utility.yul\":11053:11054   */\n      0x00\n        /* \"#utility.yul\":11063:11176   */\n    tag_272:\n        /* \"#utility.yul\":11077:11083   */\n      dup4\n        /* \"#utility.yul\":11074:11075   */\n      dup2\n        /* \"#utility.yul\":11071:11084   */\n      lt\n        /* \"#utility.yul\":11063:11176   */\n      iszero\n      tag_274\n      jumpi\n        /* \"#utility.yul\":11162:11163   */\n      dup1\n        /* \"#utility.yul\":11157:11160   */\n      dup3\n        /* \"#utility.yul\":11153:11164   */\n      add\n        /* \"#utility.yul\":11147:11165   */\n      mload\n        /* \"#utility.yul\":11143:11144   */\n      dup2\n        /* \"#utility.yul\":11138:11141   */\n      dup5\n        /* \"#utility.yul\":11134:11145   */\n      add\n        /* \"#utility.yul\":11127:11166   */\n      mstore\n        /* \"#utility.yul\":11099:11101   */\n      0x20\n        /* \"#utility.yul\":11096:11097   */\n      dup2\n        /* \"#utility.yul\":11092:11102   */\n      add\n        /* \"#utility.yul\":11087:11102   */\n      swap1\n      pop\n        /* \"#utility.yul\":11063:11176   */\n      jump(tag_272)\n    tag_274:\n        /* \"#utility.yul\":11194:11200   */\n      dup4\n        /* \"#utility.yul\":11191:11192   */\n      dup2\n        /* \"#utility.yul\":11188:11201   */\n      gt\n        /* \"#utility.yul\":11185:11286   */\n      iszero\n      tag_275\n      jumpi\n        /* \"#utility.yul\":11274:11275   */\n      0x00\n        /* \"#utility.yul\":11265:11271   */\n      dup5\n        /* \"#utility.yul\":11260:11263   */\n      dup5\n        /* \"#utility.yul\":11256:11272   */\n      add\n        /* \"#utility.yul\":11249:11276   */\n      mstore\n        /* \"#utility.yul\":11185:11286   */\n    tag_275:\n        /* \"#utility.yul\":11034:11292   */\n      pop\n        /* \"#utility.yul\":10985:11292   */\n      pop\n      pop\n      pop\n      jump\t// out\n        /* \"#utility.yul\":11298:11618   */\n    tag_78:\n        /* \"#utility.yul\":11342:11348   */\n      0x00\n        /* \"#utility.yul\":11379:11380   */\n      0x02\n        /* \"#utility.yul\":11373:11377   */\n      dup3\n        /* \"#utility.yul\":11369:11381   */\n      div\n        /* \"#utility.yul\":11359:11381   */\n      swap1\n      pop\n        /* \"#utility.yul\":11426:11427   */\n      0x01\n        /* \"#utility.yul\":11420:11424   */\n      dup3\n        /* \"#utility.yul\":11416:11428   */\n      and\n        /* \"#utility.yul\":11447:11465   */\n      dup1\n        /* \"#utility.yul\":11437:11518   */\n      tag_277\n      jumpi\n        /* \"#utility.yul\":11503:11507   */\n      0x7f\n        /* \"#utility.yul\":11495:11501   */\n      dup3\n        /* \"#utility.yul\":11491:11508   */\n      and\n        /* \"#utility.yul\":11481:11508   */\n      swap2\n      pop\n        /* \"#utility.yul\":11437:11518   */\n    tag_277:\n        /* \"#utility.yul\":11565:11567   */\n      0x20\n        /* \"#utility.yul\":11557:11563   */\n      dup3\n        /* \"#utility.yul\":11554:11568   */\n      lt\n        /* \"#utility.yul\":11534:11552   */\n      dup2\n        /* \"#utility.yul\":11531:11569   */\n      eq\n        /* \"#utility.yul\":11528:11612   */\n      iszero\n      tag_278\n      jumpi\n        /* \"#utility.yul\":11584:11602   */\n      tag_279\n      tag_280\n      jump\t// in\n    tag_279:\n        /* \"#utility.yul\":11528:11612   */\n    tag_278:\n        /* \"#utility.yul\":11349:11618   */\n      pop\n        /* \"#utility.yul\":11298:11618   */\n      swap2\n      swap1\n      pop\n      jump\t// out\n        /* \"#utility.yul\":11624:11905   */\n    tag_245:\n        /* \"#utility.yul\":11707:11734   */\n      tag_282\n        /* \"#utility.yul\":11729:11733   */\n      dup3\n        /* \"#utility.yul\":11707:11734   */\n      tag_211\n      jump\t// in\n    tag_282:\n        /* \"#utility.yul\":11699:11705   */\n      dup2\n        /* \"#utility.yul\":11695:11735   */\n      add\n        /* \"#utility.yul\":11837:11843   */\n      dup2\n        /* \"#utility.yul\":11825:11835   */\n      dup2\n        /* \"#utility.yul\":11822:11844   */\n      lt\n        /* \"#utility.yul\":11801:11819   */\n      0xffffffffffffffff\n        /* \"#utility.yul\":11789:11799   */\n      dup3\n        /* \"#utility.yul\":11786:11820   */\n      gt\n        /* \"#utility.yul\":11783:11845   */\n      or\n        /* \"#utility.yul\":11780:11868   */\n      iszero\n      tag_283\n      jumpi\n        /* \"#utility.yul\":11848:11866   */\n      tag_284\n      tag_69\n      jump\t// in\n    tag_284:\n        /* \"#utility.yul\":11780:11868   */\n    tag_283:\n        /* \"#utility.yul\":11888:11898   */\n      dup1\n        /* \"#utility.yul\":11884:11886   */\n      0x40\n        /* \"#utility.yul\":11877:11899   */\n      mstore\n        /* \"#utility.yul\":11667:11905   */\n      pop\n        /* \"#utility.yul\":11624:11905   */\n      pop\n      pop\n      jump\t// out\n        /* \"#utility.yul\":11911:12144   */\n    tag_59:\n        /* \"#utility.yul\":11950:11953   */\n      0x00\n        /* \"#utility.yul\":11973:11997   */\n      tag_286\n        /* \"#utility.yul\":11991:11996   */\n      dup3\n        /* \"#utility.yul\":11973:11997   */\n      tag_225\n      jump\t// in\n    tag_286:\n        /* \"#utility.yul\":11964:11997   */\n      swap2\n      pop\n        /* \"#utility.yul\":12019:12085   */\n      0xffffffffffffffffffffffffffffffffffffffffffffffffffffffffffffffff\n        /* \"#utility.yul\":12012:12017   */\n      dup3\n        /* \"#utility.yul\":12009:12086   */\n      eq\n        /* \"#utility.yul\":12006:12109   */\n      iszero\n      tag_287\n      jumpi\n        /* \"#utility.yul\":12089:12107   */\n      tag_288\n      tag_263\n      jump\t// in\n    tag_288:\n        /* \"#utility.yul\":12006:12109   */\n    tag_287:\n        /* \"#utility.yul\":12136:12137   */\n      0x01\n        /* \"#utility.yul\":12129:12134   */\n      dup3\n        /* \"#utility.yul\":12125:12138   */\n      add\n        /* \"#utility.yul\":12118:12138   */\n      swap1\n      pop\n        /* \"#utility.yul\":11911:12144   */\n      swap2\n      swap1\n      pop\n      jump\t// out\n        /* \"#utility.yul\":12150:12330   */\n    tag_263:\n        /* \"#utility.yul\":12198:12275   */\n      0x4e487b7100000000000000000000000000000000000000000000000000000000\n        /* \"#utility.yul\":12195:12196   */\n      0x00\n        /* \"#utility.yul\":12188:12276   */\n      mstore\n        /* \"#utility.yul\":12295:12299   */\n      0x11\n        /* \"#utility.yul\":12292:12293   */\n      0x04\n        /* \"#utility.yul\":12285:12300   */\n      mstore\n        /* \"#utility.yul\":12319:12323   */\n      0x24\n        /* \"#utility.yul\":12316:12317   */\n      0x00\n        /* \"#utility.yul\":12309:12324   */\n      revert\n        /* \"#utility.yul\":12336:12516   */\n    tag_280:\n        /* \"#utility.yul\":12384:12461   */\n      0x4e487b7100000000000000000000000000000000000000000000000000000000\n        /* \"#utility.yul\":12381:12382   */\n      0x00\n        /* \"#utility.yul\":12374:12462   */\n      mstore\n        /* \"#utility.yul\":12481:12485   */\n      0x22\n        /* \"#utility.yul\":12478:12479   */\n      0x04\n        /* \"#utility.yul\":12471:12486   */\n      mstore\n        /* \"#utility.yul\":12505:12509   */\n      0x24\n        /* \"#utility.yul\":12502:12503   */\n      0x00\n        /* \"#utility.yul\":12495:12510   */\n      revert\n        /* \"#utility.yul\":12522:12702   */\n    tag_85:\n        /* \"#utility.yul\":12570:12647   */\n      0x4e487b7100000000000000000000000000000000000000000000000000000000\n        /* \"#utility.yul\":12567:12568   */\n      0x00\n        /* \"#utility.yul\":12560:12648   */\n      mstore\n        /* \"#utility.yul\":12667:12671   */\n      0x32\n        /* \"#utility.yul\":12664:12665   */\n      0x04\n        /* \"#utility.yul\":12657:12672   */\n      mstore\n        /* \"#utility.yul\":12691:12695   */\n      0x24\n        /* \"#utility.yul\":12688:12689   */\n      0x00\n        /* \"#utility.yul\":12681:12696   */\n      revert\n        /* \"#utility.yul\":12708:12888   */\n    tag_69:\n        /* \"#utility.yul\":12756:12833   */\n      0x4e487b7100000000000000000000000000000000000000000000000000000000\n        /* \"#utility.yul\":12753:12754   */\n      0x00\n        /* \"#utility.yul\":12746:12834   */\n      mstore\n        /* \"#utility.yul\":12853:12857   */\n      0x41\n        /* \"#utility.yul\":12850:12851   */\n      0x04\n        /* \"#utility.yul\":12843:12858   */\n      mstore\n        /* \"#utility.yul\":12877:12881   */\n      0x24\n        /* \"#utility.yul\":12874:12875   */\n      0x00\n        /* \"#utility.yul\":12867:12882   */\n      revert\n        /* \"#utility.yul\":12894:13011   */\n    tag_140:\n        /* \"#utility.yul\":13003:13004   */\n      0x00\n        /* \"#utility.yul\":13000:13001   */\n      dup1\n        /* \"#utility.yul\":12993:13005   */\n      revert\n        /* \"#utility.yul\":13017:13134   */\n    tag_133:\n        /* \"#utility.yul\":13126:13127   */\n      0x00\n        /* \"#utility.yul\":13123:13124   */\n      dup1\n        /* \"#utility.yul\":13116:13128   */\n      revert\n        /* \"#utility.yul\":13140:13257   */\n    tag_152:\n        /* \"#utility.yul\":13249:13250   */\n      0x00\n        /* \"#utility.yul\":13246:13247   */\n      dup1\n        /* \"#utility.yul\":13239:13251   */\n      revert\n        /* \"#utility.yul\":13263:13380   */\n    tag_149:\n        /* \"#utility.yul\":13372:13373   */\n      0x00\n        /* \"#utility.yul\":13369:13370   */\n      dup1\n        /* \"#utility.yul\":13362:13374   */\n      revert\n        /* \"#utility.yul\":13386:13488   */\n    tag_211:\n        /* \"#utility.yul\":13427:13433   */\n      0x00\n        /* \"#utility.yul\":13478:13480   */\n      0x1f\n        /* \"#utility.yul\":13474:13481   */\n      not\n        /* \"#utility.yul\":13469:13471   */\n      0x1f\n        /* \"#utility.yul\":13462:13467   */\n      dup4\n        /* \"#utility.yul\":13458:13472   */\n      add\n        /* \"#utility.yul\":13454:13482   */\n      and\n        /* \"#utility.yul\":13444:13482   */\n      swap1\n      pop\n        /* \"#utility.yul\":13386:13488   */\n      swap2\n      swap1\n      pop\n      jump\t// out\n        /* \"#utility.yul\":13494:13616   */\n    tag_145:\n        /* \"#utility.yul\":13567:13591   */\n      tag_299\n        /* \"#utility.yul\":13585:13590   */\n      dup2\n        /* \"#utility.yul\":13567:13591   */\n      tag_225\n      jump\t// in\n    tag_299:\n        /* \"#utility.yul\":13560:13565   */\n      dup2\n        /* \"#utility.yul\":13557:13592   */\n      eq\n        /* \"#utility.yul\":13547:13610   */\n      tag_300\n      jumpi\n        /* \"#utility.yul\":13606:13607   */\n      0x00\n        /* \"#utility.yul\":13603:13604   */\n      dup1\n        /* \"#utility.yul\":13596:13608   */\n      revert\n        /* \"#utility.yul\":13547:13610   */\n    tag_300:\n        /* \"#utility.yul\":13494:13616   */\n      pop\n      jump\t// out\n\n    auxdata: 0xa2646970667358221220b0752cc8799ce7ce0bece555c2be69cd06e9165e76296aa11bbf079a055fa60d64736f6c63430008070033\n}\n",
				"bytecode": {
					"linkReferences": {},
					"object": "60806040526000600155600060025534801561001a57600080fd5b506111ea8061002a6000396000f3fe608060405234801561001057600080fd5b506004361061009e5760003560e01c8063a1bbfc0511610066578063a1bbfc0514610181578063a901d15c1461019d578063ac4afa38146101b9578063ea57d5d4146101ef578063fcbd2a881461020b5761009e565b8063186dd066146100a35780635ea81a32146100d35780637e1d9ba5146101035780638915b3fb146101215780638c8e54fb14610151575b600080fd5b6100bd60048036038101906100b89190610b70565b610229565b6040516100ca9190610e7b565b60405180910390f35b6100ed60048036038101906100e89190610af8565b610248565b6040516100fa9190610e7b565b60405180910390f35b61010b610348565b6040516101189190610e7b565b60405180910390f35b61013b60048036038101906101369190610b70565b61034e565b6040516101489190610ddc565b60405180910390f35b61016b60048036038101906101669190610b70565b6104e5565b6040516101789190610e7b565b60405180910390f35b61019b60048036038101906101969190610bf9565b610504565b005b6101b760048036038101906101b29190610b70565b61067c565b005b6101d360048036038101906101ce9190610b70565b61073a565b6040516101e69796959493929190610dfe565b60405180910390f35b61020960048036038101906102049190610b9d565b6108b9565b005b6102136109b0565b6040516102209190610e7b565b60405180910390f35b6000806000838152602001908152602001600020600601549050919050565b6000806000806001600081548092919061026190611073565b91905055815260200190815260200160002090508381600001908051906020019061028d9291906109b6565b50828160010190805190602001906102a69291906109b6565b5060008160020181905550338160030160006101000a81548173ffffffffffffffffffffffffffffffffffffffff021916908373ffffffffffffffffffffffffffffffffffffffff1602179055506000816006018190555060008160070160006101000a81548160ff021916908315150217905550600180546103299190610f52565b81600801819055506001805461033f9190610f52565b91505092915050565b60025481565b606060008060008481526020019081526020016000206006015467ffffffffffffffff81111561038157610380611149565b5b6040519080825280602002602001820160405280156103ba57816020015b6103a7610a3c565b81526020019060019003908161039f5790505b50905060005b600080858152602001908152602001600020600601548110156104db57600080858152602001908152602001600020600501600082815260200190815260200160002060405180604001604052908160008201805461041e90611010565b80601f016020809104026020016040519081016040528092919081815260200182805461044a90611010565b80156104975780601f1061046c57610100808354040283529160200191610497565b820191906000526020600020905b81548152906001019060200180831161047a57829003601f168201915b505050505081526020016001820154815250508282815181106104bd576104bc61111a565b5b602002602001018190525080806104d390611073565b9150506103c0565b5080915050919050565b6000806000838152602001908152602001600020600201549050919050565b8260008082815260200190815260200160002060040160003373ffffffffffffffffffffffffffffffffffffffff1673ffffffffffffffffffffffffffffffffffffffff16815260200190815260200160002060020160009054906101000a900460ff161561057257600080fd5b6000806000868152602001908152602001600020905060008160040160003373ffffffffffffffffffffffffffffffffffffffff1673ffffffffffffffffffffffffffffffffffffffff1681526020019081526020016000209050600082600501600087815260200190815260200160002090508260020160008154809291906105fb90611073565b9190505550848260000190805190602001906106189291906109b6565b5085826001018190555081600301600081548092919061063790611073565b919050555060018260020160006101000a81548160ff02191690831515021790555080600101600081548092919061066e90611073565b919050555050505050505050565b8060008082815260200190815260200160002060030160009054906101000a900473ffffffffffffffffffffffffffffffffffffffff1673ffffffffffffffffffffffffffffffffffffffff163373ffffffffffffffffffffffffffffffffffffffff16146106ea57600080fd5b6000806000848152602001908152602001600020905060018160070160006101000a81548160ff0219169083151502179055506002600081548092919061073090611073565b9190505550505050565b600060205280600052604060002060009150905080600001805461075d90611010565b80601f016020809104026020016040519081016040528092919081815260200182805461078990611010565b80156107d65780601f106107ab576101008083540402835291602001916107d6565b820191906000526020600020905b8154815290600101906020018083116107b957829003601f168201915b5050505050908060010180546107eb90611010565b80601f016020809104026020016040519081016040528092919081815260200182805461081790611010565b80156108645780601f1061083957610100808354040283529160200191610864565b820191906000526020600020905b81548152906001019060200180831161084757829003601f168201915b5050505050908060020154908060030160009054906101000a900473ffffffffffffffffffffffffffffffffffffffff16908060060154908060070160009054906101000a900460ff16908060080154905087565b8160008082815260200190815260200160002060030160009054906101000a900473ffffffffffffffffffffffffffffffffffffffff1673ffffffffffffffffffffffffffffffffffffffff163373ffffffffffffffffffffffffffffffffffffffff161461092757600080fd5b600080600085815260200190815260200160002090506040518060400160405280848152602001600081525081600501600083600601600081548092919061096e90611073565b919050558152602001908152602001600020600082015181600001908051906020019061099c9291906109b6565b506020820151816001015590505050505050565b60015481565b8280546109c290611010565b90600052602060002090601f0160209004810192826109e45760008555610a2b565b82601f106109fd57805160ff1916838001178555610a2b565b82800160010185558215610a2b579182015b82811115610a2a578251825591602001919060010190610a0f565b5b509050610a389190610a56565b5090565b604051806040016040528060608152602001600081525090565b5b80821115610a6f576000816000905550600101610a57565b5090565b6000610a86610a8184610ebb565b610e96565b905082815260208101848484011115610aa257610aa161117d565b5b610aad848285610fce565b509392505050565b600082601f830112610aca57610ac9611178565b5b8135610ada848260208601610a73565b91505092915050565b600081359050610af28161119d565b92915050565b60008060408385031215610b0f57610b0e611187565b5b600083013567ffffffffffffffff811115610b2d57610b2c611182565b5b610b3985828601610ab5565b925050602083013567ffffffffffffffff811115610b5a57610b59611182565b5b610b6685828601610ab5565b9150509250929050565b600060208284031215610b8657610b85611187565b5b6000610b9484828501610ae3565b91505092915050565b60008060408385031215610bb457610bb3611187565b5b6000610bc285828601610ae3565b925050602083013567ffffffffffffffff811115610be357610be2611182565b5b610bef85828601610ab5565b9150509250929050565b600080600060608486031215610c1257610c11611187565b5b6000610c2086828701610ae3565b9350506020610c3186828701610ae3565b925050604084013567ffffffffffffffff811115610c5257610c51611182565b5b610c5e86828701610ab5565b9150509250925092565b6000610c748383610d81565b905092915050565b610c8581610f86565b82525050565b6000610c9682610efc565b610ca08185610f1f565b935083602082028501610cb285610eec565b8060005b85811015610cee5784840389528151610ccf8582610c68565b9450610cda83610f12565b925060208a01995050600181019050610cb6565b50829750879550505050505092915050565b610d0981610f98565b82525050565b6000610d1a82610f07565b610d248185610f30565b9350610d34818560208601610fdd565b610d3d8161118c565b840191505092915050565b6000610d5382610f07565b610d5d8185610f41565b9350610d6d818560208601610fdd565b610d768161118c565b840191505092915050565b60006040830160008301518482036000860152610d9e8282610d0f565b9150506020830151610db36020860182610dbe565b508091505092915050565b610dc781610fc4565b82525050565b610dd681610fc4565b82525050565b60006020820190508181036000830152610df68184610c8b565b905092915050565b600060e0820190508181036000830152610e18818a610d48565b90508181036020830152610e2c8189610d48565b9050610e3b6040830188610dcd565b610e486060830187610c7c565b610e556080830186610dcd565b610e6260a0830185610d00565b610e6f60c0830184610dcd565b98975050505050505050565b6000602082019050610e906000830184610dcd565b92915050565b6000610ea0610eb1565b9050610eac8282611042565b919050565b6000604051905090565b600067ffffffffffffffff821115610ed657610ed5611149565b5b610edf8261118c565b9050602081019050919050565b6000819050602082019050919050565b600081519050919050565b600081519050919050565b6000602082019050919050565b600082825260208201905092915050565b600082825260208201905092915050565b600082825260208201905092915050565b6000610f5d82610fc4565b9150610f6883610fc4565b925082821015610f7b57610f7a6110bc565b5b828203905092915050565b6000610f9182610fa4565b9050919050565b60008115159050919050565b600073ffffffffffffffffffffffffffffffffffffffff82169050919050565b6000819050919050565b82818337600083830152505050565b60005b83811015610ffb578082015181840152602081019050610fe0565b8381111561100a576000848401525b50505050565b6000600282049050600182168061102857607f821691505b6020821081141561103c5761103b6110eb565b5b50919050565b61104b8261118c565b810181811067ffffffffffffffff8211171561106a57611069611149565b5b80604052505050565b600061107e82610fc4565b91507fffffffffffffffffffffffffffffffffffffffffffffffffffffffffffffffff8214156110b1576110b06110bc565b5b600182019050919050565b7f4e487b7100000000000000000000000000000000000000000000000000000000600052601160045260246000fd5b7f4e487b7100000000000000000000000000000000000000000000000000000000600052602260045260246000fd5b7f4e487b7100000000000000000000000000000000000000000000000000000000600052603260045260246000fd5b7f4e487b7100000000000000000000000000000000000000000000000000000000600052604160045260246000fd5b600080fd5b600080fd5b600080fd5b600080fd5b6000601f19601f8301169050919050565b6111a681610fc4565b81146111b157600080fd5b5056fea2646970667358221220b0752cc8799ce7ce0bece555c2be69cd06e9165e76296aa11bbf079a055fa60d64736f6c63430008070033",
					"opcodes": "PUSH1 0x80 PUSH1 0x40 MSTORE PUSH1 0x0 PUSH1 0x1 SSTORE PUSH1 0x0 PUSH1 0x2 SSTORE CALLVALUE DUP1 ISZERO PUSH2 0x1A JUMPI PUSH1 0x0 DUP1 REVERT JUMPDEST POP PUSH2 0x11EA DUP1 PUSH2 0x2A PUSH1 0x0 CODECOPY PUSH1 0x0 RETURN INVALID PUSH1 0x80 PUSH1 0x40 MSTORE CALLVALUE DUP1 ISZERO PUSH2 0x10 JUMPI PUSH1 0x0 DUP1 REVERT JUMPDEST POP PUSH1 0x4 CALLDATASIZE LT PUSH2 0x9E JUMPI PUSH1 0x0 CALLDATALOAD PUSH1 0xE0 SHR DUP1 PUSH4 0xA1BBFC05 GT PUSH2 0x66 JUMPI DUP1 PUSH4 0xA1BBFC05 EQ PUSH2 0x181 JUMPI DUP1 PUSH4 0xA901D15C EQ PUSH2 0x19D JUMPI DUP1 PUSH4 0xAC4AFA38 EQ PUSH2 0x1B9 JUMPI DUP1 PUSH4 0xEA57D5D4 EQ PUSH2 0x1EF JUMPI DUP1 PUSH4 0xFCBD2A88 EQ PUSH2 0x20B JUMPI PUSH2 0x9E JUMP JUMPDEST DUP1 PUSH4 0x186DD066 EQ PUSH2 0xA3 JUMPI DUP1 PUSH4 0x5EA81A32 EQ PUSH2 0xD3 JUMPI DUP1 PUSH4 0x7E1D9BA5 EQ PUSH2 0x103 JUMPI DUP1 PUSH4 0x8915B3FB EQ PUSH2 0x121 JUMPI DUP1 PUSH4 0x8C8E54FB EQ PUSH2 0x151 JUMPI JUMPDEST PUSH1 0x0 DUP1 REVERT JUMPDEST PUSH2 0xBD PUSH1 0x4 DUP1 CALLDATASIZE SUB DUP2 ADD SWAP1 PUSH2 0xB8 SWAP2 SWAP1 PUSH2 0xB70 JUMP JUMPDEST PUSH2 0x229 JUMP JUMPDEST PUSH1 0x40 MLOAD PUSH2 0xCA SWAP2 SWAP1 PUSH2 0xE7B JUMP JUMPDEST PUSH1 0x40 MLOAD DUP1 SWAP2 SUB SWAP1 RETURN JUMPDEST PUSH2 0xED PUSH1 0x4 DUP1 CALLDATASIZE SUB DUP2 ADD SWAP1 PUSH2 0xE8 SWAP2 SWAP1 PUSH2 0xAF8 JUMP JUMPDEST PUSH2 0x248 JUMP JUMPDEST PUSH1 0x40 MLOAD PUSH2 0xFA SWAP2 SWAP1 PUSH2 0xE7B JUMP JUMPDEST PUSH1 0x40 MLOAD DUP1 SWAP2 SUB SWAP1 RETURN JUMPDEST PUSH2 0x10B PUSH2 0x348 JUMP JUMPDEST PUSH1 0x40 MLOAD PUSH2 0x118 SWAP2 SWAP1 PUSH2 0xE7B JUMP JUMPDEST PUSH1 0x40 MLOAD DUP1 SWAP2 SUB SWAP1 RETURN JUMPDEST PUSH2 0x13B PUSH1 0x4 DUP1 CALLDATASIZE SUB DUP2 ADD SWAP1 PUSH2 0x136 SWAP2 SWAP1 PUSH2 0xB70 JUMP JUMPDEST PUSH2 0x34E JUMP JUMPDEST PUSH1 0x40 MLOAD PUSH2 0x148 SWAP2 SWAP1 PUSH2 0xDDC JUMP JUMPDEST PUSH1 0x40 MLOAD DUP1 SWAP2 SUB SWAP1 RETURN JUMPDEST PUSH2 0x16B PUSH1 0x4 DUP1 CALLDATASIZE SUB DUP2 ADD SWAP1 PUSH2 0x166 SWAP2 SWAP1 PUSH2 0xB70 JUMP JUMPDEST PUSH2 0x4E5 JUMP JUMPDEST PUSH1 0x40 MLOAD PUSH2 0x178 SWAP2 SWAP1 PUSH2 0xE7B JUMP JUMPDEST PUSH1 0x40 MLOAD DUP1 SWAP2 SUB SWAP1 RETURN JUMPDEST PUSH2 0x19B PUSH1 0x4 DUP1 CALLDATASIZE SUB DUP2 ADD SWAP1 PUSH2 0x196 SWAP2 SWAP1 PUSH2 0xBF9 JUMP JUMPDEST PUSH2 0x504 JUMP JUMPDEST STOP JUMPDEST PUSH2 0x1B7 PUSH1 0x4 DUP1 CALLDATASIZE SUB DUP2 ADD SWAP1 PUSH2 0x1B2 SWAP2 SWAP1 PUSH2 0xB70 JUMP JUMPDEST PUSH2 0x67C JUMP JUMPDEST STOP JUMPDEST PUSH2 0x1D3 PUSH1 0x4 DUP1 CALLDATASIZE SUB DUP2 ADD SWAP1 PUSH2 0x1CE SWAP2 SWAP1 PUSH2 0xB70 JUMP JUMPDEST PUSH2 0x73A JUMP JUMPDEST PUSH1 0x40 MLOAD PUSH2 0x1E6 SWAP8 SWAP7 SWAP6 SWAP5 SWAP4 SWAP3 SWAP2 SWAP1 PUSH2 0xDFE JUMP JUMPDEST PUSH1 0x40 MLOAD DUP1 SWAP2 SUB SWAP1 RETURN JUMPDEST PUSH2 0x209 PUSH1 0x4 DUP1 CALLDATASIZE SUB DUP2 ADD SWAP1 PUSH2 0x204 SWAP2 SWAP1 PUSH2 0xB9D JUMP JUMPDEST PUSH2 0x8B9 JUMP JUMPDEST STOP JUMPDEST PUSH2 0x213 PUSH2 0x9B0 JUMP JUMPDEST PUSH1 0x40 MLOAD PUSH2 0x220 SWAP2 SWAP1 PUSH2 0xE7B JUMP JUMPDEST PUSH1 0x40 MLOAD DUP1 SWAP2 SUB SWAP1 RETURN JUMPDEST PUSH1 0x0 DUP1 PUSH1 0x0 DUP4 DUP2 MSTORE PUSH1 0x20 ADD SWAP1 DUP2 MSTORE PUSH1 0x20 ADD PUSH1 0x0 KECCAK256 PUSH1 0x6 ADD SLOAD SWAP1 POP SWAP2 SWAP1 POP JUMP JUMPDEST PUSH1 0x0 DUP1 PUSH1 0x0 DUP1 PUSH1 0x1 PUSH1 0x0 DUP2 SLOAD DUP1 SWAP3 SWAP2 SWAP1 PUSH2 0x261 SWAP1 PUSH2 0x1073 JUMP JUMPDEST SWAP2 SWAP1 POP SSTORE DUP2 MSTORE PUSH1 0x20 ADD SWAP1 DUP2 MSTORE PUSH1 0x20 ADD PUSH1 0x0 KECCAK256 SWAP1 POP DUP4 DUP2 PUSH1 0x0 ADD SWAP1 DUP1 MLOAD SWAP1 PUSH1 0x20 ADD SWAP1 PUSH2 0x28D SWAP3 SWAP2 SWAP1 PUSH2 0x9B6 JUMP JUMPDEST POP DUP3 DUP2 PUSH1 0x1 ADD SWAP1 DUP1 MLOAD SWAP1 PUSH1 0x20 ADD SWAP1 PUSH2 0x2A6 SWAP3 SWAP2 SWAP1 PUSH2 0x9B6 JUMP JUMPDEST POP PUSH1 0x0 DUP2 PUSH1 0x2 ADD DUP2 SWAP1 SSTORE POP CALLER DUP2 PUSH1 0x3 ADD PUSH1 0x0 PUSH2 0x100 EXP DUP2 SLOAD DUP2 PUSH20 0xFFFFFFFFFFFFFFFFFFFFFFFFFFFFFFFFFFFFFFFF MUL NOT AND SWAP1 DUP4 PUSH20 0xFFFFFFFFFFFFFFFFFFFFFFFFFFFFFFFFFFFFFFFF AND MUL OR SWAP1 SSTORE POP PUSH1 0x0 DUP2 PUSH1 0x6 ADD DUP2 SWAP1 SSTORE POP PUSH1 0x0 DUP2 PUSH1 0x7 ADD PUSH1 0x0 PUSH2 0x100 EXP DUP2 SLOAD DUP2 PUSH1 0xFF MUL NOT AND SWAP1 DUP4 ISZERO ISZERO MUL OR SWAP1 SSTORE POP PUSH1 0x1 DUP1 SLOAD PUSH2 0x329 SWAP2 SWAP1 PUSH2 0xF52 JUMP JUMPDEST DUP2 PUSH1 0x8 ADD DUP2 SWAP1 SSTORE POP PUSH1 0x1 DUP1 SLOAD PUSH2 0x33F SWAP2 SWAP1 PUSH2 0xF52 JUMP JUMPDEST SWAP2 POP POP SWAP3 SWAP2 POP POP JUMP JUMPDEST PUSH1 0x2 SLOAD DUP2 JUMP JUMPDEST PUSH1 0x60 PUSH1 0x0 DUP1 PUSH1 0x0 DUP5 DUP2 MSTORE PUSH1 0x20 ADD SWAP1 DUP2 MSTORE PUSH1 0x20 ADD PUSH1 0x0 KECCAK256 PUSH1 0x6 ADD SLOAD PUSH8 0xFFFFFFFFFFFFFFFF DUP2 GT ISZERO PUSH2 0x381 JUMPI PUSH2 0x380 PUSH2 0x1149 JUMP JUMPDEST JUMPDEST PUSH1 0x40 MLOAD SWAP1 DUP1 DUP3 MSTORE DUP1 PUSH1 0x20 MUL PUSH1 0x20 ADD DUP3 ADD PUSH1 0x40 MSTORE DUP1 ISZERO PUSH2 0x3BA JUMPI DUP2 PUSH1 0x20 ADD JUMPDEST PUSH2 0x3A7 PUSH2 0xA3C JUMP JUMPDEST DUP2 MSTORE PUSH1 0x20 ADD SWAP1 PUSH1 0x1 SWAP1 SUB SWAP1 DUP2 PUSH2 0x39F JUMPI SWAP1 POP JUMPDEST POP SWAP1 POP PUSH1 0x0 JUMPDEST PUSH1 0x0 DUP1 DUP6 DUP2 MSTORE PUSH1 0x20 ADD SWAP1 DUP2 MSTORE PUSH1 0x20 ADD PUSH1 0x0 KECCAK256 PUSH1 0x6 ADD SLOAD DUP2 LT ISZERO PUSH2 0x4DB JUMPI PUSH1 0x0 DUP1 DUP6 DUP2 MSTORE PUSH1 0x20 ADD SWAP1 DUP2 MSTORE PUSH1 0x20 ADD PUSH1 0x0 KECCAK256 PUSH1 0x5 ADD PUSH1 0x0 DUP3 DUP2 MSTORE PUSH1 0x20 ADD SWAP1 DUP2 MSTORE PUSH1 0x20 ADD PUSH1 0x0 KECCAK256 PUSH1 0x40 MLOAD DUP1 PUSH1 0x40 ADD PUSH1 0x40 MSTORE SWAP1 DUP2 PUSH1 0x0 DUP3 ADD DUP1 SLOAD PUSH2 0x41E SWAP1 PUSH2 0x1010 JUMP JUMPDEST DUP1 PUSH1 0x1F ADD PUSH1 0x20 DUP1 SWAP2 DIV MUL PUSH1 0x20 ADD PUSH1 0x40 MLOAD SWAP1 DUP2 ADD PUSH1 0x40 MSTORE DUP1 SWAP3 SWAP2 SWAP1 DUP2 DUP2 MSTORE PUSH1 0x20 ADD DUP3 DUP1 SLOAD PUSH2 0x44A SWAP1 PUSH2 0x1010 JUMP JUMPDEST DUP1 ISZERO PUSH2 0x497 JUMPI DUP1 PUSH1 0x1F LT PUSH2 0x46C JUMPI PUSH2 0x100 DUP1 DUP4 SLOAD DIV MUL DUP4 MSTORE SWAP2 PUSH1 0x20 ADD SWAP2 PUSH2 0x497 JUMP JUMPDEST DUP3 ADD SWAP2 SWAP1 PUSH1 0x0 MSTORE PUSH1 0x20 PUSH1 0x0 KECCAK256 SWAP1 JUMPDEST DUP2 SLOAD DUP2 MSTORE SWAP1 PUSH1 0x1 ADD SWAP1 PUSH1 0x20 ADD DUP1 DUP4 GT PUSH2 0x47A JUMPI DUP3 SWAP1 SUB PUSH1 0x1F AND DUP3 ADD SWAP2 JUMPDEST POP POP POP POP POP DUP2 MSTORE PUSH1 0x20 ADD PUSH1 0x1 DUP3 ADD SLOAD DUP2 MSTORE POP POP DUP3 DUP3 DUP2 MLOAD DUP2 LT PUSH2 0x4BD JUMPI PUSH2 0x4BC PUSH2 0x111A JUMP JUMPDEST JUMPDEST PUSH1 0x20 MUL PUSH1 0x20 ADD ADD DUP2 SWAP1 MSTORE POP DUP1 DUP1 PUSH2 0x4D3 SWAP1 PUSH2 0x1073 JUMP JUMPDEST SWAP2 POP POP PUSH2 0x3C0 JUMP JUMPDEST POP DUP1 SWAP2 POP POP SWAP2 SWAP1 POP JUMP JUMPDEST PUSH1 0x0 DUP1 PUSH1 0x0 DUP4 DUP2 MSTORE PUSH1 0x20 ADD SWAP1 DUP2 MSTORE PUSH1 0x20 ADD PUSH1 0x0 KECCAK256 PUSH1 0x2 ADD SLOAD SWAP1 POP SWAP2 SWAP1 POP JUMP JUMPDEST DUP3 PUSH1 0x0 DUP1 DUP3 DUP2 MSTORE PUSH1 0x20 ADD SWAP1 DUP2 MSTORE PUSH1 0x20 ADD PUSH1 0x0 KECCAK256 PUSH1 0x4 ADD PUSH1 0x0 CALLER PUSH20 0xFFFFFFFFFFFFFFFFFFFFFFFFFFFFFFFFFFFFFFFF AND PUSH20 0xFFFFFFFFFFFFFFFFFFFFFFFFFFFFFFFFFFFFFFFF AND DUP2 MSTORE PUSH1 0x20 ADD SWAP1 DUP2 MSTORE PUSH1 0x20 ADD PUSH1 0x0 KECCAK256 PUSH1 0x2 ADD PUSH1 0x0 SWAP1 SLOAD SWAP1 PUSH2 0x100 EXP SWAP1 DIV PUSH1 0xFF AND ISZERO PUSH2 0x572 JUMPI PUSH1 0x0 DUP1 REVERT JUMPDEST PUSH1 0x0 DUP1 PUSH1 0x0 DUP7 DUP2 MSTORE PUSH1 0x20 ADD SWAP1 DUP2 MSTORE PUSH1 0x20 ADD PUSH1 0x0 KECCAK256 SWAP1 POP PUSH1 0x0 DUP2 PUSH1 0x4 ADD PUSH1 0x0 CALLER PUSH20 0xFFFFFFFFFFFFFFFFFFFFFFFFFFFFFFFFFFFFFFFF AND PUSH20 0xFFFFFFFFFFFFFFFFFFFFFFFFFFFFFFFFFFFFFFFF AND DUP2 MSTORE PUSH1 0x20 ADD SWAP1 DUP2 MSTORE PUSH1 0x20 ADD PUSH1 0x0 KECCAK256 SWAP1 POP PUSH1 0x0 DUP3 PUSH1 0x5 ADD PUSH1 0x0 DUP8 DUP2 MSTORE PUSH1 0x20 ADD SWAP1 DUP2 MSTORE PUSH1 0x20 ADD PUSH1 0x0 KECCAK256 SWAP1 POP DUP3 PUSH1 0x2 ADD PUSH1 0x0 DUP2 SLOAD DUP1 SWAP3 SWAP2 SWAP1 PUSH2 0x5FB SWAP1 PUSH2 0x1073 JUMP JUMPDEST SWAP2 SWAP1 POP SSTORE POP DUP5 DUP3 PUSH1 0x0 ADD SWAP1 DUP1 MLOAD SWAP1 PUSH1 0x20 ADD SWAP1 PUSH2 0x618 SWAP3 SWAP2 SWAP1 PUSH2 0x9B6 JUMP JUMPDEST POP DUP6 DUP3 PUSH1 0x1 ADD DUP2 SWAP1 SSTORE POP DUP2 PUSH1 0x3 ADD PUSH1 0x0 DUP2 SLOAD DUP1 SWAP3 SWAP2 SWAP1 PUSH2 0x637 SWAP1 PUSH2 0x1073 JUMP JUMPDEST SWAP2 SWAP1 POP SSTORE POP PUSH1 0x1 DUP3 PUSH1 0x2 ADD PUSH1 0x0 PUSH2 0x100 EXP DUP2 SLOAD DUP2 PUSH1 0xFF MUL NOT AND SWAP1 DUP4 ISZERO ISZERO MUL OR SWAP1 SSTORE POP DUP1 PUSH1 0x1 ADD PUSH1 0x0 DUP2 SLOAD DUP1 SWAP3 SWAP2 SWAP1 PUSH2 0x66E SWAP1 PUSH2 0x1073 JUMP JUMPDEST SWAP2 SWAP1 POP SSTORE POP POP POP POP POP POP POP POP JUMP JUMPDEST DUP1 PUSH1 0x0 DUP1 DUP3 DUP2 MSTORE PUSH1 0x20 ADD SWAP1 DUP2 MSTORE PUSH1 0x20 ADD PUSH1 0x0 KECCAK256 PUSH1 0x3 ADD PUSH1 0x0 SWAP1 SLOAD SWAP1 PUSH2 0x100 EXP SWAP1 DIV PUSH20 0xFFFFFFFFFFFFFFFFFFFFFFFFFFFFFFFFFFFFFFFF AND PUSH20 0xFFFFFFFFFFFFFFFFFFFFFFFFFFFFFFFFFFFFFFFF AND CALLER PUSH20 0xFFFFFFFFFFFFFFFFFFFFFFFFFFFFFFFFFFFFFFFF AND EQ PUSH2 0x6EA JUMPI PUSH1 0x0 DUP1 REVERT JUMPDEST PUSH1 0x0 DUP1 PUSH1 0x0 DUP5 DUP2 MSTORE PUSH1 0x20 ADD SWAP1 DUP2 MSTORE PUSH1 0x20 ADD PUSH1 0x0 KECCAK256 SWAP1 POP PUSH1 0x1 DUP2 PUSH1 0x7 ADD PUSH1 0x0 PUSH2 0x100 EXP DUP2 SLOAD DUP2 PUSH1 0xFF MUL NOT AND SWAP1 DUP4 ISZERO ISZERO MUL OR SWAP1 SSTORE POP PUSH1 0x2 PUSH1 0x0 DUP2 SLOAD DUP1 SWAP3 SWAP2 SWAP1 PUSH2 0x730 SWAP1 PUSH2 0x1073 JUMP JUMPDEST SWAP2 SWAP1 POP SSTORE POP POP POP POP JUMP JUMPDEST PUSH1 0x0 PUSH1 0x20 MSTORE DUP1 PUSH1 0x0 MSTORE PUSH1 0x40 PUSH1 0x0 KECCAK256 PUSH1 0x0 SWAP2 POP SWAP1 POP DUP1 PUSH1 0x0 ADD DUP1 SLOAD PUSH2 0x75D SWAP1 PUSH2 0x1010 JUMP JUMPDEST DUP1 PUSH1 0x1F ADD PUSH1 0x20 DUP1 SWAP2 DIV MUL PUSH1 0x20 ADD PUSH1 0x40 MLOAD SWAP1 DUP2 ADD PUSH1 0x40 MSTORE DUP1 SWAP3 SWAP2 SWAP1 DUP2 DUP2 MSTORE PUSH1 0x20 ADD DUP3 DUP1 SLOAD PUSH2 0x789 SWAP1 PUSH2 0x1010 JUMP JUMPDEST DUP1 ISZERO PUSH2 0x7D6 JUMPI DUP1 PUSH1 0x1F LT PUSH2 0x7AB JUMPI PUSH2 0x100 DUP1 DUP4 SLOAD DIV MUL DUP4 MSTORE SWAP2 PUSH1 0x20 ADD SWAP2 PUSH2 0x7D6 JUMP JUMPDEST DUP3 ADD SWAP2 SWAP1 PUSH1 0x0 MSTORE PUSH1 0x20 PUSH1 0x0 KECCAK256 SWAP1 JUMPDEST DUP2 SLOAD DUP2 MSTORE SWAP1 PUSH1 0x1 ADD SWAP1 PUSH1 0x20 ADD DUP1 DUP4 GT PUSH2 0x7B9 JUMPI DUP3 SWAP1 SUB PUSH1 0x1F AND DUP3 ADD SWAP2 JUMPDEST POP POP POP POP POP SWAP1 DUP1 PUSH1 0x1 ADD DUP1 SLOAD PUSH2 0x7EB SWAP1 PUSH2 0x1010 JUMP JUMPDEST DUP1 PUSH1 0x1F ADD PUSH1 0x20 DUP1 SWAP2 DIV MUL PUSH1 0x20 ADD PUSH1 0x40 MLOAD SWAP1 DUP2 ADD PUSH1 0x40 MSTORE DUP1 SWAP3 SWAP2 SWAP1 DUP2 DUP2 MSTORE PUSH1 0x20 ADD DUP3 DUP1 SLOAD PUSH2 0x817 SWAP1 PUSH2 0x1010 JUMP JUMPDEST DUP1 ISZERO PUSH2 0x864 JUMPI DUP1 PUSH1 0x1F LT PUSH2 0x839 JUMPI PUSH2 0x100 DUP1 DUP4 SLOAD DIV MUL DUP4 MSTORE SWAP2 PUSH1 0x20 ADD SWAP2 PUSH2 0x864 JUMP JUMPDEST DUP3 ADD SWAP2 SWAP1 PUSH1 0x0 MSTORE PUSH1 0x20 PUSH1 0x0 KECCAK256 SWAP1 JUMPDEST DUP2 SLOAD DUP2 MSTORE SWAP1 PUSH1 0x1 ADD SWAP1 PUSH1 0x20 ADD DUP1 DUP4 GT PUSH2 0x847 JUMPI DUP3 SWAP1 SUB PUSH1 0x1F AND DUP3 ADD SWAP2 JUMPDEST POP POP POP POP POP SWAP1 DUP1 PUSH1 0x2 ADD SLOAD SWAP1 DUP1 PUSH1 0x3 ADD PUSH1 0x0 SWAP1 SLOAD SWAP1 PUSH2 0x100 EXP SWAP1 DIV PUSH20 0xFFFFFFFFFFFFFFFFFFFFFFFFFFFFFFFFFFFFFFFF AND SWAP1 DUP1 PUSH1 0x6 ADD SLOAD SWAP1 DUP1 PUSH1 0x7 ADD PUSH1 0x0 SWAP1 SLOAD SWAP1 PUSH2 0x100 EXP SWAP1 DIV PUSH1 0xFF AND SWAP1 DUP1 PUSH1 0x8 ADD SLOAD SWAP1 POP DUP8 JUMP JUMPDEST DUP2 PUSH1 0x0 DUP1 DUP3 DUP2 MSTORE PUSH1 0x20 ADD SWAP1 DUP2 MSTORE PUSH1 0x20 ADD PUSH1 0x0 KECCAK256 PUSH1 0x3 ADD PUSH1 0x0 SWAP1 SLOAD SWAP1 PUSH2 0x100 EXP SWAP1 DIV PUSH20 0xFFFFFFFFFFFFFFFFFFFFFFFFFFFFFFFFFFFFFFFF AND PUSH20 0xFFFFFFFFFFFFFFFFFFFFFFFFFFFFFFFFFFFFFFFF AND CALLER PUSH20 0xFFFFFFFFFFFFFFFFFFFFFFFFFFFFFFFFFFFFFFFF AND EQ PUSH2 0x927 JUMPI PUSH1 0x0 DUP1 REVERT JUMPDEST PUSH1 0x0 DUP1 PUSH1 0x0 DUP6 DUP2 MSTORE PUSH1 0x20 ADD SWAP1 DUP2 MSTORE PUSH1 0x20 ADD PUSH1 0x0 KECCAK256 SWAP1 POP PUSH1 0x40 MLOAD DUP1 PUSH1 0x40 ADD PUSH1 0x40 MSTORE DUP1 DUP5 DUP2 MSTORE PUSH1 0x20 ADD PUSH1 0x0 DUP2 MSTORE POP DUP2 PUSH1 0x5 ADD PUSH1 0x0 DUP4 PUSH1 0x6 ADD PUSH1 0x0 DUP2 SLOAD DUP1 SWAP3 SWAP2 SWAP1 PUSH2 0x96E SWAP1 PUSH2 0x1073 JUMP JUMPDEST SWAP2 SWAP1 POP SSTORE DUP2 MSTORE PUSH1 0x20 ADD SWAP1 DUP2 MSTORE PUSH1 0x20 ADD PUSH1 0x0 KECCAK256 PUSH1 0x0 DUP3 ADD MLOAD DUP2 PUSH1 0x0 ADD SWAP1 DUP1 MLOAD SWAP1 PUSH1 0x20 ADD SWAP1 PUSH2 0x99C SWAP3 SWAP2 SWAP1 PUSH2 0x9B6 JUMP JUMPDEST POP PUSH1 0x20 DUP3 ADD MLOAD DUP2 PUSH1 0x1 ADD SSTORE SWAP1 POP POP POP POP POP POP JUMP JUMPDEST PUSH1 0x1 SLOAD DUP2 JUMP JUMPDEST DUP3 DUP1 SLOAD PUSH2 0x9C2 SWAP1 PUSH2 0x1010 JUMP JUMPDEST SWAP1 PUSH1 0x0 MSTORE PUSH1 0x20 PUSH1 0x0 KECCAK256 SWAP1 PUSH1 0x1F ADD PUSH1 0x20 SWAP1 DIV DUP2 ADD SWAP3 DUP3 PUSH2 0x9E4 JUMPI PUSH1 0x0 DUP6 SSTORE PUSH2 0xA2B JUMP JUMPDEST DUP3 PUSH1 0x1F LT PUSH2 0x9FD JUMPI DUP1 MLOAD PUSH1 0xFF NOT AND DUP4 DUP1 ADD OR DUP6 SSTORE PUSH2 0xA2B JUMP JUMPDEST DUP3 DUP1 ADD PUSH1 0x1 ADD DUP6 SSTORE DUP3 ISZERO PUSH2 0xA2B JUMPI SWAP2 DUP3 ADD JUMPDEST DUP3 DUP2 GT ISZERO PUSH2 0xA2A JUMPI DUP3 MLOAD DUP3 SSTORE SWAP2 PUSH1 0x20 ADD SWAP2 SWAP1 PUSH1 0x1 ADD SWAP1 PUSH2 0xA0F JUMP JUMPDEST JUMPDEST POP SWAP1 POP PUSH2 0xA38 SWAP2 SWAP1 PUSH2 0xA56 JUMP JUMPDEST POP SWAP1 JUMP JUMPDEST PUSH1 0x40 MLOAD DUP1 PUSH1 0x40 ADD PUSH1 0x40 MSTORE DUP1 PUSH1 0x60 DUP2 MSTORE PUSH1 0x20 ADD PUSH1 0x0 DUP2 MSTORE POP SWAP1 JUMP JUMPDEST JUMPDEST DUP1 DUP3 GT ISZERO PUSH2 0xA6F JUMPI PUSH1 0x0 DUP2 PUSH1 0x0 SWAP1 SSTORE POP PUSH1 0x1 ADD PUSH2 0xA57 JUMP JUMPDEST POP SWAP1 JUMP JUMPDEST PUSH1 0x0 PUSH2 0xA86 PUSH2 0xA81 DUP5 PUSH2 0xEBB JUMP JUMPDEST PUSH2 0xE96 JUMP JUMPDEST SWAP1 POP DUP3 DUP2 MSTORE PUSH1 0x20 DUP2 ADD DUP5 DUP5 DUP5 ADD GT ISZERO PUSH2 0xAA2 JUMPI PUSH2 0xAA1 PUSH2 0x117D JUMP JUMPDEST JUMPDEST PUSH2 0xAAD DUP5 DUP3 DUP6 PUSH2 0xFCE JUMP JUMPDEST POP SWAP4 SWAP3 POP POP POP JUMP JUMPDEST PUSH1 0x0 DUP3 PUSH1 0x1F DUP4 ADD SLT PUSH2 0xACA JUMPI PUSH2 0xAC9 PUSH2 0x1178 JUMP JUMPDEST JUMPDEST DUP2 CALLDATALOAD PUSH2 0xADA DUP5 DUP3 PUSH1 0x20 DUP7 ADD PUSH2 0xA73 JUMP JUMPDEST SWAP2 POP POP SWAP3 SWAP2 POP POP JUMP JUMPDEST PUSH1 0x0 DUP2 CALLDATALOAD SWAP1 POP PUSH2 0xAF2 DUP2 PUSH2 0x119D JUMP JUMPDEST SWAP3 SWAP2 POP POP JUMP JUMPDEST PUSH1 0x0 DUP1 PUSH1 0x40 DUP4 DUP6 SUB SLT ISZERO PUSH2 0xB0F JUMPI PUSH2 0xB0E PUSH2 0x1187 JUMP JUMPDEST JUMPDEST PUSH1 0x0 DUP4 ADD CALLDATALOAD PUSH8 0xFFFFFFFFFFFFFFFF DUP2 GT ISZERO PUSH2 0xB2D JUMPI PUSH2 0xB2C PUSH2 0x1182 JUMP JUMPDEST JUMPDEST PUSH2 0xB39 DUP6 DUP3 DUP7 ADD PUSH2 0xAB5 JUMP JUMPDEST SWAP3 POP POP PUSH1 0x20 DUP4 ADD CALLDATALOAD PUSH8 0xFFFFFFFFFFFFFFFF DUP2 GT ISZERO PUSH2 0xB5A JUMPI PUSH2 0xB59 PUSH2 0x1182 JUMP JUMPDEST JUMPDEST PUSH2 0xB66 DUP6 DUP3 DUP7 ADD PUSH2 0xAB5 JUMP JUMPDEST SWAP2 POP POP SWAP3 POP SWAP3 SWAP1 POP JUMP JUMPDEST PUSH1 0x0 PUSH1 0x20 DUP3 DUP5 SUB SLT ISZERO PUSH2 0xB86 JUMPI PUSH2 0xB85 PUSH2 0x1187 JUMP JUMPDEST JUMPDEST PUSH1 0x0 PUSH2 0xB94 DUP5 DUP3 DUP6 ADD PUSH2 0xAE3 JUMP JUMPDEST SWAP2 POP POP SWAP3 SWAP2 POP POP JUMP JUMPDEST PUSH1 0x0 DUP1 PUSH1 0x40 DUP4 DUP6 SUB SLT ISZERO PUSH2 0xBB4 JUMPI PUSH2 0xBB3 PUSH2 0x1187 JUMP JUMPDEST JUMPDEST PUSH1 0x0 PUSH2 0xBC2 DUP6 DUP3 DUP7 ADD PUSH2 0xAE3 JUMP JUMPDEST SWAP3 POP POP PUSH1 0x20 DUP4 ADD CALLDATALOAD PUSH8 0xFFFFFFFFFFFFFFFF DUP2 GT ISZERO PUSH2 0xBE3 JUMPI PUSH2 0xBE2 PUSH2 0x1182 JUMP JUMPDEST JUMPDEST PUSH2 0xBEF DUP6 DUP3 DUP7 ADD PUSH2 0xAB5 JUMP JUMPDEST SWAP2 POP POP SWAP3 POP SWAP3 SWAP1 POP JUMP JUMPDEST PUSH1 0x0 DUP1 PUSH1 0x0 PUSH1 0x60 DUP5 DUP7 SUB SLT ISZERO PUSH2 0xC12 JUMPI PUSH2 0xC11 PUSH2 0x1187 JUMP JUMPDEST JUMPDEST PUSH1 0x0 PUSH2 0xC20 DUP7 DUP3 DUP8 ADD PUSH2 0xAE3 JUMP JUMPDEST SWAP4 POP POP PUSH1 0x20 PUSH2 0xC31 DUP7 DUP3 DUP8 ADD PUSH2 0xAE3 JUMP JUMPDEST SWAP3 POP POP PUSH1 0x40 DUP5 ADD CALLDATALOAD PUSH8 0xFFFFFFFFFFFFFFFF DUP2 GT ISZERO PUSH2 0xC52 JUMPI PUSH2 0xC51 PUSH2 0x1182 JUMP JUMPDEST JUMPDEST PUSH2 0xC5E DUP7 DUP3 DUP8 ADD PUSH2 0xAB5 JUMP JUMPDEST SWAP2 POP POP SWAP3 POP SWAP3 POP SWAP3 JUMP JUMPDEST PUSH1 0x0 PUSH2 0xC74 DUP4 DUP4 PUSH2 0xD81 JUMP JUMPDEST SWAP1 POP SWAP3 SWAP2 POP POP JUMP JUMPDEST PUSH2 0xC85 DUP2 PUSH2 0xF86 JUMP JUMPDEST DUP3 MSTORE POP POP JUMP JUMPDEST PUSH1 0x0 PUSH2 0xC96 DUP3 PUSH2 0xEFC JUMP JUMPDEST PUSH2 0xCA0 DUP2 DUP6 PUSH2 0xF1F JUMP JUMPDEST SWAP4 POP DUP4 PUSH1 0x20 DUP3 MUL DUP6 ADD PUSH2 0xCB2 DUP6 PUSH2 0xEEC JUMP JUMPDEST DUP1 PUSH1 0x0 JUMPDEST DUP6 DUP2 LT ISZERO PUSH2 0xCEE JUMPI DUP5 DUP5 SUB DUP10 MSTORE DUP2 MLOAD PUSH2 0xCCF DUP6 DUP3 PUSH2 0xC68 JUMP JUMPDEST SWAP5 POP PUSH2 0xCDA DUP4 PUSH2 0xF12 JUMP JUMPDEST SWAP3 POP PUSH1 0x20 DUP11 ADD SWAP10 POP POP PUSH1 0x1 DUP2 ADD SWAP1 POP PUSH2 0xCB6 JUMP JUMPDEST POP DUP3 SWAP8 POP DUP8 SWAP6 POP POP POP POP POP POP SWAP3 SWAP2 POP POP JUMP JUMPDEST PUSH2 0xD09 DUP2 PUSH2 0xF98 JUMP JUMPDEST DUP3 MSTORE POP POP JUMP JUMPDEST PUSH1 0x0 PUSH2 0xD1A DUP3 PUSH2 0xF07 JUMP JUMPDEST PUSH2 0xD24 DUP2 DUP6 PUSH2 0xF30 JUMP JUMPDEST SWAP4 POP PUSH2 0xD34 DUP2 DUP6 PUSH1 0x20 DUP7 ADD PUSH2 0xFDD JUMP JUMPDEST PUSH2 0xD3D DUP2 PUSH2 0x118C JUMP JUMPDEST DUP5 ADD SWAP2 POP POP SWAP3 SWAP2 POP POP JUMP JUMPDEST PUSH1 0x0 PUSH2 0xD53 DUP3 PUSH2 0xF07 JUMP JUMPDEST PUSH2 0xD5D DUP2 DUP6 PUSH2 0xF41 JUMP JUMPDEST SWAP4 POP PUSH2 0xD6D DUP2 DUP6 PUSH1 0x20 DUP7 ADD PUSH2 0xFDD JUMP JUMPDEST PUSH2 0xD76 DUP2 PUSH2 0x118C JUMP JUMPDEST DUP5 ADD SWAP2 POP POP SWAP3 SWAP2 POP POP JUMP JUMPDEST PUSH1 0x0 PUSH1 0x40 DUP4 ADD PUSH1 0x0 DUP4 ADD MLOAD DUP5 DUP3 SUB PUSH1 0x0 DUP7 ADD MSTORE PUSH2 0xD9E DUP3 DUP3 PUSH2 0xD0F JUMP JUMPDEST SWAP2 POP POP PUSH1 0x20 DUP4 ADD MLOAD PUSH2 0xDB3 PUSH1 0x20 DUP7 ADD DUP3 PUSH2 0xDBE JUMP JUMPDEST POP DUP1 SWAP2 POP POP SWAP3 SWAP2 POP POP JUMP JUMPDEST PUSH2 0xDC7 DUP2 PUSH2 0xFC4 JUMP JUMPDEST DUP3 MSTORE POP POP JUMP JUMPDEST PUSH2 0xDD6 DUP2 PUSH2 0xFC4 JUMP JUMPDEST DUP3 MSTORE POP POP JUMP JUMPDEST PUSH1 0x0 PUSH1 0x20 DUP3 ADD SWAP1 POP DUP2 DUP2 SUB PUSH1 0x0 DUP4 ADD MSTORE PUSH2 0xDF6 DUP2 DUP5 PUSH2 0xC8B JUMP JUMPDEST SWAP1 POP SWAP3 SWAP2 POP POP JUMP JUMPDEST PUSH1 0x0 PUSH1 0xE0 DUP3 ADD SWAP1 POP DUP2 DUP2 SUB PUSH1 0x0 DUP4 ADD MSTORE PUSH2 0xE18 DUP2 DUP11 PUSH2 0xD48 JUMP JUMPDEST SWAP1 POP DUP2 DUP2 SUB PUSH1 0x20 DUP4 ADD MSTORE PUSH2 0xE2C DUP2 DUP10 PUSH2 0xD48 JUMP JUMPDEST SWAP1 POP PUSH2 0xE3B PUSH1 0x40 DUP4 ADD DUP9 PUSH2 0xDCD JUMP JUMPDEST PUSH2 0xE48 PUSH1 0x60 DUP4 ADD DUP8 PUSH2 0xC7C JUMP JUMPDEST PUSH2 0xE55 PUSH1 0x80 DUP4 ADD DUP7 PUSH2 0xDCD JUMP JUMPDEST PUSH2 0xE62 PUSH1 0xA0 DUP4 ADD DUP6 PUSH2 0xD00 JUMP JUMPDEST PUSH2 0xE6F PUSH1 0xC0 DUP4 ADD DUP5 PUSH2 0xDCD JUMP JUMPDEST SWAP9 SWAP8 POP POP POP POP POP POP POP POP JUMP JUMPDEST PUSH1 0x0 PUSH1 0x20 DUP3 ADD SWAP1 POP PUSH2 0xE90 PUSH1 0x0 DUP4 ADD DUP5 PUSH2 0xDCD JUMP JUMPDEST SWAP3 SWAP2 POP POP JUMP JUMPDEST PUSH1 0x0 PUSH2 0xEA0 PUSH2 0xEB1 JUMP JUMPDEST SWAP1 POP PUSH2 0xEAC DUP3 DUP3 PUSH2 0x1042 JUMP JUMPDEST SWAP2 SWAP1 POP JUMP JUMPDEST PUSH1 0x0 PUSH1 0x40 MLOAD SWAP1 POP SWAP1 JUMP JUMPDEST PUSH1 0x0 PUSH8 0xFFFFFFFFFFFFFFFF DUP3 GT ISZERO PUSH2 0xED6 JUMPI PUSH2 0xED5 PUSH2 0x1149 JUMP JUMPDEST JUMPDEST PUSH2 0xEDF DUP3 PUSH2 0x118C JUMP JUMPDEST SWAP1 POP PUSH1 0x20 DUP2 ADD SWAP1 POP SWAP2 SWAP1 POP JUMP JUMPDEST PUSH1 0x0 DUP2 SWAP1 POP PUSH1 0x20 DUP3 ADD SWAP1 POP SWAP2 SWAP1 POP JUMP JUMPDEST PUSH1 0x0 DUP2 MLOAD SWAP1 POP SWAP2 SWAP1 POP JUMP JUMPDEST PUSH1 0x0 DUP2 MLOAD SWAP1 POP SWAP2 SWAP1 POP JUMP JUMPDEST PUSH1 0x0 PUSH1 0x20 DUP3 ADD SWAP1 POP SWAP2 SWAP1 POP JUMP JUMPDEST PUSH1 0x0 DUP3 DUP3 MSTORE PUSH1 0x20 DUP3 ADD SWAP1 POP SWAP3 SWAP2 POP POP JUMP JUMPDEST PUSH1 0x0 DUP3 DUP3 MSTORE PUSH1 0x20 DUP3 ADD SWAP1 POP SWAP3 SWAP2 POP POP JUMP JUMPDEST PUSH1 0x0 DUP3 DUP3 MSTORE PUSH1 0x20 DUP3 ADD SWAP1 POP SWAP3 SWAP2 POP POP JUMP JUMPDEST PUSH1 0x0 PUSH2 0xF5D DUP3 PUSH2 0xFC4 JUMP JUMPDEST SWAP2 POP PUSH2 0xF68 DUP4 PUSH2 0xFC4 JUMP JUMPDEST SWAP3 POP DUP3 DUP3 LT ISZERO PUSH2 0xF7B JUMPI PUSH2 0xF7A PUSH2 0x10BC JUMP JUMPDEST JUMPDEST DUP3 DUP3 SUB SWAP1 POP SWAP3 SWAP2 POP POP JUMP JUMPDEST PUSH1 0x0 PUSH2 0xF91 DUP3 PUSH2 0xFA4 JUMP JUMPDEST SWAP1 POP SWAP2 SWAP1 POP JUMP JUMPDEST PUSH1 0x0 DUP2 ISZERO ISZERO SWAP1 POP SWAP2 SWAP1 POP JUMP JUMPDEST PUSH1 0x0 PUSH20 0xFFFFFFFFFFFFFFFFFFFFFFFFFFFFFFFFFFFFFFFF DUP3 AND SWAP1 POP SWAP2 SWAP1 POP JUMP JUMPDEST PUSH1 0x0 DUP2 SWAP1 POP SWAP2 SWAP1 POP JUMP JUMPDEST DUP3 DUP2 DUP4 CALLDATACOPY PUSH1 0x0 DUP4 DUP4 ADD MSTORE POP POP POP JUMP JUMPDEST PUSH1 0x0 JUMPDEST DUP4 DUP2 LT ISZERO PUSH2 0xFFB JUMPI DUP1 DUP3 ADD MLOAD DUP2 DUP5 ADD MSTORE PUSH1 0x20 DUP2 ADD SWAP1 POP PUSH2 0xFE0 JUMP JUMPDEST DUP4 DUP2 GT ISZERO PUSH2 0x100A JUMPI PUSH1 0x0 DUP5 DUP5 ADD MSTORE JUMPDEST POP POP POP POP JUMP JUMPDEST PUSH1 0x0 PUSH1 0x2 DUP3 DIV SWAP1 POP PUSH1 0x1 DUP3 AND DUP1 PUSH2 0x1028 JUMPI PUSH1 0x7F DUP3 AND SWAP2 POP JUMPDEST PUSH1 0x20 DUP3 LT DUP2 EQ ISZERO PUSH2 0x103C JUMPI PUSH2 0x103B PUSH2 0x10EB JUMP JUMPDEST JUMPDEST POP SWAP2 SWAP1 POP JUMP JUMPDEST PUSH2 0x104B DUP3 PUSH2 0x118C JUMP JUMPDEST DUP2 ADD DUP2 DUP2 LT PUSH8 0xFFFFFFFFFFFFFFFF DUP3 GT OR ISZERO PUSH2 0x106A JUMPI PUSH2 0x1069 PUSH2 0x1149 JUMP JUMPDEST JUMPDEST DUP1 PUSH1 0x40 MSTORE POP POP POP JUMP JUMPDEST PUSH1 0x0 PUSH2 0x107E DUP3 PUSH2 0xFC4 JUMP JUMPDEST SWAP2 POP PUSH32 0xFFFFFFFFFFFFFFFFFFFFFFFFFFFFFFFFFFFFFFFFFFFFFFFFFFFFFFFFFFFFFFFF DUP3 EQ ISZERO PUSH2 0x10B1 JUMPI PUSH2 0x10B0 PUSH2 0x10BC JUMP JUMPDEST JUMPDEST PUSH1 0x1 DUP3 ADD SWAP1 POP SWAP2 SWAP1 POP JUMP JUMPDEST PUSH32 0x4E487B7100000000000000000000000000000000000000000000000000000000 PUSH1 0x0 MSTORE PUSH1 0x11 PUSH1 0x4 MSTORE PUSH1 0x24 PUSH1 0x0 REVERT JUMPDEST PUSH32 0x4E487B7100000000000000000000000000000000000000000000000000000000 PUSH1 0x0 MSTORE PUSH1 0x22 PUSH1 0x4 MSTORE PUSH1 0x24 PUSH1 0x0 REVERT JUMPDEST PUSH32 0x4E487B7100000000000000000000000000000000000000000000000000000000 PUSH1 0x0 MSTORE PUSH1 0x32 PUSH1 0x4 MSTORE PUSH1 0x24 PUSH1 0x0 REVERT JUMPDEST PUSH32 0x4E487B7100000000000000000000000000000000000000000000000000000000 PUSH1 0x0 MSTORE PUSH1 0x41 PUSH1 0x4 MSTORE PUSH1 0x24 PUSH1 0x0 REVERT JUMPDEST PUSH1 0x0 DUP1 REVERT JUMPDEST PUSH1 0x0 DUP1 REVERT JUMPDEST PUSH1 0x0 DUP1 REVERT JUMPDEST PUSH1 0x0 DUP1 REVERT JUMPDEST PUSH1 0x0 PUSH1 0x1F NOT PUSH1 0x1F DUP4 ADD AND SWAP1 POP SWAP2 SWAP1 POP JUMP JUMPDEST PUSH2 0x11A6 DUP2 PUSH2 0xFC4 JUMP JUMPDEST DUP2 EQ PUSH2 0x11B1 JUMPI PUSH1 0x0 DUP1 REVERT JUMPDEST POP JUMP INVALID LOG2 PUSH5 0x6970667358 0x22 SLT KECCAK256 0xB0 PUSH22 0x2CC8799CE7CE0BECE555C2BE69CD06E9165E76296AA1 SHL 0xBF SMOD SWAP11 SDIV 0x5F 0xA6 0xD PUSH5 0x736F6C6343 STOP ADDMOD SMOD STOP CALLER "
				},
				"gasEstimates": {
					"creation": {
						"codeDepositCost": "917200",
						"executionCost": "10967",
						"totalCost": "928167"
					},
					"external": {
						"addOption(uint256,string)": "infinite",
						"createPool(string,string)": "infinite",
						"getNumOfOptions(uint256)": "infinite",
						"getNumOfVotes(uint256)": "infinite",
						"getOptions(uint256)": "infinite",
						"numOfActivePools()": "2474",
						"numOfPools()": "2517",
						"pools(uint256)": "infinite",
						"startPool(uint256)": "infinite",
						"vote(uint256,uint256,string)": "infinite"
					}
				},
				"methodIdentifiers": {
					"addOption(uint256,string)": "ea57d5d4",
					"createPool(string,string)": "5ea81a32",
					"getNumOfOptions(uint256)": "186dd066",
					"getNumOfVotes(uint256)": "8c8e54fb",
					"getOptions(uint256)": "8915b3fb",
					"numOfActivePools()": "7e1d9ba5",
					"numOfPools()": "fcbd2a88",
					"pools(uint256)": "ac4afa38",
					"startPool(uint256)": "a901d15c",
					"vote(uint256,uint256,string)": "a1bbfc05"
				}
			},
			"userdoc": {
				"kind": "user",
				"methods": {},
				"version": 1
			}
		}
	}
}