{
	"contracts/eVoting_app.sol": {
		"EVoteApp": {
			"abi": [
				{
					"inputs": [
						{
							"internalType": "string",
							"name": "poolName",
							"type": "string"
						},
						{
							"internalType": "string",
							"name": "name",
							"type": "string"
						}
					],
					"name": "addOption",
					"outputs": [],
					"stateMutability": "nonpayable",
					"type": "function"
				},
				{
					"inputs": [
						{
							"internalType": "string",
							"name": "_poolName",
							"type": "string"
						},
						{
							"internalType": "string",
							"name": "_description",
							"type": "string"
						}
					],
					"name": "startPool",
					"outputs": [],
					"stateMutability": "nonpayable",
					"type": "function"
				}
			],
			"devdoc": {
				"kind": "dev",
				"methods": {},
				"version": 1
			},
			"evm": {
				"assembly": "    /* \"contracts/eVoting_app.sol\":71:1078  contract EVoteApp{... */\n  mstore(0x40, 0x80)\n    /* \"contracts/eVoting_app.sol\":589:590  0 */\n  0x00\n    /* \"contracts/eVoting_app.sol\":568:590  uint256 numOfPools = 0 */\n  0x01\n  sstore\n    /* \"contracts/eVoting_app.sol\":71:1078  contract EVoteApp{... */\n  callvalue\n  dup1\n  iszero\n  tag_1\n  jumpi\n  0x00\n  dup1\n  revert\ntag_1:\n  pop\n  dataSize(sub_0)\n  dup1\n  dataOffset(sub_0)\n  0x00\n  codecopy\n  0x00\n  return\nstop\n\nsub_0: assembly {\n        /* \"contracts/eVoting_app.sol\":71:1078  contract EVoteApp{... */\n      mstore(0x40, 0x80)\n      callvalue\n      dup1\n      iszero\n      tag_1\n      jumpi\n      0x00\n      dup1\n      revert\n    tag_1:\n      pop\n      jumpi(tag_2, lt(calldatasize, 0x04))\n      shr(0xe0, calldataload(0x00))\n      dup1\n      0x4b67e07f\n      eq\n      tag_3\n      jumpi\n      dup1\n      0xf71b5cde\n      eq\n      tag_4\n      jumpi\n    tag_2:\n      0x00\n      dup1\n      revert\n        /* \"contracts/eVoting_app.sol\":999:1076  function addOption(string memory poolName, string memory name) public{... */\n    tag_3:\n      tag_5\n      0x04\n      dup1\n      calldatasize\n      sub\n      dup2\n      add\n      swap1\n      tag_6\n      swap2\n      swap1\n      tag_7\n      jump\t// in\n    tag_6:\n      tag_8\n      jump\t// in\n    tag_5:\n      stop\n        /* \"contracts/eVoting_app.sol\":597:993  function startPool(string memory _poolName, string memory _description) public{... */\n    tag_4:\n      tag_9\n      0x04\n      dup1\n      calldatasize\n      sub\n      dup2\n      add\n      swap1\n      tag_10\n      swap2\n      swap1\n      tag_7\n      jump\t// in\n    tag_10:\n      tag_11\n      jump\t// in\n    tag_9:\n      stop\n        /* \"contracts/eVoting_app.sol\":999:1076  function addOption(string memory poolName, string memory name) public{... */\n    tag_8:\n      pop\n      pop\n      jump\t// out\n        /* \"contracts/eVoting_app.sol\":597:993  function startPool(string memory _poolName, string memory _description) public{... */\n    tag_11:\n        /* \"contracts/eVoting_app.sol\":742:760  Pool storage _pool */\n      0x00\n        /* \"contracts/eVoting_app.sol\":763:768  pools */\n      dup1\n        /* \"contracts/eVoting_app.sol\":763:782  pools[numOfPools++] */\n      0x00\n        /* \"contracts/eVoting_app.sol\":769:779  numOfPools */\n      0x01\n      0x00\n        /* \"contracts/eVoting_app.sol\":769:781  numOfPools++ */\n      dup2\n      sload\n      dup1\n      swap3\n      swap2\n      swap1\n      tag_14\n      swap1\n      tag_15\n      jump\t// in\n    tag_14:\n      swap2\n      swap1\n      pop\n      sstore\n        /* \"contracts/eVoting_app.sol\":763:782  pools[numOfPools++] */\n      dup2\n      mstore\n      0x20\n      add\n      swap1\n      dup2\n      mstore\n      0x20\n      add\n      0x00\n      keccak256\n        /* \"contracts/eVoting_app.sol\":742:782  Pool storage _pool = pools[numOfPools++] */\n      swap1\n      pop\n        /* \"contracts/eVoting_app.sol\":806:815  _poolName */\n      dup3\n        /* \"contracts/eVoting_app.sol\":793:798  _pool */\n      dup2\n        /* \"contracts/eVoting_app.sol\":793:803  _pool.name */\n      0x00\n      add\n        /* \"contracts/eVoting_app.sol\":793:815  _pool.name = _poolName */\n      swap1\n      dup1\n      mload\n      swap1\n      0x20\n      add\n      swap1\n      tag_16\n      swap3\n      swap2\n      swap1\n      tag_17\n      jump\t// in\n    tag_16:\n      pop\n        /* \"contracts/eVoting_app.sol\":845:857  _description */\n      dup2\n        /* \"contracts/eVoting_app.sol\":825:830  _pool */\n      dup2\n        /* \"contracts/eVoting_app.sol\":825:842  _pool.description */\n      0x01\n      add\n        /* \"contracts/eVoting_app.sol\":825:857  _pool.description = _description */\n      swap1\n      dup1\n      mload\n      swap1\n      0x20\n      add\n      swap1\n      tag_18\n      swap3\n      swap2\n      swap1\n      tag_17\n      jump\t// in\n    tag_18:\n      pop\n        /* \"contracts/eVoting_app.sol\":886:887  0 */\n      0x00\n        /* \"contracts/eVoting_app.sol\":867:872  _pool */\n      dup2\n        /* \"contracts/eVoting_app.sol\":867:883  _pool.totalVotes */\n      0x02\n      add\n        /* \"contracts/eVoting_app.sol\":867:887  _pool.totalVotes = 0 */\n      dup2\n      swap1\n      sstore\n      pop\n        /* \"contracts/eVoting_app.sol\":911:921  msg.sender */\n      caller\n        /* \"contracts/eVoting_app.sol\":897:902  _pool */\n      dup2\n        /* \"contracts/eVoting_app.sol\":897:908  _pool.owner */\n      0x03\n      add\n      0x00\n        /* \"contracts/eVoting_app.sol\":897:921  _pool.owner = msg.sender */\n      0x0100\n      exp\n      dup2\n      sload\n      dup2\n      0xffffffffffffffffffffffffffffffffffffffff\n      mul\n      not\n      and\n      swap1\n      dup4\n      0xffffffffffffffffffffffffffffffffffffffff\n      and\n      mul\n      or\n      swap1\n      sstore\n      pop\n        /* \"contracts/eVoting_app.sol\":952:953  0 */\n      0x00\n        /* \"contracts/eVoting_app.sol\":931:936  _pool */\n      dup2\n        /* \"contracts/eVoting_app.sol\":931:949  _pool.numOfOptions */\n      0x05\n      add\n        /* \"contracts/eVoting_app.sol\":931:953  _pool.numOfOptions = 0 */\n      dup2\n      swap1\n      sstore\n      pop\n        /* \"contracts/eVoting_app.sol\":980:985  false */\n      0x00\n        /* \"contracts/eVoting_app.sol\":963:968  _pool */\n      dup2\n        /* \"contracts/eVoting_app.sol\":963:977  _pool.isActive */\n      0x06\n      add\n      0x00\n        /* \"contracts/eVoting_app.sol\":963:985  _pool.isActive = false */\n      0x0100\n      exp\n      dup2\n      sload\n      dup2\n      0xff\n      mul\n      not\n      and\n      swap1\n      dup4\n      iszero\n      iszero\n      mul\n      or\n      swap1\n      sstore\n      pop\n        /* \"contracts/eVoting_app.sol\":675:993  {... */\n      pop\n        /* \"contracts/eVoting_app.sol\":597:993  function startPool(string memory _poolName, string memory _description) public{... */\n      pop\n      pop\n      jump\t// out\n    tag_17:\n      dup3\n      dup1\n      sload\n      tag_19\n      swap1\n      tag_20\n      jump\t// in\n    tag_19:\n      swap1\n      0x00\n      mstore\n      keccak256(0x00, 0x20)\n      swap1\n      0x1f\n      add\n      0x20\n      swap1\n      div\n      dup2\n      add\n      swap3\n      dup3\n      tag_22\n      jumpi\n      0x00\n      dup6\n      sstore\n      jump(tag_21)\n    tag_22:\n      dup3\n      0x1f\n      lt\n      tag_23\n      jumpi\n      dup1\n      mload\n      not(0xff)\n      and\n      dup4\n      dup1\n      add\n      or\n      dup6\n      sstore\n      jump(tag_21)\n    tag_23:\n      dup3\n      dup1\n      add\n      0x01\n      add\n      dup6\n      sstore\n      dup3\n      iszero\n      tag_21\n      jumpi\n      swap2\n      dup3\n      add\n    tag_24:\n      dup3\n      dup2\n      gt\n      iszero\n      tag_25\n      jumpi\n      dup3\n      mload\n      dup3\n      sstore\n      swap2\n      0x20\n      add\n      swap2\n      swap1\n      0x01\n      add\n      swap1\n      jump(tag_24)\n    tag_25:\n    tag_21:\n      pop\n      swap1\n      pop\n      tag_26\n      swap2\n      swap1\n      tag_27\n      jump\t// in\n    tag_26:\n      pop\n      swap1\n      jump\t// out\n    tag_27:\n    tag_28:\n      dup1\n      dup3\n      gt\n      iszero\n      tag_29\n      jumpi\n      0x00\n      dup2\n      0x00\n      swap1\n      sstore\n      pop\n      0x01\n      add\n      jump(tag_28)\n    tag_29:\n      pop\n      swap1\n      jump\t// out\n        /* \"#utility.yul\":7:419   */\n    tag_31:\n        /* \"#utility.yul\":85:90   */\n      0x00\n        /* \"#utility.yul\":110:176   */\n      tag_33\n        /* \"#utility.yul\":126:175   */\n      tag_34\n        /* \"#utility.yul\":168:174   */\n      dup5\n        /* \"#utility.yul\":126:175   */\n      tag_35\n      jump\t// in\n    tag_34:\n        /* \"#utility.yul\":110:176   */\n      tag_36\n      jump\t// in\n    tag_33:\n        /* \"#utility.yul\":101:176   */\n      swap1\n      pop\n        /* \"#utility.yul\":199:205   */\n      dup3\n        /* \"#utility.yul\":192:197   */\n      dup2\n        /* \"#utility.yul\":185:206   */\n      mstore\n        /* \"#utility.yul\":237:241   */\n      0x20\n        /* \"#utility.yul\":230:235   */\n      dup2\n        /* \"#utility.yul\":226:242   */\n      add\n        /* \"#utility.yul\":275:278   */\n      dup5\n        /* \"#utility.yul\":266:272   */\n      dup5\n        /* \"#utility.yul\":261:264   */\n      dup5\n        /* \"#utility.yul\":257:273   */\n      add\n        /* \"#utility.yul\":254:279   */\n      gt\n        /* \"#utility.yul\":251:363   */\n      iszero\n      tag_37\n      jumpi\n        /* \"#utility.yul\":282:361   */\n      tag_38\n      tag_39\n      jump\t// in\n    tag_38:\n        /* \"#utility.yul\":251:363   */\n    tag_37:\n        /* \"#utility.yul\":372:413   */\n      tag_40\n        /* \"#utility.yul\":406:412   */\n      dup5\n        /* \"#utility.yul\":401:404   */\n      dup3\n        /* \"#utility.yul\":396:399   */\n      dup6\n        /* \"#utility.yul\":372:413   */\n      tag_41\n      jump\t// in\n    tag_40:\n        /* \"#utility.yul\":91:419   */\n      pop\n        /* \"#utility.yul\":7:419   */\n      swap4\n      swap3\n      pop\n      pop\n      pop\n      jump\t// out\n        /* \"#utility.yul\":439:779   */\n    tag_42:\n        /* \"#utility.yul\":495:500   */\n      0x00\n        /* \"#utility.yul\":544:547   */\n      dup3\n        /* \"#utility.yul\":537:541   */\n      0x1f\n        /* \"#utility.yul\":529:535   */\n      dup4\n        /* \"#utility.yul\":525:542   */\n      add\n        /* \"#utility.yul\":521:548   */\n      slt\n        /* \"#utility.yul\":511:633   */\n      tag_44\n      jumpi\n        /* \"#utility.yul\":552:631   */\n      tag_45\n      tag_46\n      jump\t// in\n    tag_45:\n        /* \"#utility.yul\":511:633   */\n    tag_44:\n        /* \"#utility.yul\":669:675   */\n      dup2\n        /* \"#utility.yul\":656:676   */\n      calldataload\n        /* \"#utility.yul\":694:773   */\n      tag_47\n        /* \"#utility.yul\":769:772   */\n      dup5\n        /* \"#utility.yul\":761:767   */\n      dup3\n        /* \"#utility.yul\":754:758   */\n      0x20\n        /* \"#utility.yul\":746:752   */\n      dup7\n        /* \"#utility.yul\":742:759   */\n      add\n        /* \"#utility.yul\":694:773   */\n      tag_31\n      jump\t// in\n    tag_47:\n        /* \"#utility.yul\":685:773   */\n      swap2\n      pop\n        /* \"#utility.yul\":501:779   */\n      pop\n        /* \"#utility.yul\":439:779   */\n      swap3\n      swap2\n      pop\n      pop\n      jump\t// out\n        /* \"#utility.yul\":785:1619   */\n    tag_7:\n        /* \"#utility.yul\":873:879   */\n      0x00\n        /* \"#utility.yul\":881:887   */\n      dup1\n        /* \"#utility.yul\":930:932   */\n      0x40\n        /* \"#utility.yul\":918:927   */\n      dup4\n        /* \"#utility.yul\":909:916   */\n      dup6\n        /* \"#utility.yul\":905:928   */\n      sub\n        /* \"#utility.yul\":901:933   */\n      slt\n        /* \"#utility.yul\":898:1017   */\n      iszero\n      tag_49\n      jumpi\n        /* \"#utility.yul\":936:1015   */\n      tag_50\n      tag_51\n      jump\t// in\n    tag_50:\n        /* \"#utility.yul\":898:1017   */\n    tag_49:\n        /* \"#utility.yul\":1084:1085   */\n      0x00\n        /* \"#utility.yul\":1073:1082   */\n      dup4\n        /* \"#utility.yul\":1069:1086   */\n      add\n        /* \"#utility.yul\":1056:1087   */\n      calldataload\n        /* \"#utility.yul\":1114:1132   */\n      0xffffffffffffffff\n        /* \"#utility.yul\":1106:1112   */\n      dup2\n        /* \"#utility.yul\":1103:1133   */\n      gt\n        /* \"#utility.yul\":1100:1217   */\n      iszero\n      tag_52\n      jumpi\n        /* \"#utility.yul\":1136:1215   */\n      tag_53\n      tag_54\n      jump\t// in\n    tag_53:\n        /* \"#utility.yul\":1100:1217   */\n    tag_52:\n        /* \"#utility.yul\":1241:1304   */\n      tag_55\n        /* \"#utility.yul\":1296:1303   */\n      dup6\n        /* \"#utility.yul\":1287:1293   */\n      dup3\n        /* \"#utility.yul\":1276:1285   */\n      dup7\n        /* \"#utility.yul\":1272:1294   */\n      add\n        /* \"#utility.yul\":1241:1304   */\n      tag_42\n      jump\t// in\n    tag_55:\n        /* \"#utility.yul\":1231:1304   */\n      swap3\n      pop\n        /* \"#utility.yul\":1027:1314   */\n      pop\n        /* \"#utility.yul\":1381:1383   */\n      0x20\n        /* \"#utility.yul\":1370:1379   */\n      dup4\n        /* \"#utility.yul\":1366:1384   */\n      add\n        /* \"#utility.yul\":1353:1385   */\n      calldataload\n        /* \"#utility.yul\":1412:1430   */\n      0xffffffffffffffff\n        /* \"#utility.yul\":1404:1410   */\n      dup2\n        /* \"#utility.yul\":1401:1431   */\n      gt\n        /* \"#utility.yul\":1398:1515   */\n      iszero\n      tag_56\n      jumpi\n        /* \"#utility.yul\":1434:1513   */\n      tag_57\n      tag_54\n      jump\t// in\n    tag_57:\n        /* \"#utility.yul\":1398:1515   */\n    tag_56:\n        /* \"#utility.yul\":1539:1602   */\n      tag_58\n        /* \"#utility.yul\":1594:1601   */\n      dup6\n        /* \"#utility.yul\":1585:1591   */\n      dup3\n        /* \"#utility.yul\":1574:1583   */\n      dup7\n        /* \"#utility.yul\":1570:1592   */\n      add\n        /* \"#utility.yul\":1539:1602   */\n      tag_42\n      jump\t// in\n    tag_58:\n        /* \"#utility.yul\":1529:1602   */\n      swap2\n      pop\n        /* \"#utility.yul\":1324:1612   */\n      pop\n        /* \"#utility.yul\":785:1619   */\n      swap3\n      pop\n      swap3\n      swap1\n      pop\n      jump\t// out\n        /* \"#utility.yul\":1625:1754   */\n    tag_36:\n        /* \"#utility.yul\":1659:1665   */\n      0x00\n        /* \"#utility.yul\":1686:1706   */\n      tag_60\n      tag_61\n      jump\t// in\n    tag_60:\n        /* \"#utility.yul\":1676:1706   */\n      swap1\n      pop\n        /* \"#utility.yul\":1715:1748   */\n      tag_62\n        /* \"#utility.yul\":1743:1747   */\n      dup3\n        /* \"#utility.yul\":1735:1741   */\n      dup3\n        /* \"#utility.yul\":1715:1748   */\n      tag_63\n      jump\t// in\n    tag_62:\n        /* \"#utility.yul\":1625:1754   */\n      swap2\n      swap1\n      pop\n      jump\t// out\n        /* \"#utility.yul\":1760:1835   */\n    tag_61:\n        /* \"#utility.yul\":1793:1799   */\n      0x00\n        /* \"#utility.yul\":1826:1828   */\n      0x40\n        /* \"#utility.yul\":1820:1829   */\n      mload\n        /* \"#utility.yul\":1810:1829   */\n      swap1\n      pop\n        /* \"#utility.yul\":1760:1835   */\n      swap1\n      jump\t// out\n        /* \"#utility.yul\":1841:2149   */\n    tag_35:\n        /* \"#utility.yul\":1903:1907   */\n      0x00\n        /* \"#utility.yul\":1993:2011   */\n      0xffffffffffffffff\n        /* \"#utility.yul\":1985:1991   */\n      dup3\n        /* \"#utility.yul\":1982:2012   */\n      gt\n        /* \"#utility.yul\":1979:2035   */\n      iszero\n      tag_66\n      jumpi\n        /* \"#utility.yul\":2015:2033   */\n      tag_67\n      tag_68\n      jump\t// in\n    tag_67:\n        /* \"#utility.yul\":1979:2035   */\n    tag_66:\n        /* \"#utility.yul\":2053:2082   */\n      tag_69\n        /* \"#utility.yul\":2075:2081   */\n      dup3\n        /* \"#utility.yul\":2053:2082   */\n      tag_70\n      jump\t// in\n    tag_69:\n        /* \"#utility.yul\":2045:2082   */\n      swap1\n      pop\n        /* \"#utility.yul\":2137:2141   */\n      0x20\n        /* \"#utility.yul\":2131:2135   */\n      dup2\n        /* \"#utility.yul\":2127:2142   */\n      add\n        /* \"#utility.yul\":2119:2142   */\n      swap1\n      pop\n        /* \"#utility.yul\":1841:2149   */\n      swap2\n      swap1\n      pop\n      jump\t// out\n        /* \"#utility.yul\":2155:2232   */\n    tag_71:\n        /* \"#utility.yul\":2192:2199   */\n      0x00\n        /* \"#utility.yul\":2221:2226   */\n      dup2\n        /* \"#utility.yul\":2210:2226   */\n      swap1\n      pop\n        /* \"#utility.yul\":2155:2232   */\n      swap2\n      swap1\n      pop\n      jump\t// out\n        /* \"#utility.yul\":2238:2392   */\n    tag_41:\n        /* \"#utility.yul\":2322:2328   */\n      dup3\n        /* \"#utility.yul\":2317:2320   */\n      dup2\n        /* \"#utility.yul\":2312:2315   */\n      dup4\n        /* \"#utility.yul\":2299:2329   */\n      calldatacopy\n        /* \"#utility.yul\":2384:2385   */\n      0x00\n        /* \"#utility.yul\":2375:2381   */\n      dup4\n        /* \"#utility.yul\":2370:2373   */\n      dup4\n        /* \"#utility.yul\":2366:2382   */\n      add\n        /* \"#utility.yul\":2359:2386   */\n      mstore\n        /* \"#utility.yul\":2238:2392   */\n      pop\n      pop\n      pop\n      jump\t// out\n        /* \"#utility.yul\":2398:2718   */\n    tag_20:\n        /* \"#utility.yul\":2442:2448   */\n      0x00\n        /* \"#utility.yul\":2479:2480   */\n      0x02\n        /* \"#utility.yul\":2473:2477   */\n      dup3\n        /* \"#utility.yul\":2469:2481   */\n      div\n        /* \"#utility.yul\":2459:2481   */\n      swap1\n      pop\n        /* \"#utility.yul\":2526:2527   */\n      0x01\n        /* \"#utility.yul\":2520:2524   */\n      dup3\n        /* \"#utility.yul\":2516:2528   */\n      and\n        /* \"#utility.yul\":2547:2565   */\n      dup1\n        /* \"#utility.yul\":2537:2618   */\n      tag_75\n      jumpi\n        /* \"#utility.yul\":2603:2607   */\n      0x7f\n        /* \"#utility.yul\":2595:2601   */\n      dup3\n        /* \"#utility.yul\":2591:2608   */\n      and\n        /* \"#utility.yul\":2581:2608   */\n      swap2\n      pop\n        /* \"#utility.yul\":2537:2618   */\n    tag_75:\n        /* \"#utility.yul\":2665:2667   */\n      0x20\n        /* \"#utility.yul\":2657:2663   */\n      dup3\n        /* \"#utility.yul\":2654:2668   */\n      lt\n        /* \"#utility.yul\":2634:2652   */\n      dup2\n        /* \"#utility.yul\":2631:2669   */\n      eq\n        /* \"#utility.yul\":2628:2712   */\n      iszero\n      tag_76\n      jumpi\n        /* \"#utility.yul\":2684:2702   */\n      tag_77\n      tag_78\n      jump\t// in\n    tag_77:\n        /* \"#utility.yul\":2628:2712   */\n    tag_76:\n        /* \"#utility.yul\":2449:2718   */\n      pop\n        /* \"#utility.yul\":2398:2718   */\n      swap2\n      swap1\n      pop\n      jump\t// out\n        /* \"#utility.yul\":2724:3005   */\n    tag_63:\n        /* \"#utility.yul\":2807:2834   */\n      tag_80\n        /* \"#utility.yul\":2829:2833   */\n      dup3\n        /* \"#utility.yul\":2807:2834   */\n      tag_70\n      jump\t// in\n    tag_80:\n        /* \"#utility.yul\":2799:2805   */\n      dup2\n        /* \"#utility.yul\":2795:2835   */\n      add\n        /* \"#utility.yul\":2937:2943   */\n      dup2\n        /* \"#utility.yul\":2925:2935   */\n      dup2\n        /* \"#utility.yul\":2922:2944   */\n      lt\n        /* \"#utility.yul\":2901:2919   */\n      0xffffffffffffffff\n        /* \"#utility.yul\":2889:2899   */\n      dup3\n        /* \"#utility.yul\":2886:2920   */\n      gt\n        /* \"#utility.yul\":2883:2945   */\n      or\n        /* \"#utility.yul\":2880:2968   */\n      iszero\n      tag_81\n      jumpi\n        /* \"#utility.yul\":2948:2966   */\n      tag_82\n      tag_68\n      jump\t// in\n    tag_82:\n        /* \"#utility.yul\":2880:2968   */\n    tag_81:\n        /* \"#utility.yul\":2988:2998   */\n      dup1\n        /* \"#utility.yul\":2984:2986   */\n      0x40\n        /* \"#utility.yul\":2977:2999   */\n      mstore\n        /* \"#utility.yul\":2767:3005   */\n      pop\n        /* \"#utility.yul\":2724:3005   */\n      pop\n      pop\n      jump\t// out\n        /* \"#utility.yul\":3011:3244   */\n    tag_15:\n        /* \"#utility.yul\":3050:3053   */\n      0x00\n        /* \"#utility.yul\":3073:3097   */\n      tag_84\n        /* \"#utility.yul\":3091:3096   */\n      dup3\n        /* \"#utility.yul\":3073:3097   */\n      tag_71\n      jump\t// in\n    tag_84:\n        /* \"#utility.yul\":3064:3097   */\n      swap2\n      pop\n        /* \"#utility.yul\":3119:3185   */\n      0xffffffffffffffffffffffffffffffffffffffffffffffffffffffffffffffff\n        /* \"#utility.yul\":3112:3117   */\n      dup3\n        /* \"#utility.yul\":3109:3186   */\n      eq\n        /* \"#utility.yul\":3106:3209   */\n      iszero\n      tag_85\n      jumpi\n        /* \"#utility.yul\":3189:3207   */\n      tag_86\n      tag_87\n      jump\t// in\n    tag_86:\n        /* \"#utility.yul\":3106:3209   */\n    tag_85:\n        /* \"#utility.yul\":3236:3237   */\n      0x01\n        /* \"#utility.yul\":3229:3234   */\n      dup3\n        /* \"#utility.yul\":3225:3238   */\n      add\n        /* \"#utility.yul\":3218:3238   */\n      swap1\n      pop\n        /* \"#utility.yul\":3011:3244   */\n      swap2\n      swap1\n      pop\n      jump\t// out\n        /* \"#utility.yul\":3250:3430   */\n    tag_87:\n        /* \"#utility.yul\":3298:3375   */\n      0x4e487b7100000000000000000000000000000000000000000000000000000000\n        /* \"#utility.yul\":3295:3296   */\n      0x00\n        /* \"#utility.yul\":3288:3376   */\n      mstore\n        /* \"#utility.yul\":3395:3399   */\n      0x11\n        /* \"#utility.yul\":3392:3393   */\n      0x04\n        /* \"#utility.yul\":3385:3400   */\n      mstore\n        /* \"#utility.yul\":3419:3423   */\n      0x24\n        /* \"#utility.yul\":3416:3417   */\n      0x00\n        /* \"#utility.yul\":3409:3424   */\n      revert\n        /* \"#utility.yul\":3436:3616   */\n    tag_78:\n        /* \"#utility.yul\":3484:3561   */\n      0x4e487b7100000000000000000000000000000000000000000000000000000000\n        /* \"#utility.yul\":3481:3482   */\n      0x00\n        /* \"#utility.yul\":3474:3562   */\n      mstore\n        /* \"#utility.yul\":3581:3585   */\n      0x22\n        /* \"#utility.yul\":3578:3579   */\n      0x04\n        /* \"#utility.yul\":3571:3586   */\n      mstore\n        /* \"#utility.yul\":3605:3609   */\n      0x24\n        /* \"#utility.yul\":3602:3603   */\n      0x00\n        /* \"#utility.yul\":3595:3610   */\n      revert\n        /* \"#utility.yul\":3622:3802   */\n    tag_68:\n        /* \"#utility.yul\":3670:3747   */\n      0x4e487b7100000000000000000000000000000000000000000000000000000000\n        /* \"#utility.yul\":3667:3668   */\n      0x00\n        /* \"#utility.yul\":3660:3748   */\n      mstore\n        /* \"#utility.yul\":3767:3771   */\n      0x41\n        /* \"#utility.yul\":3764:3765   */\n      0x04\n        /* \"#utility.yul\":3757:3772   */\n      mstore\n        /* \"#utility.yul\":3791:3795   */\n      0x24\n        /* \"#utility.yul\":3788:3789   */\n      0x00\n        /* \"#utility.yul\":3781:3796   */\n      revert\n        /* \"#utility.yul\":3808:3925   */\n    tag_46:\n        /* \"#utility.yul\":3917:3918   */\n      0x00\n        /* \"#utility.yul\":3914:3915   */\n      dup1\n        /* \"#utility.yul\":3907:3919   */\n      revert\n        /* \"#utility.yul\":3931:4048   */\n    tag_39:\n        /* \"#utility.yul\":4040:4041   */\n      0x00\n        /* \"#utility.yul\":4037:4038   */\n      dup1\n        /* \"#utility.yul\":4030:4042   */\n      revert\n        /* \"#utility.yul\":4054:4171   */\n    tag_54:\n        /* \"#utility.yul\":4163:4164   */\n      0x00\n        /* \"#utility.yul\":4160:4161   */\n      dup1\n        /* \"#utility.yul\":4153:4165   */\n      revert\n        /* \"#utility.yul\":4177:4294   */\n    tag_51:\n        /* \"#utility.yul\":4286:4287   */\n      0x00\n        /* \"#utility.yul\":4283:4284   */\n      dup1\n        /* \"#utility.yul\":4276:4288   */\n      revert\n        /* \"#utility.yul\":4300:4402   */\n    tag_70:\n        /* \"#utility.yul\":4341:4347   */\n      0x00\n        /* \"#utility.yul\":4392:4394   */\n      0x1f\n        /* \"#utility.yul\":4388:4395   */\n      not\n        /* \"#utility.yul\":4383:4385   */\n      0x1f\n        /* \"#utility.yul\":4376:4381   */\n      dup4\n        /* \"#utility.yul\":4372:4386   */\n      add\n        /* \"#utility.yul\":4368:4396   */\n      and\n        /* \"#utility.yul\":4358:4396   */\n      swap1\n      pop\n        /* \"#utility.yul\":4300:4402   */\n      swap2\n      swap1\n      pop\n      jump\t// out\n\n    auxdata: 0xa264697066735822122095ba9b63a5e521b4cdc497d9de4f10cf90d05eea1b49fda1df584df1deeb283c64736f6c63430008070033\n}\n",
				"bytecode": {
					"linkReferences": {},
					"object": "6080604052600060015534801561001557600080fd5b506104dc806100256000396000f3fe608060405234801561001057600080fd5b50600436106100365760003560e01c80634b67e07f1461003b578063f71b5cde14610057575b600080fd5b61005560048036038101906100509190610261565b610073565b005b610071600480360381019061006c9190610261565b610077565b005b5050565b60008060006001600081548092919061008f906103ab565b9190505581526020019081526020016000209050828160000190805190602001906100bb92919061014e565b50818160010190805190602001906100d492919061014e565b5060008160020181905550338160030160006101000a81548173ffffffffffffffffffffffffffffffffffffffff021916908373ffffffffffffffffffffffffffffffffffffffff1602179055506000816005018190555060008160060160006101000a81548160ff021916908315150217905550505050565b82805461015a90610348565b90600052602060002090601f01602090048101928261017c57600085556101c3565b82601f1061019557805160ff19168380011785556101c3565b828001600101855582156101c3579182015b828111156101c25782518255916020019190600101906101a7565b5b5090506101d091906101d4565b5090565b5b808211156101ed5760008160009055506001016101d5565b5090565b60006102046101ff846102fe565b6102d9565b9050828152602081018484840111156102205761021f610486565b5b61022b848285610339565b509392505050565b600082601f83011261024857610247610481565b5b81356102588482602086016101f1565b91505092915050565b6000806040838503121561027857610277610490565b5b600083013567ffffffffffffffff8111156102965761029561048b565b5b6102a285828601610233565b925050602083013567ffffffffffffffff8111156102c3576102c261048b565b5b6102cf85828601610233565b9150509250929050565b60006102e36102f4565b90506102ef828261037a565b919050565b6000604051905090565b600067ffffffffffffffff82111561031957610318610452565b5b61032282610495565b9050602081019050919050565b6000819050919050565b82818337600083830152505050565b6000600282049050600182168061036057607f821691505b6020821081141561037457610373610423565b5b50919050565b61038382610495565b810181811067ffffffffffffffff821117156103a2576103a1610452565b5b80604052505050565b60006103b68261032f565b91507fffffffffffffffffffffffffffffffffffffffffffffffffffffffffffffffff8214156103e9576103e86103f4565b5b600182019050919050565b7f4e487b7100000000000000000000000000000000000000000000000000000000600052601160045260246000fd5b7f4e487b7100000000000000000000000000000000000000000000000000000000600052602260045260246000fd5b7f4e487b7100000000000000000000000000000000000000000000000000000000600052604160045260246000fd5b600080fd5b600080fd5b600080fd5b600080fd5b6000601f19601f830116905091905056fea264697066735822122095ba9b63a5e521b4cdc497d9de4f10cf90d05eea1b49fda1df584df1deeb283c64736f6c63430008070033",
					"opcodes": "PUSH1 0x80 PUSH1 0x40 MSTORE PUSH1 0x0 PUSH1 0x1 SSTORE CALLVALUE DUP1 ISZERO PUSH2 0x15 JUMPI PUSH1 0x0 DUP1 REVERT JUMPDEST POP PUSH2 0x4DC DUP1 PUSH2 0x25 PUSH1 0x0 CODECOPY PUSH1 0x0 RETURN INVALID PUSH1 0x80 PUSH1 0x40 MSTORE CALLVALUE DUP1 ISZERO PUSH2 0x10 JUMPI PUSH1 0x0 DUP1 REVERT JUMPDEST POP PUSH1 0x4 CALLDATASIZE LT PUSH2 0x36 JUMPI PUSH1 0x0 CALLDATALOAD PUSH1 0xE0 SHR DUP1 PUSH4 0x4B67E07F EQ PUSH2 0x3B JUMPI DUP1 PUSH4 0xF71B5CDE EQ PUSH2 0x57 JUMPI JUMPDEST PUSH1 0x0 DUP1 REVERT JUMPDEST PUSH2 0x55 PUSH1 0x4 DUP1 CALLDATASIZE SUB DUP2 ADD SWAP1 PUSH2 0x50 SWAP2 SWAP1 PUSH2 0x261 JUMP JUMPDEST PUSH2 0x73 JUMP JUMPDEST STOP JUMPDEST PUSH2 0x71 PUSH1 0x4 DUP1 CALLDATASIZE SUB DUP2 ADD SWAP1 PUSH2 0x6C SWAP2 SWAP1 PUSH2 0x261 JUMP JUMPDEST PUSH2 0x77 JUMP JUMPDEST STOP JUMPDEST POP POP JUMP JUMPDEST PUSH1 0x0 DUP1 PUSH1 0x0 PUSH1 0x1 PUSH1 0x0 DUP2 SLOAD DUP1 SWAP3 SWAP2 SWAP1 PUSH2 0x8F SWAP1 PUSH2 0x3AB JUMP JUMPDEST SWAP2 SWAP1 POP SSTORE DUP2 MSTORE PUSH1 0x20 ADD SWAP1 DUP2 MSTORE PUSH1 0x20 ADD PUSH1 0x0 KECCAK256 SWAP1 POP DUP3 DUP2 PUSH1 0x0 ADD SWAP1 DUP1 MLOAD SWAP1 PUSH1 0x20 ADD SWAP1 PUSH2 0xBB SWAP3 SWAP2 SWAP1 PUSH2 0x14E JUMP JUMPDEST POP DUP2 DUP2 PUSH1 0x1 ADD SWAP1 DUP1 MLOAD SWAP1 PUSH1 0x20 ADD SWAP1 PUSH2 0xD4 SWAP3 SWAP2 SWAP1 PUSH2 0x14E JUMP JUMPDEST POP PUSH1 0x0 DUP2 PUSH1 0x2 ADD DUP2 SWAP1 SSTORE POP CALLER DUP2 PUSH1 0x3 ADD PUSH1 0x0 PUSH2 0x100 EXP DUP2 SLOAD DUP2 PUSH20 0xFFFFFFFFFFFFFFFFFFFFFFFFFFFFFFFFFFFFFFFF MUL NOT AND SWAP1 DUP4 PUSH20 0xFFFFFFFFFFFFFFFFFFFFFFFFFFFFFFFFFFFFFFFF AND MUL OR SWAP1 SSTORE POP PUSH1 0x0 DUP2 PUSH1 0x5 ADD DUP2 SWAP1 SSTORE POP PUSH1 0x0 DUP2 PUSH1 0x6 ADD PUSH1 0x0 PUSH2 0x100 EXP DUP2 SLOAD DUP2 PUSH1 0xFF MUL NOT AND SWAP1 DUP4 ISZERO ISZERO MUL OR SWAP1 SSTORE POP POP POP POP JUMP JUMPDEST DUP3 DUP1 SLOAD PUSH2 0x15A SWAP1 PUSH2 0x348 JUMP JUMPDEST SWAP1 PUSH1 0x0 MSTORE PUSH1 0x20 PUSH1 0x0 KECCAK256 SWAP1 PUSH1 0x1F ADD PUSH1 0x20 SWAP1 DIV DUP2 ADD SWAP3 DUP3 PUSH2 0x17C JUMPI PUSH1 0x0 DUP6 SSTORE PUSH2 0x1C3 JUMP JUMPDEST DUP3 PUSH1 0x1F LT PUSH2 0x195 JUMPI DUP1 MLOAD PUSH1 0xFF NOT AND DUP4 DUP1 ADD OR DUP6 SSTORE PUSH2 0x1C3 JUMP JUMPDEST DUP3 DUP1 ADD PUSH1 0x1 ADD DUP6 SSTORE DUP3 ISZERO PUSH2 0x1C3 JUMPI SWAP2 DUP3 ADD JUMPDEST DUP3 DUP2 GT ISZERO PUSH2 0x1C2 JUMPI DUP3 MLOAD DUP3 SSTORE SWAP2 PUSH1 0x20 ADD SWAP2 SWAP1 PUSH1 0x1 ADD SWAP1 PUSH2 0x1A7 JUMP JUMPDEST JUMPDEST POP SWAP1 POP PUSH2 0x1D0 SWAP2 SWAP1 PUSH2 0x1D4 JUMP JUMPDEST POP SWAP1 JUMP JUMPDEST JUMPDEST DUP1 DUP3 GT ISZERO PUSH2 0x1ED JUMPI PUSH1 0x0 DUP2 PUSH1 0x0 SWAP1 SSTORE POP PUSH1 0x1 ADD PUSH2 0x1D5 JUMP JUMPDEST POP SWAP1 JUMP JUMPDEST PUSH1 0x0 PUSH2 0x204 PUSH2 0x1FF DUP5 PUSH2 0x2FE JUMP JUMPDEST PUSH2 0x2D9 JUMP JUMPDEST SWAP1 POP DUP3 DUP2 MSTORE PUSH1 0x20 DUP2 ADD DUP5 DUP5 DUP5 ADD GT ISZERO PUSH2 0x220 JUMPI PUSH2 0x21F PUSH2 0x486 JUMP JUMPDEST JUMPDEST PUSH2 0x22B DUP5 DUP3 DUP6 PUSH2 0x339 JUMP JUMPDEST POP SWAP4 SWAP3 POP POP POP JUMP JUMPDEST PUSH1 0x0 DUP3 PUSH1 0x1F DUP4 ADD SLT PUSH2 0x248 JUMPI PUSH2 0x247 PUSH2 0x481 JUMP JUMPDEST JUMPDEST DUP2 CALLDATALOAD PUSH2 0x258 DUP5 DUP3 PUSH1 0x20 DUP7 ADD PUSH2 0x1F1 JUMP JUMPDEST SWAP2 POP POP SWAP3 SWAP2 POP POP JUMP JUMPDEST PUSH1 0x0 DUP1 PUSH1 0x40 DUP4 DUP6 SUB SLT ISZERO PUSH2 0x278 JUMPI PUSH2 0x277 PUSH2 0x490 JUMP JUMPDEST JUMPDEST PUSH1 0x0 DUP4 ADD CALLDATALOAD PUSH8 0xFFFFFFFFFFFFFFFF DUP2 GT ISZERO PUSH2 0x296 JUMPI PUSH2 0x295 PUSH2 0x48B JUMP JUMPDEST JUMPDEST PUSH2 0x2A2 DUP6 DUP3 DUP7 ADD PUSH2 0x233 JUMP JUMPDEST SWAP3 POP POP PUSH1 0x20 DUP4 ADD CALLDATALOAD PUSH8 0xFFFFFFFFFFFFFFFF DUP2 GT ISZERO PUSH2 0x2C3 JUMPI PUSH2 0x2C2 PUSH2 0x48B JUMP JUMPDEST JUMPDEST PUSH2 0x2CF DUP6 DUP3 DUP7 ADD PUSH2 0x233 JUMP JUMPDEST SWAP2 POP POP SWAP3 POP SWAP3 SWAP1 POP JUMP JUMPDEST PUSH1 0x0 PUSH2 0x2E3 PUSH2 0x2F4 JUMP JUMPDEST SWAP1 POP PUSH2 0x2EF DUP3 DUP3 PUSH2 0x37A JUMP JUMPDEST SWAP2 SWAP1 POP JUMP JUMPDEST PUSH1 0x0 PUSH1 0x40 MLOAD SWAP1 POP SWAP1 JUMP JUMPDEST PUSH1 0x0 PUSH8 0xFFFFFFFFFFFFFFFF DUP3 GT ISZERO PUSH2 0x319 JUMPI PUSH2 0x318 PUSH2 0x452 JUMP JUMPDEST JUMPDEST PUSH2 0x322 DUP3 PUSH2 0x495 JUMP JUMPDEST SWAP1 POP PUSH1 0x20 DUP2 ADD SWAP1 POP SWAP2 SWAP1 POP JUMP JUMPDEST PUSH1 0x0 DUP2 SWAP1 POP SWAP2 SWAP1 POP JUMP JUMPDEST DUP3 DUP2 DUP4 CALLDATACOPY PUSH1 0x0 DUP4 DUP4 ADD MSTORE POP POP POP JUMP JUMPDEST PUSH1 0x0 PUSH1 0x2 DUP3 DIV SWAP1 POP PUSH1 0x1 DUP3 AND DUP1 PUSH2 0x360 JUMPI PUSH1 0x7F DUP3 AND SWAP2 POP JUMPDEST PUSH1 0x20 DUP3 LT DUP2 EQ ISZERO PUSH2 0x374 JUMPI PUSH2 0x373 PUSH2 0x423 JUMP JUMPDEST JUMPDEST POP SWAP2 SWAP1 POP JUMP JUMPDEST PUSH2 0x383 DUP3 PUSH2 0x495 JUMP JUMPDEST DUP2 ADD DUP2 DUP2 LT PUSH8 0xFFFFFFFFFFFFFFFF DUP3 GT OR ISZERO PUSH2 0x3A2 JUMPI PUSH2 0x3A1 PUSH2 0x452 JUMP JUMPDEST JUMPDEST DUP1 PUSH1 0x40 MSTORE POP POP POP JUMP JUMPDEST PUSH1 0x0 PUSH2 0x3B6 DUP3 PUSH2 0x32F JUMP JUMPDEST SWAP2 POP PUSH32 0xFFFFFFFFFFFFFFFFFFFFFFFFFFFFFFFFFFFFFFFFFFFFFFFFFFFFFFFFFFFFFFFF DUP3 EQ ISZERO PUSH2 0x3E9 JUMPI PUSH2 0x3E8 PUSH2 0x3F4 JUMP JUMPDEST JUMPDEST PUSH1 0x1 DUP3 ADD SWAP1 POP SWAP2 SWAP1 POP JUMP JUMPDEST PUSH32 0x4E487B7100000000000000000000000000000000000000000000000000000000 PUSH1 0x0 MSTORE PUSH1 0x11 PUSH1 0x4 MSTORE PUSH1 0x24 PUSH1 0x0 REVERT JUMPDEST PUSH32 0x4E487B7100000000000000000000000000000000000000000000000000000000 PUSH1 0x0 MSTORE PUSH1 0x22 PUSH1 0x4 MSTORE PUSH1 0x24 PUSH1 0x0 REVERT JUMPDEST PUSH32 0x4E487B7100000000000000000000000000000000000000000000000000000000 PUSH1 0x0 MSTORE PUSH1 0x41 PUSH1 0x4 MSTORE PUSH1 0x24 PUSH1 0x0 REVERT JUMPDEST PUSH1 0x0 DUP1 REVERT JUMPDEST PUSH1 0x0 DUP1 REVERT JUMPDEST PUSH1 0x0 DUP1 REVERT JUMPDEST PUSH1 0x0 DUP1 REVERT JUMPDEST PUSH1 0x0 PUSH1 0x1F NOT PUSH1 0x1F DUP4 ADD AND SWAP1 POP SWAP2 SWAP1 POP JUMP INVALID LOG2 PUSH5 0x6970667358 0x22 SLT KECCAK256 SWAP6 0xBA SWAP12 PUSH4 0xA5E521B4 0xCD 0xC4 SWAP8 0xD9 0xDE 0x4F LT 0xCF SWAP1 0xD0 0x5E 0xEA SHL 0x49 REVERT LOG1 0xDF PC 0x4D CALL 0xDE 0xEB 0x28 EXTCODECOPY PUSH5 0x736F6C6343 STOP ADDMOD SMOD STOP CALLER "
				},
				"gasEstimates": {
					"creation": {
						"codeDepositCost": "248800",
						"executionCost": "5293",
						"totalCost": "254093"
					},
					"external": {
						"addOption(string,string)": "infinite",
						"startPool(string,string)": "infinite"
					}
				},
				"methodIdentifiers": {
					"addOption(string,string)": "4b67e07f",
					"startPool(string,string)": "f71b5cde"
				}
			},
			"userdoc": {
				"kind": "user",
				"methods": {},
				"version": 1
			}
		}
	}
}