{
	"contracts/eVoting_app.sol": {
		"EVoteApp": {
			"abi": [
				{
					"inputs": [
						{
							"internalType": "uint256",
							"name": "",
							"type": "uint256"
						}
					],
					"name": "pools",
					"outputs": [
						{
							"internalType": "string",
							"name": "name",
							"type": "string"
						},
						{
							"internalType": "string",
							"name": "description",
							"type": "string"
						},
						{
							"internalType": "uint256",
							"name": "totalVotes",
							"type": "uint256"
						},
						{
							"internalType": "address",
							"name": "owner",
							"type": "address"
						}
					],
					"stateMutability": "view",
					"type": "function"
				},
				{
					"inputs": [
						{
							"internalType": "string",
							"name": "_poolName",
							"type": "string"
						},
						{
							"internalType": "string",
							"name": "_description",
							"type": "string"
						}
					],
					"name": "startPool",
					"outputs": [],
					"stateMutability": "nonpayable",
					"type": "function"
				}
			],
			"devdoc": {
				"kind": "dev",
				"methods": {},
				"version": 1
			},
			"evm": {
				"assembly": "    /* \"contracts/eVoting_app.sol\":71:725  contract EVoteApp{... */\n  mstore(0x40, 0x80)\n  callvalue\n  dup1\n  iszero\n  tag_1\n  jumpi\n  0x00\n  dup1\n  revert\ntag_1:\n  pop\n  dataSize(sub_0)\n  dup1\n  dataOffset(sub_0)\n  0x00\n  codecopy\n  0x00\n  return\nstop\n\nsub_0: assembly {\n        /* \"contracts/eVoting_app.sol\":71:725  contract EVoteApp{... */\n      mstore(0x40, 0x80)\n      callvalue\n      dup1\n      iszero\n      tag_1\n      jumpi\n      0x00\n      dup1\n      revert\n    tag_1:\n      pop\n      jumpi(tag_2, lt(calldatasize, 0x04))\n      shr(0xe0, calldataload(0x00))\n      dup1\n      0xac4afa38\n      eq\n      tag_3\n      jumpi\n      dup1\n      0xf71b5cde\n      eq\n      tag_4\n      jumpi\n    tag_2:\n      0x00\n      dup1\n      revert\n        /* \"contracts/eVoting_app.sol\":464:483  Pool[] public pools */\n    tag_3:\n      tag_5\n      0x04\n      dup1\n      calldatasize\n      sub\n      dup2\n      add\n      swap1\n      tag_6\n      swap2\n      swap1\n      tag_7\n      jump\t// in\n    tag_6:\n      tag_8\n      jump\t// in\n    tag_5:\n      mload(0x40)\n      tag_9\n      swap5\n      swap4\n      swap3\n      swap2\n      swap1\n      tag_10\n      jump\t// in\n    tag_9:\n      mload(0x40)\n      dup1\n      swap2\n      sub\n      swap1\n      return\n        /* \"contracts/eVoting_app.sol\":490:723  function startPool(string memory _poolName, string memory _description) public{... */\n    tag_4:\n      tag_11\n      0x04\n      dup1\n      calldatasize\n      sub\n      dup2\n      add\n      swap1\n      tag_12\n      swap2\n      swap1\n      tag_13\n      jump\t// in\n    tag_12:\n      tag_14\n      jump\t// in\n    tag_11:\n      stop\n        /* \"contracts/eVoting_app.sol\":464:483  Pool[] public pools */\n    tag_8:\n      0x00\n      dup2\n      dup2\n      sload\n      dup2\n      lt\n      tag_15\n      jumpi\n      0x00\n      dup1\n      revert\n    tag_15:\n      swap1\n      0x00\n      mstore\n      keccak256(0x00, 0x20)\n      swap1\n      0x04\n      mul\n      add\n      0x00\n      swap2\n      pop\n      swap1\n      pop\n      dup1\n      0x00\n      add\n      dup1\n      sload\n      tag_17\n      swap1\n      tag_18\n      jump\t// in\n    tag_17:\n      dup1\n      0x1f\n      add\n      0x20\n      dup1\n      swap2\n      div\n      mul\n      0x20\n      add\n      mload(0x40)\n      swap1\n      dup2\n      add\n      0x40\n      mstore\n      dup1\n      swap3\n      swap2\n      swap1\n      dup2\n      dup2\n      mstore\n      0x20\n      add\n      dup3\n      dup1\n      sload\n      tag_19\n      swap1\n      tag_18\n      jump\t// in\n    tag_19:\n      dup1\n      iszero\n      tag_20\n      jumpi\n      dup1\n      0x1f\n      lt\n      tag_21\n      jumpi\n      0x0100\n      dup1\n      dup4\n      sload\n      div\n      mul\n      dup4\n      mstore\n      swap2\n      0x20\n      add\n      swap2\n      jump(tag_20)\n    tag_21:\n      dup3\n      add\n      swap2\n      swap1\n      0x00\n      mstore\n      keccak256(0x00, 0x20)\n      swap1\n    tag_22:\n      dup2\n      sload\n      dup2\n      mstore\n      swap1\n      0x01\n      add\n      swap1\n      0x20\n      add\n      dup1\n      dup4\n      gt\n      tag_22\n      jumpi\n      dup3\n      swap1\n      sub\n      0x1f\n      and\n      dup3\n      add\n      swap2\n    tag_20:\n      pop\n      pop\n      pop\n      pop\n      pop\n      swap1\n      dup1\n      0x01\n      add\n      dup1\n      sload\n      tag_23\n      swap1\n      tag_18\n      jump\t// in\n    tag_23:\n      dup1\n      0x1f\n      add\n      0x20\n      dup1\n      swap2\n      div\n      mul\n      0x20\n      add\n      mload(0x40)\n      swap1\n      dup2\n      add\n      0x40\n      mstore\n      dup1\n      swap3\n      swap2\n      swap1\n      dup2\n      dup2\n      mstore\n      0x20\n      add\n      dup3\n      dup1\n      sload\n      tag_24\n      swap1\n      tag_18\n      jump\t// in\n    tag_24:\n      dup1\n      iszero\n      tag_25\n      jumpi\n      dup1\n      0x1f\n      lt\n      tag_26\n      jumpi\n      0x0100\n      dup1\n      dup4\n      sload\n      div\n      mul\n      dup4\n      mstore\n      swap2\n      0x20\n      add\n      swap2\n      jump(tag_25)\n    tag_26:\n      dup3\n      add\n      swap2\n      swap1\n      0x00\n      mstore\n      keccak256(0x00, 0x20)\n      swap1\n    tag_27:\n      dup2\n      sload\n      dup2\n      mstore\n      swap1\n      0x01\n      add\n      swap1\n      0x20\n      add\n      dup1\n      dup4\n      gt\n      tag_27\n      jumpi\n      dup3\n      swap1\n      sub\n      0x1f\n      and\n      dup3\n      add\n      swap2\n    tag_25:\n      pop\n      pop\n      pop\n      pop\n      pop\n      swap1\n      dup1\n      0x02\n      add\n      sload\n      swap1\n      dup1\n      0x03\n      add\n      0x00\n      swap1\n      sload\n      swap1\n      0x0100\n      exp\n      swap1\n      div\n      0xffffffffffffffffffffffffffffffffffffffff\n      and\n      swap1\n      pop\n      dup5\n      jump\t// out\n        /* \"contracts/eVoting_app.sol\":490:723  function startPool(string memory _poolName, string memory _description) public{... */\n    tag_14:\n        /* \"contracts/eVoting_app.sol\":578:583  pools */\n      0x00\n        /* \"contracts/eVoting_app.sol\":589:715  Pool(... */\n      mload(0x40)\n      dup1\n      0x80\n      add\n      0x40\n      mstore\n      dup1\n        /* \"contracts/eVoting_app.sol\":607:616  _poolName */\n      dup5\n        /* \"contracts/eVoting_app.sol\":589:715  Pool(... */\n      dup2\n      mstore\n      0x20\n      add\n        /* \"contracts/eVoting_app.sol\":630:642  _description */\n      dup4\n        /* \"contracts/eVoting_app.sol\":589:715  Pool(... */\n      dup2\n      mstore\n      0x20\n      add\n        /* \"contracts/eVoting_app.sol\":656:657  0 */\n      0x00\n        /* \"contracts/eVoting_app.sol\":589:715  Pool(... */\n      dup2\n      mstore\n      0x20\n      add\n        /* \"contracts/eVoting_app.sol\":671:681  msg.sender */\n      caller\n        /* \"contracts/eVoting_app.sol\":589:715  Pool(... */\n      0xffffffffffffffffffffffffffffffffffffffff\n      and\n      dup2\n      mstore\n      pop\n        /* \"contracts/eVoting_app.sol\":578:716  pools.push(Pool(... */\n      swap1\n      dup1\n      0x01\n      dup2\n      sload\n      add\n      dup1\n      dup3\n      sstore\n      dup1\n      swap2\n      pop\n      pop\n      0x01\n      swap1\n      sub\n      swap1\n      0x00\n      mstore\n      keccak256(0x00, 0x20)\n      swap1\n      0x04\n      mul\n      add\n      0x00\n      swap1\n      swap2\n      swap1\n      swap2\n      swap1\n      swap2\n      pop\n      0x00\n      dup3\n      add\n      mload\n      dup2\n      0x00\n      add\n      swap1\n      dup1\n      mload\n      swap1\n      0x20\n      add\n      swap1\n      tag_30\n      swap3\n      swap2\n      swap1\n      tag_31\n      jump\t// in\n    tag_30:\n      pop\n      0x20\n      dup3\n      add\n      mload\n      dup2\n      0x01\n      add\n      swap1\n      dup1\n      mload\n      swap1\n      0x20\n      add\n      swap1\n      tag_32\n      swap3\n      swap2\n      swap1\n      tag_31\n      jump\t// in\n    tag_32:\n      pop\n      0x40\n      dup3\n      add\n      mload\n      dup2\n      0x02\n      add\n      sstore\n      0x60\n      dup3\n      add\n      mload\n      dup2\n      0x03\n      add\n      exp(0x0100, 0x00)\n      dup2\n      sload\n      dup2\n      0xffffffffffffffffffffffffffffffffffffffff\n      mul\n      not\n      and\n      swap1\n      dup4\n      0xffffffffffffffffffffffffffffffffffffffff\n      and\n      mul\n      or\n      swap1\n      sstore\n      pop\n      pop\n      pop\n        /* \"contracts/eVoting_app.sol\":490:723  function startPool(string memory _poolName, string memory _description) public{... */\n      pop\n      pop\n      jump\t// out\n    tag_31:\n      dup3\n      dup1\n      sload\n      tag_33\n      swap1\n      tag_18\n      jump\t// in\n    tag_33:\n      swap1\n      0x00\n      mstore\n      keccak256(0x00, 0x20)\n      swap1\n      0x1f\n      add\n      0x20\n      swap1\n      div\n      dup2\n      add\n      swap3\n      dup3\n      tag_35\n      jumpi\n      0x00\n      dup6\n      sstore\n      jump(tag_34)\n    tag_35:\n      dup3\n      0x1f\n      lt\n      tag_36\n      jumpi\n      dup1\n      mload\n      not(0xff)\n      and\n      dup4\n      dup1\n      add\n      or\n      dup6\n      sstore\n      jump(tag_34)\n    tag_36:\n      dup3\n      dup1\n      add\n      0x01\n      add\n      dup6\n      sstore\n      dup3\n      iszero\n      tag_34\n      jumpi\n      swap2\n      dup3\n      add\n    tag_37:\n      dup3\n      dup2\n      gt\n      iszero\n      tag_38\n      jumpi\n      dup3\n      mload\n      dup3\n      sstore\n      swap2\n      0x20\n      add\n      swap2\n      swap1\n      0x01\n      add\n      swap1\n      jump(tag_37)\n    tag_38:\n    tag_34:\n      pop\n      swap1\n      pop\n      tag_39\n      swap2\n      swap1\n      tag_40\n      jump\t// in\n    tag_39:\n      pop\n      swap1\n      jump\t// out\n    tag_40:\n    tag_41:\n      dup1\n      dup3\n      gt\n      iszero\n      tag_42\n      jumpi\n      0x00\n      dup2\n      0x00\n      swap1\n      sstore\n      pop\n      0x01\n      add\n      jump(tag_41)\n    tag_42:\n      pop\n      swap1\n      jump\t// out\n        /* \"#utility.yul\":7:419   */\n    tag_44:\n        /* \"#utility.yul\":85:90   */\n      0x00\n        /* \"#utility.yul\":110:176   */\n      tag_46\n        /* \"#utility.yul\":126:175   */\n      tag_47\n        /* \"#utility.yul\":168:174   */\n      dup5\n        /* \"#utility.yul\":126:175   */\n      tag_48\n      jump\t// in\n    tag_47:\n        /* \"#utility.yul\":110:176   */\n      tag_49\n      jump\t// in\n    tag_46:\n        /* \"#utility.yul\":101:176   */\n      swap1\n      pop\n        /* \"#utility.yul\":199:205   */\n      dup3\n        /* \"#utility.yul\":192:197   */\n      dup2\n        /* \"#utility.yul\":185:206   */\n      mstore\n        /* \"#utility.yul\":237:241   */\n      0x20\n        /* \"#utility.yul\":230:235   */\n      dup2\n        /* \"#utility.yul\":226:242   */\n      add\n        /* \"#utility.yul\":275:278   */\n      dup5\n        /* \"#utility.yul\":266:272   */\n      dup5\n        /* \"#utility.yul\":261:264   */\n      dup5\n        /* \"#utility.yul\":257:273   */\n      add\n        /* \"#utility.yul\":254:279   */\n      gt\n        /* \"#utility.yul\":251:363   */\n      iszero\n      tag_50\n      jumpi\n        /* \"#utility.yul\":282:361   */\n      tag_51\n      tag_52\n      jump\t// in\n    tag_51:\n        /* \"#utility.yul\":251:363   */\n    tag_50:\n        /* \"#utility.yul\":372:413   */\n      tag_53\n        /* \"#utility.yul\":406:412   */\n      dup5\n        /* \"#utility.yul\":401:404   */\n      dup3\n        /* \"#utility.yul\":396:399   */\n      dup6\n        /* \"#utility.yul\":372:413   */\n      tag_54\n      jump\t// in\n    tag_53:\n        /* \"#utility.yul\":91:419   */\n      pop\n        /* \"#utility.yul\":7:419   */\n      swap4\n      swap3\n      pop\n      pop\n      pop\n      jump\t// out\n        /* \"#utility.yul\":439:779   */\n    tag_55:\n        /* \"#utility.yul\":495:500   */\n      0x00\n        /* \"#utility.yul\":544:547   */\n      dup3\n        /* \"#utility.yul\":537:541   */\n      0x1f\n        /* \"#utility.yul\":529:535   */\n      dup4\n        /* \"#utility.yul\":525:542   */\n      add\n        /* \"#utility.yul\":521:548   */\n      slt\n        /* \"#utility.yul\":511:633   */\n      tag_57\n      jumpi\n        /* \"#utility.yul\":552:631   */\n      tag_58\n      tag_59\n      jump\t// in\n    tag_58:\n        /* \"#utility.yul\":511:633   */\n    tag_57:\n        /* \"#utility.yul\":669:675   */\n      dup2\n        /* \"#utility.yul\":656:676   */\n      calldataload\n        /* \"#utility.yul\":694:773   */\n      tag_60\n        /* \"#utility.yul\":769:772   */\n      dup5\n        /* \"#utility.yul\":761:767   */\n      dup3\n        /* \"#utility.yul\":754:758   */\n      0x20\n        /* \"#utility.yul\":746:752   */\n      dup7\n        /* \"#utility.yul\":742:759   */\n      add\n        /* \"#utility.yul\":694:773   */\n      tag_44\n      jump\t// in\n    tag_60:\n        /* \"#utility.yul\":685:773   */\n      swap2\n      pop\n        /* \"#utility.yul\":501:779   */\n      pop\n        /* \"#utility.yul\":439:779   */\n      swap3\n      swap2\n      pop\n      pop\n      jump\t// out\n        /* \"#utility.yul\":785:924   */\n    tag_61:\n        /* \"#utility.yul\":831:836   */\n      0x00\n        /* \"#utility.yul\":869:875   */\n      dup2\n        /* \"#utility.yul\":856:876   */\n      calldataload\n        /* \"#utility.yul\":847:876   */\n      swap1\n      pop\n        /* \"#utility.yul\":885:918   */\n      tag_63\n        /* \"#utility.yul\":912:917   */\n      dup2\n        /* \"#utility.yul\":885:918   */\n      tag_64\n      jump\t// in\n    tag_63:\n        /* \"#utility.yul\":785:924   */\n      swap3\n      swap2\n      pop\n      pop\n      jump\t// out\n        /* \"#utility.yul\":930:1764   */\n    tag_13:\n        /* \"#utility.yul\":1018:1024   */\n      0x00\n        /* \"#utility.yul\":1026:1032   */\n      dup1\n        /* \"#utility.yul\":1075:1077   */\n      0x40\n        /* \"#utility.yul\":1063:1072   */\n      dup4\n        /* \"#utility.yul\":1054:1061   */\n      dup6\n        /* \"#utility.yul\":1050:1073   */\n      sub\n        /* \"#utility.yul\":1046:1078   */\n      slt\n        /* \"#utility.yul\":1043:1162   */\n      iszero\n      tag_66\n      jumpi\n        /* \"#utility.yul\":1081:1160   */\n      tag_67\n      tag_68\n      jump\t// in\n    tag_67:\n        /* \"#utility.yul\":1043:1162   */\n    tag_66:\n        /* \"#utility.yul\":1229:1230   */\n      0x00\n        /* \"#utility.yul\":1218:1227   */\n      dup4\n        /* \"#utility.yul\":1214:1231   */\n      add\n        /* \"#utility.yul\":1201:1232   */\n      calldataload\n        /* \"#utility.yul\":1259:1277   */\n      0xffffffffffffffff\n        /* \"#utility.yul\":1251:1257   */\n      dup2\n        /* \"#utility.yul\":1248:1278   */\n      gt\n        /* \"#utility.yul\":1245:1362   */\n      iszero\n      tag_69\n      jumpi\n        /* \"#utility.yul\":1281:1360   */\n      tag_70\n      tag_71\n      jump\t// in\n    tag_70:\n        /* \"#utility.yul\":1245:1362   */\n    tag_69:\n        /* \"#utility.yul\":1386:1449   */\n      tag_72\n        /* \"#utility.yul\":1441:1448   */\n      dup6\n        /* \"#utility.yul\":1432:1438   */\n      dup3\n        /* \"#utility.yul\":1421:1430   */\n      dup7\n        /* \"#utility.yul\":1417:1439   */\n      add\n        /* \"#utility.yul\":1386:1449   */\n      tag_55\n      jump\t// in\n    tag_72:\n        /* \"#utility.yul\":1376:1449   */\n      swap3\n      pop\n        /* \"#utility.yul\":1172:1459   */\n      pop\n        /* \"#utility.yul\":1526:1528   */\n      0x20\n        /* \"#utility.yul\":1515:1524   */\n      dup4\n        /* \"#utility.yul\":1511:1529   */\n      add\n        /* \"#utility.yul\":1498:1530   */\n      calldataload\n        /* \"#utility.yul\":1557:1575   */\n      0xffffffffffffffff\n        /* \"#utility.yul\":1549:1555   */\n      dup2\n        /* \"#utility.yul\":1546:1576   */\n      gt\n        /* \"#utility.yul\":1543:1660   */\n      iszero\n      tag_73\n      jumpi\n        /* \"#utility.yul\":1579:1658   */\n      tag_74\n      tag_71\n      jump\t// in\n    tag_74:\n        /* \"#utility.yul\":1543:1660   */\n    tag_73:\n        /* \"#utility.yul\":1684:1747   */\n      tag_75\n        /* \"#utility.yul\":1739:1746   */\n      dup6\n        /* \"#utility.yul\":1730:1736   */\n      dup3\n        /* \"#utility.yul\":1719:1728   */\n      dup7\n        /* \"#utility.yul\":1715:1737   */\n      add\n        /* \"#utility.yul\":1684:1747   */\n      tag_55\n      jump\t// in\n    tag_75:\n        /* \"#utility.yul\":1674:1747   */\n      swap2\n      pop\n        /* \"#utility.yul\":1469:1757   */\n      pop\n        /* \"#utility.yul\":930:1764   */\n      swap3\n      pop\n      swap3\n      swap1\n      pop\n      jump\t// out\n        /* \"#utility.yul\":1770:2099   */\n    tag_7:\n        /* \"#utility.yul\":1829:1835   */\n      0x00\n        /* \"#utility.yul\":1878:1880   */\n      0x20\n        /* \"#utility.yul\":1866:1875   */\n      dup3\n        /* \"#utility.yul\":1857:1864   */\n      dup5\n        /* \"#utility.yul\":1853:1876   */\n      sub\n        /* \"#utility.yul\":1849:1881   */\n      slt\n        /* \"#utility.yul\":1846:1965   */\n      iszero\n      tag_77\n      jumpi\n        /* \"#utility.yul\":1884:1963   */\n      tag_78\n      tag_68\n      jump\t// in\n    tag_78:\n        /* \"#utility.yul\":1846:1965   */\n    tag_77:\n        /* \"#utility.yul\":2004:2005   */\n      0x00\n        /* \"#utility.yul\":2029:2082   */\n      tag_79\n        /* \"#utility.yul\":2074:2081   */\n      dup5\n        /* \"#utility.yul\":2065:2071   */\n      dup3\n        /* \"#utility.yul\":2054:2063   */\n      dup6\n        /* \"#utility.yul\":2050:2072   */\n      add\n        /* \"#utility.yul\":2029:2082   */\n      tag_61\n      jump\t// in\n    tag_79:\n        /* \"#utility.yul\":2019:2082   */\n      swap2\n      pop\n        /* \"#utility.yul\":1975:2092   */\n      pop\n        /* \"#utility.yul\":1770:2099   */\n      swap3\n      swap2\n      pop\n      pop\n      jump\t// out\n        /* \"#utility.yul\":2105:2223   */\n    tag_80:\n        /* \"#utility.yul\":2192:2216   */\n      tag_82\n        /* \"#utility.yul\":2210:2215   */\n      dup2\n        /* \"#utility.yul\":2192:2216   */\n      tag_83\n      jump\t// in\n    tag_82:\n        /* \"#utility.yul\":2187:2190   */\n      dup3\n        /* \"#utility.yul\":2180:2217   */\n      mstore\n        /* \"#utility.yul\":2105:2223   */\n      pop\n      pop\n      jump\t// out\n        /* \"#utility.yul\":2229:2593   */\n    tag_84:\n        /* \"#utility.yul\":2317:2320   */\n      0x00\n        /* \"#utility.yul\":2345:2384   */\n      tag_86\n        /* \"#utility.yul\":2378:2383   */\n      dup3\n        /* \"#utility.yul\":2345:2384   */\n      tag_87\n      jump\t// in\n    tag_86:\n        /* \"#utility.yul\":2400:2471   */\n      tag_88\n        /* \"#utility.yul\":2464:2470   */\n      dup2\n        /* \"#utility.yul\":2459:2462   */\n      dup6\n        /* \"#utility.yul\":2400:2471   */\n      tag_89\n      jump\t// in\n    tag_88:\n        /* \"#utility.yul\":2393:2471   */\n      swap4\n      pop\n        /* \"#utility.yul\":2480:2532   */\n      tag_90\n        /* \"#utility.yul\":2525:2531   */\n      dup2\n        /* \"#utility.yul\":2520:2523   */\n      dup6\n        /* \"#utility.yul\":2513:2517   */\n      0x20\n        /* \"#utility.yul\":2506:2511   */\n      dup7\n        /* \"#utility.yul\":2502:2518   */\n      add\n        /* \"#utility.yul\":2480:2532   */\n      tag_91\n      jump\t// in\n    tag_90:\n        /* \"#utility.yul\":2557:2586   */\n      tag_92\n        /* \"#utility.yul\":2579:2585   */\n      dup2\n        /* \"#utility.yul\":2557:2586   */\n      tag_93\n      jump\t// in\n    tag_92:\n        /* \"#utility.yul\":2552:2555   */\n      dup5\n        /* \"#utility.yul\":2548:2587   */\n      add\n        /* \"#utility.yul\":2541:2587   */\n      swap2\n      pop\n        /* \"#utility.yul\":2321:2593   */\n      pop\n        /* \"#utility.yul\":2229:2593   */\n      swap3\n      swap2\n      pop\n      pop\n      jump\t// out\n        /* \"#utility.yul\":2599:2717   */\n    tag_94:\n        /* \"#utility.yul\":2686:2710   */\n      tag_96\n        /* \"#utility.yul\":2704:2709   */\n      dup2\n        /* \"#utility.yul\":2686:2710   */\n      tag_97\n      jump\t// in\n    tag_96:\n        /* \"#utility.yul\":2681:2684   */\n      dup3\n        /* \"#utility.yul\":2674:2711   */\n      mstore\n        /* \"#utility.yul\":2599:2717   */\n      pop\n      pop\n      jump\t// out\n        /* \"#utility.yul\":2723:3458   */\n    tag_10:\n        /* \"#utility.yul\":2940:2944   */\n      0x00\n        /* \"#utility.yul\":2978:2981   */\n      0x80\n        /* \"#utility.yul\":2967:2976   */\n      dup3\n        /* \"#utility.yul\":2963:2982   */\n      add\n        /* \"#utility.yul\":2955:2982   */\n      swap1\n      pop\n        /* \"#utility.yul\":3028:3037   */\n      dup2\n        /* \"#utility.yul\":3022:3026   */\n      dup2\n        /* \"#utility.yul\":3018:3038   */\n      sub\n        /* \"#utility.yul\":3014:3015   */\n      0x00\n        /* \"#utility.yul\":3003:3012   */\n      dup4\n        /* \"#utility.yul\":2999:3016   */\n      add\n        /* \"#utility.yul\":2992:3039   */\n      mstore\n        /* \"#utility.yul\":3056:3134   */\n      tag_99\n        /* \"#utility.yul\":3129:3133   */\n      dup2\n        /* \"#utility.yul\":3120:3126   */\n      dup8\n        /* \"#utility.yul\":3056:3134   */\n      tag_84\n      jump\t// in\n    tag_99:\n        /* \"#utility.yul\":3048:3134   */\n      swap1\n      pop\n        /* \"#utility.yul\":3181:3190   */\n      dup2\n        /* \"#utility.yul\":3175:3179   */\n      dup2\n        /* \"#utility.yul\":3171:3191   */\n      sub\n        /* \"#utility.yul\":3166:3168   */\n      0x20\n        /* \"#utility.yul\":3155:3164   */\n      dup4\n        /* \"#utility.yul\":3151:3169   */\n      add\n        /* \"#utility.yul\":3144:3192   */\n      mstore\n        /* \"#utility.yul\":3209:3287   */\n      tag_100\n        /* \"#utility.yul\":3282:3286   */\n      dup2\n        /* \"#utility.yul\":3273:3279   */\n      dup7\n        /* \"#utility.yul\":3209:3287   */\n      tag_84\n      jump\t// in\n    tag_100:\n        /* \"#utility.yul\":3201:3287   */\n      swap1\n      pop\n        /* \"#utility.yul\":3297:3369   */\n      tag_101\n        /* \"#utility.yul\":3365:3367   */\n      0x40\n        /* \"#utility.yul\":3354:3363   */\n      dup4\n        /* \"#utility.yul\":3350:3368   */\n      add\n        /* \"#utility.yul\":3341:3347   */\n      dup6\n        /* \"#utility.yul\":3297:3369   */\n      tag_94\n      jump\t// in\n    tag_101:\n        /* \"#utility.yul\":3379:3451   */\n      tag_102\n        /* \"#utility.yul\":3447:3449   */\n      0x60\n        /* \"#utility.yul\":3436:3445   */\n      dup4\n        /* \"#utility.yul\":3432:3450   */\n      add\n        /* \"#utility.yul\":3423:3429   */\n      dup5\n        /* \"#utility.yul\":3379:3451   */\n      tag_80\n      jump\t// in\n    tag_102:\n        /* \"#utility.yul\":2723:3458   */\n      swap6\n      swap5\n      pop\n      pop\n      pop\n      pop\n      pop\n      jump\t// out\n        /* \"#utility.yul\":3464:3593   */\n    tag_49:\n        /* \"#utility.yul\":3498:3504   */\n      0x00\n        /* \"#utility.yul\":3525:3545   */\n      tag_104\n      tag_105\n      jump\t// in\n    tag_104:\n        /* \"#utility.yul\":3515:3545   */\n      swap1\n      pop\n        /* \"#utility.yul\":3554:3587   */\n      tag_106\n        /* \"#utility.yul\":3582:3586   */\n      dup3\n        /* \"#utility.yul\":3574:3580   */\n      dup3\n        /* \"#utility.yul\":3554:3587   */\n      tag_107\n      jump\t// in\n    tag_106:\n        /* \"#utility.yul\":3464:3593   */\n      swap2\n      swap1\n      pop\n      jump\t// out\n        /* \"#utility.yul\":3599:3674   */\n    tag_105:\n        /* \"#utility.yul\":3632:3638   */\n      0x00\n        /* \"#utility.yul\":3665:3667   */\n      0x40\n        /* \"#utility.yul\":3659:3668   */\n      mload\n        /* \"#utility.yul\":3649:3668   */\n      swap1\n      pop\n        /* \"#utility.yul\":3599:3674   */\n      swap1\n      jump\t// out\n        /* \"#utility.yul\":3680:3988   */\n    tag_48:\n        /* \"#utility.yul\":3742:3746   */\n      0x00\n        /* \"#utility.yul\":3832:3850   */\n      0xffffffffffffffff\n        /* \"#utility.yul\":3824:3830   */\n      dup3\n        /* \"#utility.yul\":3821:3851   */\n      gt\n        /* \"#utility.yul\":3818:3874   */\n      iszero\n      tag_110\n      jumpi\n        /* \"#utility.yul\":3854:3872   */\n      tag_111\n      tag_112\n      jump\t// in\n    tag_111:\n        /* \"#utility.yul\":3818:3874   */\n    tag_110:\n        /* \"#utility.yul\":3892:3921   */\n      tag_113\n        /* \"#utility.yul\":3914:3920   */\n      dup3\n        /* \"#utility.yul\":3892:3921   */\n      tag_93\n      jump\t// in\n    tag_113:\n        /* \"#utility.yul\":3884:3921   */\n      swap1\n      pop\n        /* \"#utility.yul\":3976:3980   */\n      0x20\n        /* \"#utility.yul\":3970:3974   */\n      dup2\n        /* \"#utility.yul\":3966:3981   */\n      add\n        /* \"#utility.yul\":3958:3981   */\n      swap1\n      pop\n        /* \"#utility.yul\":3680:3988   */\n      swap2\n      swap1\n      pop\n      jump\t// out\n        /* \"#utility.yul\":3994:4093   */\n    tag_87:\n        /* \"#utility.yul\":4046:4052   */\n      0x00\n        /* \"#utility.yul\":4080:4085   */\n      dup2\n        /* \"#utility.yul\":4074:4086   */\n      mload\n        /* \"#utility.yul\":4064:4086   */\n      swap1\n      pop\n        /* \"#utility.yul\":3994:4093   */\n      swap2\n      swap1\n      pop\n      jump\t// out\n        /* \"#utility.yul\":4099:4268   */\n    tag_89:\n        /* \"#utility.yul\":4183:4194   */\n      0x00\n        /* \"#utility.yul\":4217:4223   */\n      dup3\n        /* \"#utility.yul\":4212:4215   */\n      dup3\n        /* \"#utility.yul\":4205:4224   */\n      mstore\n        /* \"#utility.yul\":4257:4261   */\n      0x20\n        /* \"#utility.yul\":4252:4255   */\n      dup3\n        /* \"#utility.yul\":4248:4262   */\n      add\n        /* \"#utility.yul\":4233:4262   */\n      swap1\n      pop\n        /* \"#utility.yul\":4099:4268   */\n      swap3\n      swap2\n      pop\n      pop\n      jump\t// out\n        /* \"#utility.yul\":4274:4370   */\n    tag_83:\n        /* \"#utility.yul\":4311:4318   */\n      0x00\n        /* \"#utility.yul\":4340:4364   */\n      tag_117\n        /* \"#utility.yul\":4358:4363   */\n      dup3\n        /* \"#utility.yul\":4340:4364   */\n      tag_118\n      jump\t// in\n    tag_117:\n        /* \"#utility.yul\":4329:4364   */\n      swap1\n      pop\n        /* \"#utility.yul\":4274:4370   */\n      swap2\n      swap1\n      pop\n      jump\t// out\n        /* \"#utility.yul\":4376:4502   */\n    tag_118:\n        /* \"#utility.yul\":4413:4420   */\n      0x00\n        /* \"#utility.yul\":4453:4495   */\n      0xffffffffffffffffffffffffffffffffffffffff\n        /* \"#utility.yul\":4446:4451   */\n      dup3\n        /* \"#utility.yul\":4442:4496   */\n      and\n        /* \"#utility.yul\":4431:4496   */\n      swap1\n      pop\n        /* \"#utility.yul\":4376:4502   */\n      swap2\n      swap1\n      pop\n      jump\t// out\n        /* \"#utility.yul\":4508:4585   */\n    tag_97:\n        /* \"#utility.yul\":4545:4552   */\n      0x00\n        /* \"#utility.yul\":4574:4579   */\n      dup2\n        /* \"#utility.yul\":4563:4579   */\n      swap1\n      pop\n        /* \"#utility.yul\":4508:4585   */\n      swap2\n      swap1\n      pop\n      jump\t// out\n        /* \"#utility.yul\":4591:4745   */\n    tag_54:\n        /* \"#utility.yul\":4675:4681   */\n      dup3\n        /* \"#utility.yul\":4670:4673   */\n      dup2\n        /* \"#utility.yul\":4665:4668   */\n      dup4\n        /* \"#utility.yul\":4652:4682   */\n      calldatacopy\n        /* \"#utility.yul\":4737:4738   */\n      0x00\n        /* \"#utility.yul\":4728:4734   */\n      dup4\n        /* \"#utility.yul\":4723:4726   */\n      dup4\n        /* \"#utility.yul\":4719:4735   */\n      add\n        /* \"#utility.yul\":4712:4739   */\n      mstore\n        /* \"#utility.yul\":4591:4745   */\n      pop\n      pop\n      pop\n      jump\t// out\n        /* \"#utility.yul\":4751:5058   */\n    tag_91:\n        /* \"#utility.yul\":4819:4820   */\n      0x00\n        /* \"#utility.yul\":4829:4942   */\n    tag_123:\n        /* \"#utility.yul\":4843:4849   */\n      dup4\n        /* \"#utility.yul\":4840:4841   */\n      dup2\n        /* \"#utility.yul\":4837:4850   */\n      lt\n        /* \"#utility.yul\":4829:4942   */\n      iszero\n      tag_125\n      jumpi\n        /* \"#utility.yul\":4928:4929   */\n      dup1\n        /* \"#utility.yul\":4923:4926   */\n      dup3\n        /* \"#utility.yul\":4919:4930   */\n      add\n        /* \"#utility.yul\":4913:4931   */\n      mload\n        /* \"#utility.yul\":4909:4910   */\n      dup2\n        /* \"#utility.yul\":4904:4907   */\n      dup5\n        /* \"#utility.yul\":4900:4911   */\n      add\n        /* \"#utility.yul\":4893:4932   */\n      mstore\n        /* \"#utility.yul\":4865:4867   */\n      0x20\n        /* \"#utility.yul\":4862:4863   */\n      dup2\n        /* \"#utility.yul\":4858:4868   */\n      add\n        /* \"#utility.yul\":4853:4868   */\n      swap1\n      pop\n        /* \"#utility.yul\":4829:4942   */\n      jump(tag_123)\n    tag_125:\n        /* \"#utility.yul\":4960:4966   */\n      dup4\n        /* \"#utility.yul\":4957:4958   */\n      dup2\n        /* \"#utility.yul\":4954:4967   */\n      gt\n        /* \"#utility.yul\":4951:5052   */\n      iszero\n      tag_126\n      jumpi\n        /* \"#utility.yul\":5040:5041   */\n      0x00\n        /* \"#utility.yul\":5031:5037   */\n      dup5\n        /* \"#utility.yul\":5026:5029   */\n      dup5\n        /* \"#utility.yul\":5022:5038   */\n      add\n        /* \"#utility.yul\":5015:5042   */\n      mstore\n        /* \"#utility.yul\":4951:5052   */\n    tag_126:\n        /* \"#utility.yul\":4800:5058   */\n      pop\n        /* \"#utility.yul\":4751:5058   */\n      pop\n      pop\n      pop\n      jump\t// out\n        /* \"#utility.yul\":5064:5384   */\n    tag_18:\n        /* \"#utility.yul\":5108:5114   */\n      0x00\n        /* \"#utility.yul\":5145:5146   */\n      0x02\n        /* \"#utility.yul\":5139:5143   */\n      dup3\n        /* \"#utility.yul\":5135:5147   */\n      div\n        /* \"#utility.yul\":5125:5147   */\n      swap1\n      pop\n        /* \"#utility.yul\":5192:5193   */\n      0x01\n        /* \"#utility.yul\":5186:5190   */\n      dup3\n        /* \"#utility.yul\":5182:5194   */\n      and\n        /* \"#utility.yul\":5213:5231   */\n      dup1\n        /* \"#utility.yul\":5203:5284   */\n      tag_128\n      jumpi\n        /* \"#utility.yul\":5269:5273   */\n      0x7f\n        /* \"#utility.yul\":5261:5267   */\n      dup3\n        /* \"#utility.yul\":5257:5274   */\n      and\n        /* \"#utility.yul\":5247:5274   */\n      swap2\n      pop\n        /* \"#utility.yul\":5203:5284   */\n    tag_128:\n        /* \"#utility.yul\":5331:5333   */\n      0x20\n        /* \"#utility.yul\":5323:5329   */\n      dup3\n        /* \"#utility.yul\":5320:5334   */\n      lt\n        /* \"#utility.yul\":5300:5318   */\n      dup2\n        /* \"#utility.yul\":5297:5335   */\n      eq\n        /* \"#utility.yul\":5294:5378   */\n      iszero\n      tag_129\n      jumpi\n        /* \"#utility.yul\":5350:5368   */\n      tag_130\n      tag_131\n      jump\t// in\n    tag_130:\n        /* \"#utility.yul\":5294:5378   */\n    tag_129:\n        /* \"#utility.yul\":5115:5384   */\n      pop\n        /* \"#utility.yul\":5064:5384   */\n      swap2\n      swap1\n      pop\n      jump\t// out\n        /* \"#utility.yul\":5390:5671   */\n    tag_107:\n        /* \"#utility.yul\":5473:5500   */\n      tag_133\n        /* \"#utility.yul\":5495:5499   */\n      dup3\n        /* \"#utility.yul\":5473:5500   */\n      tag_93\n      jump\t// in\n    tag_133:\n        /* \"#utility.yul\":5465:5471   */\n      dup2\n        /* \"#utility.yul\":5461:5501   */\n      add\n        /* \"#utility.yul\":5603:5609   */\n      dup2\n        /* \"#utility.yul\":5591:5601   */\n      dup2\n        /* \"#utility.yul\":5588:5610   */\n      lt\n        /* \"#utility.yul\":5567:5585   */\n      0xffffffffffffffff\n        /* \"#utility.yul\":5555:5565   */\n      dup3\n        /* \"#utility.yul\":5552:5586   */\n      gt\n        /* \"#utility.yul\":5549:5611   */\n      or\n        /* \"#utility.yul\":5546:5634   */\n      iszero\n      tag_134\n      jumpi\n        /* \"#utility.yul\":5614:5632   */\n      tag_135\n      tag_112\n      jump\t// in\n    tag_135:\n        /* \"#utility.yul\":5546:5634   */\n    tag_134:\n        /* \"#utility.yul\":5654:5664   */\n      dup1\n        /* \"#utility.yul\":5650:5652   */\n      0x40\n        /* \"#utility.yul\":5643:5665   */\n      mstore\n        /* \"#utility.yul\":5433:5671   */\n      pop\n        /* \"#utility.yul\":5390:5671   */\n      pop\n      pop\n      jump\t// out\n        /* \"#utility.yul\":5677:5857   */\n    tag_131:\n        /* \"#utility.yul\":5725:5802   */\n      0x4e487b7100000000000000000000000000000000000000000000000000000000\n        /* \"#utility.yul\":5722:5723   */\n      0x00\n        /* \"#utility.yul\":5715:5803   */\n      mstore\n        /* \"#utility.yul\":5822:5826   */\n      0x22\n        /* \"#utility.yul\":5819:5820   */\n      0x04\n        /* \"#utility.yul\":5812:5827   */\n      mstore\n        /* \"#utility.yul\":5846:5850   */\n      0x24\n        /* \"#utility.yul\":5843:5844   */\n      0x00\n        /* \"#utility.yul\":5836:5851   */\n      revert\n        /* \"#utility.yul\":5863:6043   */\n    tag_112:\n        /* \"#utility.yul\":5911:5988   */\n      0x4e487b7100000000000000000000000000000000000000000000000000000000\n        /* \"#utility.yul\":5908:5909   */\n      0x00\n        /* \"#utility.yul\":5901:5989   */\n      mstore\n        /* \"#utility.yul\":6008:6012   */\n      0x41\n        /* \"#utility.yul\":6005:6006   */\n      0x04\n        /* \"#utility.yul\":5998:6013   */\n      mstore\n        /* \"#utility.yul\":6032:6036   */\n      0x24\n        /* \"#utility.yul\":6029:6030   */\n      0x00\n        /* \"#utility.yul\":6022:6037   */\n      revert\n        /* \"#utility.yul\":6049:6166   */\n    tag_59:\n        /* \"#utility.yul\":6158:6159   */\n      0x00\n        /* \"#utility.yul\":6155:6156   */\n      dup1\n        /* \"#utility.yul\":6148:6160   */\n      revert\n        /* \"#utility.yul\":6172:6289   */\n    tag_52:\n        /* \"#utility.yul\":6281:6282   */\n      0x00\n        /* \"#utility.yul\":6278:6279   */\n      dup1\n        /* \"#utility.yul\":6271:6283   */\n      revert\n        /* \"#utility.yul\":6295:6412   */\n    tag_71:\n        /* \"#utility.yul\":6404:6405   */\n      0x00\n        /* \"#utility.yul\":6401:6402   */\n      dup1\n        /* \"#utility.yul\":6394:6406   */\n      revert\n        /* \"#utility.yul\":6418:6535   */\n    tag_68:\n        /* \"#utility.yul\":6527:6528   */\n      0x00\n        /* \"#utility.yul\":6524:6525   */\n      dup1\n        /* \"#utility.yul\":6517:6529   */\n      revert\n        /* \"#utility.yul\":6541:6643   */\n    tag_93:\n        /* \"#utility.yul\":6582:6588   */\n      0x00\n        /* \"#utility.yul\":6633:6635   */\n      0x1f\n        /* \"#utility.yul\":6629:6636   */\n      not\n        /* \"#utility.yul\":6624:6626   */\n      0x1f\n        /* \"#utility.yul\":6617:6622   */\n      dup4\n        /* \"#utility.yul\":6613:6627   */\n      add\n        /* \"#utility.yul\":6609:6637   */\n      and\n        /* \"#utility.yul\":6599:6637   */\n      swap1\n      pop\n        /* \"#utility.yul\":6541:6643   */\n      swap2\n      swap1\n      pop\n      jump\t// out\n        /* \"#utility.yul\":6649:6771   */\n    tag_64:\n        /* \"#utility.yul\":6722:6746   */\n      tag_144\n        /* \"#utility.yul\":6740:6745   */\n      dup2\n        /* \"#utility.yul\":6722:6746   */\n      tag_97\n      jump\t// in\n    tag_144:\n        /* \"#utility.yul\":6715:6720   */\n      dup2\n        /* \"#utility.yul\":6712:6747   */\n      eq\n        /* \"#utility.yul\":6702:6765   */\n      tag_145\n      jumpi\n        /* \"#utility.yul\":6761:6762   */\n      0x00\n        /* \"#utility.yul\":6758:6759   */\n      dup1\n        /* \"#utility.yul\":6751:6763   */\n      revert\n        /* \"#utility.yul\":6702:6765   */\n    tag_145:\n        /* \"#utility.yul\":6649:6771   */\n      pop\n      jump\t// out\n\n    auxdata: 0xa26469706673582212202484c6d43b91fcafcd39f7bb8fde7ad2302705f7cc4a758d9918416f6b6969cc64736f6c63430008070033\n}\n",
				"bytecode": {
					"linkReferences": {},
					"object": "608060405234801561001057600080fd5b50610788806100206000396000f3fe608060405234801561001057600080fd5b50600436106100365760003560e01c8063ac4afa381461003b578063f71b5cde1461006e575b600080fd5b6100556004803603810190610050919061048e565b61008a565b6040516100659493929190610512565b60405180910390f35b61008860048036038101906100839190610416565b6101fa565b005b6000818154811061009a57600080fd5b90600052602060002090600402016000915090508060000180546100bd90610655565b80601f01602080910402602001604051908101604052809291908181526020018280546100e990610655565b80156101365780601f1061010b57610100808354040283529160200191610136565b820191906000526020600020905b81548152906001019060200180831161011957829003601f168201915b50505050509080600101805461014b90610655565b80601f016020809104026020016040519081016040528092919081815260200182805461017790610655565b80156101c45780601f10610199576101008083540402835291602001916101c4565b820191906000526020600020905b8154815290600101906020018083116101a757829003601f168201915b5050505050908060020154908060030160009054906101000a900473ffffffffffffffffffffffffffffffffffffffff16905084565b60006040518060800160405280848152602001838152602001600081526020013373ffffffffffffffffffffffffffffffffffffffff16815250908060018154018082558091505060019003906000526020600020906004020160009091909190915060008201518160000190805190602001906102799291906102ee565b5060208201518160010190805190602001906102969291906102ee565b506040820151816002015560608201518160030160006101000a81548173ffffffffffffffffffffffffffffffffffffffff021916908373ffffffffffffffffffffffffffffffffffffffff16021790555050505050565b8280546102fa90610655565b90600052602060002090601f01602090048101928261031c5760008555610363565b82601f1061033557805160ff1916838001178555610363565b82800160010185558215610363579182015b82811115610362578251825591602001919060010190610347565b5b5090506103709190610374565b5090565b5b8082111561038d576000816000905550600101610375565b5090565b60006103a461039f8461058a565b610565565b9050828152602081018484840111156103c0576103bf61071b565b5b6103cb848285610613565b509392505050565b600082601f8301126103e8576103e7610716565b5b81356103f8848260208601610391565b91505092915050565b6000813590506104108161073b565b92915050565b6000806040838503121561042d5761042c610725565b5b600083013567ffffffffffffffff81111561044b5761044a610720565b5b610457858286016103d3565b925050602083013567ffffffffffffffff81111561047857610477610720565b5b610484858286016103d3565b9150509250929050565b6000602082840312156104a4576104a3610725565b5b60006104b284828501610401565b91505092915050565b6104c4816105d7565b82525050565b60006104d5826105bb565b6104df81856105c6565b93506104ef818560208601610622565b6104f88161072a565b840191505092915050565b61050c81610609565b82525050565b6000608082019050818103600083015261052c81876104ca565b9050818103602083015261054081866104ca565b905061054f6040830185610503565b61055c60608301846104bb565b95945050505050565b600061056f610580565b905061057b8282610687565b919050565b6000604051905090565b600067ffffffffffffffff8211156105a5576105a46106e7565b5b6105ae8261072a565b9050602081019050919050565b600081519050919050565b600082825260208201905092915050565b60006105e2826105e9565b9050919050565b600073ffffffffffffffffffffffffffffffffffffffff82169050919050565b6000819050919050565b82818337600083830152505050565b60005b83811015610640578082015181840152602081019050610625565b8381111561064f576000848401525b50505050565b6000600282049050600182168061066d57607f821691505b60208210811415610681576106806106b8565b5b50919050565b6106908261072a565b810181811067ffffffffffffffff821117156106af576106ae6106e7565b5b80604052505050565b7f4e487b7100000000000000000000000000000000000000000000000000000000600052602260045260246000fd5b7f4e487b7100000000000000000000000000000000000000000000000000000000600052604160045260246000fd5b600080fd5b600080fd5b600080fd5b600080fd5b6000601f19601f8301169050919050565b61074481610609565b811461074f57600080fd5b5056fea26469706673582212202484c6d43b91fcafcd39f7bb8fde7ad2302705f7cc4a758d9918416f6b6969cc64736f6c63430008070033",
					"opcodes": "PUSH1 0x80 PUSH1 0x40 MSTORE CALLVALUE DUP1 ISZERO PUSH2 0x10 JUMPI PUSH1 0x0 DUP1 REVERT JUMPDEST POP PUSH2 0x788 DUP1 PUSH2 0x20 PUSH1 0x0 CODECOPY PUSH1 0x0 RETURN INVALID PUSH1 0x80 PUSH1 0x40 MSTORE CALLVALUE DUP1 ISZERO PUSH2 0x10 JUMPI PUSH1 0x0 DUP1 REVERT JUMPDEST POP PUSH1 0x4 CALLDATASIZE LT PUSH2 0x36 JUMPI PUSH1 0x0 CALLDATALOAD PUSH1 0xE0 SHR DUP1 PUSH4 0xAC4AFA38 EQ PUSH2 0x3B JUMPI DUP1 PUSH4 0xF71B5CDE EQ PUSH2 0x6E JUMPI JUMPDEST PUSH1 0x0 DUP1 REVERT JUMPDEST PUSH2 0x55 PUSH1 0x4 DUP1 CALLDATASIZE SUB DUP2 ADD SWAP1 PUSH2 0x50 SWAP2 SWAP1 PUSH2 0x48E JUMP JUMPDEST PUSH2 0x8A JUMP JUMPDEST PUSH1 0x40 MLOAD PUSH2 0x65 SWAP5 SWAP4 SWAP3 SWAP2 SWAP1 PUSH2 0x512 JUMP JUMPDEST PUSH1 0x40 MLOAD DUP1 SWAP2 SUB SWAP1 RETURN JUMPDEST PUSH2 0x88 PUSH1 0x4 DUP1 CALLDATASIZE SUB DUP2 ADD SWAP1 PUSH2 0x83 SWAP2 SWAP1 PUSH2 0x416 JUMP JUMPDEST PUSH2 0x1FA JUMP JUMPDEST STOP JUMPDEST PUSH1 0x0 DUP2 DUP2 SLOAD DUP2 LT PUSH2 0x9A JUMPI PUSH1 0x0 DUP1 REVERT JUMPDEST SWAP1 PUSH1 0x0 MSTORE PUSH1 0x20 PUSH1 0x0 KECCAK256 SWAP1 PUSH1 0x4 MUL ADD PUSH1 0x0 SWAP2 POP SWAP1 POP DUP1 PUSH1 0x0 ADD DUP1 SLOAD PUSH2 0xBD SWAP1 PUSH2 0x655 JUMP JUMPDEST DUP1 PUSH1 0x1F ADD PUSH1 0x20 DUP1 SWAP2 DIV MUL PUSH1 0x20 ADD PUSH1 0x40 MLOAD SWAP1 DUP2 ADD PUSH1 0x40 MSTORE DUP1 SWAP3 SWAP2 SWAP1 DUP2 DUP2 MSTORE PUSH1 0x20 ADD DUP3 DUP1 SLOAD PUSH2 0xE9 SWAP1 PUSH2 0x655 JUMP JUMPDEST DUP1 ISZERO PUSH2 0x136 JUMPI DUP1 PUSH1 0x1F LT PUSH2 0x10B JUMPI PUSH2 0x100 DUP1 DUP4 SLOAD DIV MUL DUP4 MSTORE SWAP2 PUSH1 0x20 ADD SWAP2 PUSH2 0x136 JUMP JUMPDEST DUP3 ADD SWAP2 SWAP1 PUSH1 0x0 MSTORE PUSH1 0x20 PUSH1 0x0 KECCAK256 SWAP1 JUMPDEST DUP2 SLOAD DUP2 MSTORE SWAP1 PUSH1 0x1 ADD SWAP1 PUSH1 0x20 ADD DUP1 DUP4 GT PUSH2 0x119 JUMPI DUP3 SWAP1 SUB PUSH1 0x1F AND DUP3 ADD SWAP2 JUMPDEST POP POP POP POP POP SWAP1 DUP1 PUSH1 0x1 ADD DUP1 SLOAD PUSH2 0x14B SWAP1 PUSH2 0x655 JUMP JUMPDEST DUP1 PUSH1 0x1F ADD PUSH1 0x20 DUP1 SWAP2 DIV MUL PUSH1 0x20 ADD PUSH1 0x40 MLOAD SWAP1 DUP2 ADD PUSH1 0x40 MSTORE DUP1 SWAP3 SWAP2 SWAP1 DUP2 DUP2 MSTORE PUSH1 0x20 ADD DUP3 DUP1 SLOAD PUSH2 0x177 SWAP1 PUSH2 0x655 JUMP JUMPDEST DUP1 ISZERO PUSH2 0x1C4 JUMPI DUP1 PUSH1 0x1F LT PUSH2 0x199 JUMPI PUSH2 0x100 DUP1 DUP4 SLOAD DIV MUL DUP4 MSTORE SWAP2 PUSH1 0x20 ADD SWAP2 PUSH2 0x1C4 JUMP JUMPDEST DUP3 ADD SWAP2 SWAP1 PUSH1 0x0 MSTORE PUSH1 0x20 PUSH1 0x0 KECCAK256 SWAP1 JUMPDEST DUP2 SLOAD DUP2 MSTORE SWAP1 PUSH1 0x1 ADD SWAP1 PUSH1 0x20 ADD DUP1 DUP4 GT PUSH2 0x1A7 JUMPI DUP3 SWAP1 SUB PUSH1 0x1F AND DUP3 ADD SWAP2 JUMPDEST POP POP POP POP POP SWAP1 DUP1 PUSH1 0x2 ADD SLOAD SWAP1 DUP1 PUSH1 0x3 ADD PUSH1 0x0 SWAP1 SLOAD SWAP1 PUSH2 0x100 EXP SWAP1 DIV PUSH20 0xFFFFFFFFFFFFFFFFFFFFFFFFFFFFFFFFFFFFFFFF AND SWAP1 POP DUP5 JUMP JUMPDEST PUSH1 0x0 PUSH1 0x40 MLOAD DUP1 PUSH1 0x80 ADD PUSH1 0x40 MSTORE DUP1 DUP5 DUP2 MSTORE PUSH1 0x20 ADD DUP4 DUP2 MSTORE PUSH1 0x20 ADD PUSH1 0x0 DUP2 MSTORE PUSH1 0x20 ADD CALLER PUSH20 0xFFFFFFFFFFFFFFFFFFFFFFFFFFFFFFFFFFFFFFFF AND DUP2 MSTORE POP SWAP1 DUP1 PUSH1 0x1 DUP2 SLOAD ADD DUP1 DUP3 SSTORE DUP1 SWAP2 POP POP PUSH1 0x1 SWAP1 SUB SWAP1 PUSH1 0x0 MSTORE PUSH1 0x20 PUSH1 0x0 KECCAK256 SWAP1 PUSH1 0x4 MUL ADD PUSH1 0x0 SWAP1 SWAP2 SWAP1 SWAP2 SWAP1 SWAP2 POP PUSH1 0x0 DUP3 ADD MLOAD DUP2 PUSH1 0x0 ADD SWAP1 DUP1 MLOAD SWAP1 PUSH1 0x20 ADD SWAP1 PUSH2 0x279 SWAP3 SWAP2 SWAP1 PUSH2 0x2EE JUMP JUMPDEST POP PUSH1 0x20 DUP3 ADD MLOAD DUP2 PUSH1 0x1 ADD SWAP1 DUP1 MLOAD SWAP1 PUSH1 0x20 ADD SWAP1 PUSH2 0x296 SWAP3 SWAP2 SWAP1 PUSH2 0x2EE JUMP JUMPDEST POP PUSH1 0x40 DUP3 ADD MLOAD DUP2 PUSH1 0x2 ADD SSTORE PUSH1 0x60 DUP3 ADD MLOAD DUP2 PUSH1 0x3 ADD PUSH1 0x0 PUSH2 0x100 EXP DUP2 SLOAD DUP2 PUSH20 0xFFFFFFFFFFFFFFFFFFFFFFFFFFFFFFFFFFFFFFFF MUL NOT AND SWAP1 DUP4 PUSH20 0xFFFFFFFFFFFFFFFFFFFFFFFFFFFFFFFFFFFFFFFF AND MUL OR SWAP1 SSTORE POP POP POP POP POP JUMP JUMPDEST DUP3 DUP1 SLOAD PUSH2 0x2FA SWAP1 PUSH2 0x655 JUMP JUMPDEST SWAP1 PUSH1 0x0 MSTORE PUSH1 0x20 PUSH1 0x0 KECCAK256 SWAP1 PUSH1 0x1F ADD PUSH1 0x20 SWAP1 DIV DUP2 ADD SWAP3 DUP3 PUSH2 0x31C JUMPI PUSH1 0x0 DUP6 SSTORE PUSH2 0x363 JUMP JUMPDEST DUP3 PUSH1 0x1F LT PUSH2 0x335 JUMPI DUP1 MLOAD PUSH1 0xFF NOT AND DUP4 DUP1 ADD OR DUP6 SSTORE PUSH2 0x363 JUMP JUMPDEST DUP3 DUP1 ADD PUSH1 0x1 ADD DUP6 SSTORE DUP3 ISZERO PUSH2 0x363 JUMPI SWAP2 DUP3 ADD JUMPDEST DUP3 DUP2 GT ISZERO PUSH2 0x362 JUMPI DUP3 MLOAD DUP3 SSTORE SWAP2 PUSH1 0x20 ADD SWAP2 SWAP1 PUSH1 0x1 ADD SWAP1 PUSH2 0x347 JUMP JUMPDEST JUMPDEST POP SWAP1 POP PUSH2 0x370 SWAP2 SWAP1 PUSH2 0x374 JUMP JUMPDEST POP SWAP1 JUMP JUMPDEST JUMPDEST DUP1 DUP3 GT ISZERO PUSH2 0x38D JUMPI PUSH1 0x0 DUP2 PUSH1 0x0 SWAP1 SSTORE POP PUSH1 0x1 ADD PUSH2 0x375 JUMP JUMPDEST POP SWAP1 JUMP JUMPDEST PUSH1 0x0 PUSH2 0x3A4 PUSH2 0x39F DUP5 PUSH2 0x58A JUMP JUMPDEST PUSH2 0x565 JUMP JUMPDEST SWAP1 POP DUP3 DUP2 MSTORE PUSH1 0x20 DUP2 ADD DUP5 DUP5 DUP5 ADD GT ISZERO PUSH2 0x3C0 JUMPI PUSH2 0x3BF PUSH2 0x71B JUMP JUMPDEST JUMPDEST PUSH2 0x3CB DUP5 DUP3 DUP6 PUSH2 0x613 JUMP JUMPDEST POP SWAP4 SWAP3 POP POP POP JUMP JUMPDEST PUSH1 0x0 DUP3 PUSH1 0x1F DUP4 ADD SLT PUSH2 0x3E8 JUMPI PUSH2 0x3E7 PUSH2 0x716 JUMP JUMPDEST JUMPDEST DUP2 CALLDATALOAD PUSH2 0x3F8 DUP5 DUP3 PUSH1 0x20 DUP7 ADD PUSH2 0x391 JUMP JUMPDEST SWAP2 POP POP SWAP3 SWAP2 POP POP JUMP JUMPDEST PUSH1 0x0 DUP2 CALLDATALOAD SWAP1 POP PUSH2 0x410 DUP2 PUSH2 0x73B JUMP JUMPDEST SWAP3 SWAP2 POP POP JUMP JUMPDEST PUSH1 0x0 DUP1 PUSH1 0x40 DUP4 DUP6 SUB SLT ISZERO PUSH2 0x42D JUMPI PUSH2 0x42C PUSH2 0x725 JUMP JUMPDEST JUMPDEST PUSH1 0x0 DUP4 ADD CALLDATALOAD PUSH8 0xFFFFFFFFFFFFFFFF DUP2 GT ISZERO PUSH2 0x44B JUMPI PUSH2 0x44A PUSH2 0x720 JUMP JUMPDEST JUMPDEST PUSH2 0x457 DUP6 DUP3 DUP7 ADD PUSH2 0x3D3 JUMP JUMPDEST SWAP3 POP POP PUSH1 0x20 DUP4 ADD CALLDATALOAD PUSH8 0xFFFFFFFFFFFFFFFF DUP2 GT ISZERO PUSH2 0x478 JUMPI PUSH2 0x477 PUSH2 0x720 JUMP JUMPDEST JUMPDEST PUSH2 0x484 DUP6 DUP3 DUP7 ADD PUSH2 0x3D3 JUMP JUMPDEST SWAP2 POP POP SWAP3 POP SWAP3 SWAP1 POP JUMP JUMPDEST PUSH1 0x0 PUSH1 0x20 DUP3 DUP5 SUB SLT ISZERO PUSH2 0x4A4 JUMPI PUSH2 0x4A3 PUSH2 0x725 JUMP JUMPDEST JUMPDEST PUSH1 0x0 PUSH2 0x4B2 DUP5 DUP3 DUP6 ADD PUSH2 0x401 JUMP JUMPDEST SWAP2 POP POP SWAP3 SWAP2 POP POP JUMP JUMPDEST PUSH2 0x4C4 DUP2 PUSH2 0x5D7 JUMP JUMPDEST DUP3 MSTORE POP POP JUMP JUMPDEST PUSH1 0x0 PUSH2 0x4D5 DUP3 PUSH2 0x5BB JUMP JUMPDEST PUSH2 0x4DF DUP2 DUP6 PUSH2 0x5C6 JUMP JUMPDEST SWAP4 POP PUSH2 0x4EF DUP2 DUP6 PUSH1 0x20 DUP7 ADD PUSH2 0x622 JUMP JUMPDEST PUSH2 0x4F8 DUP2 PUSH2 0x72A JUMP JUMPDEST DUP5 ADD SWAP2 POP POP SWAP3 SWAP2 POP POP JUMP JUMPDEST PUSH2 0x50C DUP2 PUSH2 0x609 JUMP JUMPDEST DUP3 MSTORE POP POP JUMP JUMPDEST PUSH1 0x0 PUSH1 0x80 DUP3 ADD SWAP1 POP DUP2 DUP2 SUB PUSH1 0x0 DUP4 ADD MSTORE PUSH2 0x52C DUP2 DUP8 PUSH2 0x4CA JUMP JUMPDEST SWAP1 POP DUP2 DUP2 SUB PUSH1 0x20 DUP4 ADD MSTORE PUSH2 0x540 DUP2 DUP7 PUSH2 0x4CA JUMP JUMPDEST SWAP1 POP PUSH2 0x54F PUSH1 0x40 DUP4 ADD DUP6 PUSH2 0x503 JUMP JUMPDEST PUSH2 0x55C PUSH1 0x60 DUP4 ADD DUP5 PUSH2 0x4BB JUMP JUMPDEST SWAP6 SWAP5 POP POP POP POP POP JUMP JUMPDEST PUSH1 0x0 PUSH2 0x56F PUSH2 0x580 JUMP JUMPDEST SWAP1 POP PUSH2 0x57B DUP3 DUP3 PUSH2 0x687 JUMP JUMPDEST SWAP2 SWAP1 POP JUMP JUMPDEST PUSH1 0x0 PUSH1 0x40 MLOAD SWAP1 POP SWAP1 JUMP JUMPDEST PUSH1 0x0 PUSH8 0xFFFFFFFFFFFFFFFF DUP3 GT ISZERO PUSH2 0x5A5 JUMPI PUSH2 0x5A4 PUSH2 0x6E7 JUMP JUMPDEST JUMPDEST PUSH2 0x5AE DUP3 PUSH2 0x72A JUMP JUMPDEST SWAP1 POP PUSH1 0x20 DUP2 ADD SWAP1 POP SWAP2 SWAP1 POP JUMP JUMPDEST PUSH1 0x0 DUP2 MLOAD SWAP1 POP SWAP2 SWAP1 POP JUMP JUMPDEST PUSH1 0x0 DUP3 DUP3 MSTORE PUSH1 0x20 DUP3 ADD SWAP1 POP SWAP3 SWAP2 POP POP JUMP JUMPDEST PUSH1 0x0 PUSH2 0x5E2 DUP3 PUSH2 0x5E9 JUMP JUMPDEST SWAP1 POP SWAP2 SWAP1 POP JUMP JUMPDEST PUSH1 0x0 PUSH20 0xFFFFFFFFFFFFFFFFFFFFFFFFFFFFFFFFFFFFFFFF DUP3 AND SWAP1 POP SWAP2 SWAP1 POP JUMP JUMPDEST PUSH1 0x0 DUP2 SWAP1 POP SWAP2 SWAP1 POP JUMP JUMPDEST DUP3 DUP2 DUP4 CALLDATACOPY PUSH1 0x0 DUP4 DUP4 ADD MSTORE POP POP POP JUMP JUMPDEST PUSH1 0x0 JUMPDEST DUP4 DUP2 LT ISZERO PUSH2 0x640 JUMPI DUP1 DUP3 ADD MLOAD DUP2 DUP5 ADD MSTORE PUSH1 0x20 DUP2 ADD SWAP1 POP PUSH2 0x625 JUMP JUMPDEST DUP4 DUP2 GT ISZERO PUSH2 0x64F JUMPI PUSH1 0x0 DUP5 DUP5 ADD MSTORE JUMPDEST POP POP POP POP JUMP JUMPDEST PUSH1 0x0 PUSH1 0x2 DUP3 DIV SWAP1 POP PUSH1 0x1 DUP3 AND DUP1 PUSH2 0x66D JUMPI PUSH1 0x7F DUP3 AND SWAP2 POP JUMPDEST PUSH1 0x20 DUP3 LT DUP2 EQ ISZERO PUSH2 0x681 JUMPI PUSH2 0x680 PUSH2 0x6B8 JUMP JUMPDEST JUMPDEST POP SWAP2 SWAP1 POP JUMP JUMPDEST PUSH2 0x690 DUP3 PUSH2 0x72A JUMP JUMPDEST DUP2 ADD DUP2 DUP2 LT PUSH8 0xFFFFFFFFFFFFFFFF DUP3 GT OR ISZERO PUSH2 0x6AF JUMPI PUSH2 0x6AE PUSH2 0x6E7 JUMP JUMPDEST JUMPDEST DUP1 PUSH1 0x40 MSTORE POP POP POP JUMP JUMPDEST PUSH32 0x4E487B7100000000000000000000000000000000000000000000000000000000 PUSH1 0x0 MSTORE PUSH1 0x22 PUSH1 0x4 MSTORE PUSH1 0x24 PUSH1 0x0 REVERT JUMPDEST PUSH32 0x4E487B7100000000000000000000000000000000000000000000000000000000 PUSH1 0x0 MSTORE PUSH1 0x41 PUSH1 0x4 MSTORE PUSH1 0x24 PUSH1 0x0 REVERT JUMPDEST PUSH1 0x0 DUP1 REVERT JUMPDEST PUSH1 0x0 DUP1 REVERT JUMPDEST PUSH1 0x0 DUP1 REVERT JUMPDEST PUSH1 0x0 DUP1 REVERT JUMPDEST PUSH1 0x0 PUSH1 0x1F NOT PUSH1 0x1F DUP4 ADD AND SWAP1 POP SWAP2 SWAP1 POP JUMP JUMPDEST PUSH2 0x744 DUP2 PUSH2 0x609 JUMP JUMPDEST DUP2 EQ PUSH2 0x74F JUMPI PUSH1 0x0 DUP1 REVERT JUMPDEST POP JUMP INVALID LOG2 PUSH5 0x6970667358 0x22 SLT KECCAK256 0x24 DUP5 0xC6 0xD4 EXTCODESIZE SWAP2 0xFC 0xAF 0xCD CODECOPY 0xF7 0xBB DUP16 0xDE PUSH27 0xD2302705F7CC4A758D9918416F6B6969CC64736F6C634300080700 CALLER "
				},
				"gasEstimates": {
					"creation": {
						"codeDepositCost": "385600",
						"executionCost": "424",
						"totalCost": "386024"
					},
					"external": {
						"pools(uint256)": "infinite",
						"startPool(string,string)": "infinite"
					}
				},
				"methodIdentifiers": {
					"pools(uint256)": "ac4afa38",
					"startPool(string,string)": "f71b5cde"
				}
			},
			"userdoc": {
				"kind": "user",
				"methods": {},
				"version": 1
			}
		}
	}
}