{
	"contracts/eVoting_app.sol": {
		"EVoteApp": {
			"abi": [
				{
					"inputs": [
						{
							"internalType": "uint256",
							"name": "_poolIndex",
							"type": "uint256"
						},
						{
							"internalType": "string",
							"name": "_name",
							"type": "string"
						}
					],
					"name": "addOption",
					"outputs": [],
					"stateMutability": "nonpayable",
					"type": "function"
				},
				{
					"inputs": [
						{
							"internalType": "string",
							"name": "_poolName",
							"type": "string"
						},
						{
							"internalType": "string",
							"name": "_description",
							"type": "string"
						}
					],
					"name": "createPool",
					"outputs": [
						{
							"internalType": "uint256",
							"name": "",
							"type": "uint256"
						}
					],
					"stateMutability": "nonpayable",
					"type": "function"
				},
				{
					"inputs": [
						{
							"internalType": "uint256",
							"name": "_poolIndex",
							"type": "uint256"
						}
					],
					"name": "getNumOfVotes",
					"outputs": [],
					"stateMutability": "view",
					"type": "function"
				},
				{
					"inputs": [
						{
							"internalType": "uint256",
							"name": "_poolIndex",
							"type": "uint256"
						}
					],
					"name": "startPool",
					"outputs": [],
					"stateMutability": "nonpayable",
					"type": "function"
				},
				{
					"inputs": [
						{
							"internalType": "uint256",
							"name": "_poolIndex",
							"type": "uint256"
						},
						{
							"internalType": "uint256",
							"name": "selectedOption",
							"type": "uint256"
						},
						{
							"internalType": "string",
							"name": "_username",
							"type": "string"
						}
					],
					"name": "vote",
					"outputs": [],
					"stateMutability": "nonpayable",
					"type": "function"
				}
			],
			"devdoc": {
				"kind": "dev",
				"methods": {},
				"version": 1
			},
			"evm": {
				"assembly": "    /* \"contracts/eVoting_app.sol\":71:2283  contract EVoteApp{... */\n  mstore(0x40, 0x80)\n    /* \"contracts/eVoting_app.sol\":653:654  0 */\n  0x00\n    /* \"contracts/eVoting_app.sol\":632:654  uint256 numOfPools = 0 */\n  0x01\n  sstore\n    /* \"contracts/eVoting_app.sol\":71:2283  contract EVoteApp{... */\n  callvalue\n  dup1\n  iszero\n  tag_1\n  jumpi\n  0x00\n  dup1\n  revert\ntag_1:\n  pop\n  dataSize(sub_0)\n  dup1\n  dataOffset(sub_0)\n  0x00\n  codecopy\n  0x00\n  return\nstop\n\nsub_0: assembly {\n        /* \"contracts/eVoting_app.sol\":71:2283  contract EVoteApp{... */\n      mstore(0x40, 0x80)\n      callvalue\n      dup1\n      iszero\n      tag_1\n      jumpi\n      0x00\n      dup1\n      revert\n    tag_1:\n      pop\n      jumpi(tag_2, lt(calldatasize, 0x04))\n      shr(0xe0, calldataload(0x00))\n      dup1\n      0x5ea81a32\n      eq\n      tag_3\n      jumpi\n      dup1\n      0x8c8e54fb\n      eq\n      tag_4\n      jumpi\n      dup1\n      0xa1bbfc05\n      eq\n      tag_5\n      jumpi\n      dup1\n      0xa901d15c\n      eq\n      tag_6\n      jumpi\n      dup1\n      0xea57d5d4\n      eq\n      tag_7\n      jumpi\n    tag_2:\n      0x00\n      dup1\n      revert\n        /* \"contracts/eVoting_app.sol\":903:1334  function createPool(string memory _poolName, string memory _description) public returns(uint256){... */\n    tag_3:\n      tag_8\n      0x04\n      dup1\n      calldatasize\n      sub\n      dup2\n      add\n      swap1\n      tag_9\n      swap2\n      swap1\n      tag_10\n      jump\t// in\n    tag_9:\n      tag_11\n      jump\t// in\n    tag_8:\n      mload(0x40)\n      tag_12\n      swap2\n      swap1\n      tag_13\n      jump\t// in\n    tag_12:\n      mload(0x40)\n      dup1\n      swap2\n      sub\n      swap1\n      return\n        /* \"contracts/eVoting_app.sol\":2219:2281  function getNumOfVotes(uint256 _poolIndex) public view{... */\n    tag_4:\n      tag_14\n      0x04\n      dup1\n      calldatasize\n      sub\n      dup2\n      add\n      swap1\n      tag_15\n      swap2\n      swap1\n      tag_16\n      jump\t// in\n    tag_15:\n      tag_17\n      jump\t// in\n    tag_14:\n      stop\n        /* \"contracts/eVoting_app.sol\":1714:2213  function vote(uint256 _poolIndex, uint256 selectedOption, string memory _username) canVote(_poolIndex) public{... */\n    tag_5:\n      tag_18\n      0x04\n      dup1\n      calldatasize\n      sub\n      dup2\n      add\n      swap1\n      tag_19\n      swap2\n      swap1\n      tag_20\n      jump\t// in\n    tag_19:\n      tag_21\n      jump\t// in\n    tag_18:\n      stop\n        /* \"contracts/eVoting_app.sol\":1554:1708  function startPool(uint256 _poolIndex) onlyOwner(_poolIndex) public{... */\n    tag_6:\n      tag_22\n      0x04\n      dup1\n      calldatasize\n      sub\n      dup2\n      add\n      swap1\n      tag_23\n      swap2\n      swap1\n      tag_16\n      jump\t// in\n    tag_23:\n      tag_24\n      jump\t// in\n    tag_22:\n      stop\n        /* \"contracts/eVoting_app.sol\":1340:1548  function addOption(uint256 _poolIndex, string memory _name) onlyOwner(_poolIndex) public{... */\n    tag_7:\n      tag_25\n      0x04\n      dup1\n      calldatasize\n      sub\n      dup2\n      add\n      swap1\n      tag_26\n      swap2\n      swap1\n      tag_27\n      jump\t// in\n    tag_26:\n      tag_28\n      jump\t// in\n    tag_25:\n      stop\n        /* \"contracts/eVoting_app.sol\":903:1334  function createPool(string memory _poolName, string memory _description) public returns(uint256){... */\n    tag_11:\n        /* \"contracts/eVoting_app.sol\":991:998  uint256 */\n      0x00\n        /* \"contracts/eVoting_app.sol\":1010:1028  Pool storage _pool */\n      dup1\n        /* \"contracts/eVoting_app.sol\":1031:1036  pools */\n      0x00\n        /* \"contracts/eVoting_app.sol\":1031:1050  pools[numOfPools++] */\n      dup1\n        /* \"contracts/eVoting_app.sol\":1037:1047  numOfPools */\n      0x01\n      0x00\n        /* \"contracts/eVoting_app.sol\":1037:1049  numOfPools++ */\n      dup2\n      sload\n      dup1\n      swap3\n      swap2\n      swap1\n      tag_30\n      swap1\n      tag_31\n      jump\t// in\n    tag_30:\n      swap2\n      swap1\n      pop\n      sstore\n        /* \"contracts/eVoting_app.sol\":1031:1050  pools[numOfPools++] */\n      dup2\n      mstore\n      0x20\n      add\n      swap1\n      dup2\n      mstore\n      0x20\n      add\n      0x00\n      keccak256\n        /* \"contracts/eVoting_app.sol\":1010:1050  Pool storage _pool = pools[numOfPools++] */\n      swap1\n      pop\n        /* \"contracts/eVoting_app.sol\":1074:1083  _poolName */\n      dup4\n        /* \"contracts/eVoting_app.sol\":1061:1066  _pool */\n      dup2\n        /* \"contracts/eVoting_app.sol\":1061:1071  _pool.name */\n      0x00\n      add\n        /* \"contracts/eVoting_app.sol\":1061:1083  _pool.name = _poolName */\n      swap1\n      dup1\n      mload\n      swap1\n      0x20\n      add\n      swap1\n      tag_32\n      swap3\n      swap2\n      swap1\n      tag_33\n      jump\t// in\n    tag_32:\n      pop\n        /* \"contracts/eVoting_app.sol\":1113:1125  _description */\n      dup3\n        /* \"contracts/eVoting_app.sol\":1093:1098  _pool */\n      dup2\n        /* \"contracts/eVoting_app.sol\":1093:1110  _pool.description */\n      0x01\n      add\n        /* \"contracts/eVoting_app.sol\":1093:1125  _pool.description = _description */\n      swap1\n      dup1\n      mload\n      swap1\n      0x20\n      add\n      swap1\n      tag_34\n      swap3\n      swap2\n      swap1\n      tag_33\n      jump\t// in\n    tag_34:\n      pop\n        /* \"contracts/eVoting_app.sol\":1154:1155  0 */\n      0x00\n        /* \"contracts/eVoting_app.sol\":1135:1140  _pool */\n      dup2\n        /* \"contracts/eVoting_app.sol\":1135:1151  _pool.totalVotes */\n      0x02\n      add\n        /* \"contracts/eVoting_app.sol\":1135:1155  _pool.totalVotes = 0 */\n      dup2\n      swap1\n      sstore\n      pop\n        /* \"contracts/eVoting_app.sol\":1179:1189  msg.sender */\n      caller\n        /* \"contracts/eVoting_app.sol\":1165:1170  _pool */\n      dup2\n        /* \"contracts/eVoting_app.sol\":1165:1176  _pool.owner */\n      0x03\n      add\n      0x00\n        /* \"contracts/eVoting_app.sol\":1165:1189  _pool.owner = msg.sender */\n      0x0100\n      exp\n      dup2\n      sload\n      dup2\n      0xffffffffffffffffffffffffffffffffffffffff\n      mul\n      not\n      and\n      swap1\n      dup4\n      0xffffffffffffffffffffffffffffffffffffffff\n      and\n      mul\n      or\n      swap1\n      sstore\n      pop\n        /* \"contracts/eVoting_app.sol\":1220:1221  0 */\n      0x00\n        /* \"contracts/eVoting_app.sol\":1199:1204  _pool */\n      dup2\n        /* \"contracts/eVoting_app.sol\":1199:1217  _pool.numOfOptions */\n      0x06\n      add\n        /* \"contracts/eVoting_app.sol\":1199:1221  _pool.numOfOptions = 0 */\n      dup2\n      swap1\n      sstore\n      pop\n        /* \"contracts/eVoting_app.sol\":1248:1253  false */\n      0x00\n        /* \"contracts/eVoting_app.sol\":1231:1236  _pool */\n      dup2\n        /* \"contracts/eVoting_app.sol\":1231:1245  _pool.isActive */\n      0x07\n      add\n      0x00\n        /* \"contracts/eVoting_app.sol\":1231:1253  _pool.isActive = false */\n      0x0100\n      exp\n      dup2\n      sload\n      dup2\n      0xff\n      mul\n      not\n      and\n      swap1\n      dup4\n      iszero\n      iszero\n      mul\n      or\n      swap1\n      sstore\n      pop\n        /* \"contracts/eVoting_app.sol\":1294:1295  1 */\n      0x01\n        /* \"contracts/eVoting_app.sol\":1281:1291  numOfPools */\n      dup1\n      sload\n        /* \"contracts/eVoting_app.sol\":1281:1295  numOfPools - 1 */\n      tag_35\n      swap2\n      swap1\n      tag_36\n      jump\t// in\n    tag_35:\n        /* \"contracts/eVoting_app.sol\":1263:1268  _pool */\n      dup2\n        /* \"contracts/eVoting_app.sol\":1263:1278  _pool.poolIndex */\n      0x08\n      add\n        /* \"contracts/eVoting_app.sol\":1263:1295  _pool.poolIndex = numOfPools - 1 */\n      dup2\n      swap1\n      sstore\n      pop\n        /* \"contracts/eVoting_app.sol\":1326:1327  1 */\n      0x01\n        /* \"contracts/eVoting_app.sol\":1313:1323  numOfPools */\n      dup1\n      sload\n        /* \"contracts/eVoting_app.sol\":1313:1327  numOfPools - 1 */\n      tag_37\n      swap2\n      swap1\n      tag_36\n      jump\t// in\n    tag_37:\n        /* \"contracts/eVoting_app.sol\":1306:1327  return numOfPools - 1 */\n      swap2\n      pop\n      pop\n        /* \"contracts/eVoting_app.sol\":903:1334  function createPool(string memory _poolName, string memory _description) public returns(uint256){... */\n      swap3\n      swap2\n      pop\n      pop\n      jump\t// out\n        /* \"contracts/eVoting_app.sol\":2219:2281  function getNumOfVotes(uint256 _poolIndex) public view{... */\n    tag_17:\n      pop\n      jump\t// out\n        /* \"contracts/eVoting_app.sol\":1714:2213  function vote(uint256 _poolIndex, uint256 selectedOption, string memory _username) canVote(_poolIndex) public{... */\n    tag_21:\n        /* \"contracts/eVoting_app.sol\":1805:1815  _poolIndex */\n      dup3\n        /* \"contracts/eVoting_app.sol\":834:839  pools */\n      0x00\n        /* \"contracts/eVoting_app.sol\":834:851  pools[_poolIndex] */\n      dup1\n        /* \"contracts/eVoting_app.sol\":840:850  _poolIndex */\n      dup3\n        /* \"contracts/eVoting_app.sol\":834:851  pools[_poolIndex] */\n      dup2\n      mstore\n      0x20\n      add\n      swap1\n      dup2\n      mstore\n      0x20\n      add\n      0x00\n      keccak256\n        /* \"contracts/eVoting_app.sol\":834:858  pools[_poolIndex].voters */\n      0x04\n      add\n        /* \"contracts/eVoting_app.sol\":834:870  pools[_poolIndex].voters[msg.sender] */\n      0x00\n        /* \"contracts/eVoting_app.sol\":859:869  msg.sender */\n      caller\n        /* \"contracts/eVoting_app.sol\":834:870  pools[_poolIndex].voters[msg.sender] */\n      0xffffffffffffffffffffffffffffffffffffffff\n      and\n      0xffffffffffffffffffffffffffffffffffffffff\n      and\n      dup2\n      mstore\n      0x20\n      add\n      swap1\n      dup2\n      mstore\n      0x20\n      add\n      0x00\n      keccak256\n        /* \"contracts/eVoting_app.sol\":834:878  pools[_poolIndex].voters[msg.sender].isVoted */\n      0x02\n      add\n      0x00\n      swap1\n      sload\n      swap1\n      0x0100\n      exp\n      swap1\n      div\n      0xff\n      and\n        /* \"contracts/eVoting_app.sol\":833:878  !pools[_poolIndex].voters[msg.sender].isVoted */\n      iszero\n        /* \"contracts/eVoting_app.sol\":825:879  require(!pools[_poolIndex].voters[msg.sender].isVoted) */\n      tag_40\n      jumpi\n      0x00\n      dup1\n      revert\n    tag_40:\n        /* \"contracts/eVoting_app.sol\":1833:1851  Pool storage _pool */\n      0x00\n        /* \"contracts/eVoting_app.sol\":1854:1859  pools */\n      dup1\n        /* \"contracts/eVoting_app.sol\":1854:1871  pools[_poolIndex] */\n      0x00\n        /* \"contracts/eVoting_app.sol\":1860:1870  _poolIndex */\n      dup7\n        /* \"contracts/eVoting_app.sol\":1854:1871  pools[_poolIndex] */\n      dup2\n      mstore\n      0x20\n      add\n      swap1\n      dup2\n      mstore\n      0x20\n      add\n      0x00\n      keccak256\n        /* \"contracts/eVoting_app.sol\":1833:1871  Pool storage _pool = pools[_poolIndex] */\n      swap1\n      pop\n        /* \"contracts/eVoting_app.sol\":1882:1902  Voter storage _voter */\n      0x00\n        /* \"contracts/eVoting_app.sol\":1905:1910  _pool */\n      dup2\n        /* \"contracts/eVoting_app.sol\":1905:1917  _pool.voters */\n      0x04\n      add\n        /* \"contracts/eVoting_app.sol\":1905:1929  _pool.voters[msg.sender] */\n      0x00\n        /* \"contracts/eVoting_app.sol\":1918:1928  msg.sender */\n      caller\n        /* \"contracts/eVoting_app.sol\":1905:1929  _pool.voters[msg.sender] */\n      0xffffffffffffffffffffffffffffffffffffffff\n      and\n      0xffffffffffffffffffffffffffffffffffffffff\n      and\n      dup2\n      mstore\n      0x20\n      add\n      swap1\n      dup2\n      mstore\n      0x20\n      add\n      0x00\n      keccak256\n        /* \"contracts/eVoting_app.sol\":1882:1929  Voter storage _voter = _pool.voters[msg.sender] */\n      swap1\n      pop\n        /* \"contracts/eVoting_app.sol\":1940:1961  Option storage option */\n      0x00\n        /* \"contracts/eVoting_app.sol\":1964:1969  _pool */\n      dup3\n        /* \"contracts/eVoting_app.sol\":1964:1977  _pool.options */\n      0x05\n      add\n        /* \"contracts/eVoting_app.sol\":1964:1993  _pool.options[selectedOption] */\n      0x00\n        /* \"contracts/eVoting_app.sol\":1978:1992  selectedOption */\n      dup8\n        /* \"contracts/eVoting_app.sol\":1964:1993  _pool.options[selectedOption] */\n      dup2\n      mstore\n      0x20\n      add\n      swap1\n      dup2\n      mstore\n      0x20\n      add\n      0x00\n      keccak256\n        /* \"contracts/eVoting_app.sol\":1940:1993  Option storage option = _pool.options[selectedOption] */\n      swap1\n      pop\n        /* \"contracts/eVoting_app.sol\":2004:2009  _pool */\n      dup3\n        /* \"contracts/eVoting_app.sol\":2004:2020  _pool.totalVotes */\n      0x02\n      add\n      0x00\n        /* \"contracts/eVoting_app.sol\":2004:2022  _pool.totalVotes++ */\n      dup2\n      sload\n      dup1\n      swap3\n      swap2\n      swap1\n      tag_42\n      swap1\n      tag_31\n      jump\t// in\n    tag_42:\n      swap2\n      swap1\n      pop\n      sstore\n      pop\n        /* \"contracts/eVoting_app.sol\":2047:2056  _username */\n      dup5\n        /* \"contracts/eVoting_app.sol\":2033:2039  _voter */\n      dup3\n        /* \"contracts/eVoting_app.sol\":2033:2044  _voter.name */\n      0x00\n      add\n        /* \"contracts/eVoting_app.sol\":2033:2056  _voter.name = _username */\n      swap1\n      dup1\n      mload\n      swap1\n      0x20\n      add\n      swap1\n      tag_43\n      swap3\n      swap2\n      swap1\n      tag_33\n      jump\t// in\n    tag_43:\n      pop\n        /* \"contracts/eVoting_app.sol\":2090:2104  selectedOption */\n      dup6\n        /* \"contracts/eVoting_app.sol\":2066:2072  _voter */\n      dup3\n        /* \"contracts/eVoting_app.sol\":2066:2087  _voter.selectedOption */\n      0x01\n      add\n        /* \"contracts/eVoting_app.sol\":2066:2104  _voter.selectedOption = selectedOption */\n      dup2\n      swap1\n      sstore\n      pop\n        /* \"contracts/eVoting_app.sol\":2114:2120  _voter */\n      dup2\n        /* \"contracts/eVoting_app.sol\":2114:2143  _voter.numOfParticipatedVotes */\n      0x03\n      add\n      0x00\n        /* \"contracts/eVoting_app.sol\":2114:2145  _voter.numOfParticipatedVotes++ */\n      dup2\n      sload\n      dup1\n      swap3\n      swap2\n      swap1\n      tag_44\n      swap1\n      tag_31\n      jump\t// in\n    tag_44:\n      swap2\n      swap1\n      pop\n      sstore\n      pop\n        /* \"contracts/eVoting_app.sol\":2172:2176  true */\n      0x01\n        /* \"contracts/eVoting_app.sol\":2155:2161  _voter */\n      dup3\n        /* \"contracts/eVoting_app.sol\":2155:2169  _voter.isVoted */\n      0x02\n      add\n      0x00\n        /* \"contracts/eVoting_app.sol\":2155:2176  _voter.isVoted = true */\n      0x0100\n      exp\n      dup2\n      sload\n      dup2\n      0xff\n      mul\n      not\n      and\n      swap1\n      dup4\n      iszero\n      iszero\n      mul\n      or\n      swap1\n      sstore\n      pop\n        /* \"contracts/eVoting_app.sol\":2187:2193  option */\n      dup1\n        /* \"contracts/eVoting_app.sol\":2187:2204  option.numOfVotes */\n      0x01\n      add\n      0x00\n        /* \"contracts/eVoting_app.sol\":2187:2206  option.numOfVotes++ */\n      dup2\n      sload\n      dup1\n      swap3\n      swap2\n      swap1\n      tag_45\n      swap1\n      tag_31\n      jump\t// in\n    tag_45:\n      swap2\n      swap1\n      pop\n      sstore\n      pop\n        /* \"contracts/eVoting_app.sol\":1823:2213  {... */\n      pop\n      pop\n      pop\n        /* \"contracts/eVoting_app.sol\":1714:2213  function vote(uint256 _poolIndex, uint256 selectedOption, string memory _username) canVote(_poolIndex) public{... */\n      pop\n      pop\n      pop\n      pop\n      jump\t// out\n        /* \"contracts/eVoting_app.sol\":1554:1708  function startPool(uint256 _poolIndex) onlyOwner(_poolIndex) public{... */\n    tag_24:\n        /* \"contracts/eVoting_app.sol\":1603:1613  _poolIndex */\n      dup1\n        /* \"contracts/eVoting_app.sol\":731:736  pools */\n      0x00\n        /* \"contracts/eVoting_app.sol\":731:748  pools[_poolIndex] */\n      dup1\n        /* \"contracts/eVoting_app.sol\":737:747  _poolIndex */\n      dup3\n        /* \"contracts/eVoting_app.sol\":731:748  pools[_poolIndex] */\n      dup2\n      mstore\n      0x20\n      add\n      swap1\n      dup2\n      mstore\n      0x20\n      add\n      0x00\n      keccak256\n        /* \"contracts/eVoting_app.sol\":731:754  pools[_poolIndex].owner */\n      0x03\n      add\n      0x00\n      swap1\n      sload\n      swap1\n      0x0100\n      exp\n      swap1\n      div\n      0xffffffffffffffffffffffffffffffffffffffff\n      and\n        /* \"contracts/eVoting_app.sol\":717:754  msg.sender == pools[_poolIndex].owner */\n      0xffffffffffffffffffffffffffffffffffffffff\n      and\n        /* \"contracts/eVoting_app.sol\":717:727  msg.sender */\n      caller\n        /* \"contracts/eVoting_app.sol\":717:754  msg.sender == pools[_poolIndex].owner */\n      0xffffffffffffffffffffffffffffffffffffffff\n      and\n      eq\n        /* \"contracts/eVoting_app.sol\":709:755  require(msg.sender == pools[_poolIndex].owner) */\n      tag_47\n      jumpi\n      0x00\n      dup1\n      revert\n    tag_47:\n        /* \"contracts/eVoting_app.sol\":1631:1649  Pool storage _pool */\n      0x00\n        /* \"contracts/eVoting_app.sol\":1652:1657  pools */\n      dup1\n        /* \"contracts/eVoting_app.sol\":1652:1669  pools[_poolIndex] */\n      0x00\n        /* \"contracts/eVoting_app.sol\":1658:1668  _poolIndex */\n      dup5\n        /* \"contracts/eVoting_app.sol\":1652:1669  pools[_poolIndex] */\n      dup2\n      mstore\n      0x20\n      add\n      swap1\n      dup2\n      mstore\n      0x20\n      add\n      0x00\n      keccak256\n        /* \"contracts/eVoting_app.sol\":1631:1669  Pool storage _pool = pools[_poolIndex] */\n      swap1\n      pop\n        /* \"contracts/eVoting_app.sol\":1697:1701  true */\n      0x01\n        /* \"contracts/eVoting_app.sol\":1680:1685  _pool */\n      dup2\n        /* \"contracts/eVoting_app.sol\":1680:1694  _pool.isActive */\n      0x07\n      add\n      0x00\n        /* \"contracts/eVoting_app.sol\":1680:1701  _pool.isActive = true */\n      0x0100\n      exp\n      dup2\n      sload\n      dup2\n      0xff\n      mul\n      not\n      and\n      swap1\n      dup4\n      iszero\n      iszero\n      mul\n      or\n      swap1\n      sstore\n      pop\n        /* \"contracts/eVoting_app.sol\":1621:1708  {... */\n      pop\n        /* \"contracts/eVoting_app.sol\":1554:1708  function startPool(uint256 _poolIndex) onlyOwner(_poolIndex) public{... */\n      pop\n      pop\n      jump\t// out\n        /* \"contracts/eVoting_app.sol\":1340:1548  function addOption(uint256 _poolIndex, string memory _name) onlyOwner(_poolIndex) public{... */\n    tag_28:\n        /* \"contracts/eVoting_app.sol\":1410:1420  _poolIndex */\n      dup2\n        /* \"contracts/eVoting_app.sol\":731:736  pools */\n      0x00\n        /* \"contracts/eVoting_app.sol\":731:748  pools[_poolIndex] */\n      dup1\n        /* \"contracts/eVoting_app.sol\":737:747  _poolIndex */\n      dup3\n        /* \"contracts/eVoting_app.sol\":731:748  pools[_poolIndex] */\n      dup2\n      mstore\n      0x20\n      add\n      swap1\n      dup2\n      mstore\n      0x20\n      add\n      0x00\n      keccak256\n        /* \"contracts/eVoting_app.sol\":731:754  pools[_poolIndex].owner */\n      0x03\n      add\n      0x00\n      swap1\n      sload\n      swap1\n      0x0100\n      exp\n      swap1\n      div\n      0xffffffffffffffffffffffffffffffffffffffff\n      and\n        /* \"contracts/eVoting_app.sol\":717:754  msg.sender == pools[_poolIndex].owner */\n      0xffffffffffffffffffffffffffffffffffffffff\n      and\n        /* \"contracts/eVoting_app.sol\":717:727  msg.sender */\n      caller\n        /* \"contracts/eVoting_app.sol\":717:754  msg.sender == pools[_poolIndex].owner */\n      0xffffffffffffffffffffffffffffffffffffffff\n      and\n      eq\n        /* \"contracts/eVoting_app.sol\":709:755  require(msg.sender == pools[_poolIndex].owner) */\n      tag_50\n      jumpi\n      0x00\n      dup1\n      revert\n    tag_50:\n        /* \"contracts/eVoting_app.sol\":1438:1456  Pool storage _pool */\n      0x00\n        /* \"contracts/eVoting_app.sol\":1459:1464  pools */\n      dup1\n        /* \"contracts/eVoting_app.sol\":1459:1476  pools[_poolIndex] */\n      0x00\n        /* \"contracts/eVoting_app.sol\":1465:1475  _poolIndex */\n      dup6\n        /* \"contracts/eVoting_app.sol\":1459:1476  pools[_poolIndex] */\n      dup2\n      mstore\n      0x20\n      add\n      swap1\n      dup2\n      mstore\n      0x20\n      add\n      0x00\n      keccak256\n        /* \"contracts/eVoting_app.sol\":1438:1476  Pool storage _pool = pools[_poolIndex] */\n      swap1\n      pop\n        /* \"contracts/eVoting_app.sol\":1525:1541  Option(_name, 0) */\n      mload(0x40)\n      dup1\n      0x40\n      add\n      0x40\n      mstore\n      dup1\n        /* \"contracts/eVoting_app.sol\":1532:1537  _name */\n      dup5\n        /* \"contracts/eVoting_app.sol\":1525:1541  Option(_name, 0) */\n      dup2\n      mstore\n      0x20\n      add\n        /* \"contracts/eVoting_app.sol\":1539:1540  0 */\n      0x00\n        /* \"contracts/eVoting_app.sol\":1525:1541  Option(_name, 0) */\n      dup2\n      mstore\n      pop\n        /* \"contracts/eVoting_app.sol\":1487:1492  _pool */\n      dup2\n        /* \"contracts/eVoting_app.sol\":1487:1500  _pool.options */\n      0x05\n      add\n        /* \"contracts/eVoting_app.sol\":1487:1522  _pool.options[_pool.numOfOptions++] */\n      0x00\n        /* \"contracts/eVoting_app.sol\":1501:1506  _pool */\n      dup4\n        /* \"contracts/eVoting_app.sol\":1501:1519  _pool.numOfOptions */\n      0x06\n      add\n      0x00\n        /* \"contracts/eVoting_app.sol\":1501:1521  _pool.numOfOptions++ */\n      dup2\n      sload\n      dup1\n      swap3\n      swap2\n      swap1\n      tag_52\n      swap1\n      tag_31\n      jump\t// in\n    tag_52:\n      swap2\n      swap1\n      pop\n      sstore\n        /* \"contracts/eVoting_app.sol\":1487:1522  _pool.options[_pool.numOfOptions++] */\n      dup2\n      mstore\n      0x20\n      add\n      swap1\n      dup2\n      mstore\n      0x20\n      add\n      0x00\n      keccak256\n        /* \"contracts/eVoting_app.sol\":1487:1541  _pool.options[_pool.numOfOptions++] = Option(_name, 0) */\n      0x00\n      dup3\n      add\n      mload\n      dup2\n      0x00\n      add\n      swap1\n      dup1\n      mload\n      swap1\n      0x20\n      add\n      swap1\n      tag_53\n      swap3\n      swap2\n      swap1\n      tag_33\n      jump\t// in\n    tag_53:\n      pop\n      0x20\n      dup3\n      add\n      mload\n      dup2\n      0x01\n      add\n      sstore\n      swap1\n      pop\n      pop\n        /* \"contracts/eVoting_app.sol\":1428:1548  {... */\n      pop\n        /* \"contracts/eVoting_app.sol\":1340:1548  function addOption(uint256 _poolIndex, string memory _name) onlyOwner(_poolIndex) public{... */\n      pop\n      pop\n      pop\n      jump\t// out\n    tag_33:\n      dup3\n      dup1\n      sload\n      tag_54\n      swap1\n      tag_55\n      jump\t// in\n    tag_54:\n      swap1\n      0x00\n      mstore\n      keccak256(0x00, 0x20)\n      swap1\n      0x1f\n      add\n      0x20\n      swap1\n      div\n      dup2\n      add\n      swap3\n      dup3\n      tag_57\n      jumpi\n      0x00\n      dup6\n      sstore\n      jump(tag_56)\n    tag_57:\n      dup3\n      0x1f\n      lt\n      tag_58\n      jumpi\n      dup1\n      mload\n      not(0xff)\n      and\n      dup4\n      dup1\n      add\n      or\n      dup6\n      sstore\n      jump(tag_56)\n    tag_58:\n      dup3\n      dup1\n      add\n      0x01\n      add\n      dup6\n      sstore\n      dup3\n      iszero\n      tag_56\n      jumpi\n      swap2\n      dup3\n      add\n    tag_59:\n      dup3\n      dup2\n      gt\n      iszero\n      tag_60\n      jumpi\n      dup3\n      mload\n      dup3\n      sstore\n      swap2\n      0x20\n      add\n      swap2\n      swap1\n      0x01\n      add\n      swap1\n      jump(tag_59)\n    tag_60:\n    tag_56:\n      pop\n      swap1\n      pop\n      tag_61\n      swap2\n      swap1\n      tag_62\n      jump\t// in\n    tag_61:\n      pop\n      swap1\n      jump\t// out\n    tag_62:\n    tag_63:\n      dup1\n      dup3\n      gt\n      iszero\n      tag_64\n      jumpi\n      0x00\n      dup2\n      0x00\n      swap1\n      sstore\n      pop\n      0x01\n      add\n      jump(tag_63)\n    tag_64:\n      pop\n      swap1\n      jump\t// out\n        /* \"#utility.yul\":7:419   */\n    tag_66:\n        /* \"#utility.yul\":85:90   */\n      0x00\n        /* \"#utility.yul\":110:176   */\n      tag_68\n        /* \"#utility.yul\":126:175   */\n      tag_69\n        /* \"#utility.yul\":168:174   */\n      dup5\n        /* \"#utility.yul\":126:175   */\n      tag_70\n      jump\t// in\n    tag_69:\n        /* \"#utility.yul\":110:176   */\n      tag_71\n      jump\t// in\n    tag_68:\n        /* \"#utility.yul\":101:176   */\n      swap1\n      pop\n        /* \"#utility.yul\":199:205   */\n      dup3\n        /* \"#utility.yul\":192:197   */\n      dup2\n        /* \"#utility.yul\":185:206   */\n      mstore\n        /* \"#utility.yul\":237:241   */\n      0x20\n        /* \"#utility.yul\":230:235   */\n      dup2\n        /* \"#utility.yul\":226:242   */\n      add\n        /* \"#utility.yul\":275:278   */\n      dup5\n        /* \"#utility.yul\":266:272   */\n      dup5\n        /* \"#utility.yul\":261:264   */\n      dup5\n        /* \"#utility.yul\":257:273   */\n      add\n        /* \"#utility.yul\":254:279   */\n      gt\n        /* \"#utility.yul\":251:363   */\n      iszero\n      tag_72\n      jumpi\n        /* \"#utility.yul\":282:361   */\n      tag_73\n      tag_74\n      jump\t// in\n    tag_73:\n        /* \"#utility.yul\":251:363   */\n    tag_72:\n        /* \"#utility.yul\":372:413   */\n      tag_75\n        /* \"#utility.yul\":406:412   */\n      dup5\n        /* \"#utility.yul\":401:404   */\n      dup3\n        /* \"#utility.yul\":396:399   */\n      dup6\n        /* \"#utility.yul\":372:413   */\n      tag_76\n      jump\t// in\n    tag_75:\n        /* \"#utility.yul\":91:419   */\n      pop\n        /* \"#utility.yul\":7:419   */\n      swap4\n      swap3\n      pop\n      pop\n      pop\n      jump\t// out\n        /* \"#utility.yul\":439:779   */\n    tag_77:\n        /* \"#utility.yul\":495:500   */\n      0x00\n        /* \"#utility.yul\":544:547   */\n      dup3\n        /* \"#utility.yul\":537:541   */\n      0x1f\n        /* \"#utility.yul\":529:535   */\n      dup4\n        /* \"#utility.yul\":525:542   */\n      add\n        /* \"#utility.yul\":521:548   */\n      slt\n        /* \"#utility.yul\":511:633   */\n      tag_79\n      jumpi\n        /* \"#utility.yul\":552:631   */\n      tag_80\n      tag_81\n      jump\t// in\n    tag_80:\n        /* \"#utility.yul\":511:633   */\n    tag_79:\n        /* \"#utility.yul\":669:675   */\n      dup2\n        /* \"#utility.yul\":656:676   */\n      calldataload\n        /* \"#utility.yul\":694:773   */\n      tag_82\n        /* \"#utility.yul\":769:772   */\n      dup5\n        /* \"#utility.yul\":761:767   */\n      dup3\n        /* \"#utility.yul\":754:758   */\n      0x20\n        /* \"#utility.yul\":746:752   */\n      dup7\n        /* \"#utility.yul\":742:759   */\n      add\n        /* \"#utility.yul\":694:773   */\n      tag_66\n      jump\t// in\n    tag_82:\n        /* \"#utility.yul\":685:773   */\n      swap2\n      pop\n        /* \"#utility.yul\":501:779   */\n      pop\n        /* \"#utility.yul\":439:779   */\n      swap3\n      swap2\n      pop\n      pop\n      jump\t// out\n        /* \"#utility.yul\":785:924   */\n    tag_83:\n        /* \"#utility.yul\":831:836   */\n      0x00\n        /* \"#utility.yul\":869:875   */\n      dup2\n        /* \"#utility.yul\":856:876   */\n      calldataload\n        /* \"#utility.yul\":847:876   */\n      swap1\n      pop\n        /* \"#utility.yul\":885:918   */\n      tag_85\n        /* \"#utility.yul\":912:917   */\n      dup2\n        /* \"#utility.yul\":885:918   */\n      tag_86\n      jump\t// in\n    tag_85:\n        /* \"#utility.yul\":785:924   */\n      swap3\n      swap2\n      pop\n      pop\n      jump\t// out\n        /* \"#utility.yul\":930:1764   */\n    tag_10:\n        /* \"#utility.yul\":1018:1024   */\n      0x00\n        /* \"#utility.yul\":1026:1032   */\n      dup1\n        /* \"#utility.yul\":1075:1077   */\n      0x40\n        /* \"#utility.yul\":1063:1072   */\n      dup4\n        /* \"#utility.yul\":1054:1061   */\n      dup6\n        /* \"#utility.yul\":1050:1073   */\n      sub\n        /* \"#utility.yul\":1046:1078   */\n      slt\n        /* \"#utility.yul\":1043:1162   */\n      iszero\n      tag_88\n      jumpi\n        /* \"#utility.yul\":1081:1160   */\n      tag_89\n      tag_90\n      jump\t// in\n    tag_89:\n        /* \"#utility.yul\":1043:1162   */\n    tag_88:\n        /* \"#utility.yul\":1229:1230   */\n      0x00\n        /* \"#utility.yul\":1218:1227   */\n      dup4\n        /* \"#utility.yul\":1214:1231   */\n      add\n        /* \"#utility.yul\":1201:1232   */\n      calldataload\n        /* \"#utility.yul\":1259:1277   */\n      0xffffffffffffffff\n        /* \"#utility.yul\":1251:1257   */\n      dup2\n        /* \"#utility.yul\":1248:1278   */\n      gt\n        /* \"#utility.yul\":1245:1362   */\n      iszero\n      tag_91\n      jumpi\n        /* \"#utility.yul\":1281:1360   */\n      tag_92\n      tag_93\n      jump\t// in\n    tag_92:\n        /* \"#utility.yul\":1245:1362   */\n    tag_91:\n        /* \"#utility.yul\":1386:1449   */\n      tag_94\n        /* \"#utility.yul\":1441:1448   */\n      dup6\n        /* \"#utility.yul\":1432:1438   */\n      dup3\n        /* \"#utility.yul\":1421:1430   */\n      dup7\n        /* \"#utility.yul\":1417:1439   */\n      add\n        /* \"#utility.yul\":1386:1449   */\n      tag_77\n      jump\t// in\n    tag_94:\n        /* \"#utility.yul\":1376:1449   */\n      swap3\n      pop\n        /* \"#utility.yul\":1172:1459   */\n      pop\n        /* \"#utility.yul\":1526:1528   */\n      0x20\n        /* \"#utility.yul\":1515:1524   */\n      dup4\n        /* \"#utility.yul\":1511:1529   */\n      add\n        /* \"#utility.yul\":1498:1530   */\n      calldataload\n        /* \"#utility.yul\":1557:1575   */\n      0xffffffffffffffff\n        /* \"#utility.yul\":1549:1555   */\n      dup2\n        /* \"#utility.yul\":1546:1576   */\n      gt\n        /* \"#utility.yul\":1543:1660   */\n      iszero\n      tag_95\n      jumpi\n        /* \"#utility.yul\":1579:1658   */\n      tag_96\n      tag_93\n      jump\t// in\n    tag_96:\n        /* \"#utility.yul\":1543:1660   */\n    tag_95:\n        /* \"#utility.yul\":1684:1747   */\n      tag_97\n        /* \"#utility.yul\":1739:1746   */\n      dup6\n        /* \"#utility.yul\":1730:1736   */\n      dup3\n        /* \"#utility.yul\":1719:1728   */\n      dup7\n        /* \"#utility.yul\":1715:1737   */\n      add\n        /* \"#utility.yul\":1684:1747   */\n      tag_77\n      jump\t// in\n    tag_97:\n        /* \"#utility.yul\":1674:1747   */\n      swap2\n      pop\n        /* \"#utility.yul\":1469:1757   */\n      pop\n        /* \"#utility.yul\":930:1764   */\n      swap3\n      pop\n      swap3\n      swap1\n      pop\n      jump\t// out\n        /* \"#utility.yul\":1770:2099   */\n    tag_16:\n        /* \"#utility.yul\":1829:1835   */\n      0x00\n        /* \"#utility.yul\":1878:1880   */\n      0x20\n        /* \"#utility.yul\":1866:1875   */\n      dup3\n        /* \"#utility.yul\":1857:1864   */\n      dup5\n        /* \"#utility.yul\":1853:1876   */\n      sub\n        /* \"#utility.yul\":1849:1881   */\n      slt\n        /* \"#utility.yul\":1846:1965   */\n      iszero\n      tag_99\n      jumpi\n        /* \"#utility.yul\":1884:1963   */\n      tag_100\n      tag_90\n      jump\t// in\n    tag_100:\n        /* \"#utility.yul\":1846:1965   */\n    tag_99:\n        /* \"#utility.yul\":2004:2005   */\n      0x00\n        /* \"#utility.yul\":2029:2082   */\n      tag_101\n        /* \"#utility.yul\":2074:2081   */\n      dup5\n        /* \"#utility.yul\":2065:2071   */\n      dup3\n        /* \"#utility.yul\":2054:2063   */\n      dup6\n        /* \"#utility.yul\":2050:2072   */\n      add\n        /* \"#utility.yul\":2029:2082   */\n      tag_83\n      jump\t// in\n    tag_101:\n        /* \"#utility.yul\":2019:2082   */\n      swap2\n      pop\n        /* \"#utility.yul\":1975:2092   */\n      pop\n        /* \"#utility.yul\":1770:2099   */\n      swap3\n      swap2\n      pop\n      pop\n      jump\t// out\n        /* \"#utility.yul\":2105:2759   */\n    tag_27:\n        /* \"#utility.yul\":2183:2189   */\n      0x00\n        /* \"#utility.yul\":2191:2197   */\n      dup1\n        /* \"#utility.yul\":2240:2242   */\n      0x40\n        /* \"#utility.yul\":2228:2237   */\n      dup4\n        /* \"#utility.yul\":2219:2226   */\n      dup6\n        /* \"#utility.yul\":2215:2238   */\n      sub\n        /* \"#utility.yul\":2211:2243   */\n      slt\n        /* \"#utility.yul\":2208:2327   */\n      iszero\n      tag_103\n      jumpi\n        /* \"#utility.yul\":2246:2325   */\n      tag_104\n      tag_90\n      jump\t// in\n    tag_104:\n        /* \"#utility.yul\":2208:2327   */\n    tag_103:\n        /* \"#utility.yul\":2366:2367   */\n      0x00\n        /* \"#utility.yul\":2391:2444   */\n      tag_105\n        /* \"#utility.yul\":2436:2443   */\n      dup6\n        /* \"#utility.yul\":2427:2433   */\n      dup3\n        /* \"#utility.yul\":2416:2425   */\n      dup7\n        /* \"#utility.yul\":2412:2434   */\n      add\n        /* \"#utility.yul\":2391:2444   */\n      tag_83\n      jump\t// in\n    tag_105:\n        /* \"#utility.yul\":2381:2444   */\n      swap3\n      pop\n        /* \"#utility.yul\":2337:2454   */\n      pop\n        /* \"#utility.yul\":2521:2523   */\n      0x20\n        /* \"#utility.yul\":2510:2519   */\n      dup4\n        /* \"#utility.yul\":2506:2524   */\n      add\n        /* \"#utility.yul\":2493:2525   */\n      calldataload\n        /* \"#utility.yul\":2552:2570   */\n      0xffffffffffffffff\n        /* \"#utility.yul\":2544:2550   */\n      dup2\n        /* \"#utility.yul\":2541:2571   */\n      gt\n        /* \"#utility.yul\":2538:2655   */\n      iszero\n      tag_106\n      jumpi\n        /* \"#utility.yul\":2574:2653   */\n      tag_107\n      tag_93\n      jump\t// in\n    tag_107:\n        /* \"#utility.yul\":2538:2655   */\n    tag_106:\n        /* \"#utility.yul\":2679:2742   */\n      tag_108\n        /* \"#utility.yul\":2734:2741   */\n      dup6\n        /* \"#utility.yul\":2725:2731   */\n      dup3\n        /* \"#utility.yul\":2714:2723   */\n      dup7\n        /* \"#utility.yul\":2710:2732   */\n      add\n        /* \"#utility.yul\":2679:2742   */\n      tag_77\n      jump\t// in\n    tag_108:\n        /* \"#utility.yul\":2669:2742   */\n      swap2\n      pop\n        /* \"#utility.yul\":2464:2752   */\n      pop\n        /* \"#utility.yul\":2105:2759   */\n      swap3\n      pop\n      swap3\n      swap1\n      pop\n      jump\t// out\n        /* \"#utility.yul\":2765:3564   */\n    tag_20:\n        /* \"#utility.yul\":2852:2858   */\n      0x00\n        /* \"#utility.yul\":2860:2866   */\n      dup1\n        /* \"#utility.yul\":2868:2874   */\n      0x00\n        /* \"#utility.yul\":2917:2919   */\n      0x60\n        /* \"#utility.yul\":2905:2914   */\n      dup5\n        /* \"#utility.yul\":2896:2903   */\n      dup7\n        /* \"#utility.yul\":2892:2915   */\n      sub\n        /* \"#utility.yul\":2888:2920   */\n      slt\n        /* \"#utility.yul\":2885:3004   */\n      iszero\n      tag_110\n      jumpi\n        /* \"#utility.yul\":2923:3002   */\n      tag_111\n      tag_90\n      jump\t// in\n    tag_111:\n        /* \"#utility.yul\":2885:3004   */\n    tag_110:\n        /* \"#utility.yul\":3043:3044   */\n      0x00\n        /* \"#utility.yul\":3068:3121   */\n      tag_112\n        /* \"#utility.yul\":3113:3120   */\n      dup7\n        /* \"#utility.yul\":3104:3110   */\n      dup3\n        /* \"#utility.yul\":3093:3102   */\n      dup8\n        /* \"#utility.yul\":3089:3111   */\n      add\n        /* \"#utility.yul\":3068:3121   */\n      tag_83\n      jump\t// in\n    tag_112:\n        /* \"#utility.yul\":3058:3121   */\n      swap4\n      pop\n        /* \"#utility.yul\":3014:3131   */\n      pop\n        /* \"#utility.yul\":3170:3172   */\n      0x20\n        /* \"#utility.yul\":3196:3249   */\n      tag_113\n        /* \"#utility.yul\":3241:3248   */\n      dup7\n        /* \"#utility.yul\":3232:3238   */\n      dup3\n        /* \"#utility.yul\":3221:3230   */\n      dup8\n        /* \"#utility.yul\":3217:3239   */\n      add\n        /* \"#utility.yul\":3196:3249   */\n      tag_83\n      jump\t// in\n    tag_113:\n        /* \"#utility.yul\":3186:3249   */\n      swap3\n      pop\n        /* \"#utility.yul\":3141:3259   */\n      pop\n        /* \"#utility.yul\":3326:3328   */\n      0x40\n        /* \"#utility.yul\":3315:3324   */\n      dup5\n        /* \"#utility.yul\":3311:3329   */\n      add\n        /* \"#utility.yul\":3298:3330   */\n      calldataload\n        /* \"#utility.yul\":3357:3375   */\n      0xffffffffffffffff\n        /* \"#utility.yul\":3349:3355   */\n      dup2\n        /* \"#utility.yul\":3346:3376   */\n      gt\n        /* \"#utility.yul\":3343:3460   */\n      iszero\n      tag_114\n      jumpi\n        /* \"#utility.yul\":3379:3458   */\n      tag_115\n      tag_93\n      jump\t// in\n    tag_115:\n        /* \"#utility.yul\":3343:3460   */\n    tag_114:\n        /* \"#utility.yul\":3484:3547   */\n      tag_116\n        /* \"#utility.yul\":3539:3546   */\n      dup7\n        /* \"#utility.yul\":3530:3536   */\n      dup3\n        /* \"#utility.yul\":3519:3528   */\n      dup8\n        /* \"#utility.yul\":3515:3537   */\n      add\n        /* \"#utility.yul\":3484:3547   */\n      tag_77\n      jump\t// in\n    tag_116:\n        /* \"#utility.yul\":3474:3547   */\n      swap2\n      pop\n        /* \"#utility.yul\":3269:3557   */\n      pop\n        /* \"#utility.yul\":2765:3564   */\n      swap3\n      pop\n      swap3\n      pop\n      swap3\n      jump\t// out\n        /* \"#utility.yul\":3570:3688   */\n    tag_117:\n        /* \"#utility.yul\":3657:3681   */\n      tag_119\n        /* \"#utility.yul\":3675:3680   */\n      dup2\n        /* \"#utility.yul\":3657:3681   */\n      tag_120\n      jump\t// in\n    tag_119:\n        /* \"#utility.yul\":3652:3655   */\n      dup3\n        /* \"#utility.yul\":3645:3682   */\n      mstore\n        /* \"#utility.yul\":3570:3688   */\n      pop\n      pop\n      jump\t// out\n        /* \"#utility.yul\":3694:3916   */\n    tag_13:\n        /* \"#utility.yul\":3787:3791   */\n      0x00\n        /* \"#utility.yul\":3825:3827   */\n      0x20\n        /* \"#utility.yul\":3814:3823   */\n      dup3\n        /* \"#utility.yul\":3810:3828   */\n      add\n        /* \"#utility.yul\":3802:3828   */\n      swap1\n      pop\n        /* \"#utility.yul\":3838:3909   */\n      tag_122\n        /* \"#utility.yul\":3906:3907   */\n      0x00\n        /* \"#utility.yul\":3895:3904   */\n      dup4\n        /* \"#utility.yul\":3891:3908   */\n      add\n        /* \"#utility.yul\":3882:3888   */\n      dup5\n        /* \"#utility.yul\":3838:3909   */\n      tag_117\n      jump\t// in\n    tag_122:\n        /* \"#utility.yul\":3694:3916   */\n      swap3\n      swap2\n      pop\n      pop\n      jump\t// out\n        /* \"#utility.yul\":3922:4051   */\n    tag_71:\n        /* \"#utility.yul\":3956:3962   */\n      0x00\n        /* \"#utility.yul\":3983:4003   */\n      tag_124\n      tag_125\n      jump\t// in\n    tag_124:\n        /* \"#utility.yul\":3973:4003   */\n      swap1\n      pop\n        /* \"#utility.yul\":4012:4045   */\n      tag_126\n        /* \"#utility.yul\":4040:4044   */\n      dup3\n        /* \"#utility.yul\":4032:4038   */\n      dup3\n        /* \"#utility.yul\":4012:4045   */\n      tag_127\n      jump\t// in\n    tag_126:\n        /* \"#utility.yul\":3922:4051   */\n      swap2\n      swap1\n      pop\n      jump\t// out\n        /* \"#utility.yul\":4057:4132   */\n    tag_125:\n        /* \"#utility.yul\":4090:4096   */\n      0x00\n        /* \"#utility.yul\":4123:4125   */\n      0x40\n        /* \"#utility.yul\":4117:4126   */\n      mload\n        /* \"#utility.yul\":4107:4126   */\n      swap1\n      pop\n        /* \"#utility.yul\":4057:4132   */\n      swap1\n      jump\t// out\n        /* \"#utility.yul\":4138:4446   */\n    tag_70:\n        /* \"#utility.yul\":4200:4204   */\n      0x00\n        /* \"#utility.yul\":4290:4308   */\n      0xffffffffffffffff\n        /* \"#utility.yul\":4282:4288   */\n      dup3\n        /* \"#utility.yul\":4279:4309   */\n      gt\n        /* \"#utility.yul\":4276:4332   */\n      iszero\n      tag_130\n      jumpi\n        /* \"#utility.yul\":4312:4330   */\n      tag_131\n      tag_132\n      jump\t// in\n    tag_131:\n        /* \"#utility.yul\":4276:4332   */\n    tag_130:\n        /* \"#utility.yul\":4350:4379   */\n      tag_133\n        /* \"#utility.yul\":4372:4378   */\n      dup3\n        /* \"#utility.yul\":4350:4379   */\n      tag_134\n      jump\t// in\n    tag_133:\n        /* \"#utility.yul\":4342:4379   */\n      swap1\n      pop\n        /* \"#utility.yul\":4434:4438   */\n      0x20\n        /* \"#utility.yul\":4428:4432   */\n      dup2\n        /* \"#utility.yul\":4424:4439   */\n      add\n        /* \"#utility.yul\":4416:4439   */\n      swap1\n      pop\n        /* \"#utility.yul\":4138:4446   */\n      swap2\n      swap1\n      pop\n      jump\t// out\n        /* \"#utility.yul\":4452:4643   */\n    tag_36:\n        /* \"#utility.yul\":4492:4496   */\n      0x00\n        /* \"#utility.yul\":4512:4532   */\n      tag_136\n        /* \"#utility.yul\":4530:4531   */\n      dup3\n        /* \"#utility.yul\":4512:4532   */\n      tag_120\n      jump\t// in\n    tag_136:\n        /* \"#utility.yul\":4507:4532   */\n      swap2\n      pop\n        /* \"#utility.yul\":4546:4566   */\n      tag_137\n        /* \"#utility.yul\":4564:4565   */\n      dup4\n        /* \"#utility.yul\":4546:4566   */\n      tag_120\n      jump\t// in\n    tag_137:\n        /* \"#utility.yul\":4541:4566   */\n      swap3\n      pop\n        /* \"#utility.yul\":4585:4586   */\n      dup3\n        /* \"#utility.yul\":4582:4583   */\n      dup3\n        /* \"#utility.yul\":4579:4587   */\n      lt\n        /* \"#utility.yul\":4576:4610   */\n      iszero\n      tag_138\n      jumpi\n        /* \"#utility.yul\":4590:4608   */\n      tag_139\n      tag_140\n      jump\t// in\n    tag_139:\n        /* \"#utility.yul\":4576:4610   */\n    tag_138:\n        /* \"#utility.yul\":4635:4636   */\n      dup3\n        /* \"#utility.yul\":4632:4633   */\n      dup3\n        /* \"#utility.yul\":4628:4637   */\n      sub\n        /* \"#utility.yul\":4620:4637   */\n      swap1\n      pop\n        /* \"#utility.yul\":4452:4643   */\n      swap3\n      swap2\n      pop\n      pop\n      jump\t// out\n        /* \"#utility.yul\":4649:4726   */\n    tag_120:\n        /* \"#utility.yul\":4686:4693   */\n      0x00\n        /* \"#utility.yul\":4715:4720   */\n      dup2\n        /* \"#utility.yul\":4704:4720   */\n      swap1\n      pop\n        /* \"#utility.yul\":4649:4726   */\n      swap2\n      swap1\n      pop\n      jump\t// out\n        /* \"#utility.yul\":4732:4886   */\n    tag_76:\n        /* \"#utility.yul\":4816:4822   */\n      dup3\n        /* \"#utility.yul\":4811:4814   */\n      dup2\n        /* \"#utility.yul\":4806:4809   */\n      dup4\n        /* \"#utility.yul\":4793:4823   */\n      calldatacopy\n        /* \"#utility.yul\":4878:4879   */\n      0x00\n        /* \"#utility.yul\":4869:4875   */\n      dup4\n        /* \"#utility.yul\":4864:4867   */\n      dup4\n        /* \"#utility.yul\":4860:4876   */\n      add\n        /* \"#utility.yul\":4853:4880   */\n      mstore\n        /* \"#utility.yul\":4732:4886   */\n      pop\n      pop\n      pop\n      jump\t// out\n        /* \"#utility.yul\":4892:5212   */\n    tag_55:\n        /* \"#utility.yul\":4936:4942   */\n      0x00\n        /* \"#utility.yul\":4973:4974   */\n      0x02\n        /* \"#utility.yul\":4967:4971   */\n      dup3\n        /* \"#utility.yul\":4963:4975   */\n      div\n        /* \"#utility.yul\":4953:4975   */\n      swap1\n      pop\n        /* \"#utility.yul\":5020:5021   */\n      0x01\n        /* \"#utility.yul\":5014:5018   */\n      dup3\n        /* \"#utility.yul\":5010:5022   */\n      and\n        /* \"#utility.yul\":5041:5059   */\n      dup1\n        /* \"#utility.yul\":5031:5112   */\n      tag_144\n      jumpi\n        /* \"#utility.yul\":5097:5101   */\n      0x7f\n        /* \"#utility.yul\":5089:5095   */\n      dup3\n        /* \"#utility.yul\":5085:5102   */\n      and\n        /* \"#utility.yul\":5075:5102   */\n      swap2\n      pop\n        /* \"#utility.yul\":5031:5112   */\n    tag_144:\n        /* \"#utility.yul\":5159:5161   */\n      0x20\n        /* \"#utility.yul\":5151:5157   */\n      dup3\n        /* \"#utility.yul\":5148:5162   */\n      lt\n        /* \"#utility.yul\":5128:5146   */\n      dup2\n        /* \"#utility.yul\":5125:5163   */\n      eq\n        /* \"#utility.yul\":5122:5206   */\n      iszero\n      tag_145\n      jumpi\n        /* \"#utility.yul\":5178:5196   */\n      tag_146\n      tag_147\n      jump\t// in\n    tag_146:\n        /* \"#utility.yul\":5122:5206   */\n    tag_145:\n        /* \"#utility.yul\":4943:5212   */\n      pop\n        /* \"#utility.yul\":4892:5212   */\n      swap2\n      swap1\n      pop\n      jump\t// out\n        /* \"#utility.yul\":5218:5499   */\n    tag_127:\n        /* \"#utility.yul\":5301:5328   */\n      tag_149\n        /* \"#utility.yul\":5323:5327   */\n      dup3\n        /* \"#utility.yul\":5301:5328   */\n      tag_134\n      jump\t// in\n    tag_149:\n        /* \"#utility.yul\":5293:5299   */\n      dup2\n        /* \"#utility.yul\":5289:5329   */\n      add\n        /* \"#utility.yul\":5431:5437   */\n      dup2\n        /* \"#utility.yul\":5419:5429   */\n      dup2\n        /* \"#utility.yul\":5416:5438   */\n      lt\n        /* \"#utility.yul\":5395:5413   */\n      0xffffffffffffffff\n        /* \"#utility.yul\":5383:5393   */\n      dup3\n        /* \"#utility.yul\":5380:5414   */\n      gt\n        /* \"#utility.yul\":5377:5439   */\n      or\n        /* \"#utility.yul\":5374:5462   */\n      iszero\n      tag_150\n      jumpi\n        /* \"#utility.yul\":5442:5460   */\n      tag_151\n      tag_132\n      jump\t// in\n    tag_151:\n        /* \"#utility.yul\":5374:5462   */\n    tag_150:\n        /* \"#utility.yul\":5482:5492   */\n      dup1\n        /* \"#utility.yul\":5478:5480   */\n      0x40\n        /* \"#utility.yul\":5471:5493   */\n      mstore\n        /* \"#utility.yul\":5261:5499   */\n      pop\n        /* \"#utility.yul\":5218:5499   */\n      pop\n      pop\n      jump\t// out\n        /* \"#utility.yul\":5505:5738   */\n    tag_31:\n        /* \"#utility.yul\":5544:5547   */\n      0x00\n        /* \"#utility.yul\":5567:5591   */\n      tag_153\n        /* \"#utility.yul\":5585:5590   */\n      dup3\n        /* \"#utility.yul\":5567:5591   */\n      tag_120\n      jump\t// in\n    tag_153:\n        /* \"#utility.yul\":5558:5591   */\n      swap2\n      pop\n        /* \"#utility.yul\":5613:5679   */\n      0xffffffffffffffffffffffffffffffffffffffffffffffffffffffffffffffff\n        /* \"#utility.yul\":5606:5611   */\n      dup3\n        /* \"#utility.yul\":5603:5680   */\n      eq\n        /* \"#utility.yul\":5600:5703   */\n      iszero\n      tag_154\n      jumpi\n        /* \"#utility.yul\":5683:5701   */\n      tag_155\n      tag_140\n      jump\t// in\n    tag_155:\n        /* \"#utility.yul\":5600:5703   */\n    tag_154:\n        /* \"#utility.yul\":5730:5731   */\n      0x01\n        /* \"#utility.yul\":5723:5728   */\n      dup3\n        /* \"#utility.yul\":5719:5732   */\n      add\n        /* \"#utility.yul\":5712:5732   */\n      swap1\n      pop\n        /* \"#utility.yul\":5505:5738   */\n      swap2\n      swap1\n      pop\n      jump\t// out\n        /* \"#utility.yul\":5744:5924   */\n    tag_140:\n        /* \"#utility.yul\":5792:5869   */\n      0x4e487b7100000000000000000000000000000000000000000000000000000000\n        /* \"#utility.yul\":5789:5790   */\n      0x00\n        /* \"#utility.yul\":5782:5870   */\n      mstore\n        /* \"#utility.yul\":5889:5893   */\n      0x11\n        /* \"#utility.yul\":5886:5887   */\n      0x04\n        /* \"#utility.yul\":5879:5894   */\n      mstore\n        /* \"#utility.yul\":5913:5917   */\n      0x24\n        /* \"#utility.yul\":5910:5911   */\n      0x00\n        /* \"#utility.yul\":5903:5918   */\n      revert\n        /* \"#utility.yul\":5930:6110   */\n    tag_147:\n        /* \"#utility.yul\":5978:6055   */\n      0x4e487b7100000000000000000000000000000000000000000000000000000000\n        /* \"#utility.yul\":5975:5976   */\n      0x00\n        /* \"#utility.yul\":5968:6056   */\n      mstore\n        /* \"#utility.yul\":6075:6079   */\n      0x22\n        /* \"#utility.yul\":6072:6073   */\n      0x04\n        /* \"#utility.yul\":6065:6080   */\n      mstore\n        /* \"#utility.yul\":6099:6103   */\n      0x24\n        /* \"#utility.yul\":6096:6097   */\n      0x00\n        /* \"#utility.yul\":6089:6104   */\n      revert\n        /* \"#utility.yul\":6116:6296   */\n    tag_132:\n        /* \"#utility.yul\":6164:6241   */\n      0x4e487b7100000000000000000000000000000000000000000000000000000000\n        /* \"#utility.yul\":6161:6162   */\n      0x00\n        /* \"#utility.yul\":6154:6242   */\n      mstore\n        /* \"#utility.yul\":6261:6265   */\n      0x41\n        /* \"#utility.yul\":6258:6259   */\n      0x04\n        /* \"#utility.yul\":6251:6266   */\n      mstore\n        /* \"#utility.yul\":6285:6289   */\n      0x24\n        /* \"#utility.yul\":6282:6283   */\n      0x00\n        /* \"#utility.yul\":6275:6290   */\n      revert\n        /* \"#utility.yul\":6302:6419   */\n    tag_81:\n        /* \"#utility.yul\":6411:6412   */\n      0x00\n        /* \"#utility.yul\":6408:6409   */\n      dup1\n        /* \"#utility.yul\":6401:6413   */\n      revert\n        /* \"#utility.yul\":6425:6542   */\n    tag_74:\n        /* \"#utility.yul\":6534:6535   */\n      0x00\n        /* \"#utility.yul\":6531:6532   */\n      dup1\n        /* \"#utility.yul\":6524:6536   */\n      revert\n        /* \"#utility.yul\":6548:6665   */\n    tag_93:\n        /* \"#utility.yul\":6657:6658   */\n      0x00\n        /* \"#utility.yul\":6654:6655   */\n      dup1\n        /* \"#utility.yul\":6647:6659   */\n      revert\n        /* \"#utility.yul\":6671:6788   */\n    tag_90:\n        /* \"#utility.yul\":6780:6781   */\n      0x00\n        /* \"#utility.yul\":6777:6778   */\n      dup1\n        /* \"#utility.yul\":6770:6782   */\n      revert\n        /* \"#utility.yul\":6794:6896   */\n    tag_134:\n        /* \"#utility.yul\":6835:6841   */\n      0x00\n        /* \"#utility.yul\":6886:6888   */\n      0x1f\n        /* \"#utility.yul\":6882:6889   */\n      not\n        /* \"#utility.yul\":6877:6879   */\n      0x1f\n        /* \"#utility.yul\":6870:6875   */\n      dup4\n        /* \"#utility.yul\":6866:6880   */\n      add\n        /* \"#utility.yul\":6862:6890   */\n      and\n        /* \"#utility.yul\":6852:6890   */\n      swap1\n      pop\n        /* \"#utility.yul\":6794:6896   */\n      swap2\n      swap1\n      pop\n      jump\t// out\n        /* \"#utility.yul\":6902:7024   */\n    tag_86:\n        /* \"#utility.yul\":6975:6999   */\n      tag_165\n        /* \"#utility.yul\":6993:6998   */\n      dup2\n        /* \"#utility.yul\":6975:6999   */\n      tag_120\n      jump\t// in\n    tag_165:\n        /* \"#utility.yul\":6968:6973   */\n      dup2\n        /* \"#utility.yul\":6965:7000   */\n      eq\n        /* \"#utility.yul\":6955:7018   */\n      tag_166\n      jumpi\n        /* \"#utility.yul\":7014:7015   */\n      0x00\n        /* \"#utility.yul\":7011:7012   */\n      dup1\n        /* \"#utility.yul\":7004:7016   */\n      revert\n        /* \"#utility.yul\":6955:7018   */\n    tag_166:\n        /* \"#utility.yul\":6902:7024   */\n      pop\n      jump\t// out\n\n    auxdata: 0xa264697066735822122044264e6447da2decf8e31006b0eb58e4864a951a239cddd059002ded5cc9443964736f6c63430008070033\n}\n",
				"bytecode": {
					"linkReferences": {},
					"object": "6080604052600060015534801561001557600080fd5b50610a24806100256000396000f3fe608060405234801561001057600080fd5b50600436106100575760003560e01c80635ea81a321461005c5780638c8e54fb1461008c578063a1bbfc05146100a8578063a901d15c146100c4578063ea57d5d4146100e0575b600080fd5b6100766004803603810190610071919061063c565b6100fc565b60405161008391906107bb565b60405180910390f35b6100a660048036038101906100a191906106b4565b6101fc565b005b6100c260048036038101906100bd919061073d565b6101ff565b005b6100de60048036038101906100d991906106b4565b610377565b005b6100fa60048036038101906100f591906106e1565b61041d565b005b60008060008060016000815480929190610115906108dc565b919050558152602001908152602001600020905083816000019080519060200190610141929190610514565b508281600101908051906020019061015a929190610514565b5060008160020181905550338160030160006101000a81548173ffffffffffffffffffffffffffffffffffffffff021916908373ffffffffffffffffffffffffffffffffffffffff1602179055506000816006018190555060008160070160006101000a81548160ff021916908315150217905550600180546101dd919061082c565b8160080181905550600180546101f3919061082c565b91505092915050565b50565b8260008082815260200190815260200160002060040160003373ffffffffffffffffffffffffffffffffffffffff1673ffffffffffffffffffffffffffffffffffffffff16815260200190815260200160002060020160009054906101000a900460ff161561026d57600080fd5b6000806000868152602001908152602001600020905060008160040160003373ffffffffffffffffffffffffffffffffffffffff1673ffffffffffffffffffffffffffffffffffffffff1681526020019081526020016000209050600082600501600087815260200190815260200160002090508260020160008154809291906102f6906108dc565b919050555084826000019080519060200190610313929190610514565b50858260010181905550816003016000815480929190610332906108dc565b919050555060018260020160006101000a81548160ff021916908315150217905550806001016000815480929190610369906108dc565b919050555050505050505050565b8060008082815260200190815260200160002060030160009054906101000a900473ffffffffffffffffffffffffffffffffffffffff1673ffffffffffffffffffffffffffffffffffffffff163373ffffffffffffffffffffffffffffffffffffffff16146103e557600080fd5b6000806000848152602001908152602001600020905060018160070160006101000a81548160ff021916908315150217905550505050565b8160008082815260200190815260200160002060030160009054906101000a900473ffffffffffffffffffffffffffffffffffffffff1673ffffffffffffffffffffffffffffffffffffffff163373ffffffffffffffffffffffffffffffffffffffff161461048b57600080fd5b60008060008581526020019081526020016000209050604051806040016040528084815260200160008152508160050160008360060160008154809291906104d2906108dc565b9190505581526020019081526020016000206000820151816000019080519060200190610500929190610514565b506020820151816001015590505050505050565b82805461052090610879565b90600052602060002090601f0160209004810192826105425760008555610589565b82601f1061055b57805160ff1916838001178555610589565b82800160010185558215610589579182015b8281111561058857825182559160200191906001019061056d565b5b509050610596919061059a565b5090565b5b808211156105b357600081600090555060010161059b565b5090565b60006105ca6105c5846107fb565b6107d6565b9050828152602081018484840111156105e6576105e56109b7565b5b6105f184828561086a565b509392505050565b600082601f83011261060e5761060d6109b2565b5b813561061e8482602086016105b7565b91505092915050565b600081359050610636816109d7565b92915050565b60008060408385031215610653576106526109c1565b5b600083013567ffffffffffffffff811115610671576106706109bc565b5b61067d858286016105f9565b925050602083013567ffffffffffffffff81111561069e5761069d6109bc565b5b6106aa858286016105f9565b9150509250929050565b6000602082840312156106ca576106c96109c1565b5b60006106d884828501610627565b91505092915050565b600080604083850312156106f8576106f76109c1565b5b600061070685828601610627565b925050602083013567ffffffffffffffff811115610727576107266109bc565b5b610733858286016105f9565b9150509250929050565b600080600060608486031215610756576107556109c1565b5b600061076486828701610627565b935050602061077586828701610627565b925050604084013567ffffffffffffffff811115610796576107956109bc565b5b6107a2868287016105f9565b9150509250925092565b6107b581610860565b82525050565b60006020820190506107d060008301846107ac565b92915050565b60006107e06107f1565b90506107ec82826108ab565b919050565b6000604051905090565b600067ffffffffffffffff82111561081657610815610983565b5b61081f826109c6565b9050602081019050919050565b600061083782610860565b915061084283610860565b92508282101561085557610854610925565b5b828203905092915050565b6000819050919050565b82818337600083830152505050565b6000600282049050600182168061089157607f821691505b602082108114156108a5576108a4610954565b5b50919050565b6108b4826109c6565b810181811067ffffffffffffffff821117156108d3576108d2610983565b5b80604052505050565b60006108e782610860565b91507fffffffffffffffffffffffffffffffffffffffffffffffffffffffffffffffff82141561091a57610919610925565b5b600182019050919050565b7f4e487b7100000000000000000000000000000000000000000000000000000000600052601160045260246000fd5b7f4e487b7100000000000000000000000000000000000000000000000000000000600052602260045260246000fd5b7f4e487b7100000000000000000000000000000000000000000000000000000000600052604160045260246000fd5b600080fd5b600080fd5b600080fd5b600080fd5b6000601f19601f8301169050919050565b6109e081610860565b81146109eb57600080fd5b5056fea264697066735822122044264e6447da2decf8e31006b0eb58e4864a951a239cddd059002ded5cc9443964736f6c63430008070033",
					"opcodes": "PUSH1 0x80 PUSH1 0x40 MSTORE PUSH1 0x0 PUSH1 0x1 SSTORE CALLVALUE DUP1 ISZERO PUSH2 0x15 JUMPI PUSH1 0x0 DUP1 REVERT JUMPDEST POP PUSH2 0xA24 DUP1 PUSH2 0x25 PUSH1 0x0 CODECOPY PUSH1 0x0 RETURN INVALID PUSH1 0x80 PUSH1 0x40 MSTORE CALLVALUE DUP1 ISZERO PUSH2 0x10 JUMPI PUSH1 0x0 DUP1 REVERT JUMPDEST POP PUSH1 0x4 CALLDATASIZE LT PUSH2 0x57 JUMPI PUSH1 0x0 CALLDATALOAD PUSH1 0xE0 SHR DUP1 PUSH4 0x5EA81A32 EQ PUSH2 0x5C JUMPI DUP1 PUSH4 0x8C8E54FB EQ PUSH2 0x8C JUMPI DUP1 PUSH4 0xA1BBFC05 EQ PUSH2 0xA8 JUMPI DUP1 PUSH4 0xA901D15C EQ PUSH2 0xC4 JUMPI DUP1 PUSH4 0xEA57D5D4 EQ PUSH2 0xE0 JUMPI JUMPDEST PUSH1 0x0 DUP1 REVERT JUMPDEST PUSH2 0x76 PUSH1 0x4 DUP1 CALLDATASIZE SUB DUP2 ADD SWAP1 PUSH2 0x71 SWAP2 SWAP1 PUSH2 0x63C JUMP JUMPDEST PUSH2 0xFC JUMP JUMPDEST PUSH1 0x40 MLOAD PUSH2 0x83 SWAP2 SWAP1 PUSH2 0x7BB JUMP JUMPDEST PUSH1 0x40 MLOAD DUP1 SWAP2 SUB SWAP1 RETURN JUMPDEST PUSH2 0xA6 PUSH1 0x4 DUP1 CALLDATASIZE SUB DUP2 ADD SWAP1 PUSH2 0xA1 SWAP2 SWAP1 PUSH2 0x6B4 JUMP JUMPDEST PUSH2 0x1FC JUMP JUMPDEST STOP JUMPDEST PUSH2 0xC2 PUSH1 0x4 DUP1 CALLDATASIZE SUB DUP2 ADD SWAP1 PUSH2 0xBD SWAP2 SWAP1 PUSH2 0x73D JUMP JUMPDEST PUSH2 0x1FF JUMP JUMPDEST STOP JUMPDEST PUSH2 0xDE PUSH1 0x4 DUP1 CALLDATASIZE SUB DUP2 ADD SWAP1 PUSH2 0xD9 SWAP2 SWAP1 PUSH2 0x6B4 JUMP JUMPDEST PUSH2 0x377 JUMP JUMPDEST STOP JUMPDEST PUSH2 0xFA PUSH1 0x4 DUP1 CALLDATASIZE SUB DUP2 ADD SWAP1 PUSH2 0xF5 SWAP2 SWAP1 PUSH2 0x6E1 JUMP JUMPDEST PUSH2 0x41D JUMP JUMPDEST STOP JUMPDEST PUSH1 0x0 DUP1 PUSH1 0x0 DUP1 PUSH1 0x1 PUSH1 0x0 DUP2 SLOAD DUP1 SWAP3 SWAP2 SWAP1 PUSH2 0x115 SWAP1 PUSH2 0x8DC JUMP JUMPDEST SWAP2 SWAP1 POP SSTORE DUP2 MSTORE PUSH1 0x20 ADD SWAP1 DUP2 MSTORE PUSH1 0x20 ADD PUSH1 0x0 KECCAK256 SWAP1 POP DUP4 DUP2 PUSH1 0x0 ADD SWAP1 DUP1 MLOAD SWAP1 PUSH1 0x20 ADD SWAP1 PUSH2 0x141 SWAP3 SWAP2 SWAP1 PUSH2 0x514 JUMP JUMPDEST POP DUP3 DUP2 PUSH1 0x1 ADD SWAP1 DUP1 MLOAD SWAP1 PUSH1 0x20 ADD SWAP1 PUSH2 0x15A SWAP3 SWAP2 SWAP1 PUSH2 0x514 JUMP JUMPDEST POP PUSH1 0x0 DUP2 PUSH1 0x2 ADD DUP2 SWAP1 SSTORE POP CALLER DUP2 PUSH1 0x3 ADD PUSH1 0x0 PUSH2 0x100 EXP DUP2 SLOAD DUP2 PUSH20 0xFFFFFFFFFFFFFFFFFFFFFFFFFFFFFFFFFFFFFFFF MUL NOT AND SWAP1 DUP4 PUSH20 0xFFFFFFFFFFFFFFFFFFFFFFFFFFFFFFFFFFFFFFFF AND MUL OR SWAP1 SSTORE POP PUSH1 0x0 DUP2 PUSH1 0x6 ADD DUP2 SWAP1 SSTORE POP PUSH1 0x0 DUP2 PUSH1 0x7 ADD PUSH1 0x0 PUSH2 0x100 EXP DUP2 SLOAD DUP2 PUSH1 0xFF MUL NOT AND SWAP1 DUP4 ISZERO ISZERO MUL OR SWAP1 SSTORE POP PUSH1 0x1 DUP1 SLOAD PUSH2 0x1DD SWAP2 SWAP1 PUSH2 0x82C JUMP JUMPDEST DUP2 PUSH1 0x8 ADD DUP2 SWAP1 SSTORE POP PUSH1 0x1 DUP1 SLOAD PUSH2 0x1F3 SWAP2 SWAP1 PUSH2 0x82C JUMP JUMPDEST SWAP2 POP POP SWAP3 SWAP2 POP POP JUMP JUMPDEST POP JUMP JUMPDEST DUP3 PUSH1 0x0 DUP1 DUP3 DUP2 MSTORE PUSH1 0x20 ADD SWAP1 DUP2 MSTORE PUSH1 0x20 ADD PUSH1 0x0 KECCAK256 PUSH1 0x4 ADD PUSH1 0x0 CALLER PUSH20 0xFFFFFFFFFFFFFFFFFFFFFFFFFFFFFFFFFFFFFFFF AND PUSH20 0xFFFFFFFFFFFFFFFFFFFFFFFFFFFFFFFFFFFFFFFF AND DUP2 MSTORE PUSH1 0x20 ADD SWAP1 DUP2 MSTORE PUSH1 0x20 ADD PUSH1 0x0 KECCAK256 PUSH1 0x2 ADD PUSH1 0x0 SWAP1 SLOAD SWAP1 PUSH2 0x100 EXP SWAP1 DIV PUSH1 0xFF AND ISZERO PUSH2 0x26D JUMPI PUSH1 0x0 DUP1 REVERT JUMPDEST PUSH1 0x0 DUP1 PUSH1 0x0 DUP7 DUP2 MSTORE PUSH1 0x20 ADD SWAP1 DUP2 MSTORE PUSH1 0x20 ADD PUSH1 0x0 KECCAK256 SWAP1 POP PUSH1 0x0 DUP2 PUSH1 0x4 ADD PUSH1 0x0 CALLER PUSH20 0xFFFFFFFFFFFFFFFFFFFFFFFFFFFFFFFFFFFFFFFF AND PUSH20 0xFFFFFFFFFFFFFFFFFFFFFFFFFFFFFFFFFFFFFFFF AND DUP2 MSTORE PUSH1 0x20 ADD SWAP1 DUP2 MSTORE PUSH1 0x20 ADD PUSH1 0x0 KECCAK256 SWAP1 POP PUSH1 0x0 DUP3 PUSH1 0x5 ADD PUSH1 0x0 DUP8 DUP2 MSTORE PUSH1 0x20 ADD SWAP1 DUP2 MSTORE PUSH1 0x20 ADD PUSH1 0x0 KECCAK256 SWAP1 POP DUP3 PUSH1 0x2 ADD PUSH1 0x0 DUP2 SLOAD DUP1 SWAP3 SWAP2 SWAP1 PUSH2 0x2F6 SWAP1 PUSH2 0x8DC JUMP JUMPDEST SWAP2 SWAP1 POP SSTORE POP DUP5 DUP3 PUSH1 0x0 ADD SWAP1 DUP1 MLOAD SWAP1 PUSH1 0x20 ADD SWAP1 PUSH2 0x313 SWAP3 SWAP2 SWAP1 PUSH2 0x514 JUMP JUMPDEST POP DUP6 DUP3 PUSH1 0x1 ADD DUP2 SWAP1 SSTORE POP DUP2 PUSH1 0x3 ADD PUSH1 0x0 DUP2 SLOAD DUP1 SWAP3 SWAP2 SWAP1 PUSH2 0x332 SWAP1 PUSH2 0x8DC JUMP JUMPDEST SWAP2 SWAP1 POP SSTORE POP PUSH1 0x1 DUP3 PUSH1 0x2 ADD PUSH1 0x0 PUSH2 0x100 EXP DUP2 SLOAD DUP2 PUSH1 0xFF MUL NOT AND SWAP1 DUP4 ISZERO ISZERO MUL OR SWAP1 SSTORE POP DUP1 PUSH1 0x1 ADD PUSH1 0x0 DUP2 SLOAD DUP1 SWAP3 SWAP2 SWAP1 PUSH2 0x369 SWAP1 PUSH2 0x8DC JUMP JUMPDEST SWAP2 SWAP1 POP SSTORE POP POP POP POP POP POP POP POP JUMP JUMPDEST DUP1 PUSH1 0x0 DUP1 DUP3 DUP2 MSTORE PUSH1 0x20 ADD SWAP1 DUP2 MSTORE PUSH1 0x20 ADD PUSH1 0x0 KECCAK256 PUSH1 0x3 ADD PUSH1 0x0 SWAP1 SLOAD SWAP1 PUSH2 0x100 EXP SWAP1 DIV PUSH20 0xFFFFFFFFFFFFFFFFFFFFFFFFFFFFFFFFFFFFFFFF AND PUSH20 0xFFFFFFFFFFFFFFFFFFFFFFFFFFFFFFFFFFFFFFFF AND CALLER PUSH20 0xFFFFFFFFFFFFFFFFFFFFFFFFFFFFFFFFFFFFFFFF AND EQ PUSH2 0x3E5 JUMPI PUSH1 0x0 DUP1 REVERT JUMPDEST PUSH1 0x0 DUP1 PUSH1 0x0 DUP5 DUP2 MSTORE PUSH1 0x20 ADD SWAP1 DUP2 MSTORE PUSH1 0x20 ADD PUSH1 0x0 KECCAK256 SWAP1 POP PUSH1 0x1 DUP2 PUSH1 0x7 ADD PUSH1 0x0 PUSH2 0x100 EXP DUP2 SLOAD DUP2 PUSH1 0xFF MUL NOT AND SWAP1 DUP4 ISZERO ISZERO MUL OR SWAP1 SSTORE POP POP POP POP JUMP JUMPDEST DUP2 PUSH1 0x0 DUP1 DUP3 DUP2 MSTORE PUSH1 0x20 ADD SWAP1 DUP2 MSTORE PUSH1 0x20 ADD PUSH1 0x0 KECCAK256 PUSH1 0x3 ADD PUSH1 0x0 SWAP1 SLOAD SWAP1 PUSH2 0x100 EXP SWAP1 DIV PUSH20 0xFFFFFFFFFFFFFFFFFFFFFFFFFFFFFFFFFFFFFFFF AND PUSH20 0xFFFFFFFFFFFFFFFFFFFFFFFFFFFFFFFFFFFFFFFF AND CALLER PUSH20 0xFFFFFFFFFFFFFFFFFFFFFFFFFFFFFFFFFFFFFFFF AND EQ PUSH2 0x48B JUMPI PUSH1 0x0 DUP1 REVERT JUMPDEST PUSH1 0x0 DUP1 PUSH1 0x0 DUP6 DUP2 MSTORE PUSH1 0x20 ADD SWAP1 DUP2 MSTORE PUSH1 0x20 ADD PUSH1 0x0 KECCAK256 SWAP1 POP PUSH1 0x40 MLOAD DUP1 PUSH1 0x40 ADD PUSH1 0x40 MSTORE DUP1 DUP5 DUP2 MSTORE PUSH1 0x20 ADD PUSH1 0x0 DUP2 MSTORE POP DUP2 PUSH1 0x5 ADD PUSH1 0x0 DUP4 PUSH1 0x6 ADD PUSH1 0x0 DUP2 SLOAD DUP1 SWAP3 SWAP2 SWAP1 PUSH2 0x4D2 SWAP1 PUSH2 0x8DC JUMP JUMPDEST SWAP2 SWAP1 POP SSTORE DUP2 MSTORE PUSH1 0x20 ADD SWAP1 DUP2 MSTORE PUSH1 0x20 ADD PUSH1 0x0 KECCAK256 PUSH1 0x0 DUP3 ADD MLOAD DUP2 PUSH1 0x0 ADD SWAP1 DUP1 MLOAD SWAP1 PUSH1 0x20 ADD SWAP1 PUSH2 0x500 SWAP3 SWAP2 SWAP1 PUSH2 0x514 JUMP JUMPDEST POP PUSH1 0x20 DUP3 ADD MLOAD DUP2 PUSH1 0x1 ADD SSTORE SWAP1 POP POP POP POP POP POP JUMP JUMPDEST DUP3 DUP1 SLOAD PUSH2 0x520 SWAP1 PUSH2 0x879 JUMP JUMPDEST SWAP1 PUSH1 0x0 MSTORE PUSH1 0x20 PUSH1 0x0 KECCAK256 SWAP1 PUSH1 0x1F ADD PUSH1 0x20 SWAP1 DIV DUP2 ADD SWAP3 DUP3 PUSH2 0x542 JUMPI PUSH1 0x0 DUP6 SSTORE PUSH2 0x589 JUMP JUMPDEST DUP3 PUSH1 0x1F LT PUSH2 0x55B JUMPI DUP1 MLOAD PUSH1 0xFF NOT AND DUP4 DUP1 ADD OR DUP6 SSTORE PUSH2 0x589 JUMP JUMPDEST DUP3 DUP1 ADD PUSH1 0x1 ADD DUP6 SSTORE DUP3 ISZERO PUSH2 0x589 JUMPI SWAP2 DUP3 ADD JUMPDEST DUP3 DUP2 GT ISZERO PUSH2 0x588 JUMPI DUP3 MLOAD DUP3 SSTORE SWAP2 PUSH1 0x20 ADD SWAP2 SWAP1 PUSH1 0x1 ADD SWAP1 PUSH2 0x56D JUMP JUMPDEST JUMPDEST POP SWAP1 POP PUSH2 0x596 SWAP2 SWAP1 PUSH2 0x59A JUMP JUMPDEST POP SWAP1 JUMP JUMPDEST JUMPDEST DUP1 DUP3 GT ISZERO PUSH2 0x5B3 JUMPI PUSH1 0x0 DUP2 PUSH1 0x0 SWAP1 SSTORE POP PUSH1 0x1 ADD PUSH2 0x59B JUMP JUMPDEST POP SWAP1 JUMP JUMPDEST PUSH1 0x0 PUSH2 0x5CA PUSH2 0x5C5 DUP5 PUSH2 0x7FB JUMP JUMPDEST PUSH2 0x7D6 JUMP JUMPDEST SWAP1 POP DUP3 DUP2 MSTORE PUSH1 0x20 DUP2 ADD DUP5 DUP5 DUP5 ADD GT ISZERO PUSH2 0x5E6 JUMPI PUSH2 0x5E5 PUSH2 0x9B7 JUMP JUMPDEST JUMPDEST PUSH2 0x5F1 DUP5 DUP3 DUP6 PUSH2 0x86A JUMP JUMPDEST POP SWAP4 SWAP3 POP POP POP JUMP JUMPDEST PUSH1 0x0 DUP3 PUSH1 0x1F DUP4 ADD SLT PUSH2 0x60E JUMPI PUSH2 0x60D PUSH2 0x9B2 JUMP JUMPDEST JUMPDEST DUP2 CALLDATALOAD PUSH2 0x61E DUP5 DUP3 PUSH1 0x20 DUP7 ADD PUSH2 0x5B7 JUMP JUMPDEST SWAP2 POP POP SWAP3 SWAP2 POP POP JUMP JUMPDEST PUSH1 0x0 DUP2 CALLDATALOAD SWAP1 POP PUSH2 0x636 DUP2 PUSH2 0x9D7 JUMP JUMPDEST SWAP3 SWAP2 POP POP JUMP JUMPDEST PUSH1 0x0 DUP1 PUSH1 0x40 DUP4 DUP6 SUB SLT ISZERO PUSH2 0x653 JUMPI PUSH2 0x652 PUSH2 0x9C1 JUMP JUMPDEST JUMPDEST PUSH1 0x0 DUP4 ADD CALLDATALOAD PUSH8 0xFFFFFFFFFFFFFFFF DUP2 GT ISZERO PUSH2 0x671 JUMPI PUSH2 0x670 PUSH2 0x9BC JUMP JUMPDEST JUMPDEST PUSH2 0x67D DUP6 DUP3 DUP7 ADD PUSH2 0x5F9 JUMP JUMPDEST SWAP3 POP POP PUSH1 0x20 DUP4 ADD CALLDATALOAD PUSH8 0xFFFFFFFFFFFFFFFF DUP2 GT ISZERO PUSH2 0x69E JUMPI PUSH2 0x69D PUSH2 0x9BC JUMP JUMPDEST JUMPDEST PUSH2 0x6AA DUP6 DUP3 DUP7 ADD PUSH2 0x5F9 JUMP JUMPDEST SWAP2 POP POP SWAP3 POP SWAP3 SWAP1 POP JUMP JUMPDEST PUSH1 0x0 PUSH1 0x20 DUP3 DUP5 SUB SLT ISZERO PUSH2 0x6CA JUMPI PUSH2 0x6C9 PUSH2 0x9C1 JUMP JUMPDEST JUMPDEST PUSH1 0x0 PUSH2 0x6D8 DUP5 DUP3 DUP6 ADD PUSH2 0x627 JUMP JUMPDEST SWAP2 POP POP SWAP3 SWAP2 POP POP JUMP JUMPDEST PUSH1 0x0 DUP1 PUSH1 0x40 DUP4 DUP6 SUB SLT ISZERO PUSH2 0x6F8 JUMPI PUSH2 0x6F7 PUSH2 0x9C1 JUMP JUMPDEST JUMPDEST PUSH1 0x0 PUSH2 0x706 DUP6 DUP3 DUP7 ADD PUSH2 0x627 JUMP JUMPDEST SWAP3 POP POP PUSH1 0x20 DUP4 ADD CALLDATALOAD PUSH8 0xFFFFFFFFFFFFFFFF DUP2 GT ISZERO PUSH2 0x727 JUMPI PUSH2 0x726 PUSH2 0x9BC JUMP JUMPDEST JUMPDEST PUSH2 0x733 DUP6 DUP3 DUP7 ADD PUSH2 0x5F9 JUMP JUMPDEST SWAP2 POP POP SWAP3 POP SWAP3 SWAP1 POP JUMP JUMPDEST PUSH1 0x0 DUP1 PUSH1 0x0 PUSH1 0x60 DUP5 DUP7 SUB SLT ISZERO PUSH2 0x756 JUMPI PUSH2 0x755 PUSH2 0x9C1 JUMP JUMPDEST JUMPDEST PUSH1 0x0 PUSH2 0x764 DUP7 DUP3 DUP8 ADD PUSH2 0x627 JUMP JUMPDEST SWAP4 POP POP PUSH1 0x20 PUSH2 0x775 DUP7 DUP3 DUP8 ADD PUSH2 0x627 JUMP JUMPDEST SWAP3 POP POP PUSH1 0x40 DUP5 ADD CALLDATALOAD PUSH8 0xFFFFFFFFFFFFFFFF DUP2 GT ISZERO PUSH2 0x796 JUMPI PUSH2 0x795 PUSH2 0x9BC JUMP JUMPDEST JUMPDEST PUSH2 0x7A2 DUP7 DUP3 DUP8 ADD PUSH2 0x5F9 JUMP JUMPDEST SWAP2 POP POP SWAP3 POP SWAP3 POP SWAP3 JUMP JUMPDEST PUSH2 0x7B5 DUP2 PUSH2 0x860 JUMP JUMPDEST DUP3 MSTORE POP POP JUMP JUMPDEST PUSH1 0x0 PUSH1 0x20 DUP3 ADD SWAP1 POP PUSH2 0x7D0 PUSH1 0x0 DUP4 ADD DUP5 PUSH2 0x7AC JUMP JUMPDEST SWAP3 SWAP2 POP POP JUMP JUMPDEST PUSH1 0x0 PUSH2 0x7E0 PUSH2 0x7F1 JUMP JUMPDEST SWAP1 POP PUSH2 0x7EC DUP3 DUP3 PUSH2 0x8AB JUMP JUMPDEST SWAP2 SWAP1 POP JUMP JUMPDEST PUSH1 0x0 PUSH1 0x40 MLOAD SWAP1 POP SWAP1 JUMP JUMPDEST PUSH1 0x0 PUSH8 0xFFFFFFFFFFFFFFFF DUP3 GT ISZERO PUSH2 0x816 JUMPI PUSH2 0x815 PUSH2 0x983 JUMP JUMPDEST JUMPDEST PUSH2 0x81F DUP3 PUSH2 0x9C6 JUMP JUMPDEST SWAP1 POP PUSH1 0x20 DUP2 ADD SWAP1 POP SWAP2 SWAP1 POP JUMP JUMPDEST PUSH1 0x0 PUSH2 0x837 DUP3 PUSH2 0x860 JUMP JUMPDEST SWAP2 POP PUSH2 0x842 DUP4 PUSH2 0x860 JUMP JUMPDEST SWAP3 POP DUP3 DUP3 LT ISZERO PUSH2 0x855 JUMPI PUSH2 0x854 PUSH2 0x925 JUMP JUMPDEST JUMPDEST DUP3 DUP3 SUB SWAP1 POP SWAP3 SWAP2 POP POP JUMP JUMPDEST PUSH1 0x0 DUP2 SWAP1 POP SWAP2 SWAP1 POP JUMP JUMPDEST DUP3 DUP2 DUP4 CALLDATACOPY PUSH1 0x0 DUP4 DUP4 ADD MSTORE POP POP POP JUMP JUMPDEST PUSH1 0x0 PUSH1 0x2 DUP3 DIV SWAP1 POP PUSH1 0x1 DUP3 AND DUP1 PUSH2 0x891 JUMPI PUSH1 0x7F DUP3 AND SWAP2 POP JUMPDEST PUSH1 0x20 DUP3 LT DUP2 EQ ISZERO PUSH2 0x8A5 JUMPI PUSH2 0x8A4 PUSH2 0x954 JUMP JUMPDEST JUMPDEST POP SWAP2 SWAP1 POP JUMP JUMPDEST PUSH2 0x8B4 DUP3 PUSH2 0x9C6 JUMP JUMPDEST DUP2 ADD DUP2 DUP2 LT PUSH8 0xFFFFFFFFFFFFFFFF DUP3 GT OR ISZERO PUSH2 0x8D3 JUMPI PUSH2 0x8D2 PUSH2 0x983 JUMP JUMPDEST JUMPDEST DUP1 PUSH1 0x40 MSTORE POP POP POP JUMP JUMPDEST PUSH1 0x0 PUSH2 0x8E7 DUP3 PUSH2 0x860 JUMP JUMPDEST SWAP2 POP PUSH32 0xFFFFFFFFFFFFFFFFFFFFFFFFFFFFFFFFFFFFFFFFFFFFFFFFFFFFFFFFFFFFFFFF DUP3 EQ ISZERO PUSH2 0x91A JUMPI PUSH2 0x919 PUSH2 0x925 JUMP JUMPDEST JUMPDEST PUSH1 0x1 DUP3 ADD SWAP1 POP SWAP2 SWAP1 POP JUMP JUMPDEST PUSH32 0x4E487B7100000000000000000000000000000000000000000000000000000000 PUSH1 0x0 MSTORE PUSH1 0x11 PUSH1 0x4 MSTORE PUSH1 0x24 PUSH1 0x0 REVERT JUMPDEST PUSH32 0x4E487B7100000000000000000000000000000000000000000000000000000000 PUSH1 0x0 MSTORE PUSH1 0x22 PUSH1 0x4 MSTORE PUSH1 0x24 PUSH1 0x0 REVERT JUMPDEST PUSH32 0x4E487B7100000000000000000000000000000000000000000000000000000000 PUSH1 0x0 MSTORE PUSH1 0x41 PUSH1 0x4 MSTORE PUSH1 0x24 PUSH1 0x0 REVERT JUMPDEST PUSH1 0x0 DUP1 REVERT JUMPDEST PUSH1 0x0 DUP1 REVERT JUMPDEST PUSH1 0x0 DUP1 REVERT JUMPDEST PUSH1 0x0 DUP1 REVERT JUMPDEST PUSH1 0x0 PUSH1 0x1F NOT PUSH1 0x1F DUP4 ADD AND SWAP1 POP SWAP2 SWAP1 POP JUMP JUMPDEST PUSH2 0x9E0 DUP2 PUSH2 0x860 JUMP JUMPDEST DUP2 EQ PUSH2 0x9EB JUMPI PUSH1 0x0 DUP1 REVERT JUMPDEST POP JUMP INVALID LOG2 PUSH5 0x6970667358 0x22 SLT KECCAK256 DIFFICULTY 0x26 0x4E PUSH5 0x47DA2DECF8 0xE3 LT MOD 0xB0 0xEB PC 0xE4 DUP7 0x4A SWAP6 BYTE 0x23 SWAP13 0xDD 0xD0 MSIZE STOP 0x2D 0xED 0x5C 0xC9 DIFFICULTY CODECOPY PUSH5 0x736F6C6343 STOP ADDMOD SMOD STOP CALLER "
				},
				"gasEstimates": {
					"creation": {
						"codeDepositCost": "519200",
						"executionCost": "5562",
						"totalCost": "524762"
					},
					"external": {
						"addOption(uint256,string)": "infinite",
						"createPool(string,string)": "infinite",
						"getNumOfVotes(uint256)": "406",
						"startPool(uint256)": "27073",
						"vote(uint256,uint256,string)": "infinite"
					}
				},
				"methodIdentifiers": {
					"addOption(uint256,string)": "ea57d5d4",
					"createPool(string,string)": "5ea81a32",
					"getNumOfVotes(uint256)": "8c8e54fb",
					"startPool(uint256)": "a901d15c",
					"vote(uint256,uint256,string)": "a1bbfc05"
				}
			},
			"userdoc": {
				"kind": "user",
				"methods": {},
				"version": 1
			}
		}
	}
}