{
	"contracts/eVoting_app.sol": {
		"EVoteApp": {
			"abi": [
				{
					"anonymous": false,
					"inputs": [
						{
							"indexed": true,
							"internalType": "uint256",
							"name": "poolIndex",
							"type": "uint256"
						}
					],
					"name": "CreatePool",
					"type": "event"
				},
				{
					"inputs": [
						{
							"internalType": "uint256",
							"name": "_poolIndex",
							"type": "uint256"
						},
						{
							"internalType": "string",
							"name": "_name",
							"type": "string"
						}
					],
					"name": "addOption",
					"outputs": [],
					"stateMutability": "nonpayable",
					"type": "function"
				},
				{
					"inputs": [
						{
							"internalType": "string",
							"name": "_poolName",
							"type": "string"
						},
						{
							"internalType": "string",
							"name": "_description",
							"type": "string"
						}
					],
					"name": "createPool",
					"outputs": [
						{
							"internalType": "uint256",
							"name": "",
							"type": "uint256"
						}
					],
					"stateMutability": "nonpayable",
					"type": "function"
				},
				{
					"inputs": [],
					"name": "getActivePools",
					"outputs": [
						{
							"components": [
								{
									"internalType": "string",
									"name": "name",
									"type": "string"
								},
								{
									"internalType": "string",
									"name": "description",
									"type": "string"
								},
								{
									"internalType": "uint256",
									"name": "totalVotes",
									"type": "uint256"
								},
								{
									"internalType": "uint256",
									"name": "numOfOptions",
									"type": "uint256"
								},
								{
									"internalType": "uint256",
									"name": "poolIndex",
									"type": "uint256"
								}
							],
							"internalType": "struct EVoteApp.ShowPool[]",
							"name": "",
							"type": "tuple[]"
						}
					],
					"stateMutability": "view",
					"type": "function"
				},
				{
					"inputs": [
						{
							"internalType": "uint256",
							"name": "_poolIndex",
							"type": "uint256"
						}
					],
					"name": "getNumOfOptions",
					"outputs": [
						{
							"internalType": "uint256",
							"name": "",
							"type": "uint256"
						}
					],
					"stateMutability": "view",
					"type": "function"
				},
				{
					"inputs": [
						{
							"internalType": "uint256",
							"name": "_poolIndex",
							"type": "uint256"
						}
					],
					"name": "getNumOfVotes",
					"outputs": [
						{
							"internalType": "uint256",
							"name": "",
							"type": "uint256"
						}
					],
					"stateMutability": "view",
					"type": "function"
				},
				{
					"inputs": [
						{
							"internalType": "uint256",
							"name": "_poolIndex",
							"type": "uint256"
						}
					],
					"name": "getOptions",
					"outputs": [
						{
							"components": [
								{
									"internalType": "string",
									"name": "name",
									"type": "string"
								},
								{
									"internalType": "uint256",
									"name": "numOfVotes",
									"type": "uint256"
								}
							],
							"internalType": "struct EVoteApp.Option[]",
							"name": "",
							"type": "tuple[]"
						}
					],
					"stateMutability": "view",
					"type": "function"
				},
				{
					"inputs": [],
					"name": "numOfActivePools",
					"outputs": [
						{
							"internalType": "uint256",
							"name": "",
							"type": "uint256"
						}
					],
					"stateMutability": "view",
					"type": "function"
				},
				{
					"inputs": [],
					"name": "numOfPools",
					"outputs": [
						{
							"internalType": "uint256",
							"name": "",
							"type": "uint256"
						}
					],
					"stateMutability": "view",
					"type": "function"
				},
				{
					"inputs": [
						{
							"internalType": "uint256",
							"name": "",
							"type": "uint256"
						}
					],
					"name": "pools",
					"outputs": [
						{
							"internalType": "string",
							"name": "name",
							"type": "string"
						},
						{
							"internalType": "string",
							"name": "description",
							"type": "string"
						},
						{
							"internalType": "uint256",
							"name": "totalVotes",
							"type": "uint256"
						},
						{
							"internalType": "address",
							"name": "owner",
							"type": "address"
						},
						{
							"internalType": "uint256",
							"name": "numOfOptions",
							"type": "uint256"
						},
						{
							"internalType": "bool",
							"name": "isActive",
							"type": "bool"
						},
						{
							"internalType": "uint256",
							"name": "poolIndex",
							"type": "uint256"
						}
					],
					"stateMutability": "view",
					"type": "function"
				},
				{
					"inputs": [
						{
							"internalType": "uint256",
							"name": "_poolIndex",
							"type": "uint256"
						}
					],
					"name": "startPool",
					"outputs": [],
					"stateMutability": "nonpayable",
					"type": "function"
				},
				{
					"inputs": [
						{
							"internalType": "uint256",
							"name": "_poolIndex",
							"type": "uint256"
						},
						{
							"internalType": "uint256",
							"name": "selectedOption",
							"type": "uint256"
						},
						{
							"internalType": "string",
							"name": "_username",
							"type": "string"
						}
					],
					"name": "vote",
					"outputs": [],
					"stateMutability": "nonpayable",
					"type": "function"
				}
			],
			"devdoc": {
				"kind": "dev",
				"methods": {},
				"version": 1
			},
			"evm": {
				"assembly": "    /* \"contracts/eVoting_app.sol\":71:3681  contract EVoteApp{... */\n  mstore(0x40, 0x80)\n    /* \"contracts/eVoting_app.sol\":876:877  0 */\n  0x00\n    /* \"contracts/eVoting_app.sol\":848:877  uint256 public numOfPools = 0 */\n  0x01\n  sstore\n    /* \"contracts/eVoting_app.sol\":917:918  0 */\n  0x00\n    /* \"contracts/eVoting_app.sol\":883:918  uint256 public numOfActivePools = 0 */\n  0x02\n  sstore\n    /* \"contracts/eVoting_app.sol\":71:3681  contract EVoteApp{... */\n  callvalue\n  dup1\n  iszero\n  tag_1\n  jumpi\n  0x00\n  dup1\n  revert\ntag_1:\n  pop\n  dataSize(sub_0)\n  dup1\n  dataOffset(sub_0)\n  0x00\n  codecopy\n  0x00\n  return\nstop\n\nsub_0: assembly {\n        /* \"contracts/eVoting_app.sol\":71:3681  contract EVoteApp{... */\n      mstore(0x40, 0x80)\n      callvalue\n      dup1\n      iszero\n      tag_1\n      jumpi\n      0x00\n      dup1\n      revert\n    tag_1:\n      pop\n      jumpi(tag_2, lt(calldatasize, 0x04))\n      shr(0xe0, calldataload(0x00))\n      dup1\n      0x8ec08354\n      gt\n      tag_14\n      jumpi\n      dup1\n      0x8ec08354\n      eq\n      tag_8\n      jumpi\n      dup1\n      0xa1bbfc05\n      eq\n      tag_9\n      jumpi\n      dup1\n      0xa901d15c\n      eq\n      tag_10\n      jumpi\n      dup1\n      0xac4afa38\n      eq\n      tag_11\n      jumpi\n      dup1\n      0xea57d5d4\n      eq\n      tag_12\n      jumpi\n      dup1\n      0xfcbd2a88\n      eq\n      tag_13\n      jumpi\n      jump(tag_2)\n    tag_14:\n      dup1\n      0x186dd066\n      eq\n      tag_3\n      jumpi\n      dup1\n      0x5ea81a32\n      eq\n      tag_4\n      jumpi\n      dup1\n      0x7e1d9ba5\n      eq\n      tag_5\n      jumpi\n      dup1\n      0x8915b3fb\n      eq\n      tag_6\n      jumpi\n      dup1\n      0x8c8e54fb\n      eq\n      tag_7\n      jumpi\n    tag_2:\n      0x00\n      dup1\n      revert\n        /* \"contracts/eVoting_app.sol\":2640:2767  function getNumOfOptions(uint256 _poolIndex) public view returns(uint256){... */\n    tag_3:\n      tag_15\n      0x04\n      dup1\n      calldatasize\n      sub\n      dup2\n      add\n      swap1\n      tag_16\n      swap2\n      swap1\n      tag_17\n      jump\t// in\n    tag_16:\n      tag_18\n      jump\t// in\n    tag_15:\n      mload(0x40)\n      tag_19\n      swap2\n      swap1\n      tag_20\n      jump\t// in\n    tag_19:\n      mload(0x40)\n      dup1\n      swap2\n      sub\n      swap1\n      return\n        /* \"contracts/eVoting_app.sol\":1167:1598  function createPool(string memory _poolName, string memory _description) public returns(uint256){... */\n    tag_4:\n      tag_21\n      0x04\n      dup1\n      calldatasize\n      sub\n      dup2\n      add\n      swap1\n      tag_22\n      swap2\n      swap1\n      tag_23\n      jump\t// in\n    tag_22:\n      tag_24\n      jump\t// in\n    tag_21:\n      mload(0x40)\n      tag_25\n      swap2\n      swap1\n      tag_20\n      jump\t// in\n    tag_25:\n      mload(0x40)\n      dup1\n      swap2\n      sub\n      swap1\n      return\n        /* \"contracts/eVoting_app.sol\":883:918  uint256 public numOfActivePools = 0 */\n    tag_5:\n      tag_26\n      tag_27\n      jump\t// in\n    tag_26:\n      mload(0x40)\n      tag_28\n      swap2\n      swap1\n      tag_20\n      jump\t// in\n    tag_28:\n      mload(0x40)\n      dup1\n      swap2\n      sub\n      swap1\n      return\n        /* \"contracts/eVoting_app.sol\":2773:3098  function getOptions(uint256 _poolIndex) public view returns(Option[] memory){... */\n    tag_6:\n      tag_29\n      0x04\n      dup1\n      calldatasize\n      sub\n      dup2\n      add\n      swap1\n      tag_30\n      swap2\n      swap1\n      tag_17\n      jump\t// in\n    tag_30:\n      tag_31\n      jump\t// in\n    tag_29:\n      mload(0x40)\n      tag_32\n      swap2\n      swap1\n      tag_33\n      jump\t// in\n    tag_32:\n      mload(0x40)\n      dup1\n      swap2\n      sub\n      swap1\n      return\n        /* \"contracts/eVoting_app.sol\":2511:2634  function getNumOfVotes(uint256 _poolIndex) public view returns(uint256){... */\n    tag_7:\n      tag_34\n      0x04\n      dup1\n      calldatasize\n      sub\n      dup2\n      add\n      swap1\n      tag_35\n      swap2\n      swap1\n      tag_17\n      jump\t// in\n    tag_35:\n      tag_36\n      jump\t// in\n    tag_34:\n      mload(0x40)\n      tag_37\n      swap2\n      swap1\n      tag_20\n      jump\t// in\n    tag_37:\n      mload(0x40)\n      dup1\n      swap2\n      sub\n      swap1\n      return\n        /* \"contracts/eVoting_app.sol\":3104:3674  function getActivePools() public view returns(ShowPool[] memory){... */\n    tag_8:\n      tag_38\n      tag_39\n      jump\t// in\n    tag_38:\n      mload(0x40)\n      tag_40\n      swap2\n      swap1\n      tag_41\n      jump\t// in\n    tag_40:\n      mload(0x40)\n      dup1\n      swap2\n      sub\n      swap1\n      return\n        /* \"contracts/eVoting_app.sol\":2006:2505  function vote(uint256 _poolIndex, uint256 selectedOption, string memory _username) canVote(_poolIndex) public{... */\n    tag_9:\n      tag_42\n      0x04\n      dup1\n      calldatasize\n      sub\n      dup2\n      add\n      swap1\n      tag_43\n      swap2\n      swap1\n      tag_44\n      jump\t// in\n    tag_43:\n      tag_45\n      jump\t// in\n    tag_42:\n      stop\n        /* \"contracts/eVoting_app.sol\":1818:2000  function startPool(uint256 _poolIndex) onlyOwner(_poolIndex) public{... */\n    tag_10:\n      tag_46\n      0x04\n      dup1\n      calldatasize\n      sub\n      dup2\n      add\n      swap1\n      tag_47\n      swap2\n      swap1\n      tag_17\n      jump\t// in\n    tag_47:\n      tag_48\n      jump\t// in\n    tag_46:\n      stop\n        /* \"contracts/eVoting_app.sol\":805:842  mapping(uint256 => Pool) public pools */\n    tag_11:\n      tag_49\n      0x04\n      dup1\n      calldatasize\n      sub\n      dup2\n      add\n      swap1\n      tag_50\n      swap2\n      swap1\n      tag_17\n      jump\t// in\n    tag_50:\n      tag_51\n      jump\t// in\n    tag_49:\n      mload(0x40)\n      tag_52\n      swap8\n      swap7\n      swap6\n      swap5\n      swap4\n      swap3\n      swap2\n      swap1\n      tag_53\n      jump\t// in\n    tag_52:\n      mload(0x40)\n      dup1\n      swap2\n      sub\n      swap1\n      return\n        /* \"contracts/eVoting_app.sol\":1604:1812  function addOption(uint256 _poolIndex, string memory _name) onlyOwner(_poolIndex) public{... */\n    tag_12:\n      tag_54\n      0x04\n      dup1\n      calldatasize\n      sub\n      dup2\n      add\n      swap1\n      tag_55\n      swap2\n      swap1\n      tag_56\n      jump\t// in\n    tag_55:\n      tag_57\n      jump\t// in\n    tag_54:\n      stop\n        /* \"contracts/eVoting_app.sol\":848:877  uint256 public numOfPools = 0 */\n    tag_13:\n      tag_58\n      tag_59\n      jump\t// in\n    tag_58:\n      mload(0x40)\n      tag_60\n      swap2\n      swap1\n      tag_20\n      jump\t// in\n    tag_60:\n      mload(0x40)\n      dup1\n      swap2\n      sub\n      swap1\n      return\n        /* \"contracts/eVoting_app.sol\":2640:2767  function getNumOfOptions(uint256 _poolIndex) public view returns(uint256){... */\n    tag_18:\n        /* \"contracts/eVoting_app.sol\":2705:2712  uint256 */\n      0x00\n        /* \"contracts/eVoting_app.sol\":2730:2735  pools */\n      dup1\n        /* \"contracts/eVoting_app.sol\":2730:2747  pools[_poolIndex] */\n      0x00\n        /* \"contracts/eVoting_app.sol\":2736:2746  _poolIndex */\n      dup4\n        /* \"contracts/eVoting_app.sol\":2730:2747  pools[_poolIndex] */\n      dup2\n      mstore\n      0x20\n      add\n      swap1\n      dup2\n      mstore\n      0x20\n      add\n      0x00\n      keccak256\n        /* \"contracts/eVoting_app.sol\":2730:2760  pools[_poolIndex].numOfOptions */\n      0x06\n      add\n      sload\n        /* \"contracts/eVoting_app.sol\":2723:2760  return pools[_poolIndex].numOfOptions */\n      swap1\n      pop\n        /* \"contracts/eVoting_app.sol\":2640:2767  function getNumOfOptions(uint256 _poolIndex) public view returns(uint256){... */\n      swap2\n      swap1\n      pop\n      jump\t// out\n        /* \"contracts/eVoting_app.sol\":1167:1598  function createPool(string memory _poolName, string memory _description) public returns(uint256){... */\n    tag_24:\n        /* \"contracts/eVoting_app.sol\":1255:1262  uint256 */\n      0x00\n        /* \"contracts/eVoting_app.sol\":1274:1292  Pool storage _pool */\n      dup1\n        /* \"contracts/eVoting_app.sol\":1295:1300  pools */\n      0x00\n        /* \"contracts/eVoting_app.sol\":1295:1314  pools[numOfPools++] */\n      dup1\n        /* \"contracts/eVoting_app.sol\":1301:1311  numOfPools */\n      0x01\n      0x00\n        /* \"contracts/eVoting_app.sol\":1301:1313  numOfPools++ */\n      dup2\n      sload\n      dup1\n      swap3\n      swap2\n      swap1\n      tag_63\n      swap1\n      tag_64\n      jump\t// in\n    tag_63:\n      swap2\n      swap1\n      pop\n      sstore\n        /* \"contracts/eVoting_app.sol\":1295:1314  pools[numOfPools++] */\n      dup2\n      mstore\n      0x20\n      add\n      swap1\n      dup2\n      mstore\n      0x20\n      add\n      0x00\n      keccak256\n        /* \"contracts/eVoting_app.sol\":1274:1314  Pool storage _pool = pools[numOfPools++] */\n      swap1\n      pop\n        /* \"contracts/eVoting_app.sol\":1338:1347  _poolName */\n      dup4\n        /* \"contracts/eVoting_app.sol\":1325:1330  _pool */\n      dup2\n        /* \"contracts/eVoting_app.sol\":1325:1335  _pool.name */\n      0x00\n      add\n        /* \"contracts/eVoting_app.sol\":1325:1347  _pool.name = _poolName */\n      swap1\n      dup1\n      mload\n      swap1\n      0x20\n      add\n      swap1\n      tag_65\n      swap3\n      swap2\n      swap1\n      tag_66\n      jump\t// in\n    tag_65:\n      pop\n        /* \"contracts/eVoting_app.sol\":1377:1389  _description */\n      dup3\n        /* \"contracts/eVoting_app.sol\":1357:1362  _pool */\n      dup2\n        /* \"contracts/eVoting_app.sol\":1357:1374  _pool.description */\n      0x01\n      add\n        /* \"contracts/eVoting_app.sol\":1357:1389  _pool.description = _description */\n      swap1\n      dup1\n      mload\n      swap1\n      0x20\n      add\n      swap1\n      tag_67\n      swap3\n      swap2\n      swap1\n      tag_66\n      jump\t// in\n    tag_67:\n      pop\n        /* \"contracts/eVoting_app.sol\":1418:1419  0 */\n      0x00\n        /* \"contracts/eVoting_app.sol\":1399:1404  _pool */\n      dup2\n        /* \"contracts/eVoting_app.sol\":1399:1415  _pool.totalVotes */\n      0x02\n      add\n        /* \"contracts/eVoting_app.sol\":1399:1419  _pool.totalVotes = 0 */\n      dup2\n      swap1\n      sstore\n      pop\n        /* \"contracts/eVoting_app.sol\":1443:1453  msg.sender */\n      caller\n        /* \"contracts/eVoting_app.sol\":1429:1434  _pool */\n      dup2\n        /* \"contracts/eVoting_app.sol\":1429:1440  _pool.owner */\n      0x03\n      add\n      0x00\n        /* \"contracts/eVoting_app.sol\":1429:1453  _pool.owner = msg.sender */\n      0x0100\n      exp\n      dup2\n      sload\n      dup2\n      0xffffffffffffffffffffffffffffffffffffffff\n      mul\n      not\n      and\n      swap1\n      dup4\n      0xffffffffffffffffffffffffffffffffffffffff\n      and\n      mul\n      or\n      swap1\n      sstore\n      pop\n        /* \"contracts/eVoting_app.sol\":1484:1485  0 */\n      0x00\n        /* \"contracts/eVoting_app.sol\":1463:1468  _pool */\n      dup2\n        /* \"contracts/eVoting_app.sol\":1463:1481  _pool.numOfOptions */\n      0x06\n      add\n        /* \"contracts/eVoting_app.sol\":1463:1485  _pool.numOfOptions = 0 */\n      dup2\n      swap1\n      sstore\n      pop\n        /* \"contracts/eVoting_app.sol\":1512:1517  false */\n      0x00\n        /* \"contracts/eVoting_app.sol\":1495:1500  _pool */\n      dup2\n        /* \"contracts/eVoting_app.sol\":1495:1509  _pool.isActive */\n      0x07\n      add\n      0x00\n        /* \"contracts/eVoting_app.sol\":1495:1517  _pool.isActive = false */\n      0x0100\n      exp\n      dup2\n      sload\n      dup2\n      0xff\n      mul\n      not\n      and\n      swap1\n      dup4\n      iszero\n      iszero\n      mul\n      or\n      swap1\n      sstore\n      pop\n        /* \"contracts/eVoting_app.sol\":1558:1559  1 */\n      0x01\n        /* \"contracts/eVoting_app.sol\":1545:1555  numOfPools */\n      dup1\n      sload\n        /* \"contracts/eVoting_app.sol\":1545:1559  numOfPools - 1 */\n      tag_68\n      swap2\n      swap1\n      tag_69\n      jump\t// in\n    tag_68:\n        /* \"contracts/eVoting_app.sol\":1527:1532  _pool */\n      dup2\n        /* \"contracts/eVoting_app.sol\":1527:1542  _pool.poolIndex */\n      0x08\n      add\n        /* \"contracts/eVoting_app.sol\":1527:1559  _pool.poolIndex = numOfPools - 1 */\n      dup2\n      swap1\n      sstore\n      pop\n        /* \"contracts/eVoting_app.sol\":1590:1591  1 */\n      0x01\n        /* \"contracts/eVoting_app.sol\":1577:1587  numOfPools */\n      dup1\n      sload\n        /* \"contracts/eVoting_app.sol\":1577:1591  numOfPools - 1 */\n      tag_70\n      swap2\n      swap1\n      tag_69\n      jump\t// in\n    tag_70:\n        /* \"contracts/eVoting_app.sol\":1570:1591  return numOfPools - 1 */\n      swap2\n      pop\n      pop\n        /* \"contracts/eVoting_app.sol\":1167:1598  function createPool(string memory _poolName, string memory _description) public returns(uint256){... */\n      swap3\n      swap2\n      pop\n      pop\n      jump\t// out\n        /* \"contracts/eVoting_app.sol\":883:918  uint256 public numOfActivePools = 0 */\n    tag_27:\n      sload(0x02)\n      dup2\n      jump\t// out\n        /* \"contracts/eVoting_app.sol\":2773:3098  function getOptions(uint256 _poolIndex) public view returns(Option[] memory){... */\n    tag_31:\n        /* \"contracts/eVoting_app.sol\":2833:2848  Option[] memory */\n      0x60\n        /* \"contracts/eVoting_app.sol\":2860:2884  Option[] memory _options */\n      0x00\n        /* \"contracts/eVoting_app.sol\":2900:2905  pools */\n      dup1\n        /* \"contracts/eVoting_app.sol\":2900:2917  pools[_poolIndex] */\n      0x00\n        /* \"contracts/eVoting_app.sol\":2906:2916  _poolIndex */\n      dup5\n        /* \"contracts/eVoting_app.sol\":2900:2917  pools[_poolIndex] */\n      dup2\n      mstore\n      0x20\n      add\n      swap1\n      dup2\n      mstore\n      0x20\n      add\n      0x00\n      keccak256\n        /* \"contracts/eVoting_app.sol\":2900:2930  pools[_poolIndex].numOfOptions */\n      0x06\n      add\n      sload\n        /* \"contracts/eVoting_app.sol\":2887:2931  new Option[](pools[_poolIndex].numOfOptions) */\n      0xffffffffffffffff\n      dup2\n      gt\n      iszero\n      tag_72\n      jumpi\n      tag_73\n      tag_74\n      jump\t// in\n    tag_73:\n    tag_72:\n      mload(0x40)\n      swap1\n      dup1\n      dup3\n      mstore\n      dup1\n      0x20\n      mul\n      0x20\n      add\n      dup3\n      add\n      0x40\n      mstore\n      dup1\n      iszero\n      tag_75\n      jumpi\n      dup2\n      0x20\n      add\n    tag_76:\n      tag_77\n      tag_78\n      jump\t// in\n    tag_77:\n      dup2\n      mstore\n      0x20\n      add\n      swap1\n      0x01\n      swap1\n      sub\n      swap1\n      dup2\n      tag_76\n      jumpi\n      swap1\n      pop\n    tag_75:\n      pop\n        /* \"contracts/eVoting_app.sol\":2860:2931  Option[] memory _options = new Option[](pools[_poolIndex].numOfOptions) */\n      swap1\n      pop\n        /* \"contracts/eVoting_app.sol\":2947:2953  uint i */\n      0x00\n        /* \"contracts/eVoting_app.sol\":2942:3067  for (uint i = 0; i < pools[_poolIndex].numOfOptions; i++) {... */\n    tag_79:\n        /* \"contracts/eVoting_app.sol\":2963:2968  pools */\n      0x00\n        /* \"contracts/eVoting_app.sol\":2963:2980  pools[_poolIndex] */\n      dup1\n        /* \"contracts/eVoting_app.sol\":2969:2979  _poolIndex */\n      dup6\n        /* \"contracts/eVoting_app.sol\":2963:2980  pools[_poolIndex] */\n      dup2\n      mstore\n      0x20\n      add\n      swap1\n      dup2\n      mstore\n      0x20\n      add\n      0x00\n      keccak256\n        /* \"contracts/eVoting_app.sol\":2963:2993  pools[_poolIndex].numOfOptions */\n      0x06\n      add\n      sload\n        /* \"contracts/eVoting_app.sol\":2959:2960  i */\n      dup2\n        /* \"contracts/eVoting_app.sol\":2959:2993  i < pools[_poolIndex].numOfOptions */\n      lt\n        /* \"contracts/eVoting_app.sol\":2942:3067  for (uint i = 0; i < pools[_poolIndex].numOfOptions; i++) {... */\n      iszero\n      tag_80\n      jumpi\n        /* \"contracts/eVoting_app.sol\":3028:3033  pools */\n      0x00\n        /* \"contracts/eVoting_app.sol\":3028:3045  pools[_poolIndex] */\n      dup1\n        /* \"contracts/eVoting_app.sol\":3034:3044  _poolIndex */\n      dup6\n        /* \"contracts/eVoting_app.sol\":3028:3045  pools[_poolIndex] */\n      dup2\n      mstore\n      0x20\n      add\n      swap1\n      dup2\n      mstore\n      0x20\n      add\n      0x00\n      keccak256\n        /* \"contracts/eVoting_app.sol\":3028:3053  pools[_poolIndex].options */\n      0x05\n      add\n        /* \"contracts/eVoting_app.sol\":3028:3056  pools[_poolIndex].options[i] */\n      0x00\n        /* \"contracts/eVoting_app.sol\":3054:3055  i */\n      dup3\n        /* \"contracts/eVoting_app.sol\":3028:3056  pools[_poolIndex].options[i] */\n      dup2\n      mstore\n      0x20\n      add\n      swap1\n      dup2\n      mstore\n      0x20\n      add\n      0x00\n      keccak256\n        /* \"contracts/eVoting_app.sol\":3014:3056  _options[i] = pools[_poolIndex].options[i] */\n      mload(0x40)\n      dup1\n      0x40\n      add\n      0x40\n      mstore\n      swap1\n      dup2\n      0x00\n      dup3\n      add\n      dup1\n      sload\n      tag_82\n      swap1\n      tag_83\n      jump\t// in\n    tag_82:\n      dup1\n      0x1f\n      add\n      0x20\n      dup1\n      swap2\n      div\n      mul\n      0x20\n      add\n      mload(0x40)\n      swap1\n      dup2\n      add\n      0x40\n      mstore\n      dup1\n      swap3\n      swap2\n      swap1\n      dup2\n      dup2\n      mstore\n      0x20\n      add\n      dup3\n      dup1\n      sload\n      tag_84\n      swap1\n      tag_83\n      jump\t// in\n    tag_84:\n      dup1\n      iszero\n      tag_85\n      jumpi\n      dup1\n      0x1f\n      lt\n      tag_86\n      jumpi\n      0x0100\n      dup1\n      dup4\n      sload\n      div\n      mul\n      dup4\n      mstore\n      swap2\n      0x20\n      add\n      swap2\n      jump(tag_85)\n    tag_86:\n      dup3\n      add\n      swap2\n      swap1\n      0x00\n      mstore\n      keccak256(0x00, 0x20)\n      swap1\n    tag_87:\n      dup2\n      sload\n      dup2\n      mstore\n      swap1\n      0x01\n      add\n      swap1\n      0x20\n      add\n      dup1\n      dup4\n      gt\n      tag_87\n      jumpi\n      dup3\n      swap1\n      sub\n      0x1f\n      and\n      dup3\n      add\n      swap2\n    tag_85:\n      pop\n      pop\n      pop\n      pop\n      pop\n      dup2\n      mstore\n      0x20\n      add\n      0x01\n      dup3\n      add\n      sload\n      dup2\n      mstore\n      pop\n      pop\n        /* \"contracts/eVoting_app.sol\":3014:3022  _options */\n      dup3\n        /* \"contracts/eVoting_app.sol\":3023:3024  i */\n      dup3\n        /* \"contracts/eVoting_app.sol\":3014:3025  _options[i] */\n      dup2\n      mload\n      dup2\n      lt\n      tag_88\n      jumpi\n      tag_89\n      tag_90\n      jump\t// in\n    tag_89:\n    tag_88:\n      0x20\n      mul\n      0x20\n      add\n      add\n        /* \"contracts/eVoting_app.sol\":3014:3056  _options[i] = pools[_poolIndex].options[i] */\n      dup2\n      swap1\n      mstore\n      pop\n        /* \"contracts/eVoting_app.sol\":2995:2998  i++ */\n      dup1\n      dup1\n      tag_91\n      swap1\n      tag_64\n      jump\t// in\n    tag_91:\n      swap2\n      pop\n      pop\n        /* \"contracts/eVoting_app.sol\":2942:3067  for (uint i = 0; i < pools[_poolIndex].numOfOptions; i++) {... */\n      jump(tag_79)\n    tag_80:\n      pop\n        /* \"contracts/eVoting_app.sol\":3083:3091  _options */\n      dup1\n        /* \"contracts/eVoting_app.sol\":3076:3091  return _options */\n      swap2\n      pop\n      pop\n        /* \"contracts/eVoting_app.sol\":2773:3098  function getOptions(uint256 _poolIndex) public view returns(Option[] memory){... */\n      swap2\n      swap1\n      pop\n      jump\t// out\n        /* \"contracts/eVoting_app.sol\":2511:2634  function getNumOfVotes(uint256 _poolIndex) public view returns(uint256){... */\n    tag_36:\n        /* \"contracts/eVoting_app.sol\":2574:2581  uint256 */\n      0x00\n        /* \"contracts/eVoting_app.sol\":2599:2604  pools */\n      dup1\n        /* \"contracts/eVoting_app.sol\":2599:2616  pools[_poolIndex] */\n      0x00\n        /* \"contracts/eVoting_app.sol\":2605:2615  _poolIndex */\n      dup4\n        /* \"contracts/eVoting_app.sol\":2599:2616  pools[_poolIndex] */\n      dup2\n      mstore\n      0x20\n      add\n      swap1\n      dup2\n      mstore\n      0x20\n      add\n      0x00\n      keccak256\n        /* \"contracts/eVoting_app.sol\":2599:2627  pools[_poolIndex].totalVotes */\n      0x02\n      add\n      sload\n        /* \"contracts/eVoting_app.sol\":2592:2627  return pools[_poolIndex].totalVotes */\n      swap1\n      pop\n        /* \"contracts/eVoting_app.sol\":2511:2634  function getNumOfVotes(uint256 _poolIndex) public view returns(uint256){... */\n      swap2\n      swap1\n      pop\n      jump\t// out\n        /* \"contracts/eVoting_app.sol\":3104:3674  function getActivePools() public view returns(ShowPool[] memory){... */\n    tag_39:\n        /* \"contracts/eVoting_app.sol\":3150:3167  ShowPool[] memory */\n      0x60\n        /* \"contracts/eVoting_app.sol\":3179:3207  ShowPool[] memory _showPools */\n      0x00\n        /* \"contracts/eVoting_app.sol\":3225:3241  numOfActivePools */\n      sload(0x02)\n        /* \"contracts/eVoting_app.sol\":3210:3242  new ShowPool[](numOfActivePools) */\n      0xffffffffffffffff\n      dup2\n      gt\n      iszero\n      tag_94\n      jumpi\n      tag_95\n      tag_74\n      jump\t// in\n    tag_95:\n    tag_94:\n      mload(0x40)\n      swap1\n      dup1\n      dup3\n      mstore\n      dup1\n      0x20\n      mul\n      0x20\n      add\n      dup3\n      add\n      0x40\n      mstore\n      dup1\n      iszero\n      tag_96\n      jumpi\n      dup2\n      0x20\n      add\n    tag_97:\n      tag_98\n      tag_99\n      jump\t// in\n    tag_98:\n      dup2\n      mstore\n      0x20\n      add\n      swap1\n      0x01\n      swap1\n      sub\n      swap1\n      dup2\n      tag_97\n      jumpi\n      swap1\n      pop\n    tag_96:\n      pop\n        /* \"contracts/eVoting_app.sol\":3179:3242  ShowPool[] memory _showPools = new ShowPool[](numOfActivePools) */\n      swap1\n      pop\n        /* \"contracts/eVoting_app.sol\":3252:3261  uint256 j */\n      0x00\n        /* \"contracts/eVoting_app.sol\":3281:3287  uint i */\n      dup1\n        /* \"contracts/eVoting_app.sol\":3276:3641  for (uint i = 0; i < numOfPools; i++) {... */\n    tag_100:\n        /* \"contracts/eVoting_app.sol\":3297:3307  numOfPools */\n      sload(0x01)\n        /* \"contracts/eVoting_app.sol\":3293:3294  i */\n      dup2\n        /* \"contracts/eVoting_app.sol\":3293:3307  i < numOfPools */\n      lt\n        /* \"contracts/eVoting_app.sol\":3276:3641  for (uint i = 0; i < numOfPools; i++) {... */\n      iszero\n      tag_101\n      jumpi\n        /* \"contracts/eVoting_app.sol\":3331:3336  pools */\n      0x00\n        /* \"contracts/eVoting_app.sol\":3331:3339  pools[i] */\n      dup1\n        /* \"contracts/eVoting_app.sol\":3337:3338  i */\n      dup3\n        /* \"contracts/eVoting_app.sol\":3331:3339  pools[i] */\n      dup2\n      mstore\n      0x20\n      add\n      swap1\n      dup2\n      mstore\n      0x20\n      add\n      0x00\n      keccak256\n        /* \"contracts/eVoting_app.sol\":3331:3348  pools[i].isActive */\n      0x07\n      add\n      0x00\n      swap1\n      sload\n      swap1\n      0x0100\n      exp\n      swap1\n      div\n      0xff\n      and\n        /* \"contracts/eVoting_app.sol\":3328:3627  if(pools[i].isActive){... */\n      iszero\n      tag_103\n      jumpi\n        /* \"contracts/eVoting_app.sol\":3385:3612  ShowPool(... */\n      mload(0x40)\n      dup1\n      0xa0\n      add\n      0x40\n      mstore\n      dup1\n        /* \"contracts/eVoting_app.sol\":3415:3420  pools */\n      0x00\n        /* \"contracts/eVoting_app.sol\":3415:3423  pools[i] */\n      dup1\n        /* \"contracts/eVoting_app.sol\":3421:3422  i */\n      dup5\n        /* \"contracts/eVoting_app.sol\":3415:3423  pools[i] */\n      dup2\n      mstore\n      0x20\n      add\n      swap1\n      dup2\n      mstore\n      0x20\n      add\n      0x00\n      keccak256\n        /* \"contracts/eVoting_app.sol\":3415:3428  pools[i].name */\n      0x00\n      add\n        /* \"contracts/eVoting_app.sol\":3385:3612  ShowPool(... */\n      dup1\n      sload\n      tag_104\n      swap1\n      tag_83\n      jump\t// in\n    tag_104:\n      dup1\n      0x1f\n      add\n      0x20\n      dup1\n      swap2\n      div\n      mul\n      0x20\n      add\n      mload(0x40)\n      swap1\n      dup2\n      add\n      0x40\n      mstore\n      dup1\n      swap3\n      swap2\n      swap1\n      dup2\n      dup2\n      mstore\n      0x20\n      add\n      dup3\n      dup1\n      sload\n      tag_105\n      swap1\n      tag_83\n      jump\t// in\n    tag_105:\n      dup1\n      iszero\n      tag_106\n      jumpi\n      dup1\n      0x1f\n      lt\n      tag_107\n      jumpi\n      0x0100\n      dup1\n      dup4\n      sload\n      div\n      mul\n      dup4\n      mstore\n      swap2\n      0x20\n      add\n      swap2\n      jump(tag_106)\n    tag_107:\n      dup3\n      add\n      swap2\n      swap1\n      0x00\n      mstore\n      keccak256(0x00, 0x20)\n      swap1\n    tag_108:\n      dup2\n      sload\n      dup2\n      mstore\n      swap1\n      0x01\n      add\n      swap1\n      0x20\n      add\n      dup1\n      dup4\n      gt\n      tag_108\n      jumpi\n      dup3\n      swap1\n      sub\n      0x1f\n      and\n      dup3\n      add\n      swap2\n    tag_106:\n      pop\n      pop\n      pop\n      pop\n      pop\n      dup2\n      mstore\n      0x20\n      add\n        /* \"contracts/eVoting_app.sol\":3450:3455  pools */\n      0x00\n        /* \"contracts/eVoting_app.sol\":3450:3458  pools[i] */\n      dup1\n        /* \"contracts/eVoting_app.sol\":3456:3457  i */\n      dup5\n        /* \"contracts/eVoting_app.sol\":3450:3458  pools[i] */\n      dup2\n      mstore\n      0x20\n      add\n      swap1\n      dup2\n      mstore\n      0x20\n      add\n      0x00\n      keccak256\n        /* \"contracts/eVoting_app.sol\":3450:3470  pools[i].description */\n      0x01\n      add\n        /* \"contracts/eVoting_app.sol\":3385:3612  ShowPool(... */\n      dup1\n      sload\n      tag_109\n      swap1\n      tag_83\n      jump\t// in\n    tag_109:\n      dup1\n      0x1f\n      add\n      0x20\n      dup1\n      swap2\n      div\n      mul\n      0x20\n      add\n      mload(0x40)\n      swap1\n      dup2\n      add\n      0x40\n      mstore\n      dup1\n      swap3\n      swap2\n      swap1\n      dup2\n      dup2\n      mstore\n      0x20\n      add\n      dup3\n      dup1\n      sload\n      tag_110\n      swap1\n      tag_83\n      jump\t// in\n    tag_110:\n      dup1\n      iszero\n      tag_111\n      jumpi\n      dup1\n      0x1f\n      lt\n      tag_112\n      jumpi\n      0x0100\n      dup1\n      dup4\n      sload\n      div\n      mul\n      dup4\n      mstore\n      swap2\n      0x20\n      add\n      swap2\n      jump(tag_111)\n    tag_112:\n      dup3\n      add\n      swap2\n      swap1\n      0x00\n      mstore\n      keccak256(0x00, 0x20)\n      swap1\n    tag_113:\n      dup2\n      sload\n      dup2\n      mstore\n      swap1\n      0x01\n      add\n      swap1\n      0x20\n      add\n      dup1\n      dup4\n      gt\n      tag_113\n      jumpi\n      dup3\n      swap1\n      sub\n      0x1f\n      and\n      dup3\n      add\n      swap2\n    tag_111:\n      pop\n      pop\n      pop\n      pop\n      pop\n      dup2\n      mstore\n      0x20\n      add\n        /* \"contracts/eVoting_app.sol\":3492:3497  pools */\n      0x00\n        /* \"contracts/eVoting_app.sol\":3492:3500  pools[i] */\n      dup1\n        /* \"contracts/eVoting_app.sol\":3498:3499  i */\n      dup5\n        /* \"contracts/eVoting_app.sol\":3492:3500  pools[i] */\n      dup2\n      mstore\n      0x20\n      add\n      swap1\n      dup2\n      mstore\n      0x20\n      add\n      0x00\n      keccak256\n        /* \"contracts/eVoting_app.sol\":3492:3511  pools[i].totalVotes */\n      0x02\n      add\n      sload\n        /* \"contracts/eVoting_app.sol\":3385:3612  ShowPool(... */\n      dup2\n      mstore\n      0x20\n      add\n        /* \"contracts/eVoting_app.sol\":3533:3538  pools */\n      0x00\n        /* \"contracts/eVoting_app.sol\":3533:3541  pools[i] */\n      dup1\n        /* \"contracts/eVoting_app.sol\":3539:3540  i */\n      dup5\n        /* \"contracts/eVoting_app.sol\":3533:3541  pools[i] */\n      dup2\n      mstore\n      0x20\n      add\n      swap1\n      dup2\n      mstore\n      0x20\n      add\n      0x00\n      keccak256\n        /* \"contracts/eVoting_app.sol\":3533:3554  pools[i].numOfOptions */\n      0x06\n      add\n      sload\n        /* \"contracts/eVoting_app.sol\":3385:3612  ShowPool(... */\n      dup2\n      mstore\n      0x20\n      add\n        /* \"contracts/eVoting_app.sol\":3576:3581  pools */\n      0x00\n        /* \"contracts/eVoting_app.sol\":3576:3584  pools[i] */\n      dup1\n        /* \"contracts/eVoting_app.sol\":3582:3583  i */\n      dup5\n        /* \"contracts/eVoting_app.sol\":3576:3584  pools[i] */\n      dup2\n      mstore\n      0x20\n      add\n      swap1\n      dup2\n      mstore\n      0x20\n      add\n      0x00\n      keccak256\n        /* \"contracts/eVoting_app.sol\":3576:3594  pools[i].poolIndex */\n      0x08\n      add\n      sload\n        /* \"contracts/eVoting_app.sol\":3385:3612  ShowPool(... */\n      dup2\n      mstore\n      pop\n        /* \"contracts/eVoting_app.sol\":3367:3377  _showPools */\n      dup4\n        /* \"contracts/eVoting_app.sol\":3378:3381  j++ */\n      dup4\n      dup1\n      tag_114\n      swap1\n      tag_64\n      jump\t// in\n    tag_114:\n      swap5\n      pop\n        /* \"contracts/eVoting_app.sol\":3367:3382  _showPools[j++] */\n      dup2\n      mload\n      dup2\n      lt\n      tag_115\n      jumpi\n      tag_116\n      tag_90\n      jump\t// in\n    tag_116:\n    tag_115:\n      0x20\n      mul\n      0x20\n      add\n      add\n        /* \"contracts/eVoting_app.sol\":3367:3612  _showPools[j++] = ShowPool(... */\n      dup2\n      swap1\n      mstore\n      pop\n        /* \"contracts/eVoting_app.sol\":3328:3627  if(pools[i].isActive){... */\n    tag_103:\n        /* \"contracts/eVoting_app.sol\":3309:3312  i++ */\n      dup1\n      dup1\n      tag_117\n      swap1\n      tag_64\n      jump\t// in\n    tag_117:\n      swap2\n      pop\n      pop\n        /* \"contracts/eVoting_app.sol\":3276:3641  for (uint i = 0; i < numOfPools; i++) {... */\n      jump(tag_100)\n    tag_101:\n      pop\n        /* \"contracts/eVoting_app.sol\":3657:3667  _showPools */\n      dup2\n        /* \"contracts/eVoting_app.sol\":3650:3667  return _showPools */\n      swap3\n      pop\n      pop\n      pop\n        /* \"contracts/eVoting_app.sol\":3104:3674  function getActivePools() public view returns(ShowPool[] memory){... */\n      swap1\n      jump\t// out\n        /* \"contracts/eVoting_app.sol\":2006:2505  function vote(uint256 _poolIndex, uint256 selectedOption, string memory _username) canVote(_poolIndex) public{... */\n    tag_45:\n        /* \"contracts/eVoting_app.sol\":2097:2107  _poolIndex */\n      dup3\n        /* \"contracts/eVoting_app.sol\":1098:1103  pools */\n      0x00\n        /* \"contracts/eVoting_app.sol\":1098:1115  pools[_poolIndex] */\n      dup1\n        /* \"contracts/eVoting_app.sol\":1104:1114  _poolIndex */\n      dup3\n        /* \"contracts/eVoting_app.sol\":1098:1115  pools[_poolIndex] */\n      dup2\n      mstore\n      0x20\n      add\n      swap1\n      dup2\n      mstore\n      0x20\n      add\n      0x00\n      keccak256\n        /* \"contracts/eVoting_app.sol\":1098:1122  pools[_poolIndex].voters */\n      0x04\n      add\n        /* \"contracts/eVoting_app.sol\":1098:1134  pools[_poolIndex].voters[msg.sender] */\n      0x00\n        /* \"contracts/eVoting_app.sol\":1123:1133  msg.sender */\n      caller\n        /* \"contracts/eVoting_app.sol\":1098:1134  pools[_poolIndex].voters[msg.sender] */\n      0xffffffffffffffffffffffffffffffffffffffff\n      and\n      0xffffffffffffffffffffffffffffffffffffffff\n      and\n      dup2\n      mstore\n      0x20\n      add\n      swap1\n      dup2\n      mstore\n      0x20\n      add\n      0x00\n      keccak256\n        /* \"contracts/eVoting_app.sol\":1098:1142  pools[_poolIndex].voters[msg.sender].isVoted */\n      0x02\n      add\n      0x00\n      swap1\n      sload\n      swap1\n      0x0100\n      exp\n      swap1\n      div\n      0xff\n      and\n        /* \"contracts/eVoting_app.sol\":1097:1142  !pools[_poolIndex].voters[msg.sender].isVoted */\n      iszero\n        /* \"contracts/eVoting_app.sol\":1089:1143  require(!pools[_poolIndex].voters[msg.sender].isVoted) */\n      tag_119\n      jumpi\n      0x00\n      dup1\n      revert\n    tag_119:\n        /* \"contracts/eVoting_app.sol\":2125:2143  Pool storage _pool */\n      0x00\n        /* \"contracts/eVoting_app.sol\":2146:2151  pools */\n      dup1\n        /* \"contracts/eVoting_app.sol\":2146:2163  pools[_poolIndex] */\n      0x00\n        /* \"contracts/eVoting_app.sol\":2152:2162  _poolIndex */\n      dup7\n        /* \"contracts/eVoting_app.sol\":2146:2163  pools[_poolIndex] */\n      dup2\n      mstore\n      0x20\n      add\n      swap1\n      dup2\n      mstore\n      0x20\n      add\n      0x00\n      keccak256\n        /* \"contracts/eVoting_app.sol\":2125:2163  Pool storage _pool = pools[_poolIndex] */\n      swap1\n      pop\n        /* \"contracts/eVoting_app.sol\":2174:2194  Voter storage _voter */\n      0x00\n        /* \"contracts/eVoting_app.sol\":2197:2202  _pool */\n      dup2\n        /* \"contracts/eVoting_app.sol\":2197:2209  _pool.voters */\n      0x04\n      add\n        /* \"contracts/eVoting_app.sol\":2197:2221  _pool.voters[msg.sender] */\n      0x00\n        /* \"contracts/eVoting_app.sol\":2210:2220  msg.sender */\n      caller\n        /* \"contracts/eVoting_app.sol\":2197:2221  _pool.voters[msg.sender] */\n      0xffffffffffffffffffffffffffffffffffffffff\n      and\n      0xffffffffffffffffffffffffffffffffffffffff\n      and\n      dup2\n      mstore\n      0x20\n      add\n      swap1\n      dup2\n      mstore\n      0x20\n      add\n      0x00\n      keccak256\n        /* \"contracts/eVoting_app.sol\":2174:2221  Voter storage _voter = _pool.voters[msg.sender] */\n      swap1\n      pop\n        /* \"contracts/eVoting_app.sol\":2232:2253  Option storage option */\n      0x00\n        /* \"contracts/eVoting_app.sol\":2256:2261  _pool */\n      dup3\n        /* \"contracts/eVoting_app.sol\":2256:2269  _pool.options */\n      0x05\n      add\n        /* \"contracts/eVoting_app.sol\":2256:2285  _pool.options[selectedOption] */\n      0x00\n        /* \"contracts/eVoting_app.sol\":2270:2284  selectedOption */\n      dup8\n        /* \"contracts/eVoting_app.sol\":2256:2285  _pool.options[selectedOption] */\n      dup2\n      mstore\n      0x20\n      add\n      swap1\n      dup2\n      mstore\n      0x20\n      add\n      0x00\n      keccak256\n        /* \"contracts/eVoting_app.sol\":2232:2285  Option storage option = _pool.options[selectedOption] */\n      swap1\n      pop\n        /* \"contracts/eVoting_app.sol\":2296:2301  _pool */\n      dup3\n        /* \"contracts/eVoting_app.sol\":2296:2312  _pool.totalVotes */\n      0x02\n      add\n      0x00\n        /* \"contracts/eVoting_app.sol\":2296:2314  _pool.totalVotes++ */\n      dup2\n      sload\n      dup1\n      swap3\n      swap2\n      swap1\n      tag_121\n      swap1\n      tag_64\n      jump\t// in\n    tag_121:\n      swap2\n      swap1\n      pop\n      sstore\n      pop\n        /* \"contracts/eVoting_app.sol\":2339:2348  _username */\n      dup5\n        /* \"contracts/eVoting_app.sol\":2325:2331  _voter */\n      dup3\n        /* \"contracts/eVoting_app.sol\":2325:2336  _voter.name */\n      0x00\n      add\n        /* \"contracts/eVoting_app.sol\":2325:2348  _voter.name = _username */\n      swap1\n      dup1\n      mload\n      swap1\n      0x20\n      add\n      swap1\n      tag_122\n      swap3\n      swap2\n      swap1\n      tag_66\n      jump\t// in\n    tag_122:\n      pop\n        /* \"contracts/eVoting_app.sol\":2382:2396  selectedOption */\n      dup6\n        /* \"contracts/eVoting_app.sol\":2358:2364  _voter */\n      dup3\n        /* \"contracts/eVoting_app.sol\":2358:2379  _voter.selectedOption */\n      0x01\n      add\n        /* \"contracts/eVoting_app.sol\":2358:2396  _voter.selectedOption = selectedOption */\n      dup2\n      swap1\n      sstore\n      pop\n        /* \"contracts/eVoting_app.sol\":2406:2412  _voter */\n      dup2\n        /* \"contracts/eVoting_app.sol\":2406:2435  _voter.numOfParticipatedVotes */\n      0x03\n      add\n      0x00\n        /* \"contracts/eVoting_app.sol\":2406:2437  _voter.numOfParticipatedVotes++ */\n      dup2\n      sload\n      dup1\n      swap3\n      swap2\n      swap1\n      tag_123\n      swap1\n      tag_64\n      jump\t// in\n    tag_123:\n      swap2\n      swap1\n      pop\n      sstore\n      pop\n        /* \"contracts/eVoting_app.sol\":2464:2468  true */\n      0x01\n        /* \"contracts/eVoting_app.sol\":2447:2453  _voter */\n      dup3\n        /* \"contracts/eVoting_app.sol\":2447:2461  _voter.isVoted */\n      0x02\n      add\n      0x00\n        /* \"contracts/eVoting_app.sol\":2447:2468  _voter.isVoted = true */\n      0x0100\n      exp\n      dup2\n      sload\n      dup2\n      0xff\n      mul\n      not\n      and\n      swap1\n      dup4\n      iszero\n      iszero\n      mul\n      or\n      swap1\n      sstore\n      pop\n        /* \"contracts/eVoting_app.sol\":2479:2485  option */\n      dup1\n        /* \"contracts/eVoting_app.sol\":2479:2496  option.numOfVotes */\n      0x01\n      add\n      0x00\n        /* \"contracts/eVoting_app.sol\":2479:2498  option.numOfVotes++ */\n      dup2\n      sload\n      dup1\n      swap3\n      swap2\n      swap1\n      tag_124\n      swap1\n      tag_64\n      jump\t// in\n    tag_124:\n      swap2\n      swap1\n      pop\n      sstore\n      pop\n        /* \"contracts/eVoting_app.sol\":2115:2505  {... */\n      pop\n      pop\n      pop\n        /* \"contracts/eVoting_app.sol\":2006:2505  function vote(uint256 _poolIndex, uint256 selectedOption, string memory _username) canVote(_poolIndex) public{... */\n      pop\n      pop\n      pop\n      pop\n      jump\t// out\n        /* \"contracts/eVoting_app.sol\":1818:2000  function startPool(uint256 _poolIndex) onlyOwner(_poolIndex) public{... */\n    tag_48:\n        /* \"contracts/eVoting_app.sol\":1867:1877  _poolIndex */\n      dup1\n        /* \"contracts/eVoting_app.sol\":995:1000  pools */\n      0x00\n        /* \"contracts/eVoting_app.sol\":995:1012  pools[_poolIndex] */\n      dup1\n        /* \"contracts/eVoting_app.sol\":1001:1011  _poolIndex */\n      dup3\n        /* \"contracts/eVoting_app.sol\":995:1012  pools[_poolIndex] */\n      dup2\n      mstore\n      0x20\n      add\n      swap1\n      dup2\n      mstore\n      0x20\n      add\n      0x00\n      keccak256\n        /* \"contracts/eVoting_app.sol\":995:1018  pools[_poolIndex].owner */\n      0x03\n      add\n      0x00\n      swap1\n      sload\n      swap1\n      0x0100\n      exp\n      swap1\n      div\n      0xffffffffffffffffffffffffffffffffffffffff\n      and\n        /* \"contracts/eVoting_app.sol\":981:1018  msg.sender == pools[_poolIndex].owner */\n      0xffffffffffffffffffffffffffffffffffffffff\n      and\n        /* \"contracts/eVoting_app.sol\":981:991  msg.sender */\n      caller\n        /* \"contracts/eVoting_app.sol\":981:1018  msg.sender == pools[_poolIndex].owner */\n      0xffffffffffffffffffffffffffffffffffffffff\n      and\n      eq\n        /* \"contracts/eVoting_app.sol\":973:1019  require(msg.sender == pools[_poolIndex].owner) */\n      tag_126\n      jumpi\n      0x00\n      dup1\n      revert\n    tag_126:\n        /* \"contracts/eVoting_app.sol\":1895:1913  Pool storage _pool */\n      0x00\n        /* \"contracts/eVoting_app.sol\":1916:1921  pools */\n      dup1\n        /* \"contracts/eVoting_app.sol\":1916:1933  pools[_poolIndex] */\n      0x00\n        /* \"contracts/eVoting_app.sol\":1922:1932  _poolIndex */\n      dup5\n        /* \"contracts/eVoting_app.sol\":1916:1933  pools[_poolIndex] */\n      dup2\n      mstore\n      0x20\n      add\n      swap1\n      dup2\n      mstore\n      0x20\n      add\n      0x00\n      keccak256\n        /* \"contracts/eVoting_app.sol\":1895:1933  Pool storage _pool = pools[_poolIndex] */\n      swap1\n      pop\n        /* \"contracts/eVoting_app.sol\":1961:1965  true */\n      0x01\n        /* \"contracts/eVoting_app.sol\":1944:1949  _pool */\n      dup2\n        /* \"contracts/eVoting_app.sol\":1944:1958  _pool.isActive */\n      0x07\n      add\n      0x00\n        /* \"contracts/eVoting_app.sol\":1944:1965  _pool.isActive = true */\n      0x0100\n      exp\n      dup2\n      sload\n      dup2\n      0xff\n      mul\n      not\n      and\n      swap1\n      dup4\n      iszero\n      iszero\n      mul\n      or\n      swap1\n      sstore\n      pop\n        /* \"contracts/eVoting_app.sol\":1975:1991  numOfActivePools */\n      0x02\n      0x00\n        /* \"contracts/eVoting_app.sol\":1975:1993  numOfActivePools++ */\n      dup2\n      sload\n      dup1\n      swap3\n      swap2\n      swap1\n      tag_128\n      swap1\n      tag_64\n      jump\t// in\n    tag_128:\n      swap2\n      swap1\n      pop\n      sstore\n      pop\n        /* \"contracts/eVoting_app.sol\":1885:2000  {... */\n      pop\n        /* \"contracts/eVoting_app.sol\":1818:2000  function startPool(uint256 _poolIndex) onlyOwner(_poolIndex) public{... */\n      pop\n      pop\n      jump\t// out\n        /* \"contracts/eVoting_app.sol\":805:842  mapping(uint256 => Pool) public pools */\n    tag_51:\n      mstore(0x20, 0x00)\n      dup1\n      0x00\n      mstore\n      keccak256(0x00, 0x40)\n      0x00\n      swap2\n      pop\n      swap1\n      pop\n      dup1\n      0x00\n      add\n      dup1\n      sload\n      tag_129\n      swap1\n      tag_83\n      jump\t// in\n    tag_129:\n      dup1\n      0x1f\n      add\n      0x20\n      dup1\n      swap2\n      div\n      mul\n      0x20\n      add\n      mload(0x40)\n      swap1\n      dup2\n      add\n      0x40\n      mstore\n      dup1\n      swap3\n      swap2\n      swap1\n      dup2\n      dup2\n      mstore\n      0x20\n      add\n      dup3\n      dup1\n      sload\n      tag_130\n      swap1\n      tag_83\n      jump\t// in\n    tag_130:\n      dup1\n      iszero\n      tag_131\n      jumpi\n      dup1\n      0x1f\n      lt\n      tag_132\n      jumpi\n      0x0100\n      dup1\n      dup4\n      sload\n      div\n      mul\n      dup4\n      mstore\n      swap2\n      0x20\n      add\n      swap2\n      jump(tag_131)\n    tag_132:\n      dup3\n      add\n      swap2\n      swap1\n      0x00\n      mstore\n      keccak256(0x00, 0x20)\n      swap1\n    tag_133:\n      dup2\n      sload\n      dup2\n      mstore\n      swap1\n      0x01\n      add\n      swap1\n      0x20\n      add\n      dup1\n      dup4\n      gt\n      tag_133\n      jumpi\n      dup3\n      swap1\n      sub\n      0x1f\n      and\n      dup3\n      add\n      swap2\n    tag_131:\n      pop\n      pop\n      pop\n      pop\n      pop\n      swap1\n      dup1\n      0x01\n      add\n      dup1\n      sload\n      tag_134\n      swap1\n      tag_83\n      jump\t// in\n    tag_134:\n      dup1\n      0x1f\n      add\n      0x20\n      dup1\n      swap2\n      div\n      mul\n      0x20\n      add\n      mload(0x40)\n      swap1\n      dup2\n      add\n      0x40\n      mstore\n      dup1\n      swap3\n      swap2\n      swap1\n      dup2\n      dup2\n      mstore\n      0x20\n      add\n      dup3\n      dup1\n      sload\n      tag_135\n      swap1\n      tag_83\n      jump\t// in\n    tag_135:\n      dup1\n      iszero\n      tag_136\n      jumpi\n      dup1\n      0x1f\n      lt\n      tag_137\n      jumpi\n      0x0100\n      dup1\n      dup4\n      sload\n      div\n      mul\n      dup4\n      mstore\n      swap2\n      0x20\n      add\n      swap2\n      jump(tag_136)\n    tag_137:\n      dup3\n      add\n      swap2\n      swap1\n      0x00\n      mstore\n      keccak256(0x00, 0x20)\n      swap1\n    tag_138:\n      dup2\n      sload\n      dup2\n      mstore\n      swap1\n      0x01\n      add\n      swap1\n      0x20\n      add\n      dup1\n      dup4\n      gt\n      tag_138\n      jumpi\n      dup3\n      swap1\n      sub\n      0x1f\n      and\n      dup3\n      add\n      swap2\n    tag_136:\n      pop\n      pop\n      pop\n      pop\n      pop\n      swap1\n      dup1\n      0x02\n      add\n      sload\n      swap1\n      dup1\n      0x03\n      add\n      0x00\n      swap1\n      sload\n      swap1\n      0x0100\n      exp\n      swap1\n      div\n      0xffffffffffffffffffffffffffffffffffffffff\n      and\n      swap1\n      dup1\n      0x06\n      add\n      sload\n      swap1\n      dup1\n      0x07\n      add\n      0x00\n      swap1\n      sload\n      swap1\n      0x0100\n      exp\n      swap1\n      div\n      0xff\n      and\n      swap1\n      dup1\n      0x08\n      add\n      sload\n      swap1\n      pop\n      dup8\n      jump\t// out\n        /* \"contracts/eVoting_app.sol\":1604:1812  function addOption(uint256 _poolIndex, string memory _name) onlyOwner(_poolIndex) public{... */\n    tag_57:\n        /* \"contracts/eVoting_app.sol\":1674:1684  _poolIndex */\n      dup2\n        /* \"contracts/eVoting_app.sol\":995:1000  pools */\n      0x00\n        /* \"contracts/eVoting_app.sol\":995:1012  pools[_poolIndex] */\n      dup1\n        /* \"contracts/eVoting_app.sol\":1001:1011  _poolIndex */\n      dup3\n        /* \"contracts/eVoting_app.sol\":995:1012  pools[_poolIndex] */\n      dup2\n      mstore\n      0x20\n      add\n      swap1\n      dup2\n      mstore\n      0x20\n      add\n      0x00\n      keccak256\n        /* \"contracts/eVoting_app.sol\":995:1018  pools[_poolIndex].owner */\n      0x03\n      add\n      0x00\n      swap1\n      sload\n      swap1\n      0x0100\n      exp\n      swap1\n      div\n      0xffffffffffffffffffffffffffffffffffffffff\n      and\n        /* \"contracts/eVoting_app.sol\":981:1018  msg.sender == pools[_poolIndex].owner */\n      0xffffffffffffffffffffffffffffffffffffffff\n      and\n        /* \"contracts/eVoting_app.sol\":981:991  msg.sender */\n      caller\n        /* \"contracts/eVoting_app.sol\":981:1018  msg.sender == pools[_poolIndex].owner */\n      0xffffffffffffffffffffffffffffffffffffffff\n      and\n      eq\n        /* \"contracts/eVoting_app.sol\":973:1019  require(msg.sender == pools[_poolIndex].owner) */\n      tag_140\n      jumpi\n      0x00\n      dup1\n      revert\n    tag_140:\n        /* \"contracts/eVoting_app.sol\":1702:1720  Pool storage _pool */\n      0x00\n        /* \"contracts/eVoting_app.sol\":1723:1728  pools */\n      dup1\n        /* \"contracts/eVoting_app.sol\":1723:1740  pools[_poolIndex] */\n      0x00\n        /* \"contracts/eVoting_app.sol\":1729:1739  _poolIndex */\n      dup6\n        /* \"contracts/eVoting_app.sol\":1723:1740  pools[_poolIndex] */\n      dup2\n      mstore\n      0x20\n      add\n      swap1\n      dup2\n      mstore\n      0x20\n      add\n      0x00\n      keccak256\n        /* \"contracts/eVoting_app.sol\":1702:1740  Pool storage _pool = pools[_poolIndex] */\n      swap1\n      pop\n        /* \"contracts/eVoting_app.sol\":1789:1805  Option(_name, 0) */\n      mload(0x40)\n      dup1\n      0x40\n      add\n      0x40\n      mstore\n      dup1\n        /* \"contracts/eVoting_app.sol\":1796:1801  _name */\n      dup5\n        /* \"contracts/eVoting_app.sol\":1789:1805  Option(_name, 0) */\n      dup2\n      mstore\n      0x20\n      add\n        /* \"contracts/eVoting_app.sol\":1803:1804  0 */\n      0x00\n        /* \"contracts/eVoting_app.sol\":1789:1805  Option(_name, 0) */\n      dup2\n      mstore\n      pop\n        /* \"contracts/eVoting_app.sol\":1751:1756  _pool */\n      dup2\n        /* \"contracts/eVoting_app.sol\":1751:1764  _pool.options */\n      0x05\n      add\n        /* \"contracts/eVoting_app.sol\":1751:1786  _pool.options[_pool.numOfOptions++] */\n      0x00\n        /* \"contracts/eVoting_app.sol\":1765:1770  _pool */\n      dup4\n        /* \"contracts/eVoting_app.sol\":1765:1783  _pool.numOfOptions */\n      0x06\n      add\n      0x00\n        /* \"contracts/eVoting_app.sol\":1765:1785  _pool.numOfOptions++ */\n      dup2\n      sload\n      dup1\n      swap3\n      swap2\n      swap1\n      tag_142\n      swap1\n      tag_64\n      jump\t// in\n    tag_142:\n      swap2\n      swap1\n      pop\n      sstore\n        /* \"contracts/eVoting_app.sol\":1751:1786  _pool.options[_pool.numOfOptions++] */\n      dup2\n      mstore\n      0x20\n      add\n      swap1\n      dup2\n      mstore\n      0x20\n      add\n      0x00\n      keccak256\n        /* \"contracts/eVoting_app.sol\":1751:1805  _pool.options[_pool.numOfOptions++] = Option(_name, 0) */\n      0x00\n      dup3\n      add\n      mload\n      dup2\n      0x00\n      add\n      swap1\n      dup1\n      mload\n      swap1\n      0x20\n      add\n      swap1\n      tag_143\n      swap3\n      swap2\n      swap1\n      tag_66\n      jump\t// in\n    tag_143:\n      pop\n      0x20\n      dup3\n      add\n      mload\n      dup2\n      0x01\n      add\n      sstore\n      swap1\n      pop\n      pop\n        /* \"contracts/eVoting_app.sol\":1692:1812  {... */\n      pop\n        /* \"contracts/eVoting_app.sol\":1604:1812  function addOption(uint256 _poolIndex, string memory _name) onlyOwner(_poolIndex) public{... */\n      pop\n      pop\n      pop\n      jump\t// out\n        /* \"contracts/eVoting_app.sol\":848:877  uint256 public numOfPools = 0 */\n    tag_59:\n      sload(0x01)\n      dup2\n      jump\t// out\n    tag_66:\n      dup3\n      dup1\n      sload\n      tag_144\n      swap1\n      tag_83\n      jump\t// in\n    tag_144:\n      swap1\n      0x00\n      mstore\n      keccak256(0x00, 0x20)\n      swap1\n      0x1f\n      add\n      0x20\n      swap1\n      div\n      dup2\n      add\n      swap3\n      dup3\n      tag_146\n      jumpi\n      0x00\n      dup6\n      sstore\n      jump(tag_145)\n    tag_146:\n      dup3\n      0x1f\n      lt\n      tag_147\n      jumpi\n      dup1\n      mload\n      not(0xff)\n      and\n      dup4\n      dup1\n      add\n      or\n      dup6\n      sstore\n      jump(tag_145)\n    tag_147:\n      dup3\n      dup1\n      add\n      0x01\n      add\n      dup6\n      sstore\n      dup3\n      iszero\n      tag_145\n      jumpi\n      swap2\n      dup3\n      add\n    tag_148:\n      dup3\n      dup2\n      gt\n      iszero\n      tag_149\n      jumpi\n      dup3\n      mload\n      dup3\n      sstore\n      swap2\n      0x20\n      add\n      swap2\n      swap1\n      0x01\n      add\n      swap1\n      jump(tag_148)\n    tag_149:\n    tag_145:\n      pop\n      swap1\n      pop\n      tag_150\n      swap2\n      swap1\n      tag_151\n      jump\t// in\n    tag_150:\n      pop\n      swap1\n      jump\t// out\n    tag_78:\n      mload(0x40)\n      dup1\n      0x40\n      add\n      0x40\n      mstore\n      dup1\n      0x60\n      dup2\n      mstore\n      0x20\n      add\n      0x00\n      dup2\n      mstore\n      pop\n      swap1\n      jump\t// out\n    tag_99:\n      mload(0x40)\n      dup1\n      0xa0\n      add\n      0x40\n      mstore\n      dup1\n      0x60\n      dup2\n      mstore\n      0x20\n      add\n      0x60\n      dup2\n      mstore\n      0x20\n      add\n      0x00\n      dup2\n      mstore\n      0x20\n      add\n      0x00\n      dup2\n      mstore\n      0x20\n      add\n      0x00\n      dup2\n      mstore\n      pop\n      swap1\n      jump\t// out\n    tag_151:\n    tag_152:\n      dup1\n      dup3\n      gt\n      iszero\n      tag_153\n      jumpi\n      0x00\n      dup2\n      0x00\n      swap1\n      sstore\n      pop\n      0x01\n      add\n      jump(tag_152)\n    tag_153:\n      pop\n      swap1\n      jump\t// out\n        /* \"#utility.yul\":7:419   */\n    tag_155:\n        /* \"#utility.yul\":85:90   */\n      0x00\n        /* \"#utility.yul\":110:176   */\n      tag_157\n        /* \"#utility.yul\":126:175   */\n      tag_158\n        /* \"#utility.yul\":168:174   */\n      dup5\n        /* \"#utility.yul\":126:175   */\n      tag_159\n      jump\t// in\n    tag_158:\n        /* \"#utility.yul\":110:176   */\n      tag_160\n      jump\t// in\n    tag_157:\n        /* \"#utility.yul\":101:176   */\n      swap1\n      pop\n        /* \"#utility.yul\":199:205   */\n      dup3\n        /* \"#utility.yul\":192:197   */\n      dup2\n        /* \"#utility.yul\":185:206   */\n      mstore\n        /* \"#utility.yul\":237:241   */\n      0x20\n        /* \"#utility.yul\":230:235   */\n      dup2\n        /* \"#utility.yul\":226:242   */\n      add\n        /* \"#utility.yul\":275:278   */\n      dup5\n        /* \"#utility.yul\":266:272   */\n      dup5\n        /* \"#utility.yul\":261:264   */\n      dup5\n        /* \"#utility.yul\":257:273   */\n      add\n        /* \"#utility.yul\":254:279   */\n      gt\n        /* \"#utility.yul\":251:363   */\n      iszero\n      tag_161\n      jumpi\n        /* \"#utility.yul\":282:361   */\n      tag_162\n      tag_163\n      jump\t// in\n    tag_162:\n        /* \"#utility.yul\":251:363   */\n    tag_161:\n        /* \"#utility.yul\":372:413   */\n      tag_164\n        /* \"#utility.yul\":406:412   */\n      dup5\n        /* \"#utility.yul\":401:404   */\n      dup3\n        /* \"#utility.yul\":396:399   */\n      dup6\n        /* \"#utility.yul\":372:413   */\n      tag_165\n      jump\t// in\n    tag_164:\n        /* \"#utility.yul\":91:419   */\n      pop\n        /* \"#utility.yul\":7:419   */\n      swap4\n      swap3\n      pop\n      pop\n      pop\n      jump\t// out\n        /* \"#utility.yul\":439:779   */\n    tag_166:\n        /* \"#utility.yul\":495:500   */\n      0x00\n        /* \"#utility.yul\":544:547   */\n      dup3\n        /* \"#utility.yul\":537:541   */\n      0x1f\n        /* \"#utility.yul\":529:535   */\n      dup4\n        /* \"#utility.yul\":525:542   */\n      add\n        /* \"#utility.yul\":521:548   */\n      slt\n        /* \"#utility.yul\":511:633   */\n      tag_168\n      jumpi\n        /* \"#utility.yul\":552:631   */\n      tag_169\n      tag_170\n      jump\t// in\n    tag_169:\n        /* \"#utility.yul\":511:633   */\n    tag_168:\n        /* \"#utility.yul\":669:675   */\n      dup2\n        /* \"#utility.yul\":656:676   */\n      calldataload\n        /* \"#utility.yul\":694:773   */\n      tag_171\n        /* \"#utility.yul\":769:772   */\n      dup5\n        /* \"#utility.yul\":761:767   */\n      dup3\n        /* \"#utility.yul\":754:758   */\n      0x20\n        /* \"#utility.yul\":746:752   */\n      dup7\n        /* \"#utility.yul\":742:759   */\n      add\n        /* \"#utility.yul\":694:773   */\n      tag_155\n      jump\t// in\n    tag_171:\n        /* \"#utility.yul\":685:773   */\n      swap2\n      pop\n        /* \"#utility.yul\":501:779   */\n      pop\n        /* \"#utility.yul\":439:779   */\n      swap3\n      swap2\n      pop\n      pop\n      jump\t// out\n        /* \"#utility.yul\":785:924   */\n    tag_172:\n        /* \"#utility.yul\":831:836   */\n      0x00\n        /* \"#utility.yul\":869:875   */\n      dup2\n        /* \"#utility.yul\":856:876   */\n      calldataload\n        /* \"#utility.yul\":847:876   */\n      swap1\n      pop\n        /* \"#utility.yul\":885:918   */\n      tag_174\n        /* \"#utility.yul\":912:917   */\n      dup2\n        /* \"#utility.yul\":885:918   */\n      tag_175\n      jump\t// in\n    tag_174:\n        /* \"#utility.yul\":785:924   */\n      swap3\n      swap2\n      pop\n      pop\n      jump\t// out\n        /* \"#utility.yul\":930:1764   */\n    tag_23:\n        /* \"#utility.yul\":1018:1024   */\n      0x00\n        /* \"#utility.yul\":1026:1032   */\n      dup1\n        /* \"#utility.yul\":1075:1077   */\n      0x40\n        /* \"#utility.yul\":1063:1072   */\n      dup4\n        /* \"#utility.yul\":1054:1061   */\n      dup6\n        /* \"#utility.yul\":1050:1073   */\n      sub\n        /* \"#utility.yul\":1046:1078   */\n      slt\n        /* \"#utility.yul\":1043:1162   */\n      iszero\n      tag_177\n      jumpi\n        /* \"#utility.yul\":1081:1160   */\n      tag_178\n      tag_179\n      jump\t// in\n    tag_178:\n        /* \"#utility.yul\":1043:1162   */\n    tag_177:\n        /* \"#utility.yul\":1229:1230   */\n      0x00\n        /* \"#utility.yul\":1218:1227   */\n      dup4\n        /* \"#utility.yul\":1214:1231   */\n      add\n        /* \"#utility.yul\":1201:1232   */\n      calldataload\n        /* \"#utility.yul\":1259:1277   */\n      0xffffffffffffffff\n        /* \"#utility.yul\":1251:1257   */\n      dup2\n        /* \"#utility.yul\":1248:1278   */\n      gt\n        /* \"#utility.yul\":1245:1362   */\n      iszero\n      tag_180\n      jumpi\n        /* \"#utility.yul\":1281:1360   */\n      tag_181\n      tag_182\n      jump\t// in\n    tag_181:\n        /* \"#utility.yul\":1245:1362   */\n    tag_180:\n        /* \"#utility.yul\":1386:1449   */\n      tag_183\n        /* \"#utility.yul\":1441:1448   */\n      dup6\n        /* \"#utility.yul\":1432:1438   */\n      dup3\n        /* \"#utility.yul\":1421:1430   */\n      dup7\n        /* \"#utility.yul\":1417:1439   */\n      add\n        /* \"#utility.yul\":1386:1449   */\n      tag_166\n      jump\t// in\n    tag_183:\n        /* \"#utility.yul\":1376:1449   */\n      swap3\n      pop\n        /* \"#utility.yul\":1172:1459   */\n      pop\n        /* \"#utility.yul\":1526:1528   */\n      0x20\n        /* \"#utility.yul\":1515:1524   */\n      dup4\n        /* \"#utility.yul\":1511:1529   */\n      add\n        /* \"#utility.yul\":1498:1530   */\n      calldataload\n        /* \"#utility.yul\":1557:1575   */\n      0xffffffffffffffff\n        /* \"#utility.yul\":1549:1555   */\n      dup2\n        /* \"#utility.yul\":1546:1576   */\n      gt\n        /* \"#utility.yul\":1543:1660   */\n      iszero\n      tag_184\n      jumpi\n        /* \"#utility.yul\":1579:1658   */\n      tag_185\n      tag_182\n      jump\t// in\n    tag_185:\n        /* \"#utility.yul\":1543:1660   */\n    tag_184:\n        /* \"#utility.yul\":1684:1747   */\n      tag_186\n        /* \"#utility.yul\":1739:1746   */\n      dup6\n        /* \"#utility.yul\":1730:1736   */\n      dup3\n        /* \"#utility.yul\":1719:1728   */\n      dup7\n        /* \"#utility.yul\":1715:1737   */\n      add\n        /* \"#utility.yul\":1684:1747   */\n      tag_166\n      jump\t// in\n    tag_186:\n        /* \"#utility.yul\":1674:1747   */\n      swap2\n      pop\n        /* \"#utility.yul\":1469:1757   */\n      pop\n        /* \"#utility.yul\":930:1764   */\n      swap3\n      pop\n      swap3\n      swap1\n      pop\n      jump\t// out\n        /* \"#utility.yul\":1770:2099   */\n    tag_17:\n        /* \"#utility.yul\":1829:1835   */\n      0x00\n        /* \"#utility.yul\":1878:1880   */\n      0x20\n        /* \"#utility.yul\":1866:1875   */\n      dup3\n        /* \"#utility.yul\":1857:1864   */\n      dup5\n        /* \"#utility.yul\":1853:1876   */\n      sub\n        /* \"#utility.yul\":1849:1881   */\n      slt\n        /* \"#utility.yul\":1846:1965   */\n      iszero\n      tag_188\n      jumpi\n        /* \"#utility.yul\":1884:1963   */\n      tag_189\n      tag_179\n      jump\t// in\n    tag_189:\n        /* \"#utility.yul\":1846:1965   */\n    tag_188:\n        /* \"#utility.yul\":2004:2005   */\n      0x00\n        /* \"#utility.yul\":2029:2082   */\n      tag_190\n        /* \"#utility.yul\":2074:2081   */\n      dup5\n        /* \"#utility.yul\":2065:2071   */\n      dup3\n        /* \"#utility.yul\":2054:2063   */\n      dup6\n        /* \"#utility.yul\":2050:2072   */\n      add\n        /* \"#utility.yul\":2029:2082   */\n      tag_172\n      jump\t// in\n    tag_190:\n        /* \"#utility.yul\":2019:2082   */\n      swap2\n      pop\n        /* \"#utility.yul\":1975:2092   */\n      pop\n        /* \"#utility.yul\":1770:2099   */\n      swap3\n      swap2\n      pop\n      pop\n      jump\t// out\n        /* \"#utility.yul\":2105:2759   */\n    tag_56:\n        /* \"#utility.yul\":2183:2189   */\n      0x00\n        /* \"#utility.yul\":2191:2197   */\n      dup1\n        /* \"#utility.yul\":2240:2242   */\n      0x40\n        /* \"#utility.yul\":2228:2237   */\n      dup4\n        /* \"#utility.yul\":2219:2226   */\n      dup6\n        /* \"#utility.yul\":2215:2238   */\n      sub\n        /* \"#utility.yul\":2211:2243   */\n      slt\n        /* \"#utility.yul\":2208:2327   */\n      iszero\n      tag_192\n      jumpi\n        /* \"#utility.yul\":2246:2325   */\n      tag_193\n      tag_179\n      jump\t// in\n    tag_193:\n        /* \"#utility.yul\":2208:2327   */\n    tag_192:\n        /* \"#utility.yul\":2366:2367   */\n      0x00\n        /* \"#utility.yul\":2391:2444   */\n      tag_194\n        /* \"#utility.yul\":2436:2443   */\n      dup6\n        /* \"#utility.yul\":2427:2433   */\n      dup3\n        /* \"#utility.yul\":2416:2425   */\n      dup7\n        /* \"#utility.yul\":2412:2434   */\n      add\n        /* \"#utility.yul\":2391:2444   */\n      tag_172\n      jump\t// in\n    tag_194:\n        /* \"#utility.yul\":2381:2444   */\n      swap3\n      pop\n        /* \"#utility.yul\":2337:2454   */\n      pop\n        /* \"#utility.yul\":2521:2523   */\n      0x20\n        /* \"#utility.yul\":2510:2519   */\n      dup4\n        /* \"#utility.yul\":2506:2524   */\n      add\n        /* \"#utility.yul\":2493:2525   */\n      calldataload\n        /* \"#utility.yul\":2552:2570   */\n      0xffffffffffffffff\n        /* \"#utility.yul\":2544:2550   */\n      dup2\n        /* \"#utility.yul\":2541:2571   */\n      gt\n        /* \"#utility.yul\":2538:2655   */\n      iszero\n      tag_195\n      jumpi\n        /* \"#utility.yul\":2574:2653   */\n      tag_196\n      tag_182\n      jump\t// in\n    tag_196:\n        /* \"#utility.yul\":2538:2655   */\n    tag_195:\n        /* \"#utility.yul\":2679:2742   */\n      tag_197\n        /* \"#utility.yul\":2734:2741   */\n      dup6\n        /* \"#utility.yul\":2725:2731   */\n      dup3\n        /* \"#utility.yul\":2714:2723   */\n      dup7\n        /* \"#utility.yul\":2710:2732   */\n      add\n        /* \"#utility.yul\":2679:2742   */\n      tag_166\n      jump\t// in\n    tag_197:\n        /* \"#utility.yul\":2669:2742   */\n      swap2\n      pop\n        /* \"#utility.yul\":2464:2752   */\n      pop\n        /* \"#utility.yul\":2105:2759   */\n      swap3\n      pop\n      swap3\n      swap1\n      pop\n      jump\t// out\n        /* \"#utility.yul\":2765:3564   */\n    tag_44:\n        /* \"#utility.yul\":2852:2858   */\n      0x00\n        /* \"#utility.yul\":2860:2866   */\n      dup1\n        /* \"#utility.yul\":2868:2874   */\n      0x00\n        /* \"#utility.yul\":2917:2919   */\n      0x60\n        /* \"#utility.yul\":2905:2914   */\n      dup5\n        /* \"#utility.yul\":2896:2903   */\n      dup7\n        /* \"#utility.yul\":2892:2915   */\n      sub\n        /* \"#utility.yul\":2888:2920   */\n      slt\n        /* \"#utility.yul\":2885:3004   */\n      iszero\n      tag_199\n      jumpi\n        /* \"#utility.yul\":2923:3002   */\n      tag_200\n      tag_179\n      jump\t// in\n    tag_200:\n        /* \"#utility.yul\":2885:3004   */\n    tag_199:\n        /* \"#utility.yul\":3043:3044   */\n      0x00\n        /* \"#utility.yul\":3068:3121   */\n      tag_201\n        /* \"#utility.yul\":3113:3120   */\n      dup7\n        /* \"#utility.yul\":3104:3110   */\n      dup3\n        /* \"#utility.yul\":3093:3102   */\n      dup8\n        /* \"#utility.yul\":3089:3111   */\n      add\n        /* \"#utility.yul\":3068:3121   */\n      tag_172\n      jump\t// in\n    tag_201:\n        /* \"#utility.yul\":3058:3121   */\n      swap4\n      pop\n        /* \"#utility.yul\":3014:3131   */\n      pop\n        /* \"#utility.yul\":3170:3172   */\n      0x20\n        /* \"#utility.yul\":3196:3249   */\n      tag_202\n        /* \"#utility.yul\":3241:3248   */\n      dup7\n        /* \"#utility.yul\":3232:3238   */\n      dup3\n        /* \"#utility.yul\":3221:3230   */\n      dup8\n        /* \"#utility.yul\":3217:3239   */\n      add\n        /* \"#utility.yul\":3196:3249   */\n      tag_172\n      jump\t// in\n    tag_202:\n        /* \"#utility.yul\":3186:3249   */\n      swap3\n      pop\n        /* \"#utility.yul\":3141:3259   */\n      pop\n        /* \"#utility.yul\":3326:3328   */\n      0x40\n        /* \"#utility.yul\":3315:3324   */\n      dup5\n        /* \"#utility.yul\":3311:3329   */\n      add\n        /* \"#utility.yul\":3298:3330   */\n      calldataload\n        /* \"#utility.yul\":3357:3375   */\n      0xffffffffffffffff\n        /* \"#utility.yul\":3349:3355   */\n      dup2\n        /* \"#utility.yul\":3346:3376   */\n      gt\n        /* \"#utility.yul\":3343:3460   */\n      iszero\n      tag_203\n      jumpi\n        /* \"#utility.yul\":3379:3458   */\n      tag_204\n      tag_182\n      jump\t// in\n    tag_204:\n        /* \"#utility.yul\":3343:3460   */\n    tag_203:\n        /* \"#utility.yul\":3484:3547   */\n      tag_205\n        /* \"#utility.yul\":3539:3546   */\n      dup7\n        /* \"#utility.yul\":3530:3536   */\n      dup3\n        /* \"#utility.yul\":3519:3528   */\n      dup8\n        /* \"#utility.yul\":3515:3537   */\n      add\n        /* \"#utility.yul\":3484:3547   */\n      tag_166\n      jump\t// in\n    tag_205:\n        /* \"#utility.yul\":3474:3547   */\n      swap2\n      pop\n        /* \"#utility.yul\":3269:3557   */\n      pop\n        /* \"#utility.yul\":2765:3564   */\n      swap3\n      pop\n      swap3\n      pop\n      swap3\n      jump\t// out\n        /* \"#utility.yul\":3570:3814   */\n    tag_206:\n        /* \"#utility.yul\":3683:3693   */\n      0x00\n        /* \"#utility.yul\":3718:3808   */\n      tag_208\n        /* \"#utility.yul\":3804:3807   */\n      dup4\n        /* \"#utility.yul\":3796:3802   */\n      dup4\n        /* \"#utility.yul\":3718:3808   */\n      tag_209\n      jump\t// in\n    tag_208:\n        /* \"#utility.yul\":3704:3808   */\n      swap1\n      pop\n        /* \"#utility.yul\":3570:3814   */\n      swap3\n      swap2\n      pop\n      pop\n      jump\t// out\n        /* \"#utility.yul\":3820:4072   */\n    tag_210:\n        /* \"#utility.yul\":3937:3947   */\n      0x00\n        /* \"#utility.yul\":3972:4066   */\n      tag_212\n        /* \"#utility.yul\":4062:4065   */\n      dup4\n        /* \"#utility.yul\":4054:4060   */\n      dup4\n        /* \"#utility.yul\":3972:4066   */\n      tag_213\n      jump\t// in\n    tag_212:\n        /* \"#utility.yul\":3958:4066   */\n      swap1\n      pop\n        /* \"#utility.yul\":3820:4072   */\n      swap3\n      swap2\n      pop\n      pop\n      jump\t// out\n        /* \"#utility.yul\":4078:4196   */\n    tag_214:\n        /* \"#utility.yul\":4165:4189   */\n      tag_216\n        /* \"#utility.yul\":4183:4188   */\n      dup2\n        /* \"#utility.yul\":4165:4189   */\n      tag_217\n      jump\t// in\n    tag_216:\n        /* \"#utility.yul\":4160:4163   */\n      dup3\n        /* \"#utility.yul\":4153:4190   */\n      mstore\n        /* \"#utility.yul\":4078:4196   */\n      pop\n      pop\n      jump\t// out\n        /* \"#utility.yul\":4262:5349   */\n    tag_218:\n        /* \"#utility.yul\":4425:4428   */\n      0x00\n        /* \"#utility.yul\":4454:4530   */\n      tag_220\n        /* \"#utility.yul\":4524:4529   */\n      dup3\n        /* \"#utility.yul\":4454:4530   */\n      tag_221\n      jump\t// in\n    tag_220:\n        /* \"#utility.yul\":4546:4654   */\n      tag_222\n        /* \"#utility.yul\":4647:4653   */\n      dup2\n        /* \"#utility.yul\":4642:4645   */\n      dup6\n        /* \"#utility.yul\":4546:4654   */\n      tag_223\n      jump\t// in\n    tag_222:\n        /* \"#utility.yul\":4539:4654   */\n      swap4\n      pop\n        /* \"#utility.yul\":4680:4683   */\n      dup4\n        /* \"#utility.yul\":4725:4729   */\n      0x20\n        /* \"#utility.yul\":4717:4723   */\n      dup3\n        /* \"#utility.yul\":4713:4730   */\n      mul\n        /* \"#utility.yul\":4708:4711   */\n      dup6\n        /* \"#utility.yul\":4704:4731   */\n      add\n        /* \"#utility.yul\":4755:4833   */\n      tag_224\n        /* \"#utility.yul\":4827:4832   */\n      dup6\n        /* \"#utility.yul\":4755:4833   */\n      tag_225\n      jump\t// in\n    tag_224:\n        /* \"#utility.yul\":4856:4863   */\n      dup1\n        /* \"#utility.yul\":4887:4888   */\n      0x00\n        /* \"#utility.yul\":4872:5304   */\n    tag_226:\n        /* \"#utility.yul\":4897:4903   */\n      dup6\n        /* \"#utility.yul\":4894:4895   */\n      dup2\n        /* \"#utility.yul\":4891:4904   */\n      lt\n        /* \"#utility.yul\":4872:5304   */\n      iszero\n      tag_228\n      jumpi\n        /* \"#utility.yul\":4968:4977   */\n      dup5\n        /* \"#utility.yul\":4962:4966   */\n      dup5\n        /* \"#utility.yul\":4958:4978   */\n      sub\n        /* \"#utility.yul\":4953:4956   */\n      dup10\n        /* \"#utility.yul\":4946:4979   */\n      mstore\n        /* \"#utility.yul\":5019:5025   */\n      dup2\n        /* \"#utility.yul\":5013:5026   */\n      mload\n        /* \"#utility.yul\":5047:5155   */\n      tag_229\n        /* \"#utility.yul\":5150:5154   */\n      dup6\n        /* \"#utility.yul\":5135:5148   */\n      dup3\n        /* \"#utility.yul\":5047:5155   */\n      tag_206\n      jump\t// in\n    tag_229:\n        /* \"#utility.yul\":5039:5155   */\n      swap5\n      pop\n        /* \"#utility.yul\":5178:5260   */\n      tag_230\n        /* \"#utility.yul\":5253:5259   */\n      dup4\n        /* \"#utility.yul\":5178:5260   */\n      tag_231\n      jump\t// in\n    tag_230:\n        /* \"#utility.yul\":5168:5260   */\n      swap3\n      pop\n        /* \"#utility.yul\":5289:5293   */\n      0x20\n        /* \"#utility.yul\":5284:5287   */\n      dup11\n        /* \"#utility.yul\":5280:5294   */\n      add\n        /* \"#utility.yul\":5273:5294   */\n      swap10\n      pop\n        /* \"#utility.yul\":4932:5304   */\n      pop\n        /* \"#utility.yul\":4919:4920   */\n      0x01\n        /* \"#utility.yul\":4916:4917   */\n      dup2\n        /* \"#utility.yul\":4912:4921   */\n      add\n        /* \"#utility.yul\":4907:4921   */\n      swap1\n      pop\n        /* \"#utility.yul\":4872:5304   */\n      jump(tag_226)\n    tag_228:\n        /* \"#utility.yul\":4876:4890   */\n      pop\n        /* \"#utility.yul\":5320:5324   */\n      dup3\n        /* \"#utility.yul\":5313:5324   */\n      swap8\n      pop\n        /* \"#utility.yul\":5340:5343   */\n      dup8\n        /* \"#utility.yul\":5333:5343   */\n      swap6\n      pop\n        /* \"#utility.yul\":4430:5349   */\n      pop\n      pop\n      pop\n      pop\n      pop\n        /* \"#utility.yul\":4262:5349   */\n      swap3\n      swap2\n      pop\n      pop\n      jump\t// out\n        /* \"#utility.yul\":5419:6522   */\n    tag_232:\n        /* \"#utility.yul\":5586:5589   */\n      0x00\n        /* \"#utility.yul\":5615:5693   */\n      tag_234\n        /* \"#utility.yul\":5687:5692   */\n      dup3\n        /* \"#utility.yul\":5615:5693   */\n      tag_235\n      jump\t// in\n    tag_234:\n        /* \"#utility.yul\":5709:5819   */\n      tag_236\n        /* \"#utility.yul\":5812:5818   */\n      dup2\n        /* \"#utility.yul\":5807:5810   */\n      dup6\n        /* \"#utility.yul\":5709:5819   */\n      tag_237\n      jump\t// in\n    tag_236:\n        /* \"#utility.yul\":5702:5819   */\n      swap4\n      pop\n        /* \"#utility.yul\":5845:5848   */\n      dup4\n        /* \"#utility.yul\":5890:5894   */\n      0x20\n        /* \"#utility.yul\":5882:5888   */\n      dup3\n        /* \"#utility.yul\":5878:5895   */\n      mul\n        /* \"#utility.yul\":5873:5876   */\n      dup6\n        /* \"#utility.yul\":5869:5896   */\n      add\n        /* \"#utility.yul\":5920:6000   */\n      tag_238\n        /* \"#utility.yul\":5994:5999   */\n      dup6\n        /* \"#utility.yul\":5920:6000   */\n      tag_239\n      jump\t// in\n    tag_238:\n        /* \"#utility.yul\":6023:6030   */\n      dup1\n        /* \"#utility.yul\":6054:6055   */\n      0x00\n        /* \"#utility.yul\":6039:6477   */\n    tag_240:\n        /* \"#utility.yul\":6064:6070   */\n      dup6\n        /* \"#utility.yul\":6061:6062   */\n      dup2\n        /* \"#utility.yul\":6058:6071   */\n      lt\n        /* \"#utility.yul\":6039:6477   */\n      iszero\n      tag_242\n      jumpi\n        /* \"#utility.yul\":6135:6144   */\n      dup5\n        /* \"#utility.yul\":6129:6133   */\n      dup5\n        /* \"#utility.yul\":6125:6145   */\n      sub\n        /* \"#utility.yul\":6120:6123   */\n      dup10\n        /* \"#utility.yul\":6113:6146   */\n      mstore\n        /* \"#utility.yul\":6186:6192   */\n      dup2\n        /* \"#utility.yul\":6180:6193   */\n      mload\n        /* \"#utility.yul\":6214:6326   */\n      tag_243\n        /* \"#utility.yul\":6321:6325   */\n      dup6\n        /* \"#utility.yul\":6306:6319   */\n      dup3\n        /* \"#utility.yul\":6214:6326   */\n      tag_210\n      jump\t// in\n    tag_243:\n        /* \"#utility.yul\":6206:6326   */\n      swap5\n      pop\n        /* \"#utility.yul\":6349:6433   */\n      tag_244\n        /* \"#utility.yul\":6426:6432   */\n      dup4\n        /* \"#utility.yul\":6349:6433   */\n      tag_245\n      jump\t// in\n    tag_244:\n        /* \"#utility.yul\":6339:6433   */\n      swap3\n      pop\n        /* \"#utility.yul\":6462:6466   */\n      0x20\n        /* \"#utility.yul\":6457:6460   */\n      dup11\n        /* \"#utility.yul\":6453:6467   */\n      add\n        /* \"#utility.yul\":6446:6467   */\n      swap10\n      pop\n        /* \"#utility.yul\":6099:6477   */\n      pop\n        /* \"#utility.yul\":6086:6087   */\n      0x01\n        /* \"#utility.yul\":6083:6084   */\n      dup2\n        /* \"#utility.yul\":6079:6088   */\n      add\n        /* \"#utility.yul\":6074:6088   */\n      swap1\n      pop\n        /* \"#utility.yul\":6039:6477   */\n      jump(tag_240)\n    tag_242:\n        /* \"#utility.yul\":6043:6057   */\n      pop\n        /* \"#utility.yul\":6493:6497   */\n      dup3\n        /* \"#utility.yul\":6486:6497   */\n      swap8\n      pop\n        /* \"#utility.yul\":6513:6516   */\n      dup8\n        /* \"#utility.yul\":6506:6516   */\n      swap6\n      pop\n        /* \"#utility.yul\":5591:6522   */\n      pop\n      pop\n      pop\n      pop\n      pop\n        /* \"#utility.yul\":5419:6522   */\n      swap3\n      swap2\n      pop\n      pop\n      jump\t// out\n        /* \"#utility.yul\":6528:6637   */\n    tag_246:\n        /* \"#utility.yul\":6609:6630   */\n      tag_248\n        /* \"#utility.yul\":6624:6629   */\n      dup2\n        /* \"#utility.yul\":6609:6630   */\n      tag_249\n      jump\t// in\n    tag_248:\n        /* \"#utility.yul\":6604:6607   */\n      dup3\n        /* \"#utility.yul\":6597:6631   */\n      mstore\n        /* \"#utility.yul\":6528:6637   */\n      pop\n      pop\n      jump\t// out\n        /* \"#utility.yul\":6643:6987   */\n    tag_250:\n        /* \"#utility.yul\":6721:6724   */\n      0x00\n        /* \"#utility.yul\":6749:6788   */\n      tag_252\n        /* \"#utility.yul\":6782:6787   */\n      dup3\n        /* \"#utility.yul\":6749:6788   */\n      tag_253\n      jump\t// in\n    tag_252:\n        /* \"#utility.yul\":6804:6865   */\n      tag_254\n        /* \"#utility.yul\":6858:6864   */\n      dup2\n        /* \"#utility.yul\":6853:6856   */\n      dup6\n        /* \"#utility.yul\":6804:6865   */\n      tag_255\n      jump\t// in\n    tag_254:\n        /* \"#utility.yul\":6797:6865   */\n      swap4\n      pop\n        /* \"#utility.yul\":6874:6926   */\n      tag_256\n        /* \"#utility.yul\":6919:6925   */\n      dup2\n        /* \"#utility.yul\":6914:6917   */\n      dup6\n        /* \"#utility.yul\":6907:6911   */\n      0x20\n        /* \"#utility.yul\":6900:6905   */\n      dup7\n        /* \"#utility.yul\":6896:6912   */\n      add\n        /* \"#utility.yul\":6874:6926   */\n      tag_257\n      jump\t// in\n    tag_256:\n        /* \"#utility.yul\":6951:6980   */\n      tag_258\n        /* \"#utility.yul\":6973:6979   */\n      dup2\n        /* \"#utility.yul\":6951:6980   */\n      tag_259\n      jump\t// in\n    tag_258:\n        /* \"#utility.yul\":6946:6949   */\n      dup5\n        /* \"#utility.yul\":6942:6981   */\n      add\n        /* \"#utility.yul\":6935:6981   */\n      swap2\n      pop\n        /* \"#utility.yul\":6725:6987   */\n      pop\n        /* \"#utility.yul\":6643:6987   */\n      swap3\n      swap2\n      pop\n      pop\n      jump\t// out\n        /* \"#utility.yul\":6993:7357   */\n    tag_260:\n        /* \"#utility.yul\":7081:7084   */\n      0x00\n        /* \"#utility.yul\":7109:7148   */\n      tag_262\n        /* \"#utility.yul\":7142:7147   */\n      dup3\n        /* \"#utility.yul\":7109:7148   */\n      tag_253\n      jump\t// in\n    tag_262:\n        /* \"#utility.yul\":7164:7235   */\n      tag_263\n        /* \"#utility.yul\":7228:7234   */\n      dup2\n        /* \"#utility.yul\":7223:7226   */\n      dup6\n        /* \"#utility.yul\":7164:7235   */\n      tag_264\n      jump\t// in\n    tag_263:\n        /* \"#utility.yul\":7157:7235   */\n      swap4\n      pop\n        /* \"#utility.yul\":7244:7296   */\n      tag_265\n        /* \"#utility.yul\":7289:7295   */\n      dup2\n        /* \"#utility.yul\":7284:7287   */\n      dup6\n        /* \"#utility.yul\":7277:7281   */\n      0x20\n        /* \"#utility.yul\":7270:7275   */\n      dup7\n        /* \"#utility.yul\":7266:7282   */\n      add\n        /* \"#utility.yul\":7244:7296   */\n      tag_257\n      jump\t// in\n    tag_265:\n        /* \"#utility.yul\":7321:7350   */\n      tag_266\n        /* \"#utility.yul\":7343:7349   */\n      dup2\n        /* \"#utility.yul\":7321:7350   */\n      tag_259\n      jump\t// in\n    tag_266:\n        /* \"#utility.yul\":7316:7319   */\n      dup5\n        /* \"#utility.yul\":7312:7351   */\n      add\n        /* \"#utility.yul\":7305:7351   */\n      swap2\n      pop\n        /* \"#utility.yul\":7085:7357   */\n      pop\n        /* \"#utility.yul\":6993:7357   */\n      swap3\n      swap2\n      pop\n      pop\n      jump\t// out\n        /* \"#utility.yul\":7419:8015   */\n    tag_209:\n        /* \"#utility.yul\":7522:7525   */\n      0x00\n        /* \"#utility.yul\":7558:7562   */\n      0x40\n        /* \"#utility.yul\":7553:7556   */\n      dup4\n        /* \"#utility.yul\":7549:7563   */\n      add\n        /* \"#utility.yul\":7645:7649   */\n      0x00\n        /* \"#utility.yul\":7638:7643   */\n      dup4\n        /* \"#utility.yul\":7634:7650   */\n      add\n        /* \"#utility.yul\":7628:7651   */\n      mload\n        /* \"#utility.yul\":7698:7701   */\n      dup5\n        /* \"#utility.yul\":7692:7696   */\n      dup3\n        /* \"#utility.yul\":7688:7702   */\n      sub\n        /* \"#utility.yul\":7681:7685   */\n      0x00\n        /* \"#utility.yul\":7676:7679   */\n      dup7\n        /* \"#utility.yul\":7672:7686   */\n      add\n        /* \"#utility.yul\":7665:7703   */\n      mstore\n        /* \"#utility.yul\":7724:7797   */\n      tag_268\n        /* \"#utility.yul\":7792:7796   */\n      dup3\n        /* \"#utility.yul\":7778:7790   */\n      dup3\n        /* \"#utility.yul\":7724:7797   */\n      tag_250\n      jump\t// in\n    tag_268:\n        /* \"#utility.yul\":7716:7797   */\n      swap2\n      pop\n        /* \"#utility.yul\":7573:7808   */\n      pop\n        /* \"#utility.yul\":7896:7900   */\n      0x20\n        /* \"#utility.yul\":7889:7894   */\n      dup4\n        /* \"#utility.yul\":7885:7901   */\n      add\n        /* \"#utility.yul\":7879:7902   */\n      mload\n        /* \"#utility.yul\":7915:7978   */\n      tag_269\n        /* \"#utility.yul\":7972:7976   */\n      0x20\n        /* \"#utility.yul\":7967:7970   */\n      dup7\n        /* \"#utility.yul\":7963:7977   */\n      add\n        /* \"#utility.yul\":7949:7961   */\n      dup3\n        /* \"#utility.yul\":7915:7978   */\n      tag_270\n      jump\t// in\n    tag_269:\n        /* \"#utility.yul\":7818:7988   */\n      pop\n        /* \"#utility.yul\":8005:8009   */\n      dup1\n        /* \"#utility.yul\":7998:8009   */\n      swap2\n      pop\n        /* \"#utility.yul\":7527:8015   */\n      pop\n        /* \"#utility.yul\":7419:8015   */\n      swap3\n      swap2\n      pop\n      pop\n      jump\t// out\n        /* \"#utility.yul\":8081:9294   */\n    tag_213:\n        /* \"#utility.yul\":8188:8191   */\n      0x00\n        /* \"#utility.yul\":8224:8228   */\n      0xa0\n        /* \"#utility.yul\":8219:8222   */\n      dup4\n        /* \"#utility.yul\":8215:8229   */\n      add\n        /* \"#utility.yul\":8311:8315   */\n      0x00\n        /* \"#utility.yul\":8304:8309   */\n      dup4\n        /* \"#utility.yul\":8300:8316   */\n      add\n        /* \"#utility.yul\":8294:8317   */\n      mload\n        /* \"#utility.yul\":8364:8367   */\n      dup5\n        /* \"#utility.yul\":8358:8362   */\n      dup3\n        /* \"#utility.yul\":8354:8368   */\n      sub\n        /* \"#utility.yul\":8347:8351   */\n      0x00\n        /* \"#utility.yul\":8342:8345   */\n      dup7\n        /* \"#utility.yul\":8338:8352   */\n      add\n        /* \"#utility.yul\":8331:8369   */\n      mstore\n        /* \"#utility.yul\":8390:8463   */\n      tag_272\n        /* \"#utility.yul\":8458:8462   */\n      dup3\n        /* \"#utility.yul\":8444:8456   */\n      dup3\n        /* \"#utility.yul\":8390:8463   */\n      tag_250\n      jump\t// in\n    tag_272:\n        /* \"#utility.yul\":8382:8463   */\n      swap2\n      pop\n        /* \"#utility.yul\":8239:8474   */\n      pop\n        /* \"#utility.yul\":8563:8567   */\n      0x20\n        /* \"#utility.yul\":8556:8561   */\n      dup4\n        /* \"#utility.yul\":8552:8568   */\n      add\n        /* \"#utility.yul\":8546:8569   */\n      mload\n        /* \"#utility.yul\":8616:8619   */\n      dup5\n        /* \"#utility.yul\":8610:8614   */\n      dup3\n        /* \"#utility.yul\":8606:8620   */\n      sub\n        /* \"#utility.yul\":8599:8603   */\n      0x20\n        /* \"#utility.yul\":8594:8597   */\n      dup7\n        /* \"#utility.yul\":8590:8604   */\n      add\n        /* \"#utility.yul\":8583:8621   */\n      mstore\n        /* \"#utility.yul\":8642:8715   */\n      tag_273\n        /* \"#utility.yul\":8710:8714   */\n      dup3\n        /* \"#utility.yul\":8696:8708   */\n      dup3\n        /* \"#utility.yul\":8642:8715   */\n      tag_250\n      jump\t// in\n    tag_273:\n        /* \"#utility.yul\":8634:8715   */\n      swap2\n      pop\n        /* \"#utility.yul\":8484:8726   */\n      pop\n        /* \"#utility.yul\":8814:8818   */\n      0x40\n        /* \"#utility.yul\":8807:8812   */\n      dup4\n        /* \"#utility.yul\":8803:8819   */\n      add\n        /* \"#utility.yul\":8797:8820   */\n      mload\n        /* \"#utility.yul\":8833:8896   */\n      tag_274\n        /* \"#utility.yul\":8890:8894   */\n      0x40\n        /* \"#utility.yul\":8885:8888   */\n      dup7\n        /* \"#utility.yul\":8881:8895   */\n      add\n        /* \"#utility.yul\":8867:8879   */\n      dup3\n        /* \"#utility.yul\":8833:8896   */\n      tag_270\n      jump\t// in\n    tag_274:\n        /* \"#utility.yul\":8736:8906   */\n      pop\n        /* \"#utility.yul\":8996:9000   */\n      0x60\n        /* \"#utility.yul\":8989:8994   */\n      dup4\n        /* \"#utility.yul\":8985:9001   */\n      add\n        /* \"#utility.yul\":8979:9002   */\n      mload\n        /* \"#utility.yul\":9015:9078   */\n      tag_275\n        /* \"#utility.yul\":9072:9076   */\n      0x60\n        /* \"#utility.yul\":9067:9070   */\n      dup7\n        /* \"#utility.yul\":9063:9077   */\n      add\n        /* \"#utility.yul\":9049:9061   */\n      dup3\n        /* \"#utility.yul\":9015:9078   */\n      tag_270\n      jump\t// in\n    tag_275:\n        /* \"#utility.yul\":8916:9088   */\n      pop\n        /* \"#utility.yul\":9175:9179   */\n      0x80\n        /* \"#utility.yul\":9168:9173   */\n      dup4\n        /* \"#utility.yul\":9164:9180   */\n      add\n        /* \"#utility.yul\":9158:9181   */\n      mload\n        /* \"#utility.yul\":9194:9257   */\n      tag_276\n        /* \"#utility.yul\":9251:9255   */\n      0x80\n        /* \"#utility.yul\":9246:9249   */\n      dup7\n        /* \"#utility.yul\":9242:9256   */\n      add\n        /* \"#utility.yul\":9228:9240   */\n      dup3\n        /* \"#utility.yul\":9194:9257   */\n      tag_270\n      jump\t// in\n    tag_276:\n        /* \"#utility.yul\":9098:9267   */\n      pop\n        /* \"#utility.yul\":9284:9288   */\n      dup1\n        /* \"#utility.yul\":9277:9288   */\n      swap2\n      pop\n        /* \"#utility.yul\":8193:9294   */\n      pop\n        /* \"#utility.yul\":8081:9294   */\n      swap3\n      swap2\n      pop\n      pop\n      jump\t// out\n        /* \"#utility.yul\":9300:9408   */\n    tag_270:\n        /* \"#utility.yul\":9377:9401   */\n      tag_278\n        /* \"#utility.yul\":9395:9400   */\n      dup2\n        /* \"#utility.yul\":9377:9401   */\n      tag_279\n      jump\t// in\n    tag_278:\n        /* \"#utility.yul\":9372:9375   */\n      dup3\n        /* \"#utility.yul\":9365:9402   */\n      mstore\n        /* \"#utility.yul\":9300:9408   */\n      pop\n      pop\n      jump\t// out\n        /* \"#utility.yul\":9414:9532   */\n    tag_280:\n        /* \"#utility.yul\":9501:9525   */\n      tag_282\n        /* \"#utility.yul\":9519:9524   */\n      dup2\n        /* \"#utility.yul\":9501:9525   */\n      tag_279\n      jump\t// in\n    tag_282:\n        /* \"#utility.yul\":9496:9499   */\n      dup3\n        /* \"#utility.yul\":9489:9526   */\n      mstore\n        /* \"#utility.yul\":9414:9532   */\n      pop\n      pop\n      jump\t// out\n        /* \"#utility.yul\":9538:9999   */\n    tag_33:\n        /* \"#utility.yul\":9725:9729   */\n      0x00\n        /* \"#utility.yul\":9763:9765   */\n      0x20\n        /* \"#utility.yul\":9752:9761   */\n      dup3\n        /* \"#utility.yul\":9748:9766   */\n      add\n        /* \"#utility.yul\":9740:9766   */\n      swap1\n      pop\n        /* \"#utility.yul\":9812:9821   */\n      dup2\n        /* \"#utility.yul\":9806:9810   */\n      dup2\n        /* \"#utility.yul\":9802:9822   */\n      sub\n        /* \"#utility.yul\":9798:9799   */\n      0x00\n        /* \"#utility.yul\":9787:9796   */\n      dup4\n        /* \"#utility.yul\":9783:9800   */\n      add\n        /* \"#utility.yul\":9776:9823   */\n      mstore\n        /* \"#utility.yul\":9840:9992   */\n      tag_284\n        /* \"#utility.yul\":9987:9991   */\n      dup2\n        /* \"#utility.yul\":9978:9984   */\n      dup5\n        /* \"#utility.yul\":9840:9992   */\n      tag_218\n      jump\t// in\n    tag_284:\n        /* \"#utility.yul\":9832:9992   */\n      swap1\n      pop\n        /* \"#utility.yul\":9538:9999   */\n      swap3\n      swap2\n      pop\n      pop\n      jump\t// out\n        /* \"#utility.yul\":10005:10474   */\n    tag_41:\n        /* \"#utility.yul\":10196:10200   */\n      0x00\n        /* \"#utility.yul\":10234:10236   */\n      0x20\n        /* \"#utility.yul\":10223:10232   */\n      dup3\n        /* \"#utility.yul\":10219:10237   */\n      add\n        /* \"#utility.yul\":10211:10237   */\n      swap1\n      pop\n        /* \"#utility.yul\":10283:10292   */\n      dup2\n        /* \"#utility.yul\":10277:10281   */\n      dup2\n        /* \"#utility.yul\":10273:10293   */\n      sub\n        /* \"#utility.yul\":10269:10270   */\n      0x00\n        /* \"#utility.yul\":10258:10267   */\n      dup4\n        /* \"#utility.yul\":10254:10271   */\n      add\n        /* \"#utility.yul\":10247:10294   */\n      mstore\n        /* \"#utility.yul\":10311:10467   */\n      tag_286\n        /* \"#utility.yul\":10462:10466   */\n      dup2\n        /* \"#utility.yul\":10453:10459   */\n      dup5\n        /* \"#utility.yul\":10311:10467   */\n      tag_232\n      jump\t// in\n    tag_286:\n        /* \"#utility.yul\":10303:10467   */\n      swap1\n      pop\n        /* \"#utility.yul\":10005:10474   */\n      swap3\n      swap2\n      pop\n      pop\n      jump\t// out\n        /* \"#utility.yul\":10480:11536   */\n    tag_53:\n        /* \"#utility.yul\":10775:10779   */\n      0x00\n        /* \"#utility.yul\":10813:10816   */\n      0xe0\n        /* \"#utility.yul\":10802:10811   */\n      dup3\n        /* \"#utility.yul\":10798:10817   */\n      add\n        /* \"#utility.yul\":10790:10817   */\n      swap1\n      pop\n        /* \"#utility.yul\":10863:10872   */\n      dup2\n        /* \"#utility.yul\":10857:10861   */\n      dup2\n        /* \"#utility.yul\":10853:10873   */\n      sub\n        /* \"#utility.yul\":10849:10850   */\n      0x00\n        /* \"#utility.yul\":10838:10847   */\n      dup4\n        /* \"#utility.yul\":10834:10851   */\n      add\n        /* \"#utility.yul\":10827:10874   */\n      mstore\n        /* \"#utility.yul\":10891:10969   */\n      tag_288\n        /* \"#utility.yul\":10964:10968   */\n      dup2\n        /* \"#utility.yul\":10955:10961   */\n      dup11\n        /* \"#utility.yul\":10891:10969   */\n      tag_260\n      jump\t// in\n    tag_288:\n        /* \"#utility.yul\":10883:10969   */\n      swap1\n      pop\n        /* \"#utility.yul\":11016:11025   */\n      dup2\n        /* \"#utility.yul\":11010:11014   */\n      dup2\n        /* \"#utility.yul\":11006:11026   */\n      sub\n        /* \"#utility.yul\":11001:11003   */\n      0x20\n        /* \"#utility.yul\":10990:10999   */\n      dup4\n        /* \"#utility.yul\":10986:11004   */\n      add\n        /* \"#utility.yul\":10979:11027   */\n      mstore\n        /* \"#utility.yul\":11044:11122   */\n      tag_289\n        /* \"#utility.yul\":11117:11121   */\n      dup2\n        /* \"#utility.yul\":11108:11114   */\n      dup10\n        /* \"#utility.yul\":11044:11122   */\n      tag_260\n      jump\t// in\n    tag_289:\n        /* \"#utility.yul\":11036:11122   */\n      swap1\n      pop\n        /* \"#utility.yul\":11132:11204   */\n      tag_290\n        /* \"#utility.yul\":11200:11202   */\n      0x40\n        /* \"#utility.yul\":11189:11198   */\n      dup4\n        /* \"#utility.yul\":11185:11203   */\n      add\n        /* \"#utility.yul\":11176:11182   */\n      dup9\n        /* \"#utility.yul\":11132:11204   */\n      tag_280\n      jump\t// in\n    tag_290:\n        /* \"#utility.yul\":11214:11286   */\n      tag_291\n        /* \"#utility.yul\":11282:11284   */\n      0x60\n        /* \"#utility.yul\":11271:11280   */\n      dup4\n        /* \"#utility.yul\":11267:11285   */\n      add\n        /* \"#utility.yul\":11258:11264   */\n      dup8\n        /* \"#utility.yul\":11214:11286   */\n      tag_214\n      jump\t// in\n    tag_291:\n        /* \"#utility.yul\":11296:11369   */\n      tag_292\n        /* \"#utility.yul\":11364:11367   */\n      0x80\n        /* \"#utility.yul\":11353:11362   */\n      dup4\n        /* \"#utility.yul\":11349:11368   */\n      add\n        /* \"#utility.yul\":11340:11346   */\n      dup7\n        /* \"#utility.yul\":11296:11369   */\n      tag_280\n      jump\t// in\n    tag_292:\n        /* \"#utility.yul\":11379:11446   */\n      tag_293\n        /* \"#utility.yul\":11441:11444   */\n      0xa0\n        /* \"#utility.yul\":11430:11439   */\n      dup4\n        /* \"#utility.yul\":11426:11445   */\n      add\n        /* \"#utility.yul\":11417:11423   */\n      dup6\n        /* \"#utility.yul\":11379:11446   */\n      tag_246\n      jump\t// in\n    tag_293:\n        /* \"#utility.yul\":11456:11529   */\n      tag_294\n        /* \"#utility.yul\":11524:11527   */\n      0xc0\n        /* \"#utility.yul\":11513:11522   */\n      dup4\n        /* \"#utility.yul\":11509:11528   */\n      add\n        /* \"#utility.yul\":11500:11506   */\n      dup5\n        /* \"#utility.yul\":11456:11529   */\n      tag_280\n      jump\t// in\n    tag_294:\n        /* \"#utility.yul\":10480:11536   */\n      swap9\n      swap8\n      pop\n      pop\n      pop\n      pop\n      pop\n      pop\n      pop\n      pop\n      jump\t// out\n        /* \"#utility.yul\":11542:11764   */\n    tag_20:\n        /* \"#utility.yul\":11635:11639   */\n      0x00\n        /* \"#utility.yul\":11673:11675   */\n      0x20\n        /* \"#utility.yul\":11662:11671   */\n      dup3\n        /* \"#utility.yul\":11658:11676   */\n      add\n        /* \"#utility.yul\":11650:11676   */\n      swap1\n      pop\n        /* \"#utility.yul\":11686:11757   */\n      tag_296\n        /* \"#utility.yul\":11754:11755   */\n      0x00\n        /* \"#utility.yul\":11743:11752   */\n      dup4\n        /* \"#utility.yul\":11739:11756   */\n      add\n        /* \"#utility.yul\":11730:11736   */\n      dup5\n        /* \"#utility.yul\":11686:11757   */\n      tag_280\n      jump\t// in\n    tag_296:\n        /* \"#utility.yul\":11542:11764   */\n      swap3\n      swap2\n      pop\n      pop\n      jump\t// out\n        /* \"#utility.yul\":11770:11899   */\n    tag_160:\n        /* \"#utility.yul\":11804:11810   */\n      0x00\n        /* \"#utility.yul\":11831:11851   */\n      tag_298\n      tag_299\n      jump\t// in\n    tag_298:\n        /* \"#utility.yul\":11821:11851   */\n      swap1\n      pop\n        /* \"#utility.yul\":11860:11893   */\n      tag_300\n        /* \"#utility.yul\":11888:11892   */\n      dup3\n        /* \"#utility.yul\":11880:11886   */\n      dup3\n        /* \"#utility.yul\":11860:11893   */\n      tag_301\n      jump\t// in\n    tag_300:\n        /* \"#utility.yul\":11770:11899   */\n      swap2\n      swap1\n      pop\n      jump\t// out\n        /* \"#utility.yul\":11905:11980   */\n    tag_299:\n        /* \"#utility.yul\":11938:11944   */\n      0x00\n        /* \"#utility.yul\":11971:11973   */\n      0x40\n        /* \"#utility.yul\":11965:11974   */\n      mload\n        /* \"#utility.yul\":11955:11974   */\n      swap1\n      pop\n        /* \"#utility.yul\":11905:11980   */\n      swap1\n      jump\t// out\n        /* \"#utility.yul\":11986:12294   */\n    tag_159:\n        /* \"#utility.yul\":12048:12052   */\n      0x00\n        /* \"#utility.yul\":12138:12156   */\n      0xffffffffffffffff\n        /* \"#utility.yul\":12130:12136   */\n      dup3\n        /* \"#utility.yul\":12127:12157   */\n      gt\n        /* \"#utility.yul\":12124:12180   */\n      iszero\n      tag_304\n      jumpi\n        /* \"#utility.yul\":12160:12178   */\n      tag_305\n      tag_74\n      jump\t// in\n    tag_305:\n        /* \"#utility.yul\":12124:12180   */\n    tag_304:\n        /* \"#utility.yul\":12198:12227   */\n      tag_306\n        /* \"#utility.yul\":12220:12226   */\n      dup3\n        /* \"#utility.yul\":12198:12227   */\n      tag_259\n      jump\t// in\n    tag_306:\n        /* \"#utility.yul\":12190:12227   */\n      swap1\n      pop\n        /* \"#utility.yul\":12282:12286   */\n      0x20\n        /* \"#utility.yul\":12276:12280   */\n      dup2\n        /* \"#utility.yul\":12272:12287   */\n      add\n        /* \"#utility.yul\":12264:12287   */\n      swap1\n      pop\n        /* \"#utility.yul\":11986:12294   */\n      swap2\n      swap1\n      pop\n      jump\t// out\n        /* \"#utility.yul\":12300:12454   */\n    tag_225:\n        /* \"#utility.yul\":12389:12393   */\n      0x00\n        /* \"#utility.yul\":12412:12415   */\n      dup2\n        /* \"#utility.yul\":12404:12415   */\n      swap1\n      pop\n        /* \"#utility.yul\":12442:12446   */\n      0x20\n        /* \"#utility.yul\":12437:12440   */\n      dup3\n        /* \"#utility.yul\":12433:12447   */\n      add\n        /* \"#utility.yul\":12425:12447   */\n      swap1\n      pop\n        /* \"#utility.yul\":12300:12454   */\n      swap2\n      swap1\n      pop\n      jump\t// out\n        /* \"#utility.yul\":12460:12616   */\n    tag_239:\n        /* \"#utility.yul\":12551:12555   */\n      0x00\n        /* \"#utility.yul\":12574:12577   */\n      dup2\n        /* \"#utility.yul\":12566:12577   */\n      swap1\n      pop\n        /* \"#utility.yul\":12604:12608   */\n      0x20\n        /* \"#utility.yul\":12599:12602   */\n      dup3\n        /* \"#utility.yul\":12595:12609   */\n      add\n        /* \"#utility.yul\":12587:12609   */\n      swap1\n      pop\n        /* \"#utility.yul\":12460:12616   */\n      swap2\n      swap1\n      pop\n      jump\t// out\n        /* \"#utility.yul\":12622:12758   */\n    tag_221:\n        /* \"#utility.yul\":12711:12717   */\n      0x00\n        /* \"#utility.yul\":12745:12750   */\n      dup2\n        /* \"#utility.yul\":12739:12751   */\n      mload\n        /* \"#utility.yul\":12729:12751   */\n      swap1\n      pop\n        /* \"#utility.yul\":12622:12758   */\n      swap2\n      swap1\n      pop\n      jump\t// out\n        /* \"#utility.yul\":12764:12902   */\n    tag_235:\n        /* \"#utility.yul\":12855:12861   */\n      0x00\n        /* \"#utility.yul\":12889:12894   */\n      dup2\n        /* \"#utility.yul\":12883:12895   */\n      mload\n        /* \"#utility.yul\":12873:12895   */\n      swap1\n      pop\n        /* \"#utility.yul\":12764:12902   */\n      swap2\n      swap1\n      pop\n      jump\t// out\n        /* \"#utility.yul\":12908:13007   */\n    tag_253:\n        /* \"#utility.yul\":12960:12966   */\n      0x00\n        /* \"#utility.yul\":12994:12999   */\n      dup2\n        /* \"#utility.yul\":12988:13000   */\n      mload\n        /* \"#utility.yul\":12978:13000   */\n      swap1\n      pop\n        /* \"#utility.yul\":12908:13007   */\n      swap2\n      swap1\n      pop\n      jump\t// out\n        /* \"#utility.yul\":13013:13148   */\n    tag_231:\n        /* \"#utility.yul\":13105:13109   */\n      0x00\n        /* \"#utility.yul\":13137:13141   */\n      0x20\n        /* \"#utility.yul\":13132:13135   */\n      dup3\n        /* \"#utility.yul\":13128:13142   */\n      add\n        /* \"#utility.yul\":13120:13142   */\n      swap1\n      pop\n        /* \"#utility.yul\":13013:13148   */\n      swap2\n      swap1\n      pop\n      jump\t// out\n        /* \"#utility.yul\":13154:13291   */\n    tag_245:\n        /* \"#utility.yul\":13248:13252   */\n      0x00\n        /* \"#utility.yul\":13280:13284   */\n      0x20\n        /* \"#utility.yul\":13275:13278   */\n      dup3\n        /* \"#utility.yul\":13271:13285   */\n      add\n        /* \"#utility.yul\":13263:13285   */\n      swap1\n      pop\n        /* \"#utility.yul\":13154:13291   */\n      swap2\n      swap1\n      pop\n      jump\t// out\n        /* \"#utility.yul\":13297:13503   */\n    tag_223:\n        /* \"#utility.yul\":13418:13429   */\n      0x00\n        /* \"#utility.yul\":13452:13458   */\n      dup3\n        /* \"#utility.yul\":13447:13450   */\n      dup3\n        /* \"#utility.yul\":13440:13459   */\n      mstore\n        /* \"#utility.yul\":13492:13496   */\n      0x20\n        /* \"#utility.yul\":13487:13490   */\n      dup3\n        /* \"#utility.yul\":13483:13497   */\n      add\n        /* \"#utility.yul\":13468:13497   */\n      swap1\n      pop\n        /* \"#utility.yul\":13297:13503   */\n      swap3\n      swap2\n      pop\n      pop\n      jump\t// out\n        /* \"#utility.yul\":13509:13717   */\n    tag_237:\n        /* \"#utility.yul\":13632:13643   */\n      0x00\n        /* \"#utility.yul\":13666:13672   */\n      dup3\n        /* \"#utility.yul\":13661:13664   */\n      dup3\n        /* \"#utility.yul\":13654:13673   */\n      mstore\n        /* \"#utility.yul\":13706:13710   */\n      0x20\n        /* \"#utility.yul\":13701:13704   */\n      dup3\n        /* \"#utility.yul\":13697:13711   */\n      add\n        /* \"#utility.yul\":13682:13711   */\n      swap1\n      pop\n        /* \"#utility.yul\":13509:13717   */\n      swap3\n      swap2\n      pop\n      pop\n      jump\t// out\n        /* \"#utility.yul\":13723:13882   */\n    tag_255:\n        /* \"#utility.yul\":13797:13808   */\n      0x00\n        /* \"#utility.yul\":13831:13837   */\n      dup3\n        /* \"#utility.yul\":13826:13829   */\n      dup3\n        /* \"#utility.yul\":13819:13838   */\n      mstore\n        /* \"#utility.yul\":13871:13875   */\n      0x20\n        /* \"#utility.yul\":13866:13869   */\n      dup3\n        /* \"#utility.yul\":13862:13876   */\n      add\n        /* \"#utility.yul\":13847:13876   */\n      swap1\n      pop\n        /* \"#utility.yul\":13723:13882   */\n      swap3\n      swap2\n      pop\n      pop\n      jump\t// out\n        /* \"#utility.yul\":13888:14057   */\n    tag_264:\n        /* \"#utility.yul\":13972:13983   */\n      0x00\n        /* \"#utility.yul\":14006:14012   */\n      dup3\n        /* \"#utility.yul\":14001:14004   */\n      dup3\n        /* \"#utility.yul\":13994:14013   */\n      mstore\n        /* \"#utility.yul\":14046:14050   */\n      0x20\n        /* \"#utility.yul\":14041:14044   */\n      dup3\n        /* \"#utility.yul\":14037:14051   */\n      add\n        /* \"#utility.yul\":14022:14051   */\n      swap1\n      pop\n        /* \"#utility.yul\":13888:14057   */\n      swap3\n      swap2\n      pop\n      pop\n      jump\t// out\n        /* \"#utility.yul\":14063:14254   */\n    tag_69:\n        /* \"#utility.yul\":14103:14107   */\n      0x00\n        /* \"#utility.yul\":14123:14143   */\n      tag_319\n        /* \"#utility.yul\":14141:14142   */\n      dup3\n        /* \"#utility.yul\":14123:14143   */\n      tag_279\n      jump\t// in\n    tag_319:\n        /* \"#utility.yul\":14118:14143   */\n      swap2\n      pop\n        /* \"#utility.yul\":14157:14177   */\n      tag_320\n        /* \"#utility.yul\":14175:14176   */\n      dup4\n        /* \"#utility.yul\":14157:14177   */\n      tag_279\n      jump\t// in\n    tag_320:\n        /* \"#utility.yul\":14152:14177   */\n      swap3\n      pop\n        /* \"#utility.yul\":14196:14197   */\n      dup3\n        /* \"#utility.yul\":14193:14194   */\n      dup3\n        /* \"#utility.yul\":14190:14198   */\n      lt\n        /* \"#utility.yul\":14187:14221   */\n      iszero\n      tag_321\n      jumpi\n        /* \"#utility.yul\":14201:14219   */\n      tag_322\n      tag_323\n      jump\t// in\n    tag_322:\n        /* \"#utility.yul\":14187:14221   */\n    tag_321:\n        /* \"#utility.yul\":14246:14247   */\n      dup3\n        /* \"#utility.yul\":14243:14244   */\n      dup3\n        /* \"#utility.yul\":14239:14248   */\n      sub\n        /* \"#utility.yul\":14231:14248   */\n      swap1\n      pop\n        /* \"#utility.yul\":14063:14254   */\n      swap3\n      swap2\n      pop\n      pop\n      jump\t// out\n        /* \"#utility.yul\":14260:14356   */\n    tag_217:\n        /* \"#utility.yul\":14297:14304   */\n      0x00\n        /* \"#utility.yul\":14326:14350   */\n      tag_325\n        /* \"#utility.yul\":14344:14349   */\n      dup3\n        /* \"#utility.yul\":14326:14350   */\n      tag_326\n      jump\t// in\n    tag_325:\n        /* \"#utility.yul\":14315:14350   */\n      swap1\n      pop\n        /* \"#utility.yul\":14260:14356   */\n      swap2\n      swap1\n      pop\n      jump\t// out\n        /* \"#utility.yul\":14362:14452   */\n    tag_249:\n        /* \"#utility.yul\":14396:14403   */\n      0x00\n        /* \"#utility.yul\":14439:14444   */\n      dup2\n        /* \"#utility.yul\":14432:14445   */\n      iszero\n        /* \"#utility.yul\":14425:14446   */\n      iszero\n        /* \"#utility.yul\":14414:14446   */\n      swap1\n      pop\n        /* \"#utility.yul\":14362:14452   */\n      swap2\n      swap1\n      pop\n      jump\t// out\n        /* \"#utility.yul\":14458:14584   */\n    tag_326:\n        /* \"#utility.yul\":14495:14502   */\n      0x00\n        /* \"#utility.yul\":14535:14577   */\n      0xffffffffffffffffffffffffffffffffffffffff\n        /* \"#utility.yul\":14528:14533   */\n      dup3\n        /* \"#utility.yul\":14524:14578   */\n      and\n        /* \"#utility.yul\":14513:14578   */\n      swap1\n      pop\n        /* \"#utility.yul\":14458:14584   */\n      swap2\n      swap1\n      pop\n      jump\t// out\n        /* \"#utility.yul\":14590:14667   */\n    tag_279:\n        /* \"#utility.yul\":14627:14634   */\n      0x00\n        /* \"#utility.yul\":14656:14661   */\n      dup2\n        /* \"#utility.yul\":14645:14661   */\n      swap1\n      pop\n        /* \"#utility.yul\":14590:14667   */\n      swap2\n      swap1\n      pop\n      jump\t// out\n        /* \"#utility.yul\":14673:14827   */\n    tag_165:\n        /* \"#utility.yul\":14757:14763   */\n      dup3\n        /* \"#utility.yul\":14752:14755   */\n      dup2\n        /* \"#utility.yul\":14747:14750   */\n      dup4\n        /* \"#utility.yul\":14734:14764   */\n      calldatacopy\n        /* \"#utility.yul\":14819:14820   */\n      0x00\n        /* \"#utility.yul\":14810:14816   */\n      dup4\n        /* \"#utility.yul\":14805:14808   */\n      dup4\n        /* \"#utility.yul\":14801:14817   */\n      add\n        /* \"#utility.yul\":14794:14821   */\n      mstore\n        /* \"#utility.yul\":14673:14827   */\n      pop\n      pop\n      pop\n      jump\t// out\n        /* \"#utility.yul\":14833:15140   */\n    tag_257:\n        /* \"#utility.yul\":14901:14902   */\n      0x00\n        /* \"#utility.yul\":14911:15024   */\n    tag_332:\n        /* \"#utility.yul\":14925:14931   */\n      dup4\n        /* \"#utility.yul\":14922:14923   */\n      dup2\n        /* \"#utility.yul\":14919:14932   */\n      lt\n        /* \"#utility.yul\":14911:15024   */\n      iszero\n      tag_334\n      jumpi\n        /* \"#utility.yul\":15010:15011   */\n      dup1\n        /* \"#utility.yul\":15005:15008   */\n      dup3\n        /* \"#utility.yul\":15001:15012   */\n      add\n        /* \"#utility.yul\":14995:15013   */\n      mload\n        /* \"#utility.yul\":14991:14992   */\n      dup2\n        /* \"#utility.yul\":14986:14989   */\n      dup5\n        /* \"#utility.yul\":14982:14993   */\n      add\n        /* \"#utility.yul\":14975:15014   */\n      mstore\n        /* \"#utility.yul\":14947:14949   */\n      0x20\n        /* \"#utility.yul\":14944:14945   */\n      dup2\n        /* \"#utility.yul\":14940:14950   */\n      add\n        /* \"#utility.yul\":14935:14950   */\n      swap1\n      pop\n        /* \"#utility.yul\":14911:15024   */\n      jump(tag_332)\n    tag_334:\n        /* \"#utility.yul\":15042:15048   */\n      dup4\n        /* \"#utility.yul\":15039:15040   */\n      dup2\n        /* \"#utility.yul\":15036:15049   */\n      gt\n        /* \"#utility.yul\":15033:15134   */\n      iszero\n      tag_335\n      jumpi\n        /* \"#utility.yul\":15122:15123   */\n      0x00\n        /* \"#utility.yul\":15113:15119   */\n      dup5\n        /* \"#utility.yul\":15108:15111   */\n      dup5\n        /* \"#utility.yul\":15104:15120   */\n      add\n        /* \"#utility.yul\":15097:15124   */\n      mstore\n        /* \"#utility.yul\":15033:15134   */\n    tag_335:\n        /* \"#utility.yul\":14882:15140   */\n      pop\n        /* \"#utility.yul\":14833:15140   */\n      pop\n      pop\n      pop\n      jump\t// out\n        /* \"#utility.yul\":15146:15466   */\n    tag_83:\n        /* \"#utility.yul\":15190:15196   */\n      0x00\n        /* \"#utility.yul\":15227:15228   */\n      0x02\n        /* \"#utility.yul\":15221:15225   */\n      dup3\n        /* \"#utility.yul\":15217:15229   */\n      div\n        /* \"#utility.yul\":15207:15229   */\n      swap1\n      pop\n        /* \"#utility.yul\":15274:15275   */\n      0x01\n        /* \"#utility.yul\":15268:15272   */\n      dup3\n        /* \"#utility.yul\":15264:15276   */\n      and\n        /* \"#utility.yul\":15295:15313   */\n      dup1\n        /* \"#utility.yul\":15285:15366   */\n      tag_337\n      jumpi\n        /* \"#utility.yul\":15351:15355   */\n      0x7f\n        /* \"#utility.yul\":15343:15349   */\n      dup3\n        /* \"#utility.yul\":15339:15356   */\n      and\n        /* \"#utility.yul\":15329:15356   */\n      swap2\n      pop\n        /* \"#utility.yul\":15285:15366   */\n    tag_337:\n        /* \"#utility.yul\":15413:15415   */\n      0x20\n        /* \"#utility.yul\":15405:15411   */\n      dup3\n        /* \"#utility.yul\":15402:15416   */\n      lt\n        /* \"#utility.yul\":15382:15400   */\n      dup2\n        /* \"#utility.yul\":15379:15417   */\n      eq\n        /* \"#utility.yul\":15376:15460   */\n      iszero\n      tag_338\n      jumpi\n        /* \"#utility.yul\":15432:15450   */\n      tag_339\n      tag_340\n      jump\t// in\n    tag_339:\n        /* \"#utility.yul\":15376:15460   */\n    tag_338:\n        /* \"#utility.yul\":15197:15466   */\n      pop\n        /* \"#utility.yul\":15146:15466   */\n      swap2\n      swap1\n      pop\n      jump\t// out\n        /* \"#utility.yul\":15472:15753   */\n    tag_301:\n        /* \"#utility.yul\":15555:15582   */\n      tag_342\n        /* \"#utility.yul\":15577:15581   */\n      dup3\n        /* \"#utility.yul\":15555:15582   */\n      tag_259\n      jump\t// in\n    tag_342:\n        /* \"#utility.yul\":15547:15553   */\n      dup2\n        /* \"#utility.yul\":15543:15583   */\n      add\n        /* \"#utility.yul\":15685:15691   */\n      dup2\n        /* \"#utility.yul\":15673:15683   */\n      dup2\n        /* \"#utility.yul\":15670:15692   */\n      lt\n        /* \"#utility.yul\":15649:15667   */\n      0xffffffffffffffff\n        /* \"#utility.yul\":15637:15647   */\n      dup3\n        /* \"#utility.yul\":15634:15668   */\n      gt\n        /* \"#utility.yul\":15631:15693   */\n      or\n        /* \"#utility.yul\":15628:15716   */\n      iszero\n      tag_343\n      jumpi\n        /* \"#utility.yul\":15696:15714   */\n      tag_344\n      tag_74\n      jump\t// in\n    tag_344:\n        /* \"#utility.yul\":15628:15716   */\n    tag_343:\n        /* \"#utility.yul\":15736:15746   */\n      dup1\n        /* \"#utility.yul\":15732:15734   */\n      0x40\n        /* \"#utility.yul\":15725:15747   */\n      mstore\n        /* \"#utility.yul\":15515:15753   */\n      pop\n        /* \"#utility.yul\":15472:15753   */\n      pop\n      pop\n      jump\t// out\n        /* \"#utility.yul\":15759:15992   */\n    tag_64:\n        /* \"#utility.yul\":15798:15801   */\n      0x00\n        /* \"#utility.yul\":15821:15845   */\n      tag_346\n        /* \"#utility.yul\":15839:15844   */\n      dup3\n        /* \"#utility.yul\":15821:15845   */\n      tag_279\n      jump\t// in\n    tag_346:\n        /* \"#utility.yul\":15812:15845   */\n      swap2\n      pop\n        /* \"#utility.yul\":15867:15933   */\n      0xffffffffffffffffffffffffffffffffffffffffffffffffffffffffffffffff\n        /* \"#utility.yul\":15860:15865   */\n      dup3\n        /* \"#utility.yul\":15857:15934   */\n      eq\n        /* \"#utility.yul\":15854:15957   */\n      iszero\n      tag_347\n      jumpi\n        /* \"#utility.yul\":15937:15955   */\n      tag_348\n      tag_323\n      jump\t// in\n    tag_348:\n        /* \"#utility.yul\":15854:15957   */\n    tag_347:\n        /* \"#utility.yul\":15984:15985   */\n      0x01\n        /* \"#utility.yul\":15977:15982   */\n      dup3\n        /* \"#utility.yul\":15973:15986   */\n      add\n        /* \"#utility.yul\":15966:15986   */\n      swap1\n      pop\n        /* \"#utility.yul\":15759:15992   */\n      swap2\n      swap1\n      pop\n      jump\t// out\n        /* \"#utility.yul\":15998:16178   */\n    tag_323:\n        /* \"#utility.yul\":16046:16123   */\n      0x4e487b7100000000000000000000000000000000000000000000000000000000\n        /* \"#utility.yul\":16043:16044   */\n      0x00\n        /* \"#utility.yul\":16036:16124   */\n      mstore\n        /* \"#utility.yul\":16143:16147   */\n      0x11\n        /* \"#utility.yul\":16140:16141   */\n      0x04\n        /* \"#utility.yul\":16133:16148   */\n      mstore\n        /* \"#utility.yul\":16167:16171   */\n      0x24\n        /* \"#utility.yul\":16164:16165   */\n      0x00\n        /* \"#utility.yul\":16157:16172   */\n      revert\n        /* \"#utility.yul\":16184:16364   */\n    tag_340:\n        /* \"#utility.yul\":16232:16309   */\n      0x4e487b7100000000000000000000000000000000000000000000000000000000\n        /* \"#utility.yul\":16229:16230   */\n      0x00\n        /* \"#utility.yul\":16222:16310   */\n      mstore\n        /* \"#utility.yul\":16329:16333   */\n      0x22\n        /* \"#utility.yul\":16326:16327   */\n      0x04\n        /* \"#utility.yul\":16319:16334   */\n      mstore\n        /* \"#utility.yul\":16353:16357   */\n      0x24\n        /* \"#utility.yul\":16350:16351   */\n      0x00\n        /* \"#utility.yul\":16343:16358   */\n      revert\n        /* \"#utility.yul\":16370:16550   */\n    tag_90:\n        /* \"#utility.yul\":16418:16495   */\n      0x4e487b7100000000000000000000000000000000000000000000000000000000\n        /* \"#utility.yul\":16415:16416   */\n      0x00\n        /* \"#utility.yul\":16408:16496   */\n      mstore\n        /* \"#utility.yul\":16515:16519   */\n      0x32\n        /* \"#utility.yul\":16512:16513   */\n      0x04\n        /* \"#utility.yul\":16505:16520   */\n      mstore\n        /* \"#utility.yul\":16539:16543   */\n      0x24\n        /* \"#utility.yul\":16536:16537   */\n      0x00\n        /* \"#utility.yul\":16529:16544   */\n      revert\n        /* \"#utility.yul\":16556:16736   */\n    tag_74:\n        /* \"#utility.yul\":16604:16681   */\n      0x4e487b7100000000000000000000000000000000000000000000000000000000\n        /* \"#utility.yul\":16601:16602   */\n      0x00\n        /* \"#utility.yul\":16594:16682   */\n      mstore\n        /* \"#utility.yul\":16701:16705   */\n      0x41\n        /* \"#utility.yul\":16698:16699   */\n      0x04\n        /* \"#utility.yul\":16691:16706   */\n      mstore\n        /* \"#utility.yul\":16725:16729   */\n      0x24\n        /* \"#utility.yul\":16722:16723   */\n      0x00\n        /* \"#utility.yul\":16715:16730   */\n      revert\n        /* \"#utility.yul\":16742:16859   */\n    tag_170:\n        /* \"#utility.yul\":16851:16852   */\n      0x00\n        /* \"#utility.yul\":16848:16849   */\n      dup1\n        /* \"#utility.yul\":16841:16853   */\n      revert\n        /* \"#utility.yul\":16865:16982   */\n    tag_163:\n        /* \"#utility.yul\":16974:16975   */\n      0x00\n        /* \"#utility.yul\":16971:16972   */\n      dup1\n        /* \"#utility.yul\":16964:16976   */\n      revert\n        /* \"#utility.yul\":16988:17105   */\n    tag_182:\n        /* \"#utility.yul\":17097:17098   */\n      0x00\n        /* \"#utility.yul\":17094:17095   */\n      dup1\n        /* \"#utility.yul\":17087:17099   */\n      revert\n        /* \"#utility.yul\":17111:17228   */\n    tag_179:\n        /* \"#utility.yul\":17220:17221   */\n      0x00\n        /* \"#utility.yul\":17217:17218   */\n      dup1\n        /* \"#utility.yul\":17210:17222   */\n      revert\n        /* \"#utility.yul\":17234:17336   */\n    tag_259:\n        /* \"#utility.yul\":17275:17281   */\n      0x00\n        /* \"#utility.yul\":17326:17328   */\n      0x1f\n        /* \"#utility.yul\":17322:17329   */\n      not\n        /* \"#utility.yul\":17317:17319   */\n      0x1f\n        /* \"#utility.yul\":17310:17315   */\n      dup4\n        /* \"#utility.yul\":17306:17320   */\n      add\n        /* \"#utility.yul\":17302:17330   */\n      and\n        /* \"#utility.yul\":17292:17330   */\n      swap1\n      pop\n        /* \"#utility.yul\":17234:17336   */\n      swap2\n      swap1\n      pop\n      jump\t// out\n        /* \"#utility.yul\":17342:17464   */\n    tag_175:\n        /* \"#utility.yul\":17415:17439   */\n      tag_359\n        /* \"#utility.yul\":17433:17438   */\n      dup2\n        /* \"#utility.yul\":17415:17439   */\n      tag_279\n      jump\t// in\n    tag_359:\n        /* \"#utility.yul\":17408:17413   */\n      dup2\n        /* \"#utility.yul\":17405:17440   */\n      eq\n        /* \"#utility.yul\":17395:17458   */\n      tag_360\n      jumpi\n        /* \"#utility.yul\":17454:17455   */\n      0x00\n        /* \"#utility.yul\":17451:17452   */\n      dup1\n        /* \"#utility.yul\":17444:17456   */\n      revert\n        /* \"#utility.yul\":17395:17458   */\n    tag_360:\n        /* \"#utility.yul\":17342:17464   */\n      pop\n      jump\t// out\n\n    auxdata: 0xa264697066735822122098f3d46d527a6e362ed6c270dcd309e986d048c311ace2d096534b9fc17f978364736f6c63430008070033\n}\n",
				"bytecode": {
					"linkReferences": {},
					"object": "60806040526000600155600060025534801561001a57600080fd5b5061161c8061002a6000396000f3fe608060405234801561001057600080fd5b50600436106100a95760003560e01c80638ec08354116100715780638ec083541461018c578063a1bbfc05146101aa578063a901d15c146101c6578063ac4afa38146101e2578063ea57d5d414610218578063fcbd2a8814610234576100a9565b8063186dd066146100ae5780635ea81a32146100de5780637e1d9ba51461010e5780638915b3fb1461012c5780638c8e54fb1461015c575b600080fd5b6100c860048036038101906100c39190610e41565b610252565b6040516100d59190611274565b60405180910390f35b6100f860048036038101906100f39190610dc9565b610271565b6040516101059190611274565b60405180910390f35b610116610371565b6040516101239190611274565b60405180910390f35b61014660048036038101906101419190610e41565b610377565b60405161015391906111b3565b60405180910390f35b61017660048036038101906101719190610e41565b61050e565b6040516101839190611274565b60405180910390f35b61019461052d565b6040516101a191906111d5565b60405180910390f35b6101c460048036038101906101bf9190610eca565b6107a6565b005b6101e060048036038101906101db9190610e41565b61091e565b005b6101fc60048036038101906101f79190610e41565b6109dc565b60405161020f97969594939291906111f7565b60405180910390f35b610232600480360381019061022d9190610e6e565b610b5b565b005b61023c610c52565b6040516102499190611274565b60405180910390f35b6000806000838152602001908152602001600020600601549050919050565b6000806000806001600081548092919061028a906114a5565b9190505581526020019081526020016000209050838160000190805190602001906102b6929190610c58565b50828160010190805190602001906102cf929190610c58565b5060008160020181905550338160030160006101000a81548173ffffffffffffffffffffffffffffffffffffffff021916908373ffffffffffffffffffffffffffffffffffffffff1602179055506000816006018190555060008160070160006101000a81548160ff021916908315150217905550600180546103529190611384565b8160080181905550600180546103689190611384565b91505092915050565b60025481565b606060008060008481526020019081526020016000206006015467ffffffffffffffff8111156103aa576103a961157b565b5b6040519080825280602002602001820160405280156103e357816020015b6103d0610cde565b8152602001906001900390816103c85790505b50905060005b6000808581526020019081526020016000206006015481101561050457600080858152602001908152602001600020600501600082815260200190815260200160002060405180604001604052908160008201805461044790611442565b80601f016020809104026020016040519081016040528092919081815260200182805461047390611442565b80156104c05780601f10610495576101008083540402835291602001916104c0565b820191906000526020600020905b8154815290600101906020018083116104a357829003601f168201915b505050505081526020016001820154815250508282815181106104e6576104e561154c565b5b602002602001018190525080806104fc906114a5565b9150506103e9565b5080915050919050565b6000806000838152602001908152602001600020600201549050919050565b6060600060025467ffffffffffffffff81111561054d5761054c61157b565b5b60405190808252806020026020018201604052801561058657816020015b610573610cf8565b81526020019060019003908161056b5790505b5090506000805b60015481101561079d5760008082815260200190815260200160002060070160009054906101000a900460ff161561078a576040518060a0016040528060008084815260200190815260200160002060000180546105ea90611442565b80601f016020809104026020016040519081016040528092919081815260200182805461061690611442565b80156106635780601f1061063857610100808354040283529160200191610663565b820191906000526020600020905b81548152906001019060200180831161064657829003601f168201915b50505050508152602001600080848152602001908152602001600020600101805461068d90611442565b80601f01602080910402602001604051908101604052809291908181526020018280546106b990611442565b80156107065780601f106106db57610100808354040283529160200191610706565b820191906000526020600020905b8154815290600101906020018083116106e957829003601f168201915b505050505081526020016000808481526020019081526020016000206002015481526020016000808481526020019081526020016000206006015481526020016000808481526020019081526020016000206008015481525083838061076b906114a5565b94508151811061077e5761077d61154c565b5b60200260200101819052505b8080610795906114a5565b91505061058d565b50819250505090565b8260008082815260200190815260200160002060040160003373ffffffffffffffffffffffffffffffffffffffff1673ffffffffffffffffffffffffffffffffffffffff16815260200190815260200160002060020160009054906101000a900460ff161561081457600080fd5b6000806000868152602001908152602001600020905060008160040160003373ffffffffffffffffffffffffffffffffffffffff1673ffffffffffffffffffffffffffffffffffffffff16815260200190815260200160002090506000826005016000878152602001908152602001600020905082600201600081548092919061089d906114a5565b9190505550848260000190805190602001906108ba929190610c58565b508582600101819055508160030160008154809291906108d9906114a5565b919050555060018260020160006101000a81548160ff021916908315150217905550806001016000815480929190610910906114a5565b919050555050505050505050565b8060008082815260200190815260200160002060030160009054906101000a900473ffffffffffffffffffffffffffffffffffffffff1673ffffffffffffffffffffffffffffffffffffffff163373ffffffffffffffffffffffffffffffffffffffff161461098c57600080fd5b6000806000848152602001908152602001600020905060018160070160006101000a81548160ff021916908315150217905550600260008154809291906109d2906114a5565b9190505550505050565b60006020528060005260406000206000915090508060000180546109ff90611442565b80601f0160208091040260200160405190810160405280929190818152602001828054610a2b90611442565b8015610a785780601f10610a4d57610100808354040283529160200191610a78565b820191906000526020600020905b815481529060010190602001808311610a5b57829003601f168201915b505050505090806001018054610a8d90611442565b80601f0160208091040260200160405190810160405280929190818152602001828054610ab990611442565b8015610b065780601f10610adb57610100808354040283529160200191610b06565b820191906000526020600020905b815481529060010190602001808311610ae957829003601f168201915b5050505050908060020154908060030160009054906101000a900473ffffffffffffffffffffffffffffffffffffffff16908060060154908060070160009054906101000a900460ff16908060080154905087565b8160008082815260200190815260200160002060030160009054906101000a900473ffffffffffffffffffffffffffffffffffffffff1673ffffffffffffffffffffffffffffffffffffffff163373ffffffffffffffffffffffffffffffffffffffff1614610bc957600080fd5b6000806000858152602001908152602001600020905060405180604001604052808481526020016000815250816005016000836006016000815480929190610c10906114a5565b9190505581526020019081526020016000206000820151816000019080519060200190610c3e929190610c58565b506020820151816001015590505050505050565b60015481565b828054610c6490611442565b90600052602060002090601f016020900481019282610c865760008555610ccd565b82601f10610c9f57805160ff1916838001178555610ccd565b82800160010185558215610ccd579182015b82811115610ccc578251825591602001919060010190610cb1565b5b509050610cda9190610d27565b5090565b604051806040016040528060608152602001600081525090565b6040518060a0016040528060608152602001606081526020016000815260200160008152602001600081525090565b5b80821115610d40576000816000905550600101610d28565b5090565b6000610d57610d52846112b4565b61128f565b905082815260208101848484011115610d7357610d726115af565b5b610d7e848285611400565b509392505050565b600082601f830112610d9b57610d9a6115aa565b5b8135610dab848260208601610d44565b91505092915050565b600081359050610dc3816115cf565b92915050565b60008060408385031215610de057610ddf6115b9565b5b600083013567ffffffffffffffff811115610dfe57610dfd6115b4565b5b610e0a85828601610d86565b925050602083013567ffffffffffffffff811115610e2b57610e2a6115b4565b5b610e3785828601610d86565b9150509250929050565b600060208284031215610e5757610e566115b9565b5b6000610e6584828501610db4565b91505092915050565b60008060408385031215610e8557610e846115b9565b5b6000610e9385828601610db4565b925050602083013567ffffffffffffffff811115610eb457610eb36115b4565b5b610ec085828601610d86565b9150509250929050565b600080600060608486031215610ee357610ee26115b9565b5b6000610ef186828701610db4565b9350506020610f0286828701610db4565b925050604084013567ffffffffffffffff811115610f2357610f226115b4565b5b610f2f86828701610d86565b9150509250925092565b6000610f4583836110db565b905092915050565b6000610f598383611118565b905092915050565b610f6a816113b8565b82525050565b6000610f7b82611305565b610f858185611340565b935083602082028501610f97856112e5565b8060005b85811015610fd35784840389528151610fb48582610f39565b9450610fbf83611326565b925060208a01995050600181019050610f9b565b50829750879550505050505092915050565b6000610ff082611310565b610ffa8185611351565b93508360208202850161100c856112f5565b8060005b8581101561104857848403895281516110298582610f4d565b945061103483611333565b925060208a01995050600181019050611010565b50829750879550505050505092915050565b611063816113ca565b82525050565b60006110748261131b565b61107e8185611362565b935061108e81856020860161140f565b611097816115be565b840191505092915050565b60006110ad8261131b565b6110b78185611373565b93506110c781856020860161140f565b6110d0816115be565b840191505092915050565b600060408301600083015184820360008601526110f88282611069565b915050602083015161110d6020860182611195565b508091505092915050565b600060a08301600083015184820360008601526111358282611069565b9150506020830151848203602086015261114f8282611069565b91505060408301516111646040860182611195565b5060608301516111776060860182611195565b50608083015161118a6080860182611195565b508091505092915050565b61119e816113f6565b82525050565b6111ad816113f6565b82525050565b600060208201905081810360008301526111cd8184610f70565b905092915050565b600060208201905081810360008301526111ef8184610fe5565b905092915050565b600060e0820190508181036000830152611211818a6110a2565b9050818103602083015261122581896110a2565b905061123460408301886111a4565b6112416060830187610f61565b61124e60808301866111a4565b61125b60a083018561105a565b61126860c08301846111a4565b98975050505050505050565b600060208201905061128960008301846111a4565b92915050565b60006112996112aa565b90506112a58282611474565b919050565b6000604051905090565b600067ffffffffffffffff8211156112cf576112ce61157b565b5b6112d8826115be565b9050602081019050919050565b6000819050602082019050919050565b6000819050602082019050919050565b600081519050919050565b600081519050919050565b600081519050919050565b6000602082019050919050565b6000602082019050919050565b600082825260208201905092915050565b600082825260208201905092915050565b600082825260208201905092915050565b600082825260208201905092915050565b600061138f826113f6565b915061139a836113f6565b9250828210156113ad576113ac6114ee565b5b828203905092915050565b60006113c3826113d6565b9050919050565b60008115159050919050565b600073ffffffffffffffffffffffffffffffffffffffff82169050919050565b6000819050919050565b82818337600083830152505050565b60005b8381101561142d578082015181840152602081019050611412565b8381111561143c576000848401525b50505050565b6000600282049050600182168061145a57607f821691505b6020821081141561146e5761146d61151d565b5b50919050565b61147d826115be565b810181811067ffffffffffffffff8211171561149c5761149b61157b565b5b80604052505050565b60006114b0826113f6565b91507fffffffffffffffffffffffffffffffffffffffffffffffffffffffffffffffff8214156114e3576114e26114ee565b5b600182019050919050565b7f4e487b7100000000000000000000000000000000000000000000000000000000600052601160045260246000fd5b7f4e487b7100000000000000000000000000000000000000000000000000000000600052602260045260246000fd5b7f4e487b7100000000000000000000000000000000000000000000000000000000600052603260045260246000fd5b7f4e487b7100000000000000000000000000000000000000000000000000000000600052604160045260246000fd5b600080fd5b600080fd5b600080fd5b600080fd5b6000601f19601f8301169050919050565b6115d8816113f6565b81146115e357600080fd5b5056fea264697066735822122098f3d46d527a6e362ed6c270dcd309e986d048c311ace2d096534b9fc17f978364736f6c63430008070033",
					"opcodes": "PUSH1 0x80 PUSH1 0x40 MSTORE PUSH1 0x0 PUSH1 0x1 SSTORE PUSH1 0x0 PUSH1 0x2 SSTORE CALLVALUE DUP1 ISZERO PUSH2 0x1A JUMPI PUSH1 0x0 DUP1 REVERT JUMPDEST POP PUSH2 0x161C DUP1 PUSH2 0x2A PUSH1 0x0 CODECOPY PUSH1 0x0 RETURN INVALID PUSH1 0x80 PUSH1 0x40 MSTORE CALLVALUE DUP1 ISZERO PUSH2 0x10 JUMPI PUSH1 0x0 DUP1 REVERT JUMPDEST POP PUSH1 0x4 CALLDATASIZE LT PUSH2 0xA9 JUMPI PUSH1 0x0 CALLDATALOAD PUSH1 0xE0 SHR DUP1 PUSH4 0x8EC08354 GT PUSH2 0x71 JUMPI DUP1 PUSH4 0x8EC08354 EQ PUSH2 0x18C JUMPI DUP1 PUSH4 0xA1BBFC05 EQ PUSH2 0x1AA JUMPI DUP1 PUSH4 0xA901D15C EQ PUSH2 0x1C6 JUMPI DUP1 PUSH4 0xAC4AFA38 EQ PUSH2 0x1E2 JUMPI DUP1 PUSH4 0xEA57D5D4 EQ PUSH2 0x218 JUMPI DUP1 PUSH4 0xFCBD2A88 EQ PUSH2 0x234 JUMPI PUSH2 0xA9 JUMP JUMPDEST DUP1 PUSH4 0x186DD066 EQ PUSH2 0xAE JUMPI DUP1 PUSH4 0x5EA81A32 EQ PUSH2 0xDE JUMPI DUP1 PUSH4 0x7E1D9BA5 EQ PUSH2 0x10E JUMPI DUP1 PUSH4 0x8915B3FB EQ PUSH2 0x12C JUMPI DUP1 PUSH4 0x8C8E54FB EQ PUSH2 0x15C JUMPI JUMPDEST PUSH1 0x0 DUP1 REVERT JUMPDEST PUSH2 0xC8 PUSH1 0x4 DUP1 CALLDATASIZE SUB DUP2 ADD SWAP1 PUSH2 0xC3 SWAP2 SWAP1 PUSH2 0xE41 JUMP JUMPDEST PUSH2 0x252 JUMP JUMPDEST PUSH1 0x40 MLOAD PUSH2 0xD5 SWAP2 SWAP1 PUSH2 0x1274 JUMP JUMPDEST PUSH1 0x40 MLOAD DUP1 SWAP2 SUB SWAP1 RETURN JUMPDEST PUSH2 0xF8 PUSH1 0x4 DUP1 CALLDATASIZE SUB DUP2 ADD SWAP1 PUSH2 0xF3 SWAP2 SWAP1 PUSH2 0xDC9 JUMP JUMPDEST PUSH2 0x271 JUMP JUMPDEST PUSH1 0x40 MLOAD PUSH2 0x105 SWAP2 SWAP1 PUSH2 0x1274 JUMP JUMPDEST PUSH1 0x40 MLOAD DUP1 SWAP2 SUB SWAP1 RETURN JUMPDEST PUSH2 0x116 PUSH2 0x371 JUMP JUMPDEST PUSH1 0x40 MLOAD PUSH2 0x123 SWAP2 SWAP1 PUSH2 0x1274 JUMP JUMPDEST PUSH1 0x40 MLOAD DUP1 SWAP2 SUB SWAP1 RETURN JUMPDEST PUSH2 0x146 PUSH1 0x4 DUP1 CALLDATASIZE SUB DUP2 ADD SWAP1 PUSH2 0x141 SWAP2 SWAP1 PUSH2 0xE41 JUMP JUMPDEST PUSH2 0x377 JUMP JUMPDEST PUSH1 0x40 MLOAD PUSH2 0x153 SWAP2 SWAP1 PUSH2 0x11B3 JUMP JUMPDEST PUSH1 0x40 MLOAD DUP1 SWAP2 SUB SWAP1 RETURN JUMPDEST PUSH2 0x176 PUSH1 0x4 DUP1 CALLDATASIZE SUB DUP2 ADD SWAP1 PUSH2 0x171 SWAP2 SWAP1 PUSH2 0xE41 JUMP JUMPDEST PUSH2 0x50E JUMP JUMPDEST PUSH1 0x40 MLOAD PUSH2 0x183 SWAP2 SWAP1 PUSH2 0x1274 JUMP JUMPDEST PUSH1 0x40 MLOAD DUP1 SWAP2 SUB SWAP1 RETURN JUMPDEST PUSH2 0x194 PUSH2 0x52D JUMP JUMPDEST PUSH1 0x40 MLOAD PUSH2 0x1A1 SWAP2 SWAP1 PUSH2 0x11D5 JUMP JUMPDEST PUSH1 0x40 MLOAD DUP1 SWAP2 SUB SWAP1 RETURN JUMPDEST PUSH2 0x1C4 PUSH1 0x4 DUP1 CALLDATASIZE SUB DUP2 ADD SWAP1 PUSH2 0x1BF SWAP2 SWAP1 PUSH2 0xECA JUMP JUMPDEST PUSH2 0x7A6 JUMP JUMPDEST STOP JUMPDEST PUSH2 0x1E0 PUSH1 0x4 DUP1 CALLDATASIZE SUB DUP2 ADD SWAP1 PUSH2 0x1DB SWAP2 SWAP1 PUSH2 0xE41 JUMP JUMPDEST PUSH2 0x91E JUMP JUMPDEST STOP JUMPDEST PUSH2 0x1FC PUSH1 0x4 DUP1 CALLDATASIZE SUB DUP2 ADD SWAP1 PUSH2 0x1F7 SWAP2 SWAP1 PUSH2 0xE41 JUMP JUMPDEST PUSH2 0x9DC JUMP JUMPDEST PUSH1 0x40 MLOAD PUSH2 0x20F SWAP8 SWAP7 SWAP6 SWAP5 SWAP4 SWAP3 SWAP2 SWAP1 PUSH2 0x11F7 JUMP JUMPDEST PUSH1 0x40 MLOAD DUP1 SWAP2 SUB SWAP1 RETURN JUMPDEST PUSH2 0x232 PUSH1 0x4 DUP1 CALLDATASIZE SUB DUP2 ADD SWAP1 PUSH2 0x22D SWAP2 SWAP1 PUSH2 0xE6E JUMP JUMPDEST PUSH2 0xB5B JUMP JUMPDEST STOP JUMPDEST PUSH2 0x23C PUSH2 0xC52 JUMP JUMPDEST PUSH1 0x40 MLOAD PUSH2 0x249 SWAP2 SWAP1 PUSH2 0x1274 JUMP JUMPDEST PUSH1 0x40 MLOAD DUP1 SWAP2 SUB SWAP1 RETURN JUMPDEST PUSH1 0x0 DUP1 PUSH1 0x0 DUP4 DUP2 MSTORE PUSH1 0x20 ADD SWAP1 DUP2 MSTORE PUSH1 0x20 ADD PUSH1 0x0 KECCAK256 PUSH1 0x6 ADD SLOAD SWAP1 POP SWAP2 SWAP1 POP JUMP JUMPDEST PUSH1 0x0 DUP1 PUSH1 0x0 DUP1 PUSH1 0x1 PUSH1 0x0 DUP2 SLOAD DUP1 SWAP3 SWAP2 SWAP1 PUSH2 0x28A SWAP1 PUSH2 0x14A5 JUMP JUMPDEST SWAP2 SWAP1 POP SSTORE DUP2 MSTORE PUSH1 0x20 ADD SWAP1 DUP2 MSTORE PUSH1 0x20 ADD PUSH1 0x0 KECCAK256 SWAP1 POP DUP4 DUP2 PUSH1 0x0 ADD SWAP1 DUP1 MLOAD SWAP1 PUSH1 0x20 ADD SWAP1 PUSH2 0x2B6 SWAP3 SWAP2 SWAP1 PUSH2 0xC58 JUMP JUMPDEST POP DUP3 DUP2 PUSH1 0x1 ADD SWAP1 DUP1 MLOAD SWAP1 PUSH1 0x20 ADD SWAP1 PUSH2 0x2CF SWAP3 SWAP2 SWAP1 PUSH2 0xC58 JUMP JUMPDEST POP PUSH1 0x0 DUP2 PUSH1 0x2 ADD DUP2 SWAP1 SSTORE POP CALLER DUP2 PUSH1 0x3 ADD PUSH1 0x0 PUSH2 0x100 EXP DUP2 SLOAD DUP2 PUSH20 0xFFFFFFFFFFFFFFFFFFFFFFFFFFFFFFFFFFFFFFFF MUL NOT AND SWAP1 DUP4 PUSH20 0xFFFFFFFFFFFFFFFFFFFFFFFFFFFFFFFFFFFFFFFF AND MUL OR SWAP1 SSTORE POP PUSH1 0x0 DUP2 PUSH1 0x6 ADD DUP2 SWAP1 SSTORE POP PUSH1 0x0 DUP2 PUSH1 0x7 ADD PUSH1 0x0 PUSH2 0x100 EXP DUP2 SLOAD DUP2 PUSH1 0xFF MUL NOT AND SWAP1 DUP4 ISZERO ISZERO MUL OR SWAP1 SSTORE POP PUSH1 0x1 DUP1 SLOAD PUSH2 0x352 SWAP2 SWAP1 PUSH2 0x1384 JUMP JUMPDEST DUP2 PUSH1 0x8 ADD DUP2 SWAP1 SSTORE POP PUSH1 0x1 DUP1 SLOAD PUSH2 0x368 SWAP2 SWAP1 PUSH2 0x1384 JUMP JUMPDEST SWAP2 POP POP SWAP3 SWAP2 POP POP JUMP JUMPDEST PUSH1 0x2 SLOAD DUP2 JUMP JUMPDEST PUSH1 0x60 PUSH1 0x0 DUP1 PUSH1 0x0 DUP5 DUP2 MSTORE PUSH1 0x20 ADD SWAP1 DUP2 MSTORE PUSH1 0x20 ADD PUSH1 0x0 KECCAK256 PUSH1 0x6 ADD SLOAD PUSH8 0xFFFFFFFFFFFFFFFF DUP2 GT ISZERO PUSH2 0x3AA JUMPI PUSH2 0x3A9 PUSH2 0x157B JUMP JUMPDEST JUMPDEST PUSH1 0x40 MLOAD SWAP1 DUP1 DUP3 MSTORE DUP1 PUSH1 0x20 MUL PUSH1 0x20 ADD DUP3 ADD PUSH1 0x40 MSTORE DUP1 ISZERO PUSH2 0x3E3 JUMPI DUP2 PUSH1 0x20 ADD JUMPDEST PUSH2 0x3D0 PUSH2 0xCDE JUMP JUMPDEST DUP2 MSTORE PUSH1 0x20 ADD SWAP1 PUSH1 0x1 SWAP1 SUB SWAP1 DUP2 PUSH2 0x3C8 JUMPI SWAP1 POP JUMPDEST POP SWAP1 POP PUSH1 0x0 JUMPDEST PUSH1 0x0 DUP1 DUP6 DUP2 MSTORE PUSH1 0x20 ADD SWAP1 DUP2 MSTORE PUSH1 0x20 ADD PUSH1 0x0 KECCAK256 PUSH1 0x6 ADD SLOAD DUP2 LT ISZERO PUSH2 0x504 JUMPI PUSH1 0x0 DUP1 DUP6 DUP2 MSTORE PUSH1 0x20 ADD SWAP1 DUP2 MSTORE PUSH1 0x20 ADD PUSH1 0x0 KECCAK256 PUSH1 0x5 ADD PUSH1 0x0 DUP3 DUP2 MSTORE PUSH1 0x20 ADD SWAP1 DUP2 MSTORE PUSH1 0x20 ADD PUSH1 0x0 KECCAK256 PUSH1 0x40 MLOAD DUP1 PUSH1 0x40 ADD PUSH1 0x40 MSTORE SWAP1 DUP2 PUSH1 0x0 DUP3 ADD DUP1 SLOAD PUSH2 0x447 SWAP1 PUSH2 0x1442 JUMP JUMPDEST DUP1 PUSH1 0x1F ADD PUSH1 0x20 DUP1 SWAP2 DIV MUL PUSH1 0x20 ADD PUSH1 0x40 MLOAD SWAP1 DUP2 ADD PUSH1 0x40 MSTORE DUP1 SWAP3 SWAP2 SWAP1 DUP2 DUP2 MSTORE PUSH1 0x20 ADD DUP3 DUP1 SLOAD PUSH2 0x473 SWAP1 PUSH2 0x1442 JUMP JUMPDEST DUP1 ISZERO PUSH2 0x4C0 JUMPI DUP1 PUSH1 0x1F LT PUSH2 0x495 JUMPI PUSH2 0x100 DUP1 DUP4 SLOAD DIV MUL DUP4 MSTORE SWAP2 PUSH1 0x20 ADD SWAP2 PUSH2 0x4C0 JUMP JUMPDEST DUP3 ADD SWAP2 SWAP1 PUSH1 0x0 MSTORE PUSH1 0x20 PUSH1 0x0 KECCAK256 SWAP1 JUMPDEST DUP2 SLOAD DUP2 MSTORE SWAP1 PUSH1 0x1 ADD SWAP1 PUSH1 0x20 ADD DUP1 DUP4 GT PUSH2 0x4A3 JUMPI DUP3 SWAP1 SUB PUSH1 0x1F AND DUP3 ADD SWAP2 JUMPDEST POP POP POP POP POP DUP2 MSTORE PUSH1 0x20 ADD PUSH1 0x1 DUP3 ADD SLOAD DUP2 MSTORE POP POP DUP3 DUP3 DUP2 MLOAD DUP2 LT PUSH2 0x4E6 JUMPI PUSH2 0x4E5 PUSH2 0x154C JUMP JUMPDEST JUMPDEST PUSH1 0x20 MUL PUSH1 0x20 ADD ADD DUP2 SWAP1 MSTORE POP DUP1 DUP1 PUSH2 0x4FC SWAP1 PUSH2 0x14A5 JUMP JUMPDEST SWAP2 POP POP PUSH2 0x3E9 JUMP JUMPDEST POP DUP1 SWAP2 POP POP SWAP2 SWAP1 POP JUMP JUMPDEST PUSH1 0x0 DUP1 PUSH1 0x0 DUP4 DUP2 MSTORE PUSH1 0x20 ADD SWAP1 DUP2 MSTORE PUSH1 0x20 ADD PUSH1 0x0 KECCAK256 PUSH1 0x2 ADD SLOAD SWAP1 POP SWAP2 SWAP1 POP JUMP JUMPDEST PUSH1 0x60 PUSH1 0x0 PUSH1 0x2 SLOAD PUSH8 0xFFFFFFFFFFFFFFFF DUP2 GT ISZERO PUSH2 0x54D JUMPI PUSH2 0x54C PUSH2 0x157B JUMP JUMPDEST JUMPDEST PUSH1 0x40 MLOAD SWAP1 DUP1 DUP3 MSTORE DUP1 PUSH1 0x20 MUL PUSH1 0x20 ADD DUP3 ADD PUSH1 0x40 MSTORE DUP1 ISZERO PUSH2 0x586 JUMPI DUP2 PUSH1 0x20 ADD JUMPDEST PUSH2 0x573 PUSH2 0xCF8 JUMP JUMPDEST DUP2 MSTORE PUSH1 0x20 ADD SWAP1 PUSH1 0x1 SWAP1 SUB SWAP1 DUP2 PUSH2 0x56B JUMPI SWAP1 POP JUMPDEST POP SWAP1 POP PUSH1 0x0 DUP1 JUMPDEST PUSH1 0x1 SLOAD DUP2 LT ISZERO PUSH2 0x79D JUMPI PUSH1 0x0 DUP1 DUP3 DUP2 MSTORE PUSH1 0x20 ADD SWAP1 DUP2 MSTORE PUSH1 0x20 ADD PUSH1 0x0 KECCAK256 PUSH1 0x7 ADD PUSH1 0x0 SWAP1 SLOAD SWAP1 PUSH2 0x100 EXP SWAP1 DIV PUSH1 0xFF AND ISZERO PUSH2 0x78A JUMPI PUSH1 0x40 MLOAD DUP1 PUSH1 0xA0 ADD PUSH1 0x40 MSTORE DUP1 PUSH1 0x0 DUP1 DUP5 DUP2 MSTORE PUSH1 0x20 ADD SWAP1 DUP2 MSTORE PUSH1 0x20 ADD PUSH1 0x0 KECCAK256 PUSH1 0x0 ADD DUP1 SLOAD PUSH2 0x5EA SWAP1 PUSH2 0x1442 JUMP JUMPDEST DUP1 PUSH1 0x1F ADD PUSH1 0x20 DUP1 SWAP2 DIV MUL PUSH1 0x20 ADD PUSH1 0x40 MLOAD SWAP1 DUP2 ADD PUSH1 0x40 MSTORE DUP1 SWAP3 SWAP2 SWAP1 DUP2 DUP2 MSTORE PUSH1 0x20 ADD DUP3 DUP1 SLOAD PUSH2 0x616 SWAP1 PUSH2 0x1442 JUMP JUMPDEST DUP1 ISZERO PUSH2 0x663 JUMPI DUP1 PUSH1 0x1F LT PUSH2 0x638 JUMPI PUSH2 0x100 DUP1 DUP4 SLOAD DIV MUL DUP4 MSTORE SWAP2 PUSH1 0x20 ADD SWAP2 PUSH2 0x663 JUMP JUMPDEST DUP3 ADD SWAP2 SWAP1 PUSH1 0x0 MSTORE PUSH1 0x20 PUSH1 0x0 KECCAK256 SWAP1 JUMPDEST DUP2 SLOAD DUP2 MSTORE SWAP1 PUSH1 0x1 ADD SWAP1 PUSH1 0x20 ADD DUP1 DUP4 GT PUSH2 0x646 JUMPI DUP3 SWAP1 SUB PUSH1 0x1F AND DUP3 ADD SWAP2 JUMPDEST POP POP POP POP POP DUP2 MSTORE PUSH1 0x20 ADD PUSH1 0x0 DUP1 DUP5 DUP2 MSTORE PUSH1 0x20 ADD SWAP1 DUP2 MSTORE PUSH1 0x20 ADD PUSH1 0x0 KECCAK256 PUSH1 0x1 ADD DUP1 SLOAD PUSH2 0x68D SWAP1 PUSH2 0x1442 JUMP JUMPDEST DUP1 PUSH1 0x1F ADD PUSH1 0x20 DUP1 SWAP2 DIV MUL PUSH1 0x20 ADD PUSH1 0x40 MLOAD SWAP1 DUP2 ADD PUSH1 0x40 MSTORE DUP1 SWAP3 SWAP2 SWAP1 DUP2 DUP2 MSTORE PUSH1 0x20 ADD DUP3 DUP1 SLOAD PUSH2 0x6B9 SWAP1 PUSH2 0x1442 JUMP JUMPDEST DUP1 ISZERO PUSH2 0x706 JUMPI DUP1 PUSH1 0x1F LT PUSH2 0x6DB JUMPI PUSH2 0x100 DUP1 DUP4 SLOAD DIV MUL DUP4 MSTORE SWAP2 PUSH1 0x20 ADD SWAP2 PUSH2 0x706 JUMP JUMPDEST DUP3 ADD SWAP2 SWAP1 PUSH1 0x0 MSTORE PUSH1 0x20 PUSH1 0x0 KECCAK256 SWAP1 JUMPDEST DUP2 SLOAD DUP2 MSTORE SWAP1 PUSH1 0x1 ADD SWAP1 PUSH1 0x20 ADD DUP1 DUP4 GT PUSH2 0x6E9 JUMPI DUP3 SWAP1 SUB PUSH1 0x1F AND DUP3 ADD SWAP2 JUMPDEST POP POP POP POP POP DUP2 MSTORE PUSH1 0x20 ADD PUSH1 0x0 DUP1 DUP5 DUP2 MSTORE PUSH1 0x20 ADD SWAP1 DUP2 MSTORE PUSH1 0x20 ADD PUSH1 0x0 KECCAK256 PUSH1 0x2 ADD SLOAD DUP2 MSTORE PUSH1 0x20 ADD PUSH1 0x0 DUP1 DUP5 DUP2 MSTORE PUSH1 0x20 ADD SWAP1 DUP2 MSTORE PUSH1 0x20 ADD PUSH1 0x0 KECCAK256 PUSH1 0x6 ADD SLOAD DUP2 MSTORE PUSH1 0x20 ADD PUSH1 0x0 DUP1 DUP5 DUP2 MSTORE PUSH1 0x20 ADD SWAP1 DUP2 MSTORE PUSH1 0x20 ADD PUSH1 0x0 KECCAK256 PUSH1 0x8 ADD SLOAD DUP2 MSTORE POP DUP4 DUP4 DUP1 PUSH2 0x76B SWAP1 PUSH2 0x14A5 JUMP JUMPDEST SWAP5 POP DUP2 MLOAD DUP2 LT PUSH2 0x77E JUMPI PUSH2 0x77D PUSH2 0x154C JUMP JUMPDEST JUMPDEST PUSH1 0x20 MUL PUSH1 0x20 ADD ADD DUP2 SWAP1 MSTORE POP JUMPDEST DUP1 DUP1 PUSH2 0x795 SWAP1 PUSH2 0x14A5 JUMP JUMPDEST SWAP2 POP POP PUSH2 0x58D JUMP JUMPDEST POP DUP2 SWAP3 POP POP POP SWAP1 JUMP JUMPDEST DUP3 PUSH1 0x0 DUP1 DUP3 DUP2 MSTORE PUSH1 0x20 ADD SWAP1 DUP2 MSTORE PUSH1 0x20 ADD PUSH1 0x0 KECCAK256 PUSH1 0x4 ADD PUSH1 0x0 CALLER PUSH20 0xFFFFFFFFFFFFFFFFFFFFFFFFFFFFFFFFFFFFFFFF AND PUSH20 0xFFFFFFFFFFFFFFFFFFFFFFFFFFFFFFFFFFFFFFFF AND DUP2 MSTORE PUSH1 0x20 ADD SWAP1 DUP2 MSTORE PUSH1 0x20 ADD PUSH1 0x0 KECCAK256 PUSH1 0x2 ADD PUSH1 0x0 SWAP1 SLOAD SWAP1 PUSH2 0x100 EXP SWAP1 DIV PUSH1 0xFF AND ISZERO PUSH2 0x814 JUMPI PUSH1 0x0 DUP1 REVERT JUMPDEST PUSH1 0x0 DUP1 PUSH1 0x0 DUP7 DUP2 MSTORE PUSH1 0x20 ADD SWAP1 DUP2 MSTORE PUSH1 0x20 ADD PUSH1 0x0 KECCAK256 SWAP1 POP PUSH1 0x0 DUP2 PUSH1 0x4 ADD PUSH1 0x0 CALLER PUSH20 0xFFFFFFFFFFFFFFFFFFFFFFFFFFFFFFFFFFFFFFFF AND PUSH20 0xFFFFFFFFFFFFFFFFFFFFFFFFFFFFFFFFFFFFFFFF AND DUP2 MSTORE PUSH1 0x20 ADD SWAP1 DUP2 MSTORE PUSH1 0x20 ADD PUSH1 0x0 KECCAK256 SWAP1 POP PUSH1 0x0 DUP3 PUSH1 0x5 ADD PUSH1 0x0 DUP8 DUP2 MSTORE PUSH1 0x20 ADD SWAP1 DUP2 MSTORE PUSH1 0x20 ADD PUSH1 0x0 KECCAK256 SWAP1 POP DUP3 PUSH1 0x2 ADD PUSH1 0x0 DUP2 SLOAD DUP1 SWAP3 SWAP2 SWAP1 PUSH2 0x89D SWAP1 PUSH2 0x14A5 JUMP JUMPDEST SWAP2 SWAP1 POP SSTORE POP DUP5 DUP3 PUSH1 0x0 ADD SWAP1 DUP1 MLOAD SWAP1 PUSH1 0x20 ADD SWAP1 PUSH2 0x8BA SWAP3 SWAP2 SWAP1 PUSH2 0xC58 JUMP JUMPDEST POP DUP6 DUP3 PUSH1 0x1 ADD DUP2 SWAP1 SSTORE POP DUP2 PUSH1 0x3 ADD PUSH1 0x0 DUP2 SLOAD DUP1 SWAP3 SWAP2 SWAP1 PUSH2 0x8D9 SWAP1 PUSH2 0x14A5 JUMP JUMPDEST SWAP2 SWAP1 POP SSTORE POP PUSH1 0x1 DUP3 PUSH1 0x2 ADD PUSH1 0x0 PUSH2 0x100 EXP DUP2 SLOAD DUP2 PUSH1 0xFF MUL NOT AND SWAP1 DUP4 ISZERO ISZERO MUL OR SWAP1 SSTORE POP DUP1 PUSH1 0x1 ADD PUSH1 0x0 DUP2 SLOAD DUP1 SWAP3 SWAP2 SWAP1 PUSH2 0x910 SWAP1 PUSH2 0x14A5 JUMP JUMPDEST SWAP2 SWAP1 POP SSTORE POP POP POP POP POP POP POP POP JUMP JUMPDEST DUP1 PUSH1 0x0 DUP1 DUP3 DUP2 MSTORE PUSH1 0x20 ADD SWAP1 DUP2 MSTORE PUSH1 0x20 ADD PUSH1 0x0 KECCAK256 PUSH1 0x3 ADD PUSH1 0x0 SWAP1 SLOAD SWAP1 PUSH2 0x100 EXP SWAP1 DIV PUSH20 0xFFFFFFFFFFFFFFFFFFFFFFFFFFFFFFFFFFFFFFFF AND PUSH20 0xFFFFFFFFFFFFFFFFFFFFFFFFFFFFFFFFFFFFFFFF AND CALLER PUSH20 0xFFFFFFFFFFFFFFFFFFFFFFFFFFFFFFFFFFFFFFFF AND EQ PUSH2 0x98C JUMPI PUSH1 0x0 DUP1 REVERT JUMPDEST PUSH1 0x0 DUP1 PUSH1 0x0 DUP5 DUP2 MSTORE PUSH1 0x20 ADD SWAP1 DUP2 MSTORE PUSH1 0x20 ADD PUSH1 0x0 KECCAK256 SWAP1 POP PUSH1 0x1 DUP2 PUSH1 0x7 ADD PUSH1 0x0 PUSH2 0x100 EXP DUP2 SLOAD DUP2 PUSH1 0xFF MUL NOT AND SWAP1 DUP4 ISZERO ISZERO MUL OR SWAP1 SSTORE POP PUSH1 0x2 PUSH1 0x0 DUP2 SLOAD DUP1 SWAP3 SWAP2 SWAP1 PUSH2 0x9D2 SWAP1 PUSH2 0x14A5 JUMP JUMPDEST SWAP2 SWAP1 POP SSTORE POP POP POP POP JUMP JUMPDEST PUSH1 0x0 PUSH1 0x20 MSTORE DUP1 PUSH1 0x0 MSTORE PUSH1 0x40 PUSH1 0x0 KECCAK256 PUSH1 0x0 SWAP2 POP SWAP1 POP DUP1 PUSH1 0x0 ADD DUP1 SLOAD PUSH2 0x9FF SWAP1 PUSH2 0x1442 JUMP JUMPDEST DUP1 PUSH1 0x1F ADD PUSH1 0x20 DUP1 SWAP2 DIV MUL PUSH1 0x20 ADD PUSH1 0x40 MLOAD SWAP1 DUP2 ADD PUSH1 0x40 MSTORE DUP1 SWAP3 SWAP2 SWAP1 DUP2 DUP2 MSTORE PUSH1 0x20 ADD DUP3 DUP1 SLOAD PUSH2 0xA2B SWAP1 PUSH2 0x1442 JUMP JUMPDEST DUP1 ISZERO PUSH2 0xA78 JUMPI DUP1 PUSH1 0x1F LT PUSH2 0xA4D JUMPI PUSH2 0x100 DUP1 DUP4 SLOAD DIV MUL DUP4 MSTORE SWAP2 PUSH1 0x20 ADD SWAP2 PUSH2 0xA78 JUMP JUMPDEST DUP3 ADD SWAP2 SWAP1 PUSH1 0x0 MSTORE PUSH1 0x20 PUSH1 0x0 KECCAK256 SWAP1 JUMPDEST DUP2 SLOAD DUP2 MSTORE SWAP1 PUSH1 0x1 ADD SWAP1 PUSH1 0x20 ADD DUP1 DUP4 GT PUSH2 0xA5B JUMPI DUP3 SWAP1 SUB PUSH1 0x1F AND DUP3 ADD SWAP2 JUMPDEST POP POP POP POP POP SWAP1 DUP1 PUSH1 0x1 ADD DUP1 SLOAD PUSH2 0xA8D SWAP1 PUSH2 0x1442 JUMP JUMPDEST DUP1 PUSH1 0x1F ADD PUSH1 0x20 DUP1 SWAP2 DIV MUL PUSH1 0x20 ADD PUSH1 0x40 MLOAD SWAP1 DUP2 ADD PUSH1 0x40 MSTORE DUP1 SWAP3 SWAP2 SWAP1 DUP2 DUP2 MSTORE PUSH1 0x20 ADD DUP3 DUP1 SLOAD PUSH2 0xAB9 SWAP1 PUSH2 0x1442 JUMP JUMPDEST DUP1 ISZERO PUSH2 0xB06 JUMPI DUP1 PUSH1 0x1F LT PUSH2 0xADB JUMPI PUSH2 0x100 DUP1 DUP4 SLOAD DIV MUL DUP4 MSTORE SWAP2 PUSH1 0x20 ADD SWAP2 PUSH2 0xB06 JUMP JUMPDEST DUP3 ADD SWAP2 SWAP1 PUSH1 0x0 MSTORE PUSH1 0x20 PUSH1 0x0 KECCAK256 SWAP1 JUMPDEST DUP2 SLOAD DUP2 MSTORE SWAP1 PUSH1 0x1 ADD SWAP1 PUSH1 0x20 ADD DUP1 DUP4 GT PUSH2 0xAE9 JUMPI DUP3 SWAP1 SUB PUSH1 0x1F AND DUP3 ADD SWAP2 JUMPDEST POP POP POP POP POP SWAP1 DUP1 PUSH1 0x2 ADD SLOAD SWAP1 DUP1 PUSH1 0x3 ADD PUSH1 0x0 SWAP1 SLOAD SWAP1 PUSH2 0x100 EXP SWAP1 DIV PUSH20 0xFFFFFFFFFFFFFFFFFFFFFFFFFFFFFFFFFFFFFFFF AND SWAP1 DUP1 PUSH1 0x6 ADD SLOAD SWAP1 DUP1 PUSH1 0x7 ADD PUSH1 0x0 SWAP1 SLOAD SWAP1 PUSH2 0x100 EXP SWAP1 DIV PUSH1 0xFF AND SWAP1 DUP1 PUSH1 0x8 ADD SLOAD SWAP1 POP DUP8 JUMP JUMPDEST DUP2 PUSH1 0x0 DUP1 DUP3 DUP2 MSTORE PUSH1 0x20 ADD SWAP1 DUP2 MSTORE PUSH1 0x20 ADD PUSH1 0x0 KECCAK256 PUSH1 0x3 ADD PUSH1 0x0 SWAP1 SLOAD SWAP1 PUSH2 0x100 EXP SWAP1 DIV PUSH20 0xFFFFFFFFFFFFFFFFFFFFFFFFFFFFFFFFFFFFFFFF AND PUSH20 0xFFFFFFFFFFFFFFFFFFFFFFFFFFFFFFFFFFFFFFFF AND CALLER PUSH20 0xFFFFFFFFFFFFFFFFFFFFFFFFFFFFFFFFFFFFFFFF AND EQ PUSH2 0xBC9 JUMPI PUSH1 0x0 DUP1 REVERT JUMPDEST PUSH1 0x0 DUP1 PUSH1 0x0 DUP6 DUP2 MSTORE PUSH1 0x20 ADD SWAP1 DUP2 MSTORE PUSH1 0x20 ADD PUSH1 0x0 KECCAK256 SWAP1 POP PUSH1 0x40 MLOAD DUP1 PUSH1 0x40 ADD PUSH1 0x40 MSTORE DUP1 DUP5 DUP2 MSTORE PUSH1 0x20 ADD PUSH1 0x0 DUP2 MSTORE POP DUP2 PUSH1 0x5 ADD PUSH1 0x0 DUP4 PUSH1 0x6 ADD PUSH1 0x0 DUP2 SLOAD DUP1 SWAP3 SWAP2 SWAP1 PUSH2 0xC10 SWAP1 PUSH2 0x14A5 JUMP JUMPDEST SWAP2 SWAP1 POP SSTORE DUP2 MSTORE PUSH1 0x20 ADD SWAP1 DUP2 MSTORE PUSH1 0x20 ADD PUSH1 0x0 KECCAK256 PUSH1 0x0 DUP3 ADD MLOAD DUP2 PUSH1 0x0 ADD SWAP1 DUP1 MLOAD SWAP1 PUSH1 0x20 ADD SWAP1 PUSH2 0xC3E SWAP3 SWAP2 SWAP1 PUSH2 0xC58 JUMP JUMPDEST POP PUSH1 0x20 DUP3 ADD MLOAD DUP2 PUSH1 0x1 ADD SSTORE SWAP1 POP POP POP POP POP POP JUMP JUMPDEST PUSH1 0x1 SLOAD DUP2 JUMP JUMPDEST DUP3 DUP1 SLOAD PUSH2 0xC64 SWAP1 PUSH2 0x1442 JUMP JUMPDEST SWAP1 PUSH1 0x0 MSTORE PUSH1 0x20 PUSH1 0x0 KECCAK256 SWAP1 PUSH1 0x1F ADD PUSH1 0x20 SWAP1 DIV DUP2 ADD SWAP3 DUP3 PUSH2 0xC86 JUMPI PUSH1 0x0 DUP6 SSTORE PUSH2 0xCCD JUMP JUMPDEST DUP3 PUSH1 0x1F LT PUSH2 0xC9F JUMPI DUP1 MLOAD PUSH1 0xFF NOT AND DUP4 DUP1 ADD OR DUP6 SSTORE PUSH2 0xCCD JUMP JUMPDEST DUP3 DUP1 ADD PUSH1 0x1 ADD DUP6 SSTORE DUP3 ISZERO PUSH2 0xCCD JUMPI SWAP2 DUP3 ADD JUMPDEST DUP3 DUP2 GT ISZERO PUSH2 0xCCC JUMPI DUP3 MLOAD DUP3 SSTORE SWAP2 PUSH1 0x20 ADD SWAP2 SWAP1 PUSH1 0x1 ADD SWAP1 PUSH2 0xCB1 JUMP JUMPDEST JUMPDEST POP SWAP1 POP PUSH2 0xCDA SWAP2 SWAP1 PUSH2 0xD27 JUMP JUMPDEST POP SWAP1 JUMP JUMPDEST PUSH1 0x40 MLOAD DUP1 PUSH1 0x40 ADD PUSH1 0x40 MSTORE DUP1 PUSH1 0x60 DUP2 MSTORE PUSH1 0x20 ADD PUSH1 0x0 DUP2 MSTORE POP SWAP1 JUMP JUMPDEST PUSH1 0x40 MLOAD DUP1 PUSH1 0xA0 ADD PUSH1 0x40 MSTORE DUP1 PUSH1 0x60 DUP2 MSTORE PUSH1 0x20 ADD PUSH1 0x60 DUP2 MSTORE PUSH1 0x20 ADD PUSH1 0x0 DUP2 MSTORE PUSH1 0x20 ADD PUSH1 0x0 DUP2 MSTORE PUSH1 0x20 ADD PUSH1 0x0 DUP2 MSTORE POP SWAP1 JUMP JUMPDEST JUMPDEST DUP1 DUP3 GT ISZERO PUSH2 0xD40 JUMPI PUSH1 0x0 DUP2 PUSH1 0x0 SWAP1 SSTORE POP PUSH1 0x1 ADD PUSH2 0xD28 JUMP JUMPDEST POP SWAP1 JUMP JUMPDEST PUSH1 0x0 PUSH2 0xD57 PUSH2 0xD52 DUP5 PUSH2 0x12B4 JUMP JUMPDEST PUSH2 0x128F JUMP JUMPDEST SWAP1 POP DUP3 DUP2 MSTORE PUSH1 0x20 DUP2 ADD DUP5 DUP5 DUP5 ADD GT ISZERO PUSH2 0xD73 JUMPI PUSH2 0xD72 PUSH2 0x15AF JUMP JUMPDEST JUMPDEST PUSH2 0xD7E DUP5 DUP3 DUP6 PUSH2 0x1400 JUMP JUMPDEST POP SWAP4 SWAP3 POP POP POP JUMP JUMPDEST PUSH1 0x0 DUP3 PUSH1 0x1F DUP4 ADD SLT PUSH2 0xD9B JUMPI PUSH2 0xD9A PUSH2 0x15AA JUMP JUMPDEST JUMPDEST DUP2 CALLDATALOAD PUSH2 0xDAB DUP5 DUP3 PUSH1 0x20 DUP7 ADD PUSH2 0xD44 JUMP JUMPDEST SWAP2 POP POP SWAP3 SWAP2 POP POP JUMP JUMPDEST PUSH1 0x0 DUP2 CALLDATALOAD SWAP1 POP PUSH2 0xDC3 DUP2 PUSH2 0x15CF JUMP JUMPDEST SWAP3 SWAP2 POP POP JUMP JUMPDEST PUSH1 0x0 DUP1 PUSH1 0x40 DUP4 DUP6 SUB SLT ISZERO PUSH2 0xDE0 JUMPI PUSH2 0xDDF PUSH2 0x15B9 JUMP JUMPDEST JUMPDEST PUSH1 0x0 DUP4 ADD CALLDATALOAD PUSH8 0xFFFFFFFFFFFFFFFF DUP2 GT ISZERO PUSH2 0xDFE JUMPI PUSH2 0xDFD PUSH2 0x15B4 JUMP JUMPDEST JUMPDEST PUSH2 0xE0A DUP6 DUP3 DUP7 ADD PUSH2 0xD86 JUMP JUMPDEST SWAP3 POP POP PUSH1 0x20 DUP4 ADD CALLDATALOAD PUSH8 0xFFFFFFFFFFFFFFFF DUP2 GT ISZERO PUSH2 0xE2B JUMPI PUSH2 0xE2A PUSH2 0x15B4 JUMP JUMPDEST JUMPDEST PUSH2 0xE37 DUP6 DUP3 DUP7 ADD PUSH2 0xD86 JUMP JUMPDEST SWAP2 POP POP SWAP3 POP SWAP3 SWAP1 POP JUMP JUMPDEST PUSH1 0x0 PUSH1 0x20 DUP3 DUP5 SUB SLT ISZERO PUSH2 0xE57 JUMPI PUSH2 0xE56 PUSH2 0x15B9 JUMP JUMPDEST JUMPDEST PUSH1 0x0 PUSH2 0xE65 DUP5 DUP3 DUP6 ADD PUSH2 0xDB4 JUMP JUMPDEST SWAP2 POP POP SWAP3 SWAP2 POP POP JUMP JUMPDEST PUSH1 0x0 DUP1 PUSH1 0x40 DUP4 DUP6 SUB SLT ISZERO PUSH2 0xE85 JUMPI PUSH2 0xE84 PUSH2 0x15B9 JUMP JUMPDEST JUMPDEST PUSH1 0x0 PUSH2 0xE93 DUP6 DUP3 DUP7 ADD PUSH2 0xDB4 JUMP JUMPDEST SWAP3 POP POP PUSH1 0x20 DUP4 ADD CALLDATALOAD PUSH8 0xFFFFFFFFFFFFFFFF DUP2 GT ISZERO PUSH2 0xEB4 JUMPI PUSH2 0xEB3 PUSH2 0x15B4 JUMP JUMPDEST JUMPDEST PUSH2 0xEC0 DUP6 DUP3 DUP7 ADD PUSH2 0xD86 JUMP JUMPDEST SWAP2 POP POP SWAP3 POP SWAP3 SWAP1 POP JUMP JUMPDEST PUSH1 0x0 DUP1 PUSH1 0x0 PUSH1 0x60 DUP5 DUP7 SUB SLT ISZERO PUSH2 0xEE3 JUMPI PUSH2 0xEE2 PUSH2 0x15B9 JUMP JUMPDEST JUMPDEST PUSH1 0x0 PUSH2 0xEF1 DUP7 DUP3 DUP8 ADD PUSH2 0xDB4 JUMP JUMPDEST SWAP4 POP POP PUSH1 0x20 PUSH2 0xF02 DUP7 DUP3 DUP8 ADD PUSH2 0xDB4 JUMP JUMPDEST SWAP3 POP POP PUSH1 0x40 DUP5 ADD CALLDATALOAD PUSH8 0xFFFFFFFFFFFFFFFF DUP2 GT ISZERO PUSH2 0xF23 JUMPI PUSH2 0xF22 PUSH2 0x15B4 JUMP JUMPDEST JUMPDEST PUSH2 0xF2F DUP7 DUP3 DUP8 ADD PUSH2 0xD86 JUMP JUMPDEST SWAP2 POP POP SWAP3 POP SWAP3 POP SWAP3 JUMP JUMPDEST PUSH1 0x0 PUSH2 0xF45 DUP4 DUP4 PUSH2 0x10DB JUMP JUMPDEST SWAP1 POP SWAP3 SWAP2 POP POP JUMP JUMPDEST PUSH1 0x0 PUSH2 0xF59 DUP4 DUP4 PUSH2 0x1118 JUMP JUMPDEST SWAP1 POP SWAP3 SWAP2 POP POP JUMP JUMPDEST PUSH2 0xF6A DUP2 PUSH2 0x13B8 JUMP JUMPDEST DUP3 MSTORE POP POP JUMP JUMPDEST PUSH1 0x0 PUSH2 0xF7B DUP3 PUSH2 0x1305 JUMP JUMPDEST PUSH2 0xF85 DUP2 DUP6 PUSH2 0x1340 JUMP JUMPDEST SWAP4 POP DUP4 PUSH1 0x20 DUP3 MUL DUP6 ADD PUSH2 0xF97 DUP6 PUSH2 0x12E5 JUMP JUMPDEST DUP1 PUSH1 0x0 JUMPDEST DUP6 DUP2 LT ISZERO PUSH2 0xFD3 JUMPI DUP5 DUP5 SUB DUP10 MSTORE DUP2 MLOAD PUSH2 0xFB4 DUP6 DUP3 PUSH2 0xF39 JUMP JUMPDEST SWAP5 POP PUSH2 0xFBF DUP4 PUSH2 0x1326 JUMP JUMPDEST SWAP3 POP PUSH1 0x20 DUP11 ADD SWAP10 POP POP PUSH1 0x1 DUP2 ADD SWAP1 POP PUSH2 0xF9B JUMP JUMPDEST POP DUP3 SWAP8 POP DUP8 SWAP6 POP POP POP POP POP POP SWAP3 SWAP2 POP POP JUMP JUMPDEST PUSH1 0x0 PUSH2 0xFF0 DUP3 PUSH2 0x1310 JUMP JUMPDEST PUSH2 0xFFA DUP2 DUP6 PUSH2 0x1351 JUMP JUMPDEST SWAP4 POP DUP4 PUSH1 0x20 DUP3 MUL DUP6 ADD PUSH2 0x100C DUP6 PUSH2 0x12F5 JUMP JUMPDEST DUP1 PUSH1 0x0 JUMPDEST DUP6 DUP2 LT ISZERO PUSH2 0x1048 JUMPI DUP5 DUP5 SUB DUP10 MSTORE DUP2 MLOAD PUSH2 0x1029 DUP6 DUP3 PUSH2 0xF4D JUMP JUMPDEST SWAP5 POP PUSH2 0x1034 DUP4 PUSH2 0x1333 JUMP JUMPDEST SWAP3 POP PUSH1 0x20 DUP11 ADD SWAP10 POP POP PUSH1 0x1 DUP2 ADD SWAP1 POP PUSH2 0x1010 JUMP JUMPDEST POP DUP3 SWAP8 POP DUP8 SWAP6 POP POP POP POP POP POP SWAP3 SWAP2 POP POP JUMP JUMPDEST PUSH2 0x1063 DUP2 PUSH2 0x13CA JUMP JUMPDEST DUP3 MSTORE POP POP JUMP JUMPDEST PUSH1 0x0 PUSH2 0x1074 DUP3 PUSH2 0x131B JUMP JUMPDEST PUSH2 0x107E DUP2 DUP6 PUSH2 0x1362 JUMP JUMPDEST SWAP4 POP PUSH2 0x108E DUP2 DUP6 PUSH1 0x20 DUP7 ADD PUSH2 0x140F JUMP JUMPDEST PUSH2 0x1097 DUP2 PUSH2 0x15BE JUMP JUMPDEST DUP5 ADD SWAP2 POP POP SWAP3 SWAP2 POP POP JUMP JUMPDEST PUSH1 0x0 PUSH2 0x10AD DUP3 PUSH2 0x131B JUMP JUMPDEST PUSH2 0x10B7 DUP2 DUP6 PUSH2 0x1373 JUMP JUMPDEST SWAP4 POP PUSH2 0x10C7 DUP2 DUP6 PUSH1 0x20 DUP7 ADD PUSH2 0x140F JUMP JUMPDEST PUSH2 0x10D0 DUP2 PUSH2 0x15BE JUMP JUMPDEST DUP5 ADD SWAP2 POP POP SWAP3 SWAP2 POP POP JUMP JUMPDEST PUSH1 0x0 PUSH1 0x40 DUP4 ADD PUSH1 0x0 DUP4 ADD MLOAD DUP5 DUP3 SUB PUSH1 0x0 DUP7 ADD MSTORE PUSH2 0x10F8 DUP3 DUP3 PUSH2 0x1069 JUMP JUMPDEST SWAP2 POP POP PUSH1 0x20 DUP4 ADD MLOAD PUSH2 0x110D PUSH1 0x20 DUP7 ADD DUP3 PUSH2 0x1195 JUMP JUMPDEST POP DUP1 SWAP2 POP POP SWAP3 SWAP2 POP POP JUMP JUMPDEST PUSH1 0x0 PUSH1 0xA0 DUP4 ADD PUSH1 0x0 DUP4 ADD MLOAD DUP5 DUP3 SUB PUSH1 0x0 DUP7 ADD MSTORE PUSH2 0x1135 DUP3 DUP3 PUSH2 0x1069 JUMP JUMPDEST SWAP2 POP POP PUSH1 0x20 DUP4 ADD MLOAD DUP5 DUP3 SUB PUSH1 0x20 DUP7 ADD MSTORE PUSH2 0x114F DUP3 DUP3 PUSH2 0x1069 JUMP JUMPDEST SWAP2 POP POP PUSH1 0x40 DUP4 ADD MLOAD PUSH2 0x1164 PUSH1 0x40 DUP7 ADD DUP3 PUSH2 0x1195 JUMP JUMPDEST POP PUSH1 0x60 DUP4 ADD MLOAD PUSH2 0x1177 PUSH1 0x60 DUP7 ADD DUP3 PUSH2 0x1195 JUMP JUMPDEST POP PUSH1 0x80 DUP4 ADD MLOAD PUSH2 0x118A PUSH1 0x80 DUP7 ADD DUP3 PUSH2 0x1195 JUMP JUMPDEST POP DUP1 SWAP2 POP POP SWAP3 SWAP2 POP POP JUMP JUMPDEST PUSH2 0x119E DUP2 PUSH2 0x13F6 JUMP JUMPDEST DUP3 MSTORE POP POP JUMP JUMPDEST PUSH2 0x11AD DUP2 PUSH2 0x13F6 JUMP JUMPDEST DUP3 MSTORE POP POP JUMP JUMPDEST PUSH1 0x0 PUSH1 0x20 DUP3 ADD SWAP1 POP DUP2 DUP2 SUB PUSH1 0x0 DUP4 ADD MSTORE PUSH2 0x11CD DUP2 DUP5 PUSH2 0xF70 JUMP JUMPDEST SWAP1 POP SWAP3 SWAP2 POP POP JUMP JUMPDEST PUSH1 0x0 PUSH1 0x20 DUP3 ADD SWAP1 POP DUP2 DUP2 SUB PUSH1 0x0 DUP4 ADD MSTORE PUSH2 0x11EF DUP2 DUP5 PUSH2 0xFE5 JUMP JUMPDEST SWAP1 POP SWAP3 SWAP2 POP POP JUMP JUMPDEST PUSH1 0x0 PUSH1 0xE0 DUP3 ADD SWAP1 POP DUP2 DUP2 SUB PUSH1 0x0 DUP4 ADD MSTORE PUSH2 0x1211 DUP2 DUP11 PUSH2 0x10A2 JUMP JUMPDEST SWAP1 POP DUP2 DUP2 SUB PUSH1 0x20 DUP4 ADD MSTORE PUSH2 0x1225 DUP2 DUP10 PUSH2 0x10A2 JUMP JUMPDEST SWAP1 POP PUSH2 0x1234 PUSH1 0x40 DUP4 ADD DUP9 PUSH2 0x11A4 JUMP JUMPDEST PUSH2 0x1241 PUSH1 0x60 DUP4 ADD DUP8 PUSH2 0xF61 JUMP JUMPDEST PUSH2 0x124E PUSH1 0x80 DUP4 ADD DUP7 PUSH2 0x11A4 JUMP JUMPDEST PUSH2 0x125B PUSH1 0xA0 DUP4 ADD DUP6 PUSH2 0x105A JUMP JUMPDEST PUSH2 0x1268 PUSH1 0xC0 DUP4 ADD DUP5 PUSH2 0x11A4 JUMP JUMPDEST SWAP9 SWAP8 POP POP POP POP POP POP POP POP JUMP JUMPDEST PUSH1 0x0 PUSH1 0x20 DUP3 ADD SWAP1 POP PUSH2 0x1289 PUSH1 0x0 DUP4 ADD DUP5 PUSH2 0x11A4 JUMP JUMPDEST SWAP3 SWAP2 POP POP JUMP JUMPDEST PUSH1 0x0 PUSH2 0x1299 PUSH2 0x12AA JUMP JUMPDEST SWAP1 POP PUSH2 0x12A5 DUP3 DUP3 PUSH2 0x1474 JUMP JUMPDEST SWAP2 SWAP1 POP JUMP JUMPDEST PUSH1 0x0 PUSH1 0x40 MLOAD SWAP1 POP SWAP1 JUMP JUMPDEST PUSH1 0x0 PUSH8 0xFFFFFFFFFFFFFFFF DUP3 GT ISZERO PUSH2 0x12CF JUMPI PUSH2 0x12CE PUSH2 0x157B JUMP JUMPDEST JUMPDEST PUSH2 0x12D8 DUP3 PUSH2 0x15BE JUMP JUMPDEST SWAP1 POP PUSH1 0x20 DUP2 ADD SWAP1 POP SWAP2 SWAP1 POP JUMP JUMPDEST PUSH1 0x0 DUP2 SWAP1 POP PUSH1 0x20 DUP3 ADD SWAP1 POP SWAP2 SWAP1 POP JUMP JUMPDEST PUSH1 0x0 DUP2 SWAP1 POP PUSH1 0x20 DUP3 ADD SWAP1 POP SWAP2 SWAP1 POP JUMP JUMPDEST PUSH1 0x0 DUP2 MLOAD SWAP1 POP SWAP2 SWAP1 POP JUMP JUMPDEST PUSH1 0x0 DUP2 MLOAD SWAP1 POP SWAP2 SWAP1 POP JUMP JUMPDEST PUSH1 0x0 DUP2 MLOAD SWAP1 POP SWAP2 SWAP1 POP JUMP JUMPDEST PUSH1 0x0 PUSH1 0x20 DUP3 ADD SWAP1 POP SWAP2 SWAP1 POP JUMP JUMPDEST PUSH1 0x0 PUSH1 0x20 DUP3 ADD SWAP1 POP SWAP2 SWAP1 POP JUMP JUMPDEST PUSH1 0x0 DUP3 DUP3 MSTORE PUSH1 0x20 DUP3 ADD SWAP1 POP SWAP3 SWAP2 POP POP JUMP JUMPDEST PUSH1 0x0 DUP3 DUP3 MSTORE PUSH1 0x20 DUP3 ADD SWAP1 POP SWAP3 SWAP2 POP POP JUMP JUMPDEST PUSH1 0x0 DUP3 DUP3 MSTORE PUSH1 0x20 DUP3 ADD SWAP1 POP SWAP3 SWAP2 POP POP JUMP JUMPDEST PUSH1 0x0 DUP3 DUP3 MSTORE PUSH1 0x20 DUP3 ADD SWAP1 POP SWAP3 SWAP2 POP POP JUMP JUMPDEST PUSH1 0x0 PUSH2 0x138F DUP3 PUSH2 0x13F6 JUMP JUMPDEST SWAP2 POP PUSH2 0x139A DUP4 PUSH2 0x13F6 JUMP JUMPDEST SWAP3 POP DUP3 DUP3 LT ISZERO PUSH2 0x13AD JUMPI PUSH2 0x13AC PUSH2 0x14EE JUMP JUMPDEST JUMPDEST DUP3 DUP3 SUB SWAP1 POP SWAP3 SWAP2 POP POP JUMP JUMPDEST PUSH1 0x0 PUSH2 0x13C3 DUP3 PUSH2 0x13D6 JUMP JUMPDEST SWAP1 POP SWAP2 SWAP1 POP JUMP JUMPDEST PUSH1 0x0 DUP2 ISZERO ISZERO SWAP1 POP SWAP2 SWAP1 POP JUMP JUMPDEST PUSH1 0x0 PUSH20 0xFFFFFFFFFFFFFFFFFFFFFFFFFFFFFFFFFFFFFFFF DUP3 AND SWAP1 POP SWAP2 SWAP1 POP JUMP JUMPDEST PUSH1 0x0 DUP2 SWAP1 POP SWAP2 SWAP1 POP JUMP JUMPDEST DUP3 DUP2 DUP4 CALLDATACOPY PUSH1 0x0 DUP4 DUP4 ADD MSTORE POP POP POP JUMP JUMPDEST PUSH1 0x0 JUMPDEST DUP4 DUP2 LT ISZERO PUSH2 0x142D JUMPI DUP1 DUP3 ADD MLOAD DUP2 DUP5 ADD MSTORE PUSH1 0x20 DUP2 ADD SWAP1 POP PUSH2 0x1412 JUMP JUMPDEST DUP4 DUP2 GT ISZERO PUSH2 0x143C JUMPI PUSH1 0x0 DUP5 DUP5 ADD MSTORE JUMPDEST POP POP POP POP JUMP JUMPDEST PUSH1 0x0 PUSH1 0x2 DUP3 DIV SWAP1 POP PUSH1 0x1 DUP3 AND DUP1 PUSH2 0x145A JUMPI PUSH1 0x7F DUP3 AND SWAP2 POP JUMPDEST PUSH1 0x20 DUP3 LT DUP2 EQ ISZERO PUSH2 0x146E JUMPI PUSH2 0x146D PUSH2 0x151D JUMP JUMPDEST JUMPDEST POP SWAP2 SWAP1 POP JUMP JUMPDEST PUSH2 0x147D DUP3 PUSH2 0x15BE JUMP JUMPDEST DUP2 ADD DUP2 DUP2 LT PUSH8 0xFFFFFFFFFFFFFFFF DUP3 GT OR ISZERO PUSH2 0x149C JUMPI PUSH2 0x149B PUSH2 0x157B JUMP JUMPDEST JUMPDEST DUP1 PUSH1 0x40 MSTORE POP POP POP JUMP JUMPDEST PUSH1 0x0 PUSH2 0x14B0 DUP3 PUSH2 0x13F6 JUMP JUMPDEST SWAP2 POP PUSH32 0xFFFFFFFFFFFFFFFFFFFFFFFFFFFFFFFFFFFFFFFFFFFFFFFFFFFFFFFFFFFFFFFF DUP3 EQ ISZERO PUSH2 0x14E3 JUMPI PUSH2 0x14E2 PUSH2 0x14EE JUMP JUMPDEST JUMPDEST PUSH1 0x1 DUP3 ADD SWAP1 POP SWAP2 SWAP1 POP JUMP JUMPDEST PUSH32 0x4E487B7100000000000000000000000000000000000000000000000000000000 PUSH1 0x0 MSTORE PUSH1 0x11 PUSH1 0x4 MSTORE PUSH1 0x24 PUSH1 0x0 REVERT JUMPDEST PUSH32 0x4E487B7100000000000000000000000000000000000000000000000000000000 PUSH1 0x0 MSTORE PUSH1 0x22 PUSH1 0x4 MSTORE PUSH1 0x24 PUSH1 0x0 REVERT JUMPDEST PUSH32 0x4E487B7100000000000000000000000000000000000000000000000000000000 PUSH1 0x0 MSTORE PUSH1 0x32 PUSH1 0x4 MSTORE PUSH1 0x24 PUSH1 0x0 REVERT JUMPDEST PUSH32 0x4E487B7100000000000000000000000000000000000000000000000000000000 PUSH1 0x0 MSTORE PUSH1 0x41 PUSH1 0x4 MSTORE PUSH1 0x24 PUSH1 0x0 REVERT JUMPDEST PUSH1 0x0 DUP1 REVERT JUMPDEST PUSH1 0x0 DUP1 REVERT JUMPDEST PUSH1 0x0 DUP1 REVERT JUMPDEST PUSH1 0x0 DUP1 REVERT JUMPDEST PUSH1 0x0 PUSH1 0x1F NOT PUSH1 0x1F DUP4 ADD AND SWAP1 POP SWAP2 SWAP1 POP JUMP JUMPDEST PUSH2 0x15D8 DUP2 PUSH2 0x13F6 JUMP JUMPDEST DUP2 EQ PUSH2 0x15E3 JUMPI PUSH1 0x0 DUP1 REVERT JUMPDEST POP JUMP INVALID LOG2 PUSH5 0x6970667358 0x22 SLT KECCAK256 SWAP9 RETURN 0xD4 PUSH14 0x527A6E362ED6C270DCD309E986D0 BASEFEE 0xC3 GT 0xAC 0xE2 0xD0 SWAP7 MSTORE8 0x4B SWAP16 0xC1 PUSH32 0x978364736F6C6343000807003300000000000000000000000000000000000000 "
				},
				"gasEstimates": {
					"creation": {
						"codeDepositCost": "1132000",
						"executionCost": "11186",
						"totalCost": "1143186"
					},
					"external": {
						"addOption(uint256,string)": "infinite",
						"createPool(string,string)": "infinite",
						"getActivePools()": "infinite",
						"getNumOfOptions(uint256)": "infinite",
						"getNumOfVotes(uint256)": "infinite",
						"getOptions(uint256)": "infinite",
						"numOfActivePools()": "2474",
						"numOfPools()": "2539",
						"pools(uint256)": "infinite",
						"startPool(uint256)": "infinite",
						"vote(uint256,uint256,string)": "infinite"
					}
				},
				"methodIdentifiers": {
					"addOption(uint256,string)": "ea57d5d4",
					"createPool(string,string)": "5ea81a32",
					"getActivePools()": "8ec08354",
					"getNumOfOptions(uint256)": "186dd066",
					"getNumOfVotes(uint256)": "8c8e54fb",
					"getOptions(uint256)": "8915b3fb",
					"numOfActivePools()": "7e1d9ba5",
					"numOfPools()": "fcbd2a88",
					"pools(uint256)": "ac4afa38",
					"startPool(uint256)": "a901d15c",
					"vote(uint256,uint256,string)": "a1bbfc05"
				}
			},
			"userdoc": {
				"kind": "user",
				"methods": {},
				"version": 1
			}
		}
	}
}