{
	"contracts/eVoting_app.sol": {
		"EVoteApp": {
			"abi": [
				{
					"inputs": [
						{
							"internalType": "uint256",
							"name": "_poolIndex",
							"type": "uint256"
						},
						{
							"internalType": "string",
							"name": "_name",
							"type": "string"
						}
					],
					"name": "addOption",
					"outputs": [],
					"stateMutability": "nonpayable",
					"type": "function"
				},
				{
					"inputs": [
						{
							"internalType": "string",
							"name": "_poolName",
							"type": "string"
						},
						{
							"internalType": "string",
							"name": "_description",
							"type": "string"
						}
					],
					"name": "createPool",
					"outputs": [
						{
							"internalType": "uint256",
							"name": "",
							"type": "uint256"
						}
					],
					"stateMutability": "nonpayable",
					"type": "function"
				},
				{
					"inputs": [
						{
							"internalType": "uint256",
							"name": "_poolIndex",
							"type": "uint256"
						}
					],
					"name": "getAcPools",
					"outputs": [
						{
							"components": [
								{
									"internalType": "string",
									"name": "name",
									"type": "string"
								},
								{
									"internalType": "uint256",
									"name": "numOfVotes",
									"type": "uint256"
								}
							],
							"internalType": "struct EVoteApp.Option[]",
							"name": "",
							"type": "tuple[]"
						}
					],
					"stateMutability": "view",
					"type": "function"
				},
				{
					"inputs": [
						{
							"internalType": "uint256",
							"name": "_poolIndex",
							"type": "uint256"
						}
					],
					"name": "getNumOfOptions",
					"outputs": [
						{
							"internalType": "uint256",
							"name": "",
							"type": "uint256"
						}
					],
					"stateMutability": "view",
					"type": "function"
				},
				{
					"inputs": [
						{
							"internalType": "uint256",
							"name": "_poolIndex",
							"type": "uint256"
						}
					],
					"name": "getNumOfVotes",
					"outputs": [
						{
							"internalType": "uint256",
							"name": "",
							"type": "uint256"
						}
					],
					"stateMutability": "view",
					"type": "function"
				},
				{
					"inputs": [
						{
							"internalType": "uint256",
							"name": "_poolIndex",
							"type": "uint256"
						}
					],
					"name": "getOptions",
					"outputs": [
						{
							"components": [
								{
									"internalType": "string",
									"name": "name",
									"type": "string"
								},
								{
									"internalType": "uint256",
									"name": "numOfVotes",
									"type": "uint256"
								}
							],
							"internalType": "struct EVoteApp.Option[]",
							"name": "",
							"type": "tuple[]"
						}
					],
					"stateMutability": "view",
					"type": "function"
				},
				{
					"inputs": [
						{
							"internalType": "uint256",
							"name": "_poolIndex",
							"type": "uint256"
						}
					],
					"name": "startPool",
					"outputs": [],
					"stateMutability": "nonpayable",
					"type": "function"
				},
				{
					"inputs": [
						{
							"internalType": "uint256",
							"name": "_poolIndex",
							"type": "uint256"
						},
						{
							"internalType": "uint256",
							"name": "selectedOption",
							"type": "uint256"
						},
						{
							"internalType": "string",
							"name": "_username",
							"type": "string"
						}
					],
					"name": "vote",
					"outputs": [],
					"stateMutability": "nonpayable",
					"type": "function"
				}
			],
			"devdoc": {
				"kind": "dev",
				"methods": {},
				"version": 1
			},
			"evm": {
				"assembly": "    /* \"contracts/eVoting_app.sol\":71:3144  contract EVoteApp{... */\n  mstore(0x40, 0x80)\n    /* \"contracts/eVoting_app.sol\":653:654  0 */\n  0x00\n    /* \"contracts/eVoting_app.sol\":632:654  uint256 numOfPools = 0 */\n  0x01\n  sstore\n    /* \"contracts/eVoting_app.sol\":71:3144  contract EVoteApp{... */\n  callvalue\n  dup1\n  iszero\n  tag_1\n  jumpi\n  0x00\n  dup1\n  revert\ntag_1:\n  pop\n  dataSize(sub_0)\n  dup1\n  dataOffset(sub_0)\n  0x00\n  codecopy\n  0x00\n  return\nstop\n\nsub_0: assembly {\n        /* \"contracts/eVoting_app.sol\":71:3144  contract EVoteApp{... */\n      mstore(0x40, 0x80)\n      callvalue\n      dup1\n      iszero\n      tag_1\n      jumpi\n      0x00\n      dup1\n      revert\n    tag_1:\n      pop\n      jumpi(tag_2, lt(calldatasize, 0x04))\n      shr(0xe0, calldataload(0x00))\n      dup1\n      0x8c8e54fb\n      gt\n      tag_11\n      jumpi\n      dup1\n      0x8c8e54fb\n      eq\n      tag_7\n      jumpi\n      dup1\n      0xa1bbfc05\n      eq\n      tag_8\n      jumpi\n      dup1\n      0xa901d15c\n      eq\n      tag_9\n      jumpi\n      dup1\n      0xea57d5d4\n      eq\n      tag_10\n      jumpi\n      jump(tag_2)\n    tag_11:\n      dup1\n      0x186dd066\n      eq\n      tag_3\n      jumpi\n      dup1\n      0x3b1744cc\n      eq\n      tag_4\n      jumpi\n      dup1\n      0x5ea81a32\n      eq\n      tag_5\n      jumpi\n      dup1\n      0x8915b3fb\n      eq\n      tag_6\n      jumpi\n    tag_2:\n      0x00\n      dup1\n      revert\n        /* \"contracts/eVoting_app.sol\":2348:2475  function getNumOfOptions(uint256 _poolIndex) public view returns(uint256){... */\n    tag_3:\n      tag_12\n      0x04\n      dup1\n      calldatasize\n      sub\n      dup2\n      add\n      swap1\n      tag_13\n      swap2\n      swap1\n      tag_14\n      jump\t// in\n    tag_13:\n      tag_15\n      jump\t// in\n    tag_12:\n      mload(0x40)\n      tag_16\n      swap2\n      swap1\n      tag_17\n      jump\t// in\n    tag_16:\n      mload(0x40)\n      dup1\n      swap2\n      sub\n      swap1\n      return\n        /* \"contracts/eVoting_app.sol\":2812:3137  function getAcPools(uint256 _poolIndex) public view returns(Option[] memory){... */\n    tag_4:\n      tag_18\n      0x04\n      dup1\n      calldatasize\n      sub\n      dup2\n      add\n      swap1\n      tag_19\n      swap2\n      swap1\n      tag_14\n      jump\t// in\n    tag_19:\n      tag_20\n      jump\t// in\n    tag_18:\n      mload(0x40)\n      tag_21\n      swap2\n      swap1\n      tag_22\n      jump\t// in\n    tag_21:\n      mload(0x40)\n      dup1\n      swap2\n      sub\n      swap1\n      return\n        /* \"contracts/eVoting_app.sol\":903:1334  function createPool(string memory _poolName, string memory _description) public returns(uint256){... */\n    tag_5:\n      tag_23\n      0x04\n      dup1\n      calldatasize\n      sub\n      dup2\n      add\n      swap1\n      tag_24\n      swap2\n      swap1\n      tag_25\n      jump\t// in\n    tag_24:\n      tag_26\n      jump\t// in\n    tag_23:\n      mload(0x40)\n      tag_27\n      swap2\n      swap1\n      tag_17\n      jump\t// in\n    tag_27:\n      mload(0x40)\n      dup1\n      swap2\n      sub\n      swap1\n      return\n        /* \"contracts/eVoting_app.sol\":2481:2806  function getOptions(uint256 _poolIndex) public view returns(Option[] memory){... */\n    tag_6:\n      tag_28\n      0x04\n      dup1\n      calldatasize\n      sub\n      dup2\n      add\n      swap1\n      tag_29\n      swap2\n      swap1\n      tag_14\n      jump\t// in\n    tag_29:\n      tag_30\n      jump\t// in\n    tag_28:\n      mload(0x40)\n      tag_31\n      swap2\n      swap1\n      tag_22\n      jump\t// in\n    tag_31:\n      mload(0x40)\n      dup1\n      swap2\n      sub\n      swap1\n      return\n        /* \"contracts/eVoting_app.sol\":2219:2342  function getNumOfVotes(uint256 _poolIndex) public view returns(uint256){... */\n    tag_7:\n      tag_32\n      0x04\n      dup1\n      calldatasize\n      sub\n      dup2\n      add\n      swap1\n      tag_33\n      swap2\n      swap1\n      tag_14\n      jump\t// in\n    tag_33:\n      tag_34\n      jump\t// in\n    tag_32:\n      mload(0x40)\n      tag_35\n      swap2\n      swap1\n      tag_17\n      jump\t// in\n    tag_35:\n      mload(0x40)\n      dup1\n      swap2\n      sub\n      swap1\n      return\n        /* \"contracts/eVoting_app.sol\":1714:2213  function vote(uint256 _poolIndex, uint256 selectedOption, string memory _username) canVote(_poolIndex) public{... */\n    tag_8:\n      tag_36\n      0x04\n      dup1\n      calldatasize\n      sub\n      dup2\n      add\n      swap1\n      tag_37\n      swap2\n      swap1\n      tag_38\n      jump\t// in\n    tag_37:\n      tag_39\n      jump\t// in\n    tag_36:\n      stop\n        /* \"contracts/eVoting_app.sol\":1554:1708  function startPool(uint256 _poolIndex) onlyOwner(_poolIndex) public{... */\n    tag_9:\n      tag_40\n      0x04\n      dup1\n      calldatasize\n      sub\n      dup2\n      add\n      swap1\n      tag_41\n      swap2\n      swap1\n      tag_14\n      jump\t// in\n    tag_41:\n      tag_42\n      jump\t// in\n    tag_40:\n      stop\n        /* \"contracts/eVoting_app.sol\":1340:1548  function addOption(uint256 _poolIndex, string memory _name) onlyOwner(_poolIndex) public{... */\n    tag_10:\n      tag_43\n      0x04\n      dup1\n      calldatasize\n      sub\n      dup2\n      add\n      swap1\n      tag_44\n      swap2\n      swap1\n      tag_45\n      jump\t// in\n    tag_44:\n      tag_46\n      jump\t// in\n    tag_43:\n      stop\n        /* \"contracts/eVoting_app.sol\":2348:2475  function getNumOfOptions(uint256 _poolIndex) public view returns(uint256){... */\n    tag_15:\n        /* \"contracts/eVoting_app.sol\":2413:2420  uint256 */\n      0x00\n        /* \"contracts/eVoting_app.sol\":2438:2443  pools */\n      dup1\n        /* \"contracts/eVoting_app.sol\":2438:2455  pools[_poolIndex] */\n      0x00\n        /* \"contracts/eVoting_app.sol\":2444:2454  _poolIndex */\n      dup4\n        /* \"contracts/eVoting_app.sol\":2438:2455  pools[_poolIndex] */\n      dup2\n      mstore\n      0x20\n      add\n      swap1\n      dup2\n      mstore\n      0x20\n      add\n      0x00\n      keccak256\n        /* \"contracts/eVoting_app.sol\":2438:2468  pools[_poolIndex].numOfOptions */\n      0x06\n      add\n      sload\n        /* \"contracts/eVoting_app.sol\":2431:2468  return pools[_poolIndex].numOfOptions */\n      swap1\n      pop\n        /* \"contracts/eVoting_app.sol\":2348:2475  function getNumOfOptions(uint256 _poolIndex) public view returns(uint256){... */\n      swap2\n      swap1\n      pop\n      jump\t// out\n        /* \"contracts/eVoting_app.sol\":2812:3137  function getAcPools(uint256 _poolIndex) public view returns(Option[] memory){... */\n    tag_20:\n        /* \"contracts/eVoting_app.sol\":2872:2887  Option[] memory */\n      0x60\n        /* \"contracts/eVoting_app.sol\":2899:2923  Option[] memory _options */\n      0x00\n        /* \"contracts/eVoting_app.sol\":2939:2944  pools */\n      dup1\n        /* \"contracts/eVoting_app.sol\":2939:2956  pools[_poolIndex] */\n      0x00\n        /* \"contracts/eVoting_app.sol\":2945:2955  _poolIndex */\n      dup5\n        /* \"contracts/eVoting_app.sol\":2939:2956  pools[_poolIndex] */\n      dup2\n      mstore\n      0x20\n      add\n      swap1\n      dup2\n      mstore\n      0x20\n      add\n      0x00\n      keccak256\n        /* \"contracts/eVoting_app.sol\":2939:2969  pools[_poolIndex].numOfOptions */\n      0x06\n      add\n      sload\n        /* \"contracts/eVoting_app.sol\":2926:2970  new Option[](pools[_poolIndex].numOfOptions) */\n      0xffffffffffffffff\n      dup2\n      gt\n      iszero\n      tag_49\n      jumpi\n      tag_50\n      tag_51\n      jump\t// in\n    tag_50:\n    tag_49:\n      mload(0x40)\n      swap1\n      dup1\n      dup3\n      mstore\n      dup1\n      0x20\n      mul\n      0x20\n      add\n      dup3\n      add\n      0x40\n      mstore\n      dup1\n      iszero\n      tag_52\n      jumpi\n      dup2\n      0x20\n      add\n    tag_53:\n      tag_54\n      tag_55\n      jump\t// in\n    tag_54:\n      dup2\n      mstore\n      0x20\n      add\n      swap1\n      0x01\n      swap1\n      sub\n      swap1\n      dup2\n      tag_53\n      jumpi\n      swap1\n      pop\n    tag_52:\n      pop\n        /* \"contracts/eVoting_app.sol\":2899:2970  Option[] memory _options = new Option[](pools[_poolIndex].numOfOptions) */\n      swap1\n      pop\n        /* \"contracts/eVoting_app.sol\":2986:2992  uint i */\n      0x00\n        /* \"contracts/eVoting_app.sol\":2981:3106  for (uint i = 0; i < pools[_poolIndex].numOfOptions; i++) {... */\n    tag_56:\n        /* \"contracts/eVoting_app.sol\":3002:3007  pools */\n      0x00\n        /* \"contracts/eVoting_app.sol\":3002:3019  pools[_poolIndex] */\n      dup1\n        /* \"contracts/eVoting_app.sol\":3008:3018  _poolIndex */\n      dup6\n        /* \"contracts/eVoting_app.sol\":3002:3019  pools[_poolIndex] */\n      dup2\n      mstore\n      0x20\n      add\n      swap1\n      dup2\n      mstore\n      0x20\n      add\n      0x00\n      keccak256\n        /* \"contracts/eVoting_app.sol\":3002:3032  pools[_poolIndex].numOfOptions */\n      0x06\n      add\n      sload\n        /* \"contracts/eVoting_app.sol\":2998:2999  i */\n      dup2\n        /* \"contracts/eVoting_app.sol\":2998:3032  i < pools[_poolIndex].numOfOptions */\n      lt\n        /* \"contracts/eVoting_app.sol\":2981:3106  for (uint i = 0; i < pools[_poolIndex].numOfOptions; i++) {... */\n      iszero\n      tag_57\n      jumpi\n        /* \"contracts/eVoting_app.sol\":3067:3072  pools */\n      0x00\n        /* \"contracts/eVoting_app.sol\":3067:3084  pools[_poolIndex] */\n      dup1\n        /* \"contracts/eVoting_app.sol\":3073:3083  _poolIndex */\n      dup6\n        /* \"contracts/eVoting_app.sol\":3067:3084  pools[_poolIndex] */\n      dup2\n      mstore\n      0x20\n      add\n      swap1\n      dup2\n      mstore\n      0x20\n      add\n      0x00\n      keccak256\n        /* \"contracts/eVoting_app.sol\":3067:3092  pools[_poolIndex].options */\n      0x05\n      add\n        /* \"contracts/eVoting_app.sol\":3067:3095  pools[_poolIndex].options[i] */\n      0x00\n        /* \"contracts/eVoting_app.sol\":3093:3094  i */\n      dup3\n        /* \"contracts/eVoting_app.sol\":3067:3095  pools[_poolIndex].options[i] */\n      dup2\n      mstore\n      0x20\n      add\n      swap1\n      dup2\n      mstore\n      0x20\n      add\n      0x00\n      keccak256\n        /* \"contracts/eVoting_app.sol\":3053:3095  _options[i] = pools[_poolIndex].options[i] */\n      mload(0x40)\n      dup1\n      0x40\n      add\n      0x40\n      mstore\n      swap1\n      dup2\n      0x00\n      dup3\n      add\n      dup1\n      sload\n      tag_59\n      swap1\n      tag_60\n      jump\t// in\n    tag_59:\n      dup1\n      0x1f\n      add\n      0x20\n      dup1\n      swap2\n      div\n      mul\n      0x20\n      add\n      mload(0x40)\n      swap1\n      dup2\n      add\n      0x40\n      mstore\n      dup1\n      swap3\n      swap2\n      swap1\n      dup2\n      dup2\n      mstore\n      0x20\n      add\n      dup3\n      dup1\n      sload\n      tag_61\n      swap1\n      tag_60\n      jump\t// in\n    tag_61:\n      dup1\n      iszero\n      tag_62\n      jumpi\n      dup1\n      0x1f\n      lt\n      tag_63\n      jumpi\n      0x0100\n      dup1\n      dup4\n      sload\n      div\n      mul\n      dup4\n      mstore\n      swap2\n      0x20\n      add\n      swap2\n      jump(tag_62)\n    tag_63:\n      dup3\n      add\n      swap2\n      swap1\n      0x00\n      mstore\n      keccak256(0x00, 0x20)\n      swap1\n    tag_64:\n      dup2\n      sload\n      dup2\n      mstore\n      swap1\n      0x01\n      add\n      swap1\n      0x20\n      add\n      dup1\n      dup4\n      gt\n      tag_64\n      jumpi\n      dup3\n      swap1\n      sub\n      0x1f\n      and\n      dup3\n      add\n      swap2\n    tag_62:\n      pop\n      pop\n      pop\n      pop\n      pop\n      dup2\n      mstore\n      0x20\n      add\n      0x01\n      dup3\n      add\n      sload\n      dup2\n      mstore\n      pop\n      pop\n        /* \"contracts/eVoting_app.sol\":3053:3061  _options */\n      dup3\n        /* \"contracts/eVoting_app.sol\":3062:3063  i */\n      dup3\n        /* \"contracts/eVoting_app.sol\":3053:3064  _options[i] */\n      dup2\n      mload\n      dup2\n      lt\n      tag_65\n      jumpi\n      tag_66\n      tag_67\n      jump\t// in\n    tag_66:\n    tag_65:\n      0x20\n      mul\n      0x20\n      add\n      add\n        /* \"contracts/eVoting_app.sol\":3053:3095  _options[i] = pools[_poolIndex].options[i] */\n      dup2\n      swap1\n      mstore\n      pop\n        /* \"contracts/eVoting_app.sol\":3034:3037  i++ */\n      dup1\n      dup1\n      tag_68\n      swap1\n      tag_69\n      jump\t// in\n    tag_68:\n      swap2\n      pop\n      pop\n        /* \"contracts/eVoting_app.sol\":2981:3106  for (uint i = 0; i < pools[_poolIndex].numOfOptions; i++) {... */\n      jump(tag_56)\n    tag_57:\n      pop\n        /* \"contracts/eVoting_app.sol\":3122:3130  _options */\n      dup1\n        /* \"contracts/eVoting_app.sol\":3115:3130  return _options */\n      swap2\n      pop\n      pop\n        /* \"contracts/eVoting_app.sol\":2812:3137  function getAcPools(uint256 _poolIndex) public view returns(Option[] memory){... */\n      swap2\n      swap1\n      pop\n      jump\t// out\n        /* \"contracts/eVoting_app.sol\":903:1334  function createPool(string memory _poolName, string memory _description) public returns(uint256){... */\n    tag_26:\n        /* \"contracts/eVoting_app.sol\":991:998  uint256 */\n      0x00\n        /* \"contracts/eVoting_app.sol\":1010:1028  Pool storage _pool */\n      dup1\n        /* \"contracts/eVoting_app.sol\":1031:1036  pools */\n      0x00\n        /* \"contracts/eVoting_app.sol\":1031:1050  pools[numOfPools++] */\n      dup1\n        /* \"contracts/eVoting_app.sol\":1037:1047  numOfPools */\n      0x01\n      0x00\n        /* \"contracts/eVoting_app.sol\":1037:1049  numOfPools++ */\n      dup2\n      sload\n      dup1\n      swap3\n      swap2\n      swap1\n      tag_71\n      swap1\n      tag_69\n      jump\t// in\n    tag_71:\n      swap2\n      swap1\n      pop\n      sstore\n        /* \"contracts/eVoting_app.sol\":1031:1050  pools[numOfPools++] */\n      dup2\n      mstore\n      0x20\n      add\n      swap1\n      dup2\n      mstore\n      0x20\n      add\n      0x00\n      keccak256\n        /* \"contracts/eVoting_app.sol\":1010:1050  Pool storage _pool = pools[numOfPools++] */\n      swap1\n      pop\n        /* \"contracts/eVoting_app.sol\":1074:1083  _poolName */\n      dup4\n        /* \"contracts/eVoting_app.sol\":1061:1066  _pool */\n      dup2\n        /* \"contracts/eVoting_app.sol\":1061:1071  _pool.name */\n      0x00\n      add\n        /* \"contracts/eVoting_app.sol\":1061:1083  _pool.name = _poolName */\n      swap1\n      dup1\n      mload\n      swap1\n      0x20\n      add\n      swap1\n      tag_72\n      swap3\n      swap2\n      swap1\n      tag_73\n      jump\t// in\n    tag_72:\n      pop\n        /* \"contracts/eVoting_app.sol\":1113:1125  _description */\n      dup3\n        /* \"contracts/eVoting_app.sol\":1093:1098  _pool */\n      dup2\n        /* \"contracts/eVoting_app.sol\":1093:1110  _pool.description */\n      0x01\n      add\n        /* \"contracts/eVoting_app.sol\":1093:1125  _pool.description = _description */\n      swap1\n      dup1\n      mload\n      swap1\n      0x20\n      add\n      swap1\n      tag_74\n      swap3\n      swap2\n      swap1\n      tag_73\n      jump\t// in\n    tag_74:\n      pop\n        /* \"contracts/eVoting_app.sol\":1154:1155  0 */\n      0x00\n        /* \"contracts/eVoting_app.sol\":1135:1140  _pool */\n      dup2\n        /* \"contracts/eVoting_app.sol\":1135:1151  _pool.totalVotes */\n      0x02\n      add\n        /* \"contracts/eVoting_app.sol\":1135:1155  _pool.totalVotes = 0 */\n      dup2\n      swap1\n      sstore\n      pop\n        /* \"contracts/eVoting_app.sol\":1179:1189  msg.sender */\n      caller\n        /* \"contracts/eVoting_app.sol\":1165:1170  _pool */\n      dup2\n        /* \"contracts/eVoting_app.sol\":1165:1176  _pool.owner */\n      0x03\n      add\n      0x00\n        /* \"contracts/eVoting_app.sol\":1165:1189  _pool.owner = msg.sender */\n      0x0100\n      exp\n      dup2\n      sload\n      dup2\n      0xffffffffffffffffffffffffffffffffffffffff\n      mul\n      not\n      and\n      swap1\n      dup4\n      0xffffffffffffffffffffffffffffffffffffffff\n      and\n      mul\n      or\n      swap1\n      sstore\n      pop\n        /* \"contracts/eVoting_app.sol\":1220:1221  0 */\n      0x00\n        /* \"contracts/eVoting_app.sol\":1199:1204  _pool */\n      dup2\n        /* \"contracts/eVoting_app.sol\":1199:1217  _pool.numOfOptions */\n      0x06\n      add\n        /* \"contracts/eVoting_app.sol\":1199:1221  _pool.numOfOptions = 0 */\n      dup2\n      swap1\n      sstore\n      pop\n        /* \"contracts/eVoting_app.sol\":1248:1253  false */\n      0x00\n        /* \"contracts/eVoting_app.sol\":1231:1236  _pool */\n      dup2\n        /* \"contracts/eVoting_app.sol\":1231:1245  _pool.isActive */\n      0x07\n      add\n      0x00\n        /* \"contracts/eVoting_app.sol\":1231:1253  _pool.isActive = false */\n      0x0100\n      exp\n      dup2\n      sload\n      dup2\n      0xff\n      mul\n      not\n      and\n      swap1\n      dup4\n      iszero\n      iszero\n      mul\n      or\n      swap1\n      sstore\n      pop\n        /* \"contracts/eVoting_app.sol\":1294:1295  1 */\n      0x01\n        /* \"contracts/eVoting_app.sol\":1281:1291  numOfPools */\n      dup1\n      sload\n        /* \"contracts/eVoting_app.sol\":1281:1295  numOfPools - 1 */\n      tag_75\n      swap2\n      swap1\n      tag_76\n      jump\t// in\n    tag_75:\n        /* \"contracts/eVoting_app.sol\":1263:1268  _pool */\n      dup2\n        /* \"contracts/eVoting_app.sol\":1263:1278  _pool.poolIndex */\n      0x08\n      add\n        /* \"contracts/eVoting_app.sol\":1263:1295  _pool.poolIndex = numOfPools - 1 */\n      dup2\n      swap1\n      sstore\n      pop\n        /* \"contracts/eVoting_app.sol\":1326:1327  1 */\n      0x01\n        /* \"contracts/eVoting_app.sol\":1313:1323  numOfPools */\n      dup1\n      sload\n        /* \"contracts/eVoting_app.sol\":1313:1327  numOfPools - 1 */\n      tag_77\n      swap2\n      swap1\n      tag_76\n      jump\t// in\n    tag_77:\n        /* \"contracts/eVoting_app.sol\":1306:1327  return numOfPools - 1 */\n      swap2\n      pop\n      pop\n        /* \"contracts/eVoting_app.sol\":903:1334  function createPool(string memory _poolName, string memory _description) public returns(uint256){... */\n      swap3\n      swap2\n      pop\n      pop\n      jump\t// out\n        /* \"contracts/eVoting_app.sol\":2481:2806  function getOptions(uint256 _poolIndex) public view returns(Option[] memory){... */\n    tag_30:\n        /* \"contracts/eVoting_app.sol\":2541:2556  Option[] memory */\n      0x60\n        /* \"contracts/eVoting_app.sol\":2568:2592  Option[] memory _options */\n      0x00\n        /* \"contracts/eVoting_app.sol\":2608:2613  pools */\n      dup1\n        /* \"contracts/eVoting_app.sol\":2608:2625  pools[_poolIndex] */\n      0x00\n        /* \"contracts/eVoting_app.sol\":2614:2624  _poolIndex */\n      dup5\n        /* \"contracts/eVoting_app.sol\":2608:2625  pools[_poolIndex] */\n      dup2\n      mstore\n      0x20\n      add\n      swap1\n      dup2\n      mstore\n      0x20\n      add\n      0x00\n      keccak256\n        /* \"contracts/eVoting_app.sol\":2608:2638  pools[_poolIndex].numOfOptions */\n      0x06\n      add\n      sload\n        /* \"contracts/eVoting_app.sol\":2595:2639  new Option[](pools[_poolIndex].numOfOptions) */\n      0xffffffffffffffff\n      dup2\n      gt\n      iszero\n      tag_79\n      jumpi\n      tag_80\n      tag_51\n      jump\t// in\n    tag_80:\n    tag_79:\n      mload(0x40)\n      swap1\n      dup1\n      dup3\n      mstore\n      dup1\n      0x20\n      mul\n      0x20\n      add\n      dup3\n      add\n      0x40\n      mstore\n      dup1\n      iszero\n      tag_81\n      jumpi\n      dup2\n      0x20\n      add\n    tag_82:\n      tag_83\n      tag_55\n      jump\t// in\n    tag_83:\n      dup2\n      mstore\n      0x20\n      add\n      swap1\n      0x01\n      swap1\n      sub\n      swap1\n      dup2\n      tag_82\n      jumpi\n      swap1\n      pop\n    tag_81:\n      pop\n        /* \"contracts/eVoting_app.sol\":2568:2639  Option[] memory _options = new Option[](pools[_poolIndex].numOfOptions) */\n      swap1\n      pop\n        /* \"contracts/eVoting_app.sol\":2655:2661  uint i */\n      0x00\n        /* \"contracts/eVoting_app.sol\":2650:2775  for (uint i = 0; i < pools[_poolIndex].numOfOptions; i++) {... */\n    tag_84:\n        /* \"contracts/eVoting_app.sol\":2671:2676  pools */\n      0x00\n        /* \"contracts/eVoting_app.sol\":2671:2688  pools[_poolIndex] */\n      dup1\n        /* \"contracts/eVoting_app.sol\":2677:2687  _poolIndex */\n      dup6\n        /* \"contracts/eVoting_app.sol\":2671:2688  pools[_poolIndex] */\n      dup2\n      mstore\n      0x20\n      add\n      swap1\n      dup2\n      mstore\n      0x20\n      add\n      0x00\n      keccak256\n        /* \"contracts/eVoting_app.sol\":2671:2701  pools[_poolIndex].numOfOptions */\n      0x06\n      add\n      sload\n        /* \"contracts/eVoting_app.sol\":2667:2668  i */\n      dup2\n        /* \"contracts/eVoting_app.sol\":2667:2701  i < pools[_poolIndex].numOfOptions */\n      lt\n        /* \"contracts/eVoting_app.sol\":2650:2775  for (uint i = 0; i < pools[_poolIndex].numOfOptions; i++) {... */\n      iszero\n      tag_85\n      jumpi\n        /* \"contracts/eVoting_app.sol\":2736:2741  pools */\n      0x00\n        /* \"contracts/eVoting_app.sol\":2736:2753  pools[_poolIndex] */\n      dup1\n        /* \"contracts/eVoting_app.sol\":2742:2752  _poolIndex */\n      dup6\n        /* \"contracts/eVoting_app.sol\":2736:2753  pools[_poolIndex] */\n      dup2\n      mstore\n      0x20\n      add\n      swap1\n      dup2\n      mstore\n      0x20\n      add\n      0x00\n      keccak256\n        /* \"contracts/eVoting_app.sol\":2736:2761  pools[_poolIndex].options */\n      0x05\n      add\n        /* \"contracts/eVoting_app.sol\":2736:2764  pools[_poolIndex].options[i] */\n      0x00\n        /* \"contracts/eVoting_app.sol\":2762:2763  i */\n      dup3\n        /* \"contracts/eVoting_app.sol\":2736:2764  pools[_poolIndex].options[i] */\n      dup2\n      mstore\n      0x20\n      add\n      swap1\n      dup2\n      mstore\n      0x20\n      add\n      0x00\n      keccak256\n        /* \"contracts/eVoting_app.sol\":2722:2764  _options[i] = pools[_poolIndex].options[i] */\n      mload(0x40)\n      dup1\n      0x40\n      add\n      0x40\n      mstore\n      swap1\n      dup2\n      0x00\n      dup3\n      add\n      dup1\n      sload\n      tag_87\n      swap1\n      tag_60\n      jump\t// in\n    tag_87:\n      dup1\n      0x1f\n      add\n      0x20\n      dup1\n      swap2\n      div\n      mul\n      0x20\n      add\n      mload(0x40)\n      swap1\n      dup2\n      add\n      0x40\n      mstore\n      dup1\n      swap3\n      swap2\n      swap1\n      dup2\n      dup2\n      mstore\n      0x20\n      add\n      dup3\n      dup1\n      sload\n      tag_88\n      swap1\n      tag_60\n      jump\t// in\n    tag_88:\n      dup1\n      iszero\n      tag_89\n      jumpi\n      dup1\n      0x1f\n      lt\n      tag_90\n      jumpi\n      0x0100\n      dup1\n      dup4\n      sload\n      div\n      mul\n      dup4\n      mstore\n      swap2\n      0x20\n      add\n      swap2\n      jump(tag_89)\n    tag_90:\n      dup3\n      add\n      swap2\n      swap1\n      0x00\n      mstore\n      keccak256(0x00, 0x20)\n      swap1\n    tag_91:\n      dup2\n      sload\n      dup2\n      mstore\n      swap1\n      0x01\n      add\n      swap1\n      0x20\n      add\n      dup1\n      dup4\n      gt\n      tag_91\n      jumpi\n      dup3\n      swap1\n      sub\n      0x1f\n      and\n      dup3\n      add\n      swap2\n    tag_89:\n      pop\n      pop\n      pop\n      pop\n      pop\n      dup2\n      mstore\n      0x20\n      add\n      0x01\n      dup3\n      add\n      sload\n      dup2\n      mstore\n      pop\n      pop\n        /* \"contracts/eVoting_app.sol\":2722:2730  _options */\n      dup3\n        /* \"contracts/eVoting_app.sol\":2731:2732  i */\n      dup3\n        /* \"contracts/eVoting_app.sol\":2722:2733  _options[i] */\n      dup2\n      mload\n      dup2\n      lt\n      tag_92\n      jumpi\n      tag_93\n      tag_67\n      jump\t// in\n    tag_93:\n    tag_92:\n      0x20\n      mul\n      0x20\n      add\n      add\n        /* \"contracts/eVoting_app.sol\":2722:2764  _options[i] = pools[_poolIndex].options[i] */\n      dup2\n      swap1\n      mstore\n      pop\n        /* \"contracts/eVoting_app.sol\":2703:2706  i++ */\n      dup1\n      dup1\n      tag_94\n      swap1\n      tag_69\n      jump\t// in\n    tag_94:\n      swap2\n      pop\n      pop\n        /* \"contracts/eVoting_app.sol\":2650:2775  for (uint i = 0; i < pools[_poolIndex].numOfOptions; i++) {... */\n      jump(tag_84)\n    tag_85:\n      pop\n        /* \"contracts/eVoting_app.sol\":2791:2799  _options */\n      dup1\n        /* \"contracts/eVoting_app.sol\":2784:2799  return _options */\n      swap2\n      pop\n      pop\n        /* \"contracts/eVoting_app.sol\":2481:2806  function getOptions(uint256 _poolIndex) public view returns(Option[] memory){... */\n      swap2\n      swap1\n      pop\n      jump\t// out\n        /* \"contracts/eVoting_app.sol\":2219:2342  function getNumOfVotes(uint256 _poolIndex) public view returns(uint256){... */\n    tag_34:\n        /* \"contracts/eVoting_app.sol\":2282:2289  uint256 */\n      0x00\n        /* \"contracts/eVoting_app.sol\":2307:2312  pools */\n      dup1\n        /* \"contracts/eVoting_app.sol\":2307:2324  pools[_poolIndex] */\n      0x00\n        /* \"contracts/eVoting_app.sol\":2313:2323  _poolIndex */\n      dup4\n        /* \"contracts/eVoting_app.sol\":2307:2324  pools[_poolIndex] */\n      dup2\n      mstore\n      0x20\n      add\n      swap1\n      dup2\n      mstore\n      0x20\n      add\n      0x00\n      keccak256\n        /* \"contracts/eVoting_app.sol\":2307:2335  pools[_poolIndex].totalVotes */\n      0x02\n      add\n      sload\n        /* \"contracts/eVoting_app.sol\":2300:2335  return pools[_poolIndex].totalVotes */\n      swap1\n      pop\n        /* \"contracts/eVoting_app.sol\":2219:2342  function getNumOfVotes(uint256 _poolIndex) public view returns(uint256){... */\n      swap2\n      swap1\n      pop\n      jump\t// out\n        /* \"contracts/eVoting_app.sol\":1714:2213  function vote(uint256 _poolIndex, uint256 selectedOption, string memory _username) canVote(_poolIndex) public{... */\n    tag_39:\n        /* \"contracts/eVoting_app.sol\":1805:1815  _poolIndex */\n      dup3\n        /* \"contracts/eVoting_app.sol\":834:839  pools */\n      0x00\n        /* \"contracts/eVoting_app.sol\":834:851  pools[_poolIndex] */\n      dup1\n        /* \"contracts/eVoting_app.sol\":840:850  _poolIndex */\n      dup3\n        /* \"contracts/eVoting_app.sol\":834:851  pools[_poolIndex] */\n      dup2\n      mstore\n      0x20\n      add\n      swap1\n      dup2\n      mstore\n      0x20\n      add\n      0x00\n      keccak256\n        /* \"contracts/eVoting_app.sol\":834:858  pools[_poolIndex].voters */\n      0x04\n      add\n        /* \"contracts/eVoting_app.sol\":834:870  pools[_poolIndex].voters[msg.sender] */\n      0x00\n        /* \"contracts/eVoting_app.sol\":859:869  msg.sender */\n      caller\n        /* \"contracts/eVoting_app.sol\":834:870  pools[_poolIndex].voters[msg.sender] */\n      0xffffffffffffffffffffffffffffffffffffffff\n      and\n      0xffffffffffffffffffffffffffffffffffffffff\n      and\n      dup2\n      mstore\n      0x20\n      add\n      swap1\n      dup2\n      mstore\n      0x20\n      add\n      0x00\n      keccak256\n        /* \"contracts/eVoting_app.sol\":834:878  pools[_poolIndex].voters[msg.sender].isVoted */\n      0x02\n      add\n      0x00\n      swap1\n      sload\n      swap1\n      0x0100\n      exp\n      swap1\n      div\n      0xff\n      and\n        /* \"contracts/eVoting_app.sol\":833:878  !pools[_poolIndex].voters[msg.sender].isVoted */\n      iszero\n        /* \"contracts/eVoting_app.sol\":825:879  require(!pools[_poolIndex].voters[msg.sender].isVoted) */\n      tag_97\n      jumpi\n      0x00\n      dup1\n      revert\n    tag_97:\n        /* \"contracts/eVoting_app.sol\":1833:1851  Pool storage _pool */\n      0x00\n        /* \"contracts/eVoting_app.sol\":1854:1859  pools */\n      dup1\n        /* \"contracts/eVoting_app.sol\":1854:1871  pools[_poolIndex] */\n      0x00\n        /* \"contracts/eVoting_app.sol\":1860:1870  _poolIndex */\n      dup7\n        /* \"contracts/eVoting_app.sol\":1854:1871  pools[_poolIndex] */\n      dup2\n      mstore\n      0x20\n      add\n      swap1\n      dup2\n      mstore\n      0x20\n      add\n      0x00\n      keccak256\n        /* \"contracts/eVoting_app.sol\":1833:1871  Pool storage _pool = pools[_poolIndex] */\n      swap1\n      pop\n        /* \"contracts/eVoting_app.sol\":1882:1902  Voter storage _voter */\n      0x00\n        /* \"contracts/eVoting_app.sol\":1905:1910  _pool */\n      dup2\n        /* \"contracts/eVoting_app.sol\":1905:1917  _pool.voters */\n      0x04\n      add\n        /* \"contracts/eVoting_app.sol\":1905:1929  _pool.voters[msg.sender] */\n      0x00\n        /* \"contracts/eVoting_app.sol\":1918:1928  msg.sender */\n      caller\n        /* \"contracts/eVoting_app.sol\":1905:1929  _pool.voters[msg.sender] */\n      0xffffffffffffffffffffffffffffffffffffffff\n      and\n      0xffffffffffffffffffffffffffffffffffffffff\n      and\n      dup2\n      mstore\n      0x20\n      add\n      swap1\n      dup2\n      mstore\n      0x20\n      add\n      0x00\n      keccak256\n        /* \"contracts/eVoting_app.sol\":1882:1929  Voter storage _voter = _pool.voters[msg.sender] */\n      swap1\n      pop\n        /* \"contracts/eVoting_app.sol\":1940:1961  Option storage option */\n      0x00\n        /* \"contracts/eVoting_app.sol\":1964:1969  _pool */\n      dup3\n        /* \"contracts/eVoting_app.sol\":1964:1977  _pool.options */\n      0x05\n      add\n        /* \"contracts/eVoting_app.sol\":1964:1993  _pool.options[selectedOption] */\n      0x00\n        /* \"contracts/eVoting_app.sol\":1978:1992  selectedOption */\n      dup8\n        /* \"contracts/eVoting_app.sol\":1964:1993  _pool.options[selectedOption] */\n      dup2\n      mstore\n      0x20\n      add\n      swap1\n      dup2\n      mstore\n      0x20\n      add\n      0x00\n      keccak256\n        /* \"contracts/eVoting_app.sol\":1940:1993  Option storage option = _pool.options[selectedOption] */\n      swap1\n      pop\n        /* \"contracts/eVoting_app.sol\":2004:2009  _pool */\n      dup3\n        /* \"contracts/eVoting_app.sol\":2004:2020  _pool.totalVotes */\n      0x02\n      add\n      0x00\n        /* \"contracts/eVoting_app.sol\":2004:2022  _pool.totalVotes++ */\n      dup2\n      sload\n      dup1\n      swap3\n      swap2\n      swap1\n      tag_99\n      swap1\n      tag_69\n      jump\t// in\n    tag_99:\n      swap2\n      swap1\n      pop\n      sstore\n      pop\n        /* \"contracts/eVoting_app.sol\":2047:2056  _username */\n      dup5\n        /* \"contracts/eVoting_app.sol\":2033:2039  _voter */\n      dup3\n        /* \"contracts/eVoting_app.sol\":2033:2044  _voter.name */\n      0x00\n      add\n        /* \"contracts/eVoting_app.sol\":2033:2056  _voter.name = _username */\n      swap1\n      dup1\n      mload\n      swap1\n      0x20\n      add\n      swap1\n      tag_100\n      swap3\n      swap2\n      swap1\n      tag_73\n      jump\t// in\n    tag_100:\n      pop\n        /* \"contracts/eVoting_app.sol\":2090:2104  selectedOption */\n      dup6\n        /* \"contracts/eVoting_app.sol\":2066:2072  _voter */\n      dup3\n        /* \"contracts/eVoting_app.sol\":2066:2087  _voter.selectedOption */\n      0x01\n      add\n        /* \"contracts/eVoting_app.sol\":2066:2104  _voter.selectedOption = selectedOption */\n      dup2\n      swap1\n      sstore\n      pop\n        /* \"contracts/eVoting_app.sol\":2114:2120  _voter */\n      dup2\n        /* \"contracts/eVoting_app.sol\":2114:2143  _voter.numOfParticipatedVotes */\n      0x03\n      add\n      0x00\n        /* \"contracts/eVoting_app.sol\":2114:2145  _voter.numOfParticipatedVotes++ */\n      dup2\n      sload\n      dup1\n      swap3\n      swap2\n      swap1\n      tag_101\n      swap1\n      tag_69\n      jump\t// in\n    tag_101:\n      swap2\n      swap1\n      pop\n      sstore\n      pop\n        /* \"contracts/eVoting_app.sol\":2172:2176  true */\n      0x01\n        /* \"contracts/eVoting_app.sol\":2155:2161  _voter */\n      dup3\n        /* \"contracts/eVoting_app.sol\":2155:2169  _voter.isVoted */\n      0x02\n      add\n      0x00\n        /* \"contracts/eVoting_app.sol\":2155:2176  _voter.isVoted = true */\n      0x0100\n      exp\n      dup2\n      sload\n      dup2\n      0xff\n      mul\n      not\n      and\n      swap1\n      dup4\n      iszero\n      iszero\n      mul\n      or\n      swap1\n      sstore\n      pop\n        /* \"contracts/eVoting_app.sol\":2187:2193  option */\n      dup1\n        /* \"contracts/eVoting_app.sol\":2187:2204  option.numOfVotes */\n      0x01\n      add\n      0x00\n        /* \"contracts/eVoting_app.sol\":2187:2206  option.numOfVotes++ */\n      dup2\n      sload\n      dup1\n      swap3\n      swap2\n      swap1\n      tag_102\n      swap1\n      tag_69\n      jump\t// in\n    tag_102:\n      swap2\n      swap1\n      pop\n      sstore\n      pop\n        /* \"contracts/eVoting_app.sol\":1823:2213  {... */\n      pop\n      pop\n      pop\n        /* \"contracts/eVoting_app.sol\":1714:2213  function vote(uint256 _poolIndex, uint256 selectedOption, string memory _username) canVote(_poolIndex) public{... */\n      pop\n      pop\n      pop\n      pop\n      jump\t// out\n        /* \"contracts/eVoting_app.sol\":1554:1708  function startPool(uint256 _poolIndex) onlyOwner(_poolIndex) public{... */\n    tag_42:\n        /* \"contracts/eVoting_app.sol\":1603:1613  _poolIndex */\n      dup1\n        /* \"contracts/eVoting_app.sol\":731:736  pools */\n      0x00\n        /* \"contracts/eVoting_app.sol\":731:748  pools[_poolIndex] */\n      dup1\n        /* \"contracts/eVoting_app.sol\":737:747  _poolIndex */\n      dup3\n        /* \"contracts/eVoting_app.sol\":731:748  pools[_poolIndex] */\n      dup2\n      mstore\n      0x20\n      add\n      swap1\n      dup2\n      mstore\n      0x20\n      add\n      0x00\n      keccak256\n        /* \"contracts/eVoting_app.sol\":731:754  pools[_poolIndex].owner */\n      0x03\n      add\n      0x00\n      swap1\n      sload\n      swap1\n      0x0100\n      exp\n      swap1\n      div\n      0xffffffffffffffffffffffffffffffffffffffff\n      and\n        /* \"contracts/eVoting_app.sol\":717:754  msg.sender == pools[_poolIndex].owner */\n      0xffffffffffffffffffffffffffffffffffffffff\n      and\n        /* \"contracts/eVoting_app.sol\":717:727  msg.sender */\n      caller\n        /* \"contracts/eVoting_app.sol\":717:754  msg.sender == pools[_poolIndex].owner */\n      0xffffffffffffffffffffffffffffffffffffffff\n      and\n      eq\n        /* \"contracts/eVoting_app.sol\":709:755  require(msg.sender == pools[_poolIndex].owner) */\n      tag_104\n      jumpi\n      0x00\n      dup1\n      revert\n    tag_104:\n        /* \"contracts/eVoting_app.sol\":1631:1649  Pool storage _pool */\n      0x00\n        /* \"contracts/eVoting_app.sol\":1652:1657  pools */\n      dup1\n        /* \"contracts/eVoting_app.sol\":1652:1669  pools[_poolIndex] */\n      0x00\n        /* \"contracts/eVoting_app.sol\":1658:1668  _poolIndex */\n      dup5\n        /* \"contracts/eVoting_app.sol\":1652:1669  pools[_poolIndex] */\n      dup2\n      mstore\n      0x20\n      add\n      swap1\n      dup2\n      mstore\n      0x20\n      add\n      0x00\n      keccak256\n        /* \"contracts/eVoting_app.sol\":1631:1669  Pool storage _pool = pools[_poolIndex] */\n      swap1\n      pop\n        /* \"contracts/eVoting_app.sol\":1697:1701  true */\n      0x01\n        /* \"contracts/eVoting_app.sol\":1680:1685  _pool */\n      dup2\n        /* \"contracts/eVoting_app.sol\":1680:1694  _pool.isActive */\n      0x07\n      add\n      0x00\n        /* \"contracts/eVoting_app.sol\":1680:1701  _pool.isActive = true */\n      0x0100\n      exp\n      dup2\n      sload\n      dup2\n      0xff\n      mul\n      not\n      and\n      swap1\n      dup4\n      iszero\n      iszero\n      mul\n      or\n      swap1\n      sstore\n      pop\n        /* \"contracts/eVoting_app.sol\":1621:1708  {... */\n      pop\n        /* \"contracts/eVoting_app.sol\":1554:1708  function startPool(uint256 _poolIndex) onlyOwner(_poolIndex) public{... */\n      pop\n      pop\n      jump\t// out\n        /* \"contracts/eVoting_app.sol\":1340:1548  function addOption(uint256 _poolIndex, string memory _name) onlyOwner(_poolIndex) public{... */\n    tag_46:\n        /* \"contracts/eVoting_app.sol\":1410:1420  _poolIndex */\n      dup2\n        /* \"contracts/eVoting_app.sol\":731:736  pools */\n      0x00\n        /* \"contracts/eVoting_app.sol\":731:748  pools[_poolIndex] */\n      dup1\n        /* \"contracts/eVoting_app.sol\":737:747  _poolIndex */\n      dup3\n        /* \"contracts/eVoting_app.sol\":731:748  pools[_poolIndex] */\n      dup2\n      mstore\n      0x20\n      add\n      swap1\n      dup2\n      mstore\n      0x20\n      add\n      0x00\n      keccak256\n        /* \"contracts/eVoting_app.sol\":731:754  pools[_poolIndex].owner */\n      0x03\n      add\n      0x00\n      swap1\n      sload\n      swap1\n      0x0100\n      exp\n      swap1\n      div\n      0xffffffffffffffffffffffffffffffffffffffff\n      and\n        /* \"contracts/eVoting_app.sol\":717:754  msg.sender == pools[_poolIndex].owner */\n      0xffffffffffffffffffffffffffffffffffffffff\n      and\n        /* \"contracts/eVoting_app.sol\":717:727  msg.sender */\n      caller\n        /* \"contracts/eVoting_app.sol\":717:754  msg.sender == pools[_poolIndex].owner */\n      0xffffffffffffffffffffffffffffffffffffffff\n      and\n      eq\n        /* \"contracts/eVoting_app.sol\":709:755  require(msg.sender == pools[_poolIndex].owner) */\n      tag_107\n      jumpi\n      0x00\n      dup1\n      revert\n    tag_107:\n        /* \"contracts/eVoting_app.sol\":1438:1456  Pool storage _pool */\n      0x00\n        /* \"contracts/eVoting_app.sol\":1459:1464  pools */\n      dup1\n        /* \"contracts/eVoting_app.sol\":1459:1476  pools[_poolIndex] */\n      0x00\n        /* \"contracts/eVoting_app.sol\":1465:1475  _poolIndex */\n      dup6\n        /* \"contracts/eVoting_app.sol\":1459:1476  pools[_poolIndex] */\n      dup2\n      mstore\n      0x20\n      add\n      swap1\n      dup2\n      mstore\n      0x20\n      add\n      0x00\n      keccak256\n        /* \"contracts/eVoting_app.sol\":1438:1476  Pool storage _pool = pools[_poolIndex] */\n      swap1\n      pop\n        /* \"contracts/eVoting_app.sol\":1525:1541  Option(_name, 0) */\n      mload(0x40)\n      dup1\n      0x40\n      add\n      0x40\n      mstore\n      dup1\n        /* \"contracts/eVoting_app.sol\":1532:1537  _name */\n      dup5\n        /* \"contracts/eVoting_app.sol\":1525:1541  Option(_name, 0) */\n      dup2\n      mstore\n      0x20\n      add\n        /* \"contracts/eVoting_app.sol\":1539:1540  0 */\n      0x00\n        /* \"contracts/eVoting_app.sol\":1525:1541  Option(_name, 0) */\n      dup2\n      mstore\n      pop\n        /* \"contracts/eVoting_app.sol\":1487:1492  _pool */\n      dup2\n        /* \"contracts/eVoting_app.sol\":1487:1500  _pool.options */\n      0x05\n      add\n        /* \"contracts/eVoting_app.sol\":1487:1522  _pool.options[_pool.numOfOptions++] */\n      0x00\n        /* \"contracts/eVoting_app.sol\":1501:1506  _pool */\n      dup4\n        /* \"contracts/eVoting_app.sol\":1501:1519  _pool.numOfOptions */\n      0x06\n      add\n      0x00\n        /* \"contracts/eVoting_app.sol\":1501:1521  _pool.numOfOptions++ */\n      dup2\n      sload\n      dup1\n      swap3\n      swap2\n      swap1\n      tag_109\n      swap1\n      tag_69\n      jump\t// in\n    tag_109:\n      swap2\n      swap1\n      pop\n      sstore\n        /* \"contracts/eVoting_app.sol\":1487:1522  _pool.options[_pool.numOfOptions++] */\n      dup2\n      mstore\n      0x20\n      add\n      swap1\n      dup2\n      mstore\n      0x20\n      add\n      0x00\n      keccak256\n        /* \"contracts/eVoting_app.sol\":1487:1541  _pool.options[_pool.numOfOptions++] = Option(_name, 0) */\n      0x00\n      dup3\n      add\n      mload\n      dup2\n      0x00\n      add\n      swap1\n      dup1\n      mload\n      swap1\n      0x20\n      add\n      swap1\n      tag_110\n      swap3\n      swap2\n      swap1\n      tag_73\n      jump\t// in\n    tag_110:\n      pop\n      0x20\n      dup3\n      add\n      mload\n      dup2\n      0x01\n      add\n      sstore\n      swap1\n      pop\n      pop\n        /* \"contracts/eVoting_app.sol\":1428:1548  {... */\n      pop\n        /* \"contracts/eVoting_app.sol\":1340:1548  function addOption(uint256 _poolIndex, string memory _name) onlyOwner(_poolIndex) public{... */\n      pop\n      pop\n      pop\n      jump\t// out\n    tag_55:\n      mload(0x40)\n      dup1\n      0x40\n      add\n      0x40\n      mstore\n      dup1\n      0x60\n      dup2\n      mstore\n      0x20\n      add\n      0x00\n      dup2\n      mstore\n      pop\n      swap1\n      jump\t// out\n    tag_73:\n      dup3\n      dup1\n      sload\n      tag_111\n      swap1\n      tag_60\n      jump\t// in\n    tag_111:\n      swap1\n      0x00\n      mstore\n      keccak256(0x00, 0x20)\n      swap1\n      0x1f\n      add\n      0x20\n      swap1\n      div\n      dup2\n      add\n      swap3\n      dup3\n      tag_113\n      jumpi\n      0x00\n      dup6\n      sstore\n      jump(tag_112)\n    tag_113:\n      dup3\n      0x1f\n      lt\n      tag_114\n      jumpi\n      dup1\n      mload\n      not(0xff)\n      and\n      dup4\n      dup1\n      add\n      or\n      dup6\n      sstore\n      jump(tag_112)\n    tag_114:\n      dup3\n      dup1\n      add\n      0x01\n      add\n      dup6\n      sstore\n      dup3\n      iszero\n      tag_112\n      jumpi\n      swap2\n      dup3\n      add\n    tag_115:\n      dup3\n      dup2\n      gt\n      iszero\n      tag_116\n      jumpi\n      dup3\n      mload\n      dup3\n      sstore\n      swap2\n      0x20\n      add\n      swap2\n      swap1\n      0x01\n      add\n      swap1\n      jump(tag_115)\n    tag_116:\n    tag_112:\n      pop\n      swap1\n      pop\n      tag_117\n      swap2\n      swap1\n      tag_118\n      jump\t// in\n    tag_117:\n      pop\n      swap1\n      jump\t// out\n    tag_118:\n    tag_119:\n      dup1\n      dup3\n      gt\n      iszero\n      tag_120\n      jumpi\n      0x00\n      dup2\n      0x00\n      swap1\n      sstore\n      pop\n      0x01\n      add\n      jump(tag_119)\n    tag_120:\n      pop\n      swap1\n      jump\t// out\n        /* \"#utility.yul\":7:419   */\n    tag_122:\n        /* \"#utility.yul\":85:90   */\n      0x00\n        /* \"#utility.yul\":110:176   */\n      tag_124\n        /* \"#utility.yul\":126:175   */\n      tag_125\n        /* \"#utility.yul\":168:174   */\n      dup5\n        /* \"#utility.yul\":126:175   */\n      tag_126\n      jump\t// in\n    tag_125:\n        /* \"#utility.yul\":110:176   */\n      tag_127\n      jump\t// in\n    tag_124:\n        /* \"#utility.yul\":101:176   */\n      swap1\n      pop\n        /* \"#utility.yul\":199:205   */\n      dup3\n        /* \"#utility.yul\":192:197   */\n      dup2\n        /* \"#utility.yul\":185:206   */\n      mstore\n        /* \"#utility.yul\":237:241   */\n      0x20\n        /* \"#utility.yul\":230:235   */\n      dup2\n        /* \"#utility.yul\":226:242   */\n      add\n        /* \"#utility.yul\":275:278   */\n      dup5\n        /* \"#utility.yul\":266:272   */\n      dup5\n        /* \"#utility.yul\":261:264   */\n      dup5\n        /* \"#utility.yul\":257:273   */\n      add\n        /* \"#utility.yul\":254:279   */\n      gt\n        /* \"#utility.yul\":251:363   */\n      iszero\n      tag_128\n      jumpi\n        /* \"#utility.yul\":282:361   */\n      tag_129\n      tag_130\n      jump\t// in\n    tag_129:\n        /* \"#utility.yul\":251:363   */\n    tag_128:\n        /* \"#utility.yul\":372:413   */\n      tag_131\n        /* \"#utility.yul\":406:412   */\n      dup5\n        /* \"#utility.yul\":401:404   */\n      dup3\n        /* \"#utility.yul\":396:399   */\n      dup6\n        /* \"#utility.yul\":372:413   */\n      tag_132\n      jump\t// in\n    tag_131:\n        /* \"#utility.yul\":91:419   */\n      pop\n        /* \"#utility.yul\":7:419   */\n      swap4\n      swap3\n      pop\n      pop\n      pop\n      jump\t// out\n        /* \"#utility.yul\":439:779   */\n    tag_133:\n        /* \"#utility.yul\":495:500   */\n      0x00\n        /* \"#utility.yul\":544:547   */\n      dup3\n        /* \"#utility.yul\":537:541   */\n      0x1f\n        /* \"#utility.yul\":529:535   */\n      dup4\n        /* \"#utility.yul\":525:542   */\n      add\n        /* \"#utility.yul\":521:548   */\n      slt\n        /* \"#utility.yul\":511:633   */\n      tag_135\n      jumpi\n        /* \"#utility.yul\":552:631   */\n      tag_136\n      tag_137\n      jump\t// in\n    tag_136:\n        /* \"#utility.yul\":511:633   */\n    tag_135:\n        /* \"#utility.yul\":669:675   */\n      dup2\n        /* \"#utility.yul\":656:676   */\n      calldataload\n        /* \"#utility.yul\":694:773   */\n      tag_138\n        /* \"#utility.yul\":769:772   */\n      dup5\n        /* \"#utility.yul\":761:767   */\n      dup3\n        /* \"#utility.yul\":754:758   */\n      0x20\n        /* \"#utility.yul\":746:752   */\n      dup7\n        /* \"#utility.yul\":742:759   */\n      add\n        /* \"#utility.yul\":694:773   */\n      tag_122\n      jump\t// in\n    tag_138:\n        /* \"#utility.yul\":685:773   */\n      swap2\n      pop\n        /* \"#utility.yul\":501:779   */\n      pop\n        /* \"#utility.yul\":439:779   */\n      swap3\n      swap2\n      pop\n      pop\n      jump\t// out\n        /* \"#utility.yul\":785:924   */\n    tag_139:\n        /* \"#utility.yul\":831:836   */\n      0x00\n        /* \"#utility.yul\":869:875   */\n      dup2\n        /* \"#utility.yul\":856:876   */\n      calldataload\n        /* \"#utility.yul\":847:876   */\n      swap1\n      pop\n        /* \"#utility.yul\":885:918   */\n      tag_141\n        /* \"#utility.yul\":912:917   */\n      dup2\n        /* \"#utility.yul\":885:918   */\n      tag_142\n      jump\t// in\n    tag_141:\n        /* \"#utility.yul\":785:924   */\n      swap3\n      swap2\n      pop\n      pop\n      jump\t// out\n        /* \"#utility.yul\":930:1764   */\n    tag_25:\n        /* \"#utility.yul\":1018:1024   */\n      0x00\n        /* \"#utility.yul\":1026:1032   */\n      dup1\n        /* \"#utility.yul\":1075:1077   */\n      0x40\n        /* \"#utility.yul\":1063:1072   */\n      dup4\n        /* \"#utility.yul\":1054:1061   */\n      dup6\n        /* \"#utility.yul\":1050:1073   */\n      sub\n        /* \"#utility.yul\":1046:1078   */\n      slt\n        /* \"#utility.yul\":1043:1162   */\n      iszero\n      tag_144\n      jumpi\n        /* \"#utility.yul\":1081:1160   */\n      tag_145\n      tag_146\n      jump\t// in\n    tag_145:\n        /* \"#utility.yul\":1043:1162   */\n    tag_144:\n        /* \"#utility.yul\":1229:1230   */\n      0x00\n        /* \"#utility.yul\":1218:1227   */\n      dup4\n        /* \"#utility.yul\":1214:1231   */\n      add\n        /* \"#utility.yul\":1201:1232   */\n      calldataload\n        /* \"#utility.yul\":1259:1277   */\n      0xffffffffffffffff\n        /* \"#utility.yul\":1251:1257   */\n      dup2\n        /* \"#utility.yul\":1248:1278   */\n      gt\n        /* \"#utility.yul\":1245:1362   */\n      iszero\n      tag_147\n      jumpi\n        /* \"#utility.yul\":1281:1360   */\n      tag_148\n      tag_149\n      jump\t// in\n    tag_148:\n        /* \"#utility.yul\":1245:1362   */\n    tag_147:\n        /* \"#utility.yul\":1386:1449   */\n      tag_150\n        /* \"#utility.yul\":1441:1448   */\n      dup6\n        /* \"#utility.yul\":1432:1438   */\n      dup3\n        /* \"#utility.yul\":1421:1430   */\n      dup7\n        /* \"#utility.yul\":1417:1439   */\n      add\n        /* \"#utility.yul\":1386:1449   */\n      tag_133\n      jump\t// in\n    tag_150:\n        /* \"#utility.yul\":1376:1449   */\n      swap3\n      pop\n        /* \"#utility.yul\":1172:1459   */\n      pop\n        /* \"#utility.yul\":1526:1528   */\n      0x20\n        /* \"#utility.yul\":1515:1524   */\n      dup4\n        /* \"#utility.yul\":1511:1529   */\n      add\n        /* \"#utility.yul\":1498:1530   */\n      calldataload\n        /* \"#utility.yul\":1557:1575   */\n      0xffffffffffffffff\n        /* \"#utility.yul\":1549:1555   */\n      dup2\n        /* \"#utility.yul\":1546:1576   */\n      gt\n        /* \"#utility.yul\":1543:1660   */\n      iszero\n      tag_151\n      jumpi\n        /* \"#utility.yul\":1579:1658   */\n      tag_152\n      tag_149\n      jump\t// in\n    tag_152:\n        /* \"#utility.yul\":1543:1660   */\n    tag_151:\n        /* \"#utility.yul\":1684:1747   */\n      tag_153\n        /* \"#utility.yul\":1739:1746   */\n      dup6\n        /* \"#utility.yul\":1730:1736   */\n      dup3\n        /* \"#utility.yul\":1719:1728   */\n      dup7\n        /* \"#utility.yul\":1715:1737   */\n      add\n        /* \"#utility.yul\":1684:1747   */\n      tag_133\n      jump\t// in\n    tag_153:\n        /* \"#utility.yul\":1674:1747   */\n      swap2\n      pop\n        /* \"#utility.yul\":1469:1757   */\n      pop\n        /* \"#utility.yul\":930:1764   */\n      swap3\n      pop\n      swap3\n      swap1\n      pop\n      jump\t// out\n        /* \"#utility.yul\":1770:2099   */\n    tag_14:\n        /* \"#utility.yul\":1829:1835   */\n      0x00\n        /* \"#utility.yul\":1878:1880   */\n      0x20\n        /* \"#utility.yul\":1866:1875   */\n      dup3\n        /* \"#utility.yul\":1857:1864   */\n      dup5\n        /* \"#utility.yul\":1853:1876   */\n      sub\n        /* \"#utility.yul\":1849:1881   */\n      slt\n        /* \"#utility.yul\":1846:1965   */\n      iszero\n      tag_155\n      jumpi\n        /* \"#utility.yul\":1884:1963   */\n      tag_156\n      tag_146\n      jump\t// in\n    tag_156:\n        /* \"#utility.yul\":1846:1965   */\n    tag_155:\n        /* \"#utility.yul\":2004:2005   */\n      0x00\n        /* \"#utility.yul\":2029:2082   */\n      tag_157\n        /* \"#utility.yul\":2074:2081   */\n      dup5\n        /* \"#utility.yul\":2065:2071   */\n      dup3\n        /* \"#utility.yul\":2054:2063   */\n      dup6\n        /* \"#utility.yul\":2050:2072   */\n      add\n        /* \"#utility.yul\":2029:2082   */\n      tag_139\n      jump\t// in\n    tag_157:\n        /* \"#utility.yul\":2019:2082   */\n      swap2\n      pop\n        /* \"#utility.yul\":1975:2092   */\n      pop\n        /* \"#utility.yul\":1770:2099   */\n      swap3\n      swap2\n      pop\n      pop\n      jump\t// out\n        /* \"#utility.yul\":2105:2759   */\n    tag_45:\n        /* \"#utility.yul\":2183:2189   */\n      0x00\n        /* \"#utility.yul\":2191:2197   */\n      dup1\n        /* \"#utility.yul\":2240:2242   */\n      0x40\n        /* \"#utility.yul\":2228:2237   */\n      dup4\n        /* \"#utility.yul\":2219:2226   */\n      dup6\n        /* \"#utility.yul\":2215:2238   */\n      sub\n        /* \"#utility.yul\":2211:2243   */\n      slt\n        /* \"#utility.yul\":2208:2327   */\n      iszero\n      tag_159\n      jumpi\n        /* \"#utility.yul\":2246:2325   */\n      tag_160\n      tag_146\n      jump\t// in\n    tag_160:\n        /* \"#utility.yul\":2208:2327   */\n    tag_159:\n        /* \"#utility.yul\":2366:2367   */\n      0x00\n        /* \"#utility.yul\":2391:2444   */\n      tag_161\n        /* \"#utility.yul\":2436:2443   */\n      dup6\n        /* \"#utility.yul\":2427:2433   */\n      dup3\n        /* \"#utility.yul\":2416:2425   */\n      dup7\n        /* \"#utility.yul\":2412:2434   */\n      add\n        /* \"#utility.yul\":2391:2444   */\n      tag_139\n      jump\t// in\n    tag_161:\n        /* \"#utility.yul\":2381:2444   */\n      swap3\n      pop\n        /* \"#utility.yul\":2337:2454   */\n      pop\n        /* \"#utility.yul\":2521:2523   */\n      0x20\n        /* \"#utility.yul\":2510:2519   */\n      dup4\n        /* \"#utility.yul\":2506:2524   */\n      add\n        /* \"#utility.yul\":2493:2525   */\n      calldataload\n        /* \"#utility.yul\":2552:2570   */\n      0xffffffffffffffff\n        /* \"#utility.yul\":2544:2550   */\n      dup2\n        /* \"#utility.yul\":2541:2571   */\n      gt\n        /* \"#utility.yul\":2538:2655   */\n      iszero\n      tag_162\n      jumpi\n        /* \"#utility.yul\":2574:2653   */\n      tag_163\n      tag_149\n      jump\t// in\n    tag_163:\n        /* \"#utility.yul\":2538:2655   */\n    tag_162:\n        /* \"#utility.yul\":2679:2742   */\n      tag_164\n        /* \"#utility.yul\":2734:2741   */\n      dup6\n        /* \"#utility.yul\":2725:2731   */\n      dup3\n        /* \"#utility.yul\":2714:2723   */\n      dup7\n        /* \"#utility.yul\":2710:2732   */\n      add\n        /* \"#utility.yul\":2679:2742   */\n      tag_133\n      jump\t// in\n    tag_164:\n        /* \"#utility.yul\":2669:2742   */\n      swap2\n      pop\n        /* \"#utility.yul\":2464:2752   */\n      pop\n        /* \"#utility.yul\":2105:2759   */\n      swap3\n      pop\n      swap3\n      swap1\n      pop\n      jump\t// out\n        /* \"#utility.yul\":2765:3564   */\n    tag_38:\n        /* \"#utility.yul\":2852:2858   */\n      0x00\n        /* \"#utility.yul\":2860:2866   */\n      dup1\n        /* \"#utility.yul\":2868:2874   */\n      0x00\n        /* \"#utility.yul\":2917:2919   */\n      0x60\n        /* \"#utility.yul\":2905:2914   */\n      dup5\n        /* \"#utility.yul\":2896:2903   */\n      dup7\n        /* \"#utility.yul\":2892:2915   */\n      sub\n        /* \"#utility.yul\":2888:2920   */\n      slt\n        /* \"#utility.yul\":2885:3004   */\n      iszero\n      tag_166\n      jumpi\n        /* \"#utility.yul\":2923:3002   */\n      tag_167\n      tag_146\n      jump\t// in\n    tag_167:\n        /* \"#utility.yul\":2885:3004   */\n    tag_166:\n        /* \"#utility.yul\":3043:3044   */\n      0x00\n        /* \"#utility.yul\":3068:3121   */\n      tag_168\n        /* \"#utility.yul\":3113:3120   */\n      dup7\n        /* \"#utility.yul\":3104:3110   */\n      dup3\n        /* \"#utility.yul\":3093:3102   */\n      dup8\n        /* \"#utility.yul\":3089:3111   */\n      add\n        /* \"#utility.yul\":3068:3121   */\n      tag_139\n      jump\t// in\n    tag_168:\n        /* \"#utility.yul\":3058:3121   */\n      swap4\n      pop\n        /* \"#utility.yul\":3014:3131   */\n      pop\n        /* \"#utility.yul\":3170:3172   */\n      0x20\n        /* \"#utility.yul\":3196:3249   */\n      tag_169\n        /* \"#utility.yul\":3241:3248   */\n      dup7\n        /* \"#utility.yul\":3232:3238   */\n      dup3\n        /* \"#utility.yul\":3221:3230   */\n      dup8\n        /* \"#utility.yul\":3217:3239   */\n      add\n        /* \"#utility.yul\":3196:3249   */\n      tag_139\n      jump\t// in\n    tag_169:\n        /* \"#utility.yul\":3186:3249   */\n      swap3\n      pop\n        /* \"#utility.yul\":3141:3259   */\n      pop\n        /* \"#utility.yul\":3326:3328   */\n      0x40\n        /* \"#utility.yul\":3315:3324   */\n      dup5\n        /* \"#utility.yul\":3311:3329   */\n      add\n        /* \"#utility.yul\":3298:3330   */\n      calldataload\n        /* \"#utility.yul\":3357:3375   */\n      0xffffffffffffffff\n        /* \"#utility.yul\":3349:3355   */\n      dup2\n        /* \"#utility.yul\":3346:3376   */\n      gt\n        /* \"#utility.yul\":3343:3460   */\n      iszero\n      tag_170\n      jumpi\n        /* \"#utility.yul\":3379:3458   */\n      tag_171\n      tag_149\n      jump\t// in\n    tag_171:\n        /* \"#utility.yul\":3343:3460   */\n    tag_170:\n        /* \"#utility.yul\":3484:3547   */\n      tag_172\n        /* \"#utility.yul\":3539:3546   */\n      dup7\n        /* \"#utility.yul\":3530:3536   */\n      dup3\n        /* \"#utility.yul\":3519:3528   */\n      dup8\n        /* \"#utility.yul\":3515:3537   */\n      add\n        /* \"#utility.yul\":3484:3547   */\n      tag_133\n      jump\t// in\n    tag_172:\n        /* \"#utility.yul\":3474:3547   */\n      swap2\n      pop\n        /* \"#utility.yul\":3269:3557   */\n      pop\n        /* \"#utility.yul\":2765:3564   */\n      swap3\n      pop\n      swap3\n      pop\n      swap3\n      jump\t// out\n        /* \"#utility.yul\":3570:3814   */\n    tag_173:\n        /* \"#utility.yul\":3683:3693   */\n      0x00\n        /* \"#utility.yul\":3718:3808   */\n      tag_175\n        /* \"#utility.yul\":3804:3807   */\n      dup4\n        /* \"#utility.yul\":3796:3802   */\n      dup4\n        /* \"#utility.yul\":3718:3808   */\n      tag_176\n      jump\t// in\n    tag_175:\n        /* \"#utility.yul\":3704:3808   */\n      swap1\n      pop\n        /* \"#utility.yul\":3570:3814   */\n      swap3\n      swap2\n      pop\n      pop\n      jump\t// out\n        /* \"#utility.yul\":3880:4967   */\n    tag_177:\n        /* \"#utility.yul\":4043:4046   */\n      0x00\n        /* \"#utility.yul\":4072:4148   */\n      tag_179\n        /* \"#utility.yul\":4142:4147   */\n      dup3\n        /* \"#utility.yul\":4072:4148   */\n      tag_180\n      jump\t// in\n    tag_179:\n        /* \"#utility.yul\":4164:4272   */\n      tag_181\n        /* \"#utility.yul\":4265:4271   */\n      dup2\n        /* \"#utility.yul\":4260:4263   */\n      dup6\n        /* \"#utility.yul\":4164:4272   */\n      tag_182\n      jump\t// in\n    tag_181:\n        /* \"#utility.yul\":4157:4272   */\n      swap4\n      pop\n        /* \"#utility.yul\":4298:4301   */\n      dup4\n        /* \"#utility.yul\":4343:4347   */\n      0x20\n        /* \"#utility.yul\":4335:4341   */\n      dup3\n        /* \"#utility.yul\":4331:4348   */\n      mul\n        /* \"#utility.yul\":4326:4329   */\n      dup6\n        /* \"#utility.yul\":4322:4349   */\n      add\n        /* \"#utility.yul\":4373:4451   */\n      tag_183\n        /* \"#utility.yul\":4445:4450   */\n      dup6\n        /* \"#utility.yul\":4373:4451   */\n      tag_184\n      jump\t// in\n    tag_183:\n        /* \"#utility.yul\":4474:4481   */\n      dup1\n        /* \"#utility.yul\":4505:4506   */\n      0x00\n        /* \"#utility.yul\":4490:4922   */\n    tag_185:\n        /* \"#utility.yul\":4515:4521   */\n      dup6\n        /* \"#utility.yul\":4512:4513   */\n      dup2\n        /* \"#utility.yul\":4509:4522   */\n      lt\n        /* \"#utility.yul\":4490:4922   */\n      iszero\n      tag_187\n      jumpi\n        /* \"#utility.yul\":4586:4595   */\n      dup5\n        /* \"#utility.yul\":4580:4584   */\n      dup5\n        /* \"#utility.yul\":4576:4596   */\n      sub\n        /* \"#utility.yul\":4571:4574   */\n      dup10\n        /* \"#utility.yul\":4564:4597   */\n      mstore\n        /* \"#utility.yul\":4637:4643   */\n      dup2\n        /* \"#utility.yul\":4631:4644   */\n      mload\n        /* \"#utility.yul\":4665:4773   */\n      tag_188\n        /* \"#utility.yul\":4768:4772   */\n      dup6\n        /* \"#utility.yul\":4753:4766   */\n      dup3\n        /* \"#utility.yul\":4665:4773   */\n      tag_173\n      jump\t// in\n    tag_188:\n        /* \"#utility.yul\":4657:4773   */\n      swap5\n      pop\n        /* \"#utility.yul\":4796:4878   */\n      tag_189\n        /* \"#utility.yul\":4871:4877   */\n      dup4\n        /* \"#utility.yul\":4796:4878   */\n      tag_190\n      jump\t// in\n    tag_189:\n        /* \"#utility.yul\":4786:4878   */\n      swap3\n      pop\n        /* \"#utility.yul\":4907:4911   */\n      0x20\n        /* \"#utility.yul\":4902:4905   */\n      dup11\n        /* \"#utility.yul\":4898:4912   */\n      add\n        /* \"#utility.yul\":4891:4912   */\n      swap10\n      pop\n        /* \"#utility.yul\":4550:4922   */\n      pop\n        /* \"#utility.yul\":4537:4538   */\n      0x01\n        /* \"#utility.yul\":4534:4535   */\n      dup2\n        /* \"#utility.yul\":4530:4539   */\n      add\n        /* \"#utility.yul\":4525:4539   */\n      swap1\n      pop\n        /* \"#utility.yul\":4490:4922   */\n      jump(tag_185)\n    tag_187:\n        /* \"#utility.yul\":4494:4508   */\n      pop\n        /* \"#utility.yul\":4938:4942   */\n      dup3\n        /* \"#utility.yul\":4931:4942   */\n      swap8\n      pop\n        /* \"#utility.yul\":4958:4961   */\n      dup8\n        /* \"#utility.yul\":4951:4961   */\n      swap6\n      pop\n        /* \"#utility.yul\":4048:4967   */\n      pop\n      pop\n      pop\n      pop\n      pop\n        /* \"#utility.yul\":3880:4967   */\n      swap3\n      swap2\n      pop\n      pop\n      jump\t// out\n        /* \"#utility.yul\":4973:5317   */\n    tag_191:\n        /* \"#utility.yul\":5051:5054   */\n      0x00\n        /* \"#utility.yul\":5079:5118   */\n      tag_193\n        /* \"#utility.yul\":5112:5117   */\n      dup3\n        /* \"#utility.yul\":5079:5118   */\n      tag_194\n      jump\t// in\n    tag_193:\n        /* \"#utility.yul\":5134:5195   */\n      tag_195\n        /* \"#utility.yul\":5188:5194   */\n      dup2\n        /* \"#utility.yul\":5183:5186   */\n      dup6\n        /* \"#utility.yul\":5134:5195   */\n      tag_196\n      jump\t// in\n    tag_195:\n        /* \"#utility.yul\":5127:5195   */\n      swap4\n      pop\n        /* \"#utility.yul\":5204:5256   */\n      tag_197\n        /* \"#utility.yul\":5249:5255   */\n      dup2\n        /* \"#utility.yul\":5244:5247   */\n      dup6\n        /* \"#utility.yul\":5237:5241   */\n      0x20\n        /* \"#utility.yul\":5230:5235   */\n      dup7\n        /* \"#utility.yul\":5226:5242   */\n      add\n        /* \"#utility.yul\":5204:5256   */\n      tag_198\n      jump\t// in\n    tag_197:\n        /* \"#utility.yul\":5281:5310   */\n      tag_199\n        /* \"#utility.yul\":5303:5309   */\n      dup2\n        /* \"#utility.yul\":5281:5310   */\n      tag_200\n      jump\t// in\n    tag_199:\n        /* \"#utility.yul\":5276:5279   */\n      dup5\n        /* \"#utility.yul\":5272:5311   */\n      add\n        /* \"#utility.yul\":5265:5311   */\n      swap2\n      pop\n        /* \"#utility.yul\":5055:5317   */\n      pop\n        /* \"#utility.yul\":4973:5317   */\n      swap3\n      swap2\n      pop\n      pop\n      jump\t// out\n        /* \"#utility.yul\":5379:5975   */\n    tag_176:\n        /* \"#utility.yul\":5482:5485   */\n      0x00\n        /* \"#utility.yul\":5518:5522   */\n      0x40\n        /* \"#utility.yul\":5513:5516   */\n      dup4\n        /* \"#utility.yul\":5509:5523   */\n      add\n        /* \"#utility.yul\":5605:5609   */\n      0x00\n        /* \"#utility.yul\":5598:5603   */\n      dup4\n        /* \"#utility.yul\":5594:5610   */\n      add\n        /* \"#utility.yul\":5588:5611   */\n      mload\n        /* \"#utility.yul\":5658:5661   */\n      dup5\n        /* \"#utility.yul\":5652:5656   */\n      dup3\n        /* \"#utility.yul\":5648:5662   */\n      sub\n        /* \"#utility.yul\":5641:5645   */\n      0x00\n        /* \"#utility.yul\":5636:5639   */\n      dup7\n        /* \"#utility.yul\":5632:5646   */\n      add\n        /* \"#utility.yul\":5625:5663   */\n      mstore\n        /* \"#utility.yul\":5684:5757   */\n      tag_202\n        /* \"#utility.yul\":5752:5756   */\n      dup3\n        /* \"#utility.yul\":5738:5750   */\n      dup3\n        /* \"#utility.yul\":5684:5757   */\n      tag_191\n      jump\t// in\n    tag_202:\n        /* \"#utility.yul\":5676:5757   */\n      swap2\n      pop\n        /* \"#utility.yul\":5533:5768   */\n      pop\n        /* \"#utility.yul\":5856:5860   */\n      0x20\n        /* \"#utility.yul\":5849:5854   */\n      dup4\n        /* \"#utility.yul\":5845:5861   */\n      add\n        /* \"#utility.yul\":5839:5862   */\n      mload\n        /* \"#utility.yul\":5875:5938   */\n      tag_203\n        /* \"#utility.yul\":5932:5936   */\n      0x20\n        /* \"#utility.yul\":5927:5930   */\n      dup7\n        /* \"#utility.yul\":5923:5937   */\n      add\n        /* \"#utility.yul\":5909:5921   */\n      dup3\n        /* \"#utility.yul\":5875:5938   */\n      tag_204\n      jump\t// in\n    tag_203:\n        /* \"#utility.yul\":5778:5948   */\n      pop\n        /* \"#utility.yul\":5965:5969   */\n      dup1\n        /* \"#utility.yul\":5958:5969   */\n      swap2\n      pop\n        /* \"#utility.yul\":5487:5975   */\n      pop\n        /* \"#utility.yul\":5379:5975   */\n      swap3\n      swap2\n      pop\n      pop\n      jump\t// out\n        /* \"#utility.yul\":5981:6089   */\n    tag_204:\n        /* \"#utility.yul\":6058:6082   */\n      tag_206\n        /* \"#utility.yul\":6076:6081   */\n      dup2\n        /* \"#utility.yul\":6058:6082   */\n      tag_207\n      jump\t// in\n    tag_206:\n        /* \"#utility.yul\":6053:6056   */\n      dup3\n        /* \"#utility.yul\":6046:6083   */\n      mstore\n        /* \"#utility.yul\":5981:6089   */\n      pop\n      pop\n      jump\t// out\n        /* \"#utility.yul\":6095:6213   */\n    tag_208:\n        /* \"#utility.yul\":6182:6206   */\n      tag_210\n        /* \"#utility.yul\":6200:6205   */\n      dup2\n        /* \"#utility.yul\":6182:6206   */\n      tag_207\n      jump\t// in\n    tag_210:\n        /* \"#utility.yul\":6177:6180   */\n      dup3\n        /* \"#utility.yul\":6170:6207   */\n      mstore\n        /* \"#utility.yul\":6095:6213   */\n      pop\n      pop\n      jump\t// out\n        /* \"#utility.yul\":6219:6680   */\n    tag_22:\n        /* \"#utility.yul\":6406:6410   */\n      0x00\n        /* \"#utility.yul\":6444:6446   */\n      0x20\n        /* \"#utility.yul\":6433:6442   */\n      dup3\n        /* \"#utility.yul\":6429:6447   */\n      add\n        /* \"#utility.yul\":6421:6447   */\n      swap1\n      pop\n        /* \"#utility.yul\":6493:6502   */\n      dup2\n        /* \"#utility.yul\":6487:6491   */\n      dup2\n        /* \"#utility.yul\":6483:6503   */\n      sub\n        /* \"#utility.yul\":6479:6480   */\n      0x00\n        /* \"#utility.yul\":6468:6477   */\n      dup4\n        /* \"#utility.yul\":6464:6481   */\n      add\n        /* \"#utility.yul\":6457:6504   */\n      mstore\n        /* \"#utility.yul\":6521:6673   */\n      tag_212\n        /* \"#utility.yul\":6668:6672   */\n      dup2\n        /* \"#utility.yul\":6659:6665   */\n      dup5\n        /* \"#utility.yul\":6521:6673   */\n      tag_177\n      jump\t// in\n    tag_212:\n        /* \"#utility.yul\":6513:6673   */\n      swap1\n      pop\n        /* \"#utility.yul\":6219:6680   */\n      swap3\n      swap2\n      pop\n      pop\n      jump\t// out\n        /* \"#utility.yul\":6686:6908   */\n    tag_17:\n        /* \"#utility.yul\":6779:6783   */\n      0x00\n        /* \"#utility.yul\":6817:6819   */\n      0x20\n        /* \"#utility.yul\":6806:6815   */\n      dup3\n        /* \"#utility.yul\":6802:6820   */\n      add\n        /* \"#utility.yul\":6794:6820   */\n      swap1\n      pop\n        /* \"#utility.yul\":6830:6901   */\n      tag_214\n        /* \"#utility.yul\":6898:6899   */\n      0x00\n        /* \"#utility.yul\":6887:6896   */\n      dup4\n        /* \"#utility.yul\":6883:6900   */\n      add\n        /* \"#utility.yul\":6874:6880   */\n      dup5\n        /* \"#utility.yul\":6830:6901   */\n      tag_208\n      jump\t// in\n    tag_214:\n        /* \"#utility.yul\":6686:6908   */\n      swap3\n      swap2\n      pop\n      pop\n      jump\t// out\n        /* \"#utility.yul\":6914:7043   */\n    tag_127:\n        /* \"#utility.yul\":6948:6954   */\n      0x00\n        /* \"#utility.yul\":6975:6995   */\n      tag_216\n      tag_217\n      jump\t// in\n    tag_216:\n        /* \"#utility.yul\":6965:6995   */\n      swap1\n      pop\n        /* \"#utility.yul\":7004:7037   */\n      tag_218\n        /* \"#utility.yul\":7032:7036   */\n      dup3\n        /* \"#utility.yul\":7024:7030   */\n      dup3\n        /* \"#utility.yul\":7004:7037   */\n      tag_219\n      jump\t// in\n    tag_218:\n        /* \"#utility.yul\":6914:7043   */\n      swap2\n      swap1\n      pop\n      jump\t// out\n        /* \"#utility.yul\":7049:7124   */\n    tag_217:\n        /* \"#utility.yul\":7082:7088   */\n      0x00\n        /* \"#utility.yul\":7115:7117   */\n      0x40\n        /* \"#utility.yul\":7109:7118   */\n      mload\n        /* \"#utility.yul\":7099:7118   */\n      swap1\n      pop\n        /* \"#utility.yul\":7049:7124   */\n      swap1\n      jump\t// out\n        /* \"#utility.yul\":7130:7438   */\n    tag_126:\n        /* \"#utility.yul\":7192:7196   */\n      0x00\n        /* \"#utility.yul\":7282:7300   */\n      0xffffffffffffffff\n        /* \"#utility.yul\":7274:7280   */\n      dup3\n        /* \"#utility.yul\":7271:7301   */\n      gt\n        /* \"#utility.yul\":7268:7324   */\n      iszero\n      tag_222\n      jumpi\n        /* \"#utility.yul\":7304:7322   */\n      tag_223\n      tag_51\n      jump\t// in\n    tag_223:\n        /* \"#utility.yul\":7268:7324   */\n    tag_222:\n        /* \"#utility.yul\":7342:7371   */\n      tag_224\n        /* \"#utility.yul\":7364:7370   */\n      dup3\n        /* \"#utility.yul\":7342:7371   */\n      tag_200\n      jump\t// in\n    tag_224:\n        /* \"#utility.yul\":7334:7371   */\n      swap1\n      pop\n        /* \"#utility.yul\":7426:7430   */\n      0x20\n        /* \"#utility.yul\":7420:7424   */\n      dup2\n        /* \"#utility.yul\":7416:7431   */\n      add\n        /* \"#utility.yul\":7408:7431   */\n      swap1\n      pop\n        /* \"#utility.yul\":7130:7438   */\n      swap2\n      swap1\n      pop\n      jump\t// out\n        /* \"#utility.yul\":7444:7598   */\n    tag_184:\n        /* \"#utility.yul\":7533:7537   */\n      0x00\n        /* \"#utility.yul\":7556:7559   */\n      dup2\n        /* \"#utility.yul\":7548:7559   */\n      swap1\n      pop\n        /* \"#utility.yul\":7586:7590   */\n      0x20\n        /* \"#utility.yul\":7581:7584   */\n      dup3\n        /* \"#utility.yul\":7577:7591   */\n      add\n        /* \"#utility.yul\":7569:7591   */\n      swap1\n      pop\n        /* \"#utility.yul\":7444:7598   */\n      swap2\n      swap1\n      pop\n      jump\t// out\n        /* \"#utility.yul\":7604:7740   */\n    tag_180:\n        /* \"#utility.yul\":7693:7699   */\n      0x00\n        /* \"#utility.yul\":7727:7732   */\n      dup2\n        /* \"#utility.yul\":7721:7733   */\n      mload\n        /* \"#utility.yul\":7711:7733   */\n      swap1\n      pop\n        /* \"#utility.yul\":7604:7740   */\n      swap2\n      swap1\n      pop\n      jump\t// out\n        /* \"#utility.yul\":7746:7845   */\n    tag_194:\n        /* \"#utility.yul\":7798:7804   */\n      0x00\n        /* \"#utility.yul\":7832:7837   */\n      dup2\n        /* \"#utility.yul\":7826:7838   */\n      mload\n        /* \"#utility.yul\":7816:7838   */\n      swap1\n      pop\n        /* \"#utility.yul\":7746:7845   */\n      swap2\n      swap1\n      pop\n      jump\t// out\n        /* \"#utility.yul\":7851:7986   */\n    tag_190:\n        /* \"#utility.yul\":7943:7947   */\n      0x00\n        /* \"#utility.yul\":7975:7979   */\n      0x20\n        /* \"#utility.yul\":7970:7973   */\n      dup3\n        /* \"#utility.yul\":7966:7980   */\n      add\n        /* \"#utility.yul\":7958:7980   */\n      swap1\n      pop\n        /* \"#utility.yul\":7851:7986   */\n      swap2\n      swap1\n      pop\n      jump\t// out\n        /* \"#utility.yul\":7992:8198   */\n    tag_182:\n        /* \"#utility.yul\":8113:8124   */\n      0x00\n        /* \"#utility.yul\":8147:8153   */\n      dup3\n        /* \"#utility.yul\":8142:8145   */\n      dup3\n        /* \"#utility.yul\":8135:8154   */\n      mstore\n        /* \"#utility.yul\":8187:8191   */\n      0x20\n        /* \"#utility.yul\":8182:8185   */\n      dup3\n        /* \"#utility.yul\":8178:8192   */\n      add\n        /* \"#utility.yul\":8163:8192   */\n      swap1\n      pop\n        /* \"#utility.yul\":7992:8198   */\n      swap3\n      swap2\n      pop\n      pop\n      jump\t// out\n        /* \"#utility.yul\":8204:8363   */\n    tag_196:\n        /* \"#utility.yul\":8278:8289   */\n      0x00\n        /* \"#utility.yul\":8312:8318   */\n      dup3\n        /* \"#utility.yul\":8307:8310   */\n      dup3\n        /* \"#utility.yul\":8300:8319   */\n      mstore\n        /* \"#utility.yul\":8352:8356   */\n      0x20\n        /* \"#utility.yul\":8347:8350   */\n      dup3\n        /* \"#utility.yul\":8343:8357   */\n      add\n        /* \"#utility.yul\":8328:8357   */\n      swap1\n      pop\n        /* \"#utility.yul\":8204:8363   */\n      swap3\n      swap2\n      pop\n      pop\n      jump\t// out\n        /* \"#utility.yul\":8369:8560   */\n    tag_76:\n        /* \"#utility.yul\":8409:8413   */\n      0x00\n        /* \"#utility.yul\":8429:8449   */\n      tag_232\n        /* \"#utility.yul\":8447:8448   */\n      dup3\n        /* \"#utility.yul\":8429:8449   */\n      tag_207\n      jump\t// in\n    tag_232:\n        /* \"#utility.yul\":8424:8449   */\n      swap2\n      pop\n        /* \"#utility.yul\":8463:8483   */\n      tag_233\n        /* \"#utility.yul\":8481:8482   */\n      dup4\n        /* \"#utility.yul\":8463:8483   */\n      tag_207\n      jump\t// in\n    tag_233:\n        /* \"#utility.yul\":8458:8483   */\n      swap3\n      pop\n        /* \"#utility.yul\":8502:8503   */\n      dup3\n        /* \"#utility.yul\":8499:8500   */\n      dup3\n        /* \"#utility.yul\":8496:8504   */\n      lt\n        /* \"#utility.yul\":8493:8527   */\n      iszero\n      tag_234\n      jumpi\n        /* \"#utility.yul\":8507:8525   */\n      tag_235\n      tag_236\n      jump\t// in\n    tag_235:\n        /* \"#utility.yul\":8493:8527   */\n    tag_234:\n        /* \"#utility.yul\":8552:8553   */\n      dup3\n        /* \"#utility.yul\":8549:8550   */\n      dup3\n        /* \"#utility.yul\":8545:8554   */\n      sub\n        /* \"#utility.yul\":8537:8554   */\n      swap1\n      pop\n        /* \"#utility.yul\":8369:8560   */\n      swap3\n      swap2\n      pop\n      pop\n      jump\t// out\n        /* \"#utility.yul\":8566:8643   */\n    tag_207:\n        /* \"#utility.yul\":8603:8610   */\n      0x00\n        /* \"#utility.yul\":8632:8637   */\n      dup2\n        /* \"#utility.yul\":8621:8637   */\n      swap1\n      pop\n        /* \"#utility.yul\":8566:8643   */\n      swap2\n      swap1\n      pop\n      jump\t// out\n        /* \"#utility.yul\":8649:8803   */\n    tag_132:\n        /* \"#utility.yul\":8733:8739   */\n      dup3\n        /* \"#utility.yul\":8728:8731   */\n      dup2\n        /* \"#utility.yul\":8723:8726   */\n      dup4\n        /* \"#utility.yul\":8710:8740   */\n      calldatacopy\n        /* \"#utility.yul\":8795:8796   */\n      0x00\n        /* \"#utility.yul\":8786:8792   */\n      dup4\n        /* \"#utility.yul\":8781:8784   */\n      dup4\n        /* \"#utility.yul\":8777:8793   */\n      add\n        /* \"#utility.yul\":8770:8797   */\n      mstore\n        /* \"#utility.yul\":8649:8803   */\n      pop\n      pop\n      pop\n      jump\t// out\n        /* \"#utility.yul\":8809:9116   */\n    tag_198:\n        /* \"#utility.yul\":8877:8878   */\n      0x00\n        /* \"#utility.yul\":8887:9000   */\n    tag_240:\n        /* \"#utility.yul\":8901:8907   */\n      dup4\n        /* \"#utility.yul\":8898:8899   */\n      dup2\n        /* \"#utility.yul\":8895:8908   */\n      lt\n        /* \"#utility.yul\":8887:9000   */\n      iszero\n      tag_242\n      jumpi\n        /* \"#utility.yul\":8986:8987   */\n      dup1\n        /* \"#utility.yul\":8981:8984   */\n      dup3\n        /* \"#utility.yul\":8977:8988   */\n      add\n        /* \"#utility.yul\":8971:8989   */\n      mload\n        /* \"#utility.yul\":8967:8968   */\n      dup2\n        /* \"#utility.yul\":8962:8965   */\n      dup5\n        /* \"#utility.yul\":8958:8969   */\n      add\n        /* \"#utility.yul\":8951:8990   */\n      mstore\n        /* \"#utility.yul\":8923:8925   */\n      0x20\n        /* \"#utility.yul\":8920:8921   */\n      dup2\n        /* \"#utility.yul\":8916:8926   */\n      add\n        /* \"#utility.yul\":8911:8926   */\n      swap1\n      pop\n        /* \"#utility.yul\":8887:9000   */\n      jump(tag_240)\n    tag_242:\n        /* \"#utility.yul\":9018:9024   */\n      dup4\n        /* \"#utility.yul\":9015:9016   */\n      dup2\n        /* \"#utility.yul\":9012:9025   */\n      gt\n        /* \"#utility.yul\":9009:9110   */\n      iszero\n      tag_243\n      jumpi\n        /* \"#utility.yul\":9098:9099   */\n      0x00\n        /* \"#utility.yul\":9089:9095   */\n      dup5\n        /* \"#utility.yul\":9084:9087   */\n      dup5\n        /* \"#utility.yul\":9080:9096   */\n      add\n        /* \"#utility.yul\":9073:9100   */\n      mstore\n        /* \"#utility.yul\":9009:9110   */\n    tag_243:\n        /* \"#utility.yul\":8858:9116   */\n      pop\n        /* \"#utility.yul\":8809:9116   */\n      pop\n      pop\n      pop\n      jump\t// out\n        /* \"#utility.yul\":9122:9442   */\n    tag_60:\n        /* \"#utility.yul\":9166:9172   */\n      0x00\n        /* \"#utility.yul\":9203:9204   */\n      0x02\n        /* \"#utility.yul\":9197:9201   */\n      dup3\n        /* \"#utility.yul\":9193:9205   */\n      div\n        /* \"#utility.yul\":9183:9205   */\n      swap1\n      pop\n        /* \"#utility.yul\":9250:9251   */\n      0x01\n        /* \"#utility.yul\":9244:9248   */\n      dup3\n        /* \"#utility.yul\":9240:9252   */\n      and\n        /* \"#utility.yul\":9271:9289   */\n      dup1\n        /* \"#utility.yul\":9261:9342   */\n      tag_245\n      jumpi\n        /* \"#utility.yul\":9327:9331   */\n      0x7f\n        /* \"#utility.yul\":9319:9325   */\n      dup3\n        /* \"#utility.yul\":9315:9332   */\n      and\n        /* \"#utility.yul\":9305:9332   */\n      swap2\n      pop\n        /* \"#utility.yul\":9261:9342   */\n    tag_245:\n        /* \"#utility.yul\":9389:9391   */\n      0x20\n        /* \"#utility.yul\":9381:9387   */\n      dup3\n        /* \"#utility.yul\":9378:9392   */\n      lt\n        /* \"#utility.yul\":9358:9376   */\n      dup2\n        /* \"#utility.yul\":9355:9393   */\n      eq\n        /* \"#utility.yul\":9352:9436   */\n      iszero\n      tag_246\n      jumpi\n        /* \"#utility.yul\":9408:9426   */\n      tag_247\n      tag_248\n      jump\t// in\n    tag_247:\n        /* \"#utility.yul\":9352:9436   */\n    tag_246:\n        /* \"#utility.yul\":9173:9442   */\n      pop\n        /* \"#utility.yul\":9122:9442   */\n      swap2\n      swap1\n      pop\n      jump\t// out\n        /* \"#utility.yul\":9448:9729   */\n    tag_219:\n        /* \"#utility.yul\":9531:9558   */\n      tag_250\n        /* \"#utility.yul\":9553:9557   */\n      dup3\n        /* \"#utility.yul\":9531:9558   */\n      tag_200\n      jump\t// in\n    tag_250:\n        /* \"#utility.yul\":9523:9529   */\n      dup2\n        /* \"#utility.yul\":9519:9559   */\n      add\n        /* \"#utility.yul\":9661:9667   */\n      dup2\n        /* \"#utility.yul\":9649:9659   */\n      dup2\n        /* \"#utility.yul\":9646:9668   */\n      lt\n        /* \"#utility.yul\":9625:9643   */\n      0xffffffffffffffff\n        /* \"#utility.yul\":9613:9623   */\n      dup3\n        /* \"#utility.yul\":9610:9644   */\n      gt\n        /* \"#utility.yul\":9607:9669   */\n      or\n        /* \"#utility.yul\":9604:9692   */\n      iszero\n      tag_251\n      jumpi\n        /* \"#utility.yul\":9672:9690   */\n      tag_252\n      tag_51\n      jump\t// in\n    tag_252:\n        /* \"#utility.yul\":9604:9692   */\n    tag_251:\n        /* \"#utility.yul\":9712:9722   */\n      dup1\n        /* \"#utility.yul\":9708:9710   */\n      0x40\n        /* \"#utility.yul\":9701:9723   */\n      mstore\n        /* \"#utility.yul\":9491:9729   */\n      pop\n        /* \"#utility.yul\":9448:9729   */\n      pop\n      pop\n      jump\t// out\n        /* \"#utility.yul\":9735:9968   */\n    tag_69:\n        /* \"#utility.yul\":9774:9777   */\n      0x00\n        /* \"#utility.yul\":9797:9821   */\n      tag_254\n        /* \"#utility.yul\":9815:9820   */\n      dup3\n        /* \"#utility.yul\":9797:9821   */\n      tag_207\n      jump\t// in\n    tag_254:\n        /* \"#utility.yul\":9788:9821   */\n      swap2\n      pop\n        /* \"#utility.yul\":9843:9909   */\n      0xffffffffffffffffffffffffffffffffffffffffffffffffffffffffffffffff\n        /* \"#utility.yul\":9836:9841   */\n      dup3\n        /* \"#utility.yul\":9833:9910   */\n      eq\n        /* \"#utility.yul\":9830:9933   */\n      iszero\n      tag_255\n      jumpi\n        /* \"#utility.yul\":9913:9931   */\n      tag_256\n      tag_236\n      jump\t// in\n    tag_256:\n        /* \"#utility.yul\":9830:9933   */\n    tag_255:\n        /* \"#utility.yul\":9960:9961   */\n      0x01\n        /* \"#utility.yul\":9953:9958   */\n      dup3\n        /* \"#utility.yul\":9949:9962   */\n      add\n        /* \"#utility.yul\":9942:9962   */\n      swap1\n      pop\n        /* \"#utility.yul\":9735:9968   */\n      swap2\n      swap1\n      pop\n      jump\t// out\n        /* \"#utility.yul\":9974:10154   */\n    tag_236:\n        /* \"#utility.yul\":10022:10099   */\n      0x4e487b7100000000000000000000000000000000000000000000000000000000\n        /* \"#utility.yul\":10019:10020   */\n      0x00\n        /* \"#utility.yul\":10012:10100   */\n      mstore\n        /* \"#utility.yul\":10119:10123   */\n      0x11\n        /* \"#utility.yul\":10116:10117   */\n      0x04\n        /* \"#utility.yul\":10109:10124   */\n      mstore\n        /* \"#utility.yul\":10143:10147   */\n      0x24\n        /* \"#utility.yul\":10140:10141   */\n      0x00\n        /* \"#utility.yul\":10133:10148   */\n      revert\n        /* \"#utility.yul\":10160:10340   */\n    tag_248:\n        /* \"#utility.yul\":10208:10285   */\n      0x4e487b7100000000000000000000000000000000000000000000000000000000\n        /* \"#utility.yul\":10205:10206   */\n      0x00\n        /* \"#utility.yul\":10198:10286   */\n      mstore\n        /* \"#utility.yul\":10305:10309   */\n      0x22\n        /* \"#utility.yul\":10302:10303   */\n      0x04\n        /* \"#utility.yul\":10295:10310   */\n      mstore\n        /* \"#utility.yul\":10329:10333   */\n      0x24\n        /* \"#utility.yul\":10326:10327   */\n      0x00\n        /* \"#utility.yul\":10319:10334   */\n      revert\n        /* \"#utility.yul\":10346:10526   */\n    tag_67:\n        /* \"#utility.yul\":10394:10471   */\n      0x4e487b7100000000000000000000000000000000000000000000000000000000\n        /* \"#utility.yul\":10391:10392   */\n      0x00\n        /* \"#utility.yul\":10384:10472   */\n      mstore\n        /* \"#utility.yul\":10491:10495   */\n      0x32\n        /* \"#utility.yul\":10488:10489   */\n      0x04\n        /* \"#utility.yul\":10481:10496   */\n      mstore\n        /* \"#utility.yul\":10515:10519   */\n      0x24\n        /* \"#utility.yul\":10512:10513   */\n      0x00\n        /* \"#utility.yul\":10505:10520   */\n      revert\n        /* \"#utility.yul\":10532:10712   */\n    tag_51:\n        /* \"#utility.yul\":10580:10657   */\n      0x4e487b7100000000000000000000000000000000000000000000000000000000\n        /* \"#utility.yul\":10577:10578   */\n      0x00\n        /* \"#utility.yul\":10570:10658   */\n      mstore\n        /* \"#utility.yul\":10677:10681   */\n      0x41\n        /* \"#utility.yul\":10674:10675   */\n      0x04\n        /* \"#utility.yul\":10667:10682   */\n      mstore\n        /* \"#utility.yul\":10701:10705   */\n      0x24\n        /* \"#utility.yul\":10698:10699   */\n      0x00\n        /* \"#utility.yul\":10691:10706   */\n      revert\n        /* \"#utility.yul\":10718:10835   */\n    tag_137:\n        /* \"#utility.yul\":10827:10828   */\n      0x00\n        /* \"#utility.yul\":10824:10825   */\n      dup1\n        /* \"#utility.yul\":10817:10829   */\n      revert\n        /* \"#utility.yul\":10841:10958   */\n    tag_130:\n        /* \"#utility.yul\":10950:10951   */\n      0x00\n        /* \"#utility.yul\":10947:10948   */\n      dup1\n        /* \"#utility.yul\":10940:10952   */\n      revert\n        /* \"#utility.yul\":10964:11081   */\n    tag_149:\n        /* \"#utility.yul\":11073:11074   */\n      0x00\n        /* \"#utility.yul\":11070:11071   */\n      dup1\n        /* \"#utility.yul\":11063:11075   */\n      revert\n        /* \"#utility.yul\":11087:11204   */\n    tag_146:\n        /* \"#utility.yul\":11196:11197   */\n      0x00\n        /* \"#utility.yul\":11193:11194   */\n      dup1\n        /* \"#utility.yul\":11186:11198   */\n      revert\n        /* \"#utility.yul\":11210:11312   */\n    tag_200:\n        /* \"#utility.yul\":11251:11257   */\n      0x00\n        /* \"#utility.yul\":11302:11304   */\n      0x1f\n        /* \"#utility.yul\":11298:11305   */\n      not\n        /* \"#utility.yul\":11293:11295   */\n      0x1f\n        /* \"#utility.yul\":11286:11291   */\n      dup4\n        /* \"#utility.yul\":11282:11296   */\n      add\n        /* \"#utility.yul\":11278:11306   */\n      and\n        /* \"#utility.yul\":11268:11306   */\n      swap1\n      pop\n        /* \"#utility.yul\":11210:11312   */\n      swap2\n      swap1\n      pop\n      jump\t// out\n        /* \"#utility.yul\":11318:11440   */\n    tag_142:\n        /* \"#utility.yul\":11391:11415   */\n      tag_267\n        /* \"#utility.yul\":11409:11414   */\n      dup2\n        /* \"#utility.yul\":11391:11415   */\n      tag_207\n      jump\t// in\n    tag_267:\n        /* \"#utility.yul\":11384:11389   */\n      dup2\n        /* \"#utility.yul\":11381:11416   */\n      eq\n        /* \"#utility.yul\":11371:11434   */\n      tag_268\n      jumpi\n        /* \"#utility.yul\":11430:11431   */\n      0x00\n        /* \"#utility.yul\":11427:11428   */\n      dup1\n        /* \"#utility.yul\":11420:11432   */\n      revert\n        /* \"#utility.yul\":11371:11434   */\n    tag_268:\n        /* \"#utility.yul\":11318:11440   */\n      pop\n      jump\t// out\n\n    auxdata: 0xa2646970667358221220914fd2117e6061049bd7b8fdfb4e5c9124aea33317570b99eac1299b11892e6f64736f6c63430008070033\n}\n",
				"bytecode": {
					"linkReferences": {},
					"object": "6080604052600060015534801561001557600080fd5b50611063806100256000396000f3fe608060405234801561001057600080fd5b50600436106100885760003560e01c80638c8e54fb1161005b5780638c8e54fb1461014d578063a1bbfc051461017d578063a901d15c14610199578063ea57d5d4146101b557610088565b8063186dd0661461008d5780633b1744cc146100bd5780635ea81a32146100ed5780638915b3fb1461011d575b600080fd5b6100a760048036038101906100a29190610b0c565b6101d1565b6040516100b49190610d43565b60405180910390f35b6100d760048036038101906100d29190610b0c565b6101f0565b6040516100e49190610d21565b60405180910390f35b61010760048036038101906101029190610a94565b610387565b6040516101149190610d43565b60405180910390f35b61013760048036038101906101329190610b0c565b610487565b6040516101449190610d21565b60405180910390f35b61016760048036038101906101629190610b0c565b61061e565b6040516101749190610d43565b60405180910390f35b61019760048036038101906101929190610b95565b61063d565b005b6101b360048036038101906101ae9190610b0c565b6107b5565b005b6101cf60048036038101906101ca9190610b39565b61085b565b005b6000806000838152602001908152602001600020600601549050919050565b606060008060008481526020019081526020016000206006015467ffffffffffffffff81111561022357610222610fc2565b5b60405190808252806020026020018201604052801561025c57816020015b610249610952565b8152602001906001900390816102415790505b50905060005b6000808581526020019081526020016000206006015481101561037d5760008085815260200190815260200160002060050160008281526020019081526020016000206040518060400160405290816000820180546102c090610e89565b80601f01602080910402602001604051908101604052809291908181526020018280546102ec90610e89565b80156103395780601f1061030e57610100808354040283529160200191610339565b820191906000526020600020905b81548152906001019060200180831161031c57829003601f168201915b5050505050815260200160018201548152505082828151811061035f5761035e610f93565b5b6020026020010181905250808061037590610eec565b915050610262565b5080915050919050565b600080600080600160008154809291906103a090610eec565b9190505581526020019081526020016000209050838160000190805190602001906103cc92919061096c565b50828160010190805190602001906103e592919061096c565b5060008160020181905550338160030160006101000a81548173ffffffffffffffffffffffffffffffffffffffff021916908373ffffffffffffffffffffffffffffffffffffffff1602179055506000816006018190555060008160070160006101000a81548160ff021916908315150217905550600180546104689190610e09565b81600801819055506001805461047e9190610e09565b91505092915050565b606060008060008481526020019081526020016000206006015467ffffffffffffffff8111156104ba576104b9610fc2565b5b6040519080825280602002602001820160405280156104f357816020015b6104e0610952565b8152602001906001900390816104d85790505b50905060005b6000808581526020019081526020016000206006015481101561061457600080858152602001908152602001600020600501600082815260200190815260200160002060405180604001604052908160008201805461055790610e89565b80601f016020809104026020016040519081016040528092919081815260200182805461058390610e89565b80156105d05780601f106105a5576101008083540402835291602001916105d0565b820191906000526020600020905b8154815290600101906020018083116105b357829003601f168201915b505050505081526020016001820154815250508282815181106105f6576105f5610f93565b5b6020026020010181905250808061060c90610eec565b9150506104f9565b5080915050919050565b6000806000838152602001908152602001600020600201549050919050565b8260008082815260200190815260200160002060040160003373ffffffffffffffffffffffffffffffffffffffff1673ffffffffffffffffffffffffffffffffffffffff16815260200190815260200160002060020160009054906101000a900460ff16156106ab57600080fd5b6000806000868152602001908152602001600020905060008160040160003373ffffffffffffffffffffffffffffffffffffffff1673ffffffffffffffffffffffffffffffffffffffff16815260200190815260200160002090506000826005016000878152602001908152602001600020905082600201600081548092919061073490610eec565b91905055508482600001908051906020019061075192919061096c565b5085826001018190555081600301600081548092919061077090610eec565b919050555060018260020160006101000a81548160ff0219169083151502179055508060010160008154809291906107a790610eec565b919050555050505050505050565b8060008082815260200190815260200160002060030160009054906101000a900473ffffffffffffffffffffffffffffffffffffffff1673ffffffffffffffffffffffffffffffffffffffff163373ffffffffffffffffffffffffffffffffffffffff161461082357600080fd5b6000806000848152602001908152602001600020905060018160070160006101000a81548160ff021916908315150217905550505050565b8160008082815260200190815260200160002060030160009054906101000a900473ffffffffffffffffffffffffffffffffffffffff1673ffffffffffffffffffffffffffffffffffffffff163373ffffffffffffffffffffffffffffffffffffffff16146108c957600080fd5b600080600085815260200190815260200160002090506040518060400160405280848152602001600081525081600501600083600601600081548092919061091090610eec565b919050558152602001908152602001600020600082015181600001908051906020019061093e92919061096c565b506020820151816001015590505050505050565b604051806040016040528060608152602001600081525090565b82805461097890610e89565b90600052602060002090601f01602090048101928261099a57600085556109e1565b82601f106109b357805160ff19168380011785556109e1565b828001600101855582156109e1579182015b828111156109e05782518255916020019190600101906109c5565b5b5090506109ee91906109f2565b5090565b5b80821115610a0b5760008160009055506001016109f3565b5090565b6000610a22610a1d84610d83565b610d5e565b905082815260208101848484011115610a3e57610a3d610ff6565b5b610a49848285610e47565b509392505050565b600082601f830112610a6657610a65610ff1565b5b8135610a76848260208601610a0f565b91505092915050565b600081359050610a8e81611016565b92915050565b60008060408385031215610aab57610aaa611000565b5b600083013567ffffffffffffffff811115610ac957610ac8610ffb565b5b610ad585828601610a51565b925050602083013567ffffffffffffffff811115610af657610af5610ffb565b5b610b0285828601610a51565b9150509250929050565b600060208284031215610b2257610b21611000565b5b6000610b3084828501610a7f565b91505092915050565b60008060408385031215610b5057610b4f611000565b5b6000610b5e85828601610a7f565b925050602083013567ffffffffffffffff811115610b7f57610b7e610ffb565b5b610b8b85828601610a51565b9150509250929050565b600080600060608486031215610bae57610bad611000565b5b6000610bbc86828701610a7f565b9350506020610bcd86828701610a7f565b925050604084013567ffffffffffffffff811115610bee57610bed610ffb565b5b610bfa86828701610a51565b9150509250925092565b6000610c108383610cc6565b905092915050565b6000610c2382610dc4565b610c2d8185610de7565b935083602082028501610c3f85610db4565b8060005b85811015610c7b5784840389528151610c5c8582610c04565b9450610c6783610dda565b925060208a01995050600181019050610c43565b50829750879550505050505092915050565b6000610c9882610dcf565b610ca28185610df8565b9350610cb2818560208601610e56565b610cbb81611005565b840191505092915050565b60006040830160008301518482036000860152610ce38282610c8d565b9150506020830151610cf86020860182610d03565b508091505092915050565b610d0c81610e3d565b82525050565b610d1b81610e3d565b82525050565b60006020820190508181036000830152610d3b8184610c18565b905092915050565b6000602082019050610d586000830184610d12565b92915050565b6000610d68610d79565b9050610d748282610ebb565b919050565b6000604051905090565b600067ffffffffffffffff821115610d9e57610d9d610fc2565b5b610da782611005565b9050602081019050919050565b6000819050602082019050919050565b600081519050919050565b600081519050919050565b6000602082019050919050565b600082825260208201905092915050565b600082825260208201905092915050565b6000610e1482610e3d565b9150610e1f83610e3d565b925082821015610e3257610e31610f35565b5b828203905092915050565b6000819050919050565b82818337600083830152505050565b60005b83811015610e74578082015181840152602081019050610e59565b83811115610e83576000848401525b50505050565b60006002820490506001821680610ea157607f821691505b60208210811415610eb557610eb4610f64565b5b50919050565b610ec482611005565b810181811067ffffffffffffffff82111715610ee357610ee2610fc2565b5b80604052505050565b6000610ef782610e3d565b91507fffffffffffffffffffffffffffffffffffffffffffffffffffffffffffffffff821415610f2a57610f29610f35565b5b600182019050919050565b7f4e487b7100000000000000000000000000000000000000000000000000000000600052601160045260246000fd5b7f4e487b7100000000000000000000000000000000000000000000000000000000600052602260045260246000fd5b7f4e487b7100000000000000000000000000000000000000000000000000000000600052603260045260246000fd5b7f4e487b7100000000000000000000000000000000000000000000000000000000600052604160045260246000fd5b600080fd5b600080fd5b600080fd5b600080fd5b6000601f19601f8301169050919050565b61101f81610e3d565b811461102a57600080fd5b5056fea2646970667358221220914fd2117e6061049bd7b8fdfb4e5c9124aea33317570b99eac1299b11892e6f64736f6c63430008070033",
					"opcodes": "PUSH1 0x80 PUSH1 0x40 MSTORE PUSH1 0x0 PUSH1 0x1 SSTORE CALLVALUE DUP1 ISZERO PUSH2 0x15 JUMPI PUSH1 0x0 DUP1 REVERT JUMPDEST POP PUSH2 0x1063 DUP1 PUSH2 0x25 PUSH1 0x0 CODECOPY PUSH1 0x0 RETURN INVALID PUSH1 0x80 PUSH1 0x40 MSTORE CALLVALUE DUP1 ISZERO PUSH2 0x10 JUMPI PUSH1 0x0 DUP1 REVERT JUMPDEST POP PUSH1 0x4 CALLDATASIZE LT PUSH2 0x88 JUMPI PUSH1 0x0 CALLDATALOAD PUSH1 0xE0 SHR DUP1 PUSH4 0x8C8E54FB GT PUSH2 0x5B JUMPI DUP1 PUSH4 0x8C8E54FB EQ PUSH2 0x14D JUMPI DUP1 PUSH4 0xA1BBFC05 EQ PUSH2 0x17D JUMPI DUP1 PUSH4 0xA901D15C EQ PUSH2 0x199 JUMPI DUP1 PUSH4 0xEA57D5D4 EQ PUSH2 0x1B5 JUMPI PUSH2 0x88 JUMP JUMPDEST DUP1 PUSH4 0x186DD066 EQ PUSH2 0x8D JUMPI DUP1 PUSH4 0x3B1744CC EQ PUSH2 0xBD JUMPI DUP1 PUSH4 0x5EA81A32 EQ PUSH2 0xED JUMPI DUP1 PUSH4 0x8915B3FB EQ PUSH2 0x11D JUMPI JUMPDEST PUSH1 0x0 DUP1 REVERT JUMPDEST PUSH2 0xA7 PUSH1 0x4 DUP1 CALLDATASIZE SUB DUP2 ADD SWAP1 PUSH2 0xA2 SWAP2 SWAP1 PUSH2 0xB0C JUMP JUMPDEST PUSH2 0x1D1 JUMP JUMPDEST PUSH1 0x40 MLOAD PUSH2 0xB4 SWAP2 SWAP1 PUSH2 0xD43 JUMP JUMPDEST PUSH1 0x40 MLOAD DUP1 SWAP2 SUB SWAP1 RETURN JUMPDEST PUSH2 0xD7 PUSH1 0x4 DUP1 CALLDATASIZE SUB DUP2 ADD SWAP1 PUSH2 0xD2 SWAP2 SWAP1 PUSH2 0xB0C JUMP JUMPDEST PUSH2 0x1F0 JUMP JUMPDEST PUSH1 0x40 MLOAD PUSH2 0xE4 SWAP2 SWAP1 PUSH2 0xD21 JUMP JUMPDEST PUSH1 0x40 MLOAD DUP1 SWAP2 SUB SWAP1 RETURN JUMPDEST PUSH2 0x107 PUSH1 0x4 DUP1 CALLDATASIZE SUB DUP2 ADD SWAP1 PUSH2 0x102 SWAP2 SWAP1 PUSH2 0xA94 JUMP JUMPDEST PUSH2 0x387 JUMP JUMPDEST PUSH1 0x40 MLOAD PUSH2 0x114 SWAP2 SWAP1 PUSH2 0xD43 JUMP JUMPDEST PUSH1 0x40 MLOAD DUP1 SWAP2 SUB SWAP1 RETURN JUMPDEST PUSH2 0x137 PUSH1 0x4 DUP1 CALLDATASIZE SUB DUP2 ADD SWAP1 PUSH2 0x132 SWAP2 SWAP1 PUSH2 0xB0C JUMP JUMPDEST PUSH2 0x487 JUMP JUMPDEST PUSH1 0x40 MLOAD PUSH2 0x144 SWAP2 SWAP1 PUSH2 0xD21 JUMP JUMPDEST PUSH1 0x40 MLOAD DUP1 SWAP2 SUB SWAP1 RETURN JUMPDEST PUSH2 0x167 PUSH1 0x4 DUP1 CALLDATASIZE SUB DUP2 ADD SWAP1 PUSH2 0x162 SWAP2 SWAP1 PUSH2 0xB0C JUMP JUMPDEST PUSH2 0x61E JUMP JUMPDEST PUSH1 0x40 MLOAD PUSH2 0x174 SWAP2 SWAP1 PUSH2 0xD43 JUMP JUMPDEST PUSH1 0x40 MLOAD DUP1 SWAP2 SUB SWAP1 RETURN JUMPDEST PUSH2 0x197 PUSH1 0x4 DUP1 CALLDATASIZE SUB DUP2 ADD SWAP1 PUSH2 0x192 SWAP2 SWAP1 PUSH2 0xB95 JUMP JUMPDEST PUSH2 0x63D JUMP JUMPDEST STOP JUMPDEST PUSH2 0x1B3 PUSH1 0x4 DUP1 CALLDATASIZE SUB DUP2 ADD SWAP1 PUSH2 0x1AE SWAP2 SWAP1 PUSH2 0xB0C JUMP JUMPDEST PUSH2 0x7B5 JUMP JUMPDEST STOP JUMPDEST PUSH2 0x1CF PUSH1 0x4 DUP1 CALLDATASIZE SUB DUP2 ADD SWAP1 PUSH2 0x1CA SWAP2 SWAP1 PUSH2 0xB39 JUMP JUMPDEST PUSH2 0x85B JUMP JUMPDEST STOP JUMPDEST PUSH1 0x0 DUP1 PUSH1 0x0 DUP4 DUP2 MSTORE PUSH1 0x20 ADD SWAP1 DUP2 MSTORE PUSH1 0x20 ADD PUSH1 0x0 KECCAK256 PUSH1 0x6 ADD SLOAD SWAP1 POP SWAP2 SWAP1 POP JUMP JUMPDEST PUSH1 0x60 PUSH1 0x0 DUP1 PUSH1 0x0 DUP5 DUP2 MSTORE PUSH1 0x20 ADD SWAP1 DUP2 MSTORE PUSH1 0x20 ADD PUSH1 0x0 KECCAK256 PUSH1 0x6 ADD SLOAD PUSH8 0xFFFFFFFFFFFFFFFF DUP2 GT ISZERO PUSH2 0x223 JUMPI PUSH2 0x222 PUSH2 0xFC2 JUMP JUMPDEST JUMPDEST PUSH1 0x40 MLOAD SWAP1 DUP1 DUP3 MSTORE DUP1 PUSH1 0x20 MUL PUSH1 0x20 ADD DUP3 ADD PUSH1 0x40 MSTORE DUP1 ISZERO PUSH2 0x25C JUMPI DUP2 PUSH1 0x20 ADD JUMPDEST PUSH2 0x249 PUSH2 0x952 JUMP JUMPDEST DUP2 MSTORE PUSH1 0x20 ADD SWAP1 PUSH1 0x1 SWAP1 SUB SWAP1 DUP2 PUSH2 0x241 JUMPI SWAP1 POP JUMPDEST POP SWAP1 POP PUSH1 0x0 JUMPDEST PUSH1 0x0 DUP1 DUP6 DUP2 MSTORE PUSH1 0x20 ADD SWAP1 DUP2 MSTORE PUSH1 0x20 ADD PUSH1 0x0 KECCAK256 PUSH1 0x6 ADD SLOAD DUP2 LT ISZERO PUSH2 0x37D JUMPI PUSH1 0x0 DUP1 DUP6 DUP2 MSTORE PUSH1 0x20 ADD SWAP1 DUP2 MSTORE PUSH1 0x20 ADD PUSH1 0x0 KECCAK256 PUSH1 0x5 ADD PUSH1 0x0 DUP3 DUP2 MSTORE PUSH1 0x20 ADD SWAP1 DUP2 MSTORE PUSH1 0x20 ADD PUSH1 0x0 KECCAK256 PUSH1 0x40 MLOAD DUP1 PUSH1 0x40 ADD PUSH1 0x40 MSTORE SWAP1 DUP2 PUSH1 0x0 DUP3 ADD DUP1 SLOAD PUSH2 0x2C0 SWAP1 PUSH2 0xE89 JUMP JUMPDEST DUP1 PUSH1 0x1F ADD PUSH1 0x20 DUP1 SWAP2 DIV MUL PUSH1 0x20 ADD PUSH1 0x40 MLOAD SWAP1 DUP2 ADD PUSH1 0x40 MSTORE DUP1 SWAP3 SWAP2 SWAP1 DUP2 DUP2 MSTORE PUSH1 0x20 ADD DUP3 DUP1 SLOAD PUSH2 0x2EC SWAP1 PUSH2 0xE89 JUMP JUMPDEST DUP1 ISZERO PUSH2 0x339 JUMPI DUP1 PUSH1 0x1F LT PUSH2 0x30E JUMPI PUSH2 0x100 DUP1 DUP4 SLOAD DIV MUL DUP4 MSTORE SWAP2 PUSH1 0x20 ADD SWAP2 PUSH2 0x339 JUMP JUMPDEST DUP3 ADD SWAP2 SWAP1 PUSH1 0x0 MSTORE PUSH1 0x20 PUSH1 0x0 KECCAK256 SWAP1 JUMPDEST DUP2 SLOAD DUP2 MSTORE SWAP1 PUSH1 0x1 ADD SWAP1 PUSH1 0x20 ADD DUP1 DUP4 GT PUSH2 0x31C JUMPI DUP3 SWAP1 SUB PUSH1 0x1F AND DUP3 ADD SWAP2 JUMPDEST POP POP POP POP POP DUP2 MSTORE PUSH1 0x20 ADD PUSH1 0x1 DUP3 ADD SLOAD DUP2 MSTORE POP POP DUP3 DUP3 DUP2 MLOAD DUP2 LT PUSH2 0x35F JUMPI PUSH2 0x35E PUSH2 0xF93 JUMP JUMPDEST JUMPDEST PUSH1 0x20 MUL PUSH1 0x20 ADD ADD DUP2 SWAP1 MSTORE POP DUP1 DUP1 PUSH2 0x375 SWAP1 PUSH2 0xEEC JUMP JUMPDEST SWAP2 POP POP PUSH2 0x262 JUMP JUMPDEST POP DUP1 SWAP2 POP POP SWAP2 SWAP1 POP JUMP JUMPDEST PUSH1 0x0 DUP1 PUSH1 0x0 DUP1 PUSH1 0x1 PUSH1 0x0 DUP2 SLOAD DUP1 SWAP3 SWAP2 SWAP1 PUSH2 0x3A0 SWAP1 PUSH2 0xEEC JUMP JUMPDEST SWAP2 SWAP1 POP SSTORE DUP2 MSTORE PUSH1 0x20 ADD SWAP1 DUP2 MSTORE PUSH1 0x20 ADD PUSH1 0x0 KECCAK256 SWAP1 POP DUP4 DUP2 PUSH1 0x0 ADD SWAP1 DUP1 MLOAD SWAP1 PUSH1 0x20 ADD SWAP1 PUSH2 0x3CC SWAP3 SWAP2 SWAP1 PUSH2 0x96C JUMP JUMPDEST POP DUP3 DUP2 PUSH1 0x1 ADD SWAP1 DUP1 MLOAD SWAP1 PUSH1 0x20 ADD SWAP1 PUSH2 0x3E5 SWAP3 SWAP2 SWAP1 PUSH2 0x96C JUMP JUMPDEST POP PUSH1 0x0 DUP2 PUSH1 0x2 ADD DUP2 SWAP1 SSTORE POP CALLER DUP2 PUSH1 0x3 ADD PUSH1 0x0 PUSH2 0x100 EXP DUP2 SLOAD DUP2 PUSH20 0xFFFFFFFFFFFFFFFFFFFFFFFFFFFFFFFFFFFFFFFF MUL NOT AND SWAP1 DUP4 PUSH20 0xFFFFFFFFFFFFFFFFFFFFFFFFFFFFFFFFFFFFFFFF AND MUL OR SWAP1 SSTORE POP PUSH1 0x0 DUP2 PUSH1 0x6 ADD DUP2 SWAP1 SSTORE POP PUSH1 0x0 DUP2 PUSH1 0x7 ADD PUSH1 0x0 PUSH2 0x100 EXP DUP2 SLOAD DUP2 PUSH1 0xFF MUL NOT AND SWAP1 DUP4 ISZERO ISZERO MUL OR SWAP1 SSTORE POP PUSH1 0x1 DUP1 SLOAD PUSH2 0x468 SWAP2 SWAP1 PUSH2 0xE09 JUMP JUMPDEST DUP2 PUSH1 0x8 ADD DUP2 SWAP1 SSTORE POP PUSH1 0x1 DUP1 SLOAD PUSH2 0x47E SWAP2 SWAP1 PUSH2 0xE09 JUMP JUMPDEST SWAP2 POP POP SWAP3 SWAP2 POP POP JUMP JUMPDEST PUSH1 0x60 PUSH1 0x0 DUP1 PUSH1 0x0 DUP5 DUP2 MSTORE PUSH1 0x20 ADD SWAP1 DUP2 MSTORE PUSH1 0x20 ADD PUSH1 0x0 KECCAK256 PUSH1 0x6 ADD SLOAD PUSH8 0xFFFFFFFFFFFFFFFF DUP2 GT ISZERO PUSH2 0x4BA JUMPI PUSH2 0x4B9 PUSH2 0xFC2 JUMP JUMPDEST JUMPDEST PUSH1 0x40 MLOAD SWAP1 DUP1 DUP3 MSTORE DUP1 PUSH1 0x20 MUL PUSH1 0x20 ADD DUP3 ADD PUSH1 0x40 MSTORE DUP1 ISZERO PUSH2 0x4F3 JUMPI DUP2 PUSH1 0x20 ADD JUMPDEST PUSH2 0x4E0 PUSH2 0x952 JUMP JUMPDEST DUP2 MSTORE PUSH1 0x20 ADD SWAP1 PUSH1 0x1 SWAP1 SUB SWAP1 DUP2 PUSH2 0x4D8 JUMPI SWAP1 POP JUMPDEST POP SWAP1 POP PUSH1 0x0 JUMPDEST PUSH1 0x0 DUP1 DUP6 DUP2 MSTORE PUSH1 0x20 ADD SWAP1 DUP2 MSTORE PUSH1 0x20 ADD PUSH1 0x0 KECCAK256 PUSH1 0x6 ADD SLOAD DUP2 LT ISZERO PUSH2 0x614 JUMPI PUSH1 0x0 DUP1 DUP6 DUP2 MSTORE PUSH1 0x20 ADD SWAP1 DUP2 MSTORE PUSH1 0x20 ADD PUSH1 0x0 KECCAK256 PUSH1 0x5 ADD PUSH1 0x0 DUP3 DUP2 MSTORE PUSH1 0x20 ADD SWAP1 DUP2 MSTORE PUSH1 0x20 ADD PUSH1 0x0 KECCAK256 PUSH1 0x40 MLOAD DUP1 PUSH1 0x40 ADD PUSH1 0x40 MSTORE SWAP1 DUP2 PUSH1 0x0 DUP3 ADD DUP1 SLOAD PUSH2 0x557 SWAP1 PUSH2 0xE89 JUMP JUMPDEST DUP1 PUSH1 0x1F ADD PUSH1 0x20 DUP1 SWAP2 DIV MUL PUSH1 0x20 ADD PUSH1 0x40 MLOAD SWAP1 DUP2 ADD PUSH1 0x40 MSTORE DUP1 SWAP3 SWAP2 SWAP1 DUP2 DUP2 MSTORE PUSH1 0x20 ADD DUP3 DUP1 SLOAD PUSH2 0x583 SWAP1 PUSH2 0xE89 JUMP JUMPDEST DUP1 ISZERO PUSH2 0x5D0 JUMPI DUP1 PUSH1 0x1F LT PUSH2 0x5A5 JUMPI PUSH2 0x100 DUP1 DUP4 SLOAD DIV MUL DUP4 MSTORE SWAP2 PUSH1 0x20 ADD SWAP2 PUSH2 0x5D0 JUMP JUMPDEST DUP3 ADD SWAP2 SWAP1 PUSH1 0x0 MSTORE PUSH1 0x20 PUSH1 0x0 KECCAK256 SWAP1 JUMPDEST DUP2 SLOAD DUP2 MSTORE SWAP1 PUSH1 0x1 ADD SWAP1 PUSH1 0x20 ADD DUP1 DUP4 GT PUSH2 0x5B3 JUMPI DUP3 SWAP1 SUB PUSH1 0x1F AND DUP3 ADD SWAP2 JUMPDEST POP POP POP POP POP DUP2 MSTORE PUSH1 0x20 ADD PUSH1 0x1 DUP3 ADD SLOAD DUP2 MSTORE POP POP DUP3 DUP3 DUP2 MLOAD DUP2 LT PUSH2 0x5F6 JUMPI PUSH2 0x5F5 PUSH2 0xF93 JUMP JUMPDEST JUMPDEST PUSH1 0x20 MUL PUSH1 0x20 ADD ADD DUP2 SWAP1 MSTORE POP DUP1 DUP1 PUSH2 0x60C SWAP1 PUSH2 0xEEC JUMP JUMPDEST SWAP2 POP POP PUSH2 0x4F9 JUMP JUMPDEST POP DUP1 SWAP2 POP POP SWAP2 SWAP1 POP JUMP JUMPDEST PUSH1 0x0 DUP1 PUSH1 0x0 DUP4 DUP2 MSTORE PUSH1 0x20 ADD SWAP1 DUP2 MSTORE PUSH1 0x20 ADD PUSH1 0x0 KECCAK256 PUSH1 0x2 ADD SLOAD SWAP1 POP SWAP2 SWAP1 POP JUMP JUMPDEST DUP3 PUSH1 0x0 DUP1 DUP3 DUP2 MSTORE PUSH1 0x20 ADD SWAP1 DUP2 MSTORE PUSH1 0x20 ADD PUSH1 0x0 KECCAK256 PUSH1 0x4 ADD PUSH1 0x0 CALLER PUSH20 0xFFFFFFFFFFFFFFFFFFFFFFFFFFFFFFFFFFFFFFFF AND PUSH20 0xFFFFFFFFFFFFFFFFFFFFFFFFFFFFFFFFFFFFFFFF AND DUP2 MSTORE PUSH1 0x20 ADD SWAP1 DUP2 MSTORE PUSH1 0x20 ADD PUSH1 0x0 KECCAK256 PUSH1 0x2 ADD PUSH1 0x0 SWAP1 SLOAD SWAP1 PUSH2 0x100 EXP SWAP1 DIV PUSH1 0xFF AND ISZERO PUSH2 0x6AB JUMPI PUSH1 0x0 DUP1 REVERT JUMPDEST PUSH1 0x0 DUP1 PUSH1 0x0 DUP7 DUP2 MSTORE PUSH1 0x20 ADD SWAP1 DUP2 MSTORE PUSH1 0x20 ADD PUSH1 0x0 KECCAK256 SWAP1 POP PUSH1 0x0 DUP2 PUSH1 0x4 ADD PUSH1 0x0 CALLER PUSH20 0xFFFFFFFFFFFFFFFFFFFFFFFFFFFFFFFFFFFFFFFF AND PUSH20 0xFFFFFFFFFFFFFFFFFFFFFFFFFFFFFFFFFFFFFFFF AND DUP2 MSTORE PUSH1 0x20 ADD SWAP1 DUP2 MSTORE PUSH1 0x20 ADD PUSH1 0x0 KECCAK256 SWAP1 POP PUSH1 0x0 DUP3 PUSH1 0x5 ADD PUSH1 0x0 DUP8 DUP2 MSTORE PUSH1 0x20 ADD SWAP1 DUP2 MSTORE PUSH1 0x20 ADD PUSH1 0x0 KECCAK256 SWAP1 POP DUP3 PUSH1 0x2 ADD PUSH1 0x0 DUP2 SLOAD DUP1 SWAP3 SWAP2 SWAP1 PUSH2 0x734 SWAP1 PUSH2 0xEEC JUMP JUMPDEST SWAP2 SWAP1 POP SSTORE POP DUP5 DUP3 PUSH1 0x0 ADD SWAP1 DUP1 MLOAD SWAP1 PUSH1 0x20 ADD SWAP1 PUSH2 0x751 SWAP3 SWAP2 SWAP1 PUSH2 0x96C JUMP JUMPDEST POP DUP6 DUP3 PUSH1 0x1 ADD DUP2 SWAP1 SSTORE POP DUP2 PUSH1 0x3 ADD PUSH1 0x0 DUP2 SLOAD DUP1 SWAP3 SWAP2 SWAP1 PUSH2 0x770 SWAP1 PUSH2 0xEEC JUMP JUMPDEST SWAP2 SWAP1 POP SSTORE POP PUSH1 0x1 DUP3 PUSH1 0x2 ADD PUSH1 0x0 PUSH2 0x100 EXP DUP2 SLOAD DUP2 PUSH1 0xFF MUL NOT AND SWAP1 DUP4 ISZERO ISZERO MUL OR SWAP1 SSTORE POP DUP1 PUSH1 0x1 ADD PUSH1 0x0 DUP2 SLOAD DUP1 SWAP3 SWAP2 SWAP1 PUSH2 0x7A7 SWAP1 PUSH2 0xEEC JUMP JUMPDEST SWAP2 SWAP1 POP SSTORE POP POP POP POP POP POP POP POP JUMP JUMPDEST DUP1 PUSH1 0x0 DUP1 DUP3 DUP2 MSTORE PUSH1 0x20 ADD SWAP1 DUP2 MSTORE PUSH1 0x20 ADD PUSH1 0x0 KECCAK256 PUSH1 0x3 ADD PUSH1 0x0 SWAP1 SLOAD SWAP1 PUSH2 0x100 EXP SWAP1 DIV PUSH20 0xFFFFFFFFFFFFFFFFFFFFFFFFFFFFFFFFFFFFFFFF AND PUSH20 0xFFFFFFFFFFFFFFFFFFFFFFFFFFFFFFFFFFFFFFFF AND CALLER PUSH20 0xFFFFFFFFFFFFFFFFFFFFFFFFFFFFFFFFFFFFFFFF AND EQ PUSH2 0x823 JUMPI PUSH1 0x0 DUP1 REVERT JUMPDEST PUSH1 0x0 DUP1 PUSH1 0x0 DUP5 DUP2 MSTORE PUSH1 0x20 ADD SWAP1 DUP2 MSTORE PUSH1 0x20 ADD PUSH1 0x0 KECCAK256 SWAP1 POP PUSH1 0x1 DUP2 PUSH1 0x7 ADD PUSH1 0x0 PUSH2 0x100 EXP DUP2 SLOAD DUP2 PUSH1 0xFF MUL NOT AND SWAP1 DUP4 ISZERO ISZERO MUL OR SWAP1 SSTORE POP POP POP POP JUMP JUMPDEST DUP2 PUSH1 0x0 DUP1 DUP3 DUP2 MSTORE PUSH1 0x20 ADD SWAP1 DUP2 MSTORE PUSH1 0x20 ADD PUSH1 0x0 KECCAK256 PUSH1 0x3 ADD PUSH1 0x0 SWAP1 SLOAD SWAP1 PUSH2 0x100 EXP SWAP1 DIV PUSH20 0xFFFFFFFFFFFFFFFFFFFFFFFFFFFFFFFFFFFFFFFF AND PUSH20 0xFFFFFFFFFFFFFFFFFFFFFFFFFFFFFFFFFFFFFFFF AND CALLER PUSH20 0xFFFFFFFFFFFFFFFFFFFFFFFFFFFFFFFFFFFFFFFF AND EQ PUSH2 0x8C9 JUMPI PUSH1 0x0 DUP1 REVERT JUMPDEST PUSH1 0x0 DUP1 PUSH1 0x0 DUP6 DUP2 MSTORE PUSH1 0x20 ADD SWAP1 DUP2 MSTORE PUSH1 0x20 ADD PUSH1 0x0 KECCAK256 SWAP1 POP PUSH1 0x40 MLOAD DUP1 PUSH1 0x40 ADD PUSH1 0x40 MSTORE DUP1 DUP5 DUP2 MSTORE PUSH1 0x20 ADD PUSH1 0x0 DUP2 MSTORE POP DUP2 PUSH1 0x5 ADD PUSH1 0x0 DUP4 PUSH1 0x6 ADD PUSH1 0x0 DUP2 SLOAD DUP1 SWAP3 SWAP2 SWAP1 PUSH2 0x910 SWAP1 PUSH2 0xEEC JUMP JUMPDEST SWAP2 SWAP1 POP SSTORE DUP2 MSTORE PUSH1 0x20 ADD SWAP1 DUP2 MSTORE PUSH1 0x20 ADD PUSH1 0x0 KECCAK256 PUSH1 0x0 DUP3 ADD MLOAD DUP2 PUSH1 0x0 ADD SWAP1 DUP1 MLOAD SWAP1 PUSH1 0x20 ADD SWAP1 PUSH2 0x93E SWAP3 SWAP2 SWAP1 PUSH2 0x96C JUMP JUMPDEST POP PUSH1 0x20 DUP3 ADD MLOAD DUP2 PUSH1 0x1 ADD SSTORE SWAP1 POP POP POP POP POP POP JUMP JUMPDEST PUSH1 0x40 MLOAD DUP1 PUSH1 0x40 ADD PUSH1 0x40 MSTORE DUP1 PUSH1 0x60 DUP2 MSTORE PUSH1 0x20 ADD PUSH1 0x0 DUP2 MSTORE POP SWAP1 JUMP JUMPDEST DUP3 DUP1 SLOAD PUSH2 0x978 SWAP1 PUSH2 0xE89 JUMP JUMPDEST SWAP1 PUSH1 0x0 MSTORE PUSH1 0x20 PUSH1 0x0 KECCAK256 SWAP1 PUSH1 0x1F ADD PUSH1 0x20 SWAP1 DIV DUP2 ADD SWAP3 DUP3 PUSH2 0x99A JUMPI PUSH1 0x0 DUP6 SSTORE PUSH2 0x9E1 JUMP JUMPDEST DUP3 PUSH1 0x1F LT PUSH2 0x9B3 JUMPI DUP1 MLOAD PUSH1 0xFF NOT AND DUP4 DUP1 ADD OR DUP6 SSTORE PUSH2 0x9E1 JUMP JUMPDEST DUP3 DUP1 ADD PUSH1 0x1 ADD DUP6 SSTORE DUP3 ISZERO PUSH2 0x9E1 JUMPI SWAP2 DUP3 ADD JUMPDEST DUP3 DUP2 GT ISZERO PUSH2 0x9E0 JUMPI DUP3 MLOAD DUP3 SSTORE SWAP2 PUSH1 0x20 ADD SWAP2 SWAP1 PUSH1 0x1 ADD SWAP1 PUSH2 0x9C5 JUMP JUMPDEST JUMPDEST POP SWAP1 POP PUSH2 0x9EE SWAP2 SWAP1 PUSH2 0x9F2 JUMP JUMPDEST POP SWAP1 JUMP JUMPDEST JUMPDEST DUP1 DUP3 GT ISZERO PUSH2 0xA0B JUMPI PUSH1 0x0 DUP2 PUSH1 0x0 SWAP1 SSTORE POP PUSH1 0x1 ADD PUSH2 0x9F3 JUMP JUMPDEST POP SWAP1 JUMP JUMPDEST PUSH1 0x0 PUSH2 0xA22 PUSH2 0xA1D DUP5 PUSH2 0xD83 JUMP JUMPDEST PUSH2 0xD5E JUMP JUMPDEST SWAP1 POP DUP3 DUP2 MSTORE PUSH1 0x20 DUP2 ADD DUP5 DUP5 DUP5 ADD GT ISZERO PUSH2 0xA3E JUMPI PUSH2 0xA3D PUSH2 0xFF6 JUMP JUMPDEST JUMPDEST PUSH2 0xA49 DUP5 DUP3 DUP6 PUSH2 0xE47 JUMP JUMPDEST POP SWAP4 SWAP3 POP POP POP JUMP JUMPDEST PUSH1 0x0 DUP3 PUSH1 0x1F DUP4 ADD SLT PUSH2 0xA66 JUMPI PUSH2 0xA65 PUSH2 0xFF1 JUMP JUMPDEST JUMPDEST DUP2 CALLDATALOAD PUSH2 0xA76 DUP5 DUP3 PUSH1 0x20 DUP7 ADD PUSH2 0xA0F JUMP JUMPDEST SWAP2 POP POP SWAP3 SWAP2 POP POP JUMP JUMPDEST PUSH1 0x0 DUP2 CALLDATALOAD SWAP1 POP PUSH2 0xA8E DUP2 PUSH2 0x1016 JUMP JUMPDEST SWAP3 SWAP2 POP POP JUMP JUMPDEST PUSH1 0x0 DUP1 PUSH1 0x40 DUP4 DUP6 SUB SLT ISZERO PUSH2 0xAAB JUMPI PUSH2 0xAAA PUSH2 0x1000 JUMP JUMPDEST JUMPDEST PUSH1 0x0 DUP4 ADD CALLDATALOAD PUSH8 0xFFFFFFFFFFFFFFFF DUP2 GT ISZERO PUSH2 0xAC9 JUMPI PUSH2 0xAC8 PUSH2 0xFFB JUMP JUMPDEST JUMPDEST PUSH2 0xAD5 DUP6 DUP3 DUP7 ADD PUSH2 0xA51 JUMP JUMPDEST SWAP3 POP POP PUSH1 0x20 DUP4 ADD CALLDATALOAD PUSH8 0xFFFFFFFFFFFFFFFF DUP2 GT ISZERO PUSH2 0xAF6 JUMPI PUSH2 0xAF5 PUSH2 0xFFB JUMP JUMPDEST JUMPDEST PUSH2 0xB02 DUP6 DUP3 DUP7 ADD PUSH2 0xA51 JUMP JUMPDEST SWAP2 POP POP SWAP3 POP SWAP3 SWAP1 POP JUMP JUMPDEST PUSH1 0x0 PUSH1 0x20 DUP3 DUP5 SUB SLT ISZERO PUSH2 0xB22 JUMPI PUSH2 0xB21 PUSH2 0x1000 JUMP JUMPDEST JUMPDEST PUSH1 0x0 PUSH2 0xB30 DUP5 DUP3 DUP6 ADD PUSH2 0xA7F JUMP JUMPDEST SWAP2 POP POP SWAP3 SWAP2 POP POP JUMP JUMPDEST PUSH1 0x0 DUP1 PUSH1 0x40 DUP4 DUP6 SUB SLT ISZERO PUSH2 0xB50 JUMPI PUSH2 0xB4F PUSH2 0x1000 JUMP JUMPDEST JUMPDEST PUSH1 0x0 PUSH2 0xB5E DUP6 DUP3 DUP7 ADD PUSH2 0xA7F JUMP JUMPDEST SWAP3 POP POP PUSH1 0x20 DUP4 ADD CALLDATALOAD PUSH8 0xFFFFFFFFFFFFFFFF DUP2 GT ISZERO PUSH2 0xB7F JUMPI PUSH2 0xB7E PUSH2 0xFFB JUMP JUMPDEST JUMPDEST PUSH2 0xB8B DUP6 DUP3 DUP7 ADD PUSH2 0xA51 JUMP JUMPDEST SWAP2 POP POP SWAP3 POP SWAP3 SWAP1 POP JUMP JUMPDEST PUSH1 0x0 DUP1 PUSH1 0x0 PUSH1 0x60 DUP5 DUP7 SUB SLT ISZERO PUSH2 0xBAE JUMPI PUSH2 0xBAD PUSH2 0x1000 JUMP JUMPDEST JUMPDEST PUSH1 0x0 PUSH2 0xBBC DUP7 DUP3 DUP8 ADD PUSH2 0xA7F JUMP JUMPDEST SWAP4 POP POP PUSH1 0x20 PUSH2 0xBCD DUP7 DUP3 DUP8 ADD PUSH2 0xA7F JUMP JUMPDEST SWAP3 POP POP PUSH1 0x40 DUP5 ADD CALLDATALOAD PUSH8 0xFFFFFFFFFFFFFFFF DUP2 GT ISZERO PUSH2 0xBEE JUMPI PUSH2 0xBED PUSH2 0xFFB JUMP JUMPDEST JUMPDEST PUSH2 0xBFA DUP7 DUP3 DUP8 ADD PUSH2 0xA51 JUMP JUMPDEST SWAP2 POP POP SWAP3 POP SWAP3 POP SWAP3 JUMP JUMPDEST PUSH1 0x0 PUSH2 0xC10 DUP4 DUP4 PUSH2 0xCC6 JUMP JUMPDEST SWAP1 POP SWAP3 SWAP2 POP POP JUMP JUMPDEST PUSH1 0x0 PUSH2 0xC23 DUP3 PUSH2 0xDC4 JUMP JUMPDEST PUSH2 0xC2D DUP2 DUP6 PUSH2 0xDE7 JUMP JUMPDEST SWAP4 POP DUP4 PUSH1 0x20 DUP3 MUL DUP6 ADD PUSH2 0xC3F DUP6 PUSH2 0xDB4 JUMP JUMPDEST DUP1 PUSH1 0x0 JUMPDEST DUP6 DUP2 LT ISZERO PUSH2 0xC7B JUMPI DUP5 DUP5 SUB DUP10 MSTORE DUP2 MLOAD PUSH2 0xC5C DUP6 DUP3 PUSH2 0xC04 JUMP JUMPDEST SWAP5 POP PUSH2 0xC67 DUP4 PUSH2 0xDDA JUMP JUMPDEST SWAP3 POP PUSH1 0x20 DUP11 ADD SWAP10 POP POP PUSH1 0x1 DUP2 ADD SWAP1 POP PUSH2 0xC43 JUMP JUMPDEST POP DUP3 SWAP8 POP DUP8 SWAP6 POP POP POP POP POP POP SWAP3 SWAP2 POP POP JUMP JUMPDEST PUSH1 0x0 PUSH2 0xC98 DUP3 PUSH2 0xDCF JUMP JUMPDEST PUSH2 0xCA2 DUP2 DUP6 PUSH2 0xDF8 JUMP JUMPDEST SWAP4 POP PUSH2 0xCB2 DUP2 DUP6 PUSH1 0x20 DUP7 ADD PUSH2 0xE56 JUMP JUMPDEST PUSH2 0xCBB DUP2 PUSH2 0x1005 JUMP JUMPDEST DUP5 ADD SWAP2 POP POP SWAP3 SWAP2 POP POP JUMP JUMPDEST PUSH1 0x0 PUSH1 0x40 DUP4 ADD PUSH1 0x0 DUP4 ADD MLOAD DUP5 DUP3 SUB PUSH1 0x0 DUP7 ADD MSTORE PUSH2 0xCE3 DUP3 DUP3 PUSH2 0xC8D JUMP JUMPDEST SWAP2 POP POP PUSH1 0x20 DUP4 ADD MLOAD PUSH2 0xCF8 PUSH1 0x20 DUP7 ADD DUP3 PUSH2 0xD03 JUMP JUMPDEST POP DUP1 SWAP2 POP POP SWAP3 SWAP2 POP POP JUMP JUMPDEST PUSH2 0xD0C DUP2 PUSH2 0xE3D JUMP JUMPDEST DUP3 MSTORE POP POP JUMP JUMPDEST PUSH2 0xD1B DUP2 PUSH2 0xE3D JUMP JUMPDEST DUP3 MSTORE POP POP JUMP JUMPDEST PUSH1 0x0 PUSH1 0x20 DUP3 ADD SWAP1 POP DUP2 DUP2 SUB PUSH1 0x0 DUP4 ADD MSTORE PUSH2 0xD3B DUP2 DUP5 PUSH2 0xC18 JUMP JUMPDEST SWAP1 POP SWAP3 SWAP2 POP POP JUMP JUMPDEST PUSH1 0x0 PUSH1 0x20 DUP3 ADD SWAP1 POP PUSH2 0xD58 PUSH1 0x0 DUP4 ADD DUP5 PUSH2 0xD12 JUMP JUMPDEST SWAP3 SWAP2 POP POP JUMP JUMPDEST PUSH1 0x0 PUSH2 0xD68 PUSH2 0xD79 JUMP JUMPDEST SWAP1 POP PUSH2 0xD74 DUP3 DUP3 PUSH2 0xEBB JUMP JUMPDEST SWAP2 SWAP1 POP JUMP JUMPDEST PUSH1 0x0 PUSH1 0x40 MLOAD SWAP1 POP SWAP1 JUMP JUMPDEST PUSH1 0x0 PUSH8 0xFFFFFFFFFFFFFFFF DUP3 GT ISZERO PUSH2 0xD9E JUMPI PUSH2 0xD9D PUSH2 0xFC2 JUMP JUMPDEST JUMPDEST PUSH2 0xDA7 DUP3 PUSH2 0x1005 JUMP JUMPDEST SWAP1 POP PUSH1 0x20 DUP2 ADD SWAP1 POP SWAP2 SWAP1 POP JUMP JUMPDEST PUSH1 0x0 DUP2 SWAP1 POP PUSH1 0x20 DUP3 ADD SWAP1 POP SWAP2 SWAP1 POP JUMP JUMPDEST PUSH1 0x0 DUP2 MLOAD SWAP1 POP SWAP2 SWAP1 POP JUMP JUMPDEST PUSH1 0x0 DUP2 MLOAD SWAP1 POP SWAP2 SWAP1 POP JUMP JUMPDEST PUSH1 0x0 PUSH1 0x20 DUP3 ADD SWAP1 POP SWAP2 SWAP1 POP JUMP JUMPDEST PUSH1 0x0 DUP3 DUP3 MSTORE PUSH1 0x20 DUP3 ADD SWAP1 POP SWAP3 SWAP2 POP POP JUMP JUMPDEST PUSH1 0x0 DUP3 DUP3 MSTORE PUSH1 0x20 DUP3 ADD SWAP1 POP SWAP3 SWAP2 POP POP JUMP JUMPDEST PUSH1 0x0 PUSH2 0xE14 DUP3 PUSH2 0xE3D JUMP JUMPDEST SWAP2 POP PUSH2 0xE1F DUP4 PUSH2 0xE3D JUMP JUMPDEST SWAP3 POP DUP3 DUP3 LT ISZERO PUSH2 0xE32 JUMPI PUSH2 0xE31 PUSH2 0xF35 JUMP JUMPDEST JUMPDEST DUP3 DUP3 SUB SWAP1 POP SWAP3 SWAP2 POP POP JUMP JUMPDEST PUSH1 0x0 DUP2 SWAP1 POP SWAP2 SWAP1 POP JUMP JUMPDEST DUP3 DUP2 DUP4 CALLDATACOPY PUSH1 0x0 DUP4 DUP4 ADD MSTORE POP POP POP JUMP JUMPDEST PUSH1 0x0 JUMPDEST DUP4 DUP2 LT ISZERO PUSH2 0xE74 JUMPI DUP1 DUP3 ADD MLOAD DUP2 DUP5 ADD MSTORE PUSH1 0x20 DUP2 ADD SWAP1 POP PUSH2 0xE59 JUMP JUMPDEST DUP4 DUP2 GT ISZERO PUSH2 0xE83 JUMPI PUSH1 0x0 DUP5 DUP5 ADD MSTORE JUMPDEST POP POP POP POP JUMP JUMPDEST PUSH1 0x0 PUSH1 0x2 DUP3 DIV SWAP1 POP PUSH1 0x1 DUP3 AND DUP1 PUSH2 0xEA1 JUMPI PUSH1 0x7F DUP3 AND SWAP2 POP JUMPDEST PUSH1 0x20 DUP3 LT DUP2 EQ ISZERO PUSH2 0xEB5 JUMPI PUSH2 0xEB4 PUSH2 0xF64 JUMP JUMPDEST JUMPDEST POP SWAP2 SWAP1 POP JUMP JUMPDEST PUSH2 0xEC4 DUP3 PUSH2 0x1005 JUMP JUMPDEST DUP2 ADD DUP2 DUP2 LT PUSH8 0xFFFFFFFFFFFFFFFF DUP3 GT OR ISZERO PUSH2 0xEE3 JUMPI PUSH2 0xEE2 PUSH2 0xFC2 JUMP JUMPDEST JUMPDEST DUP1 PUSH1 0x40 MSTORE POP POP POP JUMP JUMPDEST PUSH1 0x0 PUSH2 0xEF7 DUP3 PUSH2 0xE3D JUMP JUMPDEST SWAP2 POP PUSH32 0xFFFFFFFFFFFFFFFFFFFFFFFFFFFFFFFFFFFFFFFFFFFFFFFFFFFFFFFFFFFFFFFF DUP3 EQ ISZERO PUSH2 0xF2A JUMPI PUSH2 0xF29 PUSH2 0xF35 JUMP JUMPDEST JUMPDEST PUSH1 0x1 DUP3 ADD SWAP1 POP SWAP2 SWAP1 POP JUMP JUMPDEST PUSH32 0x4E487B7100000000000000000000000000000000000000000000000000000000 PUSH1 0x0 MSTORE PUSH1 0x11 PUSH1 0x4 MSTORE PUSH1 0x24 PUSH1 0x0 REVERT JUMPDEST PUSH32 0x4E487B7100000000000000000000000000000000000000000000000000000000 PUSH1 0x0 MSTORE PUSH1 0x22 PUSH1 0x4 MSTORE PUSH1 0x24 PUSH1 0x0 REVERT JUMPDEST PUSH32 0x4E487B7100000000000000000000000000000000000000000000000000000000 PUSH1 0x0 MSTORE PUSH1 0x32 PUSH1 0x4 MSTORE PUSH1 0x24 PUSH1 0x0 REVERT JUMPDEST PUSH32 0x4E487B7100000000000000000000000000000000000000000000000000000000 PUSH1 0x0 MSTORE PUSH1 0x41 PUSH1 0x4 MSTORE PUSH1 0x24 PUSH1 0x0 REVERT JUMPDEST PUSH1 0x0 DUP1 REVERT JUMPDEST PUSH1 0x0 DUP1 REVERT JUMPDEST PUSH1 0x0 DUP1 REVERT JUMPDEST PUSH1 0x0 DUP1 REVERT JUMPDEST PUSH1 0x0 PUSH1 0x1F NOT PUSH1 0x1F DUP4 ADD AND SWAP1 POP SWAP2 SWAP1 POP JUMP JUMPDEST PUSH2 0x101F DUP2 PUSH2 0xE3D JUMP JUMPDEST DUP2 EQ PUSH2 0x102A JUMPI PUSH1 0x0 DUP1 REVERT JUMPDEST POP JUMP INVALID LOG2 PUSH5 0x6970667358 0x22 SLT KECCAK256 SWAP2 0x4F 0xD2 GT PUSH31 0x6061049BD7B8FDFB4E5C9124AEA33317570B99EAC1299B11892E6F64736F6C PUSH4 0x43000807 STOP CALLER "
				},
				"gasEstimates": {
					"creation": {
						"codeDepositCost": "839000",
						"executionCost": "5883",
						"totalCost": "844883"
					},
					"external": {
						"addOption(uint256,string)": "infinite",
						"createPool(string,string)": "infinite",
						"getAcPools(uint256)": "infinite",
						"getNumOfOptions(uint256)": "infinite",
						"getNumOfVotes(uint256)": "infinite",
						"getOptions(uint256)": "infinite",
						"startPool(uint256)": "27073",
						"vote(uint256,uint256,string)": "infinite"
					}
				},
				"methodIdentifiers": {
					"addOption(uint256,string)": "ea57d5d4",
					"createPool(string,string)": "5ea81a32",
					"getAcPools(uint256)": "3b1744cc",
					"getNumOfOptions(uint256)": "186dd066",
					"getNumOfVotes(uint256)": "8c8e54fb",
					"getOptions(uint256)": "8915b3fb",
					"startPool(uint256)": "a901d15c",
					"vote(uint256,uint256,string)": "a1bbfc05"
				}
			},
			"userdoc": {
				"kind": "user",
				"methods": {},
				"version": 1
			}
		}
	}
}