{
	"contracts/eVoting_app.sol": {
		"EVoteApp": {
			"abi": [
				{
					"inputs": [
						{
							"internalType": "address",
							"name": "",
							"type": "address"
						}
					],
					"name": "pools",
					"outputs": [
						{
							"internalType": "string",
							"name": "name",
							"type": "string"
						},
						{
							"internalType": "string",
							"name": "description",
							"type": "string"
						},
						{
							"internalType": "uint256",
							"name": "totalVotes",
							"type": "uint256"
						},
						{
							"internalType": "address",
							"name": "owner",
							"type": "address"
						}
					],
					"stateMutability": "view",
					"type": "function"
				},
				{
					"inputs": [
						{
							"internalType": "string",
							"name": "_poolName",
							"type": "string"
						}
					],
					"name": "startPool",
					"outputs": [],
					"stateMutability": "nonpayable",
					"type": "function"
				}
			],
			"devdoc": {
				"kind": "dev",
				"methods": {},
				"version": 1
			},
			"evm": {
				"assembly": "    /* \"contracts/eVoting_app.sol\":71:562  contract EVoteApp{... */\n  mstore(0x40, 0x80)\n  callvalue\n  dup1\n  iszero\n  tag_1\n  jumpi\n  0x00\n  dup1\n  revert\ntag_1:\n  pop\n  dataSize(sub_0)\n  dup1\n  dataOffset(sub_0)\n  0x00\n  codecopy\n  0x00\n  return\nstop\n\nsub_0: assembly {\n        /* \"contracts/eVoting_app.sol\":71:562  contract EVoteApp{... */\n      mstore(0x40, 0x80)\n      callvalue\n      dup1\n      iszero\n      tag_1\n      jumpi\n      0x00\n      dup1\n      revert\n    tag_1:\n      pop\n      jumpi(tag_2, lt(calldatasize, 0x04))\n      shr(0xe0, calldataload(0x00))\n      dup1\n      0x53e0be39\n      eq\n      tag_3\n      jumpi\n      dup1\n      0xa4063dbc\n      eq\n      tag_4\n      jumpi\n    tag_2:\n      0x00\n      dup1\n      revert\n        /* \"contracts/eVoting_app.sol\":502:560  function startPool(string memory _poolName) public{... */\n    tag_3:\n      tag_5\n      0x04\n      dup1\n      calldatasize\n      sub\n      dup2\n      add\n      swap1\n      tag_6\n      swap2\n      swap1\n      tag_7\n      jump\t// in\n    tag_6:\n      tag_8\n      jump\t// in\n    tag_5:\n      stop\n        /* \"contracts/eVoting_app.sol\":458:495  mapping(address => Pool) public pools */\n    tag_4:\n      tag_9\n      0x04\n      dup1\n      calldatasize\n      sub\n      dup2\n      add\n      swap1\n      tag_10\n      swap2\n      swap1\n      tag_11\n      jump\t// in\n    tag_10:\n      tag_12\n      jump\t// in\n    tag_9:\n      mload(0x40)\n      tag_13\n      swap5\n      swap4\n      swap3\n      swap2\n      swap1\n      tag_14\n      jump\t// in\n    tag_13:\n      mload(0x40)\n      dup1\n      swap2\n      sub\n      swap1\n      return\n        /* \"contracts/eVoting_app.sol\":502:560  function startPool(string memory _poolName) public{... */\n    tag_8:\n      pop\n      jump\t// out\n        /* \"contracts/eVoting_app.sol\":458:495  mapping(address => Pool) public pools */\n    tag_12:\n      mstore(0x20, 0x00)\n      dup1\n      0x00\n      mstore\n      keccak256(0x00, 0x40)\n      0x00\n      swap2\n      pop\n      swap1\n      pop\n      dup1\n      0x00\n      add\n      dup1\n      sload\n      tag_16\n      swap1\n      tag_17\n      jump\t// in\n    tag_16:\n      dup1\n      0x1f\n      add\n      0x20\n      dup1\n      swap2\n      div\n      mul\n      0x20\n      add\n      mload(0x40)\n      swap1\n      dup2\n      add\n      0x40\n      mstore\n      dup1\n      swap3\n      swap2\n      swap1\n      dup2\n      dup2\n      mstore\n      0x20\n      add\n      dup3\n      dup1\n      sload\n      tag_18\n      swap1\n      tag_17\n      jump\t// in\n    tag_18:\n      dup1\n      iszero\n      tag_19\n      jumpi\n      dup1\n      0x1f\n      lt\n      tag_20\n      jumpi\n      0x0100\n      dup1\n      dup4\n      sload\n      div\n      mul\n      dup4\n      mstore\n      swap2\n      0x20\n      add\n      swap2\n      jump(tag_19)\n    tag_20:\n      dup3\n      add\n      swap2\n      swap1\n      0x00\n      mstore\n      keccak256(0x00, 0x20)\n      swap1\n    tag_21:\n      dup2\n      sload\n      dup2\n      mstore\n      swap1\n      0x01\n      add\n      swap1\n      0x20\n      add\n      dup1\n      dup4\n      gt\n      tag_21\n      jumpi\n      dup3\n      swap1\n      sub\n      0x1f\n      and\n      dup3\n      add\n      swap2\n    tag_19:\n      pop\n      pop\n      pop\n      pop\n      pop\n      swap1\n      dup1\n      0x01\n      add\n      dup1\n      sload\n      tag_22\n      swap1\n      tag_17\n      jump\t// in\n    tag_22:\n      dup1\n      0x1f\n      add\n      0x20\n      dup1\n      swap2\n      div\n      mul\n      0x20\n      add\n      mload(0x40)\n      swap1\n      dup2\n      add\n      0x40\n      mstore\n      dup1\n      swap3\n      swap2\n      swap1\n      dup2\n      dup2\n      mstore\n      0x20\n      add\n      dup3\n      dup1\n      sload\n      tag_23\n      swap1\n      tag_17\n      jump\t// in\n    tag_23:\n      dup1\n      iszero\n      tag_24\n      jumpi\n      dup1\n      0x1f\n      lt\n      tag_25\n      jumpi\n      0x0100\n      dup1\n      dup4\n      sload\n      div\n      mul\n      dup4\n      mstore\n      swap2\n      0x20\n      add\n      swap2\n      jump(tag_24)\n    tag_25:\n      dup3\n      add\n      swap2\n      swap1\n      0x00\n      mstore\n      keccak256(0x00, 0x20)\n      swap1\n    tag_26:\n      dup2\n      sload\n      dup2\n      mstore\n      swap1\n      0x01\n      add\n      swap1\n      0x20\n      add\n      dup1\n      dup4\n      gt\n      tag_26\n      jumpi\n      dup3\n      swap1\n      sub\n      0x1f\n      and\n      dup3\n      add\n      swap2\n    tag_24:\n      pop\n      pop\n      pop\n      pop\n      pop\n      swap1\n      dup1\n      0x02\n      add\n      sload\n      swap1\n      dup1\n      0x03\n      add\n      0x00\n      swap1\n      sload\n      swap1\n      0x0100\n      exp\n      swap1\n      div\n      0xffffffffffffffffffffffffffffffffffffffff\n      and\n      swap1\n      pop\n      dup5\n      jump\t// out\n        /* \"#utility.yul\":7:419   */\n    tag_28:\n        /* \"#utility.yul\":85:90   */\n      0x00\n        /* \"#utility.yul\":110:176   */\n      tag_30\n        /* \"#utility.yul\":126:175   */\n      tag_31\n        /* \"#utility.yul\":168:174   */\n      dup5\n        /* \"#utility.yul\":126:175   */\n      tag_32\n      jump\t// in\n    tag_31:\n        /* \"#utility.yul\":110:176   */\n      tag_33\n      jump\t// in\n    tag_30:\n        /* \"#utility.yul\":101:176   */\n      swap1\n      pop\n        /* \"#utility.yul\":199:205   */\n      dup3\n        /* \"#utility.yul\":192:197   */\n      dup2\n        /* \"#utility.yul\":185:206   */\n      mstore\n        /* \"#utility.yul\":237:241   */\n      0x20\n        /* \"#utility.yul\":230:235   */\n      dup2\n        /* \"#utility.yul\":226:242   */\n      add\n        /* \"#utility.yul\":275:278   */\n      dup5\n        /* \"#utility.yul\":266:272   */\n      dup5\n        /* \"#utility.yul\":261:264   */\n      dup5\n        /* \"#utility.yul\":257:273   */\n      add\n        /* \"#utility.yul\":254:279   */\n      gt\n        /* \"#utility.yul\":251:363   */\n      iszero\n      tag_34\n      jumpi\n        /* \"#utility.yul\":282:361   */\n      tag_35\n      tag_36\n      jump\t// in\n    tag_35:\n        /* \"#utility.yul\":251:363   */\n    tag_34:\n        /* \"#utility.yul\":372:413   */\n      tag_37\n        /* \"#utility.yul\":406:412   */\n      dup5\n        /* \"#utility.yul\":401:404   */\n      dup3\n        /* \"#utility.yul\":396:399   */\n      dup6\n        /* \"#utility.yul\":372:413   */\n      tag_38\n      jump\t// in\n    tag_37:\n        /* \"#utility.yul\":91:419   */\n      pop\n        /* \"#utility.yul\":7:419   */\n      swap4\n      swap3\n      pop\n      pop\n      pop\n      jump\t// out\n        /* \"#utility.yul\":425:564   */\n    tag_39:\n        /* \"#utility.yul\":471:476   */\n      0x00\n        /* \"#utility.yul\":509:515   */\n      dup2\n        /* \"#utility.yul\":496:516   */\n      calldataload\n        /* \"#utility.yul\":487:516   */\n      swap1\n      pop\n        /* \"#utility.yul\":525:558   */\n      tag_41\n        /* \"#utility.yul\":552:557   */\n      dup2\n        /* \"#utility.yul\":525:558   */\n      tag_42\n      jump\t// in\n    tag_41:\n        /* \"#utility.yul\":425:564   */\n      swap3\n      swap2\n      pop\n      pop\n      jump\t// out\n        /* \"#utility.yul\":584:924   */\n    tag_43:\n        /* \"#utility.yul\":640:645   */\n      0x00\n        /* \"#utility.yul\":689:692   */\n      dup3\n        /* \"#utility.yul\":682:686   */\n      0x1f\n        /* \"#utility.yul\":674:680   */\n      dup4\n        /* \"#utility.yul\":670:687   */\n      add\n        /* \"#utility.yul\":666:693   */\n      slt\n        /* \"#utility.yul\":656:778   */\n      tag_45\n      jumpi\n        /* \"#utility.yul\":697:776   */\n      tag_46\n      tag_47\n      jump\t// in\n    tag_46:\n        /* \"#utility.yul\":656:778   */\n    tag_45:\n        /* \"#utility.yul\":814:820   */\n      dup2\n        /* \"#utility.yul\":801:821   */\n      calldataload\n        /* \"#utility.yul\":839:918   */\n      tag_48\n        /* \"#utility.yul\":914:917   */\n      dup5\n        /* \"#utility.yul\":906:912   */\n      dup3\n        /* \"#utility.yul\":899:903   */\n      0x20\n        /* \"#utility.yul\":891:897   */\n      dup7\n        /* \"#utility.yul\":887:904   */\n      add\n        /* \"#utility.yul\":839:918   */\n      tag_28\n      jump\t// in\n    tag_48:\n        /* \"#utility.yul\":830:918   */\n      swap2\n      pop\n        /* \"#utility.yul\":646:924   */\n      pop\n        /* \"#utility.yul\":584:924   */\n      swap3\n      swap2\n      pop\n      pop\n      jump\t// out\n        /* \"#utility.yul\":930:1259   */\n    tag_11:\n        /* \"#utility.yul\":989:995   */\n      0x00\n        /* \"#utility.yul\":1038:1040   */\n      0x20\n        /* \"#utility.yul\":1026:1035   */\n      dup3\n        /* \"#utility.yul\":1017:1024   */\n      dup5\n        /* \"#utility.yul\":1013:1036   */\n      sub\n        /* \"#utility.yul\":1009:1041   */\n      slt\n        /* \"#utility.yul\":1006:1125   */\n      iszero\n      tag_50\n      jumpi\n        /* \"#utility.yul\":1044:1123   */\n      tag_51\n      tag_52\n      jump\t// in\n    tag_51:\n        /* \"#utility.yul\":1006:1125   */\n    tag_50:\n        /* \"#utility.yul\":1164:1165   */\n      0x00\n        /* \"#utility.yul\":1189:1242   */\n      tag_53\n        /* \"#utility.yul\":1234:1241   */\n      dup5\n        /* \"#utility.yul\":1225:1231   */\n      dup3\n        /* \"#utility.yul\":1214:1223   */\n      dup6\n        /* \"#utility.yul\":1210:1232   */\n      add\n        /* \"#utility.yul\":1189:1242   */\n      tag_39\n      jump\t// in\n    tag_53:\n        /* \"#utility.yul\":1179:1242   */\n      swap2\n      pop\n        /* \"#utility.yul\":1135:1252   */\n      pop\n        /* \"#utility.yul\":930:1259   */\n      swap3\n      swap2\n      pop\n      pop\n      jump\t// out\n        /* \"#utility.yul\":1265:1774   */\n    tag_7:\n        /* \"#utility.yul\":1334:1340   */\n      0x00\n        /* \"#utility.yul\":1383:1385   */\n      0x20\n        /* \"#utility.yul\":1371:1380   */\n      dup3\n        /* \"#utility.yul\":1362:1369   */\n      dup5\n        /* \"#utility.yul\":1358:1381   */\n      sub\n        /* \"#utility.yul\":1354:1386   */\n      slt\n        /* \"#utility.yul\":1351:1470   */\n      iszero\n      tag_55\n      jumpi\n        /* \"#utility.yul\":1389:1468   */\n      tag_56\n      tag_52\n      jump\t// in\n    tag_56:\n        /* \"#utility.yul\":1351:1470   */\n    tag_55:\n        /* \"#utility.yul\":1537:1538   */\n      0x00\n        /* \"#utility.yul\":1526:1535   */\n      dup3\n        /* \"#utility.yul\":1522:1539   */\n      add\n        /* \"#utility.yul\":1509:1540   */\n      calldataload\n        /* \"#utility.yul\":1567:1585   */\n      0xffffffffffffffff\n        /* \"#utility.yul\":1559:1565   */\n      dup2\n        /* \"#utility.yul\":1556:1586   */\n      gt\n        /* \"#utility.yul\":1553:1670   */\n      iszero\n      tag_57\n      jumpi\n        /* \"#utility.yul\":1589:1668   */\n      tag_58\n      tag_59\n      jump\t// in\n    tag_58:\n        /* \"#utility.yul\":1553:1670   */\n    tag_57:\n        /* \"#utility.yul\":1694:1757   */\n      tag_60\n        /* \"#utility.yul\":1749:1756   */\n      dup5\n        /* \"#utility.yul\":1740:1746   */\n      dup3\n        /* \"#utility.yul\":1729:1738   */\n      dup6\n        /* \"#utility.yul\":1725:1747   */\n      add\n        /* \"#utility.yul\":1694:1757   */\n      tag_43\n      jump\t// in\n    tag_60:\n        /* \"#utility.yul\":1684:1757   */\n      swap2\n      pop\n        /* \"#utility.yul\":1480:1767   */\n      pop\n        /* \"#utility.yul\":1265:1774   */\n      swap3\n      swap2\n      pop\n      pop\n      jump\t// out\n        /* \"#utility.yul\":1780:1898   */\n    tag_61:\n        /* \"#utility.yul\":1867:1891   */\n      tag_63\n        /* \"#utility.yul\":1885:1890   */\n      dup2\n        /* \"#utility.yul\":1867:1891   */\n      tag_64\n      jump\t// in\n    tag_63:\n        /* \"#utility.yul\":1862:1865   */\n      dup3\n        /* \"#utility.yul\":1855:1892   */\n      mstore\n        /* \"#utility.yul\":1780:1898   */\n      pop\n      pop\n      jump\t// out\n        /* \"#utility.yul\":1904:2268   */\n    tag_65:\n        /* \"#utility.yul\":1992:1995   */\n      0x00\n        /* \"#utility.yul\":2020:2059   */\n      tag_67\n        /* \"#utility.yul\":2053:2058   */\n      dup3\n        /* \"#utility.yul\":2020:2059   */\n      tag_68\n      jump\t// in\n    tag_67:\n        /* \"#utility.yul\":2075:2146   */\n      tag_69\n        /* \"#utility.yul\":2139:2145   */\n      dup2\n        /* \"#utility.yul\":2134:2137   */\n      dup6\n        /* \"#utility.yul\":2075:2146   */\n      tag_70\n      jump\t// in\n    tag_69:\n        /* \"#utility.yul\":2068:2146   */\n      swap4\n      pop\n        /* \"#utility.yul\":2155:2207   */\n      tag_71\n        /* \"#utility.yul\":2200:2206   */\n      dup2\n        /* \"#utility.yul\":2195:2198   */\n      dup6\n        /* \"#utility.yul\":2188:2192   */\n      0x20\n        /* \"#utility.yul\":2181:2186   */\n      dup7\n        /* \"#utility.yul\":2177:2193   */\n      add\n        /* \"#utility.yul\":2155:2207   */\n      tag_72\n      jump\t// in\n    tag_71:\n        /* \"#utility.yul\":2232:2261   */\n      tag_73\n        /* \"#utility.yul\":2254:2260   */\n      dup2\n        /* \"#utility.yul\":2232:2261   */\n      tag_74\n      jump\t// in\n    tag_73:\n        /* \"#utility.yul\":2227:2230   */\n      dup5\n        /* \"#utility.yul\":2223:2262   */\n      add\n        /* \"#utility.yul\":2216:2262   */\n      swap2\n      pop\n        /* \"#utility.yul\":1996:2268   */\n      pop\n        /* \"#utility.yul\":1904:2268   */\n      swap3\n      swap2\n      pop\n      pop\n      jump\t// out\n        /* \"#utility.yul\":2274:2392   */\n    tag_75:\n        /* \"#utility.yul\":2361:2385   */\n      tag_77\n        /* \"#utility.yul\":2379:2384   */\n      dup2\n        /* \"#utility.yul\":2361:2385   */\n      tag_78\n      jump\t// in\n    tag_77:\n        /* \"#utility.yul\":2356:2359   */\n      dup3\n        /* \"#utility.yul\":2349:2386   */\n      mstore\n        /* \"#utility.yul\":2274:2392   */\n      pop\n      pop\n      jump\t// out\n        /* \"#utility.yul\":2398:3133   */\n    tag_14:\n        /* \"#utility.yul\":2615:2619   */\n      0x00\n        /* \"#utility.yul\":2653:2656   */\n      0x80\n        /* \"#utility.yul\":2642:2651   */\n      dup3\n        /* \"#utility.yul\":2638:2657   */\n      add\n        /* \"#utility.yul\":2630:2657   */\n      swap1\n      pop\n        /* \"#utility.yul\":2703:2712   */\n      dup2\n        /* \"#utility.yul\":2697:2701   */\n      dup2\n        /* \"#utility.yul\":2693:2713   */\n      sub\n        /* \"#utility.yul\":2689:2690   */\n      0x00\n        /* \"#utility.yul\":2678:2687   */\n      dup4\n        /* \"#utility.yul\":2674:2691   */\n      add\n        /* \"#utility.yul\":2667:2714   */\n      mstore\n        /* \"#utility.yul\":2731:2809   */\n      tag_80\n        /* \"#utility.yul\":2804:2808   */\n      dup2\n        /* \"#utility.yul\":2795:2801   */\n      dup8\n        /* \"#utility.yul\":2731:2809   */\n      tag_65\n      jump\t// in\n    tag_80:\n        /* \"#utility.yul\":2723:2809   */\n      swap1\n      pop\n        /* \"#utility.yul\":2856:2865   */\n      dup2\n        /* \"#utility.yul\":2850:2854   */\n      dup2\n        /* \"#utility.yul\":2846:2866   */\n      sub\n        /* \"#utility.yul\":2841:2843   */\n      0x20\n        /* \"#utility.yul\":2830:2839   */\n      dup4\n        /* \"#utility.yul\":2826:2844   */\n      add\n        /* \"#utility.yul\":2819:2867   */\n      mstore\n        /* \"#utility.yul\":2884:2962   */\n      tag_81\n        /* \"#utility.yul\":2957:2961   */\n      dup2\n        /* \"#utility.yul\":2948:2954   */\n      dup7\n        /* \"#utility.yul\":2884:2962   */\n      tag_65\n      jump\t// in\n    tag_81:\n        /* \"#utility.yul\":2876:2962   */\n      swap1\n      pop\n        /* \"#utility.yul\":2972:3044   */\n      tag_82\n        /* \"#utility.yul\":3040:3042   */\n      0x40\n        /* \"#utility.yul\":3029:3038   */\n      dup4\n        /* \"#utility.yul\":3025:3043   */\n      add\n        /* \"#utility.yul\":3016:3022   */\n      dup6\n        /* \"#utility.yul\":2972:3044   */\n      tag_75\n      jump\t// in\n    tag_82:\n        /* \"#utility.yul\":3054:3126   */\n      tag_83\n        /* \"#utility.yul\":3122:3124   */\n      0x60\n        /* \"#utility.yul\":3111:3120   */\n      dup4\n        /* \"#utility.yul\":3107:3125   */\n      add\n        /* \"#utility.yul\":3098:3104   */\n      dup5\n        /* \"#utility.yul\":3054:3126   */\n      tag_61\n      jump\t// in\n    tag_83:\n        /* \"#utility.yul\":2398:3133   */\n      swap6\n      swap5\n      pop\n      pop\n      pop\n      pop\n      pop\n      jump\t// out\n        /* \"#utility.yul\":3139:3268   */\n    tag_33:\n        /* \"#utility.yul\":3173:3179   */\n      0x00\n        /* \"#utility.yul\":3200:3220   */\n      tag_85\n      tag_86\n      jump\t// in\n    tag_85:\n        /* \"#utility.yul\":3190:3220   */\n      swap1\n      pop\n        /* \"#utility.yul\":3229:3262   */\n      tag_87\n        /* \"#utility.yul\":3257:3261   */\n      dup3\n        /* \"#utility.yul\":3249:3255   */\n      dup3\n        /* \"#utility.yul\":3229:3262   */\n      tag_88\n      jump\t// in\n    tag_87:\n        /* \"#utility.yul\":3139:3268   */\n      swap2\n      swap1\n      pop\n      jump\t// out\n        /* \"#utility.yul\":3274:3349   */\n    tag_86:\n        /* \"#utility.yul\":3307:3313   */\n      0x00\n        /* \"#utility.yul\":3340:3342   */\n      0x40\n        /* \"#utility.yul\":3334:3343   */\n      mload\n        /* \"#utility.yul\":3324:3343   */\n      swap1\n      pop\n        /* \"#utility.yul\":3274:3349   */\n      swap1\n      jump\t// out\n        /* \"#utility.yul\":3355:3663   */\n    tag_32:\n        /* \"#utility.yul\":3417:3421   */\n      0x00\n        /* \"#utility.yul\":3507:3525   */\n      0xffffffffffffffff\n        /* \"#utility.yul\":3499:3505   */\n      dup3\n        /* \"#utility.yul\":3496:3526   */\n      gt\n        /* \"#utility.yul\":3493:3549   */\n      iszero\n      tag_91\n      jumpi\n        /* \"#utility.yul\":3529:3547   */\n      tag_92\n      tag_93\n      jump\t// in\n    tag_92:\n        /* \"#utility.yul\":3493:3549   */\n    tag_91:\n        /* \"#utility.yul\":3567:3596   */\n      tag_94\n        /* \"#utility.yul\":3589:3595   */\n      dup3\n        /* \"#utility.yul\":3567:3596   */\n      tag_74\n      jump\t// in\n    tag_94:\n        /* \"#utility.yul\":3559:3596   */\n      swap1\n      pop\n        /* \"#utility.yul\":3651:3655   */\n      0x20\n        /* \"#utility.yul\":3645:3649   */\n      dup2\n        /* \"#utility.yul\":3641:3656   */\n      add\n        /* \"#utility.yul\":3633:3656   */\n      swap1\n      pop\n        /* \"#utility.yul\":3355:3663   */\n      swap2\n      swap1\n      pop\n      jump\t// out\n        /* \"#utility.yul\":3669:3768   */\n    tag_68:\n        /* \"#utility.yul\":3721:3727   */\n      0x00\n        /* \"#utility.yul\":3755:3760   */\n      dup2\n        /* \"#utility.yul\":3749:3761   */\n      mload\n        /* \"#utility.yul\":3739:3761   */\n      swap1\n      pop\n        /* \"#utility.yul\":3669:3768   */\n      swap2\n      swap1\n      pop\n      jump\t// out\n        /* \"#utility.yul\":3774:3943   */\n    tag_70:\n        /* \"#utility.yul\":3858:3869   */\n      0x00\n        /* \"#utility.yul\":3892:3898   */\n      dup3\n        /* \"#utility.yul\":3887:3890   */\n      dup3\n        /* \"#utility.yul\":3880:3899   */\n      mstore\n        /* \"#utility.yul\":3932:3936   */\n      0x20\n        /* \"#utility.yul\":3927:3930   */\n      dup3\n        /* \"#utility.yul\":3923:3937   */\n      add\n        /* \"#utility.yul\":3908:3937   */\n      swap1\n      pop\n        /* \"#utility.yul\":3774:3943   */\n      swap3\n      swap2\n      pop\n      pop\n      jump\t// out\n        /* \"#utility.yul\":3949:4045   */\n    tag_64:\n        /* \"#utility.yul\":3986:3993   */\n      0x00\n        /* \"#utility.yul\":4015:4039   */\n      tag_98\n        /* \"#utility.yul\":4033:4038   */\n      dup3\n        /* \"#utility.yul\":4015:4039   */\n      tag_99\n      jump\t// in\n    tag_98:\n        /* \"#utility.yul\":4004:4039   */\n      swap1\n      pop\n        /* \"#utility.yul\":3949:4045   */\n      swap2\n      swap1\n      pop\n      jump\t// out\n        /* \"#utility.yul\":4051:4177   */\n    tag_99:\n        /* \"#utility.yul\":4088:4095   */\n      0x00\n        /* \"#utility.yul\":4128:4170   */\n      0xffffffffffffffffffffffffffffffffffffffff\n        /* \"#utility.yul\":4121:4126   */\n      dup3\n        /* \"#utility.yul\":4117:4171   */\n      and\n        /* \"#utility.yul\":4106:4171   */\n      swap1\n      pop\n        /* \"#utility.yul\":4051:4177   */\n      swap2\n      swap1\n      pop\n      jump\t// out\n        /* \"#utility.yul\":4183:4260   */\n    tag_78:\n        /* \"#utility.yul\":4220:4227   */\n      0x00\n        /* \"#utility.yul\":4249:4254   */\n      dup2\n        /* \"#utility.yul\":4238:4254   */\n      swap1\n      pop\n        /* \"#utility.yul\":4183:4260   */\n      swap2\n      swap1\n      pop\n      jump\t// out\n        /* \"#utility.yul\":4266:4420   */\n    tag_38:\n        /* \"#utility.yul\":4350:4356   */\n      dup3\n        /* \"#utility.yul\":4345:4348   */\n      dup2\n        /* \"#utility.yul\":4340:4343   */\n      dup4\n        /* \"#utility.yul\":4327:4357   */\n      calldatacopy\n        /* \"#utility.yul\":4412:4413   */\n      0x00\n        /* \"#utility.yul\":4403:4409   */\n      dup4\n        /* \"#utility.yul\":4398:4401   */\n      dup4\n        /* \"#utility.yul\":4394:4410   */\n      add\n        /* \"#utility.yul\":4387:4414   */\n      mstore\n        /* \"#utility.yul\":4266:4420   */\n      pop\n      pop\n      pop\n      jump\t// out\n        /* \"#utility.yul\":4426:4733   */\n    tag_72:\n        /* \"#utility.yul\":4494:4495   */\n      0x00\n        /* \"#utility.yul\":4504:4617   */\n    tag_104:\n        /* \"#utility.yul\":4518:4524   */\n      dup4\n        /* \"#utility.yul\":4515:4516   */\n      dup2\n        /* \"#utility.yul\":4512:4525   */\n      lt\n        /* \"#utility.yul\":4504:4617   */\n      iszero\n      tag_106\n      jumpi\n        /* \"#utility.yul\":4603:4604   */\n      dup1\n        /* \"#utility.yul\":4598:4601   */\n      dup3\n        /* \"#utility.yul\":4594:4605   */\n      add\n        /* \"#utility.yul\":4588:4606   */\n      mload\n        /* \"#utility.yul\":4584:4585   */\n      dup2\n        /* \"#utility.yul\":4579:4582   */\n      dup5\n        /* \"#utility.yul\":4575:4586   */\n      add\n        /* \"#utility.yul\":4568:4607   */\n      mstore\n        /* \"#utility.yul\":4540:4542   */\n      0x20\n        /* \"#utility.yul\":4537:4538   */\n      dup2\n        /* \"#utility.yul\":4533:4543   */\n      add\n        /* \"#utility.yul\":4528:4543   */\n      swap1\n      pop\n        /* \"#utility.yul\":4504:4617   */\n      jump(tag_104)\n    tag_106:\n        /* \"#utility.yul\":4635:4641   */\n      dup4\n        /* \"#utility.yul\":4632:4633   */\n      dup2\n        /* \"#utility.yul\":4629:4642   */\n      gt\n        /* \"#utility.yul\":4626:4727   */\n      iszero\n      tag_107\n      jumpi\n        /* \"#utility.yul\":4715:4716   */\n      0x00\n        /* \"#utility.yul\":4706:4712   */\n      dup5\n        /* \"#utility.yul\":4701:4704   */\n      dup5\n        /* \"#utility.yul\":4697:4713   */\n      add\n        /* \"#utility.yul\":4690:4717   */\n      mstore\n        /* \"#utility.yul\":4626:4727   */\n    tag_107:\n        /* \"#utility.yul\":4475:4733   */\n      pop\n        /* \"#utility.yul\":4426:4733   */\n      pop\n      pop\n      pop\n      jump\t// out\n        /* \"#utility.yul\":4739:5059   */\n    tag_17:\n        /* \"#utility.yul\":4783:4789   */\n      0x00\n        /* \"#utility.yul\":4820:4821   */\n      0x02\n        /* \"#utility.yul\":4814:4818   */\n      dup3\n        /* \"#utility.yul\":4810:4822   */\n      div\n        /* \"#utility.yul\":4800:4822   */\n      swap1\n      pop\n        /* \"#utility.yul\":4867:4868   */\n      0x01\n        /* \"#utility.yul\":4861:4865   */\n      dup3\n        /* \"#utility.yul\":4857:4869   */\n      and\n        /* \"#utility.yul\":4888:4906   */\n      dup1\n        /* \"#utility.yul\":4878:4959   */\n      tag_109\n      jumpi\n        /* \"#utility.yul\":4944:4948   */\n      0x7f\n        /* \"#utility.yul\":4936:4942   */\n      dup3\n        /* \"#utility.yul\":4932:4949   */\n      and\n        /* \"#utility.yul\":4922:4949   */\n      swap2\n      pop\n        /* \"#utility.yul\":4878:4959   */\n    tag_109:\n        /* \"#utility.yul\":5006:5008   */\n      0x20\n        /* \"#utility.yul\":4998:5004   */\n      dup3\n        /* \"#utility.yul\":4995:5009   */\n      lt\n        /* \"#utility.yul\":4975:4993   */\n      dup2\n        /* \"#utility.yul\":4972:5010   */\n      eq\n        /* \"#utility.yul\":4969:5053   */\n      iszero\n      tag_110\n      jumpi\n        /* \"#utility.yul\":5025:5043   */\n      tag_111\n      tag_112\n      jump\t// in\n    tag_111:\n        /* \"#utility.yul\":4969:5053   */\n    tag_110:\n        /* \"#utility.yul\":4790:5059   */\n      pop\n        /* \"#utility.yul\":4739:5059   */\n      swap2\n      swap1\n      pop\n      jump\t// out\n        /* \"#utility.yul\":5065:5346   */\n    tag_88:\n        /* \"#utility.yul\":5148:5175   */\n      tag_114\n        /* \"#utility.yul\":5170:5174   */\n      dup3\n        /* \"#utility.yul\":5148:5175   */\n      tag_74\n      jump\t// in\n    tag_114:\n        /* \"#utility.yul\":5140:5146   */\n      dup2\n        /* \"#utility.yul\":5136:5176   */\n      add\n        /* \"#utility.yul\":5278:5284   */\n      dup2\n        /* \"#utility.yul\":5266:5276   */\n      dup2\n        /* \"#utility.yul\":5263:5285   */\n      lt\n        /* \"#utility.yul\":5242:5260   */\n      0xffffffffffffffff\n        /* \"#utility.yul\":5230:5240   */\n      dup3\n        /* \"#utility.yul\":5227:5261   */\n      gt\n        /* \"#utility.yul\":5224:5286   */\n      or\n        /* \"#utility.yul\":5221:5309   */\n      iszero\n      tag_115\n      jumpi\n        /* \"#utility.yul\":5289:5307   */\n      tag_116\n      tag_93\n      jump\t// in\n    tag_116:\n        /* \"#utility.yul\":5221:5309   */\n    tag_115:\n        /* \"#utility.yul\":5329:5339   */\n      dup1\n        /* \"#utility.yul\":5325:5327   */\n      0x40\n        /* \"#utility.yul\":5318:5340   */\n      mstore\n        /* \"#utility.yul\":5108:5346   */\n      pop\n        /* \"#utility.yul\":5065:5346   */\n      pop\n      pop\n      jump\t// out\n        /* \"#utility.yul\":5352:5532   */\n    tag_112:\n        /* \"#utility.yul\":5400:5477   */\n      0x4e487b7100000000000000000000000000000000000000000000000000000000\n        /* \"#utility.yul\":5397:5398   */\n      0x00\n        /* \"#utility.yul\":5390:5478   */\n      mstore\n        /* \"#utility.yul\":5497:5501   */\n      0x22\n        /* \"#utility.yul\":5494:5495   */\n      0x04\n        /* \"#utility.yul\":5487:5502   */\n      mstore\n        /* \"#utility.yul\":5521:5525   */\n      0x24\n        /* \"#utility.yul\":5518:5519   */\n      0x00\n        /* \"#utility.yul\":5511:5526   */\n      revert\n        /* \"#utility.yul\":5538:5718   */\n    tag_93:\n        /* \"#utility.yul\":5586:5663   */\n      0x4e487b7100000000000000000000000000000000000000000000000000000000\n        /* \"#utility.yul\":5583:5584   */\n      0x00\n        /* \"#utility.yul\":5576:5664   */\n      mstore\n        /* \"#utility.yul\":5683:5687   */\n      0x41\n        /* \"#utility.yul\":5680:5681   */\n      0x04\n        /* \"#utility.yul\":5673:5688   */\n      mstore\n        /* \"#utility.yul\":5707:5711   */\n      0x24\n        /* \"#utility.yul\":5704:5705   */\n      0x00\n        /* \"#utility.yul\":5697:5712   */\n      revert\n        /* \"#utility.yul\":5724:5841   */\n    tag_47:\n        /* \"#utility.yul\":5833:5834   */\n      0x00\n        /* \"#utility.yul\":5830:5831   */\n      dup1\n        /* \"#utility.yul\":5823:5835   */\n      revert\n        /* \"#utility.yul\":5847:5964   */\n    tag_36:\n        /* \"#utility.yul\":5956:5957   */\n      0x00\n        /* \"#utility.yul\":5953:5954   */\n      dup1\n        /* \"#utility.yul\":5946:5958   */\n      revert\n        /* \"#utility.yul\":5970:6087   */\n    tag_59:\n        /* \"#utility.yul\":6079:6080   */\n      0x00\n        /* \"#utility.yul\":6076:6077   */\n      dup1\n        /* \"#utility.yul\":6069:6081   */\n      revert\n        /* \"#utility.yul\":6093:6210   */\n    tag_52:\n        /* \"#utility.yul\":6202:6203   */\n      0x00\n        /* \"#utility.yul\":6199:6200   */\n      dup1\n        /* \"#utility.yul\":6192:6204   */\n      revert\n        /* \"#utility.yul\":6216:6318   */\n    tag_74:\n        /* \"#utility.yul\":6257:6263   */\n      0x00\n        /* \"#utility.yul\":6308:6310   */\n      0x1f\n        /* \"#utility.yul\":6304:6311   */\n      not\n        /* \"#utility.yul\":6299:6301   */\n      0x1f\n        /* \"#utility.yul\":6292:6297   */\n      dup4\n        /* \"#utility.yul\":6288:6302   */\n      add\n        /* \"#utility.yul\":6284:6312   */\n      and\n        /* \"#utility.yul\":6274:6312   */\n      swap1\n      pop\n        /* \"#utility.yul\":6216:6318   */\n      swap2\n      swap1\n      pop\n      jump\t// out\n        /* \"#utility.yul\":6324:6446   */\n    tag_42:\n        /* \"#utility.yul\":6397:6421   */\n      tag_125\n        /* \"#utility.yul\":6415:6420   */\n      dup2\n        /* \"#utility.yul\":6397:6421   */\n      tag_64\n      jump\t// in\n    tag_125:\n        /* \"#utility.yul\":6390:6395   */\n      dup2\n        /* \"#utility.yul\":6387:6422   */\n      eq\n        /* \"#utility.yul\":6377:6440   */\n      tag_126\n      jumpi\n        /* \"#utility.yul\":6436:6437   */\n      0x00\n        /* \"#utility.yul\":6433:6434   */\n      dup1\n        /* \"#utility.yul\":6426:6438   */\n      revert\n        /* \"#utility.yul\":6377:6440   */\n    tag_126:\n        /* \"#utility.yul\":6324:6446   */\n      pop\n      jump\t// out\n\n    auxdata: 0xa26469706673582212207bbad218e1509d9cd02f19463d13d6feb41abd0193af32731028ef671b38570c64736f6c63430008070033\n}\n",
				"bytecode": {
					"linkReferences": {},
					"object": "608060405234801561001057600080fd5b506105b5806100206000396000f3fe608060405234801561001057600080fd5b50600436106100365760003560e01c806353e0be391461003b578063a4063dbc14610057575b600080fd5b6100556004803603810190610050919061029f565b61008a565b005b610071600480360381019061006c9190610272565b61008d565b604051610081949392919061033f565b60405180910390f35b50565b60006020528060005260406000206000915090508060000180546100b090610482565b80601f01602080910402602001604051908101604052809291908181526020018280546100dc90610482565b80156101295780601f106100fe57610100808354040283529160200191610129565b820191906000526020600020905b81548152906001019060200180831161010c57829003601f168201915b50505050509080600101805461013e90610482565b80601f016020809104026020016040519081016040528092919081815260200182805461016a90610482565b80156101b75780601f1061018c576101008083540402835291602001916101b7565b820191906000526020600020905b81548152906001019060200180831161019a57829003601f168201915b5050505050908060020154908060030160009054906101000a900473ffffffffffffffffffffffffffffffffffffffff16905084565b60006102006101fb846103b7565b610392565b90508281526020810184848401111561021c5761021b610548565b5b610227848285610440565b509392505050565b60008135905061023e81610568565b92915050565b600082601f83011261025957610258610543565b5b81356102698482602086016101ed565b91505092915050565b60006020828403121561028857610287610552565b5b60006102968482850161022f565b91505092915050565b6000602082840312156102b5576102b4610552565b5b600082013567ffffffffffffffff8111156102d3576102d261054d565b5b6102df84828501610244565b91505092915050565b6102f181610404565b82525050565b6000610302826103e8565b61030c81856103f3565b935061031c81856020860161044f565b61032581610557565b840191505092915050565b61033981610436565b82525050565b6000608082019050818103600083015261035981876102f7565b9050818103602083015261036d81866102f7565b905061037c6040830185610330565b61038960608301846102e8565b95945050505050565b600061039c6103ad565b90506103a882826104b4565b919050565b6000604051905090565b600067ffffffffffffffff8211156103d2576103d1610514565b5b6103db82610557565b9050602081019050919050565b600081519050919050565b600082825260208201905092915050565b600061040f82610416565b9050919050565b600073ffffffffffffffffffffffffffffffffffffffff82169050919050565b6000819050919050565b82818337600083830152505050565b60005b8381101561046d578082015181840152602081019050610452565b8381111561047c576000848401525b50505050565b6000600282049050600182168061049a57607f821691505b602082108114156104ae576104ad6104e5565b5b50919050565b6104bd82610557565b810181811067ffffffffffffffff821117156104dc576104db610514565b5b80604052505050565b7f4e487b7100000000000000000000000000000000000000000000000000000000600052602260045260246000fd5b7f4e487b7100000000000000000000000000000000000000000000000000000000600052604160045260246000fd5b600080fd5b600080fd5b600080fd5b600080fd5b6000601f19601f8301169050919050565b61057181610404565b811461057c57600080fd5b5056fea26469706673582212207bbad218e1509d9cd02f19463d13d6feb41abd0193af32731028ef671b38570c64736f6c63430008070033",
					"opcodes": "PUSH1 0x80 PUSH1 0x40 MSTORE CALLVALUE DUP1 ISZERO PUSH2 0x10 JUMPI PUSH1 0x0 DUP1 REVERT JUMPDEST POP PUSH2 0x5B5 DUP1 PUSH2 0x20 PUSH1 0x0 CODECOPY PUSH1 0x0 RETURN INVALID PUSH1 0x80 PUSH1 0x40 MSTORE CALLVALUE DUP1 ISZERO PUSH2 0x10 JUMPI PUSH1 0x0 DUP1 REVERT JUMPDEST POP PUSH1 0x4 CALLDATASIZE LT PUSH2 0x36 JUMPI PUSH1 0x0 CALLDATALOAD PUSH1 0xE0 SHR DUP1 PUSH4 0x53E0BE39 EQ PUSH2 0x3B JUMPI DUP1 PUSH4 0xA4063DBC EQ PUSH2 0x57 JUMPI JUMPDEST PUSH1 0x0 DUP1 REVERT JUMPDEST PUSH2 0x55 PUSH1 0x4 DUP1 CALLDATASIZE SUB DUP2 ADD SWAP1 PUSH2 0x50 SWAP2 SWAP1 PUSH2 0x29F JUMP JUMPDEST PUSH2 0x8A JUMP JUMPDEST STOP JUMPDEST PUSH2 0x71 PUSH1 0x4 DUP1 CALLDATASIZE SUB DUP2 ADD SWAP1 PUSH2 0x6C SWAP2 SWAP1 PUSH2 0x272 JUMP JUMPDEST PUSH2 0x8D JUMP JUMPDEST PUSH1 0x40 MLOAD PUSH2 0x81 SWAP5 SWAP4 SWAP3 SWAP2 SWAP1 PUSH2 0x33F JUMP JUMPDEST PUSH1 0x40 MLOAD DUP1 SWAP2 SUB SWAP1 RETURN JUMPDEST POP JUMP JUMPDEST PUSH1 0x0 PUSH1 0x20 MSTORE DUP1 PUSH1 0x0 MSTORE PUSH1 0x40 PUSH1 0x0 KECCAK256 PUSH1 0x0 SWAP2 POP SWAP1 POP DUP1 PUSH1 0x0 ADD DUP1 SLOAD PUSH2 0xB0 SWAP1 PUSH2 0x482 JUMP JUMPDEST DUP1 PUSH1 0x1F ADD PUSH1 0x20 DUP1 SWAP2 DIV MUL PUSH1 0x20 ADD PUSH1 0x40 MLOAD SWAP1 DUP2 ADD PUSH1 0x40 MSTORE DUP1 SWAP3 SWAP2 SWAP1 DUP2 DUP2 MSTORE PUSH1 0x20 ADD DUP3 DUP1 SLOAD PUSH2 0xDC SWAP1 PUSH2 0x482 JUMP JUMPDEST DUP1 ISZERO PUSH2 0x129 JUMPI DUP1 PUSH1 0x1F LT PUSH2 0xFE JUMPI PUSH2 0x100 DUP1 DUP4 SLOAD DIV MUL DUP4 MSTORE SWAP2 PUSH1 0x20 ADD SWAP2 PUSH2 0x129 JUMP JUMPDEST DUP3 ADD SWAP2 SWAP1 PUSH1 0x0 MSTORE PUSH1 0x20 PUSH1 0x0 KECCAK256 SWAP1 JUMPDEST DUP2 SLOAD DUP2 MSTORE SWAP1 PUSH1 0x1 ADD SWAP1 PUSH1 0x20 ADD DUP1 DUP4 GT PUSH2 0x10C JUMPI DUP3 SWAP1 SUB PUSH1 0x1F AND DUP3 ADD SWAP2 JUMPDEST POP POP POP POP POP SWAP1 DUP1 PUSH1 0x1 ADD DUP1 SLOAD PUSH2 0x13E SWAP1 PUSH2 0x482 JUMP JUMPDEST DUP1 PUSH1 0x1F ADD PUSH1 0x20 DUP1 SWAP2 DIV MUL PUSH1 0x20 ADD PUSH1 0x40 MLOAD SWAP1 DUP2 ADD PUSH1 0x40 MSTORE DUP1 SWAP3 SWAP2 SWAP1 DUP2 DUP2 MSTORE PUSH1 0x20 ADD DUP3 DUP1 SLOAD PUSH2 0x16A SWAP1 PUSH2 0x482 JUMP JUMPDEST DUP1 ISZERO PUSH2 0x1B7 JUMPI DUP1 PUSH1 0x1F LT PUSH2 0x18C JUMPI PUSH2 0x100 DUP1 DUP4 SLOAD DIV MUL DUP4 MSTORE SWAP2 PUSH1 0x20 ADD SWAP2 PUSH2 0x1B7 JUMP JUMPDEST DUP3 ADD SWAP2 SWAP1 PUSH1 0x0 MSTORE PUSH1 0x20 PUSH1 0x0 KECCAK256 SWAP1 JUMPDEST DUP2 SLOAD DUP2 MSTORE SWAP1 PUSH1 0x1 ADD SWAP1 PUSH1 0x20 ADD DUP1 DUP4 GT PUSH2 0x19A JUMPI DUP3 SWAP1 SUB PUSH1 0x1F AND DUP3 ADD SWAP2 JUMPDEST POP POP POP POP POP SWAP1 DUP1 PUSH1 0x2 ADD SLOAD SWAP1 DUP1 PUSH1 0x3 ADD PUSH1 0x0 SWAP1 SLOAD SWAP1 PUSH2 0x100 EXP SWAP1 DIV PUSH20 0xFFFFFFFFFFFFFFFFFFFFFFFFFFFFFFFFFFFFFFFF AND SWAP1 POP DUP5 JUMP JUMPDEST PUSH1 0x0 PUSH2 0x200 PUSH2 0x1FB DUP5 PUSH2 0x3B7 JUMP JUMPDEST PUSH2 0x392 JUMP JUMPDEST SWAP1 POP DUP3 DUP2 MSTORE PUSH1 0x20 DUP2 ADD DUP5 DUP5 DUP5 ADD GT ISZERO PUSH2 0x21C JUMPI PUSH2 0x21B PUSH2 0x548 JUMP JUMPDEST JUMPDEST PUSH2 0x227 DUP5 DUP3 DUP6 PUSH2 0x440 JUMP JUMPDEST POP SWAP4 SWAP3 POP POP POP JUMP JUMPDEST PUSH1 0x0 DUP2 CALLDATALOAD SWAP1 POP PUSH2 0x23E DUP2 PUSH2 0x568 JUMP JUMPDEST SWAP3 SWAP2 POP POP JUMP JUMPDEST PUSH1 0x0 DUP3 PUSH1 0x1F DUP4 ADD SLT PUSH2 0x259 JUMPI PUSH2 0x258 PUSH2 0x543 JUMP JUMPDEST JUMPDEST DUP2 CALLDATALOAD PUSH2 0x269 DUP5 DUP3 PUSH1 0x20 DUP7 ADD PUSH2 0x1ED JUMP JUMPDEST SWAP2 POP POP SWAP3 SWAP2 POP POP JUMP JUMPDEST PUSH1 0x0 PUSH1 0x20 DUP3 DUP5 SUB SLT ISZERO PUSH2 0x288 JUMPI PUSH2 0x287 PUSH2 0x552 JUMP JUMPDEST JUMPDEST PUSH1 0x0 PUSH2 0x296 DUP5 DUP3 DUP6 ADD PUSH2 0x22F JUMP JUMPDEST SWAP2 POP POP SWAP3 SWAP2 POP POP JUMP JUMPDEST PUSH1 0x0 PUSH1 0x20 DUP3 DUP5 SUB SLT ISZERO PUSH2 0x2B5 JUMPI PUSH2 0x2B4 PUSH2 0x552 JUMP JUMPDEST JUMPDEST PUSH1 0x0 DUP3 ADD CALLDATALOAD PUSH8 0xFFFFFFFFFFFFFFFF DUP2 GT ISZERO PUSH2 0x2D3 JUMPI PUSH2 0x2D2 PUSH2 0x54D JUMP JUMPDEST JUMPDEST PUSH2 0x2DF DUP5 DUP3 DUP6 ADD PUSH2 0x244 JUMP JUMPDEST SWAP2 POP POP SWAP3 SWAP2 POP POP JUMP JUMPDEST PUSH2 0x2F1 DUP2 PUSH2 0x404 JUMP JUMPDEST DUP3 MSTORE POP POP JUMP JUMPDEST PUSH1 0x0 PUSH2 0x302 DUP3 PUSH2 0x3E8 JUMP JUMPDEST PUSH2 0x30C DUP2 DUP6 PUSH2 0x3F3 JUMP JUMPDEST SWAP4 POP PUSH2 0x31C DUP2 DUP6 PUSH1 0x20 DUP7 ADD PUSH2 0x44F JUMP JUMPDEST PUSH2 0x325 DUP2 PUSH2 0x557 JUMP JUMPDEST DUP5 ADD SWAP2 POP POP SWAP3 SWAP2 POP POP JUMP JUMPDEST PUSH2 0x339 DUP2 PUSH2 0x436 JUMP JUMPDEST DUP3 MSTORE POP POP JUMP JUMPDEST PUSH1 0x0 PUSH1 0x80 DUP3 ADD SWAP1 POP DUP2 DUP2 SUB PUSH1 0x0 DUP4 ADD MSTORE PUSH2 0x359 DUP2 DUP8 PUSH2 0x2F7 JUMP JUMPDEST SWAP1 POP DUP2 DUP2 SUB PUSH1 0x20 DUP4 ADD MSTORE PUSH2 0x36D DUP2 DUP7 PUSH2 0x2F7 JUMP JUMPDEST SWAP1 POP PUSH2 0x37C PUSH1 0x40 DUP4 ADD DUP6 PUSH2 0x330 JUMP JUMPDEST PUSH2 0x389 PUSH1 0x60 DUP4 ADD DUP5 PUSH2 0x2E8 JUMP JUMPDEST SWAP6 SWAP5 POP POP POP POP POP JUMP JUMPDEST PUSH1 0x0 PUSH2 0x39C PUSH2 0x3AD JUMP JUMPDEST SWAP1 POP PUSH2 0x3A8 DUP3 DUP3 PUSH2 0x4B4 JUMP JUMPDEST SWAP2 SWAP1 POP JUMP JUMPDEST PUSH1 0x0 PUSH1 0x40 MLOAD SWAP1 POP SWAP1 JUMP JUMPDEST PUSH1 0x0 PUSH8 0xFFFFFFFFFFFFFFFF DUP3 GT ISZERO PUSH2 0x3D2 JUMPI PUSH2 0x3D1 PUSH2 0x514 JUMP JUMPDEST JUMPDEST PUSH2 0x3DB DUP3 PUSH2 0x557 JUMP JUMPDEST SWAP1 POP PUSH1 0x20 DUP2 ADD SWAP1 POP SWAP2 SWAP1 POP JUMP JUMPDEST PUSH1 0x0 DUP2 MLOAD SWAP1 POP SWAP2 SWAP1 POP JUMP JUMPDEST PUSH1 0x0 DUP3 DUP3 MSTORE PUSH1 0x20 DUP3 ADD SWAP1 POP SWAP3 SWAP2 POP POP JUMP JUMPDEST PUSH1 0x0 PUSH2 0x40F DUP3 PUSH2 0x416 JUMP JUMPDEST SWAP1 POP SWAP2 SWAP1 POP JUMP JUMPDEST PUSH1 0x0 PUSH20 0xFFFFFFFFFFFFFFFFFFFFFFFFFFFFFFFFFFFFFFFF DUP3 AND SWAP1 POP SWAP2 SWAP1 POP JUMP JUMPDEST PUSH1 0x0 DUP2 SWAP1 POP SWAP2 SWAP1 POP JUMP JUMPDEST DUP3 DUP2 DUP4 CALLDATACOPY PUSH1 0x0 DUP4 DUP4 ADD MSTORE POP POP POP JUMP JUMPDEST PUSH1 0x0 JUMPDEST DUP4 DUP2 LT ISZERO PUSH2 0x46D JUMPI DUP1 DUP3 ADD MLOAD DUP2 DUP5 ADD MSTORE PUSH1 0x20 DUP2 ADD SWAP1 POP PUSH2 0x452 JUMP JUMPDEST DUP4 DUP2 GT ISZERO PUSH2 0x47C JUMPI PUSH1 0x0 DUP5 DUP5 ADD MSTORE JUMPDEST POP POP POP POP JUMP JUMPDEST PUSH1 0x0 PUSH1 0x2 DUP3 DIV SWAP1 POP PUSH1 0x1 DUP3 AND DUP1 PUSH2 0x49A JUMPI PUSH1 0x7F DUP3 AND SWAP2 POP JUMPDEST PUSH1 0x20 DUP3 LT DUP2 EQ ISZERO PUSH2 0x4AE JUMPI PUSH2 0x4AD PUSH2 0x4E5 JUMP JUMPDEST JUMPDEST POP SWAP2 SWAP1 POP JUMP JUMPDEST PUSH2 0x4BD DUP3 PUSH2 0x557 JUMP JUMPDEST DUP2 ADD DUP2 DUP2 LT PUSH8 0xFFFFFFFFFFFFFFFF DUP3 GT OR ISZERO PUSH2 0x4DC JUMPI PUSH2 0x4DB PUSH2 0x514 JUMP JUMPDEST JUMPDEST DUP1 PUSH1 0x40 MSTORE POP POP POP JUMP JUMPDEST PUSH32 0x4E487B7100000000000000000000000000000000000000000000000000000000 PUSH1 0x0 MSTORE PUSH1 0x22 PUSH1 0x4 MSTORE PUSH1 0x24 PUSH1 0x0 REVERT JUMPDEST PUSH32 0x4E487B7100000000000000000000000000000000000000000000000000000000 PUSH1 0x0 MSTORE PUSH1 0x41 PUSH1 0x4 MSTORE PUSH1 0x24 PUSH1 0x0 REVERT JUMPDEST PUSH1 0x0 DUP1 REVERT JUMPDEST PUSH1 0x0 DUP1 REVERT JUMPDEST PUSH1 0x0 DUP1 REVERT JUMPDEST PUSH1 0x0 DUP1 REVERT JUMPDEST PUSH1 0x0 PUSH1 0x1F NOT PUSH1 0x1F DUP4 ADD AND SWAP1 POP SWAP2 SWAP1 POP JUMP JUMPDEST PUSH2 0x571 DUP2 PUSH2 0x404 JUMP JUMPDEST DUP2 EQ PUSH2 0x57C JUMPI PUSH1 0x0 DUP1 REVERT JUMPDEST POP JUMP INVALID LOG2 PUSH5 0x6970667358 0x22 SLT KECCAK256 PUSH28 0xBAD218E1509D9CD02F19463D13D6FEB41ABD0193AF32731028EF671B CODESIZE JUMPI 0xC PUSH5 0x736F6C6343 STOP ADDMOD SMOD STOP CALLER "
				},
				"gasEstimates": {
					"creation": {
						"codeDepositCost": "292200",
						"executionCost": "331",
						"totalCost": "292531"
					},
					"external": {
						"pools(address)": "infinite",
						"startPool(string)": "infinite"
					}
				},
				"methodIdentifiers": {
					"pools(address)": "a4063dbc",
					"startPool(string)": "53e0be39"
				}
			},
			"userdoc": {
				"kind": "user",
				"methods": {},
				"version": 1
			}
		}
	}
}